:020000040800F2
:100000000050002071410008B9400008BB400008C2
:10001000BD400008BF400008C140000800000000CB
:10002000000000000000000000000000C3400008C5
:10003000C540000800000000C7400008C940000893
:10004000B9410008B9410008B9410008B9410008A8
:10005000B9410008D7400008B9410008B94100087B
:10006000B9410008B9410008B9410008D940000869
:10007000B9410008B9410008B9410008B941000878
:10008000B9410008B9410008B9410008B941000868
:10009000B9410008B9410008B9410008B941000858
:1000A000B9410008B9410008B9410008B941000848
:1000B000E5400008F1400008B9410008B9410008D6
:1000C000B9410008B9410008B9410008B941000828
:1000D000B9410008B9410008B9410008B941000818
:1000E000B9410008B9410008B9410008000000000A
:1000F0000000000000000000000000000000000000
:0C01000000000000000000005FF808F1A3
:1001100010B5054C237833B9044B13B10448AFF341
:1001200000800123237010BD380A00200000000069
:100130007C76000808B5034B1BB103490348AFF3B5
:10014000008008BD000000003C0A00207C7600080A
:10015000034613F8012B002AFBD1181A0138704707
:1001600081F0004102E000BF83F0004330B54FEA68
:1001700041044FEA430594EA050F08BF90EA020FD5
:100180001FBF54EA000C55EA020C7FEA645C7FEA68
:10019000655C00F0E2804FEA5454D4EB5555B8BF8B
:1001A0006D420CDD2C4480EA020281EA030382EAFC
:1001B000000083EA010180EA020281EA0303362D8E
:1001C00088BF30BD11F0004F4FEA01314FF4801C61
:1001D0004CEA113102D0404261EB410113F0004F73
:1001E0004FEA03334CEA133302D0524263EB43032A
:1001F00094EA050F00F0A780A4F10104D5F1200EC8
:100200000DDB02FA0EFC22FA05F2801841F1000122
:1002100003FA0EF2801843FA05F359410EE0A5F1F6
:1002200020050EF1200E012A03FA0EFC28BF4CF027
:10023000020C43FA05F3C01851EBE37101F00045DD
:1002400007D54FF0000EDCF1000C7EEB00006EEBEA
:100250000101B1F5801F1BD3B1F5001F0CD3490874
:100260005FEA30004FEA3C0C04F101044FEA4452CB
:1002700012F5800F80F09A80BCF1004F08BF5FEA52
:10028000500C50F1000041EB045141EA050130BD32
:100290005FEA4C0C404141EB010111F4801FA4F1D5
:1002A0000104E9D191F0000F04BF01460020B1FA2A
:1002B00081F308BF2033A3F10B03B3F120020CDA62
:1002C0000C3208DD02F1140CC2F10C0201FA0CF040
:1002D00021FA02F10CE002F11402D8BFC2F1200CA5
:1002E00001FA02F120FA0CFCDCBF41EA0C0190405B
:1002F000E41AA2BF01EB0451294330BD6FEA0404A4
:100300001F3C1CDA0C340EDC04F11404C4F120028E
:1003100020FA04F001FA02F340EA030021FA04F3A0
:1003200045EA030130BDC4F10C04C4F1200220FAF7
:1003300002F001FA04F340EA0300294630BD21FA35
:1003400004F0294630BD94F0000F83F4801306BFFB
:1003500081F480110134013D4EE77FEA645C18BFEF
:100360007FEA655C29D094EA050F08BF90EA020F86
:1003700005D054EA000C04BF1946104630BD91EA7E
:10038000030F1EBF0021002030BD5FEA545C05D181
:100390004000494128BF41F0004130BD14F58004C0
:1003A0003CBF01F5801130BD01F0004545F0FE4134
:1003B00041F470014FF0000030BD7FEA645C1ABF69
:1003C000194610467FEA655C1CBF0B46024650EAA0
:1003D000013406BF52EA033591EA030F41F40021CC
:1003E00030BD00BF90F0000F04BF0021704730B552
:1003F0004FF4806404F132044FF000054FF0000127
:1004000050E700BF90F0000F04BF0021704730B5E7
:100410004FF4806404F1320410F0004548BF4042BC
:100420004FF000013EE700BF42004FEAE2014FEA11
:1004300031014FEA02701FBF12F07F4393F07F4FEC
:1004400081F06051704732F07F4208BF704793F0EF
:100450007F4F04BF41F40021704730B54FF4607402
:1004600001F0004521F000411CE700BF50EA010205
:1004700008BF704730B54FF000050AE050EA0102AE
:1004800008BF704730B511F0004502D5404261EB1E
:1004900041014FF4806404F132045FEA915C3FF45F
:1004A000D8AE4FF003025FEADC0C18BF03325FEAFC
:1004B000DC0C18BF033202EBDC02C2F1200300FAAD
:1004C00003FC20FA02F001FA03FE40EA0E0021FAD2
:1004D00002F11444BDE600BF70B54FF0FF0C4CF4C0
:1004E000E06C1CEA11541DBF1CEA135594EA0C0F72
:1004F00095EA0C0F00F0DEF82C4481EA030621EAAD
:100500004C5123EA4C5350EA013518BF52EA0335E7
:1005100041F4801143F4801338D0A0FB02CE4FF099
:100520000005E1FB02E506F00042E0FB03E54FF0C9
:100530000006E1FB03569CF0000F18BF4EF0010EC1
:10054000A4F1FF04B6F5007F64F5407404D25FEABD
:100550004E0E6D4146EB060642EAC62141EA555170
:100560004FEAC52040EA5E504FEACE2EB4F1FD0CB2
:1005700088BFBCF5E06F1ED8BEF1004F08BF5FEA30
:10058000500E50F1000041EB045170BD06F00046E2
:1005900046EA010140EA020081EA0301B4EB5C048F
:1005A000C2BFD4EB0C0541EA045170BD41F4801187
:1005B0004FF0000E013C00F3AB8014F1360FDEBFAC
:1005C000002001F0004170BDC4F10004203C35DA88
:1005D0000C341BDC04F11404C4F1200500FA05F30B
:1005E00020FA04F001FA05F240EA020001F00042AC
:1005F00021F0004110EBD37021FA04F642EB060122
:100600005EEA430E08BF20EAD37070BDC4F10C044B
:10061000C4F1200500FA04F320FA05F001FA04F20F
:1006200040EA020001F0004110EBD37041F10001FB
:100630005EEA430E08BF20EAD37070BDC4F1200506
:1006400000FA05F24EEA020E20FA04F301FA05F26E
:1006500043EA020321FA04F001F0004121FA04F216
:1006600020EA020000EBD3705EEA430E08BF20EAE6
:10067000D37070BD94F0000F0FD101F00046400020
:1006800041EB010111F4801F08BF013CF7D041EAA2
:10069000060195F0000F18BF704703F000465200A6
:1006A00043EB030313F4801F08BF013DF7D043EA77
:1006B0000603704794EA0C0F0CEA135518BF95EA2D
:1006C0000C0F0CD050EA410618BF52EA4306D1D1B4
:1006D00081EA030101F000414FF0000070BD50EAD3
:1006E000410606BF1046194652EA430619D094EA5D
:1006F0000C0F02D150EA013613D195EA0C0F05D147
:1007000052EA03361CBF104619460AD181EA03019A
:1007100001F0004141F0FE4141F470014FF0000052
:1007200070BD41F0FE4141F4780170BD70B54FF0ED
:10073000FF0C4CF4E06C1CEA11541DBF1CEA13556D
:1007400094EA0C0F95EA0C0F00F0A7F8A4EB05044F
:1007500081EA030E52EA03354FEA013100F0888046
:100760004FEA03334FF0805545EA131343EA12630F
:100770004FEA022245EA111545EA10654FEA0026C4
:100780000EF000419D4208BF964244F1FD0404F57D
:10079000407402D25B084FEA3202B61A65EB0305D9
:1007A0005B084FEA32024FF480104FF4002CB6EB96
:1007B000020E75EB030E22BFB61A754640EA0C0016
:1007C0005B084FEA3202B6EB020E75EB030E22BF56
:1007D000B61A754640EA5C005B084FEA3202B6EB97
:1007E000020E75EB030E22BFB61A754640EA9C0056
:1007F0005B084FEA3202B6EB020E75EB030E22BF26
:10080000B61A754640EADC0055EA060E18D04FEAE3
:10081000051545EA16754FEA06164FEAC30343EA83
:1008200052734FEAC2025FEA1C1CC0D111F4801F50
:100830000BD141EA00014FF000004FF0004CB6E749
:1008400011F4801F04BF01430020B4F1FD0C88BFE8
:10085000BCF5E06F3FF6AFAEB5EB030C04BFB6EBF3
:10086000020C5FEA500C50F1000041EB045170BDE6
:100870000EF0004E4EEA113114EB5C04C2BFD4EB13
:100880000C0541EA045170BD41F480114FF0000E97
:10089000013C90E645EA060E8DE60CEA135594EA13
:1008A0000C0F08BF95EA0C0F3FF43BAF94EA0C0F16
:1008B0000AD150EA01347FF434AF95EA0C0F7FF48B
:1008C00025AF104619462CE795EA0C0F06D152EADF
:1008D00003353FF4FDAE1046194622E750EA4106C3
:1008E00018BF52EA43067FF4C5AE50EA41047FF4D4
:1008F0000DAF52EA43057FF4EBAE12E74FF0FF3C39
:1009000006E000BF4FF0010C02E000BF4FF0010C09
:100910004DF804CD4FEA410C7FEA6C5C4FEA430C82
:1009200018BF7FEA6C5C1BD001B050EA410C0CBFD1
:1009300052EA430C91EA030F02BF90EA020F002033
:10094000704710F1000F91EA030F58BF994208BF9A
:1009500090422CBFD8176FEAE37040F00100704757
:100960004FEA410C7FEA6C5C02D150EA013C07D1AE
:100970004FEA430C7FEA6C5CD6D152EA033CD3D0F9
:100980005DF8040B704700BF8446104662468C46F3
:100990001946634600E000BF01B5FFF7B7FF002826
:1009A00048BF10F1000F01BD4DF808EDFFF7F4FF4F
:1009B0000CBF012000205DF808FB00BF4DF808EDDA
:1009C000FFF7EAFF34BF012000205DF808FB00BFFD
:1009D0004DF808EDFFF7E0FF94BF012000205DF81F
:1009E00008FB00BF4DF808EDFFF7CEFF94BF0120D4
:1009F00000205DF808FB00BF4DF808EDFFF7C4FFCD
:100A000034BF012000205DF808FB00BF4FEA410C15
:100A10007FEA6C5C02D150EA013C0AD14FEA430CF8
:100A20007FEA6C5C02D152EA033C02D14FF0000035
:100A300070474FF0010070474FEA410212F5001273
:100A400015D211D56FF47873B3EB625212D94FEA15
:100A5000C12343F0004343EA505311F0004F23FAFF
:100A600002F018BF404270474FF00000704750EA54
:100A7000013005D111F0004008BF6FF00040704711
:100A80004FF00000704700BF53B94AB9002908BFB2
:100A900000281CBF4FF0FF314FF0FF3000F074B959
:100AA000ADF1080C6DE904CE00F006F8DDF804E0C5
:100AB000DDE9022304B070472DE9F0478C46044677
:100AC000089E002B4BD18A42154667D9B2FA82F2B2
:100AD0004AB1C2F1200701FA02F320FA07F7954064
:100AE00047EA030C94404FEA154EBCFBFEF71FFA91
:100AF00085F80EFB17C307FB08F9210C41EA0343F5
:100B0000994509D9EB1807F1FF3180F01C8199450F
:100B100040F21981023F2B44A3EB0903B3FBFEF023
:100B20000EFB103300FB08F1A4B244EA0344A142D7
:100B300009D92C1900F1FF3380F00781A14240F25E
:100B4000048102382C4440EA07400027641A1EB191
:100B50000023D440C6E900433946BDE8F0878B4204
:100B600009D9002E00F0EC800027C6E900013846C4
:100B70003946BDE8F087B3FA83F7002F48D18B429E
:100B800002D3824200F2FB80841A61EB030301204E
:100B90009C46002EE0D0C6E9004CDDE702B9FFDE3E
:100BA000B2FA82F2002A40F08F800127491B4FEAF7
:100BB00015481FFA85F9B1FBF8FE08FB1E1109FB69
:100BC0000EF04FEA144C4CEA0143984207D9EB1857
:100BD0000EF1FF3102D2984200F2CD808E461B1AF0
:100BE000B3FBF8F008FB103309FB00F9A4B244EAA8
:100BF0000344A14507D92C1900F1FF3302D2A145C6
:100C000000F2B6801846A4EB090440EA0E409EE7C5
:100C1000C7F12005BB4022FA05FC4CEA030C21FA7F
:100C200005F44FEA1C4EB4FBFEF91FFA8CF80EFBDC
:100C3000194420FA05F3B94009FB08FA19430B0CD3
:100C400043EA0444A24502FA07F200FA07F30BD97B
:100C50001CEB040409F1FF3080F08880A24540F2CB
:100C60008580A9F102096444A4EB0A04B4FBFEF0F8
:100C70000EFB104400FB08FA89B241EA0444A24585
:100C800008D91CEB040400F1FF316BD2A24569D9ED
:100C90000238644440EA0940A0FB0289A4EB0A043C
:100CA0004C454146CE4654D351D0002E69D05A1AF5
:100CB00064EB0E0404FA05F522FA07F3FC401D4329
:100CC000C6E90054002747E79540C2F1200321FA06
:100CD00003F04FEA1548B0FBF8F71FFA85F908FB57
:100CE000170024FA03F3914007FB09FC0B43190C8E
:100CF00041EA00418C4504FA02F407D9691807F16A
:100D0000FF3031D28C452FD9023F2944A1EB0C0191
:100D1000B1FBF8F008FB101C00FB09FE99B241EA98
:100D20000C418E4507D9691800F1FF3318D28E4562
:100D300016D902382944A1EB0E0140EA07473AE7E9
:100D40003746304608E70F46E6E61846FBE64345D9
:100D5000ABD2B8EB020169EB0C0201389646A4E76E
:100D60001846E8E7084695E70746CFE781467BE760
:100D700002382C4447E7AEF1020E2B442FE73846E9
:100D800007E73746E8E600BF704700BF38B50E4BAF
:100D9000054618784FF47A73B3FBF0F30B4A1068EA
:100DA000B0FBF3F000F0EEFA044658B90F2D09D865
:100DB000024629464FF0FF3000F0A4FA044B2046CB
:100DC0001D6038BD012038BD0000002084000020D7
:100DD00004000020074A08B51368032043F01003FD
:100DE000136000F07DFA0020FFF7D0FF03F000F859
:100DF000002008BD00200240034A044B11681B7804
:100E00000B441360704700BF900A002000000020D0
:100E1000014B1868704700BF900A002038B504469F
:100E2000FFF7F6FF0546631C1EBF044B1B78E41852
:100E3000FFF7EEFF401B8442FAD838BD00000020C7
:100E40007047436A10B59A6A12F0500F1BD19A6A24
:100E500042F400729A621A68926802F46022B2F553
:100E6000602F0CD1DA6852B99A6A22F480729A62C1
:100E70009A6AD2045EBF9A6A42F001029A621846E8
:100E8000FFF7DEFF10BD1B6ABDE810401B6B184763
:100E9000704708B5406AFFF7FBFF08BD7047406A1E
:100EA00008B5836A43F040038362C36A43F00403D6
:100EB000C362FFF7F3FF08BD002373B5019390F8F9
:100EC0002430012B74D001234D6880F82430062D86
:100ED00002684FEA85030C6825D82B441F25566B02
:100EE000053B9D4026EA050504FA03F32B435363B3
:100EF000092C4FEA44038D682FD907262344D16873
:100F00001E3B9E4021EA060105FA03F30B43D36022
:100F1000A4F11003012B2BD90023002280F82420F8
:100F2000184602B070BD0C2D0BD82B441F25166B34
:100F3000233B9D4026EA050504FA03F32B43136384
:100F4000D6E72B441F25D66A413B9D4026EA05057E
:100F500004FA03F32B43D362CAE70726116923443B
:100F60009E4021EA060105FA03F30B431361CFE724
:100F7000104B9A4216D193681B02CDD49368102C63
:100F800043F400039360C7D10B4B0C4A1B68B3FBBF
:100F9000F2F20A2353430193019B002BBCD0019B27
:100FA000013BF8E7836A43F0200383620123B4E73F
:100FB0000223B5E7002401408400002040420F00D6
:100FC00090F8243030B5012B1DD001230A6880F839
:100FD00024308B68012B03685C680CBF44F040042C
:100FE00024F040045C604C685D682243074C2C4050
:100FF00022435A60CA685A620A699A62002380F8DA
:101000002430184630BD022030BD00BFE0FD3FFF58
:10101000002373B50193036804469A68D20702D58A
:10102000002002B070BD9A6842F001029A60124B33
:10103000124A1B68B3FBF2F30193019BC3B9FFF79C
:10104000E7FE064623689D6815F00105E8D1FFF725
:10105000DFFE801B0228F5D9A36A84F8245043F0F0
:101060001003A362E36A012043F00103E362D8E7BF
:10107000019B013BE0E700BF8400002040420F00DD
:101080002DE9D8419046404B026804469A420F46EB
:1010900002D03E498A4203D15B6813F4702F6ED1AF
:1010A00094F82430012B6CD00123204684F824309E
:1010B000FFF7AEFF064600285DD1A06A216820F444
:1010C0007060324B20F0010040F480709942A062C1
:1010D00004D12D4A536813F4702F3ED1A36A23F430
:1010E0008013A3624B685A0505D5A36A23F44053C5
:1010F00043F48053A362A36A206A13F4805318BF99
:10110000E36A3A4618BF23F00603E362002384F83B
:1011100024301F4B4C3183621E4BC3621E4B036352
:101120006FF0020341F84C3C51F8443C43F48073A7
:1011300041F8443C434600F081F923689A6802F480
:101140006022B2F5602F9A680CBF42F4A00242F40C
:1011500080129A603046BDE8D881A36A43F48013B8
:10116000A36253685B0541BFA06A20F4405040F47D
:101170008050A062BFE7002384F82430EAE701260C
:10118000E8E70226E6E700BF00240140002801400E
:10119000430E0008930E00089F0E000838B5036840
:1011A00004469A68D20701D4002038BD9A6822F01C
:1011B00001029A60FFF72CFE054623689B68DB0757
:1011C000F2D5FFF725FE401B0228F6D9A36A0120BD
:1011D00043F01003A362E36A43F00103E36238BD06
:1011E00070B50446002871D0836A23B9C36280F8C1
:1011F000243002F055FE2046FFF7D0FFA36A13F01B
:10120000100FA36A64D1002862D1E16923F48853E6
:10121000626823F0020343F002030A43A168A36259
:10122000E368B1F5807F42EA430238D0012914BF58
:1012300006464FF480766569012D07D1002B30D129
:10124000A369013B46EA433545F400662368B1F5DE
:10125000807F5D6825F4694545EA06055D609E6806
:101260001D4D05EA060545EA02059D6001D00129EC
:1012700020D1216901390905DD6A25F4700529436A
:10128000D9629968154B0B409A4215D10023E3624D
:10129000A36A23F0030343F00103A36270BD0E466B
:1012A000C9E7A36A43F02003A362E36A43F00103A2
:1012B000E362CBE70021DFE7A36A23F0120343F0E8
:1012C0001003A362E36A43F00103E362012070BDEF
:1012D00043F01003A362F9E7FDF7E1FFFE0E1FFFE5
:1012E000074A0002D36800F4E06023F4E0631B04C3
:1012F0001B0C43F0BF6343F400330343D3607047D8
:1013000000ED00E0174B30B5DC68C4F30224C4F1F3
:101310000703251D042B28BF0423062D4FF00105CC
:1013200098BF002405FA03F303F1FF3388BF033CA1
:101330001940A14005FA04F4013C2240002842EA89
:1013400001024FEA0212AFBF00F16040064B00F00D
:101350000F00D2B2A5BFD2B200F561401A5480F896
:10136000002330BD00ED00E014ED00E00123420950
:1013700000F01F0003FA00F0014B43F82200704711
:1013800000E100E00138B0F1807F0AD2F021064B85
:10139000064A586082F823100020072298601A60DD
:1013A00070470120704700BF10E000E000ED00E052
:1013B000044B04281A680CBF42F0040222F0040215
:1013C0001A60704710E000E0704708B5FFF7FCFFB7
:1013D00008BD000010B550B314220168154B846895
:1013E0000B44B3FBF2F39B000364134B0A68C36323
:1013F000436822F47F522343C46822F0300223431F
:10140000046923434469234384692343C469234310
:1014100013430B600122002380F821208362C36202
:1014200003634363836380F82030184610BD0120B6
:1014300010BD00BFF8FFFDBF00000240F0B590F8FE
:101440002040012C35D0012490F8215080F8204014
:10145000A5424FF000064FF0020428D180F8214049
:10146000046886632668076C26F001062660C66B52
:10147000BD407560636043680568102BC36A0BBF8D
:10148000A260A160E160E2604BB1236843F00E030B
:1014900023602B68002043F001032B60F0BD23681C
:1014A00023F004032360236843F00A03F0E780F885
:1014B00020600220F0BD000070B40425C66B026CF1
:1014C0003468036895402542196832D04D0730D5FD
:1014D0001A6896065EBF1A6822F004021A603E4A35
:1014E000934219D01432934218D01432934217D039
:1014F0001432934217D01432934217D014329342CD
:101500000CBF4FF480034FF08063344A5360C36ACA
:10151000002B5ED070BC18470423F6E74023F4E7A5
:101520004FF48063F1E74FF48043EEE74FF48023FC
:10153000EBE702259540254235D08D0733D51A6853
:10154000940606D41A6822F00A021A60012280F872
:101550002120214A934219D01432934218D01432D8
:10156000934217D01432934217D01432934217D0BB
:10157000143293420CBF4FF400134FF00073174A1C
:101580005360002380F82030836AC1E70223F6E726
:101590002023F4E74FF40073F1E74FF40053EEE734
:1015A0004FF40033EBE708259540254211D0090799
:1015B0000FD5196821F00E011960012303FA02F218
:1015C0007260836380F82130002380F82030036B41
:1015D0009EE770BC704700BF080002400000024058
:1015E0002DE9F74F00221646654BDFF8A4E1DFF83E
:1015F000A4C14FF001080C6808FA06F808EA0404D0
:10160000A0457FD14D68122D00F0AF8000F2888098
:10161000022D00F0A7807CD8002D00F08E80012DD7
:1016200000F09E804FF00F09FF2C93BF824606F119
:101630008045083DD0F800B092BFB500D0F804B0A6
:10164000AD0009FA05F82BEA080802FA05F588BF8B
:1016500000F1040A48EA0505CAF80050D1F804A0D0
:101660001AF0805F4ED0474D464FAD6926F0030813
:1016700045F00105BD61BD6908F1804805F001052F
:10168000019508F5803806F0030B019D4FEA8B0B9E
:10169000D8F8085009FA0BF925EA09093A4DA84289
:1016A00068D005F58065A84266D005F58065A8423A
:1016B00064D005F58065A8420CBF0325042505FA12
:1016C0000BF545EA0905C8F808501D681AF4803F73
:1016D00014BF2543A5431D605D681AF4003F14BF85
:1016E0002543A5435D609D681AF4801F14BF254300
:1016F000A5439D60DD681AF4001F14BF2C4325EA42
:101700000404DC600136102E7FF473AF03B0BDE833
:10171000F08F032D22D0112D84D1CA68043281E7C5
:101720001A4FBD4209D012D8DFF86C904D4504D055
:1017300009F580394D457FF475AF8A68C2B1012A39
:101740000CBFC0F81080C0F8148008226AE7754505
:10175000F3D06545F1D0DFF84490EBE7002261E774
:10176000CA685FE7CA6808325CE7CA680C3259E7A2
:10177000042257E70025A2E70125A0E702259EE7FE
:101780000004014000100240000801400000211048
:101790000000311000003210000011100000221073
:1017A0000AB1016170470904FBE7C3685940C16091
:1017B00070470268536913F480630DD06FF480633F
:1017C00053610423202203640023036380F83C3028
:1017D00080F83D2001207047184670472DE9F843F6
:1017E000044617469946C1F307488EB22568B8F1FA
:1017F000010F0CBF6B69AB6936EA030314BF01200C
:10180000002008B9BDE8F8836B695A0512D52B682A
:10181000202243F400732B606FF480636B61042318
:10182000236400230120236384F83C3084F83D20A6
:10183000BDE8F8837B1CD9D04FB900232022236355
:1018400084F83C3084F83D200320BDE8F883FFF79E
:10185000DFFAA0EB09008742C8D2EEE72DE9F84392
:10186000044690461F46089EC1F307498DB223687F
:10187000B9F1010F0CBF5B699B6935EA03030CBF2B
:1018800001230023434502D00020BDE8F8837B1CE0
:10189000EDD05FB900232022236384F83C3084F824
:1018A0003D20032084F83E30BDE8F883FFF7B0FA0E
:1018B000801B8742DBD2EDE770B504460D46164625
:1018C00023685B691B0601D5002070BD2046FFF729
:1018D00070FFA8B96A1CF3D065B9236C202243F0CD
:1018E0002003236400230320236384F83C3084F81E
:1018F0003D2070BDFFF78CFA801B8542E0D2ECE7FB
:10190000012070BD70B504460D4616462068436937
:1019100013F0400301D0002070BD4269D2060BD500
:101920006FF0100242612022236484F83C3023636C
:10193000012084F83D2070BD5DB9236C032043F085
:1019400020032364202384F83D30002384F83C30B6
:1019500070BDFFF75DFA801B8542D7D2EDE770B509
:1019600004460D46164623685B695B0701D50020D7
:1019700070BD2046FFF71DFFA8B96A1CF3D065B9FA
:10198000236C202243F020032364002303202363DD
:1019900084F83C3084F83D2070BDFFF739FA801B95
:1019A0008542E0D2ECE7012070BD000038B5044666
:1019B00008B9012038BD90F83D3003F0FF021BB993
:1019C00080F83C2002F0AEFA2423226884F83D30EF
:1019D000136823F00103136000F032FD63682F4A9F
:1019E000934230D82E4A9042E3D92E4A2168B0FB68
:1019F000F2F24A6001320A62284A0138934232D830
:101A00005B00B0FBF3F0431CC3F30B03042B38BFA4
:101A10000423CB61226AE369002013430B60E26870
:101A2000236913438B60A26963691343CB600B681E
:101A300043F001030B602023206484F83D302063D1
:101A400084F83E0038BD184A9042B2D9154D4FF483
:101A50009672B0FBF5F521686A434D604FF47A75D4
:101A6000B2FBF5F2C6E7A26852B903EB4303B0FB41
:101A7000F3F0431CC3F30B036BB143F40043C8E71B
:101A800019225343B0FBF3F0431CC3F30B0313B110
:101A900043F44043BDE70123BBE700BFA08601003C
:101AA0007F841E0040420F00FF083D002DE9FF41EA
:101AB00004461F460D469046FFF7AAF994F83D30BC
:101AC0000646202B04D00225284604B0BDE8F0814C
:101AD0000090192301225D492046FFF7BFFE002830
:101AE000F1D194F83C30012BEDD0012384F83C3047
:101AF00023681A68D2075EBF1A6842F001021A60B2
:101B00001A6822F400621A60212284F83D20102213
:101B100084F83E2000222264A2F580326785E262CA
:101B2000628DC4F824802285E26A042A04D0012A46
:101B300002D012F5803F04D11A6842F480721A6014
:101B400002E0226B122AF7D000960A9B00224FF087
:101B500001112046FFF782FE28BB23692268B3F5F6
:101B6000804F12D105F0FE05156133460A9A3849B7
:101B70002046FFF733FE0546A0B9236803905A6953
:101B800003929B690393039B50E0EB1103F0060360
:101B900043F0F00313612F4933460A9A2046FFF7BA
:101BA0001DFE48B1236C236C042B4FF0000307D1BA
:101BB00084F83C30012587E72368EDB21D61D4E746
:101BC00084F83C3003257FE732460A992046FFF728
:101BD00073FE40B1236C042BF4D12268136843F4E4
:101BE00000731360E6E7616A20684B1C63620B7840
:101BF000228D0361638D013B9BB263854769531E50
:101C00009BB27F0723850AD54BB18B1C63624B784F
:101C1000023A0361638D2285013B9BB263853246A4
:101C20000A992046FFF79BFE0028D3D1238D002B75
:101C3000CAD121680A6842F400720A60202284F83E
:101C40003C3084F83D2084F83E303DE7020010002F
:101C500002000100080001002DE9F043044689B0AC
:101C600098460D469146109FFFF7D2F894F83D3004
:101C70000646202B04D00225284609B0BDE8F08393
:101C8000009019230122A2492046FFF7E7FD002812
:101C9000F1D194F83C30012BEDD0012384F83C3095
:101CA00023681A68D2075EBF1A6842F001021A6000
:101CB0001A6822F400621A60222284F83D20102261
:101CC00084F83E2000222264A2F58032A4F82A8003
:101CD000E262628DC4F824902285E26A1968042ABF
:101CE00041F48061196004D0012A02D012F5803FCE
:101CF00004D11A6842F480721A6002E0226B112A41
:101D0000F7D000963B4600224FF001112046FFF726
:101D1000A5FD00284DD12369B3F5804F236839D143
:101D200045F00105EDB21D6133463A46794920463A
:101D3000FFF754FD054600283AD1228D2368002A7A
:101D400069D0012A7AD11A6822F480621A6072B6C8
:101D5000236804955A6904929A690492049A1A684D
:101D600042F400721A6062B6DFF8B081238D002B56
:101D70005BD0032B00F2D480012B7BD13246394655
:101D80002046FFF7BFFD002800F09380236C202B36
:101D900016D13EE04FEAE51808F0060848F0F002D8
:101DA0001A615D4933463A462046FFF717FD48B1B0
:101DB000236C236C042B4FF0000328D184F83C30B3
:101DC000012559E72368EDB21D613A463346514972
:101DD0002046FFF703FD02460028E9D1236807905B
:101DE000596920460791996907910799196841F443
:101DF0008071196000963B464FF00111FFF72EFDF0
:101E00000028D6D1226848F0F10313618CE784F8EA
:101E10003C30032530E703955A6903929A6903928F
:101E2000039A1A6842F400721A60202384F83D3045
:101E3000002384F83E3084F83C301DE7022A1A68FB
:101E40000ED142F400621A6072B6236805955A6991
:101E500005929A690592059A1A6822F4806281E7D0
:101E600042F480621A6006955A6906929B6906934D
:101E7000069B79E7022B00963B464FF00002414655
:101E8000204624D1FFF7EAFC0028C2D172B62368AD
:101E90001A6842F400721A60626A1B69511C61621E
:101EA0001370238D013B2385638D013B9BB26385BA
:101EB00062B6636A5A1C6262226812691A70238DC4
:101EC000013B2385638D013B9BB263854EE7FFF7A2
:101ED000C5FC024600289CD121680B6823F480636E
:101EE0000B6072B6636A2046591C616221680969F9
:101EF0001970238D0096013B2385638D4146013B7C
:101F00009BB263853B46FFF7A9FC0028BFD080E762
:101F1000020010000200010008000100040001009E
:101F2000324639462046FFF7EDFC00287FF42EAFFD
:101F3000636A5A1C6262226812691A70238D2268D1
:101F4000013B2385638D013B9BB2638553695B072E
:101F50007FF50CAF636A591C6162AEE703682DE937
:101F6000F341DB07054610D42B689F075ED42B682E
:101F7000190700F195802B685A0700F1BF80EA69C4
:101F8000002A40F02D81002014E0904C636803F09B
:101F90000C03042B07D0636803F00C03082B0CD14F
:101FA0006368DE0309D523689C03DDD56B68002BCD
:101FB000DAD1012002B0BDE8F0816B68B3F5803F53
:101FC00010D1236843F480332360FEF721FF0646D7
:101FD00023689803C8D4FEF71BFF801B6428F7D939
:101FE0000320E7E79BB9236823F480332360236849
:101FF00023F480232360FEF70BFF06462368990332
:10200000B2D5FEF705FF801B6428F7D9E8E7B3F5E2
:10201000A02F236803D143F480232360D1E723F466
:1020200080332360236823F48023CDE7674C636803
:1020300013F00C0F07D0636803F00C03082B10D1CA
:102040006368DA030DD423689B0702D52B69012B43
:10205000AFD123686A6923F0F80343EAC20323601F
:1020600085E72A695A4B6AB101221A60FEF7D0FE51
:10207000064623689F07ECD4FEF7CAFE801B0228A1
:10208000F7D9ADE71A60FEF7C3FE06462368980746
:102090007FF56DAFFEF7BCFE801B0228F6D99FE7E7
:1020A000AA694A4C4B4BDAB101221A60FEF7B0FE26
:1020B0000646636A9B070DD54FF4FA52464B1B68E0
:1020C000B3FBF2F3019300BF019B5A1E0192002B58
:1020D000F9D150E7FEF79CFE801B0228E9D97FE783
:1020E0001A60FEF795FE0646636A9F077FF543AFC9
:1020F000FEF78EFE801B0228F6D971E7334CE369A8
:10210000D80024D40127E36943F08053E361E369F5
:1021100003F080530093009B304E3368D90518D5E7
:10212000EB68012B26D1236A43F001032362FEF7FB
:102130006FFE41F288368046236A9B073FD5002F09
:102140003FF41DAFE36923F08053E36117E70027F5
:10215000E2E7336843F480733360FEF759FE80464C
:102160003368DA05DCD4FEF753FEA0EB08006428E0
:10217000F6D935E7ABB9236A41F2883823F0010379
:102180002362236A23F004032362FEF741FE06461E
:10219000236A9807D3D5FEF73BFE801B4045F7D94D
:1021A0001EE7052B236A03D143F004032362BAE739
:1021B00023F001032362236A23F00403B6E7FEF74A
:1021C00027FEA0EB0800B042B6D909E70010024094
:1021D000000042428004424284000020007000401F
:1021E000224C636803F00C03082B3FF4E2AE00239B
:1021F0001F4E022A33602BD1FEF70AFE07462368E2
:1022000099011FD42B6AB3F5803F05D16268A96894
:1022100022F400320A436260696A62680B4322F466
:1022200074121343636001233360FEF7F1FD05462A
:1022300023689A013FF5A7AEFEF7EAFD401B02288E
:10224000F6D9CDE6FEF7E4FDC01B0228D7D9C7E6D4
:10225000FEF7DEFD054623689B017FF594AEFEF791
:10226000D7FD401B0228F6D9BAE600BF0010024095
:102270006000424230B5194B87B002AC03F1100543
:10228000224618685968083303C2AB421446F7D196
:1022900001238DF80430022311498DF805304B6875
:1022A00003F00C02082A17D1C3F3834206A80244A4
:1022B000DB0312F8102C0CD54B680A48C3F34043DB
:1022C000504306AA134413F8143CB0FBF3F007B0D4
:1022D00030BD05485043FAE70248F8E79876000811
:1022E0000010024000127A0000093D004D4A2DE91D
:1022F000F0411368054603F007038B420E4628D3CE
:102300002A68910732D4D20738D4464A136803F0BA
:1023100007039E4273D32A68434C12F0040F79D10D
:10232000130706D563682A6923F4605343EAC2039E
:102330006360FFF79FFF63683C4AC3F30313D35CFA
:10234000D8403B4B18600020FEF720FD0020BDE880
:10235000F081136823F007030B431360136803F045
:1023600007039942CCD00120BDE8F0812E49A8682E
:102370004B6823F0F00303434B60C4E76A682A4CC0
:10238000012A23681CD113F4003FECD0636841F2AA
:10239000883823F0030313436360FEF739FD6B684D
:1023A0000746012B14D1636803F00C03042BACD057
:1023B000FEF72EFDC01B4045F5D90320BDE8F08196
:1023C000022A02D113F0007FDFE713F0020FDCE7EF
:1023D000022B0FD1636803F00C03082B95D0FEF796
:1023E00017FDC01B4045F5D9E7E7FEF711FDC01BFF
:1023F0004045E2D8636813F00C0FF6D185E7136807
:1024000023F0070333431360136803F007039E426E
:10241000A9D180E76368E96823F4E0630B43636054
:102420007EE700BF00200240001002401291000829
:1024300084000020014B1868704700BF8400002012
:10244000044B054A5B68C3F30223D35C034A10685C
:10245000D8407047001002402291000884000020FC
:10246000044B054A5B68C3F3C223D35C034A10687C
:10247000D8407047001002402291000884000020DC
:1024800003682DE9F341D907054620D5354CE369AA
:10249000DA0032D40127E36943F08053E361E36952
:1024A00003F080530193019B2F4E3368DB0526D543
:1024B000236A13F4407336D1236A6A6823F44073A5
:1024C000134323621FB1E36923F08053E36128685B
:1024D000830706D5234AA968536823F440430B4376
:1024E000536010F010001BD01E4AE96853680020AA
:1024F00023F480030B43536012E00027D4E73368D2
:1025000043F480733360FEF783FC80463368D8055C
:10251000CED4FEF77DFCA0EB08006428F6D903209A
:1025200002B0BDE8F0816A6802F440729342C3D001
:1025300001200E4A236A1060002023F440711060CD
:102540002162D907B8D5FEF763FC41F28838064608
:10255000236A9A07B0D4FEF75BFC801B4045F7D98D
:10256000DDE700BF0010024000700040400442421E
:102570002DE9F0410446884617461D46069E22680E
:10258000936838EA03030CBF012300239F4202D162
:102590000020BDE8F0816B1CF2D055BB23685A685F
:1025A00022F0E0025A606268B2F5827F0AD1A26826
:1025B000B2F5004F02D0B2F5806F03D11A6822F055
:1025C00040021A60A26AB2F5005F09D11A6822F4CB
:1025D00000521204120C1A601A6842F400521A6077
:1025E000012384F851300023032084F85030BDE8E3
:1025F000F081FEF70DFC801B8542C0D8CEE713B5F5
:102600000B460092802100220446FFF7B1FF20B163
:102610000320636D43F02003636502B010BD2DE914
:10262000FF411E4690F850300446012B0D4690465F
:1026300000F09C80012380F85030FEF7E9FB07464C
:1026400094F85100C0B2012840F08E80002D4ED089
:10265000B8F1000F4BD0032384F851300023636599
:10266000A363A4F83680A387E38763642364A36825
:102670002563B3F5004F2368A4F8348002BF1A68BD
:1026800042F480421A601A6852065EBF1A6842F02D
:1026900040021A60E268B2F5006F626838D11AB180
:1026A000E28E92B2012A06D135F8022BDA60E38E6F
:1026B000013B9BB2E386E38E9BB293B9009733460E
:1026C000012202212046FFF753FF78B93A463146EE
:1026D0002046FFF794FF002838D0202301206365AF
:1026E00005E023689A689007DED44EB903200123E1
:1026F00084F85130002384F8503004B0BDE8F081F4
:10270000711CD8D0FEF784FBC01B8642D3D8EDE7FE
:102710001AB1E28E92B2012A06D115F8012B1A7372
:10272000E38E013B9BB2E386E38E9BB2002BC5D0C8
:1027300023689A689207F0D4002ED7D0731CF3D088
:10274000FEF766FBC01B8642EED8CFE7A36833B91D
:1027500003932368DA6803929B680393039B606D7D
:10276000003018BF0120C2E70220C0E70220C4E702
:1027700010B50446002834D00023836290F851300D
:102780000BB901F0F1FB0223216884F851300B688A
:10279000A06823F040030B606368A2690343E0680C
:1027A00003432069034360690343E0690343206AEC
:1027B0000343A06A034302F4007003430B60120C4E
:1027C000636A02F004021A43E36A4A600B61CB6950
:1027D000002023F40063CB610123606584F851304D
:1027E00010BD012010BD03680020DA6842F001022C
:1027F000DA601A6842F001021A60704790F83C30C3
:1028000070B5012B4FF002031CD0012280F83D303F
:10281000036880F83C209A6822F47F4222F0770215
:102820009A600A68402A79D019D8102A00F093805B
:102830000AD8002A00F08980012380F83D30002367
:1028400080F83C30184670BD202A00F08A80302A7B
:10285000F2D19A6822F0700242F0370236E0702A14
:1028600036D01BD8502A42D0602AE5D11C6A4D6868
:1028700024F01004CE681C6299691A6A21F4704130
:1028800022F0A00242EA051241EA063199611A6279
:102890009A6822F0700242F0670217E0B2F5805F9A
:1028A00011D0B2F5005FC7D18A684D689C68C968CD
:1028B0002A4324F47F4442EA012222439A609A6820
:1028C00042F4804202E09A6822F007029A60B3E77D
:1028D0008A684D689C68C9682A4324F47F4442EAA8
:1028E000012222439A609A6842F07702EEE74C6830
:1028F000CE68196A1D6A21F00A0125F001051D62E2
:102900009A69214322F0F00242EA06129A611962A2
:102910009A6822F0700242F05702D7E74C68CE68FE
:10292000196A1D6A21F00A0125F001051D629A69E4
:10293000214322F0F00242EA06129A6119629A6873
:1029400022F0700242F04702C0E79A6822F070025B
:1029500042F00702BAE79A6822F0700242F01702CA
:10296000B4E79A6822F0700242F02702AEE770479F
:10297000704770477047036810B51A69044691079D
:102980000ED5DA6892070BD56FF002021A610122A8
:102990009B6902779B0777D0FFF7EAFF0023237735
:1029A00023681A69500710D5DA6851070DD56FF002
:1029B00004021A6102229B69227713F4407F2046A9
:1029C00068D0FFF7D5FF0023237723681A69120721
:1029D0000FD5DA6810070CD56FF008021A610422CF
:1029E000DB692277990720465AD0FFF7C1FF002301
:1029F000237723681A69D20610D5DA68D0060DD578
:102A00006FF010021A610822DB69227713F4407F0D
:102A100020464BD0FFF7ACFF0023237723681A69C9
:102A2000D10708D5DA68D20705D56FF00102204634
:102A30001A6100F0F5FE23681A69100608D5DA68F5
:102A4000110605D56FF0800220461A6100F0ABF840
:102A500023681A69520608D5DA68500605D56FF062
:102A6000400220461A61FFF785FF23681A69910624
:102A700022D5DA6892061FD56FF020022046BDE805
:102A800010401A6100F08EB8FFF771FF2046FFF783
:102A900070FF83E7FFF76BFF2046FFF76AFF92E7BF
:102AA000FFF765FF2046FFF764FFA0E7FFF75FFF32
:102AB0002046FFF75EFFAFE710BD00001A4A03682B
:102AC00090420AD0B0F1804F07D0A2F594329042E4
:102AD00003D002F58062904215D14A6823F070035A
:102AE0001343114A90420AD0B0F1804F07D0A2F5AB
:102AF0009432904203D002F58062904203D1CA68BA
:102B000023F4407313434A6923F0800313430360A3
:102B10008B68C3620B688362034B984204BF0B69E6
:102B20000363012343617047002C014010B5044644
:102B3000A0B190F83D3003F0FF021BB980F83C20B3
:102B400001F034FA0223206884F83D30211DFFF79C
:102B5000B5FF0123002084F83D3010BD012010BDD9
:102B600090F83C3010B5012B4FF0020318D080F8DC
:102B70003D3003680C685A68496822F070025A6058
:102B80005A6822435A609A6822F080029A609A68D2
:102B90000A439A60012380F83D30002380F83C30DE
:102BA000184610BD704770472DE9F0470568C268A8
:102BB0002B69016923F4405313432B618368EA684E
:102BC0000B43416922F4B05222F00C020B43134331
:102BD000EB606B69826923F4407313436B61404B74
:102BE00081469D424FF0190446D1FFF739FC04FBA2
:102BF00000F3D9F804604FF06408B600B3FBF6F3B5
:102C0000B3FBF8F31E01FFF72BFC6043D9F8043047
:102C10009B00B0FBF3F7FFF723FC6043D9F80430C7
:102C20009B00B0FBF3F3B3FBF8F308FB13731B013A
:102C30003233B3FBF8F303F0F007FFF711FC604306
:102C4000D9F804209200B0FBF2FAFFF709FC6043C8
:102C5000D9F804309B00B0FBF3F3B3FBF8F308FBA7
:102C600013A31B013233B3FBF8F303F00F033B4311
:102C70003344AB60BDE8F087FFF7E2FB04FB00F3F1
:102C8000D9F804604FF06408B600B3FBF6F3B3FB69
:102C9000F8F31E01FFF7D4FB6043D9F804309B0022
:102CA000B0FBF3F7FFF7CCFB6043D9F804309B008F
:102CB000B0FBF3F3B3FBF8F308FB13731B013233E0
:102CC000B3FBF8F303F0F007FFF7BAFB6043D9F862
:102CD00004209200B0FBF2FAFFF7B2FBB7E700BFA7
:102CE0000038014010B5044640B390F8393003F085
:102CF000FF021BB980F8382001F08CF924232268E8
:102D000084F83930D368204623F40053D360FFF7AA
:102D10004BFF236800201A6922F490421A615A6915
:102D200022F02A025A61DA6842F40052DA60202363
:102D3000E06384F8393084F83A3010BD012010BDCA
:102D400007B5030A8DF804308DF805004FF47A7347
:102D5000022201A90248FFF762FC03B05DF804FB00
:102D60007C0C002038B505460C4C0022204604217E
:102D7000FEF716FD002202212046FEF711FD28462F
:102D8000FFF7DEFF204601220221FEF709FD204663
:102D9000BDE8384001220421FEF702BD00080140D1
:102DA00070B506460D460E4C002220460421FEF763
:102DB000F7FC002202212046FEF7F2FC3046FFF726
:102DC000BFFF012204212046FEF7EAFC2846FFF758
:102DD000B7FF2046BDE8704001220221FEF7E0BCAB
:102DE0000008014070B5002106464FF40470FFF75B
:102DF000D7FFEF2140F21120FFF7D2FF002140F270
:102E00001220FFF7CDFF40F23F1140F21320FFF7F1
:102E1000C7FF00214FF40070FFF7C2FF002140F20E
:102E20000120FFF7BDFF40F20220FFF79BFF0122C8
:102E300004210E48FEF7B4FC002202210B48FEF7E5
:102E4000AFFC4FF4A075F024013C3046A4B2FFF76C
:102E500077FF002CF8D1013DADB2002DF3D1012256
:102E6000BDE8704002210148FEF79ABC000801400D
:102E700010B59B4C012220460221FEF791FC204612
:102E800001220421FEF78CFC002208212046FEF7D7
:102E900087FC142001F061F9012208212046FEF789
:102EA0007FFC142001F059F901210020FFF778FF81
:102EB0000A2001F052F900214FF48070FFF770FFF3
:102EC000002140F20110FFF76BFF43F210114FF4A5
:102ED0008170FFF765FF4FF4624140F20310FFF786
:102EE0005FFF9D214FF48870FFF75AFF222140F2C7
:102EF0001110FFF755FF4FF490714FF48070FFF7FA
:102F00004FFF142001F029F943F220114FF4807093
:102F1000FFF746FF502001F020F94FF480710120A7
:102F2000FFF73EFF00210220FFF73AFF41F2382170
:102F30000320FFF735FF00210620FFF731FF40F2A5
:102F400001110720FFF72CFF40F608010820FFF7CA
:102F500027FF00210920FFF723FF00210B20FFF7A7
:102F60001FFF00210C20FFF71BFF18210D20FFF78A
:102F700017FF00211220FFF713FF00211320FFF796
:102F80000FFF00211820FFF70BFF00211920FFF78A
:102F900007FF002140F20320FFF702FF00214FF45A
:102FA0000170FFF7FDFE00214FF40470FFF7F8FEFB
:102FB000EF2140F21120FFF7F3FE002140F2122032
:102FC000FFF7EEFE40F23F1140F21320FFF7E8FE5C
:102FD00000214FF40570FFF7E3FE002140F21520B9
:102FE000FFF7DEFE002140F21620FFF7D9FE002198
:102FF00040F21720FFF7D4FE45F243314FF4407002
:10300000FFF7CEFE41F2210140F20130FFF7C8FE8A
:10301000032140F20230FFF7C3FE112140F20330DA
:10302000FFF7BEFE40F20A514FF44170FFF7B8FEC1
:1030300044F2423140F20530FFF7B2FE4FF48851BE
:1030400040F20630FFF7ACFE032140F20730FFF7F5
:10305000A7FE41F201214FF44270FFF7A1FE40F2BA
:103060000A5140F20930FFF79BFE44F227014FF46A
:103070008060FFF795FE002140F20140FFF790FECF
:10308000002140F20240FFF78BFE40F23F1140F278
:103090000340FFF785FE002140F20440FFF780FE69
:1030A00000214FF40070FFF77BFE002140F2012069
:1030B000FFF776FE47F220114FF48070FFF770FEA5
:1030C00040F203110720FFF76BFE0A2001F045F8DC
:1030D000BDE8104040F213110720FFF761BE00BFAA
:1030E0000008014070B516460D461C4681B24FF4EB
:1030F0000470FFF755FEB1B240F21120FFF750FE09
:10310000A9B240F21220FFF74BFEA1B240F2132009
:10311000BDE87040FFF744BE10B50C4601464FF4C1
:103120000070FFF73DFE214640F20120FFF738FE18
:10313000BDE8104040F20220FFF714BE002138B570
:10314000EF2240F23F1305460846FFF7CBFF002170
:103150000846FFF7E1FF012204210B48FEF720FBA0
:10316000002202210848FEF71BFB4FF49634ADB253
:103170002846FFF7E5FD013CFAD10122BDE83840C1
:1031800002210148FEF70CBB00080140EF2870B592
:1031900005460E46144622D8B1F5A07F1FD24B1C1F
:1031A000421CFFF79FFFB1B2A8B2FFF7B5FF0122A3
:1031B00004210B48FEF7F4FAA4B2002202210848C9
:1031C000FEF7EEFA2046FFF7BBFD2046FFF7B8FDFD
:1031D000BDE87040012202210148FEF7E1BA70BD4E
:1031E000000801402DE9F84F5E1AA2EB000546BF2A
:1031F00076424FF0FF3B4FF0010B002DB8BF6D4200
:1032000090464FEA45054FEA46060A9AB4BF4FF08A
:10321000FF3A4FF0010A07460C469946FFF7B6FF02
:10322000B54214DDA6EB6509474501D1BDE8F88F2D
:10323000B9F1000FA8BF5C445744A8BFA9EB05092A
:103240000A9A21463846B144FFF7A0FFECE7A5EB08
:1032500066084C45EAD0B8F1000FA8BF57445C445B
:10326000A8BFA8EB06080A9A21463846A844FFF7EB
:103270008DFFEEE79142F8B506460D4614461F460F
:1032800001DD15460C46A54200DDF8BD21463A4653
:103290003046FFF77BFF013CF5E78842F8B505466D
:1032A0000C4616461F4601DD0D460446A54200DDCC
:1032B000F8BD20463A463146FFF768FF013CF5E786
:1032C0002DE9F04F8BB0BDF958C08146DDE914847B
:1032D000BCF1010F0E4617461D46DDF85CA063D118
:1032E00099427CDDA14200F3858033462E461D467F
:1032F0004B46B9461F46A64212D1B9456BDC09F1CF
:103300000101B845ACBFC1EB0801C1EB0701534651
:103310003246484649440BB0BDE8F04FFFF7BDBF09
:10332000234634461E464346C84699466AE01E4632
:103330003B464F46F9E7029B089A93FBF2F0059B48
:10334000079A9BFBF3F1029B4044134441440293D0
:10335000039B88429B44C2BF034608461946431C50
:10336000C91A4A4653460144FFF797FF09F101097C
:1033700063E0099B4A4695FBF3F0059B384494FBB8
:10338000F3F1069B41441D44039B88421C44C2BF89
:10339000034608461946431CC91A01445346FFF721
:1033A0007CFF09F1010954E0CDF800A0FFF71AFFF6
:1033B0002346424629463846CDF800A0FFF712FFC3
:1033C00033464A4621464046CDF850A00BB0BDE8F2
:1033D000F04FFFF707BF4B46B9461F468FE7A342A2
:1033E00089DDA1420D46A2DC2646C1461C460746A1
:1033F00090467AE7A34205DC23462C461D46434609
:10340000B8461F46A7EB080307932B1B0893A9EBAD
:10341000080303934FF0000B331B0593A9EB07033D
:10342000A146AE420693A6EB050309931ABF05F128
:10343000FF3304930496CDF808B0049B99457FF7B9
:103440007AAF069BA9EB05055D43039BA9EB04043A
:103450005C43B1458DDD0BB0BDE8F08F2DE9F04F39
:1034600085B01D46DDE9108ABDF9383014469DF857
:103470003C20012B07460E4602923AD1A042A7BF3C
:103480000090A14600948146A9422FDB0B4601958E
:10349000009A914527DD029B002B41D052463146D0
:1034A0003846FFF773FE524629463846FFF76EFE50
:1034B000524631462046FFF769FE524629462046CD
:1034C00005B0BDE8F04FFFF761BE59464246484699
:1034D0000393FFF75BFE039B0BF1010B9B45F4DDB0
:1034E00009F10109D4E7DDF804B0F7E72B460191B3
:1034F000CEE743462A46FFF7BDFE43462A463146FD
:103500002046FFF7B7FE4346324621463846FFF7CE
:10351000C4FE43462A4621463846FFF7BEFEBAE7B8
:1035200005B0BDE8F08F2DE9F04F92464FF000094D
:103530008BB0CDE90301149C0893C2F1010B039AEF
:10354000039B02EB0907049AA3EB0906A2EB0A020C
:103550000692039A049BA2EB0A05049A53444A4438
:103560000592039A0AEB0208049AA2EB0902079259
:10357000089A012A33D119463A4630460094FFF79B
:1035800031FE069B3A46194630460094FFF72AFE64
:10359000059B4246194628460094FFF723FE079BE9
:1035A0000094424619462846FFF71CFEBBF1000F67
:1035B000A8BFA9EB0A0309F10102B3BF0BEB420359
:1035C0000BEB43030AF1FF3A03F1010BA8BF03F130
:1035D000050B92459146B2DA0BB0BDE8F08F194663
:1035E000224638460993FFF7D1FD22460599404609
:1035F000FFF7CCFD099B224619463046FFF7C6FD72
:10360000224605992846FFF7C1FD22460799404604
:10361000FFF7BCFD224606993846FFF7B7FD224664
:1036200006993046FFF7B2FD224607992846FFF774
:10363000ADFDBBE72DE9F04F85B002930E9B102A3C
:10364000039314469DF83C609DF8403062D11FFA08
:1036500080FA1FFA81FB002B4FD101F1080300F122
:103660000F02FFF73FFD59465046FFF755FD4FF457
:1036700095510320FFF794FB4FF0000940F2022020
:10368000FFF770FB012204213048FEF789F8002281
:1036900002212E48FEF784F8182C0CBF2423102397
:1036A0004F462B4D019305EB0615102C43D1294AAB
:1036B00019F80220AF5C4FF00008BDF80CA0BDF86F
:1036C00008B027FA08F0C3074CBF5846504608F127
:1036D0000108FFF735FBB8F1080FF2D109F1010934
:1036E000019B5FFA89F29A42DFD301220221174837
:1036F00005B0BDE8F04FFEF753B801F10F0300F13C
:103700000802FFF7EFFC59465046FFF705FD41F26E
:10371000B821AEE7182AAFD11FFA80FA1FFA81FB51
:1037200023B901F10C0300F117029AE701F1170325
:1037300000F10C02E5E7182CBDD1074A074819F83B
:103740000210242202FB0602575CB4E70008014085
:10375000A87600080800002018000020A87E0008B5
:103760002DE9F04F102A85B08046DDE90EB5894677
:103770009A469DF8404027D12E469CB90294711B71
:1037800016F8013B89B2CDE900B31022534609EB8C
:10379000C1014046FFF74EFF3378002BEED105B054
:1037A000BDE8F08F0294711B16F8013B89B2CDE998
:1037B00000B31022534609EB01114046FFF73AFFD0
:1037C0003378002BEED1EAE7182AE8D19CB92E46CF
:1037D0000C270294711B16F8013B89B2CDE900B3A6
:1037E0001822534607FB01914046FFF723FF337829
:1037F000002BEED1D3E72F4616460294791B17F81B
:10380000013B89B2CDE900B31822534606FB019172
:103810004046FFF70FFF3B78002BEED1BFE70000DB
:103820002DE9FF410368B3F1804F40F09C800023F5
:103830004FF47A76564A574C574D137023700096C2
:103840000023224688212846FEF730F90028F6D1C9
:10385000322000F082FC4FF47A77504D4E4E0097A4
:1038600004234E4A88213046FEF7F6F90446002824
:10387000F5D12B7868784A4E40EA0320494BC0F3D3
:103880000D001880FCF7BEFD3DA3D3E90023FCF733
:103890004DFF0022444BFCF71FFEAB78C6E9000148
:1038A000E878DFF8408140EA032020F003003F4B36
:1038B00080B21880FCF7A6FD00223D4BFCF70CFE01
:1038C0002FA3D3E90023FCF731FF2FA3D3E9002373
:1038D000FCF702FE0022374BFCF746FC02460B4683
:1038E0003549364FC1E900234046354900F0BAFC5E
:1038F000D6E900233349384600F0B4FC00F094FCCC
:1039000042F2107180B2B0FBF1F22F4B01FB1202B8
:1039100018802E4E2E4B92B21B882E49304600F056
:10392000A1FCCDE901842C4D18222B69214600937E
:10393000EB696420FFF714FFCDE901746B6B18226B
:103940000093AB6921468220FFF70AFFCDE90164AD
:103950006B6910220093AB682146A020FFF700FF9F
:1039600004B0BDE8F0811D4A9342F9D14FF40051F3
:103970001B4804B0BDE8F041FDF717BFAFF300806E
:103980000000000080FFCF400000000000A0644065
:10399000540A0020160D0020DC0A0020800B0020B5
:1039A000780B0020300B002000005940980A0020BE
:1039B0000000D03F00004440400C0020480C002094
:1039C000A8900008B7900008140D00205C0C00209F
:1039D0009A0A0020C89000083C0000200004004023
:1039E00000100140180D002010B54FF48033012263
:1039F000022494B0CDE90A230021CDE911434FF40C
:103A0000E0130AA80C910E921393FEF7A7FA00B1E7
:103A1000FEE70F23CDE905344FF480630790CDE92D
:103A20000830214605A8FEF761FC00B1FEE74FF41F
:103A3000004301A801940393FEF722FD044600B160
:103A4000FEE7FEF7F7FC4FF47A73B0FBF3F0FDF7F7
:103A500099FC0420FDF7ACFC224621464FF0FF30D4
:103A6000FDF750FC14B010BD2DE9F041874C92B029
:103A7000FDF7B0F9FFF7B8FFA369002243F0100388
:103A8000A361A3694FF4005103F010030593059B54
:103A9000A3697F4843F02003A361A369002503F0D5
:103AA00020030693069BA369012743F00403A36147
:103AB000A369022603F004030793079BA36943F05D
:103AC0000803A361A36903F008030893089BFDF7AB
:103AD00067FE00220E216F48FDF762FE4FF400538F
:103AE0000CA96B48CDE90C37CDE90E56FDF778FDF2
:103AF0000E230CA96748CDE90C37CDE90E56FDF72A
:103B00006FFD63692A463B436361636929463B4015
:103B100004930B20049BFDF7F5FB0B20FDF726FC1F
:103B20004FF482735C485D4C4FF40076C0E900436B
:103B30000823C0E906630A23C0E90255C0E9045519
:103B4000C0E908558562C362FEF712FE00B1FEE7C8
:103B5000534B544A5449C3E90200C3E900124FF4DD
:103B60008042C3E90600C3E9042018621846FDF745
:103B70001DFF00B1FEE74FF0804341F61F464B4C5E
:103B8000C4E9003642F20F73A060C4E90330A061BB
:103B90002046FEF7CBFF00B1FEE74FF480550CA99D
:103BA00020460C95FEF72AFE00B1FEE7CDE909009C
:103BB00009A92046FEF7D4FF00B1FEE73C4C3D4B7F
:103BC000A060C4E9003641F28733A061C4E9033044
:103BD0002046FEF7ABFF00B1FEE70CA920460C958E
:103BE000FEF70CFE00B1FEE7CDE9090009A9204669
:103BF000FEF7B6FF00B1FEE70C244FF4E1352E4B83
:103C00002E4AC3E902001861C3E90540D86118468D
:103C1000C3E90025FFF766F800B1FEE7284B294A03
:103C2000C3E90200C3E90404C3E906001846C3E976
:103C30000025FFF757F800B1FEE7234C234B012581
:103C400023604FF4602200232046C4E902356361FB
:103C5000E26163602561FDF7C3FA00B1FEE71C4B2A
:103C6000CDE90F00CDE90D000CA920460C93FDF71E
:103C7000A7F900B1FEE70723CDE9090509A9204608
:103C80000B93FDF719F9054620B3FEE7001002403B
:103C900000100140000801407C0C00200030014071
:103CA000DC0A0020A086010000540040D40C002053
:103CB000340B002000040040B80B00200038014005
:103CC0009C0A002000480040880B0020002401408E
:103CD00000028000FFF7CCF84FF60840FFF782F8AB
:103CE00048F21040FFF72AFA394C2946226864202E
:103CF000FFF74CFA05F1640162689620FFF746FA77
:103D000005F1C801A268C8200135FFF73FFA642D0C
:103D1000EBD1A36A962228211E20FFF7ABFAA368F5
:103D200028221E219620FFF7B8FA236A4FF00108D7
:103D30000A21039314262D230846CDE901383222A7
:103D40003C230096FFF7BCFAE3680027039323693E
:103D500096210293C82308461A46CDE90077FFF75B
:103D60007DFBE36B32460093294643462846FFF726
:103D7000DAFB1022174B02970193E3681046009379
:103D800023693946FFF7ECFC134B02970193E36874
:103D9000182200932369114C39463220FFF7E0FCCA
:103DA000214642460E48FDF76BF90A20FDF736F82A
:103DB000208800F02FFA0B4C2046FEF714FD002857
:103DC000FAD1094C2046FEF70EFD0028FAD1FEE795
:103DD0003C000020D9900008E99000089A0A0020D1
:103DE000880B0020D40C0020340B0020FEE70000DC
:103DF000294B07B59A69032042F001029A619A693A
:103E000002F001020092009ADA6942F08052DA610F
:103E1000DB6903F080530193019BFDF761FA0022F7
:103E20006FF00B001146FDF76DFA00226FF00A00EB
:103E30001146FDF767FA00226FF009001146FDF701
:103E400061FA00226FF004001146FDF75BFA0022D0
:103E50006FF003001146FDF755FA00226FF00100E4
:103E60001146FDF74FFA00224FF0FF301146FDF7E3
:103E700049FA002205201146FDF744FA0520FDF716
:103E800075FA064A536823F0E06343F08063536099
:103E900003B05DF804FB00BF0010024000000140C9
:103EA00030B502681A4B87B09A4205462DD103F50A
:103EB0006C439A69174842F400729A619B6902A99F
:103EC00003F400730193019B0123029303230393E3
:103ED000FDF786FB8022104C104BE2604FF480729D
:103EE00022614FF480622360626100232022204619
:103EF0006360A360A261E361FDF76CFA18B17B21F6
:103F00000748FFF773FF2C62656207B030BD00BF42
:103F10000024014000080140F80B00200800024086
:103F2000F79000087FB502680C4B9A4213D1C0236A
:103F3000029312230393032302A909480593FDF773
:103F40004FFB084BDA6942F40012DA61DB6903F4D3
:103F500000130193019B07B05DF804FB005400407F
:103F6000000C0140001002407FB502680D4B9A42E0
:103F700014D103F560439A6902A942F480529A6110
:103F80009B69094803F480530193019BA02302938A
:103F90000223039303230593FDF722FB07B05DF88B
:103FA00004FB00BF0030014000080140036807B572
:103FB000B3F1804F15D103F50433DA691C2042F0C8
:103FC0000102DA610022DB69114603F0010300936C
:103FD000009BFDF797F91C20FDF7C8F903B05DF8C9
:103FE00004FB0A4A9342F9D1094B1D20DA6942F0D9
:103FF0000202DA610022DB69114603F00203019339
:10400000019BFDF77FF91D20E6E700BF000400409B
:10401000001002407FB50368224A934221D1224B0F
:1040200002A99A69214842F480429A619B6903F48B
:1040300080430093009B4FF4007302930223039389
:1040400003230593FDF7CCFA4FF48063029300231A
:1040500016480393049302A9FDF7C2FA07B05DF86E
:1040600004FB134A9342F9D10F4B02A9DA691148B4
:1040700042F48022DA61DB6903F480230193019B1F
:104080004FF4806302930223039303230593FDF708
:10409000A7FA4FF400630293002302A90393049349
:1040A0000448D9E7003801400010024000080140F0
:1040B00000480040000C01407047FEE7FEE7FEE7C5
:1040C000FEE770477047704708B5FCF795FEBDE8FE
:1040D0000840FDF77AB970470148FDF7EDB900BF18
:1040E000F80B00200148FEF746BC00BFD40C0020AE
:1040F0000148FEF740BC00BF340B00200F4B1A688C
:1041000042F001021A6059680D4A0A405A601A6862
:1041100022F0847222F480321A601A6822F480221B
:104120001A605A6822F4FE025A604FF41F029A6025
:104130004FF00062034B9A60704700BF00100240CE
:104140000000FFF800ED00E000B97047072300BF52
:10415000013BFCD1013880B2F6E7024608B502B94E
:1041600008BD4FF47A70FFF7EFFF013A92B2F6E71D
:10417000002103E00B4B5B58435004310A480B4BC2
:1041800042189A42F6D30A4A02E0002342F8043B5E
:10419000084B9A42F9D3FFF7B1FF00F00FF8FFF791
:1041A00063FC7047B493000800000020380A002028
:1041B000380A00203C0D0020FEE7000070B5002505
:1041C0000C4E0D4CA41BA410A54209D103F056FAC5
:1041D00000250A4E0A4CA41BA410A54205D170BDAF
:1041E00056F8253098470135EEE756F825309847C0
:1041F0000135F2E7A8930008A8930008A8930008E7
:10420000B093000803460244934200D1704703F87C
:10421000011BF9E70022034B1B68C3F8A800C3F891
:10422000AC207047880000200B4B0C48196830B553
:10423000D1F8A820D1F8AC305043094C04FB03005E
:10424000A2FB04230344541C43F10005C1E92A45A1
:1042500025F0004030BD00BF880000202DF45158EB
:104260002D7F954C0EB46FF0004100B59CB01DAB96
:1042700002900690079104910848094953F8042BCD
:104280000591006802A9019300F00CF80022029B3E
:104290001A701CB05DF804EB03B070478800002072
:1042A0000802FFFF2DE9F04FD5B0894693461E4620
:1042B000079002F06BF9036818461A93FBF748FF62
:1042C000B9F80C300F90180618D5D9F81030ABB9E2
:1042D0004021079802F06AF9C9F80000C9F81000F7
:1042E00048B90C23079A13604FF0FF3310931098CE
:1042F00055B0BDE8F08F4023C9F814300023CDE954
:104300002933CDE91333CDE91B33CDE917332BAC7A
:10431000289408930D9316931D9310935D462B4696
:1043200013F8012B12B1252A40F0E480B5EB0B07FE
:104330000ED02A9BC4E900B73B442A93299B013342
:10434000072B299300F3D8800834109B3B4410932B
:104350002B78002B01F0A4816B1C0E9300234FF0EF
:10436000FF359A460A278DF8833011930E9B1B78F0
:104370000A930E9B01330E930A9B203B5A2B00F2AB
:10438000148601A252F823F08B450008AB4F0008B9
:10439000AB4F00089D450008AB4F0008AB4F00082D
:1043A000AB4F000851450008AB4F0008AB4F000869
:1043B000A3450008B9450008AB4F0008B345000805
:1043C000BD450008AB4F0008EF450008F545000863
:1043D000F5450008F5450008F5450008F5450008D5
:1043E000F5450008F5450008F5450008F5450008C5
:1043F000AB4F0008AB4F0008AB4F0008AB4F0008B5
:10440000AB4F0008AB4F0008AB4F0008E346000875
:10441000AB4F00084F46000871460008E34600080D
:10442000E3460008E3460008AB4F0008AB4F000826
:10443000AB4F0008AB4F000815460008AB4F000813
:10444000AB4F0008B14B0008AB4F0008AB4F000862
:10445000AB4F00083D4C0008AB4F0008194E000858
:10446000AB4F0008AB4F000811450008AB4F0008E8
:10447000AB4F0008AB4F0008AB4F0008AB4F000834
:10448000AB4F0008AB4F0008AB4F0008E3460008F5
:10449000AB4F00084F46000875460008E346000889
:1044A000E3460008E34600081B460008754600087E
:1044B00043460008AB4F000835460008AB4F0008E4
:1044C0006B4B0008B54B00081D4C00084346000824
:1044D000AB4F00083D4C00086D4300081D4E00081E
:1044E000AB4F0008AB4F00085B4E0008AB4F000815
:1044F0006D4300081D4612E728AA4946079802F0B6
:10450000BAFD002840F057812BAC1EE71E462DE770
:10451000AD4B1AF0200F1C9300F0A284073626F052
:10452000070606F108030C93D6E900671AF0010F9D
:104530000AD056EA070307D030238DF884300A9B4F
:104540004AF0020A8DF885302AF4806A02233FE39C
:10455000079802F01BF8436818461D93FBF7F8FD17
:104560001690079802F012F883680D93169B002BA3
:104570003FF4FCAE0D9B002B3FF4F8AE1B78002BF4
:104580003FF4F4AE4AF4806AF0E69DF88330002BE5
:104590007FF4ECAE20238DF88330E7E64AF0010A81
:1045A000E4E63268331D002A1192AFDA1E46524209
:1045B00011924AF0040AD9E62B23ECE70E9A0E9BDF
:1045C000127801332A2A0A920FD135680E9345EAF0
:1045D000E5750436CAE607FB052513F8012B0A9298
:1045E0000A9A303A092AF6D9C5E60025F8E74AF0D2
:1045F000800ABBE600220E9B11920A9A1199303A6A
:1046000007FB0122119213F8012B0A92303A092A72
:10461000F3D9B0E64AF0080AA8E60E9B1B78682B8F
:1046200001BF0E9B4AF4007A01330E9318BF4AF083
:10463000400A9BE60E9B1B786C2B05D10E9B013329
:104640000E934AF0200A91E64AF0100A8EE6002006
:10465000331D0C9333688DF883008DF8EC30804661
:104660000125129007460B9006460DF1EC0BFEE279
:104670004AF0100A1AF0200F20D0073626F007065D
:1046800006F108030C93D6E90067002E77F10003CA
:1046900005DA2D23764267EB47078DF883306B1CD4
:1046A00040F0F183002F08BF0A2E80F023843036BB
:1046B0000DF5A87B0BF8016D00F008BC331D1AF056
:1046C000100F0C9302D03668F717DEE71AF0400F90
:1046D000366801D036B2F7E71AF4007F18BF76B219
:1046E000F2E7073626F0070606F108030C93336855
:1046F0004FF0FF3214937368149F23F00046139316
:104700003846324B3146FCF781F900BB4FF0FF329F
:104710002E4B38463146FCF75BF9C0B9DDE917236B
:10472000DDE91310FCF74AF910B12D238DF8833021
:10473000274A284B0A994FF000084729CCBF9346D7
:104740009B4603252AF0800ACDF84880C4E3DDE9C2
:104750001332DDE91310FCF759F9804640B1139B81
:104760001D4A002BBCBF2D238DF883301B4BE1E786
:104770000A9B23F02003412B0B9331D130238DF87A
:1047800084300A9B4AF0020A612B14BF5823782315
:10479000632D8DF8853040F31181691C079801F075
:1047A00005FF8346002840F00C81B9F80C3043F037
:1047B0004003A9F80C30B9F80C3013F0400F109BEF
:1047C00018BF4FF0FF3391E551910008FFFFEF7FD5
:1047D00034910008309100083C910008389100089D
:1047E000691C00F0F0800B9B472B02D1002D00F0DC
:1047F000EC804AF480731593139B1E1E149B089340
:10480000B7BF3346002303F100462D2319930B9BBA
:10481000412B40F0EB8022AA0898314602F0D4FBED
:1048200000224FF07F53FBF757FEDDE91723CDE958
:104830000801FCF7B9F808B101232293AC4FAD4B46
:104840000A9A5E46612A08BF1F4612976F1E002211
:10485000DDE90801A84BFBF73FFECDE90801FCF7B5
:10486000EBF81E90FBF7CEFD02460B46DDE9080192
:10487000FBF77AFC1E9A129BCDE908019B5C7A1C1F
:1048800006F8013B1F9706D0DDE91723013FFCF72F
:104890008BF80028DBD00022DDE90801974BFCF7FC
:1048A000ABF860B9DDE908010022944BFCF77CF815
:1048B000002800F096801E9BDB0740F1928030209C
:1048C000129B2696D97B269A531E269312F8013CFA
:1048D0008B427DD0392B0BBF129B01339B7ADBB20D
:1048E00002F8013C3346A3EB0B0308930B9B229E7B
:1048F000472B40F0C780F71C02DBB54280F2ED8009
:104900000A9B023B0A930A999DF8282021F0200176
:10491000412908BF0F3206F1FF3306BFD2B2012191
:104920000021002B8DF89020B4BF2D222B22229342
:10493000B8BFC6F10103092B8DF8912040F3B9806F
:104940000A250DF19F0293FBF5F005FB10330928B2
:1049500003F1300302F8013C02F1FF31034600F39A
:10496000A180303301F8013C023A0DF192030DF1C0
:104970009F0082421946C0F09780089A24ABCB1A58
:10498000012A1B9303EB020502DC1AF0010F01D090
:104990000F9B1D4400273E462AF4806343F4807336
:1049A00015930B97199B002B00F00B832D238DF88B
:1049B00083300023DDF854A0129358E10DF1EC0B85
:1049C00017E7804615E7062513E7A846012510E7F7
:1049D00002F8010C77E703F8011BF21A002AFADA51
:1049E00081E71F9A334630211644F6E70B9B462B8E
:1049F00004D0452B40D16F1C022301E02F46032336
:104A000026AA049223AA039222AACDE90172009356
:104A1000089A3346079800F0F3FE0B9B8346472B1A
:104A200002D11AF0010F2BD00BEB070312930B9B53
:104A3000462B11D19BF80030302B09D1DDE917232B
:104A400008983146FBF7B0FF10B9C7F1010722976C
:104A5000129A229B1A441292DDE9172308983146D4
:104A6000FBF7A2FF50B93022269B1299994207D931
:104A7000591C26911A70F7E72F46BDE7129B269323
:104A8000269B30E70B9B462B7FF43DAF002E1DDDB0
:104A900015B91AF0010F3DD00F9BF3181D44662382
:104AA0000A933CE00A464EE712F8011B03F8011B8B
:104AB0005FE741B930228DF892200DF19302303337
:104AC000511C137059E70DF19202F8E715B91AF06D
:104AD000010F21D00F9B0133E0E7089BB3420FDCAD
:104AE0001AF0010F2ED00F9BF5186723D8E700BFEF
:104AF0005191000840910008000030400000E03F64
:104B0000089B0F9A002E03EB0205EEDCC6F10103B1
:104B10001D44EAE73546C2E7662301250A931AF4E5
:104B200080630B931FD00027002E0B977FF73AAFBF
:104B30000D9B1B78FF2B07D10B9B169A3B4402FB66
:104B400003552FE73546D0E7B342F5DAF61A0D9B49
:104B50005B7833B10B9B01330B930D9B01330D93AA
:104B6000E6E70137E4E70B9F1CE7324652F8043BC7
:104B70001AF0200F0C9209D0109A1046D117C3E9F1
:104B800000010C9EDDF838B0FFF7C8BB1AF0100F1B
:104B900002D0109A1A60F4E71AF0400F02D0109A6F
:104BA0001A80EEE71AF4007FF3D0109A1A70E8E743
:104BB0004AF0100A1AF0200F1ED0073626F007061A
:104BC00006F108030C93D6E9006700232AF4806AF3
:104BD0000022691C8DF8832000F05881524656EA65
:104BE00007012AF0800A40F05181002D00F0D381A6
:104BF000012B40F04E815AE5331D1AF0100F0C9333
:104C000001D0366803E01AF0400F02D03688002742
:104C1000DBE71AF4007FF4D03678F8E7331D0C9305
:104C200047F630037822ADF88430AF4B36681C93DA
:104C300000274AF0020A02230A92C9E7331DD6F878
:104C400000B00026681C0C938DF8836000F0DE80B5
:104C50002A463146584601F0DFFE804600283FF4E0
:104C600073ADB0463746A0EB0B0512960B96129B20
:104C7000AB42B8BF2B4615939DF8833013B1159BFB
:104C8000013315931AF002031E931EBF159B0233C6
:104C900015931AF084031F9321D1119B159A9B1A27
:104CA000002B19931BDDDDE9292319980132102807
:104CB0008E4804F10801206000F387811998072AC3
:104CC00003446060CDE9292340F3948128AA494632
:104CD000079802F0D0F9002840F0C0842BAC9DF872
:104CE000833073B10DF183032360012363602A9B3A
:104CF00001332A93299B0133072B299300F37C81ED
:104D000008341E9B6BB121AB2360022363602A9B96
:104D100002332A93299B0133072B299300F37681D1
:104D200008341F9B802B21D1119B159A9B1A002BB5
:104D300019931BDDDDE929231998013210286C48ED
:104D400004F10801206000F36B811998072A0344DD
:104D50006060CDE9292340F3788128AA4946079865
:104D600002F089F9002840F079842BAC129B5B1B80
:104D7000002B12931BDDDDE9292312980132102844
:104D80005B4804F10801206000F361811298072A52
:104D900003446060CDE9292340F36E8128AA494687
:104DA000079802F068F9002840F058842BAC2A9B41
:104DB0001AF4807F129340F06181C4E900B51D446C
:104DC0002A95299B0133072B299300F39D810834F1
:104DD0001AF0040F40F02484DDE9103215998A425C
:104DE000ACBF9B185B1810932A9B3BB128AA49467D
:104DF000079802F040F9002840F0308400232993FE
:104E0000B8F1000F40F046842BACBAE65846FBF7E9
:104E10009FF9B046054697E44AF0100A1AF0200FB1
:104E200009D0073626F0070606F108030C93D6E9E9
:104E300000670123CCE6331D1AF0100F0C9301D04C
:104E4000366803E01AF0400F02D036880027F0E7FA
:104E50001AF4007FF4D03678F8E7234BFFF759BBFC
:104E6000331D1AF0100F0C9301D0366803E01AF0CE
:104E7000400F03D036880027FFF758BB1AF4007F95
:104E8000F3D03678F7E752460123A8E6012B3FF42A
:104E900009AC022B6DD054ABF10841EA4771F80818
:104EA00006F0070207460E46303256EA070103F1C4
:104EB000FF3B03F8012C14D11AF0010F06D0302A61
:104EC00004D030220BF8012CA3F1020B4FF00008A4
:104ED00054AB1295A3EB0B054746CDF82C80464604
:104EE000C5E65B46D8E700BF409100086491000822
:104EF00074910008002308930AF480630DF5A878E4
:104F00000B930A22002330463946FBF7BDFD089B70
:104F10003032013308930B9B08F1FF3B08F8012C5A
:104F2000D3B10D9B089A1B789A4215D1FF2A13D052
:104F3000002F08BF0A2E0FD3169B1D99ABEB030B56
:104F40001A46584602F082F80D9B5B781BB10D9B08
:104F500001330D93002308930023304639460A227B
:104F6000FBF792FD06460F4656EA0703AED0D84639
:104F7000C7E70DF5A87B1C9A06F00F03D35C3A092E
:104F80000BF8013D330943EA07731E46174656EAFC
:104F90000703F0D19AE70DF5A87B002B96D1D20735
:104FA00044BF30230BF8013D90E70A9B002B00F033
:104FB000778300208DF8EC308DF883000C96FFF796
:104FC0004EBBDDF854A0199BF6E41020072A0344D9
:104FD0006060CDE9292308DD28AA4946079802F038
:104FE0004AF8002840F03A832BA9199B0C46103B45
:104FF000199358E60C4672E628AA4946079802F02B
:105000003AF8002840F02A832BAC7AE628AA4946D1
:10501000079802F030F8002840F020832BAC80E69F
:105020001020072A03446060CDE9292308DD28AA5F
:105030004946079802F01FF8002840F00F832BA97B
:10504000199B0C46103B199374E60C468EE6102013
:10505000072A03446060CDE9292308DD28AA4946D0
:10506000079802F008F8002840F0F8822BA9129B5C
:105070000C46103B12937EE60C4698E60A9B652B85
:1050800040F33482DDE91723DDE91310FBF78CFCD4
:10509000002869D06E4B129D236001231D4463607C
:1050A000299B2A950133072B299337DC0834229B4F
:1050B000089A934203DB1AF0010F3FF489AE1A9B62
:1050C0000F9A23600F9B63602A9B13442A93299BAA
:1050D0000133072B29932BDC0834089B5D1E002D20
:1050E0007FF776AE10275B4E102DDDE9293204F1F3
:1050F000080103F10103266024DC6560072B1544D9
:10510000CDE9293540F3898228AA4946079801F05C
:10511000B2FF002840F0A2822BAC59E628AA4946EB
:10512000079801F0A8FF002840F098822BACBEE75A
:1051300028AA4946079801F09EFF002840F08E8279
:105140002BACCAE71032072B6760CDE9293208DDA6
:1051500028AA4946079801F08EFF002840F07E8279
:105160002BA9103D0C46BFE7229B002B74DC384B6B
:10517000129D236001231D446360299B2A950133FE
:10518000072B29933EDC0834229B2BB9089B1BB9C3
:105190001AF0010F3FF41CAE1A9B0F9A23600F9B6D
:1051A00063602A9B13442A93299B0133072B29937D
:1051B00032DC0834229D002D1BDA23461027254EB1
:1051C0006D42102DDDE9292104F1080402F10102EC
:1051D0001E602BDC5D60072A0D44CDE9292508DD22
:1051E00028AA4946079801F046FF002840F0368279
:1051F0002BAC089B089A63602A9BC4F800B0134448
:105200002A93DEE528AA4946079801F034FF0028D2
:1052100040F024822BACB7E728AA4946079801F052
:105220002AFF002840F01A822BACC3E71031072A6E
:105230005F60CDE9292108DD28AA4946079801F0D9
:105240001AFF002840F00A822BAC103D2346B8E735
:105250006291000874910008089BB342A8BF3346CE
:10526000002B1D460BDDC4E900B3129B2B442A938F
:10527000299B0133072B299300F386800834002DE6
:10528000B4BF3546751B002D19DDDDE9293296487E
:10529000102D03F1010304F1080120607EDC65603C
:1052A000072B1544CDE9293540F38B8028AA4946C0
:1052B000079801F0E0FE002840F0D0812BAC1AF4F2
:1052C000806F5E4409D00B9B002B7CD1002F7CD1DA
:1052D000089B5B449E4228BF1E46229B089A93422D
:1052E00002DB1AF0010F0ED01A9B0F9A23600F9B5E
:1052F00063602A9B13442A93299B0133072B29932C
:1053000000F3DD800834089B089A0BEB0305AB1B08
:10531000229D551B9D42A8BF1D46002D0BDD2A9BDB
:10532000C4E900652B442A93299B0133072B299359
:1053300000F3CF800834229B089A002DA2EB0303D0
:10534000B4BF1D465D1B002D7FF742AD1027664E92
:10535000102DDDE9293204F1080103F10103266073
:105360007FF7CBAE1032072B6760CDE9293208DD1D
:1053700028AA4946079801F07EFE002840F06E8179
:105380002BA9103D0C46E3E728AA4946079801F0EF
:1053900072FE002840F062812BAC70E71020072BD2
:1053A00002446060CDE9293208DD28AA4946079801
:1053B00001F061FE002840F051812BA9103D0C4600
:1053C00063E70C467BE7002F49D0013F1D9B169AEF
:1053D0002360169B63602A9B13442A93299B013305
:1053E000072B299342DC0834089B5B449A1B0D9BD6
:1053F0001B789342A8BF1346002B1D460ADDC4E963
:1054000000632A9B2B442A93299B0133072B299362
:1054100036DC08340D9B002D1B78B4BF1D465D1B88
:10542000002D18DDDDE929232F48102D02F101029E
:1054300004F1080120602DDC2B44072A6560CDE9CA
:1054400029233ADD28AA4946079801F014FE0028CE
:1054500040F004812BAC0D9B1B781E4433E70D9B61
:10546000013B0D930B9B013B0B93AFE728AA4946E9
:10547000079801F000FE002840F0F0802BACB3E765
:1054800028AA4946079801F0F6FD002840F0E6807A
:105490002BACBFE71020072A03446060CDE9292325
:1054A00008DD28AA4946079801F0E5FD002840F0EC
:1054B000D5802BA9103D0C46B4E70C46CBE728AAB3
:1054C0004946079801F0D7FD002840F0C7802BAC73
:1054D00019E728AA4946079801F0CDFD002840F0B9
:1054E000BD802BAC27E700BF74910008089A129D7D
:1054F000299B012A05F1010503F1010304F10806C6
:1055000002DC1AF0010F7DD00122072BC4F800B095
:105510006260CDE9293508DD28AA4946079801F0DF
:10552000AAFD002840F09A802BAE1A9B0F9A336098
:105530000F9B73602A9B13442A93299B0133072BEB
:10554000299331DC0836089BDDE913105C1EDDE988
:105550001723FBF729FA00282FD10BF10103299A11
:10556000C6E900342A9B08990132013B0B44072A03
:10557000CDE929234FDD28AA4946079801F07BFD94
:1055800000286BD12BAE24AB33601B9B1B9A73603E
:105590002A9B13442A93299B0133072B29933FF716
:1055A000B3AD06F1080413E428AA4946079801F0B0
:1055B00062FD002852D12BAEC5E7002CE3DD102799
:1055C0003D4D102CDDE9293206F1080103F10103FC
:1055D000356007DC7460072B1444CDE92934CADC3C
:1055E0000E46D0E71032072B7760CDE9293206DD71
:1055F00028AA4946079801F03EFD78BB2BA9103C2C
:105600000E46DEE70122072BC4F800B06260CDE948
:105610002935B8DDAFE70836B5E70C46FFF7D8BB4C
:10562000119B159A9D1A002D7FF7D6AB1027234E9C
:10563000102DDDE92932266003F1010318DC6560D5
:10564000072B1544CDE929357FF7C6AB28AA494673
:10565000079801F010FD00283FF4BEABB8F1000F31
:105660003FF4A9A84146079800F0D4FEFFF7A3B87D
:105670001032072B6760CDE9293202DC0834103D77
:10568000D6E728AA4946079801F0F5FC0028E5D19D
:105690002BACF4E74146079800F0BCFEFFF7B4BB23
:1056A0002A9B002B3FF487A828AA4946079801F0B7
:1056B000E2FCFFF780B800BF749100086491000815
:1056C000024B13B1024800F005B87047000000001B
:1056D00045630008002301461A46184601F050BDF4
:1056E0002DE9F74F03690C698046A342C0F284801C
:1056F000013C01F1140700F1140657F8245056F844
:1057000024000135B0FBF5F54FEA840C06EB0C03E1
:1057100007EB0C0901939DB34FF0000A3846B646DB
:10572000D34650F8042B93B205FB03A3120C4FEAA7
:10573000134A05FB02A29BB2ABEB0303DEF800B0F9
:105740004FEA124A1FFA8BFB5B441FFA82FBDEF81A
:1057500000208145CBEB124202EB23429BB243EA8D
:1057600002434FEA224B4EF8043BDAD256F80C3093
:1057700033B9019B043B9E421A4631D3C8F810400E
:10578000404601F059FB002826DB30464FF0000C64
:10579000013557F8041BD0F800E08BB2ACEB0303E3
:1057A0001FFA8EF213440A0CC2EB1E4202EB234294
:1057B0009BB243EA0243B9454FEA224C40F8043B0E
:1057C000E7D256F8242006EB84032AB9043B9E4214
:1057D0001A460BD3C8F81040284603B0BDE8F08F36
:1057E0001268043B002AC9D1013CC4E71268043B9B
:1057F000002AEFD1013CEAE70020EEE700000000BC
:105800002DE9F04F16461F46016C95B00446219DC8
:10581000CDE9026741B10123426C93408B604A603D
:1058200001F045F9002323643B1EAFBF0023012292
:1058300023F000430393A8BF2B60DDF80C80B04B2E
:10584000B8BF2A6033EA080316D142F20F73209AD8
:105850001360029B23B9C8F31300002800F03F85B2
:10586000229BDFF8B0B21BB10BF10303229A136045
:10587000584615B0BDE8F08FDDE90267002200232D
:1058800030463946FBF790F8824660B10123209AF2
:105890001360229B002B00F01E859A4B229A03F185
:1058A000FF3B1360E4E712AB019313AB0093324666
:1058B0003B46204601F038FBC8F30A550690002D00
:1058C0007DD0B046C7F3130343F07F5949F4401924
:1058D000A5F2FF35CDF840A000228B4B404649464B
:1058E000FAF742FC80A3D3E90023FAF7F5FD80A381
:1058F000D3E90023FAF73AFC064628460F46FAF7A2
:1059000081FD7DA3D3E90023FAF7E6FD02460B46AD
:1059100030463946FAF72AFC06460F46FBF78CF864
:1059200000228246002330463946FBF747F848B14B
:105930005046FAF767FD32463B46FBF735F808B9A3
:105940000AF1FF3ABAF1160F5AD8DDE902236F497E
:1059500001EBCA01D1E90001FBF74EF8002851D054
:1059600000230AF1FF3A0D93129B5D1B6B1E0793F8
:1059700043BF0023C5F1010907934FF00009BAF1B5
:10598000000F41DB079BCDF830A053440793002361
:1059900008931E9B092B00F28C80052BC4BF043B8F
:1059A0001E931E9BC8BF0025A3F10203D8BF01258B
:1059B000032B00F28A80DFE803F0787A2F6CDDE9B0
:1059C00012531D4405F23240202813DDC0F140007F
:1059D000029B08FA00F805F2124023FA00F048EAA8
:1059E0000000FAF7FFFC01238046A1F1F879013DA0
:1059F000109371E7029BC0F1200003FA00F0F0E77A
:105A00000123B0E70D90AFE7CAF10003089300232C
:105A1000A9EB0A090C93BCE7012309931F9B002BF8
:105A200056DD9846049300226264042202F11400B9
:105A30009842616C51D9204601F014F8B8F10E0F6C
:105A40008346206400F2ED80002D00F0EA80DDE95D
:105A50000223BAF1000FCDE90E2377DD2B4A0AF0BD
:105A60000F034FEA2A1602EBC303F006D3E9002323
:105A7000CDE90A2368D5DDE90E01254B0325D3E9DD
:105A80000823FAF753FECDE9020106F00F06204F76
:105A90004FE0012309931F9B534403F10108049332
:105AA0004346012BB8BF0123BDE70023B5E7002320
:105AB000F0E70125002309951E934FF0FF330022E4
:105AC0000493984612231F92ADE701230993F4E74C
:105AD0000123049398461A46F5E7013161645200A8
