:020000040800F2
:1000000000000220B10D0008010E0008010E0008DA
:10001000010E0008010E0008010E0008000000009B
:10002000000000000000000000000000010E0008B9
:10003000010E000800000000010E0008550D000828
:10004000010E0008010E0008010E0008010E000854
:10005000010E0008010E0008010E0008010E000844
:10006000010E0008010E0008010E0008010E000834
:10007000010E0008010E0008010E0008010E000824
:10008000010E0008010E0008010E0008010E000814
:10009000010E0008010E0008010E0008010E000804
:1000A000010E0008010E0008010E0008010E0008F4
:1000B000010E0008010E0008010E0008010E0008E4
:1000C000010E0008010E0008010E0008010E0008D4
:1000D000010E0008010E0008010E0008010E0008C4
:1000E000010E0008010E0008010E0008010E0008B4
:1000F000010E0008010E0008010E0008010E0008A4
:10010000010E0008010E0008010E0008010E000893
:10011000010E0008010E0008010E0008010E000883
:10012000010E0008010E0008010E0008010E000873
:10013000010E00080000000000000000010E000891
:10014000010E0008010E0008010E0008010E000853
:10015000010E0008010E0008010E0008010E000843
:10016000010E0008010E0008010E0008010E000833
:10017000010E0008010E0008010E0008000000003A
:1001800000000000010E0008000000000000000058
:10019000010E00080000000000000000010E000831
:1001A000000000000000000000000000010E000838
:1001B000010E0008010E0008010E0008010E0008E3
:0401C000010E000824
:1001C40010B5054C237833B9044B13B10448AFF38D
:1001D40000800123237010BD0400002000000000F3
:1001E400500E000808B5034B1BB103490348AFF395
:1001F400008008BD0000000008000020500E000828
:1002040010B5084B044618684FF47A73B0FBF3F04A
:1002140000F088F8002221464FF0FF3000F04EF83D
:10022400002010BD0000002008B50B4B1A6842F4F2
:1002340000721A601A6842F480621A601A6842F402
:1002440080721A60032000F027F80020FFF7D8FF1F
:1002540000F04EFD002008BD003C0240024A136835
:1002640001331360704700BF20000020014B186861
:10027400704700BF2000002037B50190FFF7F6FF5C
:10028400019C631C054618BF0134FFF7EFFF401BB8
:10029400A042FAD303B030BD074AD36823F4E06325
:1002A4001B041B0C43F0BF63000243F4003300F44F
:1002B400E0600343D360704700ED00E0174BDB6858
:1002C400C3F3022330B5C3F107041D1D042C28BF5A
:1002D4000424062D4FF0010505FA04F404F1FF345B
:1002E4008CBF033B00230C409C4005FA03F3013B05
:1002F4001A40002842EA04024FEA0212AFBF00F19A
:10030400604000F00F00064BD2B2A5BF00F561407B
:10031400D2B21A5480F8002330BD00BF00ED00E0D3
:1003240014ED00E00138B0F1807F0AD2064B074A91
:100334005860F02182F823100020072298601A6088
:1003440070470120704700BF10E000E000ED00E0BE
:10035400044B1A6804280CBF42F0040222F0040281
:100364001A60704710E000E0704708B5FFF7FCFF23
:1003740008BD00002DE9F04F674F0B68DFF8A0C1FE
:10038400DFF8A08185B000220193BE460124019BC1
:10039400944034EA030340F0B7804D6825F0100A16
:1003A400BAF1020F14D14FEAD20900EB890902F025
:1003B400070BD9F820604FEA8B0B0F2303FA0BF3DA
:1003C40026EA03060B6903FA0BF33343C9F820301A
:1003D4004FEA420B4FF00309036809FA0BF96FEA7D
:1003E400090905F0030603EA090306FA0BF60AF104
:1003F400FF3A3343BAF1010F03600FD88368CE6824
:1004040009EA030306FA0BF61E4386604368C5F344
:10041400001623EA0403964033434360C36809EAA1
:1004240003098B6803FA0BF343EA0903C360EB0087
:100434006AD500230393DCF84460384B46F48046C5
:10044400CCF84460DCF8446022F0030909F18049E7
:1004540006F4804609F59C39039602F0030A039ECC
:10046400D9F808B04FEA8A0A0F2606FA0AF6984223
:100474002BEA060618D003F58063984216D003F5DC
:100484008063984214D003F58063984212D003F538
:100494008063984210D0404510D003F50063984221
:1004A40014BF072306230AE0002308E0012306E023
:1004B400022304E0032302E0042300E0052303FAFB
:1004C4000AF33343C9F808303B68E64315F4803F28
:1004D4000CBF33402343CEF80030DEF8043015F46B
:1004E400003F0CBF334023437B60BB6815F4801F7F
:1004F4000CBF33402343CEF80830DEF80C30AD0295
:1005040054BF33402343FB600132102A7FF43EAFD3
:1005140005B0BDE8F08F00BF003C01400000024080
:10052400003802400014024002B909048161704796
:10053400436959404161704737B500230193224B09
:100544001A6C42F080521A641B6C03F080530193BE
:10055400019B4FF4803393FAA3F3B3FA83F303F1CB
:10056400845303F560339B0001221A60FFF77EFE7B
:10057400164C05466368DA0307D4FFF777FE401B81
:10058400B0F57A7FF6D903201BE04FF4003393FAD9
:10059400A3F3B3FA83F303F1845303F560339B00AD
:1005A40001221A60FFF762FE084C054663689B034C
:1005B40006D4FFF75BFE401BB0F57A7FF6D9E2E77D
:1005C400002003B030BD00BF00380240007000407E
:1005D400554B1A6802F00F028A422DE9F041054694
:1005E4000E460AD32968880711D55048836823F03A
:1005F400F002AB681343836009E0CAB21A701B6847
:1006040003F00F039942EDD00120BDE8F081C90742
:1006140006D4454B1A6802F00F02964251D357E0B4
:100624006B68424A012B03D1126812F4003F08E0C0
:10063400991E0129126802D812F0007F01E012F01D
:10064400020FE1D0394CA26822F003021343A360E5
:10065400FFF70CFE6B68012B074641F288380CD17A
:10066400A36803F00C03042BD3D0FFF7FFFDC01BDA
:100674004045F5D90320BDE8F081022B0AD1A368D7
:1006840003F00C03082BC4D0FFF7F0FDC01B40455A
:10069400F5D9EFE7032B0FD1A36803F00C030C2B60
:1006A400B7D0FFF7E3FDC01B4045F5D9E2E7FFF7FC
:1006B400DDFDC01B4045DDD8A36813F00C0FF6D157
:1006C400A7E7F2B21A701B6803F00F039E429BD196
:1006D40029684A0706D51548836823F4E052EB6875
:1006E400134383600B0707D5104A2969936823F4E1
:1006F400604343EAC103936000F024F80B4BF022FB
:100704009B6892FAA2F2B2FA82F203F0F003D340A9
:10071400074AD35CD840074B18600020FFF770FDF0
:100724000020BDE8F08100BF003C024000380240D8
:10073400680E000800000020014B1868704700BFD5
:10074400000000203049886800F00C00082808D018
:100754000C282FD02D4A2E4B04280CBF18461046C7
:10076400704748684B6800F03F0013F4800F47F669
:10077400C0724B6892FAA2F247F6C071B2FA82F2E2
:1007840001EA030121FA02F114BF214A1F4AB2FB14
:10079400F0F01D4A00FB01F352684FF4403090FA28
:1007A400A0F0B0FA80F002F4403222FA00F00130F6
:1007B400400025E048684B6800F03F0013F4800FC8
:1007C40047F6C0724B6892FAA2F247F6C071B2FAC9
:1007D40082F201EA030121FA02F114BF0C4A0B4A26
:1007E400B2FBF0F0084A00FB01F352684FF0E0401E
:1007F40090FAA0F0B0FA80F002F0E04222FA00F0A1
:10080400B3FBF0F0704700BF003802400024F4004E
:1008140000127A0003682DE9F341DE07044603D48D
:1008240023689D0758D4B1E0974B9A6802F00C02F4
:10083400042A10D09A6802F00C02082A02D15B68DC
:10084400580208D4904B9A6802F00C020C2A0BD17F
:100854005A68510208D58C4B1B689A03E0D563682B
:10086400002BDDD101207AE16268B2F5803F04D12A
:100874001A6842F480321A6014E0834DB2F5A02F56
:100884002B6807D143F480232B602B6843F4803317
:100894002B6007E023F480332B602B6823F4802340
:1008A4002B606AB1FFF7E2FC774D06462B689B0389
:1008B400B6D4FFF7DBFC801B6428F7D903204EE194
:1008C400FFF7D4FC06462B689F03A9D5FFF7CEFC9F
:1008D400801B6428F7D9F1E76B4B9A6812F00C0F70
:1008E40010D09A6802F00C02082A02D15B68580200
:1008F40008D5654A936803F00C030C2B17D1536891
:10090400590214D4604B1A68920702D5E268012A8E
:10091400A8D11A68F82191FAA1F12069B1FA81F1FC
:1009240000FA01F122F0F8020A431A602EE0E268AC
:10093400564BEAB101221A60FFF798FC524D064665
:100944002B6851489B0705D4FFF790FC801B0228B5
:10095400F6D9B3E70368F82292FAA2F22169B2FA4F
:1009640082F201FA02F223F0F803134303600DE06C
:100974001A60FFF77BFC444D06462B689F0705D59C
:10098400FFF774FC801B0228F7D997E723681E073A
:1009940003D423685D0748D51FE062693C4B72B1FC
:1009A40001221A60FFF762FC374D06466B6F980709
:1009B400EFD4FFF75BFC801B0228F7D97EE71A60AF
:1009C400FFF754FC304D06466B6F9907E1D5FFF7EE
:1009D4004DFC801B0228F7D970E7002301932A4BB2
:1009E4002C4D1A6C42F080521A641B6C03F0805335
:1009F4000193019B2B6843F480732B60FFF736FC53
:100A040006462B68DA0513D5A3681F4D012B15D1B3
:100A14002B6F43F001032B67FFF728FC1A4D0646A2
:100A240041F288372B6F9B0719D5A269A2BB7BE0E3
:100A3400FFF71CFC801B0228E3D93FE7052B04D1F8
:100A44002B6F43F004032B67E2E72A6F22F00102C5
:100A54002A672A6F22F004022A6733B1DCE7FFF722
:100A640005FC801BB842DDD928E7FFF7FFFB41F204
:100A7400883706462B6F9807D7D5FFF7F7FB801BFF
:100A8400B842F7D91AE700BF0038024000004742D5
:100A9400800E474200700040324DAB6803F00C03F7
:100AA400082B3FF4DFAE304E0023022A33604AD1D4
:100AB400FFF7DCFB80462B682A4F990136D447F6B2
:100AC400C07292FAA2F24FF44033B2FA82FC93FA63
:100AD400A3F34FF07061B3FA83FE91FAA1F14FF0E2
:100AE400E042B1FA81F592FAA2F2E369B2FA82F035
:100AF400226A43EA0201626AA36A02FA0CF211430F
:100B04005A08013A02FA0EF30B43E16A226BA94038
:100B14000B43824013437B6001233360FFF7A6FB42
:100B240004463B689A0108D5002018E0FFF79EFBB5
:100B3400C8EB00000228BED9C0E6FFF797FB001BF4
:100B44000228EED9BAE6FFF791FB04462B689B0115
:100B5400EAD5FFF78BFB001B0228F7D9AEE602B0FB
:100B6400BDE8F081003802406000474230B595B0DE
:100B74002A4B002100911A6C42F080521A641B6CBB
:100B840003F080530093009B254B01911A6842F4B3
:100B940040421A601B6803F440430193019B012304
:100BA40007934FF4803308934FF4800302240E9389
:100BB4000425B42307A80D940F951093119412944F
:100BC4001394FFF727FE00B1FEE7FFF7B5FC00B171
:100BD400FEE70F2302934FF4A053049005930521DD
:100BE4004FF4805302A803940693FFF7F1FC0446E4
:100BF40000B1FEE7FFF7A0FD4FF47A73B0FBF3F00A
:100C0400FFF790FB2846FFF7A3FB224621464FF04F
:100C1400FF30FFF753FB15B030BD00BF0038024072
:100C24000070004000B58BB00024FFF7FDFAFFF719
:100C34009DFF2B4B01941A6B2A4842F004021A635D
:100C44001A6B02F004020192019A02941A6B42F0A8
:100C540080021A631A6B02F080020292029A0394D1
:100C64001A6B42F001021A631A6B02F0010203923A
:100C7400039A04941A6B42F002021A631B6B03F08A
:100C84000203224604932021049BFFF74DFC4FF4FA
:100C94000053059305A9144B144806930794FFF7D2
:100CA40069FB0C230593022306930323089305A9E8
:100CB40007230C4809930794FFF75CFB2023059353
:100CC40005A901230748069307940894FFF752FBEC
:100CD40020210448FFF72CFC6420FFF7CDFAF7E746
:100CE40000380240000002400000211000080240C9
:100CF40008B50720FFF7D0FA002211466FF00B0069
:100D0400FFF7DCFA002211466FF00A00FFF7D6FA6B
:100D1400002211466FF00900FFF7D0FA00221146B5
:100D24006FF00400FFF7CAFA002211466FF00300C7
:100D3400FFF7C4FA002211466FF00100FFF7BEFA74
:100D4400002211464FF0FF30BDE80840FFF7B6BA65
:100D540008B5FFF783FABDE80840FFF706BB0000BB
:100D64000F49D1F8883043F47003C1F888300D4B33
:100D74001A68002042F001021A6098601A6822F092
:100D8400847222F480321A60074A5A601A6822F484
:100D940080221A60D8604FF000638B60704700BFF8
:100DA40000ED00E00038024010300024DFF834D0B9
:100DB400002103E00C4B5B58435004310B480C4BAF
:100DC40042189A42F6D30B4A02E0002342F8043B4D
:100DD400094B9A42F9D3FFF7C3FF00F011F8FFF76C
:100DE40021FF704700000220800E00080000002050
:100DF400040000200400002024000020FEE700007E
:100E040070B50E4B0E4CE41AA41000251E46A542E4
:100E140004D056F8253098470135F8E700F016F865
:100E2400084C094BE41AA41000251E46A54204D020
:100E340056F8253098470135F8E770BD780E00085C
:100E4400780E00087C0E0008780E0008F8B500BF84
:100E5400F8BC08BC9E467047F8B500BFF8BC08BC97
:040E64009E467047EF
:100E68000000000000000000010203040607080952
:040E7800E901000884
:040E7C00C5010008A4
:040E80000024F40056
:0400000508000DB131
:00000001FF
