:020000040800F2
:10000000005000201D470008694600086B460008A4
:100010006D4600086F4600087146000800000000A9
:10002000000000000000000000000000734600080F
:100030007546000800000000774600087946000871
:1000400065470008654700086547000865470008E0
:1000500065470008874600086547000865470008AF
:10006000654700086547000865470008894600089D
:1000700065470008654700086547000865470008B0
:100080006547000865470008954600086547000871
:100090006547000865470008654700086547000890
:1000A0006547000865470008654700086547000880
:1000B000A1460008AD4600086547000865470008EE
:1000C0006547000865470008654700086547000860
:1000D00065470008B9460008C5460008654700089E
:1000E00065470008654700086547000800000000F4
:1000F0000000000000000000000000000000000000
:0C01000000000000000000005FF808F1A3
:1001100010B5054C237833B9044B13B10448AFF341
:1001200000800123237010BDA00500200000000006
:100130007C7A000808B5034B1BB103490348AFF3B1
:10014000008008BD00000000A40500207C7A0008A3
:10015000034613F8012B002AFBD1181A0138704707
:1001600081F0004102E000BF83F0004330B54FEA68
:1001700041044FEA430594EA050F08BF90EA020FD5
:100180001FBF54EA000C55EA020C7FEA645C7FEA68
:10019000655C00F0E2804FEA5454D4EB5555B8BF8B
:1001A0006D420CDD2C4480EA020281EA030382EAFC
:1001B000000083EA010180EA020281EA0303362D8E
:1001C00088BF30BD11F0004F4FEA01314FF4801C61
:1001D0004CEA113102D0404261EB410113F0004F73
:1001E0004FEA03334CEA133302D0524263EB43032A
:1001F00094EA050F00F0A780A4F10104D5F1200EC8
:100200000DDB02FA0EFC22FA05F2801841F1000122
:1002100003FA0EF2801843FA05F359410EE0A5F1F6
:1002200020050EF1200E012A03FA0EFC28BF4CF027
:10023000020C43FA05F3C01851EBE37101F00045DD
:1002400007D54FF0000EDCF1000C7EEB00006EEBEA
:100250000101B1F5801F1BD3B1F5001F0CD3490874
:100260005FEA30004FEA3C0C04F101044FEA4452CB
:1002700012F5800F80F09A80BCF1004F08BF5FEA52
:10028000500C50F1000041EB045141EA050130BD32
:100290005FEA4C0C404141EB010111F4801FA4F1D5
:1002A0000104E9D191F0000F04BF01460020B1FA2A
:1002B00081F308BF2033A3F10B03B3F120020CDA62
:1002C0000C3208DD02F1140CC2F10C0201FA0CF040
:1002D00021FA02F10CE002F11402D8BFC2F1200CA5
:1002E00001FA02F120FA0CFCDCBF41EA0C0190405B
:1002F000E41AA2BF01EB0451294330BD6FEA0404A4
:100300001F3C1CDA0C340EDC04F11404C4F120028E
:1003100020FA04F001FA02F340EA030021FA04F3A0
:1003200045EA030130BDC4F10C04C4F1200220FAF7
:1003300002F001FA04F340EA0300294630BD21FA35
:1003400004F0294630BD94F0000F83F4801306BFFB
:1003500081F480110134013D4EE77FEA645C18BFEF
:100360007FEA655C29D094EA050F08BF90EA020F86
:1003700005D054EA000C04BF1946104630BD91EA7E
:10038000030F1EBF0021002030BD5FEA545C05D181
:100390004000494128BF41F0004130BD14F58004C0
:1003A0003CBF01F5801130BD01F0004545F0FE4134
:1003B00041F470014FF0000030BD7FEA645C1ABF69
:1003C000194610467FEA655C1CBF0B46024650EAA0
:1003D000013406BF52EA033591EA030F41F40021CC
:1003E00030BD00BF90F0000F04BF0021704730B552
:1003F0004FF4806404F132044FF000054FF0000127
:1004000050E700BF90F0000F04BF0021704730B5E7
:100410004FF4806404F1320410F0004548BF4042BC
:100420004FF000013EE700BF42004FEAE2014FEA11
:1004300031014FEA02701FBF12F07F4393F07F4FEC
:1004400081F06051704792F0000F14BF93F07F4F1E
:10045000704730B54FF4607401F0004521F0004161
:1004600020E700BF50EA010208BF704730B54FF0E7
:1004700000050AE050EA010208BF704730B511F0EC
:10048000004502D5404261EB41014FF4806404F124
:1004900032045FEA915C3FF4DCAE4FF003025FEAA6
:1004A000DC0C18BF03325FEADC0C18BF033202EB2E
:1004B000DC02C2F1200300FA03FC20FA02F001FA88
:1004C00003FE40EA0E0021FA02F11444C1E600BF27
:1004D00070B54FF0FF0C4CF4E06C1CEA11541DBFDA
:1004E0001CEA135594EA0C0F95EA0C0F00F0DEF8A5
:1004F0002C4481EA030621EA4C5123EA4C5350EA8A
:10050000013518BF52EA033541F4801143F48013DA
:1005100038D0A0FB02CE4FF00005E1FB02E506F06B
:100520000042E0FB03E54FF00006E1FB03569CF0C0
:10053000000F18BF4EF0010EA4F1FF04B6F5007FC6
:1005400064F5407404D25FEA4E0E6D4146EB060638
:1005500042EAC62141EA55514FEAC52040EA5E50C1
:100560004FEACE2EB4F1FD0C88BFBCF5E06F1ED86B
:10057000BEF1004F08BF5FEA500E50F1000041EBA2
:10058000045170BD06F0004646EA010140EA02004F
:1005900081EA0301B4EB5C04C2BFD4EB0C0541EA71
:1005A000045170BD41F480114FF0000E013C00F386
:1005B000AB8014F1360FDEBF002001F0004170BDAA
:1005C000C4F10004203C35DA0C341BDC04F11404C3
:1005D000C4F1200500FA05F320FA04F001FA05F24F
:1005E00040EA020001F0004221F0004110EBD3701C
:1005F00021FA04F642EB06015EEA430E08BF20EA48
:10060000D37070BDC4F10C04C4F1200500FA04F3EA
:1006100020FA05F001FA04F240EA020001F000417C
:1006200010EBD37041F100015EEA430E08BF20EAEF
:10063000D37070BDC4F1200500FA05F24EEA020E37
:1006400020FA04F301FA05F243EA020321FA04F066
:1006500001F0004121FA04F220EA020000EBD3701D
:100660005EEA430E08BF20EAD37070BD94F0000F1D
:100670000FD101F00046400041EB010111F4801F51
:1006800008BF013CF7D041EA060195F0000F18BF02
:10069000704703F00046520043EB030313F4801F3E
:1006A00008BF013DF7D043EA0603704794EA0C0FF8
:1006B0000CEA135518BF95EA0C0F0CD050EA41060E
:1006C00018BF52EA4306D1D181EA030101F000418B
:1006D0004FF0000070BD50EA410606BF10461946B3
:1006E00052EA430619D094EA0C0F02D150EA0136BF
:1006F00013D195EA0C0F05D152EA03361CBF104600
:1007000019460AD181EA030101F0004141F0FE419E
:1007100041F470014FF0000070BD41F0FE4141F422
:10072000780170BD70B54FF0FF0C4CF4E06C1CEA22
:1007300011541DBF1CEA135594EA0C0F95EA0C0FD7
:1007400000F0A7F8A4EB050481EA030E52EA033592
:100750004FEA013100F088804FEA03334FF08055B3
:1007600045EA131343EA12634FEA022245EA1115E0
:1007700045EA10654FEA00260EF000419D4208BF91
:10078000964244F1FD0404F5407402D25B084FEA3E
:100790003202B61A65EB03055B084FEA32024FF4EA
:1007A00080104FF4002CB6EB020E75EB030E22BF47
:1007B000B61A754640EA0C005B084FEA3202B6EB07
:1007C000020E75EB030E22BFB61A754640EA5C00B6
:1007D0005B084FEA3202B6EB020E75EB030E22BF46
:1007E000B61A754640EA9C005B084FEA3202B6EB47
:1007F000020E75EB030E22BFB61A754640EADC0006
:1008000055EA060E18D04FEA051545EA16754FEA67
:1008100006164FEAC30343EA52734FEAC2025FEA85
:100820001C1CC0D111F4801F0BD141EA00014FF014
:1008300000004FF0004CB6E711F4801F04BF0143E5
:100840000020B4F1FD0C88BFBCF5E06F3FF6AFAE01
:10085000B5EB030C04BFB6EB020C5FEA500C50F191
:10086000000041EB045170BD0EF0004E4EEA113114
:1008700014EB5C04C2BFD4EB0C0541EA045170BD1B
:1008800041F480114FF0000E013C90E645EA060E5F
:100890008DE60CEA135594EA0C0F08BF95EA0C0F8D
:1008A0003FF43BAF94EA0C0F0AD150EA01347FF4D5
:1008B00034AF95EA0C0F7FF425AF104619462CE7AC
:1008C00095EA0C0F06D152EA03353FF4FDAE10460F
:1008D000194622E750EA410618BF52EA43067FF460
:1008E000C5AE50EA41047FF40DAF52EA43057FF4F0
:1008F000EBAE12E74FF0FF3C06E000BF4FF0010CFB
:1009000002E000BF4FF0010C4DF804CD4FEA410C5E
:100910007FEA6C5C4FEA430C18BF7FEA6C5C1BD02B
:1009200001B050EA410C0CBF52EA430C91EA030FAC
:1009300002BF90EA020F0020704710F1000F91EA09
:10094000030F58BF994208BF90422CBFD8176FEAD7
:10095000E37040F0010070474FEA410C7FEA6C5CA5
:1009600002D150EA013C07D14FEA430C7FEA6C5CAC
:10097000D6D152EA033CD3D05DF8040B704700BFD8
:100980008446104662468C461946634600E000BF26
:1009900001B5FFF7B7FF002848BF10F1000F01BDF8
:1009A0004DF808EDFFF7F4FF0CBF012000205DF8C3
:1009B00008FB00BF4DF808EDFFF7EAFF34BF012048
:1009C00000205DF808FB00BF4DF808EDFFF7E0FFE1
:1009D00094BF012000205DF808FB00BF4DF808ED32
:1009E000FFF7CEFF94BF012000205DF808FB00BF99
:1009F0004DF808EDFFF7C4FF34BF012000205DF87B
:100A000008FB00BF4FEA410C7FEA6C5C02D150EA60
:100A1000013C0AD14FEA430C7FEA6C5C02D152EAF6
:100A2000033C02D14FF0000070474FF001007047C7
:100A30004FEA410212F5001215D211D56FF4787306
:100A4000B3EB625212D94FEAC12343F0004343EAA9
:100A5000505311F0004F23FA02F018BF4042704784
:100A60004FF00000704750EA013005D111F000400E
:100A700008BF6FF0004070474FF00000704700BFA4
:100A80004FEA4102B2F1E04324BFB3F5001CDCF1B0
:100A9000FE5C0DD901F0004C4FEAC0024CEA5070E8
:100AA000B2F1004F40EB830008BF20F00100704717
:100AB00011F0804F21D113F13872BCBF01F000401A
:100AC000704741F480114FEA5252C2F11802C2F14C
:100AD000200C10FA0CF320FA02F018BF40F00100CD
:100AE0004FEAC1234FEAD32303FA0CFC40EA0C007F
:100AF00023FA02F34FEA4303CCE77FEA625307D1BC
:100B000050EA01331EBF4FF0FE4040F440007047F2
:100B100001F0004040F0FE4040F40000704700BF8C
:100B200080F0004002E000BF81F0004142001FBFA2
:100B30005FEA410392EA030F7FEA226C7FEA236CAB
:100B40006AD04FEA1262D2EB1363C1BFD2184140A0
:100B500048404140B8BF5B42192B88BF704710F036
:100B6000004F40F4000020F07F4018BF404211F0D9
:100B7000004F41F4000121F07F4118BF494292EA41
:100B8000030F3FD0A2F1010241FA03FC10EB0C006D
:100B9000C3F1200301FA03F100F0004302D54942FA
:100BA00060EB4000B0F5000F13D3B0F1807F06D3A7
:100BB00040084FEA310102F10102FE2A51D2B1F19F
:100BC000004F40EBC25008BF20F0010040EA030094
:100BD0007047490040EB000010F4000FA2F1010241
:100BE000EDD1B0FA80FCACF1080CB2EB0C0200FACB
:100BF0000CF0AABF00EBC25052421843BCBFD04019
:100C00001843704792F0000F81F4000106BF80F492
:100C100000000132013BB5E74FEA41037FEA226C55
:100C200018BF7FEA236C21D092EA030F04D092F020
:100C3000000F08BF0846704790EA010F1CBF002054
:100C4000704712F07F4F04D1400028BF40F00040B1
:100C5000704712F100723CBF00F50000704700F0D1
:100C6000004343F0FE4040F4000070477FEA2262F8
:100C700016BF08467FEA23630146420206BF5FEAC9
:100C8000412390EA010F40F4800070474FF00003C9
:100C900004E000BF10F0004348BF40425FEA000C90
:100CA00008BF704743F0964301464FF000001CE038
:100CB00050EA010208BF70474FF000030AE000BF8E
:100CC00050EA010208BF704711F0004302D54042CC
:100CD00061EB41015FEA010C02BF8446014600203E
:100CE00043F0B64308BFA3F18053A3F50003BCFA59
:100CF0008CF2083AA3EBC25310DB01FA02FC634406
:100D000000FA02FCC2F12002BCF1004F20FA02F20C
:100D100043EB020008BF20F00100704702F12002FF
:100D200001FA02FCC2F1200250EA4C0021FA02F260
:100D300043EB020008BF20EADC7070474FF0FF0C65
:100D40001CEAD0521EBF1CEAD15392EA0C0F93EA60
:100D50000C0F6FD01A4480EA010C400218BF5FEA02
:100D600041211ED04FF0006343EA501043EA511175
:100D7000A0FB01310CF00040B1F5000F3EBF49006F
:100D800041EAD3715B0040EA010062F17F02FD2A73
:100D90001DD8B3F1004F40EBC25008BF20F0010056
:100DA000704790F0000F0CF0004C08BF49024CEA6D
:100DB000502040EA51207F3AC2BFD2F1FF0340EAFF
:100DC000C250704740F400004FF00003013A5DDC70
:100DD00012F1190FDCBF00F000407047C2F10002B1
:100DE000410021FA02F1C2F1200200FA02FC5FEA9E
:100DF000310040F1000053EA4C0308BF20EADC70E8
:100E0000704792F0000F00F0004C02BF400010F459
:100E1000000F013AF9D040EA0C0093F0000F01F006
:100E2000004C02BF490011F4000F013BF9D041EA28
:100E30000C018FE70CEAD15392EA0C0F18BF93EA2A
:100E40000C0F0AD030F0004C18BF31F0004CD8D154
:100E500080EA010000F00040704790F0000F17BFDB
:100E600090F0004F084691F0000F91F0004F14D021
:100E700092EA0C0F01D142020FD193EA0C0F03D179
:100E80004B0218BF084608D180EA010000F000407C
:100E900040F0FE4040F40000704740F0FE4040F457
:100EA000400070474FF0FF0C1CEAD0521EBF1CEAF6
:100EB000D15392EA0C0F93EA0C0F69D0A2EB030214
:100EC00080EA010C49024FEA402037D04FF08053AE
:100ED00043EA111143EA10130CF000408B4238BF73
:100EE0005B0042F17D024FF4000C8B4224BF5B1A81
:100EF00040EA0C00B3EB510F24BFA3EB510340EACF
:100F00005C00B3EB910F24BFA3EB910340EA9C007C
:100F1000B3EBD10F24BFA3EBD10340EADC001B01EC
:100F200018BF5FEA1C1CE0D1FD2A3FF650AF8B4290
:100F300040EBC25008BF20F0010070470CF0004C9D
:100F40004CEA50207F32C2BFD2F1FF0340EAC250C8
:100F5000704740F400004FF00003013A37E792F089
:100F6000000F00F0004C02BF400010F4000F013AE7
:100F7000F9D040EA0C0093F0000F01F0004C02BFE2
:100F8000490011F4000F013BF9D041EA0C0195E74B
:100F90000CEAD15392EA0C0F08D142027FF47DAFE4
:100FA00093EA0C0F7FF470AF084676E793EA0C0FD4
:100FB00004D14B023FF44CAF08466EE730F0004CD2
:100FC00018BF31F0004CCAD130F000427FF45CAF62
:100FD00031F000437FF43CAF5FE700BF4FEA4002CF
:100FE000B2F1FE4F0FD34FF09E03B3EB12620DD957
:100FF0004FEA002343F0004310F0004F23FA02F0C1
:1010000018BF404270474FF00000704712F1610F67
:1010100001D1420205D110F0004008BF6FF000403E
:1010200070474FF00000704753B94AB9002908BF14
:1010300000281CBF4FF0FF314FF0FF3000F082B9A5
:10104000ADF1080C6DE904CE00F006F8DDF804E01F
:10105000DDE9022304B070472DE9F04F8C460C46C1
:101060000546099E002B4FD18A4217466BD9B2FA2A
:1010700082FEBEF1000F0BD0CEF1200520FA05F55F
:1010800001FA0EF345EA030C02FA0EF700FA0EF528
:10109000390CBCFBF1F0BAB201FB10C300FB02F843
:1010A0004FEA154C4CEA0344A04509D9E41900F174
:1010B000FF3380F02881A04540F2258102383C446E
:1010C000C8EB0404B4FBF1F301FB134C03FB02F285
:1010D000ACB244EA0C418A4209D9C91903F1FF3480
:1010E00080F00F818A4240F20C81023B39448A1A17
:1010F00043EA00400021002E63D022FA0EF20023C2
:1011000086E80C00BDE8F08F8B4207D9002E56D040
:10111000002186E811000846BDE8F08FB3FA83F19C
:10112000002940F09380A34202D3824200F2FE8065
:10113000851A64EB03039C460120002E41D086E80B
:101140002010BDE8F08F12B90127B7FBF2F7B7FA0C
:1011500087FEBEF1000F36D1E41B4FEA17481FFA95
:1011600087F90121B4FBF8F308FB134409FB03F2F0
:101170004FEA154C4CEA0444A24207D9E41903F1A2
:10118000FF3002D2A24200F2D3800346A41AB4FB7D
:10119000F8F008FB104809FB00F9ACB244EA084239
:1011A000914507D9D21900F1FF3402D2914500F2DE
:1011B000BA802046C9EB020240EA03409BE7314671
:1011C0003046BDE8F08F07FA0EF7CEF1200C24FA76
:1011D0000CF34FEA1748B3FBF8FA1FFA87F908FB3C
:1011E0001A3520FA0CFC04FA0EF40AFB09FB4CEA4F
:1011F000040C4FEA1C4242EA05439B4500FA0EF5F7
:101200000AD9DB190AF1FF3280F08B809B4540F24E
:101210008880AAF1020A3B44CBEB0303B3FBF8F04E
:1012200008FB103300FB09F41FFA8CFC4CEA034363
:101230009C4207D9DB1900F1FF326ED29C426CD977
:1012400002383B441C1B40EA0A418BE7C1F1200EE7
:101250008B4022FA0EFC4CEA030C24FA0EF74FEAFC
:101260001C49B7FBF9FA1FFA8CF309FB1A7720FA2D
:101270000EF88C400AFB03F548EA04044FEA1448D0
:1012800048EA0747BD4202FA01F200FA01FB09D918
:1012900017EB0C070AF1FF3041D2BD423FD9AAF14A
:1012A000020A67447F1BB7FBF9F509FB157705FBBD
:1012B00003F3A4B244EA0747BB4208D917EB0C0773
:1012C00005F1FF3027D2BB4225D9023D674445EAEC
:1012D0000A40A0FB0289FF1A4F4545464C4614D3ED
:1012E00029D066B3BBEB050367EB040707FA0EFED4
:1012F000CB40CF404EEA030386E888000021BDE8DA
:10130000F08F2346F3E61846DAE6B8EB020569EB00
:101310000C040138E5E70546D9E7104692E7824616
:10132000C0E7924678E702383A4443E7084604E7C4
:10133000023B3C442AE7C345E7D33C46D1E731466C
:10134000BDE8F08F704700BF10B5044601F0D2FB36
:101350004FF47A73B0FBF3F000F0A0FA00222146BC
:101360004FF0FF3000F05AFA002010BD074A08B5D0
:101370001368032043F01003136000F03DFA0020CF
:10138000FFF7E2FF02F0D0FF002008BD002002407E
:10139000024A136801331360704700BFBC05002088
:1013A000014B1868704700BFBC05002013B50190C1
:1013B000FFF7F6FF0446FFF7F3FF019B001B98427F
:1013C000F9D302B010BD70477047036810B55A6872
:1013D0000446900627D51A68910724D5A26AD2063A
:1013E0005EBFA26A42F40072A2629A6802F46022AE
:1013F000B2F5602F10D1E26872B95A6822F020026B
:101400005A60A36A23F48073A362A36ADB045EBFFD
:10141000A36A43F00103A3622046FFF7D4FF2368C9
:101420006FF012021A6023685A68100630D51A68E5
:1014300051072DD5A26AD2065EBFA26A42F40052BD
:10144000A2629A6802F4E042B2F5E04F0AD05A680C
:10145000500516D49A6802F46022B2F5602F10D1BC
:10146000E26872B95A6822F080025A60A36A23F4D3
:101470008053A362A36AD9055EBFA36A43F0010348
:10148000A362204600F0B6F923686FF00C021A60E0
:1014900023685A6852060DD51B68DB070AD5A36A74
:1014A000204643F48033A362FFF78EFF23686FF07A
:1014B00001021A6010BD0000F7B50023019390F8F7
:1014C0002430012B00F0AE80012380F824304B68DB
:1014D0000468062B0D6818D8676B4FF4787292FA7F
:1014E000A2F6B6FA86F6013B92FAA2F2B2FA82F2BC
:1014F0005E4353434FF01F0E0EFA06F627EA060628
:1015000005FA03F33343636330E00C2B4FF4787236
:1015100016D8276B92FAA2F6B6FA86F6073B92FA2D
:10152000A2F2B2FA82F25E435A434FF01F0E0EFA55
:1015300006F627EA060605FA02F23243226315E0B0
:10154000E76A92FAA2F6B6FA86F60D3B92FAA2F292
:10155000B2FA82F25E4353434FF01F0E0EFA06F6C4
:1015600027EA060605FA03F33343E362092D4FF039
:1015700038038E6818D9D4F80CE093FAA3F7B7FAB9
:1015800087F7A5F10A0193FAA3F3B3FA83F201FBFB
:1015900007F35143072707FA03F32EEA030306FA7A
:1015A00001F21A43E26013E0276993FAA3F1B1FA5A
:1015B00081F193FAA3F3B3FA83F369436B430722F0
:1015C00002FA01F127EA010106FA03F20A43226155
:1015D000A5F11003012B01D900231EE0134B9C42FF
:1015E00016D1A3681B02F7D4A368102D43F400039F
:1015F000A360F1D10E4B0F4A1B68B3FBF2F20A2332
:1016000053430193019B002BE6D0019B013BF8E77C
:10161000836A43F0200383620123002280F82420A0
:10162000184600E0022003B0F0BD00BF00240140D6
:101630005C00002040420F0090F8243030B5012BB0
:101640001DD001230C6880F824308B68012B0368BF
:101650005D680CBF45F0400525F040055D604A68B7
:101660005D681443074A2A4022435A60CA685A6296
:101670000A699A62002380F82430184630BD02209F
:1016800030BD00BFE0FD3FFF38B5036804469A68EF
:10169000D20701D4002038BD9A6822F001029A6076
:1016A000FFF77EFE054623689B68DB07F2D5FFF750
:1016B00077FE401B0228F6D9A36A012043F01003ED
:1016C000A362E36A43F00103E36238BD38B5044620
:1016D000002800F08880836A23B9C36280F8243030
:1016E00002F070FE2046FFF7CFFFA36A13F0100F41
:1016F000A36A75D1002873D123F4885323F0020321
:1017000043F00203A362E068022393FAA3F3B3FA5F
:1017100083F36168E26900FA03F30A43A1681343A3
:10172000B1F5807F05D0012914BF00224FF48072EB
:1017300000E00A466569012D15D160B94FF460409B
:1017400090FAA0F0B0FA80F5A06942F40062013886
:10175000A840024307E0A06A40F02000A062E06ACF
:1017600040F00100E0622068B1F5807F456825F413
:10177000694542EA0502426085681C4A02EA0502A0
:1017800042EA0302826001D001290AD14FF47002BB
:1017900092FAA2F2B2FA82F22169013901FA02F256
:1017A00000E00022C16A21F470010A43C26281682C
:1017B0000F4A0A40934208D10020E062A36A23F056
:1017C000030343F00103A36238BDA36A23F01203AD
:1017D00043F01003A362E36A43F00103E36202E013
:1017E00043F01003A362012038BD00BFFDF7E1FF05
:1017F000FE0E1FFF70470000074A0002D36800F486
:10180000E06023F4E0631B041B0C43F0BF6343F46C
:1018100000330343D360704700ED00E0174B30B551
:10182000DB68C3F30223C3F107041D1D042C28BF8A
:101830000424062D4FF0010505FA04F404F1FF34E9
:101840008CBF033B00230C409C4005FA03F3013B93
:101850001A40002842EA04024FEA0212AFBF00F128
:101860006040074B00F00F00D2B2A5BFD2B200F526
:1018700061401A5480F8002330BD00BF00ED00E045
:1018800014ED00E04209012300F01F0003FA00F00C
:10189000014B43F82200704700E100E00138B0F14D
:1018A000807F0AD2064B074AF021586082F8231045
:1018B0000020072298601A6070470120704700BF1F
:1018C00010E000E000ED00E0044B04281A680CBFB3
:1018D00042F0040222F004021A60704710E000E0B7
:1018E000704708B5FFF7FCFF08BD10B500B390F8CE
:1018F00021300BB980F820308268416804681143B8
:10190000C26823681143026923F47F53114342697B
:1019100023F03003114382691143C2690A43134320
:10192000236001220023436380F82120184610BD64
:10193000012010BD914B70B51968914D03680446A4
:10194000AB4213D08F4A934212D01432934211D03B
:101950001432934211D01432934211D01432934274
:101960000CBF4FF400024FF000620BE0082209E0C8
:10197000802207E04FF4006204E04FF4004201E0EF
:101980004FF400220A4238D01A68120735D51A6877
:10199000AB4222F008021A6013D07A4A934212D066
:1019A0001432934211D01432934211D01432934224
:1019B00011D0143293420CBF4FF400034FF0006378
:1019C0000BE0082309E0802307E04FF4006304E004
:1019D0004FF4004301E04FF40023684A5360636B07
:1019E00043F001036363042384F82130002384F867
:1019F0002030236B0BB120469847604B1968236851
:101A0000AB4213D05F4A934212D01432934211D0AA
:101A10001432934211D01432934211D014329342B3
:101A20000CBF4FF480024FF080620BE0042209E00B
:101A3000402207E04FF4806204E04FF4804201E06E
:101A40004FF480220A4234D01A68560731D51A68FA
:101A500090065EBF1A6822F004021A60AB4213D0EF
:101A6000484A934212D01432934211D01432934216
:101A700011D01432934211D0143293420CBF4FF460
:101A800080034FF080630BE0042309E0402307E06C
:101A90004FF4806304E04FF4804301E04FF480236F
:101AA000364A5360112384F82130E36A0BB1204693
:101AB0009847324B19682368AB4213D0314A93429E
:101AC00012D01432934211D01432934211D01432F6
:101AD000934211D0143293420CBF4FF400124FF0D6
:101AE00000720BE0022209E0202207E04FF40072AE
:101AF00004E04FF4005201E04FF400320A423BD0C0
:101B00001A68910738D51A6892065EBF1A6822F0E3
:101B100002021A60AB4213D01A4A934212D0143216
:101B2000934211D01432934211D01432934211D007
:101B3000143293420CBF4FF400134FF000730BE0CC
:101B4000022309E0202307E04FF4007304E04FF480
:101B5000005301E04FF40033084A5360636B636342
:101B6000012384F82130002384F82030A36A1BB1BC
:101B70002046BDE87040184770BD00BF000002401D
:101B8000080002401C0002402DE9F74F00242646C1
:101B9000624BDFF894E1DFF894C101220D68B24096
:101BA00032EA050540F0B3804D68122D28D00ED8DA
:101BB000022D22D004D835B3012D2DD1CC682BE0D5
:101BC000032D18D0112D27D1CC68043424E0544FB4
:101BD000BD4218D006D8DFF85881454513D008F526
:101BE000803805E075450ED065450CD0DFF844819E
:101BF000454511D107E000240EE0CC6808340BE025
:101C0000CC680C3408E08C682CB1012C0CBF02614C
:101C10004261082400E00424FF2A97BF8346A6F10E
:101C20000805D0F80090B50084BFD0F80490AD004E
:101C30004FF00F0808FA05FA29EA0A0904FA05F52F
:101C400088BF00F1040B49EA0505CBF80050D1F834
:101C5000049019F0805F5AD0324D324FAD6906F0D2
:101C6000030A45F00105BD61BD694FEA8A0A05F026
:101C700001050195019D26F0030505F1804505F557
:101C80008035D5F808B0A7F5843708FA0AF8B842C5
:101C90002BEA080810D007F58067B8420FD007F587
:101CA0008067B8420ED007F58067B8420CBF4FF08E
:101CB000030B4FF0040B07E04FF0000B04E04FF074
:101CC000010B01E04FF0020B0BFA0AFA4AEA080A8C
:101CD000C5F808A01D6819F4803F14BF154395434B
:101CE0001D605D6819F4003F14BF154395435D60A6
:101CF0009D6819F4801F14BF154395439D60DD68EE
:101D000019F4001F14BF2A4325EA0202DA600136E3
:101D1000102E7FF442AF03B0BDE8F08F0004014005
:101D200000002110001002400000311000003210AD
:101D3000000011100000221002B90904016170476F
:101D4000C3685940C16070470268536913F48063E7
:101D50000DD0536923F480635361042383632023EC
:101D600080F83530002380F8343001207047184661
:101D700070472DE9F0410E461D4604469046FFF798
:101D80000FFB330C0746B8F1000F34D15FFA83F82C
:101D90002368B8F1010F0CBF5B699B69DB439BB201
:101DA000334214BF01230023C3B16A1CF0D0CDB16C
:101DB000FFF7F6FAC01B8542EAD213E06B1C10D184
:101DC0002368B8F1010F0CBF5B699B69DB439BB2D1
:101DD00033420CBF01230023002BEFD10020BDE8CC
:101DE000F0815DB9202384F83530002384F8343045
:101DF0000320BDE8F0815FFA83F8E1E7FFF7D0FA4E
:101E0000C01B8542DCD2EDE72DE9F0410D460446CA
:101E10001646FFF7C5FA0746C5F307482368B8F129
:101E2000010F0CBF58699869C04380B2284214BFA3
:101E30000120002038B35A69520512D51A680120D2
:101E400042F400721A605A6922F480625A610423D3
:101E5000A363202384F83530002384F83430BDE8B0
:101E6000F081731CDAD046B9202384F83530002382
:101E700084F834300320BDE8F081FFF791FAC01BED
:101E80008642CBD2F0E7BDE8F081000070B516467F
:101E900002680D4613684FF0011143F4807313601C
:101EA000334600220446FFF764FFC8B9236922685D
:101EB000B3F5804F03D105F0FE05156115E0EB1178
:101EC00003F0060343F0F00313610C493246204649
:101ED000FFF79AFF30B1A36B042B01D1012070BD35
:101EE000032070BD2368EDB21D61324604492046CF
:101EF000FFF78AFF0028EED170BD00BF0800010087
:101F000002000100F7B5174603680D461A684FF046
:101F1000011142F480621A601A68044642F4807229
:101F20001A603B460022FFF724FFD0B92369B3F5BE
:101F3000804F236804D145F00105EDB21D6133E007
:101F4000EE1106F0060646F0F0021A611B493A4609
:101F50002046FFF759FF30B1A36B042B01D10120BC
:101F600029E0032027E02368EDB23A461D611449B9
:101F70002046FFF749FF02460028EDD1236820469E
:101F800059690191996901910199196841F4807128
:101F900019603B464FF00111FFF7EBFE0028E0D13E
:101FA000236846F0F1061E613A4605492046FFF7D0
:101FB0002BFF0028D0D103B0F0BD00BF0800010006
:101FC0000200010070B504460D46FFF7E9F9064628
:101FD00023685B691B0618D42046FFF7B5FEB0B92D
:101FE0006A1CF5D05DB9A36B032043F02003A36303
:101FF000202384F83530002384F8343070BDFFF797
:10200000CFF9801B8542E3D2EDE7002070BD0120AF
:1020100070BD70B504460D46FFF7C2F9064622684A
:10202000536913F0400321D15169C9060BD5516999
:10203000012021F0100151612022A36384F8343083
:1020400084F8352070BD5DB9A36B032043F02003F5
:10205000A363202384F83530002384F8343070BD26
:10206000FFF79EF9801B8542D9D2EDE7002070BDB5
:1020700070B5044600285FD090F8353003F0FF02B9
:102080001BB980F8342002F0E1F92268242384F897
:1020900035301368294D23F00103136000F030FD43
:1020A00027496368B0FBF1F1AB4222682E4688BF36
:1020B0004FF49675516082BF69434FF47A75B1FB56
:1020C000F5F1B34201F10101116208D85B00B0FBE8
:1020D000F3F0C0F30B03042B38BF042013E0A16816
:1020E00031B903EB4303B0FBF3F040F4004005E0EB
:1020F00019214B43B0FBF3F040F44040C0F30B0315
:10210000002B08BF0120E169236AD0610B431360F3
:102110002169E36800200B4393606169A3690B4365
:10212000D360136843F0010313602023A06384F895
:10213000353084F8360070BD012070BDA0860100E6
:1021400040420F002DE9F3471E4690F83530044613
:10215000202B8A461746DDF8288001D0022586E02C
:10216000002A78D0002E76D042F210730122424924
:10217000FFF7FFFD81460028F0D194F83430012BA1
:10218000ECD022680125136884F8345023F40063EE
:102190001360212384F83530102384F8363042460A
:1021A000A06351462046FFF771FE28B1A36B84F867
:1021B0003490042B0FD15AE023685A6901929B692D
:1021C0000193019B41462046FFF7FCFE054620B1E6
:1021D000A36B042B3AD0032549E022683B781361B6
:1021E0005169731E49079BB202D401371E4609E0AC
:1021F0001BB9FFF7D5F806460FE07B78023E136166
:10220000B6B20237002EDDD1F3E72046FFF79CFD82
:102210000028DDD1B8F1FF3F04D123685A69520785
:10222000F3D51AE0B8F1000F0AD1A36B43F02003F5
:10223000A363202384F83530002384F83430C7E7C3
:10224000FFF7AEF8801B8045E7D2EEE722681368FF
:1022500043F400731360012509E01A6842F4007228
:102260001A60202384F83530002384F8343028465F
:1022700002B0BDE8F08700BF020010002DE9F04376
:102280001D4690F8353085B0202B04460F46164683
:1022900001D00227CBE0002A67D0002D65D042F2A2
:1022A000107301226449FFF764FD80460028F0D1D5
:1022B00094F83430012BECD022684FF001091368F8
:1022C00084F8349023F400631360222384F83530BB
:1022D000102384F836303946A0630C9A2046FFF765
:1022E00011FE074630B1A36B84F83480042B3AD139
:1022F0004F469CE02368012D1A6814D122F48062B5
:102300001A6072B623685A6901929A690192019A19
:102310001A6842F400721A6062B60C992046FFF700
:1023200078FE20B31CE0022D0FD142F400621A6047
:1023300072B623685A6902929A690292029A1A68DE
:1023400022F480621A6062B617E042F480621A607A
:102350005A6903929B690393039B032D0BD946E0B3
:10236000A36B202B01D1032761E001275FE02368E5
:102370001B69337053E0022D14D10C9B00222F49AE
:102380002046FFF7F6FC0028EDD172B623681A68E4
:1023900042F400721A601B69337062B623681B69CD
:1023A00073703CE000220C9B24492046FFF7E1FCBF
:1023B00002460028D7D121680B6823F480630B60A4
:1023C00072B623681D491B69204633700C9BFFF7CA
:1023D000D0FC0028C7D123681A6842F400721A6042
:1023E0001B69737062B623681B69B37017E00C99A0
:1023F0002046FFF70EFE0028B2D123681B69337018
:10240000226853695B074DBF1269731C05F1FF35E4
:10241000B31C44BF023D7270ADB21E469DE720233F
:1024200084F83530002384F8363084F83430384668
:1024300005B0BDE8F08300BF0200100004000100F9
:1024400003682DE9F743DC07054603D42B6898079A
:1024500073D4F2E0B94C636803F00C03042B07D08B
:10246000636803F00C03082B16D16368D90313D5F6
:102470004FF4003393FAA3F2226893FAA3F3B3FA6A
:1024800083F303F01F0322FA03F3DA07DED56B6848
:10249000002BDBD101202DE26B68B3F5803F15D016
:1024A0006BB923684FF4003623F48033236023682C
:1024B00023F480232360FEF773FF07462FE0B3F574
:1024C000A02F236806D143F480232360236843F4BC
:1024D000803305E023F480332360236823F48023D2
:1024E0002360FEF75DFF07464FF4003696FAA6F329
:1024F000226896FAA6F3B3FA83F303F01F0322FAD5
:1025000003F3DB07A2D4FEF74BFFC01B6428EDD911
:102510000320EFE1FEF744FFC01B6428F8D896FAC9
:10252000A6F3226896FAA6F3B3FA83F303F01F0327
:1025300022FA03F3D807EDD488E7804C636813F0E0
:102540000C0F07D0636803F00C03082B21D16368DC
:10255000D9031ED4022393FAA3F2226893FAA3F3B9
:10256000B3FA83F303F01F0322FA03F3DA0702D569
:102570002B69012B8ED12368F82292FAA2F2B2FACB
:1025800082F2696923F0F80301FA02F2134323602F
:1025900053E02A6901237AB393FAA3F2B2FA82F2E2
:1025A000920002F1844202F584021360FEF7F8FE05
:1025B0000746022696FAA6F36048226896FAA6F322
:1025C000B3FA83F303F01F0322FA03F3DB0705D406
:1025D000FEF7E6FEC01B0228ECD999E70368F82253
:1025E00092FAA2F2B2FA82F2696923F0F80301FAD0
:1025F00002F21343036020E093FAA3F3B3FA83F3E8
:102600009B0003F1844303F584031A60FEF7C8FEC0
:102610000746022696FAA6F3226896FAA6F3B3FABC
:1026200083F303F01F0322FA03F3D90705D5FEF75E
:10263000B7FEC01B0228EDD96AE72B681A0746D5FA
:10264000AA693E4C01233E4912B393FAA3F2B2FAAF
:1026500082F241F82230FEF7A3FE0746022696FAE0
:10266000A6F396FAA6F3626A96FAA6F3B3FA83F390
:1026700003F01F0322FA03F3DB0705D4FEF790FEF5
:10268000C01B0228EBD943E70120FEF78FFE1EE0B6
:1026900093FAA3F3B3FA83F341F82320FEF780FE05
:1026A0000746022696FAA6F396FAA6F3626A96FA07
:1026B000A6F3B3FA83F303F01F0322FA03F3D80758
:1026C00005D5FEF76DFEC01B0228EBD920E72B686D
:1026D000590704D4EA69002A40F08180D8E0174CF9
:1026E000184EE36943F08053E361E36903F08053DC
:1026F0000193019B336843F480733360FEF750FE0F
:1027000007463368DA0505D4FEF74AFEC01B642885
:10271000F7D9FDE6EB68012B1CD0ABB9236A022682
:1027200023F001032362236A374623F00403236264
:10273000FEF736FE41F28839804648E0001002403C
:102740008004424200700040052B236A06D143F00A
:1027500004032362236A43F0010305E023F001032D
:102760002362236A23F004032362FEF719FE022684
:102770008146B04641F2883796FAA6F396FAA6F358
:102780000BB1226A00E0626A98FAA8F3B3FA83F305
:1027900003F01F0322FA03F3DB079BD4FEF700FECE
:1027A000C9EB0000B842E7D9B2E6626A97FAA7F32C
:1027B000B3FA83F303F01F0322FA03F3D80789D592
:1027C000FEF7EEFDC8EB000048453FF6A1AE96FAD5
:1027D000A6F396FAA6F3002BE7D0226AE6E7474C69
:1027E000636803F00C03082B3FF454AE022A4FF049
:1027F00080735CD193FAA3F3B3FA83F39B0003F1E4
:10280000844303F5840300221A60FEF7C9FD804665
:102810004FF0007696FAA6F3384F226896FAA6F3A0
:10282000B3FA83F303F01F0322FA03F3D90731D479
:102830002E6AB6F5803F05D1796821F40030A96889
:102840000143796063686A6A23F474133243134363
:1028500063604FF0807393FAA3F3B3FA83F39B00A2
:1028600003F1844303F5840301221A60FEF798FD07
:1028700006464FF0007595FAA5F3226895FAA5F380
:10288000B3FA83F303F01F0322FA03F3DA0708D540
:1028900000202FE0FEF784FDC8EB00000228B9D924
:1028A00036E6FEF77DFD801B0228E4D930E693FA78
:1028B000A3F3B3FA83F39B0003F1844303F584038A
:1028C00000221A60FEF76CFD06464FF0007595FA7F
:1028D000A5F3226895FAA5F3B3FA83F303F01F0377
:1028E00022FA03F3DB07D3D5FEF75AFD801B02283B
:1028F000EDD90DE603B0BDE8F08300BF0010024043
:102900001F4B70B503F110052E4686B002AC22466F
:1029100018685968083303C2AB421446F7D13388AC
:10292000184CADF80430606800F00C03082B24D17B
:102930004FF4701393FAA3F3B3FA83F300F4701215
:1029400022FA03F306AA134413F8101CC30311D58B
:1029500062684FF4003393FAA3F3B3FA83F002F4FE
:102960000033C34006AA134413F8140C064BB3FB00
:10297000F0F000E00548484300E0034806B070BDB1
:10298000987A00080010024000127A0000093D0009
:10299000544A2DE9F0411368064603F007038B42C1
:1029A0000D460AD331688C0714D54F48436823F08D
:1029B000F002B368134343600CE0136823F007038D
:1029C0000B431360136803F007039942EAD0012018
:1029D000BDE8F081C80706D4424A136803F0070334
:1029E0009D424AD353E072683F4C012A02D14FF412
:1029F000003304E0022A0CBF4FF00073022393FA65
:102A0000A3F1216893FAA3F3B3FA83F303F01F034E
:102A100021FA03F3D907DAD5636841F2883823F045
:102A200003031A436260FEF7BBFC73680746012B81
:102A30000CD1636803F00C03042BCDD0FEF7B0FC7F
:102A4000C01B4045F5D90320BDE8F081022B0FD112
:102A5000636803F00C03082BBED0FEF7A1FCC01B7B
:102A60004045F5D9EFE7FEF79BFCC01B4045EAD88F
:102A7000636813F00C0FF6D1AEE7136823F0070379
:102A80002B431360136803F007039D429FD1316805
:102A9000154C11F0040F05D0636823F4E062F3686D
:102AA000134363600B0706D56368326923F46053F0
:102AB00043EAC2036360FFF723FF6368F02292FAE0
:102AC000A2F2B2FA82F203F0F003D340074AD35CD9
:102AD000D840074B18600020FEF736FC0020BDE808
:102AE000F08100BF0020024000100240EE7A000892
:102AF0005C000020014B1868704700BF5C0000209C
:102B0000084B4FF4E0625B6892FAA2F2B2FA82F2EA
:102B100003F4E063D340044AD35C044A1068D8400D
:102B2000704700BF00100240FE7A00085C000020E1
:102B3000084B4FF460525B6892FAA2F2B2FA82F24A
:102B400003F46053D340044AD35C044A1068D8406D
:102B5000704700BF00100240FE7A00085C000020B1
:102B600003682DE9F743DC07054664D53E4C3F4E2C
:102B7000E36943F08053E361E36903F08053019319
:102B8000019B336843F480733360FEF709FC07460A
:102B90003368D80506D4FEF703FCC01B6428F7D9B8
:102BA00003205DE0236A304813F4407306D1236AA2
:102BB00023F440726B68134323623CE06A6802F4BA
:102BC00040729342F3D0016A4FF4803321F440778E
:102BD00093FAA3F2B2FA82F2254E4FF0010E46F8B4
:102BE00022E093FAA3F3B3FA83F30022C90746F86D
:102BF00023200762DBD5FEF7D3FB0226804637464B
:102C000041F2883996FAA6F396FAA6F30BB1226A36
:102C100000E0626A97FAA7F3B3FA83F303F01F03A5
:102C200022FA03F3DA07C2D4FEF7BAFBC8EB0000BE
:102C30004845E7D9B4E72868830706D50A494B68B1
:102C400023F44042AB6813434B6010F0100007D0F0
:102C5000054900204B6823F48002EB6813434B6066
:102C600003B0BDE8F08300BF0010024000700040D8
:102C70000004424210B50446002834D090F8513088
:102C80000BB901F005FCA168606802230843E16804
:102C900084F85130084321692368084361691A6840
:102CA0000843E16922F040020843216A1A600843A0
:102CB000A269A16A084302F4007101431960120C71
:102CC000616A02F004020A435A60E26A00201A6153
:102CD000DA6922F40062DA61044B6065187001233E
:102CE00084F8513010BD012010BD00BFC005002088
:102CF000036A70B523F001030362036A42688469C2
:102D00000D6824F07304254323F002048B682343E9
:102D10000A4CA0420BD1CC6823F0080323434E6930
:102D20008C6922F44072344323F00403224342604E
:102D30004A6885614263036270BD00BF002C014098
:102D4000036A30B523F480730362036A4268C4697E
:102D50000D6824F073042C438D6823F4007343EA58
:102D600005230C4DA8420ED1CD6823F4006343EA3D
:102D700005234D6922F4405242EA05128D6923F47D
:102D8000806342EA051242604A68C461C26303621A
:102D900030BD00BF002C0140036A30B523F48053DE
:102DA0000362036A4468C2690D6822F4E64242EA9B
:102DB00005228D6823F4005343EA0533064DA842EB
:102DC00002BF4D6924F4804444EA85144460C26122
:102DD0004A680264036230BD002C01400368002091
:102DE000DA6842F00102DA601A6842F001021A6001
:102DF0007047704790F8383070B5012B4FF00203E0
:102E000000F0B08080F839300368012280F8382063
:102E10009A6822F47F4222F077029A600A68402A78
:102E200077D018D8102A00F08B8008D8002A40F0FC
:102E300093809A6822F0700242F007028BE0202A09
:102E400000F08480302A40F087809A6822F0700277
:102E500042F037027FE0702A35D01BD8502A41D08B
:102E6000602A79D11C6A4D6824F01004CE681C6277
:102E700099691A6A21F4704122F0A00242EA05120F
:102E800041EA063199611A629A6822F0700242F0B2
:102E9000670260E0B2F5805F11D0B2F5005F5BD1F0
:102EA0009C688D684A6824F47F44C9682A43224399
:102EB00042EA01229A609A6842F480424BE09A68A2
:102EC00022F0070247E09C688D684A6824F47F443A
:102ED000C9682A43224342EA01229A609A6842F072
:102EE000770238E01A6A1C6A4D6824F00104CE6843
:102EF0001C62996922F00A0221F0F0012A4341EA9A
:102F0000061199611A629A6822F0700242F0570223
:102F100021E01A6A1C6A4D6824F00104CE681C6224
:102F2000996922F00A0221F0F0012A4341EA0611D0
:102F300099611A629A6822F0700242F047020AE030
:102F40009A6822F0700242F0170204E09A6822F0B8
:102F5000700242F027029A60012380F83930002382
:102F600080F83830184670BD70477047704770471A
:102F7000036810B51A690446910714D5DA689207F8
:102F800011D56FF002021A619B6901229B0702763C
:102F900002D0FFF7EAFF04E0FFF7E6FF2046FFF765
:102FA000E5FF0023237623681A69500716D5DA68EF
:102FB000510713D56FF004021A619B69022213F4C2
:102FC000407F2276204602D0FFF7CFFF04E0FFF7D4
:102FD000CBFF2046FFF7CAFF0023237623681A6938
:102FE000120715D5DA68100712D56FF008021A61BA
:102FF000DB69042299072276204602D0FFF7B5FF4D
:1030000004E0FFF7B1FF2046FFF7B0FF002323766F
:1030100023681A69D20616D5DA68D00613D56FF080
:1030200010021A61DB69082213F4407F22762046E1
:1030300002D0FFF79AFF04E0FFF796FF2046FFF764
:1030400095FF0023237623681A69D10708D5DA682B
:10305000D20705D56FF001021A61204600F076FE16
:1030600023681A69100608D5DA68110605D56FF0CD
:1030700080021A61204600F037F923681A69520667
:1030800008D5DA68500605D56FF040021A6120466F
:10309000FFF76DFF23681A6991060AD5DA68920670
:1030A00007D56FF020022046BDE810401A6100F0FD
:1030B0001AB910BD184A036890420AD0B0F1804F87
:1030C00007D0A2F59432904203D002F5806290427C
:1030D00015D14A6823F0700313430F4A90420AD077
:1030E000B0F1804F07D0A2F59432904203D002F5A0
:1030F0008062904203D1CA6823F440731343036093
:103100008B68C3620B688362034B984204BF0B69F0
:103110000363012343617047002C014010B504464E
:10312000A0B190F8393003F0FF021BB980F83820C5
:1031300001F0D8F9022384F839302068211DFFF707
:10314000B9FF012384F83930002010BD012010BDE3
:1031500010B50446A0B190F8393003F0FF021BB956
:1031600080F83820FFF745FE022384F839302068C4
:10317000211DFFF79FFF012384F83930002010BD87
:10318000012010BD036A30B523F010030362036A07
:10319000426884690D6824F4E64444EA05248D6895
:1031A00023F0200343EA05130B4DA8420ED1CD684E
:1031B00023F0800343EA05134D6922F4406242EA9A
:1031C00085028D6923F0400342EA850242604A6825
:1031D00084618263036230BD002C014038B590F8F1
:1031E00038300446012B0D464FF0020058D0012321
:1031F00084F8383084F839000C2A4BD8DFE802F024
:10320000074A4A4A174A4A4A294A4A4A390020681C
:10321000FFF76EFD23689A6942F008029A619A6985
:1032200022F004029A6199692A690A430FE0206832
:10323000FFF7A8FF236809699A6942F400629A615E
:103240009A6922F480629A619A6942EA01229A613B
:1032500020E02068FFF774FD2368DA6942F0080275
:10326000DA61DA6922F00402DA61D9692A690A436B
:103270000FE02068FFF790FD23680969DA6942F4DE
:103280000062DA61DA6922F48062DA61DA6942EABC
:103290000122DA610123002084F8393084F83800F3
:1032A00038BD90F8383010B5012B4FF0020318D01C
:1032B00080F8393003685A6822F070025A605C68FE
:1032C0000A6822435A609A6822F080029A609C68D9
:1032D0004A6822439A60012380F83930002380F83D
:1032E0003830184610BD7047704700002DE9F04790
:1032F000066881683369814623F44052C368192403
:10330000134333610369F26819434369194322F493
:10331000B05323F00C030B43F360736923F4407242
:103320008369134373613D4B9E4231D1FFF700FC2B
:103330006043D9F804704FF06408BF00B0FBF7F7A2
:10334000FFF7F6FB6043D9F80450B7FBF8F7AD0080
:10335000B0FBF5F5FFF7ECFB6043D9F804303F0113
:103360009B00B0FBF3F0B0FBF8F008FB1055FFF743
:10337000DFFB2D013235B5FBF8F56043D9F80410B9
:1033800005F0F0058900B0FBF1FAFFF7D1FB30E062
:10339000FFF7B6FB6043D9F804704FF06408BF0034
:1033A000B0FBF7F7FFF7ACFB6043D9F80450B7FB6D
:1033B000F8F7AD00B0FBF5F5FFF7A2FB6043D9F8D5
:1033C00004303F019B00B0FBF3F0B0FBF8F008FBCA
:1033D0001055FFF795FB2D013235B5FBF8F560432D
:1033E000D9F8041005F0F0058900B0FBF1FAFFF7F9
:1033F00087FB4443D9F804008000B4FBF0F0B0FB35
:10340000F8F008FB10A212013232B2FBF8F303F01D
:103410000F032B441F44B760BDE8F087003801401C
:10342000F8B504460E461546FDF7BAFF0746226872
:10343000136836EA030321D06B1CF9D0C5B92368A1
:103440000320DA6822F08002DA60DA6822F02002D3
:10345000DA60DA6822F48072DA605A6922F00102D6
:103460005A61012384F83930002384F83830F8BDDC
:10347000FDF796FFC01B8542D9D2E0E70020F8BDDA
:1034800010B5044630B390F8393003F0FF021BB991
:1034900080F8382001F088F82268022384F8393057
:1034A000D368204623F40053D360FFF71FFF23683F
:1034B00000201A6922F490421A615A6922F02A0205
:1034C0005A61DA6842F40052DA600123E06384F85A
:1034D000393010BD012010BD70B50D4690F839107F
:1034E0000446C9B201291E4601D022294ED1002D21
:1034F0004AD0002A48D094F83830012B46D0012316
:1035000084F838300023E36394F83930A284222B06
:103510000CBF3223122384F83930E284E28C02B3E8
:10352000A368013AB3F5805FE2844FF08001324630
:1035300020460DD1FFF774FF08B1032070BD2B8822
:103540002268C3F308035360236943B90235E5E7F2
:10355000FFF766FF0028F0D123682A785A6001350A
:10356000DCE7324640212046FFF75AFF0028E4D12D
:1035700094F83930322B0CBF2223012384F83930E0
:10358000002384F8383070BD012070BD022070BD6A
:1035900090F83930DBB2012B01D0122B28D129B39E
:1035A00022B390F83830012B22D0012380F8383034
:1035B0000023C3638285C28590F8392080F83830B3
:1035C000122A03680CBF3222222280F83920DA68DE
:1035D000816242F48072DA605A69002042F001028E
:1035E0005A61DA6842F02002DA60704701207047C1
:1035F0000220704770477047026813B5116804468F
:10360000C907D36805D5DB0542BFC36B43F001038F
:10361000C36311685369880703F0010304D51BB124
:10362000E16B41F00401E1631168490704D51BB166
:10363000E16B41F00201E1631168080704D51BB199
:10364000E36B43F00803E3631168D368890642D54E
:10365000980640D594F8393003F0EF03222B3AD185
:10366000A3682169B3F5805FA36A0BD1526821B9C1
:10367000C2F3080223F8022B02E0D2B223F8012B96
:10368000A3620AE019B9591CA162526804E05268A9
:10369000591CA16202F07F021A70E38D013B9BB2BC
:1036A000E385C3B923682046DA6822F02002DA6095
:1036B00094F83920322A17BFDA68122322F4807274
:1036C000DA601FBF5A6922F001025A61012384F8AF
:1036D000393000F053F823681968DA68090628D5EC
:1036E000100626D594F8392002F0DF02122A20D1E4
:1036F000A268B2F5805F226A0AD11188C1F308017D
:103700005960216909B9023200E00132226203E006
:10371000511C216212785A60E28C013A92B2E28422
:103720003AB9DA6822F08002DA60DA6842F04002E0
:10373000DA601968DA68490610D552060ED5DA68DB
:10374000204622F04002DA6094F83930322B0CBF68
:103750002223012384F83930FFF74CFFE36B5BB180
:10376000236820461A6801925B680193019B01233C
:1037700084F83930FFF73FFF02B010BD08B502688A
:10378000084B9A420DD14FF47A730122064907483B
:10379000FFF7A2FEBDE80840012203490348FFF7F6
:1037A000F7BE08BD00380140E8060020F007002001
:1037B0002DE9F04FC64BC74EC74DC84AC84FB3B0EE
:1037C000002456F824B052F8241043F824B055F8D9
:1037D000240010921393FDF7A9F9C24B814643F8D8
:1037E0002400C14BDFF8EC8253F82410FDF79EF95A
:1037F00001464846FDF756FB8246BC4BBC4943F8A0
:10380000240057F8240041F824005946FDF78CF9AC
:103810005146FDF793FA5946FDF788F9514646F8A7
:1038200024004FF07E50FDF77FF94946FDF786FAF8
:1038300045F824000134072C109A139BC1D1D8F805
:103840000030DFF80093D8F80440D8F808B0C9F881
:1038500000301093DFF8F0A2A64BCAF800B01C604D
:10386000D8F80C00A449FDF761F9A449FDF71AFB4B
:10387000A349A44F0860A449D8F810000E6839691C
:10388000FDF752F93146FDF70DFBA04D796928602F
:10389000D8F81400FDF748F93146FDF703FB9C4BBF
:1038A000B9691860D8F81800FDF73EF93146FDF700
:1038B000F9FA984B1860109B1846FCF7B5FDCDE956
:1038C00010015846FCF7B0FD02460B46FCF700FE1F
:1038D000DDE9102306460F4610461946FCF7F8FDB1
:1038E00002460B4630463946FCF740FC03F0AEFF7B
:1038F00006460F462046FCF797FD32463B46FCF74E
:1039000011FF03F011FE6CA3D3E90023FCF7E0FDE7
:10391000FDF7B6F8804C2060D9F8000000F10040B7
:10392000FCF782FD734B064618680F46FCF77CFDDA
:103930008046DAF800008946FCF776FD424682466A
:103940008B464B4640464946FCF7C2FD52468046F0
:1039500089465B4650465946FCF7BAFD02460B467F
:1039600040464946FCF702FC03F070FF02460B4656
:1039700030463946FCF7D6FE03F0D6FD674B0022F1
:103980001A6006460F4620686549FDF7D7F9FDF72E
:1039900025FBFCF737FD0022624BFCF7C3FEFDF769
:1039A0006FF845A3D3E900238046206039463046AE
:1039B000FCF78EFDFDF764F85949FDF7BFF9FDF7F7
:1039C0000DFBFCF71FFD0022564BFCF7ABFEFDF78D
:1039D00057F8554B109018602868FCF725FD38A360
:1039E000D3E90023FCF774FD82468B464F4B1868E1
:1039F000FCF71AFD52465B46FCF7B8FB0022494B28
:103A0000FCF766FDFDF714F8FCF7FCFC0022454BC3
:103A1000FCF788FEFDF734F8454B814618603C4BB7
:103A20001868FCF701FD26A3D3E90023FCF750FD3D
:103A300005460E463F4B1868FCF7F6FC2A4633460F
:103A4000FCF794FB0022374BFCF742FDFCF7F0FF3C
:103A5000FCF7D8FC0022334BFCF764FEFDF710F8AE
:103A6000354B139018602B4B1868FCF7DDFC16A340
:103A7000D3E90023FCF72CFD00222A4BCDE91401E9
:103A8000FCF726FDFCF7D4FFFCF7BCFC0022254B1D
:103A9000FCF748FE294BCDE916011868FCF7C4FC79
:103AA00002460B46DDE91601FCF760FBFCF7E8FF78
:103AB000234B0746186049E0EE3D5C72DCA54C40A4
:103AC0007B14AE47E17A843FEC51B81E85EBA13FF1
:103AD000A40900202C06002008000020240000205B
:103AE000E8050020B0080020400000202C0700203E
:103AF0009C0700209807002000F041460000AA43E0
:103B00004C070020C805002004000020AC0800205D
:103B100054070020D4090020A00600202807002018
:103B20000000204100002440CC0900202006002095
:103B3000D00900204C060020E8070020C405002022
:103B4000CC0800209C060020C80900206E4B186895
:103B5000FCF76AFC52465B46FCF708FB00226B4B05
:103B6000FCF7B6FCFCF764FFFCF74CFC0022674B4B
:103B7000FCF7D8FDFCF784FF654B04461860654BE5
:103B80001868FCF751FC2A463346FCF7EFFA00228E
:103B90005E4BFCF79DFCFCF74BFFFCF733FC00226F
:103BA0005A4BFCF7BFFDFCF76BFF5B4B05461860FB
:103BB0005A4B1868FCF738FCDDE91423FCF7D6FAF9
:103BC0000022524BFCF784FCFCF732FFFCF71AFC96
:103BD00000224E4BFCF7A6FDFCF752FF504B064669
:103BE0001860504BD3F800A05046FCF71DFC02466D
:103BF0000B4600204C49FCF7B7FACDE916014046C8
:103C0000FCF712FCCDE9140151464846FDF796F841
:103C1000FCF70AFCDDE9142380468946DDE916013C
:103C2000FCF756FC02460B4640464946FCF79EFA16
:103C3000FCF726FF3D4B834618601098FCF7F4FB19
:103C4000CDE9100151461398FDF778F8FCF7ECFB2D
:103C5000DDE9102380468946DDE91601FCF738FCD2
:103C600002460B4640464946FCF780FAFCF708FF3F
:103C70002F4B804618602F4B1F602F4BC3F800B0AE
:103C80002E4B18602E4B07F100401F601E4B1C602E
:103C9000204B1D60214B1E60FCF7C6FBCDE90E01D9
:103CA0004046FCF7C1FBCDE90C015846FCF7BCFBD4
:103CB000CDE90A013046FCF7B7FBCDE908012846FB
:103CC000FCF7B2FBCDE906012046FCF7ADFB002274
:103CD0000023CDE90401CDE90223DDE910341949BF
:103CE0008DE81800DDE9142319A800F06BFD19A870
:103CF000FCF72EFA4FF47A7382B219A91248FFF733
:103D0000EBFB33B0BDE8F08FE40500200000244059
:103D10005807002028060020E40600205006002056
:103D2000EC070020000000200000F03F6C0800209D
:103D30003008002050070020200600204C060020FC
:103D4000C4050020AA7A0008F00700200368F7B530
:103D5000B3F1804F07D137484FF4005103B0BDE8AD
:103D6000F040FDF7EDBF344A934260D1334B3B2224
:103D70001A7000225A704FF47A74009401232F4A6B
:103D8000D0212F48FEF7DEF90028F6D14FF47A74DF
:103D900000940E232B4AD0212948FEF76FFA002801
:103DA000F6D10446284F274D2B1928575B78264E0D
:103DB00043EA0020FCF76EFF47F8140002340E2C93
:103DC000F2D1224600211F4800F0F4FC1F4A13786C
:103DD0000133DBB213701378092B0DD81C4D00246E
:103DE00055F8240056F82410FCF7A0FE45F82400EE
:103DF0000134072CF4D11AE00A231370154B1A78FA
:103E00001D4602F0FF046AB9134E114F57F8240003
:103E10001249FDF747F846F824000134072CF5D184
:103E200001232B7003B0BDE8F040FFF7C1BC03B025
:103E3000F0BD00BF00100140000400404807002012
:103E4000EC06002054060020E8050020480600206B
:103E50000406002024060020C805002000002041A0
:103E600010B54FF4803394B001220B93002102244B
:103E700012930AA84FF4E0130A920C910E92119437
:103E80001393FEF7DDFA00B1FEE70F2305930790C9
:103E90004FF480630990214605A806940893FEF725
:103EA00077FD00B1FEE74FF4004301A801940393AE
:103EB000FEF756FE044600B1FEE7FEF71BFE4FF488
:103EC0007A73B0FBF3F0FDF7E9FC0420FDF7FCFC8E
:103ED000224621464FF0FF30FDF7A0FC14B010BD84
:103EE00080B5964C94B0FDF741FAFFF7B9FFA3698E
:103EF000002243F01003A361A3694FF4005103F0C3
:103F000010030393039BA3698D4843F02003A3612F
:103F1000A369012503F020030493049BA3690226EF
:103F200043F00403A361A36903F004030593059B15
:103F3000A36943F00803A361A36903F00803069390
:103F4000069BFDF7F9FE4FF400530DA97C480D9335
:103F50000E951096FDF718FE636900222B436361EE
:103F6000636911462B4002930B20029BFDF756FC20
:103F70000B20FDF787FC734C734B4FF460222360DA
:103F80004FF48073A36020460023E5606361E26123
:103F900063602661FDF79AFB00B1FEE76B4B109062
:103FA00011900E900F900DA920460D93FDF744FB44
:103FB00000B1FEE70990072309A920460A950B9353
:103FC000FDF77AFA00B1FEE709A9204609950A969D
:103FD000FDF772FA00B1FEE75D4B5E4A5E4ED860B7
:103FE00083E8440058614FF480429861D8611862B8
:103FF00018469A601A61FEF73BF800B1FEE7574B8E
:1040000057494FF4827283E806004FF400729A61B8
:1040100008229860D86018615861DA6118625862A5
:1040200098620A221846DA62FEF724FE00B1FEE723
:1040300041F61F454B4C4C4BA06084E8280042F2EF
:104040000F73206160612046E360FFF767F800B1FD
:10405000FEE74FF480530DA920460D93FEF7CAFEEC
:1040600000B1FEE709900A9009A92046FFF719F967
:1040700000B1FEE73D4B4FF0804283E8240041F25F
:104080008732986018611846DA60FFF747F800B188
:10409000FEE74FF4805709A934480997FEF7AAFEB6
:1040A00000B1FEE73148FFF753F800B1FEE7079093
:1040B000089007A92D48FFF7F4F800B1FEE7602348
:1040C0000E900F90119008220DA928480D93FFF72C
:1040D00085F800B1FEE70C220DA92448FFF77EF811
:1040E000044600B1FEE7214800F040FA2048214B89
:1040F0004FF4E1360C2580E848008460C460046118
:1041000045618461C461FFF7BBF900B1FEE741F688
:104110001F43194C194AA06084E80C0040F2E733B1
:1041200020612046E360FEF7F9FF00B1FEE70DA92C
:1041300020460D97FEF75EFE10B3FEE7001002402A
:1041400000100140B8070020002401400002800058
:10415000EC06002000540040801A0600D008002021
:104160000030014070080020002C01402809002088
:10417000F0070020003801405C07002000040040E8
:1041800009900A9009A92046FFF78BF800B1FEE7D5
:104190005C4B5D4A9860D86018619861D861184698
:1041A00083E844005D61FFF76BF900B1FEE7574B10
:1041B0006B221A7000225A704FF47A76534C009694
:1041C00002232246D0215248FDF7BCFF05460028B5
:1041D000F4D1C820FDF7EAF86A23657023704FF424
:1041E0007A754A4C009502232246D0214848FDF7B3
:1041F000A9FF0028F5D137232370022363704FF401
:104200007A75424C009502232246D0214048FDF7A2
:1042100099FF0028F5D124232370142363704FF4F1
:104220007A753A4C009502232246D0213848FDF792
:1042300089FF0028F5D119232370132363704FF4ED
:104240007A75324C009502232246D0213048FDF782
:1042500079FF0028F5D11B23237060704FF47A7525
:104260002A4C009502232246D0212948FDF76AFFF7
:104270000028F5D11C23237060704FF47A75234C0D
:10428000009502232246D0212148FDF75BFF00283C
:10429000F5D11A23237060704FF47A751B4C00958A
:1042A00002232246D0211A48FDF74CFF0028F5D101
:1042B00075232370012363704FF47A7400940123F3
:1042C000124AD0211248FDF73DFF0028F6D14FF4E5
:1042D0007A74009402230F4AD0210D48FDF7CEFFD7
:1042E0000028F6D10C48FEF779FD0028FAD10B48DA
:1042F000FEF774FD0028FAD10948FEF76FFD00288B
:10430000FAD1FEE76409002000440040480700207D
:10431000EC0600204A070020700800202809002031
:104320005C070020FEE70000244B07B59A690320D4
:1043300042F001029A619B6903F001030193019B22
:10434000FDF75AFA002211466FF00B00FDF766FAEE
:10435000002211466FF00A00FDF760FA00221146B4
:104360006FF00900FDF75AFA002211466FF00400C1
:10437000FDF754FA002211466FF00300FDF74EFAE4
:10438000002211466FF00100FDF748FA00221146A5
:104390004FF0FF30FDF742FA002211460520FDF7ED
:1043A0003DFA0520FDF76EFA054A536823F0E063F5
:1043B00043F08063536003B05DF804FB00100240DB
:1043C0000000014030B502681C4B87B09A42054698
:1043D00031D103F56C439A69194C42F400729A6129
:1043E0009B69184803F400730193019B02A90323FE
:1043F00002930393FDF7C8FB134B8022E2604FF456
:1044000080722360226100234FF480622046636043
:10441000A3606261A361E361FDF767FA08B1FFF78A
:1044200081FF00222C62122011466562FDF7F6F929
:104430001220FDF727FA07B030BD00BF002401406D
:104440003408002000080140080002407FB50268DF
:104450000C4B9A4213D1C02302931223039302A957
:10446000032309480593FDF78FFB084BDA6942F4F3
:104470000012DA61DB6903F400130193019B07B0BA
:104480005DF804FB00540040000C014000100240A5
:104490007FB50268114B9A421DD103F560439A69BA
:1044A00002A942F480529A619B690D4803F480533B
:1044B0000193019BA02302930223039303230593FB
:1044C000FDF762FB4023029302A9002304480393F3
:1044D0000493FDF759FB07B05DF804FB0030014081
:1044E000000801401FB503681D4A93420AD11D4BC5
:1044F0009A6942F400629A619B6903F40063019334
:10450000019B29E0B3F1804F11D103F50433DA693F
:104510001C2042F00102DA61DB69002203F0010392
:1045200002931146029BFDF779F91C2012E00E4A16
:10453000934211D10B4B1D20DA6942F00202DA617D
:10454000DB69002203F0020303931146039BFDF78E
:1045500065F91D20FDF796F905B05DF804FB00BF75
:10456000002C014000100240000400401FB5036809
:10457000B3F1804F10D14FF440630093694602239A
:10458000074801930393FDF7FFFA064A536823F4A3
:10459000407343F40073536005B05DF804FB00BF43
:1045A000000C01400000014010B503682A4A86B0A3
:1045B000934225D1294B02A99A69294842F48042A5
:1045C0009A619B69002403F480430093009B4FF49D
:1045D000007302930223039303230593FDF7D4FA98
:1045E0004FF4806302A91E48029303940494FDF7DC
:1045F000CBFA252022462146FDF710F9252026E09A
:10460000184A934225D1154B02A9DA69144842F49D
:104610000032DA61DB69002403F400330193019B6B
:10462000042302930223039303230593FDF7ACFABB
:1046300008230DEB03010A48029303940494FDF749
:10464000A3FA262022462146FDF7E8F82620FDF7AA
:1046500019F906B010BD00BF00380140001002403B
:1046600000080140004400407047FEE7FEE7FEE717
:10467000FEE770477047704708B5FCF789FEBDE854
:104680000840FDF72EB970470148FDF753B900BF48
:10469000340800200148FCF798BE00BFB80700208E
:1046A0000148FEF765BC00BF280900200148FEF75D
:1046B0005FBC00BF5C0700200148FEF79DBF00BF44
:1046C000F00700200148FEF797BF00BF64090020F3
:1046D0000F4B1A6842F001021A6059680D4A0A40ED
:1046E0005A601A6822F0847222F480321A601A68C2
:1046F00022F480221A605A6822F4FE025A604FF4B3
:104700001F029A60044B4FF000629A60704700BF2E
:10471000001002400000FFF800ED00E0002103E07F
:104720000B4B5B58435004310A480B4B42189A42DA
:10473000F6D30A4A02E0002342F8043B084B9A42AF
:10474000F9D3FFF7C5FF00F00FF8FFF7C9FB70477B
:10475000D07C000800000020A0050020A00500205B
:10476000100A0020FEE700000E4B70B51E460E4CEE
:104770000025E41AA410A54204D056F82530984725
:104780000135F8E703F07AF9084B094C1E46E41AA4
:10479000A4100025A54204D056F8253098470135CD
:1047A000F8E770BDC87C0008C87C0008C87C000819
:1047B000CC7C000803460244934202D003F8011B5C
:1047C000FAE770470EB400B54FF402719CB0ADF833
:1047D00014106FF00041049107914FF6FF711DAB6B
:1047E00002900690084853F8042BADF816100068A4
:1047F00002A9019300F00AF8029B00221A701CB073
:104800005DF804EB03B07047500100202DE9F04F34
:10481000BDB08B4609921F46814601F0D5FD036865
:1048200018461193FBF794FCBBF80C300A9019065C
:1048300015D5DBF8103093B94021484601F0D0FD82
:10484000CBF80000CBF8100030B90C23C9F80030C9
:104850004FF0FF3000F08BBF4023CBF81430002323
:104860002CAC1F942193209308930C930D931393D6
:1048700012930E93099D2B4613F8012B1AB1252A8A
:1048800001D01D46F7E7099BEE1A17D084E84800CF
:10489000219B33442193209B0133072B209301DC80
:1048A000083408E01FAA5946484602F0B5FA002825
:1048B00040F022862CAC0E9B33440E932B78002BB9
:1048C00000F0138600226B1C114615468DF85F2000
:1048D0004FF0FF3A0B920A205E1C1B780996069354
:1048E000069B203B582B00F25982DFE813F05C0056
:1048F000570257026B0057025702570257025702DE
:1049000057026E005900570278007B0057029F0043
:10491000A200A200A200A200A200A200A200A20087
:10492000A200570257025702570257025702570276
:10493000570257025702D200FE005702FE005702EC
:10494000570257025702B500570257024301570258
:1049500057025702570257028A0157025702660050
:10496000570257025702570257025702570257027F
:1049700057025702C9006100FE00FE00FE00B800A9
:10498000610057025702BB00570225014501600133
:10499000C6005702710157028C0157025702A40149
:1049A00001222B2102E009B901222021099B93E772
:1049B000002A73D08DF85F1070E00AB18DF85F1097
:1049C000A94B3CE145F00105F0E73E683B1D002E98
:1049D0000B9601DB1F46E9E71F4676420B9645F032
:1049E0000405E3E7099B5E1C1B782A2B069301D084
:1049F00000230AE0D7F800A03B1DBAF1000F1F46C4
:104A00000996D3DA4FF0FF3AD0E70996069E303E7A
:104A1000092E08D800FB0363099EB6461EF8016BF9
:104A200006967646F1E743EAE37A59E745F08005D2
:104A3000BCE700230B93069B0B9E303B00FB063329
:104A40000B93099B1E4616F8013B0693069B09969D
:104A5000303B092BEFD943E745F00805A6E745F0C1
:104A60004005A3E7099B1B786C2B03D1099B0133FD
:104A7000099302E045F0100598E745F0200595E719
:104A80003B1D07933B6800268DF888308DF85F60EA
:104A900093E10AB18DF85F1045F01005AA0608D51C
:104AA000073727F0070707F108030793D7E90067DF
:104AB0000EE015F0100F07F1040302D007933E68D3
:104AC00005E03E6815F0400F079318BF36B2F717A0
:104AD000002E77F1000380F2E28076424FF02D0342
:104AE00067EB47078DF85F30D9E00AB18DF85F10AA
:104AF000073727F0070707F1080307933B684FF0D4
:104B0000FF320C937B680C9F0D930D9B384623F06E
:104B100000463146554BFBF775FF002840F0F68400
:104B20004FF0FF32514B38463146FBF74DFF00281E
:104B300040F0EC8400F004BE0AB18DF85F1015F06F
:104B4000200F07F1040307D00E993A68CE170846E4
:104B50003146C2E900010BE0E90606D46A0604D535
:104B60003A68BDF83810118002E03A680E99116079
:104B70001F467FE645F0100515F0200309D00737E2
:104B800027F0070707F108030793D7E90067002319
:104B900081E03A1D15F01001079205D115F0400390
:104BA00002D03E880027F2E73E68002773E03B1DF5
:104BB000079330238DF860302D4B78223E68139395
:104BC000002745F002058DF861200223069262E07D
:104BD00000263B1DB2450793D7F800808DF85F6033
:104BE0000ADB52463146404601F016FE002800F02E
:104BF000EA80C8EB000AE7E04046FBF7A9FA8246E4
:104C0000E2E045F01005AE0608D5073727F00707A4
:104C100007F108030793D7E900670AE03B1D15F089
:104C2000100F079303D1680601D53E8800E03E6867
:104C3000002701232FE00AB18DF85F100C4BA90665
:104C4000139308D5073727F0070707F108030793E1
:104C5000D7E9006710E03B1D15F0100F079309D14D
:104C60006A0607D53E8806E0267B0008FFFFEF7F37
:104C7000377B00083E680027EB070BD556EA070391
:104C800008D030238DF860309DF8183045F00205CB
:104C90008DF86130022300228DF85F2000E00123AF
:104CA000BAF1000FC0F25D8556EA070225F08001D7
:104CB00003D1BAF1000F5FD006E00D46012B25D0DD
:104CC000022B46D0294607E00D46012B22D0022BAD
:104CD0003DD02946002600270DF1B008F20842EA2F
:104CE0004772F80806F0070307461646303356EABF
:104CF000070208F8013DF1D1E80748D5302B46D02E
:104D0000302308F8013C08F1FF3840E0002F08BFCD
:104D10000A2E05D230360DF1F00808F8416D29E071
:104D20000DF1B008304639460A220023FCF77CF921
:104D3000303208F8012D0023304639460A22FCF7AC
:104D400073F906460F4656EA0703EBD112E0002638
:104D500000270DF1B008139A06F00F03D35C3A094F
:104D600008F8013D330943EA07731E46174656EA21
:104D70000703F0D129460AE03BB9EA0705D50DF152
:104D8000F008302308F8413D01E00DF1B0082CABEC
:104D900056460D46C8EB030A002716E00AB18DF807
:104DA0005F10069B002B00F0A0839DF818300026B2
:104DB0008DF888308DF85F6007974FF0010A37460D
:104DC0000DF1880801E00646374656453346B8BF20
:104DD00053460F939DF85F3013B10F9B01330F9330
:104DE00015F0020314931EBF0F9B02330F9315F0AF
:104DF0008403159339D10B9B0F9A9B1A002B1093A8
:104E000033DD109B102BA34B236018DD1023636050
:104E1000219B10332193209B0133072B209301DC2E
:104E2000083408E01FAA5946484601F0F5FF00285B
:104E300040F062832CAC109B103B1093E1E7109B79
:104E4000109A6360219B13442193209B0133072B0D
:104E5000209301DC083408E01FAA5946484601F0B7
:104E6000DBFF002840F048832CAC9DF85F30BBB1DD
:104E70000DF15F03236001236360219B01332193C4
:104E8000209B0133072B209301DC083408E01FAA84
:104E90005946484601F0C0FF002840F02D832CAC55
:104EA000149BB3B118AB236002236360219B0233D0
:104EB0002193209B0133072B209301DC083408E069
:104EC0001FAA5946484601F0A7FF002840F0148366
:104ED0002CAC159B802B39D10B9B0F9A9B1A002B66
:104EE000109333DD109B102B6B4B236018DD1023C8
:104EF0006360219B10332193209B0133072B209368
:104F000001DC083408E01FAA5946484601F084FF36
:104F1000002840F0F1822CAC109B103B1093E1E78D
:104F2000109B109A6360219B13442193209B0133B3
:104F3000072B209301DC083408E01FAA5946484695
:104F400001F06AFF002840F0D7822CACCAEB0606BD
:104F5000002E2EDD504B102E236016DD10236360D3
:104F6000219B10332193209B0133072B209301DCDD
:104F7000083408E01FAA5946484601F04DFF0028B2
:104F800040F0BA822CAC103EE4E7209B219801331C
:104F90006660072B06442196209301DC083408E064
:104FA0001FAA5946484601F037FF002840F0A48266
:104FB0002CACEB0514D4219B84E8000553442193C9
:104FC000209B0133072B209340F345821FAA5946AB
:104FD000484601F021FF002840F08E822CAC3BE2D5
:104FE000069B652B40F3AE81002200230C980D999F
:104FF000FBF7D6FC00285ED0284B236001236360BA
:10500000219B01332193209B0133072B209301DC4B
:10501000083408E01FAA5946484601F0FDFE002862
:1050200040F06A822CAC199B089A934202DBEE078F
:1050300040F11282119B0A9A23600A9B6360219BB4
:1050400013442193209B0133072B209301DC083468
:1050500008E01FAA5946484601F0DEFE002840F04D
:105060004B822CAC089B5E1E002E40F3F5810A4F4C
:105070004FF01008102E40F35981219B84E88001E5
:1050800010332193209B0133072B209308DC083435
:105090000FE000BF4A7B0008067B0008487B000841
:1050A0001FAA5946484601F0B7FE002840F0248266
:1050B0002CAC103EDEE7199B002B7CDC9F4B236061
:1050C00001236360219B01332193209B0133072B34
:1050D000209301DC083408E01FAA5946484601F035
:1050E0009BFE002840F008822CAC199B23B9089B3A
:1050F00013B9E80740F1B081119B0A9A23600A9B1B
:105100006360219B13442193209B0133072B209341
:1051100002DC04F1080308E01FAA5946484601F0E2
:105120007BFE002840F0E8812CAB199E7642002ED1
:1051300030DD834F1024102E16DD219A1F601032AF
:105140002192209A5C600132072A209201DC083308
:1051500008E01FAA5946484601F05EFE002840F0CC
:10516000CB812CAB103EE6E7754A83E84400219AD8
:105170001644209A21960132072A209201DC083336
:1051800008E01FAA5946484601F046FE002840F0B4
:10519000B3812CAB089A08995A60219AC3F8008011
:1051A0000A442192209A0132072A20923FF70EAF3B
:1051B00003F1080450E1089BBB42A8BF3B46002B0B
:1051C0001E4615DD6360219BC4F8008033442193A3
:1051D000209B0133072B209301DC083408E01FAA31
:1051E0005946484601F018FE002840F085812CAC55
:1051F000002EB4BF3E46BE1B002E30DD4FF0100A1D
:105200004F4B102E236016DD219BC4F804A01033F1
:105210002193209B0133072B209301DC083408E005
:105220001FAA5946484601F0F7FD002840F0648166
:105230002CAC103EE4E7219B66601E44209B219627
:105240000133072B209301DC083408E01FAA5946DC
:10525000484601F0E1FD002840F04E812CAC199B3E
:10526000089A4744934201DBE90717D5119B0A9A34
:1052700023600A9B6360219B13442193209B01338D
:10528000072B209301DC083408E01FAA5946484642
:1052900001F0C2FD002840F02F812CAC089B089A39
:1052A00008EB0306199BF61BD31A9E42A8BF1E46A5
:1052B000002E14DD219B276033442193209B6660E0
:1052C0000133072B209301DC083408E01FAA59465C
:1052D000484601F0A1FD002840F00E812CAC199B3E
:1052E000089A002EA2EB0303B4BF1E469E1B002E9D
:1052F00040F3B280124F4FF01008102E16DD219BA4
:1053000084E8800110332193209B0133072B2093E5
:1053100001DC083408E01FAA5946484601F07CFD2C
:10532000002840F0E9802CAC103EE6E7044B84E80E
:105330004800219B1E44219642E600BF487B00089E
:10534000067B0008089B012B01DCEA0773D50123CB
:105350006360219BC4F8008001332193209B0133BB
:10536000072B209301DC083408E01FAA5946484661
:1053700001F052FD002840F0BF802CAC119B0A9A2E
:1053800023600A9B6360219B13442193209B01337C
:10539000072B209301DC083408E01FAA5946484631
:1053A00001F03AFD002840F0A7802CAC0023002239
:1053B0000C980D99FBF7F4FA089B5E1EB8B908F13A
:1053C000010384E84800219B089A013B1344219380
:1053D000209B0133072B209334DD1FAA59464846F2
:1053E00001F01AFD002840F087802CAC2BE0002E45
:1053F00029DD8F4F4FF01008102E15DD219B84E81A
:10540000800110332193209B0133072B209301DC73
:10541000083407E01FAA5946484601F0FDFC002861
:105420006AD12CAC103EE7E7814B84E84800219B11
:105430001E442196CCE701236360219BC4F80080C1
:105440000133C4E708341BAB2360129B129A6360DC
:10545000219B1344B3E508346B070BD40E9B0B9AC6
:105460000F998A42ACBF9B185B180E93219B002BAF
:1054700035D02EE00B9B0F9A9D1A002DEEDD1026E5
:105480006C4B102D236013DD219B6660103321933C
:10549000209B0133072B209301DC083406E01FAA70
:1054A0005946484601F0B8FC30BB2CAC103DE7E74C
:1054B000219B65601D44209B21950133072B209380
:1054C000CCDD1FAA5946484601F0A6FC0028C5D0ED
:1054D00012E01FAA5946484601F09EFC60B900231D
:1054E0002093079F2CACFFF7C5B9219B23B11FAABE
:1054F0005946484601F090FCBBF80C3013F0400FC1
:105500000E9B18BF4FF0FF33184630E10C9A0D9BED
:105510000C980D99FBF776FA60B1474B474A06990C
:1055200025F080054729CCBF904698464FF0030AE6
:10553000002649E4BAF1FF3F0AD0069B23F020037E
:10554000472B07D1BAF1000F08BF4FF0010A01E065
:105550004FF0060A45F4807315930D9B1F1E0C9B9C
:10556000A8BF10970F93BDBF3B4603F100431093B4
:105570000023B8BF2D231493069B23F02007462F4A
:1055800004D0452F05D10AF1010603E05646032356
:1055900001E0564602231DAA04921AAA039219AAF0
:1055A00002928DE848000F9A109B484600F074F96B
:1055B000472F804602D1EB0740F1CF8008EB06036E
:1055C000462F089311D198F80030302B09D10022D2
:1055D00000230F981099FBF7E3F910B9C6F1010603
:1055E0001996089A199B1A440892002200230F98D2
:1055F0001099FBF7D5F908B9302202E0089B1D93FA
:1056000007E01D9B0899994203D9591C1D911A70F6
:10561000F7E71D9B472FC8EB0303089310D1199B95
:10562000DF1C01DB9A456ADA069B023B06930AE01F
:10563000067B00084A7B00081E7B0008227B0008CE
:10564000069B652B44DC199B9DF81820013B002B21
:105650001993B8BF5B428DF86C20B4BF2D222B226A
:10566000092B8DF86D201DDD0DF17B020A2093FBC7
:10567000F0F100FB1133092903F1300302F8013D79
:105680000B46F4DC303302F8013C511E0DF16E0381
:105690000DF17B0081421A460BD211F8012B03F861
:1056A000012BF7E7302213448DF86E208DF86F3010
:1056B0001CAA1BABD31A089A1293012A03EB020A05
:1056C00002DC15F0010732D00A9B00279A442EE035
:1056D000069B662B13D1199B002B07DDBAF1000F37
:1056E00001D1EE0721D50A9A134406E0BAF1000F62
:1056F00001D1ED0714D50A9B0133534415E0199BE2
:10570000089A934203DBE8070DD50A9A06E0089A47
:105710000A99002B0A4405DCC3F10103134402E09B
:10572000012302E01346672206929A46199F149BB2
:1057300013B12D238DF85F30159D0026FFF745BB73
:10574000002200230C980D99FBF734F910B12D239A
:105750008DF85F30074B084AE1E61D9B1B1A089342
:105760005DE756EA07027FF4A9AAFFF7AEBA3DB09B
:10577000BDE8F08F167B00081A7B00082DE9F74F73
:1057800003690C6980469C427FDC013C01F11407EF
:105790004FEA840E00F1140606EB0E0357F824506E
:1057A000019356F824300135B3FBF5F507EB0E09EC
:1057B000C5B34FF0000A3846B446D34650F8043B10
:1057C0009AB205FB02A21B0C4FEA124A05FB03A387
:1057D00092B2C2EB0B0BBCF800204FEA134A5A44BA
:1057E0001FFA83FBDCF800308145CBEB134303EB5E
:1057F000224392B242EA03424FEA234B4CF8042B75
:10580000DCD256F80E306BB9019B043B9E421A461F
:1058100002D3C8F8104005E01268043B002AF8D112
:10582000013CF3E7404601F01EFA00282BDB30462E
:1058300001354FF0000E57F8042B036891B2C1EB0D
:105840000E0E120C99B27144C2EB134303EB2143C9
:1058500089B24FEA234EB94541EA034340F8043B7D
:10586000E9D256F8242006EB840362B9043B9E4239
:105870001A4602D3C8F8104005E01268043B002A1B
:10588000F8D1013CF3E7284600E0002003B0BDE872
:10589000F08F0000000000002DE9F04F456A95B040
:1058A0008246219CCDE9022345B9102000F090FDED
:1058B000CAF82400456085600560C560DAF82430C8
:1058C000196859B15A68012393404A608B60504669
:1058D00000F0F2FFDAF8243000221A60039BA04A9D
:1058E000002BBDBF01232360039B0023BCBF23F01B
:1058F00000430393DDF80C80A8BF236028F0004329
:105900001B0D1B0593421DD142F20F73209A1360A9
:10591000029B43B9934A944BC8F31300002814BF69
:105920001846104600E09048229B002B00F0468568
:10593000C37813B100F1080300E0C31C229A13607E
:1059400000F03CBDDDE90245002200232046294647
:10595000FBF726F8074658B1209A01231360229BD3
:10596000002B00F01E8581481860013800F026BD2C
:1059700012AB019313AB009322462B46504601F025
:10598000EDF9C8F30A56049056B1C5F3130343F07A
:105990007F51204641F44011A6F2FF3611971DE0D9
:1059A000139B129E1E4406F23243202B0ADD029AFC
:1059B00006F21240C3F1400322FA00F008FA03F3A2
:1059C000184304E0C3F12000029B03FA00F0FAF749
:1059D00009FD0123A1F1F871013E11930022644BEE
:1059E000FAF7C2FB58A3D3E90023FAF771FD58A3D5
:1059F000D3E90023FAF7BAFB044630460D46FAF71E
:105A000001FD55A3D3E90023FAF762FD02460B46D8
:105A100020462946FAF7AAFB04460D46FBF708F88C
:105A200000228346002320462946FAF7C3FF58B1D7
:105A30005846FAF7E7FC02460B4620462946FAF795
:105A4000AFFF08B90BF1FF3BBBF1160F0DD8DDE935
:105A50000223484901EBCB01D1E90001FAF7C8FF65
:105A600030B10BF1FF3B002300E00123109300E075
:105A70001090129B9E1B731E079343BFC3F1000837
:105A8000002307934FF00008BBF1000F06DB079BD4
:105A9000CDF82CB05B440793002705E00023CBEB47
:105AA0000808CBF100070B931E9B092B28D8052B68
:105AB000C4BF043B1E931E9BC8BF0025A3F1020375
:105AC000D8BF0125032B20D8DFE803F0060E02041F
:105AD000012302E0012308E000230A931F9B002B0F
