:020000040800F2
:1000000000000520D90E0008310F0008310F00084C
:10001000310F0008310F0008310F00080000000008
:10002000000000000000000000000000310F000888
:10003000310F000800000000310F0008090200081D
:10004000310F0008310F0008310F0008310F000890
:10005000310F0008310F0008310F0008310F000880
:10006000310F0008310F0008310F0008310F000870
:10007000310F0008310F0008310F0008310F000860
:10008000310F0008310F0008310F0008310F000850
:10009000310F0008310F0008310F0008310F000840
:1000A000310F0008310F0008310F0008310F000830
:1000B000310F0008310F0008310F0008310F000820
:1000C000310F0008310F0008310F0008310F000810
:1000D000310F0008310F0008310F0008310F000800
:1000E000310F0008310F0008310F0008310F0008F0
:1000F000310F0008310F0008310F0008310F0008E0
:10010000310F0008310F0008310F0008310F0008CF
:10011000310F0008310F0008310F0008310F0008BF
:10012000310F0008310F0008310F0008310F0008AF
:10013000310F0008310F0008310F0008310F00089F
:10014000310F0008310F0008310F0008310F00088F
:10015000310F0008310F0008310F0008310F00087F
:10016000310F0008310F0008310F0008310F00086F
:10017000310F0008310F0008310F000800000000A7
:10018000310F0008310F0008310F0008310F00084F
:10019000310F0008310F0008310F0008310F00083F
:1001A000310F0008310F0008310F0008310F00082F
:1001B000310F0008310F0008310F0008310F00081F
:0801C000310F0008310F0008A7
:1001C80010B5054C237833B9044B13B10448AFF389
:1001D80000800123237010BD0400002000000000EF
:1001E800800F000808B5034B1BB103480349AFF360
:1001F800008008BD00000000800F000808000020F3
:1002080008B500F031FEBDE8084000F00CBE08B5A6
:10021800032000F0A1FD00210A466FF00B0000F05A
:10022800ADFD00210A466FF00A0000F0A7FD00218D
:100238000A466FF0090000F0A1FD00210A466FF0A0
:10024800030000F09BFD00214FF0FF300A46BDE897
:10025800084000F093BD000082B000230193019A8A
:10026800044B9A4204D8019B019B019B0133F5E79B
:1002780002B070473F420F0070B594B00024254B80
:1002880001941A6C42F080521A641B6C03F080537C
:100298000193019B204B02941A6842F440421A6071
:1002A8001B6803F440430293029B012308934FF415
:1002B800803309934FF4800302250F930426D82333
:1002C80008A811930E9510961295139500F0FAF858
:1002D80000F00CFC0F2303934FF4A053072106935F
:1002E80003A84FF4805307930495059400F0B6FAD9
:1002F80000F0E2FB094BB0FBF3F000F071FD304673
:1003080000F084FD4FF0FF302146224600F036FD14
:1003180014B070BD003802400070004040420F0029
:1003280080B58CB0002400F094FDFFF7A5FF5F4B6B
:1003380001941A6B5E4842F004021A631A6B02F0C9
:1003480004020192019A02941A6B42F080021A6325
:100358001A6B02F080020292029A03941A6B42F01E
:1003680001021A631A6B02F001020392039A0494C1
:100378001A6B42F002021A631A6B02F0020204922C
:10038800049A05941A6B42F008021A631A6B02F079
:1003980008020592059A06941A6B42F040021A6305
:1003A8001B6B4FF4005803F0400307A902260325EE
:1003B80006930B27069BCDF81C800894099400F03F
:1003C800CFFB32233A48079307A9089609940A9560
:1003D8000B9700F0C5FB86233648079307A90896B4
:1003E80009940A950B9700F0BBFB3348CDF81C80A5
:1003F80007A94FF00109089609940A950B9700F090
:10040800AFFB4CF281032C48079307A9CDF8209045
:1004180009940A9400F0A4FB4FF44073079327480B
:100428000896072307A90B934FF0400809940A95EB
:1004380000F096FB2248CDF81C8007A9CDF8209043
:1004480009940A9400F08CFB80231D48079307A9A0
:100458000894099400F084FB4FF4E8530793154877
:1004680008960A2307A90B9309940A9500F078FBCC
:100478004FF420531248079307A9089609940A9540
:100488000B9700F06DFB0C484FF48141224600F0B9
:100498005BFC0B484146224600F056FC06484CF2ED
:1004A800810100F055FCFFF7D7FEF7E7003802405E
:1004B800000802400000024000040240000C024014
:1004C800001802400368F7B50446D80703D4236828
:1004D80099076DD4B4E09D4B9A6802F00C02042A87
:1004E80007D09A6802F00C02082A0BD15B685A02FE
:1004F80008D5964B1B689B03E9D56368002BE6D1AA
:100508000120A6E1914B1A6822F480321A601A6819
:1005180022F480221A601A6822F480321A6000F0ED
:10052800ABFC0546894B1A68970306D500F0A4FC76
:10053800401B6428F6D903208BE11A6822F4803224
:100548001A606268B2F5803F03D11A6822F48022EB
:1005580005E0B2F5A02F08D11A6842F480221A608B
:100568001A6842F480321A6008E0196821F4802180
:100578001960196821F48031196062B100F07CFCBF
:100588000546724B1B689E03A1D400F075FC401B06
:100598006428F6D9CFE700F06FFC05466B4B1B6863
:1005A800980394D500F068FC401B6428F6D9C2E78C
:1005B800664B9A6812F00C0F07D09A6802F00C028A
:1005C800082A0AD15B68590207D4604B1A68920757
:1005D80017D5E268012A93D113E0E2685B4BF2B1C8
:1005E8001A6842F001021A6000F046FC0546574BB3
:1005F8001A68970705D400F03FFC401B6428F6D919
:1006080099E71A68F82191FAA1F12369B1FA81F101
:1006180022F0F8028B4013434C4A136010E01A682A
:1006280022F001021A6000F027FC0546474B1B68C0
:100638009E0705D500F020FC401B6428F6D97AE710
:1006480023681D0703D42368580767D524E0626927
:100658003E4B82B15A6F42F001025A6700F00CFC1F
:1006680005463A4B5B6F9907EDD400F005FC401B3B
:100678006428F6D95FE75A6F22F001025A6700F042
:10068800FBFB0546314B5B6F9A07DCD500F0F4FBAA
:10069800401B6428F6D94EE7002301932B4B1A6CB4
:1006A80042F080521A641B6C03F080530193019B43
:1006B800274B1A6842F480721A6000F0DDFB054689
:1006C800234B1B68DB052DD5204B1A6F22F0010246
:1006D8001A671A6F22F004021A671A6F22F00102D1
:1006E8001A6700F0C9FB0546184B1A6F97071FD405
:1006F8001A6F22F001021A67A268012A20D11A6F24
:1007080022F004021A671A6F42F001021A6700F019
:10071800B3FB05460D4B1B6F9E0725D5A269002A22
:1007280039D17BE000F0A8FB401B6428C8D902E758
:1007380000F0A2FB41F28833401B9842D4D9FAE674
:10074800052A07D11A6F42F00402DBE7003802409D
:1007580000700040196F21F004011967196F21F02A
:100768000101196742B1D2E700F086FB41F28833F4
:10077800401B9842CED9DEE600F07EFB0546364B9C
:100788001B6F9807CAD500F077FB41F28833401BEE
:100798009842F4D9CFE6304B996801F00C0108294A
:1007A8003FF4AEAE022A1A6822F080721A6043D172
:1007B80000F062FB0546284B1B68990130D447F6C8
:1007C800C07797FAA7F74FF44036B7FA87F796FA43
:1007D800A6F64FF07065B6FA86F695FAA5F5206A82
:1007E800E169A36A626AE46A01435B0841F0005167
:1007F800BA40013B0A43B340B5FA85F51A43AC4009
:10080800154B22435A601A6842F080721A6000F051
:1008180033FB0446104B1B689A0107D5002018E0EB
:1008280000F02AFB401B6428C5D984E600F024FBAD
:10083800001B6428EED97EE600F01EFB0446064B3A
:100848001B689B01EAD500F017FB001B6428F6D94A
:1008580071E603B0F0BD00BF00380240714B1A6862
:1008680002F00F02914270B504460D466BD91A6822
:1008780022F00F020A431A601B6803F00F038B4231
:1008880001D0012070BD03689E0706D5664AA1689D
:10089800906820F0F00001439160DD070BD42368D5
:1008A800580740F1B080604AE168906820F4E05051
:1008B80001439160A7E062685B4B012A196802D185
:1008C80011F4003F06E0022A02D111F0007F01E096
:1008D80011F0020FD5D0996821F003010A439A60FC
:1008E80000F0CAFA6368012B05460ED14E4B9B688F
:1008F80003F00C03042BD2D000F0BEFA41F2883387
:10090800401B9842F2D9032070BD022B0CD0464BF5
:100918009B6813F00C0F0ED1C1E700F0ADFA41F25D
:100928008833401B9842EED83F4B9B6803F00C037A
:10093800082BF2D1B3E700F09FFA41F28833401B4D
:100948009842E4D9DFE70368990706D5364AA168D3
:10095800906820F0F00001439160DA070BD4314B26
:100968001A6822F00F022A431A601B6803F00F036B
:10097800AB4286D193E762682B4B012A196802D1F2
:1009880011F4003F06E0022A02D111F0007F01E0D5
:1009980011F0020F3FF475AF996821F003010A4383
:1009A8009A6000F069FA6368012B06460DD11E4B68
:1009B8009B6803F00C03042BD1D000F05DFA41F2E0
:1009C8008833801B9842F2D99DE7022B0CD0164B36
:1009D8009B6813F00C0F0ED1C1E700F04DFA41F2FD
:1009E8008833801B98428ED80F4B9B6803F00C030A
:1009F800082BF2D1B3E700F03FFA41F28833801BAD
:100A08009842E4D97FE71B0707D5074B21699A6805
:100A180022F4604242EAC1029A60002000F007FA1C
:100A2800002070BD003C0240003802401F4B9A680D
:100A380002F00C02042A10B536D0082A01D01C484E
:100A480010BD59685A685C6812F4800F01F03F01C4
:100A580047F6C0720CD092FAA2F2B2FA82F347F6C5
:100A6800C0722240DA40134BB3FBF1F353430BE05F
:100A780092FAA2F247F6C0730D48B2FA82F2234006
:100A8800D340B0FBF1F14B43084A50684FF4403271
:100A980092FAA2F2B2FA82F200F44030D040013069
:100AA8004000B3FBF0F010BD024810BD0038024012
:100AB8000024F40000127A0008B5FFF7B7FF084BCE
:100AC800F0229B6892FAA2F2B2FA82F203F0F003E3
:100AD800D340044AD35CD840034B186008BD00BF1C
:100AE80000380240980F00080000002013B50023CA
:100AF8000193194B1A6C42F080521A641B6C03F074
:100B080080530193019B154B1A6842F480321A6096
:100B180000F0B2F90446114B5A68D20307D400F02A
:100B2800ABF9001BB0F57A7FF5D9032012E01A68FB
:100B380042F400321A6000F09FF90446074B5B68E4
:100B48009B0306D400F098F9001BB0F57A7FF5D91D
:100B5800EBE7002002B010BD0038024000700040F2
:100B68002DE9F7430F68002301229A4002EA07059E
:100B7800954240F0DB804C6824F01006022E16D116
:100B88004FEAD30C00EB8C0C03F00708DCF82020AC
:100B98004FEA88084FF00F0909FA08F922EA09090B
:100BA8000A6902FA08F849EA0802CCF820205A0033
:100BB8004FF0030CD0F800900CFA02FC6FEA0C0C12
:100BC80004F003080CEA090908FA02F8013E49EAA8
:100BD8000808012EC0F8008010D886680CEA0608BC
:100BE800CE68964048EA06068660466826EA050802
:100BF800C4F300169E4048EA06064660C6680CEA3A
:100C0800060C8E6896404CEA0602C260E20040F18B
:100C18008D804A4E00220192D6F844C04CF4804C94
:100C2800C6F844C0766C06F480460196019E23F00F
:100C3800030606F1804606F59C3603F0030CD6F849
:100C480008904FEA8C0C4FF00F0808FA0CF829EAC4
:100C58000808DFF8F090484537D002F1804202F5E5
:100C68000132904222D002F58062904220D002F5F3
:100C7800806290421ED002F5806290421CD002F53C
:100C8800806290421AD002F58062904218D002F534
:100C98008062904216D002F58062904214D002F52C
:100CA8008062904214BF0A2209220EE001220CE061
:100CB80002220AE0032208E0042206E0052204E0FA
:100CC800062202E0072200E0082202FA0CF242EAB9
:100CD8000802B2601A4ED6F800C0EA4314F4803F06
:100CE80014BF45EA0C0C02EA0C0CC6F800C0766882
:100CF80014F4003F14BF45EA060C02EA060C104E35
:100D0800C6F804C0D6F808C014F4801F14BF45EA1A
:100D18000C0C02EA0C0CC6F808C0F668A40258BF0E
:100D280002EA0605064A48BF3543D5600133102B51
:100D38007FF41AAF03B0BDE8F08300BF003802406B
:100D4800003C01400000024002B90904816170477B
:100D58004369594041617047074AD36823F4E06307
:100D68001B041B0C43F0BF6343F4003300F007007F
:100D780043EA0023D360704700ED00E0164BDB68C0
:100D8800C3F3022370B51D1DC3F10704042C28BF4B
:100D98000424062D4FF001058CBF033B002305FA00
:100DA80004F405FA03F6013C013E2140324001FA01
:100DB80003F3134300284FEA031305DADAB200F00D
:100DC8000F00064B1A5470BD00F1604000F56140F9
:100DD800DBB280F8003370BD00ED00E014ED00E0F8
:100DE8000138B0F1807F0AD2064B074A5860F021DB
:100DF80082F823100020072298601A6070470120AB
:100E0800704700BF10E000E000ED00E0044B1A68F6
:100E180004280CBF42F0040222F004021A60704752
:100E280010E000E0704708B5FFF7FCFF08BD10B5FB
:100E38000446FFF741FE4FF47A73B0FBF3F0FFF777
:100E4800CFFF4FF0FF3021460022FFF797FF002029
:100E580010BD08B50320FFF77FFF0020FFF7E7FF6D
:100E6800FFF7D5F9002008BD024B1A6801321A6055
:100E7800704700BF20000020014B1868704700BF72
:100E8800200000200F4AD2F8883043F47003C2F8DB
:100E980088300D4B1968002041F0010119609860F5
:100EA800196821F0847121F480311960074959606B
:100EB800196821F480211960D8604FF000639360AD
:100EC800704700BF00ED00E00038024010300024F9
:100ED800DFF83CD0002100F004B80E4B5B584350BB
:100EE80004310D480D4B42189A42FFF4F6AF0C4AF4
:100EF80000F003B8002342F8043B0A4B9A42FFF47F
:100F0800F9AFFFF7BFFF00F011F8FFF709FA7047D4
:100F180000000520B00F0008000000200400002099
:100F28000400002024000020FFF7FEBF70B50E4B20
:100F38000E4DED1AAD1000241E46AC4204D056F8F2
:100F4800242090470134F8E700F016F8084D094BC3
:100F5800ED1AAD1000241E46AC4204D056F82420E9
:100F680090470134F8E770BDA80F0008A80F0008E3
:100F7800AC0F0008A80F0008F8B500BFF8BC08BC03
:100F88009E467047F8B500BFF8BC08BC9E4670473F
:100F98000000000001020304010203040607080917
:040FA800ED0100084F
:040FAC00C90100086F
:040FB0000024F40025
:0400000508000ED908
:00000001FF
