:020000040800F2
:1000000000500020D15B000811550008135500086E
:100010001555000817550008195500080000000084
:100020000000000000000000000000001B55000858
:100030001D550008000000001F550008215500084C
:10004000195C0008195C0008195C0008195C0008BC
:10005000195C0008195C0008195C0008195C0008AC
:10006000195C0008195C0008195C0008195C00089C
:10007000195C0008195C0008315500083D5500085E
:10008000195C0008195C0008195C0008195C00087C
:1000900049550008195C0008195C0008195C000843
:1000A000195C0008195C0008195C0008195C00085C
:1000B00055550008195C000861550008195C0008D6
:1000C000195C00086D55000879550008195C000896
:1000D000195C00088555000891550008195C000856
:1000E0009D550008C5550008195C00080000000077
:1000F0000000000000000000000000000000000000
:0C01000000000000000000005FF808F1A3
:10010C0010B5054C237833B9044B13B10448AFF345
:10011C0000800123237010BD50030020000000005C
:10012C00B06F000808B5034B1BB103490348AFF38C
:10013C00008008BD0000000054030020B06F0008D0
:10014C00D0400B1CD1409C46203AD340184352421D
:10015C00634693401843704738B50E4B05461878E4
:10016C004FF47A73B3FBF0F30B4A1068B0FBF3F067
:10017C0000F08CF8044658B90F2D09D802462946D0
:10018C004FF0FF3000F042F8044B20461D6038BDA4
:10019C00012038BD000000203401002004000020A4
:1001AC00074A08B51368032043F01003136000F0EE
:1001BC001BF80020FFF7D0FF05F054F9002008BD14
:1001CC0000200240034A044B11681B780B44136057
:1001DC00704700BFC809002000000020014B1868C0
:1001EC00704700BFC8090020074A0002D36800F41A
:1001FC00E06023F4E0631B041B0C43F0BF6343F487
:10020C0000330343D360704700ED00E0174B30B56B
:10021C00DC68C4F30224C4F10703251D042B28BF9A
:10022C000423062D4FF0010598BF002405FA03F3B3
:10023C0003F1FF3388BF033C1940A14005FA04F4D5
:10024C00013C2240002842EA01024FEA0212AFBFF1
:10025C0000F16040064B00F00F00D2B2A5BFD2B245
:10026C0000F561401A5480F8002330BD00ED00E029
:10027C0014ED00E00123420900F01F0003FA00F026
:10028C00014B43F82200704700E100E00138B0F167
:10029C00807F0AD2F021064B064A586082F8231060
:1002AC000020072298601A6070470120704700BF39
:1002BC0010E000E000ED00E0044B04281A680CBFCD
:1002CC0042F0040222F004021A60704710E000E0D1
:1002DC00704708B5FFF7FCFF08BD000010B550B320
:1002EC0014220168154B84680B44B3FBF2F39B009A
:1002FC000364134B0A68C363436822F47F5223439D
:10030C00C46822F030022343046923434469234325
:10031C0084692343C469234313430B6001220023E4
:10032C0080F821208362C36203634363836380F894
:10033C002030184610BD012010BD00BFF8FFFDBFD6
:10034C000000024090F8213010B5022B03D004239A
:10035C008363012010BD03681A6822F00E021A6034
:10036C001A6822F001021A60184A93421FD0143204
:10037C0093421ED0143293421DD0143293421DD09E
:10038C00143293421DD0143293420CBF4FF480139D
:10039C004FF080730E4A00245360012380F8213003
:1003AC00436B80F820407BB19847204610BD012359
:1003BC00F0E71023EEE74FF48073EBE74FF4805334
:1003CC00E8E74FF48033E5E7184610BD080002401B
:1003DC000000024070B40425C66B026C34680368DC
:1003EC0095402542196832D04D0730D51A689606CB
:1003FC005EBF1A6822F004021A603E4A934219D07A
:10040C001432934218D01432934217D014329342C0
:10041C0017D01432934217D0143293420CBF4FF4BE
:10042C0080034FF08063344A5360C36A002B5ED064
:10043C0070BC18470423F6E74023F4E74FF48063BD
:10044C00F1E74FF48043EEE74FF48023EBE702250E
:10045C009540254235D08D0733D51A68940606D4BD
:10046C001A6822F00A021A60012280F82120214A1F
:10047C00934219D01432934218D01432934217D0AD
:10048C001432934217D01432934217D01432934241
:10049C000CBF4FF400134FF00073174A5360002346
:1004AC0080F82030836AC1E70223F6E72023F4E7C3
:1004BC004FF40073F1E74FF40053EEE74FF40033C1
:1004CC00EBE708259540254211D009070FD519688F
:1004DC0021F00E011960012303FA02F272608363AA
:1004EC0080F82130002380F82030036B9EE770BC2D
:1004FC00704700BF0800024000000240114AD36858
:10050C0013F0100305D01049CB6943F00203CB6103
:10051C001023D268500706D50B4943F00403CA696F
:10052C0042F00102CA61074AD169C90708D50648D9
:10053C00C16941F00401C161D16921F00101D161AE
:10054C00D360704700200240D0090020064B186988
:10055C0010F0800007D0054A5A6002F188325A60C8
:10056C001869C0F3C0107047002002402301674592
:10057C00034A0020136943F080031361704700BFE6
:10058C0000200240F8B50646FFF728FE114C07463E
:10059C002546E368D80712D4E368990644BF2023A4
:1005AC00E360EB68DA0606D4EB69DB0703D4E86892
:1005BC0010F0040002D0FFF7A1FF0120F8BD731C5E
:1005CC00E7D00EB90320F8BDFFF708FEC01B86422A
:1005DC00DFD2F7E7002002402DE9F84F1F4C994677
:1005EC00237E0546012B0F46904633D001234CF257
:1005FC0050302376FFF7C6FF40BB012D03D0022DF0
:10060C000CBF022504250026B246DFF854B0320197
:10061C0040464946FFF794FDC4F81CA0DBF81030A7
:10062C0080B243F00103CBF8103027F816004CF2DF
:10063C005030FFF7A7FFDBF8103023F00103CBF8A5
:10064C00103018B90136F3B29D42E0D8002323765E
:10065C00BDE8F88F0220BDE8F88F00BFD00900205C
:10066C00002002400022064BDA61064B1A6942F068
:10067C0004021A611A6942F040021A61704700BF05
:10068C00D0090020002002400022064BDA61064B04
:10069C001A6942F002021A6158611A6942F040026A
:1006AC001A617047D0090020002002402DE9F0416A
:1006BC00234D07462B7E8846012B3DD00124036831
:1006CC002C76022B4CF2503013D1FFF75BFF20B18C
:1006DC00012000232B76BDE8F081FFF7C3FF4CF21D
:1006EC005030FFF74FFF174A136923F004031361CF
:1006FC00EFE7FFF747FF0028EAD14FF0FF33C8F8C8
:10070C0000302046BE680F4CFA68BB6803EB8223AE
:10071C009E42DED23046FFF7B7FF4CF25030FFF767
:10072C0031FF236923F00203236110B1C8F8006084
:10073C00CFE706F58066E7E70220BDE8F08100BF51
:10074C00D0090020002002402DE9F74F0022164668
:10075C00654BDFF8A4E1DFF8A4C14FF001080C6889
:10076C0008FA06F808EA0404A0457FD14D68122D5A
:10077C0000F0AF8000F28880022D00F0A7807CD8BA
:10078C00002D00F08E80012D00F09E804FF00F099F
:10079C00FF2C93BF824606F18045083DD0F800B08F
:1007AC0092BFB500D0F804B0AD0009FA05F82BEAF9
:1007BC00080802FA05F588BF00F1040A48EA0505A5
:1007CC00CAF80050D1F804A01AF0805F4ED0474D03
:1007DC00464FAD6926F0030845F00105BD61BD69C2
:1007EC0008F1804805F00105019508F5803806F000
:1007FC00030B019D4FEA8B0BD8F8085009FA0BF943
:10080C0025EA09093A4DA84268D005F58065A84249
:10081C0066D005F58065A84264D005F58065A842D0
:10082C000CBF0325042505FA0BF545EA0905C8F8A4
:10083C0008501D681AF4803F14BF2543A5431D6062
:10084C005D681AF4003F14BF2543A5435D609D68A5
:10085C001AF4801F14BF2543A5439D60DD681AF46C
:10086C00001F14BF2C4325EA0404DC600136102E53
:10087C007FF473AF03B0BDE8F08F032D22D0112DA0
:10088C0084D1CA68043281E71A4FBD4209D012D80C
:10089C00DFF86C904D4504D009F580394D457FF457
:1008AC0075AF8A68C2B1012A0CBFC0F81080C0F8BD
:1008BC00148008226AE77545F3D06545F1D0DFF85E
:1008CC004490EBE7002261E7CA685FE7CA68083228
:1008DC005CE7CA680C3259E7042257E70025A2E707
:1008EC000125A0E702259EE700040140001002400C
:1008FC0000080140000021100000311000003210EF
:10090C0000001110000022100AB1016170470904A7
:10091C00FBE7000008B5044B5969014202D058614D
:10092C0004F09EFA08BD00BF000401400268536940
:10093C0013F480630DD06FF4806353610423202281
:10094C0003640023036380F83C3080F83D200120D1
:10095C007047184670472DE9F843044617469946E8
:10096C00C1F307488EB22568B8F1010F0CBF6B6953
:10097C00AB6936EA030314BF0120002008B9BDE8B7
:10098C00F8836B695A0512D52B68202243F4007347
:10099C002B606FF480636B610423236400230120BC
:1009AC00236384F83C3084F83D20BDE8F8837B1C3D
:1009BC00D9D04FB900232022236384F83C3084F82B
:1009CC003D200320BDE8F883FFF708FCA0EB0900ED
:1009DC008742C8D2EEE72DE9F843044690461F46FD
:1009EC00089EC1F307498DB22368B9F1010F0CBF02
:1009FC005B699B6935EA03030CBF01230023434564
:100A0C0002D00020BDE8F8837B1CEDD05FB9002339
:100A1C002022236384F83C3084F83D20032084F8A2
:100A2C003E30BDE8F883FFF7D9FB801B8742DBD251
:100A3C00EDE770B504460D46164623685B691B0648
:100A4C0001D5002070BD2046FFF770FFA8B96A1CC5
:100A5C00F3D065B9236C202243F0200323640023D8
:100A6C000320236384F83C3084F83D2070BDFFF7ED
:100A7C00B5FB801B8542E0D2ECE7012070BD000085
:100A8C002DE9FF4115460268984613680B9E43F406
:100A9C00807313600F4600960A9B00224FF00111E1
:100AAC000446FFF798FF68B9236807F0FE071F613B
:100ABC000A9A33461A492046FFF74DFF30B1236C92
:100ACC00042B18D0032004B0BDE8F08123680390F8
:100ADC005A690A9903929B69324603932046039BF9
:100AEC00FFF7A7FF48B1236C042BEBD122681368E6
:100AFC0043F4007313600120E5E7B8F1010F23689C
:100B0C0002D1EDB21D61DEE72A0A1A610A9932465A
:100B1C002046FFF78EFF0028E5D12368F1E700BFE0
:100B2C000200010070B504460D46164623685B6949
:100B3C005B0701D5002070BD2046FFF7F7FEA8B972
:100B4C006A1CF3D065B9236C202243F02003236484
:100B5C0000230320236384F83C3084F83D2070BDCF
:100B6C00FFF73CFB801B8542E0D2ECE7012070BD17
:100B7C0038B5044608B9012038BD90F83D3003F073
:100B8C00FF021BB980F83C2003F0E2FE242322680C
:100B9C0084F83D30136823F00103136001F0DCFC92
:100BAC0063682F4A934230D82E4A9042E3D92E4A9A
:100BBC002168B0FBF2F24A6001320A62284A01381D
:100BCC00934232D85B00B0FBF3F0431CC3F30B032E
:100BDC00042B38BF0423CB61226AE3690020134342
:100BEC000B60E268236913438B60A269636913434A
:100BFC00CB600B6843F001030B602023206484F866
:100C0C003D30206384F83E0038BD184A9042B2D97A
:100C1C00154D4FF49672B0FBF5F521686A434D60A3
:100C2C004FF47A75B2FBF5F2C6E7A26852B903EB42
:100C3C004303B0FBF3F0431CC3F30B036BB143F45E
:100C4C000043C8E719225343B0FBF3F0431CC3F332
:100C5C000B0313B143F44043BDE70123BBE700BFD3
:100C6C00A08601007F841E0040420F00FF083D005B
:100C7C002DE9F34704469A46884691460C9EFFF7A9
:100C8C00ADFA94F83D300546202B03D0022002B07B
:100C9C00BDE8F0870090192301223E492046FFF75A
:100CAC009AFE0028F2D194F83C30012BEED00123AF
:100CBC0084F83C30236800271A684146D20758BF95
:100CCC001A6820465CBF42F001021A601A6822F4CE
:100CDC0000621A60212384F83D30402384F83E30B2
:100CEC000A9B27646362BDF82C30019563852A4BFF
:100CFC000096E362638D4A4623855346FFF7C0FE98
:100D0C0000282AD0236C84F83C70042B07D10120D6
:100D1C00BDE7FFF78EFE20B1236C042B34D00320EB
:100D2C00B5E7616A27684B1C63620B78228D3B61C7
:100D3C00638D501E013B9BB263857B6980B25B0760
:100D4C0020850AD548B18B1C63624B78023A3B6113
:100D5C00638D2285013B9BB26385238D2A463146E8
:100D6C002046002BD5D1FFF7DDFE0028D4D1226818
:100D7C00136843F400731360202384F83C0084F858
:100D8C003D3084F83E0082E72268136843F4007318
:100D9C001360BCE7020010000000FFFF2DE9F04FCC
:100DAC00044685B0984689469246FFF717FA94F8A0
:100DBC003D300646202B03D0022005B0BDE8F08F55
:100DCC000090192301224B492046FFF704FE00280E
:100DDC00F2D194F83C30012BEED0012384F83C3056
:100DEC00236800251A68DFF80CB1D20758BF1A68BF
:100DFC0009F0FE095CBF42F001021A601A6822F485
:100E0C0000621A60242384F83D303B4B2564E36276
:100E1C0022684FF001111368204643F4807313606D
:100E2C00009643460022FFF7D6FD08B10320C4E725
:100E3C002368A027C3F81090FFF7D0F90646236863
:100E4C0059695A6994F83D30C1F34001C2F38022CC
:100E5C00DBB211B90AB9A02B20D12027236884F862
:100E6C003D705A6912F0020F1A6842F400721A604F
:100E7C002AD0002203925A691E4903929B690122CF
:100E8C000393039B009619232046FFF7A4FD00282B
:100E9C00CCD184F83D7084F83C008EE7B8F1000F9B
:100EAC000CD184F83D70236859695A6994F83D3027
:100EBC00C1F34001C2F38022DBB2CAE7FFF78EF91F
:100ECC00801B8045EDD3EEE76FF4806259465A6182
:100EDC002046009619230122FFF77DFD0028A5D19D
:100EEC000135AA4594D884F83C0084F83D70012063
:100EFC0063E700BF020010000000FFFF704770475F
:100F0C00704770477047704770477047704770471D
:100F1C0090F83D3010B5293B012B0446036839D8B5
:100F2C0000220263282280F83D201A6822F4006215
:100F3C001A605A6812F4006254D05A68606B22F43A
:100F4C0000625A6090F82130012B394B31D0436349
:100F5C00FFF7F8F950B12268606B136823F00103B6
:100F6C001360202384F83D30436B984794F83D3050
:100F7C00282B0ED1236C5B070BD52E4B2022E36262
:100F8C0000232046236384F83D2084F83E30FFF78D
:100F9C00BAFF10BD90F83D20602A05D05A681205A2
:100FAC005CBF202280F83D200022226384F83E2082
:100FBC00BBE7A06B4363FFF7C5F90028D6D02268C6
:100FCC005369580604D5636A1269591C61621A7018
:100FDC002268A06B136823F001031360202384F8AC
:100FEC003D30C1E794F83D10602914D1202184F8DC
:100FFC003D1022645A69510604D5626A1B69511C62
:10100C006162137022682046136823F00103136099
:10101C00FFF77DFFAAE75A69520604D5626A1B697D
:10102C00511C616213702046FFF770FF9EE700BFF2
:10103C00551800080000FFFF0368F0B59D69596959
:10104C005A6890F83E408DB0E4B2102C02D0402C7F
:10105C0040F0568211F0011F66D0970564D590F8C8
:10106C003E40402C43D1046D002C3BD1446C04F029
:10107C00FE041C61944E954C2E400C40002E00F04A
:10108C00A281934D0D40002D00F06981550540F172
:10109C006681002C40F0638190F83D20058D90F81E
:1010AC003E10D2B2C9B2C46A002D40F01781212A79
:1010BC0040F01681042C00F06F81082C00F06C813C
:1010CC0014F5803F00F068815A6822F4E0625A609F
:1010DC001123036380F83E50202380F83D30FFF746
:1010EC000DFF18E1446C44F00104E4B2C1E704695B
:1010FC00B4F5804F05D190F83D40212C446CF2D1D1
:10110C00B5E7046D34B9446CE41104F0060444F002
:10111C00F004AEE7046D012CACD1446CE41104F086
:10112C00060444F0F104A4E76A4C0C401CB196058B
:10113C0001D5446CD9E7684C0C40002C9AD094052E
:10114C0098D590F83E40C66AD0F830E090F83D70E3
:10115C00E4B2222F40F0AF80076D47B9402C06D186
:10116C0000975C6900949C690094009C82E7046D74
:10117C008CB90769B7F5404F0DD101945C690194A6
:10118C009C690194019C1C6844F480741C60046D7F
:10119C00013404656EE7448DA4B254B902945C69C1
:1011AC0002949C690294029C1C6844F400741C60B8
:1011BC0019E0448DA4B2012C42D116F5803F1BD10D
:1011CC001C6824F480641C605C6814F400640CD00B
:1011DC001C6824F480641C60002403945C690394F0
:1011EC009C690394039C0024D3E704945C690494E5
:1011FC009C690494049CD7E7042E15D0082E13D0B8
:10120C00BEF1120F10D0C46A022C1C6814BF24F457
:10121C00806444F480641C60002405945C6905942B
:10122C009C690594059CDEE71C6824F480641C60B2
:10123C00002406945C6906949C690694069CB3E7AA
:10124C00448DA4B2022C23D1C46A0026022C1C6843
:10125C0014D044F400641C6007965C6907949C6984
:10126C000794079C1C6824F480641C605C68270548
:10127C00B9D55C6844F480545C60B4E744F4806491
:10128C001C6008965C6908949C690894089CEDE7BE
:10129C001C6844F480641C605C68260542BF5C6872
:1012AC0044F480545C60002409945C6909949C6942
:1012BC000994099C97E700240A945C690A949C6938
:1012CC000A940A9CD6E600BF04001000040001003A
:1012DC00800001000800010002000100212A03D057
:1012EC00402918D1222A16D1428D92B222B95A68BD
:1012FC0022F480625A600EE090F83E20402A28D1F9
:10130C00026D82B9C26C012A826C06D1D2B21A610A
:10131C00036D023303650DB0F0BDC2F307221A61F1
:10132C00036D0133F6E7026D012A02D1826CD2B251
:10133C00F5E7026D022AEED190F83D20222A04D165
:10134C001A6842F480721A60E5E790F83D20212A71
:10135C00E1D1426A511C416212781A6199E0002C69
:10136C00D9D09405D7D5C16A90F83D20212AD2D185
:10137C00428D92B2002AECD104290DD008290BD051
:10138C0011F5803F08D0596821F4E06159601123B0
:10139C00036380F83E209FE65A6822F4E0625A60AC
:1013AC001A6842F400721A6000232022036380F84A
:1013BC003D2090F83E2080F83E30402A7FF48FAEDE
:1013CC00FFF7A2FDA7E78F4D0D40002D46D051052C
:1013DC0044D5002C42D190F83D20222A9BD1428D3D
:1013EC0092B2032A05D9426A1B69511C41621370DF
:1013FC004FE0023A012AC26A0DD8022A1A681DBFB0
:10140C0022F480621A601A6842F4806218BF42F4B7
:10141C0000621A606BE7022A1A6814BF22F4806219
:10142C0042F480621A605A6822F4E0625A60426A9E
:10143C001B69511C41621370438D013B9BB2438568
:10144C00202380F83D300023036390F83E2080F881
:10145C003E30402A51D1FFF758FD5CE7002C3FF499
:10146C005AAF97057FF557AFC26A418D89B20329F0
:10147C00416A13D1042A04D0082A02D012F5803F05
:10148C0003D11A6822F480621A601B694A1C4262FA
:10149C000B70438D013B9BB243853CE7448DA4B25A
:1014AC00022CF2D1042A1FD0082A1DD012F5803F3D
:1014BC001AD0022A1A6814BF22F4806242F48062A5
:1014CC001A605A6822F440725A601B694A1C4262C4
:1014DC000B70438D013B9BB24385436A5A1C42629D
:1014EC00026812691A70A7E75A6822F440725A60AF
:1014FC001A6842F400721A60E7E7FFF700FD0AE78A
:10150C00414C0C4074B196050CD599699B6981F0DE
:10151C0004011D06C1F3800154BF8289028BFFF7C1
:10152C00F1FCF8E6394C0C40002C73D0940571D5C5
:10153C0090F83D205968D2B221F4E0615960002145
:10154C000B9159690B91196841F0010119600B99C4
:10155C00196821F480611960596809050CD590F857
:10156C003D10222903D090F83D102A2929D1816BF6
:10157C000968496889B24185418D89B2E1B15969DF
:10158C004F0708D5416A1B694C1C44620B70438D94
:10159C00013B9BB2438501684B695E0608D5436AE3
:1015AC0009695C1C44621970438D013B9BB24385F5
:1015BC00036C43F004030364036C23B1FFF7A8FC32
:1015CC00A9E6416BD4E7A2F1280102290AD8104AF6
:1015DC00C2622022036380F83D2080F83E30FFF782
:1015EC0092FC98E6036B222B02D0222A7FF493AE56
:1015FC0000232022036380F83D2080F83E30FFF763
:10160C0080FC88E64000010002000100100001008F
:10161C000000FFFF394E3A4C2E400C40002E36D0C5
:10162C00384D0D403DB3550525D524BB90F83D10E4
:10163C00428DC9B292B2002A3FF46DAE426A541C7C
:10164C00446212781A61428D013A92B24285428DFF
:10165C0092B2002A7FF45FAE29297FF45CAE5A68FF
:10166C0022F480625A6021230363282380F83D30E2
:10167C00FFF746FC4FE6002C3FF44DAE94057FF58A
:10168C004AAE428D92B2002A7FF463AE43E61E4D01
:10169C000D4035B3510524D51CBB90F83D20418D30
:1016AC00D2B289B200293FF436AE416A1B694C1C98
:1016BC0044620B70438D013B9BB24385438D9BB2BF
:1016CC00002B7FF428AE2A2A7FF425AE02685368DB
:1016DC0023F48063536022230363282380F83D3076
:1016EC008DE7002C3FF417AE92057FF514AE428DBA
:1016FC0092B2002A7FF477AE0DE600BF0400100012
:10170C00040001008000010040000100F8B50368EE
:10171C004B4A5E69044616425D680CD0E8050AD552
:10172C00226C42F0010222646FF480725A611A68D2
:10173C0042F400421A6016F4813F08D0E90506D540
:10174C00226C42F0020222646FF400725A6116F4A9
:10175C00823F36D0EA0534D594F83E70618D94F80A
:10176C003D20202F89B2D2B2206B58D1002956D1FE
:10177C0002F0F701212903D0282A50D121284ED17B
:10178C0094F83D20E16AD2B2042901D008292CD169
:10179C00282A2AD12B4A2046E2625A6822F4E062B7
:1017AC005A606FF480625A611A6822F480621A607F
:1017BC0000232022236384F83D2084F83E30FFF779
:1017CC00A2FB16F4843F09D0EB0507D56FF4006239
:1017DC00236C43F00803236423685A61236C73B3AE
:1017EC002046BDE8F840FFF793BB212A23D11549C9
:1017FC002046E1622263202284F83D20002284F8F6
:10180C003E205A6822F4E0625A606FF480625A619A
:10181C001A6822F480621A60FFF772FBD1E7226C1F
:10182C0042F00402226494F83E20102A02BF1A6887
:10183C0042F400721A606FF480625A61C1E7F8BD1D
:10184C00000101000000FFFF406A08B50368416B0E
:10185C001A6822F480621A60002242854A63816B06
:10186C004A6390F83D1060294FF0200180F83D103C
:10187C0080F83E2007D102641A6822F001021A6037
:10188C00FFF745FB08BD1A6822F001021A60FFF74A
:10189C003DFB08BD2DE9F041044686B0002860D020
:1018AC0090F8293403F0FF021BB980F8282404F0C7
:1018BC0013F8254603236E4655F8100B84F829348B
:1018CC0001F0F0FE0FCD0FC62B6804F10408336055
:1018DC0098E80E00206801F0D5FE0021206801F088
:1018EC00EBFE0021234622460126084604F1100592
:1018FC0082F82810918601310F2982F8296082F82C
:10190C002B009063D063106402F12002F0D100220E
:10191C00174683F828229A8601320F2A83F82972F7
:10192C0083F82B72C3F83872C3F83C72C3F8407258
:10193C0003F12003EDD16E460FCD0FC62B6833603B
:10194C0098E80E00206801F0B9FE012384F8247099
:10195C00206884F8293402F089F9002006B0BDE82B
:10196C00F0810120FAE790F8283410B5012B0446D9
:10197C000ED0012180F8281404F0D1F8206802F070
:10198C0073F9206801F085FE002084F8280410BD4E
:10199C00022010BD90F8282410B5012A04460BD063
:1019AC00012280F8282484F82410006802F056F9EB
:1019BC00002084F8280410BD022010BD38B5044660
:1019CC0048B2002801F07F05B5BF04EB451104EBCC
:1019DC004111283101F50A71C00F0D704870CB70A0
:1019EC0094F828340A61012B09D00123206884F86B
:1019FC00283401F07FFE002084F8280438BD022032
:101A0C0038BD4BB2002B01F07F02B5BF00EB421189
:101A1C0000EB4111283101F50A71DB0F10B50A708A
:101A2C004B7090F828340446012B09D0012380F820
:101A3C002834006801F0D0FF002084F8280410BD81
:101A4C00022010BD70B5002601F07F014D01441934
:101A5C0084F8281205F50A710144C4F83C22C4F834
:101A6C004032C4F8446284F82962006802F018F924
:101A7C00304670BD01F00F0100EB4111B1F844028A
:101A8C00704701F07F0170B54D01441923640026A5
:101A9C00012384F8281005F128010144E2636664EF
:101AAC0084F82930006802F0FBF8304670BD000065
:101ABC002DE9F3470446006802F0DAF8000400F15F
:101ACC009880206802F0D4F841050FD52268204692
:101ADC00B2F8443023F480631B041B0CA2F844308E
:101AEC0003F027FF00212046FFF754FF206802F087
:101AFC00BFF8470408D52268B2F8443023F4804379
:101B0C001B041B0CA2F84430206802F0B1F88604C8
:101B1C0008D52268B2F8443023F400531B041B0C84
:101B2C00A2F84430206802F0A3F8C5041CD5226842
:101B3C002046B2F8403023F004031B041B0CA2F81F
:101B4C004030B2F8403023F008031B041B0CA2F801
:101B5C00403003F00BFF2268B2F8443023F480537A
:101B6C001B041B0CA2F84430206802F081F800051D
:101B7C001DD52068B0F840309BB243F00803A0F8A4
:101B8C004030B0F8443023F400631B041B0CA0F865
:101B9C004430B0F840309BB243F00403A0F840301E
:101BAC0002F066F8C10402D4204603F0CFFE206890
:101BBC0002F05EF882050BD522682046B2F844305C
:101BCC0023F400731B041B0CA2F8443003F0ADFE8D
:101BDC00206802F04DF8C30508D52268B2F84430ED
:101BEC0023F480731B041B0CA2F8443002B0BDE834
:101BFC00F0870023C84FDFF82483DFF82493ADF877
:101C0C000430ADF806302068B0F844309BB2ADF823
:101C1C0004301B047FF555AFBDF8045015F00F05CB
:101C2C0040F0AB80BDF80410038811F010019BB29A
:101C3C0026D13B400380B0F8503094F828209BB25A
:101C4C0003EBC20300EB4300D0F80434E26BC3F3A4
:101C5C00090363641344E363204603F05FFE94F8C6
:101C6C002430002BCFD0226C002ACCD194F8243015
:101C7C00216843F08003A1F84C3084F82420C2E79B
:101C8C00ADF80630BDF806301A051FD5B0F8503047
:101C9C0094F828229BB203EBC20300EB4303D3F866
:101CAC000C34B4F82C22C3F30903C4F8443204F204
:101CBC002C4102F0F5F822682046138823F07003BB
:101CCC001B051B0D138003F01BFE9CE7BDF80630B3
:101CDC001B0498D5038823F070031B051B0D038090
:101CEC00B0F8503094F828229BB203EBC20300EBFF
:101CFC004303D3F80C34C3F30903C4F8443263B17F
:101D0C00B4F82C22D4F83C1202F0CAF8D4F83C32C5
:101D1C00D4F844221344C4F83C320021204603F08A
:101D2C00F5FD2268D4F83852B2F850103E2D89B225
:101D3C0001F1060102F5806017D9C5F34F13EE06C9
:101D4C0004BF03F1FF339BB249EA83239BB240F8F3
:101D5C00113013889BB203EA080383F4405343F415
:101D6C00004343F0800313804DE7C5F34F03ED07A9
:101D7C0044BF01339BB29B02E8E730F825309BB29D
:101D8C00ADF80630BDF8063019043FD530F82530D3
:101D9C004FEA451A23F070031B051B0D20F8253064
:101DAC0004EB0A0191F83232002B74D1B0F85030A8
:101DBC0091F828229BB2063303EBC20300EB4303DA
:101DCC00D3F80064C6F3090636B1B1F82C223346B9
:101DDC00D1F83C1202F064F804EB0A01D1F8443259
:101DEC00D1F83C223344C1F84432D1F84032324469
:101DFC00C1F83C2223B1D1F83802864280F08680AB
:101E0C00A2449AF82812204603F080FDBDF8063053
:101E1C001A067FF5F8AE20686E0130F82530A1194E
:101E2C009BB23B4020F8253091F832300235002B24
:101E3C0078D1B0F8503091F828209BB2023303EBE4
:101E4C00C20300EB4303D3F8003404EB4515C3F392
:101E5C0009036B601BB18A8DC96B01F00FFF2268FF
:101E6C002644B2F8503096F828109BB2023303EB9C
:101E7C00C10302EB4303D3F80024F36BC2F3090252
:101E8C0072641A44336CF2632046002B40F0858058
:101E9C0003F044FDB7E691F8283230F82320DB003C
:101EAC0012F4804FB0F8502092B221D00232134479
:101EBC0000EB4303D3F80064C6F3090636B133468E
:101ECC00B1F82E22D1F83C1201F0EAFF04EB0A0320
:101EDC0093F82812226832F8213023F0F0031B0506
:101EEC001B0D43F4004343F0C00322F8213073E789
:101EFC000632134400EB4303D3F80064C6F309061F
:101F0C00002EE3D03346B1F83022DBE791F82812EB
:101F1C002046FFF797FD79E70F8FFFFF8FBFFFFF7D
:101F2C000080FFFF91F8283030F82320DB0012F0FE
:101F3C00400FB0F8502092B220D00232134400EB84
:101F4C004303D3F8003404EB4515C3F309036B606A
:101F5C001BB1CA8DC96B01F091FEA31993F828101F
:101F6C00226832F8213023F0F0031B051B0D43F4DB
:101F7C00404343F0800322F8213070E706321344CB
:101F8C0000EB4303D3F8003404EB4515C3F309030A
:101F9C006B60002BE1D00A8EDCE7FFF772FD32E6B6
:101FAC00012238B54BB2002B01F07F05B5BF00EB19
:101FBC00451100EB4111283101F50A71DB0FEDB22F
:101FCC008A700D704B7090F82834044693420ED0F2
:101FDC0080F82824006801F0CDFD25B904F22C41CD
:101FEC00206801F049FE002084F8280438BD022046
:101FFC0038BD38B500244BB2002B01F07F02B5BFC1
:10200C0000EB421100EB4111283101F50A71DB0F95
:10201C008C700A704B7090F828340546012B09D04F
:10202C00012380F82834006801F0D6FD85F8284497
:10203C00204638BD022038BD11F0800F1BBF01F0C7
:10204C007F0100EB411000EB4110283008BF00F578
:10205C000A701AB982728380002070470122C380F3
:10206C001B0C82720381F7E70122014B1A60704747
:10207C0020000E4203682DE9F341DB07054610D41E
:10208C002B689F075ED42B68190700F195802B688D
:10209C005A0700F1BF80EA69002A40F02D81002028
:1020AC0014E0904C636803F00C03042B07D06368B6
:1020BC0003F00C03082B0CD16368DE0309D52368ED
:1020CC009C03DDD56B68002BDAD1012002B0BDE892
:1020DC00F0816B68B3F5803F10D1236843F48033F3
:1020EC002360FEF77BF8064623689803C8D4FEF7F6
:1020FC0075F8801B6428F7D90320E7E79BB92368A0
:10210C0023F480332360236823F480232360FEF7B9
:10211C0065F8064623689903B2D5FEF75FF8801B75
:10212C006428F7D9E8E7B3F5A02F236803D143F46B
:10213C0080232360D1E723F480332360236823F4C6
:10214C008023CDE7674C636813F00C0F07D06368EE
:10215C0003F00C03082B10D16368DA030DD4236849
:10216C009B0702D52B69012BAFD123686A6923F039
:10217C00F80343EAC203236085E72A695A4B6AB124
:10218C0001221A60FEF72AF8064623689F07ECD452
:10219C00FEF724F8801B0228F7D9ADE71A60FEF78A
:1021AC001DF80646236898077FF56DAFFEF716F805
:1021BC00801B0228F6D99FE7AA694A4C4B4BDAB12F
:1021CC0001221A60FEF70AF80646636A9B070DD5D2
:1021DC004FF4FA52464B1B68B3FBF2F3019300BF6A
:1021EC00019B5A1E0192002BF9D150E7FDF7F6FF27
:1021FC00801B0228E9D97FE71A60FDF7EFFF06463E
:10220C00636A9F077FF543AFFDF7E8FF801B022849
:10221C00F6D971E7334CE369D80024D40127E3697C
:10222C0043F08053E361E36903F080530093009B18
:10223C00304E3368D90518D5EB68012B26D1236AAB
:10224C0043F001032362FDF7C9FF41F28836804653
:10225C00236A9B073FD5002F3FF41DAFE36923F0A2
:10226C008053E36117E70027E2E7336843F4807398
:10227C003360FDF7B3FF80463368DA05DCD4FDF735
:10228C00ADFFA0EB08006428F6D935E7ABB9236A9B
:10229C0041F2883823F001032362236A23F00403FC
:1022AC002362FDF79BFF0646236A9807D3D5FDF7FB
:1022BC0095FF801B4045F7D91EE7052B236A03D1F8
:1022CC0043F004032362BAE723F001032362236A79
:1022DC0023F00403B6E7FDF781FFA0EB0800B04242
:1022EC00B6D909E700100240000042428004424285
:1022FC003401002000700040224C636803F00C0392
:10230C00082B3FF4E2AE00231F4E022A33602BD180
:10231C00FDF764FF0746236899011FD42B6AB3F5B8
:10232C00803F05D16268A96822F400320A436260DA
:10233C00696A62680B4322F47412134363600123CD
:10234C003360FDF74BFF054623689A013FF5A7AEB6
:10235C00FDF744FF401B0228F6D9CDE6FDF73EFF02
:10236C00C01B0228D7D9C7E6FDF738FF05462368FE
:10237C009B017FF594AEFDF731FF401B0228F6D987
:10238C00BAE600BF001002406000424230B5194B63
:10239C0087B002AC03F1100522461868596808335F
:1023AC0003C2AB421446F7D101238DF8043002234B
:1023BC0011498DF805304B6803F00C02082A17D12F
:1023CC00C3F3834206A80244DB0312F8102C0CD58D
:1023DC004B680A48C3F34043504306AA134413F80E
:1023EC00143CB0FBF3F007B030BD05485043FAE79E
:1023FC000248F8E7C86F00080010024000127A008B
:10240C0000093D004D4A2DE9F0411368054603F0E3
:10241C0007038B420E4628D32A68910732D4D20781
:10242C0038D4464A136803F007039E4273D32A68D4
:10243C00434C12F0040F79D1130706D563682A694F
:10244C0023F4605343EAC2036360FFF79FFF6368A2
:10245C003C4AC3F30313D35CD8403B4B18600020B9
:10246C00FDF77AFE0020BDE8F081136823F0070326
:10247C000B431360136803F007039942CCD001207F
:10248C00BDE8F0812E49A8684B6823F0F0030343A4
:10249C004B60C4E76A682A4C012A23681CD113F4E8
:1024AC00003FECD0636841F2883823F003031343F8
:1024BC006360FDF793FE6B680746012B14D16368CC
:1024CC0003F00C03042BACD0FDF788FEC01B404579
:1024DC00F5D90320BDE8F081022A02D113F0007F68
:1024EC00DFE713F0020FDCE7022B0FD1636803F078
:1024FC000C03082B95D0FDF771FEC01B4045F5D998
:10250C00E7E7FDF76BFEC01B4045E2D8636813F0AC
:10251C000C0FF6D185E7136823F0070333431360E0
:10252C00136803F007039E42A9D180E76368E9684A
:10253C0023F4E0630B4363607EE700BF002002409E
:10254C0000100240D385000834010020014B1868AC
:10255C00704700BF34010020044B054A5B68C3F38D
:10256C000223D35C034A1068D84070470010024025
:10257C00E385000834010020044B054A5B68C3F373
:10258C00C223D35C034A1068D84070470010024045
:10259C00E38500083401002003682DE9F341D907D5
:1025AC00054620D5354CE369DA0032D40127E369BE
:1025BC0043F08053E361E36903F080530193019B83
:1025CC002F4E3368DB0526D5236A13F4407336D1BE
:1025DC00236A6A6823F44073134323621FB1E369CF
:1025EC0023F08053E3612868830706D5234AA96842
:1025FC00536823F440430B43536010F010001BD07E
:10260C001E4AE9685368002023F480030B4353608F
:10261C0012E00027D4E7336843F480733360FDF78E
:10262C00DDFD80463368D805CED4FDF7D7FDA0EB91
:10263C0008006428F6D9032002B0BDE8F0816A686E
:10264C0002F440729342C3D001200E4A236A1060F8
:10265C00002023F4407110602162D907B8D5FDF732
:10266C00BDFD41F288380646236A9A07B0D4FDF7BF
:10267C00B5FD801B4045F7D9DDE700BF00100240D7
:10268C00007000404004424270B50446354B86B0A1
:10269C0002AD03F110062A4618685968083303C2C4
:1026AC00B3421546F7D101238DF8043002239C4226
:1026BC008DF8053047D0102C17D0012C4FD140F29B
:1026CC000231294A136A1940B1F5817F44D003F4D1
:1026DC004073B3F5007F2DD149F64040536A13F097
:1026EC00020F08BF002006B070BD1F4B5968186858
:1026FC0010F08070F7D0C1F3834206A8024412F8A0
:10270C00100CCA0341BF5A6806A9C2F340425218C2
:10271C0044BF12F8141C154A5B684CBFB2FBF1F2B3
:10272C00134A5B0202FB00F0DDD403234000B0FB34
:10273C00F3F0D8E7B3F5407F11D113684FF2244082
:10274C0013F4003FCDE7FFF717FF074B5B68C3F3AC
:10275C00813301335B00EAE74FF40040C3E700200C
:10276C00C1E700BFD86F00080010024000127A00C9
:10277C0000093D00036830B59A69D869996995B22A
:10278C008CB2A5421DBFD86980B240EA014080B22C
:10279C0008BF40EA024030BD0368186A5B6A9BB20E
:1027AC0043EA004070470023092803D840EA03108D
:1027BC00C0B270470A380133C0B2F5E70A220309E8
:1027CC0000F00F0002FB0300C0B27047022970B585
:1027DC004FF0170300F5FA654FF009061AD84B4372
:1027EC0000F2CF74B3FBF6F04FF4C873B4FBF3F301
:1027FC0004322A44104400EB940018446423B4FBC4
:10280C00F3F4001B0723B0FBF3F3C3EBC303C01AB1
:10281C00C0B270BD03FB01F0B0FBF6F002322A44EB
:10282C004FF4C87310446422B5FBF3F3B5FBF2F21A
:10283C0000EB95001844801AE4E738B50446FDF720
:10284C00CDFC054623685A68920605D55A680020C7
:10285C0042F010025A6038BDFDF7C0FC401BB0F5C9
:10286C007A7FEFD9032038BD026838B55368044627
:10287C0023F010035360FDF7B1FC054623685B6839
:10288C009B0601D5002038BDFDF7A8FC401BB0F518
:10289C007A7FF3D9032038BD38B505460C46FFF7CF
:1028AC00CCFF58B92B68220CA4B29A612846DC6183
:1028BC00FFF7DAFF003018BF012038BD012038BD0A
:1028CC0038B505460C46FFF7B8FF58B92B68220CF3
:1028DC00A4B21A6228465C62FFF7C6FF003018BF2C
:1028EC00012038BD012038BD70B50446E0B1D9B126
:1028FC00037C0226012B46D001234674037408780E
:10290C004E78897892B93C254FF46163754303FB8B
:10291C000050451829462046FFF7BEFF0646B0B1C9
:10292C00042363740023237401262CE0FFF746FF75
:10293C0005463046FFF742FF3C2358434FF4616392
:10294C0003FB05050846FFF739FF0544E2E722685B
:10295C002046536823F005035360FFF71DFF431C0B
:10296C000DD085420BD900F5A83101F5C071204678
:10297C00FFF7A6FF18B1042326746374D4E7012370
:10298C00637400232374304670BD00002DE9F843B6
:10299C000D469046044610B90120BDE8F883002985
:1029AC00FAD003685B685E07F6D4FFF7E3FE4FF4DA
:1029BC006162B0FBF2F3074602FB13023C20B2FB50
:1029CC00F0F100FB1122172B6970AA7040F2858080
:1029DC001821B3FBF1F201FB123320462B70FFF7E9
:1029EC00DBFE411C064604D087422CBF4FF0FF365D
:1029FC00C61B404B2046B7FBF3F903FB197949463C
:102A0C00FFF74AFF0028C7D1721C2FD009EB060133
:102A1C002046FFF755FF0028BED1364B0026B7FBEA
:102A2C00F3F74FF0640E4FF4C87C40F2D529E07BED
:102A3C00617BA27BB7421BD1C9B2D2B2E073617386
:102A4C00A273FFF7C3FE2073B8F1000F0BD02878E8
:102A5C00FFF7A9FE28706878FFF7A5FE6870A878C4
:102A6C00FFF7A1FEA8700020BDE8F8833146CFE740
:102A7C004B1E092B35D829FA03F3DB072FD421F091
:102A8C000203042B01D0092B04D11D2A06D90131D4
:102A9C0001222DE002292BD11B2A01D8013227E07B
:102AAC001C2A13D182B2930712D1B2FBFEF30EFB98
:102ABC0013239BB27BB9B2FBFCF30CFB13239BB22D
:102ACC00002B16BF01221D22032111E01D2A0FD15C
:102ADC00012203210CE01D220AE02B70B4E71E2A10
:102AEC00D4E70C29CBD11E2AD8D9012211460130AA
:102AFC0001369FE78051010070B50D46044658B36E
:102B0C0051B3037C0220012B27D001236074237462
:102B1C00C8781ABBE0734B7863738B78A373A27B72
:102B2C00617BE07BFFF752FE207328702046FFF795
:102B3C0021FE1C4B984230D9A3F60F63B0FBF3F582
:102B4C0003FB150520462946FFF7A6FE064688B16D
:102B5C000423637400232374012070BDFFF72EFE41
:102B6C00E0734878FFF72AFE60738878FFF726FE3B
:102B7C00A073D4E72046FFF70FFE431C0DD085420F
:102B8C000BD900F5A83101F5C0712046FFF798FE6E
:102B9C0018B1042326746374DEE7012300206374E8
:102BAC00207470BD8F5F0100F7B5174600220C46EC
:102BBC00ADF804208DF80620054618B90122104600
:102BCC0003B0F0BD0029F9D001A9FFF7DFFE0246E2
:102BDC000028F3D12B7B2370E87BE0706E7B667052
:102BEC00A97BA170002FEAD0FFF7DDFDE070304625
:102BFC00FFF7D9FD60700846FFF7D5FDA070DEE742
:102C0C002DE9F347924600228846ADF804208DF852
:102C1C000620044618B9012002B0BDE8F08700294F
:102C2C00F9D0037C012B4FF0020354D001214374E3
:102C3C00017401A9FFF7AAFE0028ECD13C264FF441
:102C4C0061699DF805309DF80450734309FB053507
:102C5C009DF8063098F8000098F801701D4498F81B
:102C6C000280BAF1000F13D17E4309FB006000EB28
:102C7C000801A9423CBF01F5A83101F5C0712046FD
:102C8C00FFF71EFE90B10423637400232374C2E784
:102C9C00FFF794FD01463846FFF790FD704309FBA2
:102CAC0001014046FFF78AFD0144E2E76FF00202A2
:102CBC0023685A601A6842F002021A60074B1A68BD
:102CCC0042F400321A609A6842F400329A6001238E
:102CDC0020746374A0E718469EE700BF000401400F
:102CEC00036810B51A680446920708D55B689B0701
:102CFC0005D502F0AFF86FF0020223685A604FF46A
:102D0C000032024B5A610123637410BD0004014070
:102D1C0038B50446A8B10268536823F00803536021
:102D2C00FDF75CFA054623685B681B0701D500209C
:102D3C0038BDFDF753FA401BB0F57A7FF3D9032069
:102D4C0038BD012038BD000010B5044670B1437C7D
:102D5C0003F0FF0213B9027402F022FA0223204698
:102D6C006374FFF7D5FF18B104236374012010BD01
:102D7C002046FFF762FD0028F6D12268A068536850
:102D8C0023F007035360174A18B1116B21F00101AE
:102D9C001163D36A23F460730343D3626068431CEA
:102DAC0005D10120FFF770FC0028DDD00138226826
:102DBC00936823F00F0343EA10439360D36880B207
:102DCC001B0C1B041843D0602046FFF74DFD01235C
:102DDC0010B104226274C9E7E0736373A373637464
:102DEC0010BD00BF006C004003680020DA6842F0A0
:102DFC000102DA601A6842F001021A60704790F81A
:102E0C003C3070B5012B4FF002031CD0012280F82E
:102E1C003D30036880F83C209A6822F47F4222F00F
:102E2C0077029A600A68402A79D019D8102A00F0E3
:102E3C0093800AD8002A00F08980012380F83D3065
:102E4C00002380F83C30184670BD202A00F08A80A0
:102E5C00302AF2D19A6822F0700242F0370236E042
:102E6C00702A36D01BD8502A42D0602AE5D11C6A71
:102E7C004D6824F01004CE681C6299691A6A21F41A
:102E8C00704122F0A00242EA051241EA0631996132
:102E9C001A629A6822F0700242F0670217E0B2F5EB
:102EAC00805F11D0B2F5005FC7D18A684D689C680D
:102EBC00C9682A4324F47F4442EA012222439A60DF
:102ECC009A6842F4804202E09A6822F007029A6003
:102EDC00B3E78A684D689C68C9682A4324F47F4428
:102EEC0042EA012222439A609A6842F07702EEE7A6
:102EFC004C68CE68196A1D6A21F00A0125F001059B
:102F0C001D629A69214322F0F00242EA06129A618C
:102F1C0019629A6822F0700242F05702D7E74C68A7
:102F2C00CE68196A1D6A21F00A0125F001051D629F
:102F3C009A69214322F0F00242EA06129A61196260
:102F4C009A6822F0700242F04702C0E79A6822F0B9
:102F5C00700242F00702BAE79A6822F0700242F05F
:102F6C001702B4E79A6822F0700242F02702AEE72B
:102F7C007047704770477047036810B51A6904466C
:102F8C0091070ED5DA6892070BD56FF002021A6121
:102F9C0001229B6902779B0777D0FFF7EAFF00239A
:102FAC00237723681A69500710D5DA6851070DD5B5
:102FBC006FF004021A6102229B69227713F4407F9E
:102FCC00204668D0FFF7D5FF0023237723681A69C2
:102FDC0012070FD5DA6810070CD56FF008021A61CA
:102FEC000422DB692277990720465AD0FFF7C1FFEC
:102FFC000023237723681A69D20610D5DA68D00625
:10300C000DD56FF010021A610822DB69227713F4D8
:10301C00407F20464BD0FFF7ACFF0023237723687B
:10302C001A69D10708D5DA68D20705D56FF0010205
:10303C0020461A6101F0DAFE23681A69100608D5D9
:10304C00DA68110605D56FF0800220461A6100F08F
:10305C00AAF823681A69520608D5DA68500605D50D
:10306C006FF0400220461A61FFF785FF23681A694A
:10307C00910622D5DA6892061FD56FF02002204601
:10308C00BDE810401A6100F08DB8FFF771FF2046C3
:10309C00FFF770FF83E7FFF76BFF2046FFF76AFF30
:1030AC0092E7FFF765FF2046FFF764FFA0E7FFF705
:1030BC005FFF2046FFF75EFFAFE710BD1A4A0368BB
:1030CC0090420AD0B0F1804F07D0A2F594329042D2
:1030DC0003D002F58062904215D14A6823F0700348
:1030EC001343114A90420AD0B0F1804F07D0A2F599
:1030FC009432904203D002F58062904203D1CA68A8
:10310C0023F4407313434A6923F080031343036091
:10311C008B68C3620B688362034B984204BF0B69D4
:10312C000363012343617047002C014010B5044632
:10313C00A0B190F83D3003F0FF021BB980F83C20A1
:10314C0002F0D2FA0223206884F83D30211DFFF7EB
:10315C00B5FF0123002084F83D3010BD012010BDC7
:10316C0090F83C3010B5012B4FF0020318D080F8CA
:10317C003D3003680C685A68496822F070025A6046
:10318C005A6822435A609A6822F080029A609A68C0
:10319C000A439A60012380F83D30002380F83C30CC
:1031AC00184610BD704770470368DA6822F49072B5
:1031BC00DA605A6922F001025A61202380F83A3011
:1031CC00704700002DE9F0470568C2682B6901695A
:1031DC0023F4405313432B618368EA680B43416922
:1031EC0022F4B05222F00C020B431343EB606B69D8
:1031FC00826923F4407313436B61404B81469D42BB
:10320C004FF0190446D1FFF7B7F904FB00F3D9F8D6
:10321C0004604FF06408B600B3FBF6F3B3FBF8F3AD
:10322C001E01FFF7A9F96043D9F804309B00B0FBED
:10323C00F3F7FFF7A1F96043D9F804309B00B0FB1A
:10324C00F3F3B3FBF8F308FB13731B013233B3FB3B
:10325C00F8F303F0F007FFF78FF96043D9F8042077
:10326C009200B0FBF2FAFFF787F96043D9F804300B
:10327C009B00B0FBF3F3B3FBF8F308FB13A31B01A8
:10328C003233B3FBF8F303F00F033B433344AB602F
:10329C00BDE8F087FFF760F904FB00F3D9F8046090
:1032AC004FF06408B600B3FBF6F3B3FBF8F31E0162
:1032BC00FFF752F96043D9F804309B00B0FBF3F7E9
:1032CC00FFF74AF96043D9F804309B00B0FBF3F3E5
:1032DC00B3FBF8F308FB13731B013233B3FBF8F3A6
:1032EC0003F0F007FFF738F96043D9F80420920097
:1032FC00B0FBF2FAFFF730F9B7E700BF0038014036
:10330C00F8B504460E4617461D4621680B6836EA8A
:10331C00030301D10020F8BD6B1CF7D095B92368CD
:10332C000320DA6822F4D072DA605A6922F00102C2
:10333C005A61202384F8393084F83A30002384F819
:10334C003830F8BDFCF74AFFC01B8542DDD2E6E7FA
:10335C0010B5044640B390F8393003F0FF021BB9A6
:10336C0080F8382002F02EFA2423226884F83930B1
:10337C00D368204623F40053D360FFF723FF236860
:10338C0000201A6922F490421A615A6922F02A022A
:10339C005A61DA6842F40052DA602023E06384F860
:1033AC00393084F83A3010BD012010BD2DE9F041C0
:1033BC001F4690F839300446202B0D4690464ED1CE
:1033CC00002949D0002A47D090F83830012B46D03C
:1033DC00012380F838300023C363212380F839306F
:1033EC00FCF7FCFE0646A4F82480A4F82680E38CA7
:1033FC009BB26BB93B46324640212046FFF780FF1B
:10340C00A8B9202384F8380084F83930BDE8F0815D
:10341C00E38C3246013B9BB2E384A3688021B3F575
:10342C00805F20463B460ED1FFF76AFF10B10320A8
:10343C00BDE8F0812B882268C3F30803536023692D
:10344C0043B90235D3E7FFF75BFF0028EFD12368C0
:10345C002A785A600135CAE70120BDE8F0810220C4
:10346C00BDE8F08190F83A30202B20D1E9B1E2B1DF
:10347C0090F83830012B1AD0C28582850023222285
:10348C00C36380F83A2002688162D16880F83830D2
:10349C0041F48071D1605169184641F001015161CC
:1034AC00D16841F02001D1607047012070470220A3
:1034BC007047704790F83A3010B5222B36D183689C
:1034CC000169B3F5805F0268836A23D15268E9B958
:1034DC00C2F3080223F8022B8362C48D013CA4B210
:1034EC00C4858CB90368DA6822F02002DA60DA68E5
:1034FC0022F48072DA605A6922F001025A612023A8
:10350C0080F83A3001F0B6FD002010BDD2B223F89D
:10351C00012BE1E721B9591C526881621A70DCE772
:10352C005268591C816202F07F02F7E7022010BD3D
:10353C0070470000036870B51A6804461607D9680E
:10354C005D6907D196065AD58D0658D5BDE87040F1
:10355C00FFF7B0BF15F0010502D111F4907F4ED0EA
:10356C00D30705D5CE0542BFE36B43F00103E363FC
:10357C00500704D51DB1E36B43F00203E3639307DB
:10358C0004D51DB1E36B43F00403E363160704D5C4
:10359C001DB1E36B43F00803E363E36B002B66D0D0
:1035AC00950604D5880602D52046FFF783FF2368CD
:1035BC0020465D69E26B110702D415F040051AD064
:1035CC00FFF7F2FD23685A69520610D55A69606BF1
:1035DC0022F040025A6150B1254B4363FCF7B2FE16
:1035EC00002844D0606BBDE87040436B1847204600
:1035FC00FFF79EFF70BDFFF79BFFE56370BD1606DE
:10360C0027D50D0625D594F83920212A2FD1A2686B
:10361C00B2F5805F226A17D11188C1F30801596095
:10362C00216979B902322262E28C013A92B2E284C7
:10363C00EAB9DA6822F08002DA60DA6842F0400215
:10364C00DA6070BD0132EEE7511C216212785A60CB
:10365C00EAE750060BD54A0609D5DA68204622F06F
:10366C004002DA60202384F83930FFF722FF70BD66
:10367C008136000808B50023406AC385C384FFF770
:10368C0057FF08BD84B001A880E80E0004B00020EC
:10369C007047B0F840309BB243F43F43A0F8403041
:1036AC0000207047B0F8403023F474535B045B0C7B
:1036BC00A0F84030002070470020704784B010B54F
:1036CC0003AC84E80E00BDE8104000220123A0F8F2
:1036DC004030A0F84020A0F84420A0F85020B0F8CA
:1036EC00403004B09BB243F43F43A0F84030104646
:1036FC007047000070B5CB780A78032B0FD8DFE841
:10370C0003F00264505930F8223023F4EC4323F0D8
:10371C0070031B041B0C43F4007320F8223040F69A
:10372C000F730C7830F8242044F4004545F08005E4
:10373C001A402A4320F824208A7A0D78002A40F077
:10374C0097804C788A88002C4AD0B0F850405208A8
:10375C00A4B204EBC50400EB44045200C4F80024EA
:10376C000C7830F82420520608D530F82420134069
:10377C0043F4004343F0C00320F824300A7830F8B7
:10378C00223023F4E04323F040031B041B0C83F092
:10379C00200343F4004343F0800320F82230002040
:1037AC0070BD30F8223023F4EC4323F070031B047B
:1037BC001B0CB2E730F8223023F4EC4323F07003F7
:1037CC001B041B0C43F4C063A7E730F8223023F42E
:1037DC00EC4323F070031B041B0C43F480639CE745
:1037EC00B0F8503052089BB2043303EBC5035200BF
:1037FC0000F5806444F81320B0F850200D6992B2A3
:10380C000B7806323E2D02EBC30229D9C5F34F16B5
:10381C00EB0604BF06F1FF339EB26E4B43EA8623E0
:10382C009BB244F812300A7830F822305E040BD583
:10383C0030F8223023F0F0031B051B0D43F44043FA
:10384C0043F0800320F822300A7830F8223023F439
:10385C00804323F070031B041B0C83F4405398E744
:10386C00C5F34F03ED0744BF01339BB29B02D7E76F
:10387C0030F8252022F4F8721205120D42F40142A0
:10388C0042F0800220F82520B0F850200C7892B23B
:10389C0002EBC402CC8800F580656408640045F82E
:1038AC001240B0F850200C7892B2043202EBC402F1
:1038BC000C896408640045F812404A780C78002A98
:1038CC0047D130F82420550408D530F82420134073
:1038DC0043F4404343F0800320F824300A7830F856
:1038EC0022305C060BD530F8223023F0F0031B0598
:1038FC001B0D43F4004343F0C00320F822300A7838
:10390C0030F8223023F0F0031B051B0D43F4004369
:10391C0043F0C00320F8223048F280020C7830F8D3
:10392C00243023F4804323F070031B041B0C83F41A
:10393C004053134320F82430097830F8213023F415
:10394C00E04323F040031B041B0C134320F82130ED
:10395C0025E730F82420520408D530F824201340F1
:10396C0043F4404343F0800320F824300A7830F8C5
:10397C0022305B060BD530F8223023F0F0031B0508
:10398C001B0D43F4004343F0C00320F822300A78A7
:10399C0030F8223023F0F0031B051B0D43F4404399
:1039AC0043F0800320F8223048F280020C7830F883
:1039BC00243023F4E04323F040031B041B0C13437B
:1039CC0020F82430097830F8213023F4804323F098
:1039DC007003B8E70080FFFF10B58C7A4A780B783B
:1039EC00CCBB02B330F8232052060BD530F8232081
:1039FC0022F0F0021205120D42F4004242F0C00215
:103A0C0020F823200A7830F8223023F4E04323F006
:103A1C0040031B041B0C43F4004343F0800320F8C9
:103A2C002230002010BD30F8232054040BD530F880
:103A3C00232022F0F0021205120D42F4404242F013
:103A4C00800220F823200A7830F8223023F48043B7
:103A5C0023F07003DDE7002A48D130F8232052040C
:103A6C000BD530F8232022F0F0021205120D42F48F
:103A7C00404242F0800220F823200A7830F82230AD
:103A8C005C060BD530F8223023F0F0031B051B0D20
:103A9C0043F4004343F0C00320F822300A7830F896
:103AAC00223023F0F0031B051B0D43F4004343F0BD
:103ABC00C00320F8223048F280020C7830F8243011
:103ACC0023F4804323F070031B041B0C134320F8D6
:103ADC002430097830F8213023F4E04323F04003FC
:103AEC001B041B0C134320F821309AE730F82320D9
:103AFC0052040BD530F8232022F0F0021205120DDF
:103B0C0042F4404242F0800220F823200A7830F838
:103B1C0022305B060BD530F8223023F0F0031B0566
:103B2C001B0D43F4004343F0C00320F822300A7805
:103B3C0030F8223023F0F0031B051B0D43F44043F7
:103B4C0043F0800320F8223048F280020C7830F8E1
:103B5C00243023F4E04323F040031B041B0C1343D9
:103B6C0020F82430097830F8213023F4804323F0F6
:103B7C007003B5E70A788AB9038823F4804323F0ED
:103B8C0040031B041B0C83F4805383F0100343F499
:103B9C00004343F080030380002070474B7883B1CF
:103BAC0030F8223023F4E04323F040031B041B0CB9
:103BBC0083F0100343F4004343F0800320F82230D9
:103BCC00EAE730F8223023F4804323F070031B041F
:103BDC001B0C83F48053EDE74B780A7813B330F861
:103BEC0022305B060BD530F8223023F0F0031B0596
:103BFC001B0D43F4004343F0C00320F822300A7835
:103C0C0030F8223023F4E04323F040031B041B0C58
:103C1C0083F0300343F4004343F0800320F8223058
:103C2C000020704730F822305B040BD530F822307E
:103C3C0023F0F0031B051B0D43F4404343F08003BA
:103C4C0020F822300A7830F8223023F4804323F015
:103C5C0070031B041B0C83F44053DBE711B9802366
:103C6C00A0F84C30002070470020704700207047AF
:103C7C00B0F8440080B270470020704710B50024A3
:103C8C00013300F580605B1000EB4202A34200D1CF
:103C9C0010BD31F8020B22F824000134F6E70000C5
:103CAC0070B50E468A694978054601293369B07AA0
:103CBC0066D19A421C469BBF00231446D21AB361AC
:103CCC0088BFB261A3B210BBB28871692846FFF7F6
:103CDC00D5FFB5F8503032789BB2023303EBC203F8
:103CEC0005EB4303C3F80044327835F8223023F453
:103CFC00E04323F040031B041B0C83F0300343F41C
:103D0C00004343F0800325F82230002070BD327848
:103D1C0035F82210D20011F0400FB5F8501089B2CE
:103D2C001AD002310A4405EB4202C2F8004432892F
:103D3C0071692846FFF7A2FF737832789BB935F882
:103D4C00223023F0F0031B051B0D43F4004343F01A
:103D5C00C00325F82230C7E70A4405EB4202C2F83B
:103D6C000444F288E4E7012BBED135F8223023F06D
:103D7C00F0031B051B0D43F4404343F08003E8E7BD
:103D8C009A4293BF0023D21AB261B36198BF134613
:103D9C00327870BBB5F850103E2B89B201F1060198
:103DAC0001EBC20105F5806018D9C3F34F12DB0695
:103DBC0004BF02F1FF339AB2384B43EA82239BB221
:103DCC0040F81130327835F8223023F4804323F058
:103DDC0070031B041B0C83F4405390E7C3F34F0296
:103DEC00DC0744BF013292B2920292B240F8112029
:103DFC00E8E7B9B9B5F850103E2B89B201F10201D0
:103E0C0001EBC20105F5806428D9C3F34F10DA0623
:103E1C0004BF00F1FF3290B2204A42EA802292B2F3
:103E2C0044F81120727831785ABBB5F850203E2BEB
:103E3C0092B202F1060202EBC10205F5806015D9BF
:103E4C00C3F34F11DC0604BF01F1FF3399B2134BDE
:103E5C0043EA81239BB240F81230B3E7C3F34F021D
:103E6C00D80744BF013292B29202D8E7C3F34F0194
:103E7C00DB0744BF013189B2890289B240F81210C4
:103E8C00A0E7012A9ED1B5F8502092B2023202EB83
:103E9C00C10205EB4202C2F8003493E70080FFFF39
:103EAC0010B50024013300F580605B1000EB42027A
:103EBC00A34200D110BD52F8240021F814000134A3
:103ECC00F6E7D0F818321BB10020C3F81402704783
:103EDC0002207047D0F81C3210B5D0F818425BB1F4
:103EEC0094F80002FF2807D09B6894F80122214621
:103EFC009847FF2384F80032002010BD4323038031
:103F0C00004870474000002043230380004870475E
:103F1C00840000204323038000487047D400002015
:103F2C000A23038000487047C800002038B50546B6
:103F3C00D0F8184201F0E8FDD5F81832C4F80C029C
:103F4C004BB1D5F81C3204F50371DB68D4F80402CC
:103F5C009847002038BD022038BD0000F8B50F7816
:103F6C00064617F060030C4623D0202B19D1CA88C3
:103F7C004B78C2B13906D0F818520BD5D0F81C12B8
:103F8C0018468F682946B84729463046E28800F023
:103F9C0072FB06E085F8003285F80122294600F014
:103FAC007FFB0020F8BDD0F81C0284681846A0479F
:103FBC00F7E74B780A2BF4D101220149E7E700BF60
:103FCC006C03002010B50446812101F039FD01215C
:103FDC00204601F035FD8221204601F031FDD4F858
:103FEC00183253B1D4F81C325B689847D4F81802D5
:103FFC0001F094FD0023C4F81832002010BDF8B570
:10400C00037C04467BBB4FF400730222812101F038
:10401C0007FD4FF4007302220121204601F000FD40
:10402C00082303228221204601F0FAFC4FF407708A
:10403C0001F070FD0646C4F8180220B30025D4F830
:10404C001C321B689847277CC6F81452C6F81852C5
:10405C0087B94FF40073D6F804220121204601F0F1
:10406C0045FD3846F8BD40230222812101F0D8FCE1
:10407C004023D0E74023D6F804220121204601F04A
:10408C0035FD2846F8BD0120F8BD19B1C0F81C1249
:10409C000020704702207047D0F818320020C3F877
:1040AC000812C3F810227047D0F818320020C3F859
:1040BC0004127047D0F8182210B562B1047C44B9D0
:1040CC004FF40073D2F80422012101F00FFD0020FF
:1040DC0010BD4023F6E7022010BD08B580B1D0F822
:1040EC00143213B10023C0F8143209B1C0F8101205
:1040FC000123027080F8FC3101F03CFC002008BD6B
:10410C00022008BD19B1C0F814120020704702201B
:10411C00704708B501F076FC002008BD08B5D0F852
:10412C0014320BB9022008BD1B6898470028F9D13E
:10413C0008BD08B5D0F814325B689847002008BD5C
:10414C0038B500F502750446284600F064FA0123E0
:10415C0094F80812C4F8F431B4F80E32C4F8F831FB
:10416C0001F01F03012B0ED007D3022B10D001F04E
:10417C008001204601F072FC03E02946204600F045
:10418C00D5F8002038BD2946204600F0C9F9F8E7DB
:10419C002946204600F0DCF9F3E738B5044615460D
:1041AC0011BBD0F8F431032B0FD1D0F80C31D0F86F
:1041BC00102193420BD99B1A9A4228BF1A46C0F879
:1041CC000C3192B2294600F07AFA002038BDD0F8B2
:1041DC0014321B6923B190F8FC21032A00D19847B3
:1041EC00204600F074FAF0E7D0F814329B69002BEB
:1041FC00EBD090F8FC21032AE7D19847E5E770B59E
:10420C00134604460E4600293DD1D0F8F421022A6B
:10421C000FD1C569026A954214D9AA1AC26119460E
:10422C0092B200F035FA33461A461946204601F090
:10423C005DFC94F80032012B02D1002384F800328B
:10424C00002070BD8369B3FBF2F502FB153565B92F
:10425C009A420AD8D0F8F821934206D22A4600F0A6
:10426C0017FAC4F8F8512B46DEE7D4F81432DB68A1
:10427C002BB194F8FC21032A01D120469847204603
:10428C0000F030FAD5E7D0F814325B69002BD7D0A8
:10429C0090F8FC21032AD3D19847D1E7002238B5F6
:1042AC00044640251146402301F0BAFB2B46C4F8C6
:1042BC00105100228021204601F0B2FB012384F82A
:1042CC00FC31D4F8183225622BB1D4F81432217990
:1042DC005B6820469847002038BD01740020704769
:1042EC0090F8FC3180F8FD31042380F8FC3100207B
:1042FC00704790F8FD3180F8FC310020704708B50C
:10430C0090F8FC21032A04D1D0F81432DB6903B1F4
:10431C009847002008BD10B50446802101F09EFB93
:10432C002046BDE81040002101F098BB37B54B7812
:10433C0004460D46092B79D8DFE813F0C900E500D7
:10434C007800D90078006D000A007800B9008D0063
:10435C004B881A0A013A062A68D8DFE802F0041CD6
:10436C00296767495200D0F810321B680DF106011D
:10437C00207C9847BDF80620002A67D0EB88002BDC
:10438C0064D09A4228BF1A460146ADF80620204652
:10439C0000F071F95AE0027CD0F8143232B99B6A01
:1043AC000DF10600984702234370E3E7DB6AF7E759
:1043BC00DBB2052B3AD8DFE803F003070B0F13171A
:1043CC00D0F810325B68D1E7D0F810329B68CDE79B
:1043DC00D0F81032DB68C9E7D0F810321B69C5E79A
:1043EC00D0F810325B69C1E7D0F810329B69BDE799
:1043FC00037CDBB9D0F814320DF106005B6B9847E7
:10440C00B8E7037C93B9D0F814320DF106001B6B9E
:10441C0098470723C8E78B8843B9CB8833B990F802
:10442C00FC318D78032B05F07F0503D12046FFF777
:10443C0072FF0BE080F8FE51294601F03BFB204651
:10444C0000F045F92DB1022384F8FC31002003B0B3
:10445C0030BD0123F8E78978304D01292970E5D862
:10446C0090F8FC31022B0CD0032BDFD1B1B9022315
:10447C00416080F8FC31FFF75CFE204600F027F924
:10448C00E4E70029F9D001210323416080F8FC31D5
:10449C002046FFF743FE0228EFD1C7E74168012908
:1044AC00EBD0C9B2FFF745FE29786160F0E7CA8806
:1044BC00012ABBD190F8FC31022B03D0032BB5D1D0
:1044CC00011D64E70146002341F8083F5FE790F8BF
:1044DC00FC31023B012BA9D80123C360D0F8043274
:1044EC000BB10323C360022204F10C014FE74B888C
:1044FC00012BABD1C4F80432D4F8143229469B6892
:10450C0020469847B9E790F8FC31023B012B8DD837
:10451C004B88012B9AD10023ECE700BF6D030020E0
:10452C0038B590F8FC310446032B0D460DD10B79B0
:10453C00012B0AD8D0F814329B689847EB8813B932
:10454C00204600F0C4F8002038BDFFF7E4FEFAE77F
:10455C0070B50A788E8802F06002202A04460D4657
:10456C00F3B205D1D0F814329B689847002070BD87
:10457C004A78012A1CD02AD3032AF7D190F8FC21BF
:10458C00022A40D0032A02D0FFF7C5FEEEE74A8884
:10459C0022B95E0602D0194601F060FAD4F8143242
:1045AC0029469B6820469847204600F090F8DDE7A6
:1045BC0090F8FC21022A26D0032AE5D14A88002A49
:1045CC00D4D15906F0D0194601F056FAE6E790F826
:1045DC00FC21022A17D0032AD6D103F07F0516F04E
:1045EC00800F00EB0515194614BF143505F58275BF
:1045FC0001F050FA68B101232B60022229462046B3
:10460C0000F039F8B2E75A06B0D0194601F026FA94
:10461C00ACE72860F1E70B7803704B784370CA78ED
:10462C008B7803EB022343804A790B7903EB02234B
:10463C008380CA798B7903EB0223C380704730B532
:10464C0088B105462B1A15F8014BDBB2002CF9D1B9
:10465C005B00023313800B7003234B700223013871
:10466C0010F8015F05B930BD5A1CCD54D2B20233DB
:10467C00DBB28C54F4E71346022210B5C0F8F421D7
:10468C0083610A46C361002101F022FA002010BDAB
:10469C0008B513460A46002101F01AFA002008BD9D
:1046AC001346032210B5C0F8F421C0F808310A46AD
:1046BC00C0F80C31002101F019FA002010BD08B52A
:1046CC0013460A46002101F011FA002008BD08B576
:1046DC000423C0F8F43100231A46194601F0F8F906
:1046EC00002008BD08B50523C0F8F43100231A4694
:1046FC00194601F0FBF9002008BD00000E4B07B570
:10470C005A690E2042F001025A6100225B6911467F
:10471C0003F001030193019BFBF778FD0E20FBF7DF
:10472C00A9FD00220F201146FBF770FD0F20FBF7AF
:10473C00A1FD03B05DF804FB001002400022034B06
:10474C001A60034A9A600122DA60704770030020F5
:10475C0000FC010808B5FBF7F9FE05490548FBF715
:10476C00A5FF18B1044801F0F3FAFEE708BD00BF3D
:10477C0080030020700300201070000810B5144C4A
:10478C004FF47A72002321460220FBF725FF002804
:10479C00F6D1104C0022002321460220FBF71CFF0F
:1047AC000028F7D10C4C0122002321460220FBF7F4
:1047BC0013FF0028F7D1094C0222002321460220C6
:1047CC00FBF70AFF0028F7D1BDE81040FBF7D0BE7D
:1047DC0000FC010804FC010808FC01080CFC0108A1
:1047EC0013B50190FBF7FAFC0446FBF7F7FC019BB1
:1047FC00001B9842F9D302B010BD00002C4B2DE9E0
:10480C00F0419A6988B042F010029A619A69DFF817
:10481C00AC8002F010020092009A9A69254C42F08A
:10482C0020029A619A69404602F020020192019A94
:10483C009A694FF4004142F004029A619A6900258A
:10484C0002F004020292029A9A69012742F00802CD
:10485C009A619B69002203F008030393039BFCF706
:10486C0053F8002220461821FCF74EF84FF4704301
:10487C000493114B04A92046059302260695FBF7D9
:10488C0063FF4FF4004304A9404604930597069533
:10489C000796FBF759FF182304A9204604930597A4
:1048AC0006950796FBF750FF08B0BDE8F08100BFF6
:1048BC0000100240000C01400000211000080140D3
:1048CC0008B50D480D4BDFF83CE04FF4804280E812
:1048DC000840002302618360C36043618361C3614C
:1048EC000362FCF745F928B1BDE8084050210448A3
:1048FC0000F0FEBB08BD00BFF009002000540040D2
:10490C00E6840008801A060008B50D480D4BDFF848
:10491C003CE04FF4804280E8084000230261836051
:10492C00C36043618361C3610362FCF721F928B161
:10493C00BDE808406321044800F0DABB08BD00BFA5
:10494C00440A002000580040E6840008A0860100BC
:10495C0030B50368384A87B09342054615D1C02359
:10496C00029312230393032302A934480593FBF704
:10497C00EBFE334BDA6942F40012DA61DB6903F4C3
:10498C0000130093009B07B030BD2E4A9342FAD11E
:10499C004FF440630293122303930323274802A985
:1049AC000593FBF7D1FE264B274CDA69204642F4DF
:1049BC008002DA61DB69254A03F480030193019BD1
:1049CC00102384E80C0000238022A360E2602361A2
:1049DC006361A361E361FBF781FC18B19F211C4863
:1049EC0000F086FB1B4B6C6365621B4C80222360C2
:1049FC00002320466360A360E26023616361A361CE
:104A0C00E361FBF76BFC18B1AF21114800F070FBB0
:104A1C000022AC63114621206562FBF7F7FB2120D5
:104A2C00FBF728FC002222201146FBF7EFFB22208B
:104A3C00FBF720FCA7E700BF00540040000C01402E
:104A4C000010024000580040DC0A002044000240E4
:104A5C00E684000858000240980A0020024AD368F5
:104A6C0083F40043D36070470008014010B514462E
:104A7C004FF47A7392B20248FEF798FC204610BDB0
:104A8C00E80C0020052310B594B000220A934FF4D3
:104A9C0080330C920B930122022412934FF4E013F7
:104AAC000AA80D920E9211941393FDF7E3FA00B13C
:104ABC00FEE70F2305934FF480630790099021467E
:104ACC0005A806940893FDF79DFC00B1FEE71123A1
:104ADC0001934FF48073049001A80293FDF75CFDE1
:104AEC00044600B1FEE7FDF731FD4FF47A73B0FBDD
:104AFC00F3F0FBF7CBFB0420FBF7DEFB2246214651
:104B0C004FF0FF30FBF782FB14B010BD2DE9F043E2
:104B1C0095B0FBF745FBFFF7B5FFFFF76FFEFFF70F
:104B2C00EDFD00F00FFE00F0E5FAFFF7EDFE00F0F2
:104B3C0029FE00F06DFD00F08DFEFFF7C1FE00F0C8
:104B4C009DFD002228201146FBF760FB2820FBF777
:104B5C0091FB002225201146FBF758FB2520FBF783
:104B6C0089FB002229201146FBF750FB2920FBF77B
:104B7C0081FB002214201146FBF748FB1420FBF7A5
:104B8C0079FB00221C201146FBF740FB1C20FBF795
:104B9C0071FB002226201146FBF738FB2620FBF781
:104BAC0069FBFFF7CBFDFFF7D5FDFFF7E7FD4C48A1
:104BBC0000F05AFB002000F025FB0021084600F015
:104BCC004BFC01224749484800F034FC12211720C5
:104BDC0000F042FC01224349444800F02BFC00F059
:104BEC001DFB012242494348FEF73CFC012242498D
:104BFC004248FEF737FC4248FEF7F6F84148FEF70C
:104C0C00F3F8414801F0A4F86422404B404D0DAC40
:104C1C001A800FCD0FC495E8070084E8070040F612
:104C2C00B830FFF7DDFD4FF00009DFF81481394D86
:104C3C00394F3B78002BFCD0384C394E00222146A2
:104C4C004046FDF7B1FF002231464046FDF79EFE7F
:104C5C00217814A800EB810151F81C1C6378E278D0
:104C6C000191A17802F5FA62009103A82D4901F097
:104C7C0077F8B17873783278009108A82A4901F056
:104C8C006FF8002000F0BEFA00210E2000F0E4FBCB
:104C9C000122264903A800F0CDFB0C21132000F0C3
:104CAC00DBFB01220F4908A800F0C4FB00F0B6FAA8
:104CBC001F4928460A6800F0D7FF1E4928460A6893
:104CCC0000F0D2FF1C4928460A6800F0CDFF1B49B2
:104CDC0028460A6800F0C8FF87F80090A8E700BFD4
:104CEC00F0090020180100200D8500081E85000821
:104CFC008D030020E80C00208C030020A80C002061
:104D0C00680C0020280C0020278500088403002054
:104D1C00E86F0008888500088B0300208B0B0020AF
:104D2C00880B002067850008798500082001002089
:104D3C0000FC010804FC010808FC01080CFC01083B
:104D4C00140C0020034B1B889BB2192B01D1FFF7CD
:104D5C0085BE704730010020034B1B889BB2642B2F
:104D6C0001D1FFF77BBE704730010020044B1B883C
:104D7C009BB2B3F5FA7F01D1FFF770BE704700BF4D
:104D8C00300100200122054B1A70054B1B889BB289
:104D9C00B3F57A7F01D1FFF761BE70478B0300201A
:104DAC003001002008B5FFF7CDFF0F490B78013318
:104DBC00DBB2032B0B7016D9FFF7CEFF00204B781C
:104DCC0008700133DBB2042B4B700CD9FFF7CEFF0C
:104DDC008B7848700133DBB28B70DB0703D4BDE8F2
:104DEC000840FFF7CFBF08BD200B002038B5036883
:104DFC000546B3F1804F1CD1124A13889BB21BB1EC
:104E0C001388013B9BB213800F4C23889BB2C3B118
:104E1C0023880022013B9BB208210C482380FBF71E
:104E2C0073FD23889BB223B9012208210748FBF7A5
:104E3C006BFD2A68064B9A4203D1BDE83840FFF758
:104E4C00B1BF38BD8603002084030020000C014054
:104E5C0000080040014800F007BF00BFF3840008C1
:104E6C00B0F5005F10D003D8B0F5805F0FD070475D
:104E7C00B0F5804F06D0B0F5004F02D11922054B8A
:104E8C001A8070476422FAE74FF4FA72F7E74FF48E
:104E9C007A72F4E7300100207FB50446431E00F11E
:104EAC0010015A7802F00F0203F8012F8B42F8D14F
:104EBC00637AA27A03EB830302EB43038DF8003091
:104ECC00237B627B03EB830302EB43038DF80130FE
:104EDC00E37B227C03EB830302EB43032A4D8DF827
:104EEC000230002269462846FDF7FEFC0028F8D166
:104EFC00A679E379E57806EB860603EB460623797B
:104F0C0005EB850503EB45052378204A647803EB14
:104F1C0083031068516804EB4303DCB201AB03C399
:104F2C00EDB2906804F5FA62022D98BF013A642143
:104F3C0092B2B2FBF1F1186002EB92035B1A4FF4E0
:104F4C00C871B2FBF1F2134404AA2A4412F80D2CD6
:104F5C00F6B213440722334493FBF2F2C2EBC202C3
:104F6C009B1A8DF80740084C8DF804308DF80550CD
:104F7C008DF80660002201A92046FDF7BDFD002832
:104F8C00F8D104B070BD00BF140C002004700008F0
:104F9C0013B5431EC11D5A7802F00F0203F8012FFE
:104FAC008B42F8D10378427803EB830302EB430383
:104FBC008DF80030C378027903EB830302EB4303D3
:104FCC008DF801308379C27903EB830302EB430341
:104FDC008DF802300023054C0193002269462046CF
:104FEC00FDF70EFE0028F8D102B010BD140C002005
:104FFC0038B51B4B1B4C1B780A2B01D00D2B20D129
:10500C0000222378184D162BEA540CD9174B052285
:10501C001968284600F0C4FE38B9A81DFFF73CFFFC
:10502C000023237038BD0C2BFAD9104B042259687D
:10503C000D4800F0B5FE0028F2D10D48FFF7A8FF8F
:10504C00EEE7082B03D1237843B1013BE9E7227843
:10505C00172A9FBF511C217003498B5438BD00BFC8
:10506C008D0300208A0300208F0B002028010020D4
:10507C00940B002038B50268144B04469A4217D1A1
:10508C00134D012229461348FEF7ECF9124A2878F1
:10509C0013781249124DC8540133DBB23F2B88BF31
:1050AC0000231370137800222878CA54013028701A
:1050BC0022680C4B9A4208D101220B490B48FEF78F
:1050CC00D1F9BDE83840FFF793BF38BD0038014037
:1050DC008C030020A80C002089030020440B002026
:1050EC0088030020004400408D030020E80C0020C1
:1050FC00FEE700001FB54FF0FF324FF480732548D8
:10510C00254980E80E00FDF71FFE18B14921234800
:10511C00FFF7EEFF15238DF8003050238DF801308A
:10512C000023012269461B488DF80230FDF7DCFB99
:10513C0018B154211948FFF7DBFF05238DF8043013
:10514C0011238DF8053010238DF806301823012219
:10515C0001A910488DF80730FDF7CEFC18B15E217F
:10516C000E48FFF7C5FF15238DF8083050238DF836
:10517C0009300023012202A906488DF80A30039356
:10518C00FDF73EFD18B169210448FFF7B1FF05B0EA
:10519C005DF804FB140C002000280040C6850008B4
:1051AC0007B50B4B02689A420ED1FCF75DFF094B19
:1051BC00DA6942F00062DA610122DB6903F0006314
:1051CC000193019B044B1A6003B05DF804FB00BF14
:1051DC0000280040001002403C0442427FB50A23E4
:1051EC0006AA02F8010D029301238DE80C00044875
:1051FC00002278210068FBF73BFD07B05DF804FB4B
:10520C009003002000284FF4806214BFFF2100217E
:10521C00014800F021BD00BF9C0300207FB5002495
:10522C000F4D104EA4F15000C0B2FFF7D7FF002075
:10523C00FFF7D4FF1020FFF7D1FF642302938023E4
:10524C00019306EBC41300934022012378212868B4
:10525C000134FBF70DFD082CE4D104B070BD00BF88
:10526C00900300209C03002070B506460420FFF735
:10527C00B7FA44F62063012278213046FBF78EFD05
:10528C000446002862D1324D01202E60FFF7A8FAA7
:10529C00AE20FFF7A3FF2020FFF7A0FF1020FFF7A1
:1052AC009DFFB020FFF79AFFC820FFF797FF20461D
:1052BC00FFF794FF1020FFF791FF4020FFF78EFFC0
:1052CC008120FFF78BFFFF20FFF788FFA120FFF75E
:1052DC0085FFA620FFF782FFA820FFF77FFF3F2066
:1052EC00FFF77CFFA420FFF779FFD320FFF776FFB1
:1052FC002046FFF773FFD520FFF770FFF020FFF774
:10530C006DFFD920FFF76AFF2220FFF767FFDA2035
:10531C00FFF764FF1220FFF761FFDB20FFF75EFF52
:10532C002020FFF75BFF8D20FFF758FF1420FFF7BD
:10533C0055FFAF20FFF752FF2046FFF763FFFFF743
:10534C006DFF01206872AC80EC8070BD002070BDD8
:10535C00900300207F2810B51AD83F2918D80D4B80
:10536C001B7A13B1B2FA82F25209CC08012A0A4B09
:10537C0001F0070100EBC41004D18A40195C0A4308
:10538C001A5410BD01228A40195C21EA02011954F9
:10539C0010BD00BF900300209C0300202DE9F04FAE
:1053AC00234D9346AE880A7885B032447F2A8246D4
:1053BC000C4639DCEB884A7801931A443F2A33DCDB
:1053CC000027A0F1200303936278974206D322783A
:1053DC001644AE80504605B0BDE8F08F4FF0000883
:1053EC00039B616802FB037231F812300293019B3C
:1053FC0003EB07091FFA89F92278904501D301378D
:10540C00E2E7029B06EB080003FA08F212F4004FE5
:10541C000ABFBBFA8BF25A465209494680B2FFF7D3
:10542C0099FF08F10108E7E74FF0000AD2E700BF47
:10543C009003002070B50D461646441E637843B1A8
:10544C00184632462946FFF7A9FF14F8013F984247
:10545C00F4D0184670BD0000014B9880D98070477D
:10546C0090030020254B07B59A69032042F00102F6
:10547C009A619A6902F001020092009ADA6942F08C
:10548C008052DA61DB6903F080530193019BFAF7D8
:10549C00ABFE00226FF00B001146FAF7B7FE0022AC
:1054AC006FF00A001146FAF7B1FE00226FF0090006
:1054BC001146FAF7ABFE00226FF004001146FAF722
:1054CC00A5FE00226FF003001146FAF79FFE0022A2
:1054DC006FF001001146FAF799FE00224FF0FF30F1
:1054EC001146FAF793FE064A536823F0E06343F043
:1054FC000073536003B05DF804FB00BF0010024062
:10550C00000001407047FEE7FEE7FEE7FEE770474C
:10551C007047704708B5FAF755FEBDE80840FAF732
:10552C00D8BE00000148FAF755BF00BFDC0A0020C6
:10553C000148FAF74FBF00BF980A00200148FCF75A
:10554C00B7BA00BF1C1700200148FDF715BD00BFFE
:10555C00680C00200148FDF70FBD00BF280C00208F
:10556C000148FBF769BD00BF440A00200148FCF765
:10557C00CDB800BF440A00200148FDF7DBBF00BFD7
:10558C00A80C00200148FDF7D5BF00BFE80C002097
:10559C0008B54FF48050FBF7BDF94FF40050FBF702
:1055AC00B9F94FF48040FBF7B5F9BDE808404FF46A
:1055BC000040FBF7AFB900000148FDF791BB00BFFD
:1055CC00140C00200F4B1A6842F001021A60596843
:1055DC000D4A0A405A601A6822F0847222F4803212
:1055EC001A601A6822F480221A605A6822F4FE02A9
:1055FC005A604FF41F029A604FF00062034B9A609E
:10560C00704700BF001002400000FFF800ED00E002
:10561C007FB509234FF08041164841F61F4280E8C0
:10562C000A000023C260836003618361FDF77EFD85
:10563C0018B14A211048FFF75BFD4FF4805306A9BF
:10564C0041F8103D0B48FDF7DAFB18B150210A4820
:10565C00FFF74EFD00236946064800930193FDF7C2
:10566C007FFD18B157210448FFF742FD07B05DF8E4
:10567C0004FB00BF680C0020EB8500087FB541F6E9
:10568C001F4316481649F92280E80A000023C2601D
:10569C00836003618361FDF749FD18B169211148ED
:1056AC00FFF726FD4FF4805306A941F8103D0B4837
:1056BC00FDF7A5FB18B16F210A48FFF719FD002370
:1056CC006946064800930193FDF74AFD18B176210F
:1056DC000448FFF70DFD07B05DF804FB280C002013
:1056EC0000080040EB850008036807B5B3F1804F54
:1056FC000DD103F50433DA6942F00102DA61DB699A
:10570C0003F001030093009B03B05DF804FB0B4A0C
:10571C009342F9D10A4B1E20DA6942F00402DA6195
:10572C000022DB69114603F004030193019BFAF795
:10573C006DFD1E20FAF79EFDE6E700BF0008004055
:10574C000010024008B54FF4E13E0B480B4B0C2205
:10575C0080E80840002342618360C3600361836179
:10576C00C361FDF7F5FD28B1BDE808404D210448A3
:10577C00FFF7BEBC08BD00BFA80C002000380140DC
:10578C00F885000808B54FF4E13E0B480B4B0C2292
:10579C0080E80840002342618360C3600361836139
:1057AC00C361FDF7D5FD28B1BDE808406021044870
:1057BC00FFF79EBC08BD00BFE80C00200044004071
:1057CC00F88500087FB503681E4A934221D11E4B11
:1057DC0002A99A691D4842F480429A619B6903F4BC
:1057EC0080430093009B4FF40073029302230393B6
:1057FC0003230593FAF7A8FF4FF480630293002369
:10580C0002A9124803930493FAF79EFF07B05DF8C0
:10581C0004FB0F4A9342F9D10B4B02A9DA690B48EE
:10582C0042F40032DA61DB6903F400330193019B2B
:10583C00042302930223039303230593FAF784FFB3
:10584C000823DBE70038014000100240000801404B
:10585C000044004010B5094C002209492046FEF7CF
:10586C003CFC08492046FEF74DFC20460649FEF755
:10587C000CFC2046BDE81040FEF74BBC280D002068
:10588C00480100200800002038010020002070474B
:10589C000020704710B5054C01462046FEF704FC6D
:1058AC002046FEF707FC002010BD00BF280D00208D
:1058BC0010B5064C002206492046FEF7EDFB0549C3
:1058CC002046FEF7F1FB002010BD00BF280D002084
:1058DC00341300204C0F00200268084B82B09A420F
:1058EC000AD103F5DA33DA6942F40002DA61DB69D2
:1058FC0003F400030193019B02B07047005C00406D
:10590C0000F22C41D0F85C04FEF71ABC00EB4113FA
:10591C00D3F83C22D0F85C04FEF73FBC00EB4113FB
:10592C00DA6BD0F85C04FEF76ABCD0F85C04FEF7C6
:10593C00E6BC10B504460121D0F85C04FEF7CDFCA2
:10594C00D4F85C04BDE81040FEF7A8BC10B50446C2
:10595C00D0F85C04FEF7C4FCA36923B1024A1369B6
:10596C0043F00603136110BD00ED00E0D0F85C04B9
:10597C00FEF7BFBC10B5022308224FF0030E0446FD
:10598C001D491E4880E80E400023C0F85C44C4F852
:10599C0020028361C3610362FBF77CFF20B14FF4EB
:1059AC0096711748FFF7A4FB002218231146D4F870
:1059BC002002FCF741FB582300228021D4F820025E
:1059CC00FCF73AFBC02300228121D4F82002FCF71B
:1059DC0033FB4FF4887300220121D4F82002FCF72A
:1059EC002BFB4FF4807300228221D4F82002FCF7A9
:1059FC0023FB002010BD00BF005C00401C170020E2
:105A0C000B86000808B5D0F82002FBF7ACFF032882
:105A1C009ABF024B185C022008BD00BF0786000825
:105A2C0010B51C46D0F8200213462246FBF7C6FFE1
:105A3C0003289ABF014B185C022010BD0786000892
:105A4C0008B5D0F82002FBF7DCFF03289ABF024B05
:105A5C00185C022008BD00BF0786000808B5D0F806
:105A6C002002FCF79DFA03289ABF024B185C022017
:105A7C0008BD00BF0786000808B5D0F82002FCF767
:105A8C00B8FA03289ABF024B185C022008BD00BF6D
:105A9C00078600080A06D0F8203245BF01F07F01C6
:105AAC0003EB411303EB411393F82A0058BF93F80F
:105ABC002A02704708B5D0F82002FBF76BFF0328C9
:105ACC009ABF024B185C022008BD00BF0786000875
