:020000040800F2
:1000000000500020850B0008190B00081B0B00088E
:100010001D0B00081F0B0008210B0008000000004A
:10002000000000000000000000000000230B00089A
:10003000250B000800000000270B0008290B000812
:10004000CD0B0008CD0B0008CD0B0008CD0B000830
:10005000CD0B0008CD0B0008CD0B0008CD0B000820
:10006000CD0B0008CD0B0008CD0B0008CD0B000810
:10007000CD0B0008CD0B0008CD0B0008CD0B000800
:10008000CD0B0008CD0B0008CD0B0008CD0B0008F0
:10009000CD0B0008CD0B0008CD0B0008CD0B0008E0
:1000A000CD0B0008CD0B0008CD0B0008CD0B0008D0
:1000B000CD0B0008CD0B0008CD0B0008CD0B0008C0
:1000C000CD0B0008CD0B0008CD0B0008CD0B0008B0
:1000D000CD0B0008CD0B0008CD0B0008CD0B0008A0
:1000E000CD0B0008CD0B0008CD0B00080000000070
:1000F0000000000000000000000000000000000000
:0C01000000000000000000005FF808F1A3
:10010C0010B5054C237833B9044B13B10448AFF345
:10011C0000800123237010BD0C00002000000000A3
:10012C00180C000808B5034B1BB103490348AFF387
:10013C00008008BD0000000010000020180C000812
:10014C0038B50E4B054618784FF47A73B3FBF0F3C1
:10015C000B4A1068B0FBF3F000F092F8044658B963
:10016C000F2D09D8024629464FF0FF3000F054F805
:10017C00044B20461D6038BD012038BD0000002016
:10018C000800002004000020074A08B5136803206B
:10019C0043F01003136000F02DF80020FFF7D0FFA0
:1001AC0000F064FC002008BD00200240034A044B10
:1001BC0011681B780B441360704700BF28000020A7
:1001CC0000000020014B1868704700BF2800002079
:1001DC0038B50446FFF7F6FF0546631C1EBF044BFB
:1001EC001B78E418FFF7EEFF401B8442FAD838BDA9
:1001FC0000000020074A0002D36800F4E06023F4FA
:10020C00E0631B041B0C43F0BF6343F40033034354
:10021C00D360704700ED00E0174B30B5DC68C4F3D9
:10022C000224C4F10703251D042B28BF0423062D2B
:10023C004FF0010598BF002405FA03F303F1FF33D7
:10024C0088BF033C1940A14005FA04F4013C22404C
:10025C00002842EA01024FEA0212AFBF00F16040EF
:10026C00064B00F00F00D2B2A5BFD2B200F5614030
:10027C001A5480F8002330BD00ED00E014ED00E0CE
:10028C000138B0F1807F0AD2F021064B064A586043
:10029C0082F823100020072298601A607047012012
:1002AC00704700BF10E000E000ED00E0044B0428B4
:1002BC001A680CBF42F0040222F004021A60704764
:1002CC0010E000E0704708B5FFF7FCFF08BD000028
:1002DC002DE9F74F00221646654BDFF8A4E1DFF855
:1002EC00A4C14FF001080C6808FA06F808EA0404E7
:1002FC00A0457FD14D68122D00F0AF8000F28880B0
:10030C00022D00F0A7807CD8002D00F08E80012DEE
:10031C0000F09E804FF00F09FF2C93BF824606F130
:10032C008045083DD0F800B092BFB500D0F804B0BD
:10033C00AD0009FA05F82BEA080802FA05F588BFA2
:10034C0000F1040A48EA0505CAF80050D1F804A0E7
:10035C001AF0805F4ED0474D464FAD6926F003082A
:10036C0045F00105BD61BD6908F1804805F0010546
:10037C00019508F5803806F0030B019D4FEA8B0BB5
:10038C00D8F8085009FA0BF925EA09093A4DA842A0
:10039C0068D005F58065A84266D005F58065A84251
:1003AC0064D005F58065A8420CBF0325042505FA29
:1003BC000BF545EA0905C8F808501D681AF4803F8A
:1003CC0014BF2543A5431D605D681AF4003F14BF9C
:1003DC002543A5435D609D681AF4801F14BF254317
:1003EC00A5439D60DD681AF4001F14BF2C4325EA59
:1003FC000404DC600136102E7FF473AF03B0BDE84B
:10040C00F08F032D22D0112D84D1CA68043281E7DC
:10041C001A4FBD4209D012D8DFF86C904D4504D06C
:10042C0009F580394D457FF475AF8A68C2B1012A50
:10043C000CBFC0F81080C0F8148008226AE775451C
:10044C00F3D06545F1D0DFF84490EBE7002261E78B
:10045C00CA685FE7CA6808325CE7CA680C3259E7B9
:10046C00042257E70025A2E70125A0E702259EE715
:10047C00000401400010024000080140000021105F
:10048C00000031100000321000001110000022108A
:10049C000AB1016170470904FBE7C3685940C160A8
:1004AC007047000003682DE9F341DB07054610D4C3
:1004BC002B689F075ED42B68190700F195802B6879
:1004CC005A0700F1BF80EA69002A40F02D81002014
:1004DC0014E0904C636803F00C03042B07D06368A2
:1004EC0003F00C03082B0CD16368DE0309D52368D9
:1004FC009C03DDD56B68002BDAD1012002B0BDE87E
:10050C00F0816B68B3F5803F10D1236843F48033DE
:10051C002360FFF757FE064623689803C8D4FFF7FD
:10052C0051FE801B6428F7D90320E7E79BB92368A9
:10053C0023F480332360236823F480232360FFF7A4
:10054C0041FE064623689903B2D5FFF73BFE801B9C
:10055C006428F7D9E8E7B3F5A02F236803D143F457
:10056C0080232360D1E723F480332360236823F4B2
:10057C008023CDE7674C636813F00C0F07D06368DA
:10058C0003F00C03082B10D16368DA030DD4236835
:10059C009B0702D52B69012BAFD123686A6923F025
:1005AC00F80343EAC203236085E72A695A4B6AB110
:1005BC0001221A60FFF706FE064623689F07ECD45B
:1005CC00FFF700FE801B0228F7D9ADE71A60FFF792
:1005DC00F9FD0646236898077FF56DAFFFF7F2FD2E
:1005EC00801B0228F6D99FE7AA694A4C4B4BDAB11B
:1005FC0001221A60FFF7E6FD0646636A9B070DD5DC
:10060C004FF4FA52464B1B68B3FBF2F3019300BF55
:10061C00019B5A1E0192002BF9D150E7FFF7D2FD36
:10062C00801B0228E9D97FE71A60FFF7CBFD06464D
:10063C00636A9F077FF543AFFFF7C4FD801B022859
:10064C00F6D971E7334CE369D80024D40127E36968
:10065C0043F08053E361E36903F080530093009B04
:10066C00304E3368D90518D5EB68012B26D1236A97
:10067C0043F001032362FFF7A5FD41F28836804663
:10068C00236A9B073FD5002F3FF41DAFE36923F08E
:10069C008053E36117E70027E2E7336843F4807384
:1006AC003360FFF78FFD80463368DA05DCD4FFF743
:1006BC0089FDA0EB08006428F6D935E7ABB9236AAD
:1006CC0041F2883823F001032362236A23F00403E8
:1006DC002362FFF777FD0646236A9807D3D5FFF709
:1006EC0071FD801B4045F7D91EE7052B236A03D10A
:1006FC0043F004032362BAE723F001032362236A65
:10070C0023F00403B6E7FFF75DFDA0EB0800B04251
:10071C00B6D909E700100240000042428004424270
:10072C000800002000700040224C636803F00C03AA
:10073C00082B3FF4E2AE00231F4E022A33602BD16C
:10074C00FFF740FD0746236899011FD42B6AB3F5C8
:10075C00803F05D16268A96822F400320A436260C6
:10076C00696A62680B4322F47412134363600123B9
:10077C003360FFF727FD054623689A013FF5A7AEC6
:10078C00FFF720FD401B0228F6D9CDE6FFF71AFD36
:10079C00C01B0228D7D9C7E6FFF714FD054623680E
:1007AC009B017FF594AEFFF70DFD401B0228F6D997
:1007BC00BAE600BF001002406000424230B5194B4F
:1007CC0087B002AC03F1100522461868596808334B
:1007DC0003C2AB421446F7D101238DF80430022337
:1007EC0011498DF805304B6803F00C02082A17D11B
:1007FC00C3F3834206A80244DB0312F8102C0CD579
:10080C004B680A48C3F34043504306AA134413F8F9
:10081C00143CB0FBF3F007B030BD05485043FAE789
:10082C000248F8E7300C00080010024000127A0071
:10083C0000093D004D4A2DE9F0411368054603F0CF
:10084C0007038B420E4628D32A68910732D4D2076D
:10085C0038D4464A136803F007039E4273D32A68C0
:10086C00434C12F0040F79D1130706D563682A693B
:10087C0023F4605343EAC2036360FFF79FFF63688E
:10088C003C4AC3F30313D35CD8403B4B18600020A5
:10089C00FFF756FC0020BDE8F081136823F0070336
:1008AC000B431360136803F007039942CCD001206B
:1008BC00BDE8F0812E49A8684B6823F0F003034390
:1008CC004B60C4E76A682A4C012A23681CD113F4D4
:1008DC00003FECD0636841F2883823F003031343E4
:1008EC006360FFF76FFC6B680746012B14D16368DC
:1008FC0003F00C03042BACD0FFF764FCC01B404589
:10090C00F5D90320BDE8F081022A02D113F0007F53
:10091C00DFE713F0020FDCE7022B0FD1636803F063
:10092C000C03082B95D0FFF74DFCC01B4045F5D9A7
:10093C00E7E7FFF747FCC01B4045E2D8636813F0BC
:10094C000C0FF6D185E7136823F0070333431360CC
:10095C00136803F007039E42A9D180E76368E96836
:10096C0023F4E0630B4363607EE700BF002002408A
:10097C0000100240400C000808000020014B1868D1
:10098C00704700BF080000204FF4803310B590B0C2
:10099C0001220793002102240E934FF4E01306A8C2
:1009AC00069208910A920D940F93FFF77BFD00B10C
:1009BC00FEE70F2301934FF48063039005902146CB
:1009CC0001A802940493FFF735FF044600B1FEE73B
:1009DC00FFF7D4FF4FF47A73B0FBF3F0FFF750FC42
:1009EC000420FFF763FC224621464FF0FF30FFF74F
:1009FC0013FC10B010BD00007FB5FFF7C5FBFFF76F
:100A0C00C3FF184B4FF400519A69174842F010027B
:100A1C009A619A69144C02F010020092009A9A6939
:100A2C0042F020029A619B69002203F0200301939B
:100A3C00019BFFF72DFD4FF4005302930123039309
:100A4C0000230493022302A907480593FFF740FCF7
:100A5C0020464FF40051FFF720FD6420FFF7B8FB50
:100A6C00F6E700BF0010024000100140254B07B50F
:100A7C009A69032042F001029A619A6902F001021C
:100A8C000092009ADA6942F08052DA61DB6903F075
:100A9C0080530193019BFFF7ADFB00226FF00B001D
:100AAC001146FFF7B9FB00226FF00A001146FFF761
:100ABC00B3FB00226FF009001146FFF7ADFB0022DB
:100ACC006FF004001146FFF7A7FB00226FF0030044
:100ADC001146FFF7A1FB00226FF001001146FFF752
:100AEC009BFB00224FF0FF301146FFF795FB064AA7
:100AFC00536823F0E06343F08063536003B05DF808
:100B0C0004FB00BF00100240000001407047FEE7EC
:100B1C00FEE7FEE7FEE770477047704708B5FFF742
:100B2C0045FBBDE80840FFF7CEBB00000F4B1A6831
:100B3C0042F001021A6059680D4A0A405A601A685C
:100B4C0022F0847222F480321A601A6822F4802215
:100B5C001A605A6822F4FE025A604FF41F029A601F
:100B6C004FF00062034B9A60704700BF00100240C8
:100B7C000000FFF800ED00E0002103E00B4B5B5898
:100B8C00435004310A480B4B42189A42F6D30A4A96
:100B9C0002E0002342F8043B084B9A42F9D3FFF7DA
:100BAC00C5FF00F00FF8FFF727FF7047580C00083F
:100BBC00000000200C0000200C0000202C00002065
:100BCC00FEE7000070B500250C4E0D4CA41BA410C4
:100BDC00A54209D100F01AF800250A4E0A4CA41BB4
:100BEC00A410A54205D170BD56F8253098470135A3
:100BFC00EEE756F8253098470135F2E7500C00081F
:100C0C00500C0008500C0008540C0008F8B500BF3C
:100C1C00F8BC08BC9E467047F8B500BFF8BC08BCD1
:040C2C009E46704729
:100C300002030405060708090A0B0C0D0E0F10101D
:100C4000000000000000000001020304060708097C
:040C50003101000866
:040C54000D01000886
:0C0C5800010000001000000000A24A048F
:0400000508000B855F
:00000001FF
