:020000040800F2
:10000000005000204D0100082D1D00082F1D000884
:10001000311D0008331D0008351D000800000000D8
:10002000000000000000000000000000AD1000080B
:10003000371D00080000000075110008391D000878
:100040009501000895010008950100089501000838
:100050009501000895010008950100089501000828
:100060009501000895010008950100089501000818
:100070009501000895010008950100089501000808
:1000800095010008950100089501000895010008F8
:1000900095010008950100089501000895010008E8
:1000A000950100083D1D0008950100089501000814
:1000B000491D0008950100089501000895010008F8
:1000C00095010008950100089501000895010008B8
:1000D00095010008950100089501000895010008A8
:1000E0009501000895010008950100080000000036
:1000F0000000000000000000000000000000000000
:0C01000000000000000000005FF808F1A3
:10010C0010B5054C237833B9044B13B10448AFF345
:10011C0000800123237010BD0800002000000000A7
:10012C00FC1D000808B5034B1BB103490348AFF392
:10013C00008008BD000000000C000020FC1D000821
:10014C00002103E00B4B5B58435004310A480B4B26
:10015C0042189A42F6D30A4A02E0002342F8043BC2
:10016C00084B9A42F9D301F0EFFD01F013FE01F0B8
:10017C0093FC7047701E000800000020080000204F
:10018C0008000020EC0D0020FEE70000074A08B52F
:10019C001368032043F01003136000F025F80020CF
:1001AC0001F082FD01F01EFD002008BD0020024080
:1001BC00024A136801331360704700BF240000200B
:1001CC00014B1868704700BF2400002013B5019044
:1001DC00FFF7F6FF0446FFF7F3FF019B001B984265
:1001EC00F9D302B010BD0000074A0002D36800F436
:1001FC00E06023F4E0631B041B0C43F0BF6343F487
:10020C0000330343D360704700ED00E0174B30B56B
:10021C00DB68C3F30223C3F107041D1D042C28BFA4
:10022C000424062D4FF0010505FA04F404F1FF3403
:10023C008CBF033B00230C409C4005FA03F3013BAD
:10024C001A40002842EA04024FEA0212AFBF00F142
:10025C006040074B00F00F00D2B2A5BFD2B200F540
:10026C0061401A5480F8002330BD00BF00ED00E05F
:10027C0014ED00E04209012300F01F0003FA00F026
:10028C00014B43F82200704700E100E00138B0F167
:10029C00807F0AD2064B074AF021586082F823105F
:1002AC000020072298601A6070470120704700BF39
:1002BC0010E000E000ED00E0044B04281A680CBFCD
:1002CC0042F0040222F004021A60704710E000E0D1
:1002DC002DE9F74F00242646624BDFF894E1DFF856
:1002EC0094C101220D68B24032EA050540F0B3809A
:1002FC004D68122D28D00ED8022D22D004D835B33B
:10030C00012D2DD1CC682BE0032D18D0112D27D128
:10031C00CC68043424E0544FBD4218D006D8DFF822
:10032C005881454513D008F5803805E075450ED049
:10033C0065450CD0DFF84481454511D107E0002418
:10034C000EE0CC6808340BE0CC680C3408E08C6808
:10035C002CB1012C0CBF02614261082400E0042482
:10036C00FF2A97BF8346A6F10805D0F80090B50088
:10037C0084BFD0F80490AD004FF00F0808FA05FACE
:10038C0029EA0A0904FA05F588BF00F1040B49EAC9
:10039C000505CBF80050D1F8049019F0805F5AD0C5
:1003AC00324D324FAD6906F0030A45F00105BD61CF
:1003BC00BD694FEA8A0A05F001050195019D26F0F9
:1003CC00030505F1804505F58035D5F808B0A7F58E
:1003DC00843708FA0AF8B8422BEA080810D007F557
:1003EC008067B8420FD007F58067B8420ED007F58A
:1003FC008067B8420CBF4FF0030B4FF0040B07E0C3
:10040C004FF0000B04E04FF0010B01E04FF0020B3A
:10041C000BFA0AFA4AEA080AC5F808A01D6819F48A
:10042C00803F14BF154395431D605D6819F4003F70
:10043C0014BF154395435D609D6819F4801F14BF6C
:10044C00154395439D60DD6819F4001F14BF2A43C2
:10045C0025EA0202DA600136102E7FF442AF03B0B7
:10046C00BDE8F08F00040140000021100010024094
:10047C00000031100000321000001110000022109A
:10048C0002B9090401617047C3685940C1607047E3
:10049C0003682DE9F743DC07054603D42B6898075E
:1004AC0073D4F2E0B94C636803F00C03042B07D04F
:1004BC00636803F00C03082B16D16368D90313D5BA
:1004CC004FF4003393FAA3F2226893FAA3F3B3FA2E
:1004DC0083F303F01F0322FA03F3DA07DED56B680C
:1004EC00002BDBD101202DE26B68B3F5803F15D0DA
:1004FC006BB923684FF4003623F4803323602368F0
:10050C0023F480232360FFF75BFE07462FE0B3F54F
:10051C00A02F236806D143F480232360236843F47F
:10052C00803305E023F480332360236823F4802395
:10053C002360FFF745FE07464FF4003696FAA6F304
:10054C00226896FAA6F3B3FA83F303F01F0322FA98
:10055C0003F3DB07A2D4FFF733FEC01B6428EDD9ED
:10056C000320EFE1FFF72CFEC01B6428F8D896FAA5
:10057C00A6F3226896FAA6F3B3FA83F303F01F03EB
:10058C0022FA03F3D807EDD488E7804C636813F0A4
:10059C000C0F07D0636803F00C03082B21D16368A0
:1005AC00D9031ED4022393FAA3F2226893FAA3F37D
:1005BC00B3FA83F303F01F0322FA03F3DA0702D52D
:1005CC002B69012B8ED12368F82292FAA2F2B2FA8F
:1005DC0082F2696923F0F80301FA02F213432360F3
:1005EC0053E02A6901237AB393FAA3F2B2FA82F2A6
:1005FC00920002F1844202F584021360FFF7E0FDE1
:10060C000746022696FAA6F36048226896FAA6F3E5
:10061C00B3FA83F303F01F0322FA03F3DB0705D4C9
:10062C00FFF7CEFDC01B0228ECD999E70368F8222E
:10063C0092FAA2F2B2FA82F2696923F0F80301FA93
:10064C0002F21343036020E093FAA3F3B3FA83F3AB
:10065C009B0003F1844303F584031A60FFF7B0FD9C
:10066C000746022696FAA6F3226896FAA6F3B3FA80
:10067C0083F303F01F0322FA03F3D90705D5FFF721
:10068C009FFDC01B0228EDD96AE72B681A0746D5D7
:10069C00AA693E4C01233E4912B393FAA3F2B2FA73
:1006AC0082F241F82230FFF78BFD0746022696FABC
:1006BC00A6F396FAA6F3626A96FAA6F3B3FA83F354
:1006CC0003F01F0322FA03F3DB0705D4FFF778FDD1
:1006DC00C01B0228EBD943E70120FFF777FD1EE092
:1006EC0093FAA3F3B3FA83F341F82320FFF768FDE1
:1006FC000746022696FAA6F396FAA6F3626A96FACB
:10070C00A6F3B3FA83F303F01F0322FA03F3D8071B
:10071C0005D5FFF755FDC01B0228EBD920E72B6848
:10072C00590704D4EA69002A40F08180D8E0174CBC
:10073C00184EE36943F08053E361E36903F080539F
:10074C000193019B336843F480733360FFF738FDEA
:10075C0007463368DA0505D4FFF732FDC01B642861
:10076C00F7D9FDE6EB68012B1CD0ABB9236A022646
:10077C0023F001032362236A374623F00403236228
:10078C00FFF71EFD41F28839804648E00010024018
:10079C008004424200700040052B236A06D143F0CE
:1007AC0004032362236A43F0010305E023F00103F1
:1007BC002362236A23F004032362FFF701FD022660
:1007CC008146B04641F2883796FAA6F396FAA6F31C
:1007DC000BB1226A00E0626A98FAA8F3B3FA83F3C9
:1007EC0003F01F0322FA03F3DB079BD4FFF7E8FCAB
:1007FC00C9EB0000B842E7D9B2E6626A97FAA7F3F0
:10080C00B3FA83F303F01F0322FA03F3D80789D555
:10081C00FFF7D6FCC8EB000048453FF6A1AE96FAB0
:10082C00A6F396FAA6F3002BE7D0226AE6E7474C2C
:10083C00636803F00C03082B3FF454AE022A4FF00C
:10084C0080735CD193FAA3F3B3FA83F39B0003F1A7
:10085C00844303F5840300221A60FFF7B1FC804641
:10086C004FF0007696FAA6F3384F226896FAA6F364
:10087C00B3FA83F303F01F0322FA03F3D90731D43D
:10088C002E6AB6F5803F05D1796821F40030A9684D
:10089C000143796063686A6A23F474133243134327
:1008AC0063604FF0807393FAA3F3B3FA83F39B0066
:1008BC0003F1844303F5840301221A60FFF780FCE3
:1008CC0006464FF0007595FAA5F3226895FAA5F344
:1008DC00B3FA83F303F01F0322FA03F3DA0708D504
:1008EC0000202FE0FFF76CFCC8EB00000228B9D900
:1008FC0036E6FFF765FC801B0228E4D930E693FA54
:10090C00A3F3B3FA83F39B0003F1844303F584034D
:10091C0000221A60FFF754FC06464FF0007595FA5A
:10092C00A5F3226895FAA5F3B3FA83F303F01F033A
:10093C0022FA03F3DB07D3D5FFF742FC801B022816
:10094C00EDD90DE603B0BDE8F08300BF0010024006
:10095C001F4B70B503F110052E4686B002AC224633
:10096C0018685968083303C2AB421446F7D1338870
:10097C00184CADF80430606800F00C03082B24D13F
:10098C004FF4701393FAA3F3B3FA83F300F47012D9
:10099C0022FA03F306AA134413F8101CC30311D54F
:1009AC0062684FF4003393FAA3F3B3FA83F002F4C2
:1009BC000033C34006AA134413F8140C064BB3FBC4
:1009CC00F0F000E00548484300E0034806B070BD75
:1009DC00141E00080010024000127A0000093D00AD
:1009EC00544A2DE9F0411368064603F007038B4285
:1009FC000D460AD331688C0714D54F48436823F051
:100A0C00F002B368134343600CE0136823F0070350
:100A1C000B431360136803F007039942EAD00120DB
:100A2C00BDE8F081C80706D4424A136803F00703F7
:100A3C009D424AD353E072683F4C012A02D14FF4D5
:100A4C00003304E0022A0CBF4FF00073022393FA28
:100A5C00A3F1216893FAA3F3B3FA83F303F01F0312
:100A6C0021FA03F3D907DAD5636841F2883823F009
:100A7C0003031A436260FFF7A3FB73680746012B5D
:100A8C000CD1636803F00C03042BCDD0FFF798FB5B
:100A9C00C01B4045F5D90320BDE8F081022B0FD1D6
:100AAC00636803F00C03082BBED0FFF789FBC01B57
:100ABC004045F5D9EFE7FFF783FBC01B4045EAD86B
:100ACC00636813F00C0FF6D1AEE7136823F007033D
:100ADC002B431360136803F007039D429FD13168C9
:100AEC00154C11F0040F05D0636823F4E062F36831
:100AFC00134363600B0706D56368326923F46053B4
:100B0C0043EAC2036360FFF723FF6368F02292FAA3
:100B1C00A2F2B2FA82F203F0F003D340074AD35C9C
:100B2C00D840074B1860002001F0BEF80020BDE84B
:100B3C00F08100BF00200240001002404D1E000852
:100B4C0004000020014B1868704700BF040000200F
:100B5C00084B4FF460525B6892FAA2F2B2FA82F23E
:100B6C0003F46053D340044AD35C044A1068D84061
:100B7C00704700BF001002405D1E000804000020FA
:100B8C000F2303600B4B5A6802F0030242605A6851
:100B9C0002F0F00282605A6802F4E062C2605B68A4
:100BAC00DB0803F4E0630361034B1B6803F00703EA
:100BBC000B607047001002400020024003680020C8
:100BCC00DA6842F00102DA601A6842F001021A6037
:100BDC00704790F8383070B5012B4FF0020300F0DD
:100BEC00B08080F839300368012280F838209A6888
:100BFC0022F47F4222F077029A600A68402A77D06A
:100C0C0018D8102A00F08B8008D8002A40F0938066
:100C1C009A6822F0700242F007028BE0202A00F062
:100C2C008480302A40F087809A6822F0700242F06B
:100C3C0037027FE0702A35D01BD8502A41D0602A69
:100C4C0079D11C6A4D6824F01004CE681C62996935
:100C5C001A6A21F4704122F0A00242EA051241EA1C
:100C6C00063199611A629A6822F0700242F06702AA
:100C7C0060E0B2F5805F11D0B2F5005F5BD19C688B
:100C8C008D684A6824F47F44C9682A43224342EAA7
:100C9C0001229A609A6842F480424BE09A6822F0F2
:100CAC00070247E09C688D684A6824F47F44C96851
:100CBC002A43224342EA01229A609A6842F0770260
:100CCC0038E01A6A1C6A4D6824F00104CE681C6274
:100CDC00996922F00A0221F0F0012A4341EA061137
:100CEC0099611A629A6822F0700242F0570221E070
:100CFC001A6A1C6A4D6824F00104CE681C6299695A
:100D0C0022F00A0221F0F0012A4341EA061199610E
:100D1C001A629A6822F0700242F047020AE09A685E
:100D2C0022F0700242F0170204E09A6822F070027E
:100D3C0042F027029A60012380F83930002380F8B2
:100D4C003830184670BD704770477047704703685D
:100D5C0010B51A690446910714D5DA68920711D5B3
:100D6C006FF002021A619B6901229B07027602D086
:100D7C00FFF7EAFF04E0FFF7E6FF2046FFF7E5FF89
:100D8C000023237623681A69500716D5DA685107B1
:100D9C0013D56FF004021A619B69022213F4407F91
:100DAC002276204602D0FFF7CFFF04E0FFF7CBFFFF
:100DBC002046FFF7CAFF0023237623681A6912071F
:100DCC0015D5DA68100712D56FF008021A61DB69C5
:100DDC00042299072276204602D0FFF7B5FF04E0E3
:100DEC00FFF7B1FF2046FFF7B0FF002323762368FF
:100DFC001A69D20616D5DA68D00613D56FF0100230
:100E0C001A61DB69082213F4407F2276204602D057
:100E1C00FFF79AFF04E0FFF796FF2046FFF795FFD8
:100E2C000023237623681A69D10708D5DA68D2071C
:100E3C0005D56FF001021A61204600F0B3FE23685D
:100E4C001A69100608D5DA68110605D56FF080020C
:100E5C001A61204600F08FF823681A69520608D5EB
:100E6C00DA68500605D56FF040021A612046FFF78C
:100E7C006DFF23681A6991060AD5DA68920607D5C0
:100E8C006FF020022046BDE810401A6100F072B8E5
:100E9C0010BD0000184A036890420AD0B0F1804F90
:100EAC0007D0A2F59432904203D002F580629042B2
:100EBC0015D14A6823F0700313430F4A90420AD0AD
:100ECC00B0F1804F07D0A2F59432904203D002F5D6
:100EDC008062904203D1CA6823F4407313430360C9
:100EEC008B68C3620B688362034B984204BF0B6927
:100EFC000363012343617047002C014010B5044685
:100F0C00A0B190F8393003F0FF021BB980F83820FB
:100F1C0000F0AEFE022384F839302068211DFFF763
:100F2C00B9FF012384F83930002010BD012010BD19
:100F3C0090F8383010B5012B4FF0020318D080F820
:100F4C00393003685A6822F070025A605C680A688B
:100F5C0022435A609A6822F080029A609C684A6820
:100F6C0022439A60012380F83930002380F838300E
:100F7C00184610BD7047704708B500F077FB00208D
:100F8C0008BD70B5B0F908400025842C08BF2C466C
:100F9C0086B0028A18BF03340B4690E8420005A8BD
:100FAC000190039502950094304600F07FFA0128D9
:100FBC000CBF0598002006B070BD08B5002808BF0E
:100FCC00012000F085FC002008BD08B500F018FDDC
:100FDC00012803D0BDE8084000F0E8B808BD00F1D6
:100FEC00080343604FF0FF32C3600361002382604B
:100FFC000360704700230361704743689A684B6035
:10100C008A609A68516099600368086101330360D3
:10101C0070470A6830B5531C01D1036907E000F131
:10102C0008035C682568AA4201D32346F9E75A688D
:10103C004A6091608B6059600368086101330360FA
:10104C0030BD4168826803698A6082685160596862
:10105C00884208BF5A600022026118680138186083
:10106C007047000006480068006880F3088862B684
:10107C0061B6BFF34F8FBFF36F8F00DF00BF00006F
:10108C0008ED00E04FF0807300E90A00034B40F8D4
:10109C00202C40F80C3C4038704700BFF910000879
:1010AC00074B19680868B0E8F00F80F30988BFF3A4
:1010BC006F8F4FF0000080F311884EF00D0E7047CB
:1010CC00100D0020044B4FF080521A60BFF34F8F6D
:1010DC00BFF36F8F704700BF04ED00E0EFF311809A
:1010EC004FF0500181F311887047002008B5054B73
:1010FC001B68013302D0FFF7F1FFFEE7FFF7EEFFAD
:10110C00FEE700BF0000002008B5FFF7E7FF094A23
:10111C00136801331360BFF34F8FBFF36F8F012B35
:10112C0007D1054B1B6813F0FF0F02D0FFF7D6FF5A
:10113C00FEE708BD0000002004ED00E080F31188FC
:10114C007047000008B5074B186810B9FFF7C6FFC9
:10115C00FEE70138186018B9BDE80840FFF7EEBF8C
:10116C0008BD00BF00000020EFF30980BFF36F8FB4
:10117C000D4B1A6820E9F00F10602DE908404FF074
:10118C00500080F3118800F007FC4FF0000080F352
:10119C001188BDE8084019680868B0E8F00F80F3C2
:1011AC000988BFF36F8F7047100D002008B5FFF74B
:1011BC0095FF00F093FA18B1044B4FF080521A606F
:1011CC000020BDE80840FFF7B9BF00BF04ED00E008
:1011DC00064B4FF47A721B68B3FBF2F3044A013BE3
:1011EC001360044B07221A60704700BF04000020F4
:1011FC0014E000E010E000E013B51F4B00211A785A
:10120C00D2B20192FF221A701B781C4ADBB28DF805
:10121C0003309DF8033003F050031370184B072272
:10122C001A609DF80300541E000608D59DF8032093
:10123C0001215200D2B28DF803202246F1E701B110
:10124C001A601A68120202F4E0621A60019B0A4AE0
:10125C00DBB213700B4B1A6842F470021A601A68F6
:10126C0042F070421A60FFF7B3FF074B00221A607E
:10127C00FFF7F8FEFFF73AFF00E400E0280000203B
:10128C002C00002020ED00E00000002010B50F4BDA
:10129C001A68824201D21346FAE759685C18A042D8
:1012AC0001BF406809181846596041684418A242A9
:1012BC0007D1074C2468A2421FBF54681268091951
:1012CC0041609842026018BF186010BD38000020C1
:1012DC00340000202DE9F041044600F0F7F93A49BA
:1012EC003A4D0B680BBB3A4A56071FBFD01D20F076
:1012FC00070002F54063024614BF1B1A4FF440630B
:10130C001344344E083B23F0070300207060326016
:10131C00586018600B60981A13602F4B506018605F
:10132C002E4B18604FF000432B602F68274240D1A2
:10133C00002C3FD004F1080358071CBF23F007030F
:10134C000833002B33D0254A16689046B34230D868
:10135C00204A15686868834203D809688D4206D113
:10136C0027E02C68002CF8D02A462546F2E729689D
:10137C0014681160C21A102A04F1080409D9E8187B
:10138C00410702D0FFF7AAFEFEE742606B60FFF751
:10139C007DFF11496A680868B31A8342C8F80030A7
:1013AC0038BF0B60174300236F602B6002E01C46B4
:1013BC0000E0002400F024FA630702D0FFF78EFE51
:1013CC00FEE72046BDE8F08134000020400C0020F0
:1013DC004000002038000020440C00203000002089
:1013EC0010B5044610B3124A50F8043C126813426C
:1013FC0002D1FFF773FEFEE750F8081C11B1FFF79E
:10140C006DFEFEE723EA020340F8043C00F05EF9AF
:10141C00084A54F8041C1368A4F108000B44136028
:10142C00FFF734FFBDE8104000F0EAB910BD00BF73
:10143C00400C002030000020064A13681968064B47
:10144C0011B94FF0FF3203E01268D268D2685268CB
:10145C001A6070474C0C0020140D00200E4B10B578
:10146C001A68044650600D4A1268904207D2BDE8D3
:10147C0010400B4A106819680431FFF7CABD094ABD
:10148C00106819680431FFF7C4FD074B1A689442C1
:10149C0038BF1C6010BD00BF100D00201C0D0020BB
:1014AC00200D00204C0C0020140D00202DE9F84FCD
:1014BC000A9E9A460F461546DDF82C800C9B8146F9
:1014CC0010B9FFF70BFEFEE7062E02D9FFF706FE5A
:1014DC00FEE73BB99000FFF7FDFE8346002800F0C5
:1014EC00A68000E09B465C20FFF7F4FE044688B122
:1014FC00AD002A46C0F830B0A521584600F070FC6B
:10150C00236B043D1D4425F007057B1E04F13302BB
:10151C000F3705E05846FFF763FF88E0BB4206D063
:10152C0013F8011F02F8011F19780029F6D14FF0AA
:10153C00000B271D384684F843B0E662E664C4F815
:10154C0050B0FFF757FD04F11800FFF753FDC6F13B
:10155C000703C4F854B02461A361646284F858B0E2
:10156C00524649462846FFF78DFD2060B8F1000F22
:10157C0001D0C8F80040FFF7C7FD2F4A2F4D136864
:10158C00DFF8DC90013313602B683BBB2C601268D6
:10159C00012A2BD1984609EB080008F11408FFF733
:1015AC001EFDB8F18C0FF6D1DFF8B8A0DFF8B880CB
:1015BC005046FFF714FD4046FFF711FD2048FFF79A
:1015CC000EFD2048FFF70BFD1F48FFF708FD1F4BD2
:1015DC00C3F800A01E4BC3F8008007E01D4B1B682E
:1015EC0023B92B68DB6A9E4228BF2C601A4A1B4920
:1015FC00136801331360E26A63640B68012404FA14
:10160C0002F0034314200B6000FB02903946FFF7F5
:10161C00F4FCFFF797FD0F4B1B682BB12B68DB6AB3
:10162C009E4201D9FFF74EFD2046BDE8F88F4FF0E2
:10163C00FF30BDE8F88F00BF3C0D0020100D0020DE
:10164C00240D0020FC0C0020540D00204C0C00201C
:10165C00200D0020500C0020380D0020680D0020BB
:10166C00700C0020580C0020400D002030B50024D8
:10167C0085B00394029401940094234680220E4971
:10168C000E48FFF713FF012805460ED1FFF726FD84
:10169C000B4B4FF0FF321A600A4B1D600A4B1C605B
:1016AC0005B0BDE83040FFF7A7BD10B9FFF716FD38
:1016BC00FEE705B030BD00BF3C1E00083D19000818
:1016CC00140D0020500C00201C0D0020024A136841
:1016DC0001331360704700BF180D00203D4B2DE9FE
:1016EC00F74F1B68002B36D13B4B1A6801321A603E
:1016FC001D688DB9394B1A68126812B1FFF7EEFCF0
:10170C00FEE7374A1968106818601160354A13688B
:10171C0001331360FFF790FE334C4FF0000B23683E
:10172C0001949D42314E324F0BD3DFF8B080DFF87D
:10173C00CC90D8F800201268A2B9019B4FF0FF3270
:10174C001A603A68D16A14224A43B258022A28BF56
:10175C004FF0010B34E0274A4FF0000B13680133B4
:10176C0013602DE0D8F80020D268D46861688D42EF
:10177C0002D2019B1960E4E704F1040A5046FFF71A
:10178C0060FCA16A19B104F11800FFF75AFCE06A79
:10179C00D9F80010012303FA00FE4EEA01014FF0C4
:1017AC00140EC9F800100EFB00605146FFF725FC23
:1017BC003868E16AC26A914228BF4FF0010BB8E762
:1017CC000D4A1268002A18BF4FF0010B584603B09F
:1017DC00BDE8F08F180D00201C0D00204C0C0020D3
:1017EC00200D0020480C0020140D0020700C00204F
:1017FC00100D00206C0C00206C0D0020680D0020DA
:10180C002DE9F8432A4C236813B9FFF767FCFEE770
:10181C00FFF77AFC2368013B236023680BB100249B
:10182C0041E0244B1B68002BF9D0234D234EDFF8ED
:10183C009C802B6803B3EB680127DC6804F1040976
:10184C0004F11800FFF7FDFB4846FFF7FAFBE26ACC
:10185C00336807FA02F114200B4300FB028049465F
:10186C003360FFF7CAFB164BE26A1B68DB6A9A42CD
:10187C00DFD3144B1F60DAE7134C236833B9114BD9
:10188C001C68012CCBD1FFF71DFC0CE00D4D012683
:10189C002368002BF3D0FFF721FF00B12E602368E3
:1018AC00013B2360F4E7FFF74DFC2046BDE8F883CD
:1018BC00180D00203C0D0020240D0020680D002088
:1018CC00100D00206C0D00206C0C0020700C002002
:1018DC0038B518B9BDE83840FFF7F4BB104B1B689E
:1018EC0013B1FFF7FBFBFEE7FFF7F0FE0D4B0E4DC0
:1018FC001B68C41828680430FFF7A3FB40B92B6899
:10190C000A49D86A0A680123834022EA03030B6060
:10191C002046FFF7A3FDFFF773FF0028DAD038BD90
:10192C00180D00201C0D0020100D0020680D00204B
:10193C00154D80B52E46154F2B68F3B1FFF7C6FE3B
:10194C003C68FFF75DFF002CF6D0FFF7DDFB0F4B7B
:10195C00DB68DC68201DFFF774FB0D4A1368013B44
:10196C0013603368013B3360FFF7ECFB206BFFF730
:10197C0037FD2046FFF734FDDEE7064B1B68012BD5
:10198C00D9D9FFF79FFBD6E7540C0020FC0C0020A4
:10199C003C0D0020700C0020144B10B51A68144B31
:1019AC000AB1012220E01A60124B1B68B3FA83F3D0
:1019BC00DBB2C3F11F0314225A430F498C58881809
:1019CC0014B9FFF78BFBFEE74468083264680A44DD
:1019DC00944208BF6268446008BF4260142202FB54
:1019EC0003135B68DA68054B1A6010BD180D0020F4
:1019FC006C0D0020680D0020700C0020100D0020D4
:101A0C00054B1B6833B1054B1B68002B0CBF022028
:101A1C000020704701207047500C0020180D00204A
:101A2C0008B50120FFF7C9FAFBE730B54FF4803356
:101A3C0091B001220793002102240E9306A84FF4C3
:101A4C00E013069208910A920D940F93FEF720FD75
:101A5C0000B1FEE703904FF48063059021460F25FB
:101A6C0001A8029401950493FEF7BAFF044600B155
:101A7C00FEE7FFF767F84FF47A73B0FBF3F0FEF76D
:101A8C0005FC0420FEF718FC224629464FF0FF30D7
:101A9C00FEF7BCFB11B030BD70B58AB0FEF776FB1B
:101AAC00FFF7C3FF394B4FF400519A69384842F0A5
:101ABC0010029A619A69022402F010020092009AB4
:101ACC009A69012542F020029A619A6902F020027B
:101ADC000192019A9A6942F008029A619B6900226C
:101AEC0003F008030293029BFEF7CAFC00224FF49A
:101AFC0000712848FEF7C4FC4FF4005305A9244894
:101B0C00059308940695FEF7E3FB4FF40073214808
:101B1C0005A9059308940695FEF7DAFB41F61F4ECE
:101B2C0042F20F721C4C4FF0804384E80840204670
:101B3C000023A360E2602361FFF7E0F900B1FEE748
:101B4C004FF4805305A920460593FFF742F800B1E6
:101B5C00FEE70390049003A92046FFF7E9F900B1D2
:101B6C00FEE70D48FFF72AF806460028F9D10B4D81
:101B7C0005AC0FCD0FC42B68314605A82360FFF7C9
:101B8C0000FA074B1860FFF7F7F9FEE70010024068
:101B9C0000100140000C0140740D0020281E0008AC
:101BAC00700D002008B50C4A0368934203D1BDE8C0
:101BBC000840FEF7FDBAB3F1804F0BD14FF4007122
:101BCC000648FEF761FCBDE808404FF4005104489C
:101BDC00FEF75ABC08BD00BF002C0140000C0140B0
:101BEC0000100140204B07B59A69032042F0010216
:101BFC009A619B6903F001030193019BFEF7F4FAD0
:101C0C00002211466FF00B00FEF700FB002211467C
:101C1C006FF00A00FEF7FAFA002211466FF0090085
:101C2C00FEF7F4FA002211466FF00400FEF7EEFA0C
:101C3C00002211466FF00300FEF7E8FA00220F2194
:101C4C006FF00100FEF7E2FA00220F214FF0FF3097
:101C5C00FEF7DCFA054A536823F0E06343F0806337
:101C6C00536003B05DF804FB00100240000001401B
:101C7C00036807B5B3F1804F12D103F50433DA6969
:101C8C001C2042F00102DA61DB69002203F001033F
:101C9C0001931146019BFEF7B9FA1C20FEF7EAFAF4
:101CAC0003B05DF804FB000010B5014688B00022BB
:101CBC001920FEF7ABFA1920FEF7DCFA144B01A938
:101CCC009A6903A842F400629A619B69114C03F46F
:101CDC0000630293029BFEF753FFFEF739FF0E4B96
:101CEC00236040F2E733E3600C4BB0FBF3F00138B8
:101CFC000023606020462361A360FFF7FFF818B94A
:101D0C002046FEF75BFF00E0012008B010BD00BFCD
:101D1C0000100240B00D0020002C014040420F008A
:101D2C007047FEE7FEE7FEE7FEE77047FFF74DB9A9
:101D3C000148FFF70CB800BFB00D00200148FFF7B9
:101D4C0006B800BF740D00200F4B1A6842F0010258
:101D5C001A6059680D4A0A405A601A6822F0847257
:101D6C0022F480321A601A6822F480221A605A68AF
:101D7C0022F4FE025A604FF41F029A60044B4FF09B
:101D8C0000629A60704700BF001002400000FFF82C
:101D9C0000ED00E00E4B70B51E460E4C0025E41A0B
:101DAC00A410A54204D056F8253098470135F8E721
:101DBC0000F01EF8084B094C1E46E41AA41000252E
:101DCC00A54204D056F8253098470135F8E770BD88
:101DDC00681E0008681E0008681E00086C1E0008BB
:101DEC0003460244934202D003F8011BFAE7704702
:101DFC00F8B500BFF8BC08BC9E467047F8B500BFEC
:081E0C00F8BC08BC9E467047BB
:101E140002030405060708090A0B0C0D0E0F101027
:101E240001020000411E00082D1A000800000000F5
:101E3400000000008000000049444C4500646566D1
:101E440061756C745461736B000000000000000045
:101E54000001020304060708090000000001020350
:041E64000400000076
:041E6800310100083C
:041E6C000D0100085C
:081E7000AAAAAAAA00A24A04D2
:040000050800014DA1
:00000001FF
