:020000040800F2
:1000000000000220392600089126000891260008E9
:1000100091260008912600089126000800000000A3
:100020000000000000000000000000009126000811
:1000300091260008000000009126000855200008C5
:1000400091260008912600089126000891260008B4
:1000500091260008912600089126000891260008A4
:100060009126000891260008912600089126000894
:100070009126000891260008912600089126000884
:100080009126000891260008912600089126000874
:100090009126000891260008912600089126000864
:1000A0009126000891260008912600089126000854
:1000B0009126000891260008912600089126000844
:1000C0009126000891260008912600089126000834
:1000D0009126000865200008712000087D20000896
:1000E0009126000891260008912600089126000814
:1000F0009126000891260008912600089126000804
:1001000091260008912600089126000891260008F3
:1001100091260008912600089126000891260008E3
:1001200091260008912600089126000891260008D3
:100130009126000800000000000000009126000841
:1001400091260008912600089126000891260008B3
:1001500091260008912600089126000891260008A3
:100160009126000891260008912600089126000893
:100170009126000891260008912600080000000042
:1001800000000000912600080000000000000000B0
:1001900091260008000000000000000091260008E1
:1001A0000000000000000000000000009126000890
:1001B0009126000891260008912600089126000843
:0401C000912600087C
:1001C80010B5054C237833B9044B13B10448AFF389
:1001D80000800123237010BD4005002000000000AE
:1001E800986A000808B5034B1BB103480349AFF3ED
:1001F800008008BD00000000986A0008440500203F
:1002080081F0004102E000BF83F0004330B54FEABF
:1002180041044FEA430594EA050F08BF90EA020F2C
:100228001FBF54EA000C55EA020C7FEA645C7FEABF
:10023800655C00F0E2804FEA5454D4EB5555B8BFE2
:100248006D420CDD2C4480EA020281EA030382EA53
:10025800000083EA010180EA020281EA0303362DE5
:1002680088BF30BD11F0004F4FEA01314FF4801CB8
:100278004CEA113102D0404261EB410113F0004FCA
:100288004FEA03334CEA133302D0524263EB430381
:1002980094EA050F00F0A780A4F10104D5F1200E1F
:1002A8000DDB02FA0EFC22FA05F2801841F100017A
:1002B80003FA0EF2801843FA05F359410EE0A5F14E
:1002C80020050EF1200E012A03FA0EFC28BF4CF07F
:1002D800020C43FA05F3C01851EBE37101F0004535
:1002E80007D54FF0000EDCF1000C7EEB00006EEB42
:1002F8000101B1F5801F1BD3B1F5001F0CD34908CC
:100308005FEA30004FEA3C0C04F101044FEA445222
:1003180012F5800F80F09A80BCF1004F08BF5FEAA9
:10032800500C50F1000041EB045141EA050130BD89
:100338005FEA4C0C404141EB010111F4801FA4F12C
:100348000104E9D191F0000F04BF01460020B1FA81
:1003580081F308BF2033A3F10B03B3F120020CDAB9
:100368000C3208DD02F1140CC2F10C0201FA0CF097
:1003780021FA02F10CE002F11402D8BFC2F1200CFC
:1003880001FA02F120FA0CFCDCBF41EA0C019040B2
:10039800E41AA2BF01EB0451294330BD6FEA0404FB
:1003A8001F3C1CDA0C340EDC04F11404C4F12002E6
:1003B80020FA04F001FA02F340EA030021FA04F3F8
:1003C80045EA030130BDC4F10C04C4F1200220FA4F
:1003D80002F001FA04F340EA0300294630BD21FA8D
:1003E80004F0294630BD94F0000F83F4801306BF53
:1003F80081F480110134013D4EE77FEA645C18BF47
:100408007FEA655C29D094EA050F08BF90EA020FDD
:1004180005D054EA000C04BF1946104630BD91EAD5
:10042800030F1EBF0021002030BD5FEA545C05D1D8
:100438004000494128BF41F0004130BD14F5800417
:100448003CBF01F5801130BD01F0004545F0FE418B
:1004580041F470014FF0000030BD7FEA645C1ABFC0
:10046800194610467FEA655C1CBF0B46024650EAF7
:10047800013406BF52EA033591EA030F41F4002123
:1004880030BD00BF90F0000F04BF0021704730B5A9
:100498004FF4806404F132044FF000054FF000017E
:1004A80050E700BF90F0000F04BF0021704730B53F
:1004B8004FF4806404F1320410F0004548BF404214
:1004C8004FF000013EE700BF42004FEAE2014FEA69
:1004D80031014FEA02701FBF12F07F4393F07F4F44
:1004E80081F06051704792F0000F14BF93F07F4F76
:1004F800704730B54FF4607401F0004521F00041B9
:1005080020E700BF50EA010208BF704730B54FF03E
:1005180000050AE050EA010208BF704730B511F043
:10052800004502D5404261EB41014FF4806404F17B
:1005380032045FEA915C3FF4DCAE4FF003025FEAFD
:10054800DC0C18BF03325FEADC0C18BF033202EB85
:10055800DC02C2F1200300FA03FC20FA02F001FADF
:1005680003FE40EA0E0021FA02F11444C1E600BF7E
:1005780070B54FF0FF0C4CF4E06C1CEA11541DBF31
:100588001CEA135594EA0C0F95EA0C0F00F0DEF8FC
:100598002C4481EA030621EA4C5123EA4C5350EAE1
:1005A800013518BF52EA033541F4801143F4801332
:1005B80038D0A0FB02CE4FF00005E1FB02E506F0C3
:1005C8000042E0FB03E54FF00006E1FB03569CF018
:1005D800000F18BF4EF0010EA4F1FF04B6F5007F1E
:1005E80064F5407404D25FEA4E0E6D4146EB060690
:1005F80042EAC62141EA55514FEAC52040EA5E5019
:100608004FEACE2EB4F1FD0C88BFBCF5E06F1ED8C2
:10061800BEF1004F08BF5FEA500E50F1000041EBF9
:10062800045170BD06F0004646EA010140EA0200A6
:1006380081EA0301B4EB5C04C2BFD4EB0C0541EAC8
:10064800045170BD41F480114FF0000E013C00F3DD
:10065800AB8014F1360FDEBF002001F0004170BD01
:10066800C4F10004203C35DA0C341BDC04F114041A
:10067800C4F1200500FA05F320FA04F001FA05F2A6
:1006880040EA020001F0004221F0004110EBD37073
:1006980021FA04F642EB06015EEA430E08BF20EA9F
:1006A800D37070BDC4F10C04C4F1200500FA04F342
:1006B80020FA05F001FA04F240EA020001F00041D4
:1006C80010EBD37041F100015EEA430E08BF20EA47
:1006D800D37070BDC4F1200500FA05F24EEA020E8F
:1006E80020FA04F301FA05F243EA020321FA04F0BE
:1006F80001F0004121FA04F220EA020000EBD37075
:100708005EEA430E08BF20EAD37070BD94F0000F74
:100718000FD101F00046400041EB010111F4801FA8
:1007280008BF013CF7D041EA060195F0000F18BF59
:10073800704703F00046520043EB030313F4801F95
:1007480008BF013DF7D043EA0603704794EA0C0F4F
:100758000CEA135518BF95EA0C0F0CD050EA410665
:1007680018BF52EA4306D1D181EA030101F00041E2
:100778004FF0000070BD50EA410606BF104619460A
:1007880052EA430619D094EA0C0F02D150EA013616
:1007980013D195EA0C0F05D152EA03361CBF104657
:1007A80019460AD181EA030101F0004141F0FE41F6
:1007B80041F470014FF0000070BD41F0FE4141F47A
:1007C800780170BD70B54FF0FF0C4CF4E06C1CEA7A
:1007D80011541DBF1CEA135594EA0C0F95EA0C0F2F
:1007E80000F0A7F8A4EB050481EA030E52EA0335EA
:1007F8004FEA013100F088804FEA03334FF080550B
:1008080045EA131343EA12634FEA022245EA111537
:1008180045EA10654FEA00260EF000419D4208BFE8
:10082800964244F1FD0404F5407402D25B084FEA95
:100838003202B61A65EB03055B084FEA32024FF441
:1008480080104FF4002CB6EB020E75EB030E22BF9E
:10085800B61A754640EA0C005B084FEA3202B6EB5E
:10086800020E75EB030E22BFB61A754640EA5C000D
:100878005B084FEA3202B6EB020E75EB030E22BF9D
:10088800B61A754640EA9C005B084FEA3202B6EB9E
:10089800020E75EB030E22BFB61A754640EADC005D
:1008A80055EA060E18D04FEA051545EA16754FEABF
:1008B80006164FEAC30343EA52734FEAC2025FEADD
:1008C8001C1CC0D111F4801F0BD141EA00014FF06C
:1008D80000004FF0004CB6E711F4801F04BF01433D
:1008E8000020B4F1FD0C88BFBCF5E06F3FF6AFAE59
:1008F800B5EB030C04BFB6EB020C5FEA500C50F1E9
:10090800000041EB045170BD0EF0004E4EEA11316B
:1009180014EB5C04C2BFD4EB0C0541EA045170BD72
:1009280041F480114FF0000E013C90E645EA060EB6
:100938008DE60CEA135594EA0C0F08BF95EA0C0FE4
:100948003FF43BAF94EA0C0F0AD150EA01347FF42C
:1009580034AF95EA0C0F7FF425AF104619462CE703
:1009680095EA0C0F06D152EA03353FF4FDAE104666
:10097800194622E750EA410618BF52EA43067FF4B7
:10098800C5AE50EA41047FF40DAF52EA43057FF447
:10099800EBAE12E74FF0FF3C06E000BF4FF0010C52
:1009A80002E000BF4FF0010C4DF804CD4FEA410CB6
:1009B8007FEA6C5C4FEA430C18BF7FEA6C5C1BD083
:1009C80001B050EA410C0CBF52EA430C91EA030F04
:1009D80002BF90EA020F0020704710F1000F91EA61
:1009E800030F58BF994208BF90422CBFD8176FEA2F
:1009F800E37040F0010070474FEA410C7FEA6C5CFD
:100A080002D150EA013C07D14FEA430C7FEA6C5C03
:100A1800D6D152EA033CD3D05DF8040B704700BF2F
:100A28008446104662468C461946634600E000BF7D
:100A380001B5FFF7B7FF002848BF10F1000F01BD4F
:100A48004DF808EDFFF7F4FF0CBF012000205DF81A
:100A580008FB00BF4DF808EDFFF7EAFF34BF01209F
:100A680000205DF808FB00BF4DF808EDFFF7E0FF38
:100A780094BF012000205DF808FB00BF4DF808ED89
:100A8800FFF7CEFF94BF012000205DF808FB00BFF0
:100A98004DF808EDFFF7C4FF34BF012000205DF8D2
:100AA80008FB00BF4FEA410212F5001215D211D51A
:100AB8006FF47873B3EB625212D94FEAC12343F053
:100AC800004343EA505311F0004F23FA02F018BFD5
:100AD800404270474FF00000704750EA013005D19E
:100AE80011F0004008BF6FF0004070474FF0000061
:100AF800704700BF4BB942B9002908BF002802D08F
:100B08004FF0FF31084600F03BB882B0EC462DE9C3
:100B1800005000F01DF8DDF804E002B00CBC70478E
:100B28002DE97043069E14461D468046894600F00E
:100B380029F804FB01F300FB0533A4FB00451D4421
:100B4800B8EB040469EB0505C6E90045BDE8708308
:100B58002DE97043069E1446804689461D4600F0DE
:100B68005DF900FB05F504FB0153A0FB04451D449A
:100B7800B8EB040469EB0505C6E90045BDE87083D8
:100B8800704700BF00292DE9F00FC0F29F800024B4
:100B9800002BC0F29680154606460F46002B3ED124
:100BA8008A4257D9B2FA82F34BB1C3F1200201FA53
:100BB80003F720FA02F29D40174300FA03F6290CC6
:100BC800B7FBF1F2330C01FB127CA8B243EA0C47E5
:100BD80000FB02F3BB4209D97F1902F1FF3C80F008
:100BE8000181BB4240F2FE80023A2F44FF1AB7FB54
:100BF800F1F3B6B201FB137146EA014100FB03F0C1
:100C0800884208D9491903F1FF3780F0ED808842FE
:100C180040F2EA80023B43EA0242002303E08B42AF
:100C28000AD900231A461046194614B1404261EB0E
:100C38004101BDE8F00F7047B3FA83F8B8F1000F2F
:100C480040F084808B4202D3824200F2DE8000238F
:100C58000122E8E712B90123B3FBF2F5B5FA85F2F0
:100C6800002A39D17F1B280C1FFA85FC0123B7FB0A
:100C7800F0F1320C00FB117742EA07470CFB01F256
:100C8800BA4207D97F1901F1FF3802D2BA4200F2FD
:100C9800C1804146BF1AB7FBF0F2B6B200FB127032
:100CA80046EA00400CFB02FC844507D9401902F1D2
:100CB800FF3702D2844500F2AB803A4642EA01424D
:100CC800B1E7E443524263EB430364E7404261EB1C
:100CD80041014FF0FF345BE79540C2F1200327FA4A
:100CE80003F1280C26FA03F39740B1FBF0F81F43F1
:100CF8003B0C00FB18111FFA85FC43EA01410CFB71
:100D080008F38B4206FA02F608D9491908F1FF32AE
:100D180079D28B4277D9A8F102082944C91AB1FBC4
:100D2800F0F3BFB200FB131147EA01470CFB03F2D3
:100D3800BA4207D97F1903F1FF3160D2BA425ED9AE
:100D4800023B2F44BF1A43EA084390E7C8F1200248
:100D580003FA08FC25FA02F343EA0C0C4FEA1C4993
:100D680021FA02F301FA08F720FA02F2B3FBF9F1CB
:100D7800174309FB11333A0C1FFA8CFB42EA034371
:100D88000BFB01FA9A4505FA08F008D913EB0C0396
:100D980001F1FF3235D29A4533D902396344CAEB9F
:100DA8000303B3FBF9F209FB1233BFB247EA034767
:100DB8000BFB02F9B94508D917EB0C0702F1FF3311
:100DC8001BD2B94519D9023A674442EA0145A5FB45
:100DD8000001C9EB07078F424FF000030AD305D083
:100DE8002A4620E7624601E73B4614E706FA08F67A
:100DF8008642F5D26A1E002315E71A46E5E70B4638
:100E0800A0E71146CBE7904688E7434642460AE703
:100E1800023A53E702392F443CE700BF2DE9F00FAF
:100E2800144605460E46002B43D18A4253D9B2FADE
:100E380082F757B1C7F1200620FA06F601FA07F340
:100E480002FA07F41E4300FA07F5210CB6FBF1F28B
:100E58002B0C01FB1267A0B243EA074600FB02F322
:100E6800B34209D9361902F1FF3780F0F680B34250
:100E780040F2F380023A2644F61AB6FBF1F3ADB21B
:100E880001FB136145EA014100FB03F0884208D9E0
:100E9800091903F1FF3680F0E280884240F2DF80D2
:100EA800023B43EA0242002310461946BDE8F00F10
:100EB80070478B424AD8B3FA83F6002E4DD18B4245
:100EC80002D3824200F2D68000230122104619463E
:100ED800BDE8F00F704712B90124B4FBF2F4B4FA7C
:100EE80084F2002A7CD1091B260CA7B20123B1FB8E
:100EF800F6F02A0C06FB101142EA014107FB00F24A
:100F08008A4207D9091900F1FF3C02D28A4200F24D
:100F1800C3806046891AB1FBF6F2ADB206FB121126
:100F280045EA014507FB02F7AF4208D92C1902F13F
:100F3800FF3180F09680A74240F29380023A42EA5D
:100F4800004210461946BDE8F00F704700231A46C4
:100F580010461946BDE8F00F7047C6F1200522FA81
:100F680005F4B3401C434FEA144821FA05F301FA8B
:100F780006F720FA05F5B3FBF8FC2F4308FB1C33F2
:100F88003D0C1FFA84FA45EA03430AFB0CF999451C
:100F980002FA06FB04D91B190CF1FF326DD39446F3
:100FA800C9EB0303B3FBF8F508FB1533BFB247EAF7
:100FB80003470AFB05F8B84504D93F1905F1FF3383
:100FC80061D31D4645EA0C4CACFB0B23C8EB070765
:100FD8009F424FF0000549D345D062462B4663E750
:100FE8009440C2F1200321FA03FC260C20FA03F3F3
:100FF80001FA02F5BCFBF6F843EA05010B0C06FB07
:1010080018CCA7B243EA0C4C07FB08F3634500FA77
:1010180002F509D91CEB040C08F1FF323AD26345FA
:1010280038D9A8F10208A444C3EB0C0CBCFBF6F3B6
:1010380089B206FB13CC41EA0C4107FB03F28A4252
:1010480007D9091903F1FF3022D28A4220D9023B7D
:101058002144891A43EA084349E73A460CE73346EC
:101068001FE70A466BE7B0409042B6D20CF1FF3258
:10107800002319E73346324616E799458FD9ACF174
:10108800020C23448CE7B8459BD9023D274499E7D5
:101098000346DEE79046C7E7023821443AE700BF37
:1010A8002DE9F8430568C3682A69044622F44052CA
:1010B800A1681343C26900692B61EB680843616941
:1010C80023F416430143114323F00C030B43EB6055
:1010D8006969A36921F440710B43B2F5004F6B6154
:1010E800404B36D19D4203D003F580639D4216D113
:1010F80000F08AFD6368192778435B00B0FBF3F8BA
:1011080000F082FD63686426B8FBF6F878435B005C
:101118004FEA0818B0FBF3F900F076FD15E000F08F
:101128005DFD636819275B007843B0FBF3F800F0B6
:1011380055FD63686426B8FBF6F878435B004FEA10
:101148000818B0FBF3F900F049FD636878435B00C9
:1011580034E09D4202D0244B9D4216D100F054FD4C
:101168006368192778439B00B0FBF3F800F04CFD47
:1011780063686426B8FBF6F878439B004FEA0818C2
:10118800B0FBF3F900F040FD15E000F027FD6368BF
:1011980019279B007843B0FBF3F800F01FFD636844
:1011A8006426B8FBF6F878439B004FEA0818B0FBB2
:1011B800F3F900F013FD636878439B00B0FBF3F785
:1011C800B7FBF6F706FB17994FEA091909F1320937
:1011D800B9FBF6F606F00F0646EA0806AE60BDE86B
:1011E800F88300BF0010014000140140F8B5044620
:1011F8000E46154600F0FEFE074622681368334087
:10120800B34221D06B1CF9D0C5B92368DA6822F043
:101218008002DA60DA6822F02002DA60DA6822F402
:101228008072DA605A6922F001025A61012384F857
:101238003930002384F838300320F8BD00F0DAFE96
:10124800C01BA842D9D9E0E70020F8BD10B5044674
:1012580030B390F8393003F0FF021BB980F838201A
:1012680000F01AFF022384F839302368DA6822F480
:101278000052DA602046FFF713FF23681A6922F448
:1012880090421A615A6922F02A025A61DA6842F4D5
:101298000052DA6000200123E06384F8393010BD81
:1012A800012010BD70B51E4690F83930DBB2012B15
:1012B80004460D4601D0222B4ED1002D4AD0002ADB
:1012C80048D094F83830012B46D0012384F83830C0
:1012D8000023E36394F83930A284222B0CBF322315
:1012E800122384F83930E284E38C03B3013BE384AE
:1012F800A368B3F5805F20464FF0800132460DD1D8
:10130800FFF774FF08B1032070BD2A882368C2F371
:1013180008025A60236943B90235E5E7FFF766FF1B
:101328000028F0D123682A785A600135DCE7204686
:1013380040213246FFF75AFF0028E4D194F83930AB
:10134800322B0CBF2223012384F83930002384F880
:10135800383070BD012070BD022070BD90F8393062
:10136800DBB2012B01D0122B29D131B32AB390F86B
:101378003830012B23D0012380F838300023C36391
:1013880090F839308285122B0CBF3223222380F843
:1013980039300368C285DA68816242F48072DA60A3
:1013A8005A6942F001025A61D968002241F02001CD
:1013B80080F83820D9601046704701207047022015
:1013C8007047704770471FB503681968DA68C9071E
:1013D80004460CD5D0050AD5002200921A6800925E
:1013E8005A680092009AE26B42F00102E2631968BF
:1013F8005A6989070CD5D0070AD5002201921A68C4
:1014080001925A680192019AE26B42F00402E26387
:1014180019685A6949070CD5D0070AD500220292E3
:101428001A6802925A680292029AE26B42F0020229
:10143800E26319685A6909070CD5D0070AD5002252
:1014480003921A6803925A680392039AE26B42F075
:101458000802E2631968DA68890642D5900640D521
:1014680094F8392002F0EF02222A3AD1A2682169C1
:10147800B2F5805FA26A0BD15B6821B9C3F3080398
:1014880022F8023B02E0DBB222F8013BA2620AE04A
:1014980019B9511CA1625B6804E05B68511CA16228
:1014A80003F07F031370E38D013B9BB2E385C3B95F
:1014B8002368DA6822F02002DA6094F83920322AA8
:1014C80001D1122308E0DA6822F48072DA605A69DE
:1014D80022F001025A61012384F83930204601F0D4
:1014E80007F823681968DA68090628D5100626D58A
:1014F80094F8392002F0DF02122A20D1A268B2F54E
:10150800805F226A0AD11188C1F3080159602169F4
:1015180009B9023200E00132226203E0511C216263
:1015280012785A60E28C013A92B2E2843AB9DA68E7
:1015380022F08002DA60DA6842F04002DA60196864
:10154800DA68490610D552060ED5DA6822F040024C
:10155800DA6094F83930322B0CBF2223012384F847
:1015680039302046FFF72DFFE36B2BB1012384F8B8
:1015780039302046FFF726FF04B010BD03682DE977
:10158800F341DE07044603D423689D074FD49AE04D
:101598008B4B9A6802F00C02042A10D09A6802F069
:1015A8000C02082A02D15B68580208D4844B9A6856
:1015B80002F00C020C2A0BD15B68590208D5804B4B
:1015C8001B689A03E0D56368002BDDD1012069E12F
:1015D8007C4D00232B7000F00DFD0646784B1B68F0
:1015E8009B0306D500F006FD801B6428F6D903206E
:1015F80058E123792B70636863B100F0FBFC054662
:101608006F4B1B689F03BFD400F0F4FC401B642899
:10161800F6D9ECE700F0EEFC0546694B1B689E0323
:10162800B2D500F0E7FC401B6428F6D9DFE7644B2D
:101638009A6812F00C0F10D09A6802F00C02082A6F
:1016480002D15B68580208D55D4B9A6802F00C021B
:101658000C2A0AD15B68590207D4594B1A689207B9
:1016680015D5E268012AB1D111E0E268564BE2B122
:1016780001221A6000F0BEFC0546514B1A68970714
:1016880005D400F0B7FC401B6428F6D9AFE71A6808
:10169800F82191FAA1F12369B1FA81F122F0F80257
:1016A8008B401343464A13600DE01A6000F0A2FC19
:1016B8000546434B1B689E0705D500F09BFC401B65
:1016C8006428F6D993E723681D0703D423685807CD
:1016D8004DD51FE062693D4B72B101221A6000F0DE
:1016E80089FC0546364B5B6F9907EFD400F082FC06
:1016F800401B6428F6D97AE71A6000F07BFC05469F
:101708002F4B5B6F9A07E1D500F074FC401B6428EF
:10171800F6D96CE700230193294B1A6C42F08052EA
:101728001A641B6C03F080530193019B284B1A68C1
:1017380042F480721A6000F05DFC0546244B1B6879
:10174800DB0517D5234D00232B7000F053FC06460C
:101758001B4B1B6F9F0713D4237A2B70A368FBB115
:1017680000F048FC0546164B1B6F9E0710D5A36971
:1017780093BB7CE000F03EFC401B6428DED936E7D2
:1017880000F038FC41F28833801B9842E0D92EE7FC
:1017980000F030FC41F28833401B9842E3D926E739
:1017A80000F028FC0546064B1B6F9807DFD500F0B4
:1017B80021FC41F28833401B9842F4D917E700BF57
:1017C800003802400238024000004742800E47427B
:1017D8000070004070380240344A926802F00C02EF
:1017E800082A3FF4F3AE324D022B4FF000032B6072
:1017F8004BD100F0FFFB06462C4B1B68990138D4EF
:1018080047F6C07898FAA8F84FF4403CB8FA88F838
:101818009CFAACFC4FF0706EBCFA8CFC9EFAAEFEE3
:101828004FF0E047BEFA8EFE97FAA7F7A26A266A3B
:10183800E069616AE36A5208304301FA08F1013A43
:1018480002FA0CF201431143226B03FA0EF3B7FAC2
:1018580087F70B43BA401343144A536001232B60A4
:1018680000F0C8FB0446114B1B689A0107D50020FD
:1018780018E000F0BFFB801B6428BDD9B7E600F074
:10188800B9FB001B6428EED9B1E600F0B3FB0446AF
:10189800064B1B689B01EAD500F0ACFB001B6428D3
:1018A800F6D9A4E602B0BDE8F08100BF00380240D6
:1018B80060004742384B9A6802F00C02082A10B5BB
:1018C80007D00C2A36D0354B3548042A18BF18469D
:1018D80010BD59685A685C6812F4800F01F03F0126
:1018E80047F6C0720CD092FAA2F2B2FA82F347F627
:1018F800C0722240DA402A4BB3FBF1F353430BE0AA
:1019080092FAA2F247F6C0732448B2FA82F2234050
:10191800D340B0FBF1F14B431F4A50684FF44032BB
:1019280092FAA2F2B2FA82F200F44030D0400130CA
:1019380040002DE059685A685C6812F4800F01F085
:101948003F0147F6C0720CD092FAA2F2B2FA82F3C3
:1019580047F6C0722240DA40114BB3FBF1F3534310
:101968000BE092FAA2F247F6C0730C48B2FA82F280
:101978002340D340B0FBF1F14B43074A50684FF086
:10198800E04292FAA2F2B2FA82F200F0E040D040CD
:10199800B3FBF0F010BD00BF003802400024F40093
:1019A80040787D017E4B1A6802F00F02914270B5B3
:1019B80004460D4677D9CAB21A701B6803F00F03A4
:1019C8008B4201D0012070BD03689E0706D5754A79
:1019D800A168906820F0F00001439160DD070BD406
:1019E8002368580740F1CC806E4AE168906820F47B
:1019F800E05001439160C3E063686A4A012B03D158
:101A0800126812F4003F08E0991E0129126802D8F2
:101A180012F0007F01E012F0020FD3D0614A916802
:101A280021F003010B43936000F0E4FA6368012B93
:101A380005460ED15B4B9B6803F00C03042BCFD0FB
:101A480000F0D8FA41F28833401B9842F2D90320BB
:101A580070BD022B0DD1534B9B6803F00C03082B70
:101A6800BED000F0C7FA41F28833401B9842F2D941
:101A7800EDE7032B05D04B4B9B6813F00C0F0AD1F5
:101A8800AEE7484B9B6800F0B5FA41F28833401B3B
:101A98009842F6D9DBE700F0ADFA41F28833401BF3
:101AA8009842E8D9D3E70368990706D53D4AA16863
:101AB800906820F0F00001439160DA0709D4384BB0
:101AC800EAB21A701B6803F00F03AB427FF47AAFD7
:101AD80086E76368334A012B03D1126812F4003F8A
:101AE80008E0991E0129126802D812F0007F01E06F
:101AF80012F0020F3FF466AF2A4A916821F0030101
:101B08000B43936000F076FA6368012B06460DD10B
:101B1800244B9B6803F00C03042BD0D000F06AFA26
:101B280041F28833801B9842F2D990E7022B0DD1FD
:101B38001C4B9B6803F00C03082BC0D000F05AFA2A
:101B480041F28833801B9842F2D980E7032B05D0F5
:101B5800144B9B6813F00C0F0AD1B0E7114B9B682C
:101B680000F048FA41F28833801B9842F6D96EE7B4
:101B780000F040FA41F28833801B9842E8D966E7C2
:101B88001B0707D5074B21699A6822F4604242EA8D
:101B9800C1029A60002000F0F8F9002070BD00BF73
:101BA800003C02400038024008B5FFF783FE084BAE
:101BB800F0229B6892FAA2F2B2FA82F203F0F003E2
:101BC800D340044AD35CD840034B186008BD00BF1B
:101BD80000380240B06A00080000002008B5FFF78E
:101BE800E3FF074B4FF4E0529B6892FAA2F2B2FA75
:101BF80082F203F4E053D340024AD35CD84008BDD4
:101C080000380240B06A000808B5FFF7CDFF074B5F
:101C18004FF460429B6892FAA2F2B2FA82F203F49D
:101C28006043D340024AD35CD84008BD0038024024
:101C3800B06A000813B500230193224B1A6C42F0D6
:101C480080521A641B6C03F080530193019B4FF47C
:101C5800803393FAA3F3B3FA83F39B0003F184432D
:101C680003F5602301221A6000F0C4F90446164BFC
:101C78005B68DA0307D400F0BDF9001BB0F57A7F82
:101C8800F5D903201BE04FF4003393FAA3F3B3FA1A
:101C980083F39B0003F1844303F5602301221A6058
:101CA80000F0A8F90446084B5B689B0306D400F0D3
:101CB800A1F9001BB0F57A7FF5D9E2E7002002B060
:101CC80010BD00BF00380240007000402DE9F74306
:101CD8000F68002301229A4002EA0704944240F068
:101CE800C7804A6822F01006022E16D14FEAD30C9C
:101CF80000EB8C0C03F00708DCF820504FEA88084A
:101D08004FF00F0909FA08F925EA09090D6905FADA
:101D180008F849EA0805CCF820505D004FF0030C9C
:101D2800D0F800900CFA05FC6FEA0C0C02F00308DE
:101D38000CEA090908FA05F8013E49EA0808012EE3
:101D4800C0F8008010D886680CEA0608CE68AE4055
:101D580048EA06068660466826EA0408C2F30016C2
:101D68009E4048EA06064660C6680CEA060C8E687D
:101D7800AE404CEA0605C560D50079D5404E002531
:101D88000195D6F844C04CF4804CC6F844C0766C33
:101D980006F480460196019E23F0030606F180466C
:101DA80006F59C3603F0030CD6F808904FEA8C0C25
:101DB8004FF00F0808FA0CF829EA0808DFF8C8906D
:101DC800484525D005F1804505F50135A84216D0CE
:101DD80005F58065A84214D005F58065A84212D0A3
:101DE80005F58065A84210D005F58065A8420ED09B
:101DF80005F58065A84214BF0825062508E00125D9
:101E080006E0022504E0032502E0042500E005259C
:101E180005FA0CF545EA0805B5601A4ED6F800C073
:101E2800E54312F4803F14BF44EA0C0C05EA0C0C9D
:101E3800C6F800C0766812F4003F14BF44EA060CE6
:101E480005EA060C0F4EC6F804C0D6F808C012F40E
:101E5800801F14BF44EA0C0C05EA0C0CC6F808C035
:101E6800F6689202074A54BF05EA06043443D46070
:101E78000133102B7FF42EAF03B0BDE8F08300BF11
:101E880000380240003C01400000024002B9090449
:101E9800816170474369594041617047074AD36877
:101EA80023F4E0631B041B0C43F0BF6343F40033CB
:101EB80000F0070043EA0023D360704700ED00E01C
:101EC800164BDB68C3F3022370B51D1DC3F107046D
:101ED800042C28BF0424062D4FF001058CBF033BBA
:101EE800002305FA04F405FA03F6013C013E2140FB
:101EF800324001FA03F3134300284FEA031305DACB
:101F0800DAB200F00F00064B1A5470BD00F16040C1
:101F180000F56140DBB280F8003370BD00ED00E0F1
:101F280014ED00E04209012300F01F0003FA00F05D
:101F3800014B43F82200704700E100E00138B0F19E
:101F4800807F0AD2064B074A5860F02182F8231096
:101F58000020072298601A6070470120704700BF70
:101F680010E000E000ED00E0044B1A6804280CBF04
:101F780042F0040222F004021A60704710E000E008
:101F8800704708B5FFF7FCFF08BD10B50446FFF71A
:101F98000BFE4FF47A73B0FBF3F0FFF7CFFF4FF06F
:101FA800FF3021460022FFF78BFF002010BD000004
:101FB80008B50B4B1A6842F400721A601A6842F4AA
:101FC80080621A601A6842F480721A600320FFF770
:101FD80065FF0020FFF7D9FF00F052F8002008BD88
:101FE800003C0240024B1A6801321A60704700BF79
:101FF8005C050020014B1868704700BF5C05002095
:102008000F4AD2F8883043F47003C2F888300D4B79
:102018001968002041F0010119609860196821F0E1
:10202800847121F48031196007495960196821F4D5
:1020380080211960D8604FF000639360704700BF3B
:1020480000ED00E0003802401030002408B5FFF72A
:10205800C9FFBDE80840FFF794BF00000148FFF73B
:10206800B2B900BF800600200148FFF7ACB900BF35
:10207800180700200148FFF7A6B900BFE8050020AF
:1020880008B50320FFF70AFF00214FF0FF300A468A
:10209800BDE80840FFF714BF2DE9F0410368404A46
:1020A800934288B021D100243E4B00945A6C3E489C
:1020B80042F010025A645B6C03F010030093009B1B
:1020C8004FF4C0630393022304930123059303236E
:1020D800069303A907230793FFF7F8FD2520214658
:1020E8002246FFF7EDFE252054E0304A934220D1E6
:1020F80000242C4B01941A6C2B4842F400321A64C9
:102108001B6C03F400330193019B0C2303930223FC
:102118000493012305930323069303A90723079335
:10212800FFF7D4FD262021462246FFF7C9FE2620C8
:1021380030E01F4A93422FD100241A4B02941A6CA4
:102148001C4842F480221A641B6C03F48023029317
:10215800029B4FF00208202301270326072503A925
:102168000393CDF81080059706960795FFF7AEFD07
:102178004FF480631048039303A9CDF810800597A6
:1021880006960795FFF7A2FD272021462246FFF76E
:1021980097FE2720FFF7C6FE08B0BDE8F08100BF14
:1021A8000010014000380240000002400044004096
:1021B80000480040000802400004024030B595B0D5
:1021C8000025254B00951A6C42F080521A641B6C4E
:1021D80003F080530093009B204B01951A6842F44A
:1021E80040421A601B680E9503F440430193019B1B
:1021F80001230A9310230B93082302240F9307A8A3
:10220800B423109307940D94119412941394FFF728
:10221800B5F9FFF70FFD0D2302934FF4A0530521E5
:10222800059302A84FF48053069303940495FFF78F
:10223800B9FBFFF7B9FC0A4BB0FBF3F0FFF77EFEE2
:102248000420FFF791FE4FF0FF3029462A46FFF79A
:1022580037FE15B030BD00BF0038024000700040A6
:1022680040420F0000000000F0B52DED028B9BB03E
:102278000024FFF79DFEFFF7A1FF854B03941A6B1F
:10228800844842F001021A631A6B02F001020392B9
:10229800039A04941A6B42F004021A631A6B02F050
:1022A80004020492049A05941A6B42F002021A631B
:1022B8001B6B089403F00203059306A9059B099478
:1022C800E023012706930797FFF700FD7248734B39
:1022D80084604FF4E1360C2580E84800C46004614E
:1022E80045618461C461FEF7B1FF6D486D4B846040
:1022F80080E84800C460046145618461C461FEF7F8
:10230800A5FF6948694B846080E84800C46004619F
:1023180045618461C461FEF799FFFFF745FC644B92
:10232800984204D15B4820213A46FFF7AFFD5A484E
:1023380060490122FFF712F80028F8D158485E4991
:102348000122FFF70BF80028F8D157485B49012212
:10235800FFF704F80028F8D104462046FEF792F863
:1023680049A3D3E90023FEF703F9554B554D002245
:10237800FEF728FA41EC100B41EC180B03F0ECF8CF
:1023880051498DED000B224606A800F0A5F906A8D4
:1023980000F0C6F94FF47A7382B206A93E48FEF7F8
:1023A80081FFB0EE480AF0EE680A03F091F8474959
:1023B8008DED000B224606A800F08EF906A800F065
:1023C800AFF94FF47A7382B206A93548FEF76AFF6F
:1023D800B0EE480AF0EE680A03F006F93C498DEDC4
:1023E800000B224606A800F077F906A800F098F935
:1023F8004FF47A7382B206A92B48FEF753FF2B7865
:102408007BB13449244850224FF47A73FEF74AFFCF
:102418004FF47A73204830490222FEF743FF002325
:102428002B702E4D2B787BB12D491D4850224FF42F
:102438007A73FEF737FF4FF47A7319482649022258
:10244800FEF730FF00232B70264D2B787BB12649F1
:10245800154850224FF47A73FEF724FF4FF47A732D
:1024680011481D490222FEF71DFF00232B7001347D
:102478005B2C08484FF0400128BF0024FFF70AFDF5
:102488006BE700BFAFF300807A008BFCFA210940AC
:102498000038024000000240800600200010014081
:1024A8001807002000440040E805002000480040CC
:1024B8000095BA0A2B06002028060020C006002036
:1024C80000806640C2060020C06A0008D66A00087C
:1024D800EC6A0008C4060020FF6A000858070020BC
:1024E8002D0600201407002098050020AFF3008077
:1024F80010B5044620213B48FFF7CCFC23683A4A34
:10250800934220D139490B7843B1394A12780D2AC0
:102518000CD0581C08703749CA540CE01A46354884
:10252800002414540132502AF9D1EEE700230B702D
:10253800314B01221A702E4930480122FEF70EFF56
:102548002E482B4946E02E4A934220D12D490B783C
:1025580043B12D4A12780D2A0CD0581C08702B490B
:10256800CA540CE01A462948002414540132502A4F
:10257800F9D1EEE700230B70254B01221A7022498E
:1025880024480122FEF7EAFE22481F4922E0224A97
:10259800934226D121490B7843B1214A12780D2A5A
:1025A8000CD0581C08701F49CA540CE01A461D4824
:1025B800002414540132502AF9D1EEE700230B709D
:1025C800194B01221A70164918480122FEF7C6FE57
:1025D8001648134901224FF47A73BDE81040FEF7FC
:1025E80061BE10BD000002400010014059070020E4
:1025F8002B060020C4060020C2060020800600200A
:10260800004400402A060020280600202D0600204D
:10261800580700201807002000480040C306002083
:10262800C00600209805002014070020E8050020B7
:10263800DFF83CD0002100F004B80E4B5B58435043
:1026480004310D480D4B42189A42FFF4F6AF0C4A7C
:1026580000F003B8002342F8043B0A4B9A42FFF407
:10266800F9AFFFF7CDFC00F011F8FFF7FDFD70475B
:1026780000000220586E00080000002040050020DD
:102688004005002060070020FFF7FEBF70B50E4B25
:102698000E4DED1AAD1000241E46AC4204D056F87B
:1026A800242090470134F8E704F0F2F9084D094B6B
:1026B800ED1AAD1000241E46AC4204D056F8242072
:1026C80090470134F8E770BD506E0008506E00085E
:1026D800546E0008506E00080EB400B59CB04FF45C
:1026E8000271ADF814106FF00041049107914FF694
:1026F800FF711DABADF81610084953F8042B029072
:1027080006900868019302A900F012F8029B0022C3
:102718001A701CB05DF804EB03B07047F400002099
:10272800034613F8012B002AFBD1181A0138704709
:102738002DE9F04FBFB08B4698460792824601F0CC
:10274800DFFD00681490FFF7EBFFBBF80C300C902E
:10275800190615D5DBF8103093B95046402101F021
:10276800DBFDCBF80000CBF8100030B90C23CAF819
:1027780000304FF0FF3000F074BF4023CBF8143026
:102788009FED9B7B8DED087B00232EAE2196239336
:1027980022930593179316930B93079B1C4613F8E4
:1027A800012B1AB90798251A03D11BE0252AF5D160
:1027B800F8E7239B07992B442393229B0133072B8C
:1027C80086E82200229301DC083608E05046594684
:1027D80021AA02F0E1FA002840F03B872EAE0B9ABE
:1027E8002A440B922378002B00F02C870023013415
:1027F8008DF867304FF0FF390A931F46651C24781F
:1028080007950494049CA4F12002582A00F28B83B3
:10281800DFE812F06D0089038903710089038903D9
:1028280089038903890389035B00590089037700B9
:102838007A008903A000A300A300A300A300A300BB
:10284800A300A300A300A3008903890389038903C4
:10285800890389038903890389038903D40008014B
:10286800890308018903890389038903B700890358
:102878008903680289038903890389038903C102DB
:102888008903890368008903890389038903890304
:1028980089038903890389038903CA00650008013C
:1028A80008010801BA00650089038903BD0089038E
:1028B80049026A029202C7008903A4028903C3027B
:1028C80089038903DE022B2307E0D8F800500A9514
:1028D800002D08F1040211DB9046079C8EE78DF865
:1028E80067306FE0444C8DF86730179474E2002B22
:1028F80008BF2023F1E747F00107EEE76D420A958C
:10290800904647F00407E8E7079C257804952A2DA8
:1029180004F1010202D04FF000090BE0D8F8009052
:10292800079208F10401B9F1000F8846D5DA4FF093
:10293800FF39D2E7049DA5F13001092906D80A20FC
:1029480012F8014B049400FB0919F3E749EAE97905
:10295800079257E747F08007BFE700240A94049DD1
:102968000A9CA5F130020A2101FB0424079A0A9463
:1029780012F8015B0495A5F130010929E8D80792FE
:10298800EDE747F00807A8E747F04007A5E7079CE9
:1029980022786C2A02D10134079402E047F010072C
:1029A8009BE747F0200798E7D8F800308DF890307B
:1029B80000258DF8675008F10408BFE28DF86730EC
:1029C80047F01007BA0608D508F1070828F00703EA
:1029D80003F10808D3E9004518E017F0100F08F1D3
:1029E80004030BD0D8F800400EE000BFAFF300801E
:1029F8000000000000000000226B0008D8F800402A
:102A080017F0400F18BF24B2E5179846002C75F14F
:102A1800000180F20C822D23644265EB45058DF898
:102A2800673004E2049C8DF8673008F1070828F045
:102A3800070306970D9493ED007B8DED087B9DEDC4
:102A4800080B03F1080802F073F9012816D1DDE933
:102A5800080100220023FDF7FDFF10B12D238DF89A
:102A68006730A84BA84A049C472CD8BF1A46039243
:102A780027F080074FF00309002566E29DED080B5B
:102A880002F056F958B9A14BA14A049D472DD8BF69
:102A98001A46039227F080074FF0030954E2B9F170
:102AA800FF3F0AD0049C24F02003472B07D1B9F13B
:102AB800000F08BF4FF0010901E04FF00609DDE9FA
:102AC8000823002B47F4807707DA0998089D0E95AC
:102AD80000F100400F902D2404E09DED087B8DED62
:102AE8000E7B0024049D159425F02004462C04D068
:102AF800452C05D109F1010503E04D46032101E00C
:102B08004D4602211CAB00931FAB019350469DED2F
:102B18000E0B2A461BAB00F03BFE472C03900AD154
:102B28000698C30707D41F9B039D472CC5EB0303D7
:102B3800059337D12DE0DDF80CC0462CAC4413D1F9
:102B480003980378302B0DD1DDE90E010022002314
:102B5800CDF808C0FDF774FFDDF808C010B9C5F15D
:102B680001051B951B9B9C44DDE90E0100220023F7
:102B7800CDF808C0FDF764FFDDF808C008B1CDF84E
:102B88007CC01F9B6345CED25A1C1F9230221A70FC
:102B9800F7E71B9BDC1C01DB4B4562DD049C023C18
:102BA800049402E0049D652D42DC1B9B049C8DF877
:102BB8007440013B002B1B93BABF5B422D222B2292
:102BC800092B8DF875201CDD0DF182020A2093FB7C
:102BD800F0F100FB113330330929144602F80139AA
:102BE8000B46F3DC01F1300304F8013D0DF17603E7
:102BF8000DF1830294420BD214F8012B03F8012B38
:102C0800F6E7302213448DF877308DF876201EAB26
:102C1800059D1DAA9A1A9146012D1692A94403DC16
:102C2800069D15F0010437D009F10109002433E0AD
:102C3800049C662C15D11B9B002B09DDB9F1000FF4
:102C480002D1069DE80723D509F101094B441FE08D
:102C5800B9F1000F02D1069CE10715D509F102036D
:102C680016E01B9B059DAB4204DB069CE2070DD5D5
:102C7800013306E0002B059CD4BFC3F102030123F6
:102C8800234467250D9503E0012301E067240D9493
:102C98000D9D1B9C04959946159D15B12D238DF806
:102CA8006730002552E117F0200F8DF8673008F1E2
:102CB800040108D00B9CD8F80000E51722462B46E3
:102CC800C0E900230CE0FB0606D47D0604D5D8F83D
:102CD80000300B9C1C8003E0D8F800300B9D1D6071
:102CE80088465AE547F0100717F0200312D008F17C
:102CF800070828F00703D3E9004503F10808002373
:102D080091E000BF126B0008166B00081A6B0008F0
:102D18001E6B000817F0100108F1040207D117F024
:102D2800400304D0B8F8004000259046E7E7D8F8FB
:102D380000400025904676E030237822A848D8F84D
:102D480000408DF86830002547F002078DF86920AB
:102D580008F1040817900223049264E04346002512
:102D68001B680393A94508F104088DF867500DDB2B
:102D7800184629464A4601F0E1FC002800F0E480A4
:102D8800039C001B4845B8BF8146DEE00398FFF767
:102D9800C7FC8146D9E047F01007BC0608D508F102
:102DA800070828F0070303F10808D3E900450DE0F8
:102DB80017F0100F08F1040304D1780602D5B8F80B
:102DC800004001E0D8F800400025984601232AE099
:102DD800834D8DF867301795B90608D508F10708AF
:102DE80028F0070303F10808D3E900450DE017F0C0
:102DF800100F08F1040304D17A0602D5B8F8004090
:102E080001E0D8F8004000259846FB070AD554EAA7
:102E1800050007D0302304998DF868308DF86910C3
:102E280047F00207022300228DF8672000E0012303
:102E3800B9F1000FA8BF27F0800754EA050202D1B4
:102E4800B9F1000F5AD0012B1FD0022B0DF1B70397
:102E580041D0E10841EA4570E9081090119104F069
:102E68000702DDE91045303254EA050003931A7071
:102E780003F1FF33EDD1F80703994CD5302A4AD036
:102E88000393302301F8013C45E0002D08BF0A2CCC
:102E980005D230348DF8B7400DF1B7043AE00DF1A2
:102EA800B700069006990391204629460A22002376
:102EB800FDF720FE069B303203F8012920460693D1
:102EC80029460A220023FDF715FE04460D4654EA5A
:102ED8000500E7D11FE004F00F02179903938A5CFD
:102EE80003F80129220942EA057029091290139171
:102EF800DDE9124554EA0502EDD10CE033B9FB07D0
:102F080007D53EAC302304F8413D03E02EAD0395D0
:102F180001E02EAC0394039C4D460DF1B809C4EBB7
:102F28000909002412E0049D8DF86730002D00F097
:102F380089838DF8905000258DF8675024A84FF0AC
:102F480001092C46039001E005462C469DF86730A0
:102F5800A945ACBF4946294606910BB101310691F6
:102F680017F002030D9302D006980230069017F06E
:102F78008403159341D10A980699C1EB000CBCF162
:102F8800000F3ADD174B3360BCF1100F1BDD102327
:102F98007360239B10332393229B0133072B2293C7
:102FA80001DC08360CE05046594621AACDF808C085
:102FB80001F0F2FEDDF808C0002840F04A832EAE8A
:102FC800ACF1100CDEE7239BC6F804C063442393DE
:102FD800229B0133072B229306DC08360DE000BF45
:102FE800336B0008466B00085046594621AA01F089
:102FF800D3FE002840F02D832EAE9DF86730BBB17C
:103008000DF16703336001237360239B013323931E
:10301800229B0133072B229301DC083608E0504637
:10302800594621AA01F0B8FE002840F012832EAEBE
:103038000D9BB3B11AAB336002237360239B023339
:103048002393229B0133072B229301DC083608E0E7
:103058005046594621AA01F09FFE002840F0F98207
:103068002EAE159B802B3CD10A980699C1EB000C1B
:10307800BCF1000F35DD9C4B3360BCF1100F1BDD3C
:1030880010237360239B10332393229B0133072B58
:10309800229301DC08360CE05046594621AACDF8A7
:1030A80008C001F079FEDDF808C0002840F0D182A0
:1030B8002EAEACF1100CDEE7239BC6F804C06344C7
:1030C8002393229B0133072B229301DC083608E067
:1030D8005046594621AA01F05FFE002840F0B98207
:1030E8002EAEC9EB0505002D2EDD7F4B3360102D6C
:1030F80016DD10237360239B10332393229B013327
:10310800072B229301DC083608E05046594621AACD
:1031180001F042FE002840F09C822EAE103DE4E70C
:10312800239B75601D44229B23950133072B229313
:1031380001DC083608E05046594621AA01F02CFE69
:10314800002840F086822EAEFD0505D4039C239B03
:1031580086E810024B44DAE0049D652D40F3A78110
:10316800DDE9080100220023FDF76AFC002859D098
:103178005E4B336001237360239B01332393229BAF
:103188000133072B229301DC083608E050465946E4
:1031980021AA01F001FE002840F05B822EAE1B9BA5
:1031A800059CA34202DBFC0740F102820C9C239B96
:1031B800149D356023442393229B74600133072BAD
:1031C800229301DC083608E05046594621AA01F04E
:1031D800E3FD002840F03D822EAE059D6C1E002CBC
:1031E80040F3E681404B3360102C16DD10237360EA
:1031F800239B10332393229B0133072B229301DC5B
:10320800083608E05046594621AA01F0C5FD0028B5
:1032180040F01F822EAE103CE4E7239B74601C44F0
:10322800239434E11B9B002B73DC304B3360012368
:103238007360239B01332393229B0133072B229333
:1032480001DC083608E05046594621AA01F0A4FDE1
:10325800002840F0FE812EAE1B9B23B9059C14B9B3
:10326800F80740F1A5810C9C239B149D35602344ED
:103278002393229B74600133072B229301DC0836C9
:1032880008E05046594621AA01F086FD002840F082
:10329800E0812EAE1B9C6442002C32DD124B336061
:1032A800102C16DD10237360239B10332393229B6D
:1032B8000133072B229301DC083608E050465946B3
:1032C80021AA01F069FD002840F0C3812EAE103C10
:1032D800E4E7239B74601C44229B23940133072B4F
:1032E800229305DC08360CE0026B0008446B0008EA
:1032F8005046594621AA01F04FFD002840F0A98107
:103308002EAE039D059C35607460239B2344239354
:10331800BDE00598039D8146A145A8BFA146B9F126
:10332800000F054415DD239B03994B442393229BEF
:103338000133072B86E80202229301DC083608E0F5
:103348005046594621AA01F027FD002840F0818106
:103358002EAE29EAE979C9EB0409B9F1000F31DD8C
:103368009A4B3360B9F1100F17DD10237360239B5C
:1033780010332393229B0133072B229301DC083659
:1033880008E05046594621AA01F006FD002840F001
:1033980060812EAEA9F11009E2E7239BC6F80490DC
:1033A8004B442393229B0133072B229301DC0836DD
:1033B80008E05046594621AA01F0EEFC002840F0EA
:1033C80048812EAE1B9B0598039A8342144401DB67
:1033D800F90716D50C9A239B14993160134423934B
:1033E800229B72600133072B229301DC083608E028
:1033F8005046594621AA01F0CFFC002840F0298107
:103408002EAE1B9B05982D1BC31A9D42A8BF1D46B7
:10341800002D14DD239B2B442393229B0133072B80
:1034280086E83000229301DC083608E05046594609
:1034380021AA01F0B1FC002840F00B812EAE1B9BA5
:10344800059C25EAE575E31A5D1B002D40F3B08065
:103458005E4B3360102D16DD10237360239B1033F1
:103468002393229B0133072B229301DC083608E0C3
:103478005046594621AA01F08FFC002840F0E98007
:103488002EAE103DE4E7239B75601D442395229BD7
:103498000133072B229340F38A805046594621AACC
:1034A80001F07AFC002840F0D4802EAE80E0059D23
:1034B800012D01DCFA076DD501237360239B039C62
:1034C800346001332393229B0133072B229301DCC1
:1034D800083608E05046594621AA01F05DFC00284C
:1034E80040F0B7802EAE0C9C239B149D356023447E
:1034F8002393229B74600133072B229301DC083647
:1035080008E05046594621AA01F046FC002840F040
:10351800A0802EAEDDE9080100220023FDF790FA15
:10352800059D6C1E40B9039D6B1C86E81800239B03
:10353800059C013B234433E0002C34DD234B3360EE
:10354800102C15DD10237360239B10332393229BCB
:103558000133072B229301DC083607E05046594611
:1035680021AA01F019FC002873D12EAE103CE5E722
:10357800239B74601C442394229B0133072B2293C2
:1035880010DD5046594621AA01F006FC002860D1FA
:103598002EAE08E001237360239B039D3560013341
:1035A8002393E9E708361DAB3360169CACE6083672
:1035B8007B070DD40B9D06980A9C239BA042ACBFA9
:1035C8002D182D190B95002B37D030E0026B000811
:1035D8000A9D06982C1A002CECDD234B3360102C26
:1035E80014DD10237360239B10332393229B013334
:1035F800072B229301DC083606E05046594621AADB
:1036080001F0CAFB28BB2EAE103CE6E7239B746092
:103618001C44229B23940133072B2293CADD504676
:10362800594621AA01F0B8FB0028C3D011E0504642
:10363800594621AA01F0B0FB58B9002322932EAEB7
:10364800FFF7ABB8239B23B15046594621AA01F096
:10365800A3FBBBF80C300B9813F0400F18BF4FF0CA
:10366800FF303FB0BDE8F08F466B0008AFF3008035
:103678002DE9F74F03690C69A3428046C0F28180A7
:10368800013C01F11407A20000F1140591460092D3
:1036980057F824602A44019255F824200136B2FBD9
:1036A800F6F6B944002E3AD04FF0000E3A462846B6
:1036B800F34652F804CB03681FFA8CFA4FEA1C4C05
:1036C8000AFB06EA0CFB06FC0CEB1A4C1FFA8AFAFA
:1036D800CAEB0B0A4FEA1C4E1FFA8CFC1AFA83FA43
:1036E800CCEB134C0CEB2A4C1FFA8AFA4AEA0C4A28
:1036F8004A454FEA2C4B40F804ABDAD9009AAB584C
:103708006BB9019A131FAB421A4602D8C8F8104089
:1037180005E01268043B002AF8D1013CF3E7404673
:1037280001F03BFA00282ADB01362B46002057F827
:1037380004CB1A681FFA8CF1411A4FEA1C4C11FA93
:1037480082F1CCEB124202EB214289B210144F45B0
:1037580041EA024243F8042BE9D955F8242005EB45
:10376800840362B9043BAB421A4602D8C8F8104039
:1037780005E01268043B002AF8D1013CF3E7304623
:1037880000E0002003B0BDE8F08F0000000000005A
:103798002DE9F04F456A9BB082460D910E92149325
:1037A800249C8DED020B45B9102000F0ADFDCAF840
:1037B8002400456085600560C560DAF82430196822
:1037C80061B15B684B60012202FA03F38B605046DB
:1037D80001F003F8DAF8243000221A60039900296E
:1037E80005DA012321F000422360039201E000235F
:1037F8002360039C9A4A24F000431B0D1B05934247
:103808001DD1149F029942F20F733B6041B9954B49
:10381800954AC4F3130000280CBF1046184600E070
:103828009048259F002F00F06585C37813B100F1FB
:10383800080300E0C31C259F3B6000F05BBDDDE989
:1038480002890022404649460023FDF7F9F805465B
:1038580058B1149F01233B60259F002F00F0478536
:1038680082483860013800F045BD504649EC108B5D
:1038780019A918AA01F00CFAC4F30A56834656B1DE
:10388800C9F3130343F07F51404641F44011A6F2B7
:10389800FF3615951CE0199B189E1E446FF4826331
:1038A8009E4209DB02991F3306F212409B1B21FA44
:1038B80000F09C40204304E06D48029A801B02FA05
:1038C80000F0FCF7DFFD0127A1F1F871013E159723
:1038D8000022684BFCF798FC5BA3D3E90023FCF7B4
:1038E80047FE5BA3D3E90023FCF790FC044630466F
:1038F8000D46FCF7D7FD58A3D3E90023FCF738FEA3
:1039080002460B4620462946FCF780FC04460D4635
:10391800FDF7C8F829468146002220460023FDF716
:1039280099F858B14846FCF7BDFD02460B462046BB
:103938002946FDF785F808B909F1FF39B9F1160FDD
:103948000DD84D4B03EBC903D3E90001DDE9022390
:10395800FDF79EF830B109F1FF39002700E0012793
:10396800119700E01190189B9E1B013E069604D506
:10397800774205970027069701E000270597B9F1D8
:10398800000F07DB069FCDF840904F4406970027AD
:103998000B9708E0059FC9EB07070597C9F10007D2
:1039A8000B97002710970D9F092F28D8052FC4BF04
:1039B800043F0D970D9FA7F10203CCBF00250125F9
:1039C800032B21D8DFE803F0060F0204012702E0E9
:1039D800012709E000270C970E9F002F1EDD0A978C
:1039E80004973B461FE000270C970E9F4F440A9709
:1039F80001373B460497012BB8BF012313E001258B
:103A080000270D970C9501E001270C974FF0FF3721
:103A18000A970497002712230E9704E001270A97B4
:103A280004973B460E97DAF824400022626004218E
:103A380001F114029A4221D8626801326260490099
:103A4800F6E700BFAFF3008061436F63A787D23FFB
:103A5800B3C8608B288AC63FFB799F501344D33F75
:103A68000000F07F5F6B0008566B0008456B00088C
:103A7800EEFBFFFF0000F83F706B000850466168DE
:103A880000F076FEDAF82430049F20601B68079364
:103A98000E2F00F26981002D00F066819DED027BFA
:103AA800B9F1000F8DED127B31DD804A09F00F036B
:103AB80002EBC30393ED007B4FEA2914E0068DED7A
:103AC800087B0CD57A4BDDE91201D3E90823FCF712
:103AD80079FE04F00F04CDE90201032700E0022774
:103AE800734D6CB1E10708D5DDE90801D5E900237C
:103AF800FCF73EFDCDE90801013764100835F0E711
:103B0800DDE90201DDE90823FCF75CFE1BE0C9F1F1
:103B18000004DCB1654B664D04F00F0203EBC203F1
:103B2800DDE91201D3E90023FCF722FD2411022765
:103B38004CB1E20704D5D5E900230137FCF718FD9D
:103B480064100835F4E7CDE9020100E00227119975
:103B5800E1B1DDE90245002220462946554BFCF734
:103B680079FFC0B1049ADAB10A9B002B40F3F880C0
:103B780009F1FF310F910022204629464E4BFCF7F0
:103B8800F7FC0137CDE902010A9A0CE0049BCDF855
:103B98003C90089308E00499CDF83C90089103E024
:103BA800049ACDF83C9008923846FCF77BFCDDE996
:103BB8000223FCF7DDFC0022404BFCF727FB089FA3
:103BC8000446A1F15075CFB900223D4BDDE9020151
:103BD800FCF71AFB22462B4606460F46FCF758FF11
:103BE800002840F04B82224605F100433046394612
:103BF800FCF730FF002840F03782B1E0089F2B4BDC
:103C08007A1E0C9F03EBC203002F5DD0D3E900237B
:103C180000202C49FCF7D6FD22462B46FCF7F4FA87
:103C2800DDE90267DDF81C8004460D46394630465A
:103C3800FCF738FF0090FCF735FC02460B4630468F
:103C48003946FCF7E1FADDF800C00CF1300308F85A
:103C5800013B22462B4606460F46FCF7FBFE002892
:103C680040F0338332463B4600201249FCF7CCFA39
:103C780022462B46FCF7EEFE002840F0D480079938
:103C8800089AC1EB080393426ADA204629460022C3
:103C9800094BFCF76DFC002204460D4630463946B8
:103CA800054BFCF765FC06460F46BFE7706B00083E
:103CB800386C00080000F03F0000244000001C4061
:103CC800000014400000E03FD3E9000122462B46E3
:103CD800FCF74EFCDDF81C80089B079CCDE916011B
:103CE800DDE90267984439463046FCF7DBFE0546B5
:103CF800FCF7D8FB303502460B4630463946FCF710
:103D080083FA04F8015B444506460F4621D1002298
:103D1800874BDDE91601FCF779FA02460B46304677
:103D28003946FCF7B5FE00287DD1DDE916230020D1
:103D38007F49FCF769FA02460B4630463946FCF7DC
:103D480089FE68B1A046013C18F8013C302BF9D037
:103D5800BBE20022774BFCF70BFC06460F46C2E796
:103D68009DED127B8DED027B199B002B7CDBB9F15D
:103D78000E0F79DC704B0E9F03EBC903002FD3E9BC
:103D8800004514DA049F002F11DC40F06F812046B3
:103D980029460022694BFCF7EBFBDDE90223FCF71F
:103DA8006DFE049D2C46002840F062816AE1DDE941
:103DB8000267DDF81C8022462B4630463946FCF760
:103DC80001FDFCF76FFE0290FCF76CFB22462B46C8
:103DD800FCF7CEFB02460B4630463946FCF714FA90
:103DE800029F07F1300608F8016B079FC7EB08062A
:103DF800049FBE4202460B4629D1FCF707FA224629
:103E08002B4606460F46FCF743FE70B93046394646
:103E180022462B46FCF714FE002800F05882029F29
:103E2800FB0702D453E2DDF83C9043469846013B39
:103E380018F8012C392A06D1079F9F42F6D1302263
:103E480009F101093A701A7801321A703FE200222A
:103E5800384BFCF78DFB0022002306460F46FCF783
:103E6800EFFD0028A7D032E20C9F002F30D00D9F25
:103E7800012F0ADC159F17B103F2334302E0189BA8
:103E8800C3F136030B9D059E16E0049F7D1E0B9F14
:103E9800AF4201DB7D1B06E00B9F0B95EB1B109FD0
:103EA8001F4410970025049F002F03DA059900236B
:103EB800CE1B01E0059E049B059F1F440597069FA6
:103EC80050461F440121069700F025FD044602E0F4
:103ED8000B9D059E0C9C6EB1069F002F0ADD3B468C
:103EE800059FB342A8BF3346FF1A0597069FFF1ADE
:103EF800F61A06970B9F002F28DD0C9F07B3002D9D
:103F080010DD21462A46504600F0A6FD04465A46D2
:103F18002146504600F008FD59460746504600F035
:103F28005CFCBB460B9F7A1B10D0504659460AE0F2
:103F38000000E03F00002440706B000800001440BF
:103F48000B9A5046594600F087FD8346504601219A
:103F580000F0E1FC109F002F054605DD294650467C
:103F68003A4600F079FD05460D9F012F12DC0299B3
:103F780081B9039AC2F3130373B922F000473F0DC6
:103F88003F0557B1059F01370597069F01370697EB
:103F9800012702E0002700E0029F109941B12B6938
:103FA80005EB8303186900F069FCC0F1200000E00C
:103FB8000120069B034413F01F0308D0C3F120021D
:103FC800042A02DDC3F11C0302E008D013461C33A7
:103FD800059A06991A44194405921E440691059AB1
:103FE800002A04DD5946504600F084FD8346069BAE
:103FF800002B05DD294650461A4600F07BFD054694
:104008001199E1B15846294600F0C7FD002816DA93
:1040180059460A225046002300F0F6FB0C9A09F193
:10402800FF3983464AB12146002350460A2200F050
:10403800EBFB0A9B0493044601E00A990491049A55
:10404800002A29DC0D9B022B26DD8AB92946052288
:10405800049B504600F0D8FB05462946584600F018
:104068009CFD00280EDC03E0089D00E000252C469E
:104078000E9FDDF81C806FEA07090AE0089DDDF84D
:104088003C902C46079F312307F101083B7009F14A
:1040980001092746002407E10C99002900F0BB809C
:1040A800002E05DD21465046324600F023FD044629
:1040B8009FB16168504600F05BFB226902320646F8
:1040C80004F10C0192000C3000F047FB50463146D9
:1040D800012200F00FFD074600E02746079E29460B
:1040E8005846FFF7C5FA214600F1300C804658467D
:1040F800CDF800C000F051FD3A46059029465046DB
:1041080000F068FDC368DDF800C002464BB91146EF
:104118005846019200F041FD019ADDF800C00346BF
:1041280000E00123504611460193CDF800C000F08D
:1041380054FB019BDDF800C063B90D9A52B902998E
:1041480001F0010232B9BCF1390F35D0059B002BC3
:1041580024DC25E00599002902DA002B08DC1FE0A1
:1041680023D10D9A0ABB029901F00102EAB9F4E7DA
:10417800594601225046CDF800C000F0BBFC294644
:10418800834600F00AFD0028DDF800C003DC07D1F3
:104198001CF0010F04D0BCF1390F0DD008F1310C1F
:1041A80006F1010886F800C07EE0002B06F1010840
:1041B80009DDBCF1390F03D13923337001365BE0D7
:1041C8000CF1010368E0079A04994646C2EB08031C
:1041D8008B4206F801CC3CD059460A2200235046AF
:1041E80000F012FBBC428346214650464FF00A02BB
:1041F8004FF0000304D100F007FB044607466EE7C2
:1042080000F002FB394604460A225046002300F01B
:10421800FBFA074663E70C9E58462946FFF728FA3B
:10422800079F00F1300C07F806C0049F0136BE4214
:1042380007DB079E012FACBFF6190136274600247D
:1042480007E0594650460A22002300F0DDFA83466B
:10425800E2E7594601225046CDF800C000F04AFC7A
:104268002946834600F099FC0028DDF800C003DCED
:1042780014D11CF0010F11D016F8013C392BB046AF
:1042880006F1FF3607D10799B142F5D1312309F17B
:1042980001090B7008E00133337005E0B046013EB8
:1042A80018F8013C302BF9D05046294600F095FA11
:1042B8006FB12CB1BC4203D05046214600F08DFAB4
:1042C8005046394600F089FA01E0DDF83C90504646
:1042D800594600F082FA0023149F88F8003009F14B
:1042E80001033B60259F27B1C7F8008001E0034820
:1042F80000E007981BB0BDE8F08F00BF446B0008D2
:1043080000487047F8000020024B0146186800F08A
:1043180003B800BFF40000202DE9F04F01F10B04B1
:10432800162C85B0074603D934F0070401D502E0FE
:1043380010248C4202D20C233B60DDE1384600F0A9
:1043480015FAB4F5FC7F974D14D2E20805EBC203C9
:10435800DE689E4206D106F1080376699E4208BFD0
:10436800023243D07368F268B16823F00303CA606D
:1043780091605DE0620A1AD0042A02D8A209383294
:1043880018E0142A01D85B3214E0542A02D8220B10
:104398006E320FE0B2F5AA7F02D8E20B773209E05D
:1043A80040F254539A4204D8A20C7C3202E03F22D5
:1043B80000E07E2205EBC203DE689E4215D07168DC
:1043C80021F00301081B0F2801DD013A0DE0002848
:1043D80009DBF368B268D3609A6073185A6842F0D0
:1043E80001025A6093E1F668E7E701326D492E69E8
:1043F80001F10800864286466DD0736823F00303F6
:10440800C4EB030CBCF10F0F0DDD33194CF00102A6
:1044180044F0010474604B610B61D86098605A6085
:1044280043F80CC073E1BCF1000F4861086101DB7F
:104438003344D3E7B3F5007F11D2DB0898104FF06F
:10444800010C0CFA00FC48684CEA0000486001EBDB
:10445800C3018B68B360F1608E60DE603BE0580A90
:10446800042802D89809383015E0142801D85B30A0
:1044780011E0542802D8180B6E300CE0B0F5AA7F72
:1044880002D8D80B773006E040F2545188429ABFE0
:10449800980C7C307E2005EBC00CDFF80881DCF836
:1044A800081061450DD10123801003FA00F0D8F8F7
:1044B80004300343C8F804300B4608E089686145B6
:1044C80004D0486820F003008342F7D3CB68F36038
:1044D800B1609E60CE600121931001FA03F3696810
:1044E8008B4261D80B4206D122F003025B000B42DB
:1044F80002F10402FAD005EBC20080469446D8F8CF
:104508000C6046452DD0716821F00309C4EB090100
:104518000F2913DD331944F00104F268746056F86A
:10452800080FC260906041F001026B612B61C3F813
:104538000CE0C3F808E05A6059500CE000290EDB83
:1045480006EB09014B6843F001034B60F36856F82A
:10455800082FD3609A60384600F009F9DBE0F66866
:10456800CFE70CF1010C1CF0030F08F10808C6D1C5
:10457800910704D16A6822EA03026A6006E0A0F1A2
:1045880008010068884202F1FF32F1D069685B00D7
:104598008B4209D843B162460B42ACD104325B006E
:1045A800FAE700BF30010020D5F80880D8F80430B9
:1045B80023F00309A14504D3C4EB09030F2B00F32F
:1045C8009D80574B574A1B68116803F1100A013147
:1045D80008EB090CA244544B04D0591E8A44594292
:1045E8000AEA010A3846514601920293CDF80CC0F6
:1045F80000F0C2FB421C01AA064692E80C106ED0DD
:10460800604501D2A8456AD14849086866450AEB61
:10461800000EC1F800E046488B4607D1064205D196
:10462800AB68D14449F001025A604CE0126801328B
:1046380002D13C4A166005E0CCEB060C0EEB0C02EE
:10464800CBF8002016F007021CBFC2F10802B6180A
:10465800B24413440AEA0000C0EB030A5146384644
:1046680000F08AFB431C04BF30464FF0000ADBF819
:104678000030AE60801B5044534440F00100A84510
:10468800CBF8003070601ED0B9F10F0F02D80123AB
:10469800736024E0D8F80430A9F10C0929F007095F
:1046A80003F0010349EA0303C8F8043008EB0903DF
:1046B8000522B9F10F0F5A609A6004D9384608F1FB
:1046C800080100F07FFC1B4ADBF8003011688B42C0
:1046D80088BF1360184A11688B4288BF1360AB68A3
:1046E8005A6822F00302A242C4EB020301D30F2B43
:1046F80004DC384600F03BF800260CE0AE6844F0D5
:104708000102344443F001037260AC6063603846D0
:1047180000F02DF80836304605B0BDE8F08F00BF30
:10472800680500203C050020001000006C050020F2
:10473800FF0F0000640500206005002010B5C9B215
:1047480002449042034606D01C788C4200F10100D6
:10475800F7D1184610BD002010BD10B500239342B4
:1047680003D0CC5CC4540133F9E710BD70477047DF
:1047780070B5456A04460E463DB91020FFF7C4FDE2
:104788006062456085600560C560656AEB6843B135
:10479800636ADA6852F8260078B1016842F8261090
:1047A80017E020460421212200F08AFB636AE860B2
:1047B800DB68002BECD1002070BD012101FA06F561
:1047C8006A1D2046920000F07BFB0028F3D046606B
:1047D800856000220261C26070BD70B5446A0646F9
:1047E8000D463CB91020FFF78FFD7062446084606D
:1047F8000460C4603DB1736A6A68DB6853F82210CC
:10480800296043F8225070BD2DE9F0410C461E4640
:104818000D6907461431002308681FFA80FC000C54
:1048280002FB0C6C504300EB1C4001331FFA8CFC5C
:10483800060CAB420CEB004041F8040BECDBD6B1A4
:10484800A3689D4212DB616838460131FFF790FF8B
:104858002269023204F10C01804692000C30FFF705
:104868007CFF21463846FFF7B8FF444604EB850332
:1048780001355E6125612046BDE8F081030C1B040B
:1048880013B90004102300E0002310F07F4F04BF89
:104898000002083310F0704F04BF0001043310F019
:1048A800404F04BF80000233002803DB420003D5D9
:1048B800581C70471846704720207047036813F04B
:1048C80007020BD0D90722D49A0703D55B080360E7
:1048D800012070479B0803600220704799B209B90C
:1048E8001B0C102213F0FF0F04BF1B0A0832190714
:1048F80004BF1B090432990704BF9B080232D90779
:1049080002D45B0805D001320360104670470020CE
:1049180070472020704710B50C460121FFF728FF8B
:1049280001224461026110BD2DE9F04F16460A6963
:1049380033699A4285B00D4601DA35460E46D5F8F8
:1049480010803769AB68696808EB07049C42C8BFE8
:104958000131FFF70DFF00F1140303EB840101910E
:104968001A46DDF804A0524503D2002142F8041B80
:10497800F7E705F1140106F1140201EB880802EBD0
:104988008707CDF808800397039EB242154656D292
:10499800B5F800C00432BCF1000F25D00F461D4603
:1049A800002657F8049BD5F800801FFA89FB1FFAE8
:1049B80088FA0CFB0BAA4FEA19494FEA1848B24487
:1049C8000CFB098808EB1A481FFA8AFA4AEA084ACF
:1049D8004FEA1846DDF80880AB46B8454BF804ABFB
:1049E80001D95D46DDE76E6032F8028CB8F1000F40
:1049F80023D01E680F461D464FF00009B7F800A0E7
:104A0800B5F802C008FB0ACCE144B6B2AC4646EAA7
:104A180009464CF8046B57F8046BB5F804A0360C3B
:104A280008FB06A6DDF808A006EB194657454FEA2D
:104A3800164901D26546E1E76E600433A4E7019B9D
:104A4800002C03DC046105B0BDE8F08F53F8042D99
:104A5800002AF7D1013CF3E712F003032DE9F041F6
:104A680005460E46174607D0013B214A52F8232037
:104A78000023FFF7C9FE0646BF1035D06C6A3CB963
:104A88001020FFF741FC6862446084600460C460E1
:104A9800D5F82480D8F808407CB9284640F271211E
:104AA800FFF739FF0023C8F808000446036004E054
:104AB8007F1019D0206870B10446FB07F8D531463D
:104AC80022462846FFF730FF314680462846FFF742
:104AD80084FE4646ECE7284621462246FFF724FF97
:104AE800002320600360E7E73046BDE8F08100BF9F
:104AF800606C00082DE9F0470C464FEA621A2369FA
:104B080049680AEB0309A3688046154609F10107BD
:104B18009F4202DD01315B00FAE74046FFF728FEBD
:104B28000023064600F11402534504DA002142F836
:104B380023100133F8E720692AEAEA7104F1140323
:104B480015F01F0C02EB810103EB800E16D0CCF19F
:104B5800200A002518680A4600FA0CF0054342F8B6
:104B6800045B53F8045B734525FA0AF501D2114634
:104B7800F0E74D6045B109F1020705E053F8042B51
:104B880041F8042B7345F9D3013F4046376121466C
:104B9800FFF723FE3046BDE8F08702690B69D21A99
:104BA80010B513D19C00143001F1140203192244EA
:104BB80053F8044D52F8041D8C4203D008D24FF02C
:104BC800FF3010BD9842F3D3002010BD104610BD31
:104BD800012010BD2DE9F04706460C46084611464F
:104BE8001546FFF7DAFF071E08D130463946FFF7AA
:104BF800BFFD012303614761BDE8F08701DB0027A2
:104C080003E0234601272C461D4661683046FFF71E
:104C1800AFFD22692B69C760143405F1140606EB51
:104C2800830A04EB820C00F11403002154F8047B7E
:104C380056F8049B11FA87F11FFA89F54FEA1949CA
:104C4800C5EB0108C9EB174707EB28471FFA88F897
:104C58003914B24548EA0747254643F8047BE5D8A6
:104C680065450DD255F8044B11FA84F6240C04EB73
:104C78002644B6B2211446EA044443F8044BEFE74D
:104C880053F8041D09B9013AFAE70261BDE8F08753
:104C98002DE9F7438946012155EC104B9046FFF763
:104CA80067FDC5F30A570646C5F313030FB143F46E
:104CB80080130193D4B102A840F8084D6846FFF765
:104CC800FDFD009B48B1019AC0F1200102FA01F1F3
:104CD8000B43C2407361019200E07361019BB361B1
:104CE800002B0CBF01240224346107E001A8FFF760
:104CF800E5FD0124019B7361346120303FB1A7F2C7
:104D080033470744C9F80070C0F135000AE006EBE4
:104D18008403A0F23240C9F800001869FFF7AEFD1D
:104D2800C0EB4410C8F80000304603B0BDE8F0837B
:104D380051EC100B31F0004310B500D178B10C4A9A
:104D4800A3F5801494420CD9B3F5801F0BD3094AFC
:104D580093420AD1D0F1010038BF002010BD0220D3
:104D680010BD042010BD032010BD002010BD00BFE1
:104D7800FFFFDF7F0000F07F38B5064C00230546B3
:104D88000846236000F082F8431C02D1236803B16F
:104D98002B6038BD5C0700202DE9F74F80469068EE
:104DA800D2F800900C46154618B1002301931E4610
:104DB80008E0506066E0D9F80030D9F80460019343
:104DC80009F10809002EF6D0A768BE4247D3A28988
:104DD80012F4906F41D023682169C1EB030A63691B
:104DE800022003EB430393FBF0FB0AF1010030447C
:104DF800834538BF8346530540460FD55946FFF7CC
:104E08008BFA074698B152462169FFF7A6FCA2899A
:104E180022F4906242F08002A28115E05A4600F026
:104E2800ADF9074680B94046216900F0CBF80C235C
:104E3800C8F80030A38943F04003A3810023AB6086
:104E48006B604FF0FF301DE02761CAEB0B0357443E
:104E58002760C4F814B03746A360BE4200D2374674
:104E68003A462068019900F065F9A368DB1BA36046
:104E780023681F44AB6827609E1BAE60002E9AD142
:104E88006E60304603B0BDE8F08F0000094B1A6829
:104E98000AB9094A1A601B686A461844904205D93B
:104EA800064B0C221A604FF0FF307047014A106021
:104EB8001846704794050020600700205C07002012
:104EC80010B55143FFF728FA044620B350F8042CD4
:104ED80022F00302043A242A1AD8132A12D90021EC
:104EE8001B2A0160416002D800F108030BE0242A64
:104EF8008160C16011BF00F11003016100F1180366
:104F0800416100E0034600221A605A609A6002E09C
:104F1800002100F02AF9204610BD00002DE9F041DB
:104F2800244D254F0E460446FFF720FCAB685B680E
:104F380023F00308A7F1110343449E1BB6FBF7F6C1
:104F4800013E7E43BE4205DA2046FFF710FC0020F2
:104F5800BDE8F08120460021FFF70EFFAB6843440F
:104F68009842F1D120467142FFF706FF013010D177
:104F780020460021FFF700FFAB68C21A0F2AE3DDC5
:104F88000E490968401A0E4942F0010208605A6049
:104F9800DAE7AB68C6EB080848F001025A60084B2C
:104FA8001A682046961B1E60FFF7E1FB0120BDE84A
:104FB800F08100BF30010020001000003C050020F7
:104FC8006C050020F8B506460D46002900F0A980BA
:104FD800FFF7CCFB55F804CC524CA5F108032CF094
:104FE80001029818A1684768884227F003070CF067
:104FF80001011BD13A4439B955F8081C5B1A0A4417
:105008009868D968C160886042F001015960A3605E
:10501800454B1B689A4204D3444B30461968FFF746
:105028007DFF3046BDE8F840FFF7A1BB476079B97E
:1050380055F8085C5B1B2A449D6804F1080C65451B
:1050480008D0D3F80CC0C5F80CC0CCF8085002E062
:10505800002100E00121C5196D68ED070ED43A441E
:10506800856841B9324FBD4205D163612361012191
:10507800DD609D6002E0C068E860856042F0010084
:1050880058609A500029CCD1B2F5007F0ED2D208D0
:1050980091100120884061680143616004EBC204FB
:1050A800A2689A60DC60A360D360BAE7510A042959
:1050B80002D89109383115E0142901D85B3111E083
:1050C800542902D8110B6E310CE0B1F5AA7F02D831
:1050D800D10B773106E040F2545081429ABF910CCF
:1050E8007C317E2104EBC1040E48A568A54201D09D
:1050F80029460BE00122891002FA01F142680A43AD
:105108004260294608E08968A14204D0486820F036
:1051180003008242F7D3CD68DD609960AB60CB6055
:105128007FE7F8BD30010020380500206805002021
:1051380038010020814270B501D300230EE08C189D
:10514800A042FAD28518134613F1FF3305D3514212
:1051580066182944F65CCE54F6E770BD934203D036
:10516800CC5CC4540133F9E770BD02440346934252
:1051780002D003F8011BFAE7704700002DE9F74F4A
:1051880081460C4629B9114603B0BDE8F04FFFF738
:10519800C3B80192FFF7EAFA019A54F8045C02F1E5
:1051A8000B07162FA4F1080825F0030603D937F0DA
:1051B800070701D502E01027974204D20C23C9F84B
:1051C800003000207EE1BE4280F25481A249D1F82D
:1051D80008E008EB060373458B46586805D020F0B5
:1051E800010119444968C90725D420F00300734513
:1051F80000EB060117D107F1100C61451DDB08EB28
:105208000705C91B41F00101CBF80850696054F843
:10521800043C03F001031F43484644F8047CFFF7AD
:10522800A6FA20464EE1B94207DBDA689B680E46CB
:10523800DA6093601EE100200346E90700F1C980A7
:1052480054F8085CC5EB0805696821F0030101EB17
:10525800060A002B00F0888073454BD10AEB000347
:1052680007F110018B427FDBA846EA6858F8081F4F
:10527800CA609160321F242A25D8132A1BD92168B5
:10528800A9606168E9601B2A03D805F11002083497
:1052980012E0A1682961E1686961242A03D005F157
:1052A8001802103408E02269AA616169E96105F110
:1052B8002002183400E0424621681160616851609C
:1052C800A168916005E0404621460193FFF732FF4F
:1052D800019BEA19DB1B43F00103CBF8082053605C
:1052E8006B6803F001031F4348466F60FFF73FFAFE
:1052F8004046E7E00AEB000BBB4535DBDA689B6804
:105308002846DA60936050F8082FEB68D3609A60FB
:10531800321F242A23D8132A1AD92368AB6063685A
:10532800EB601B2A03D805F11000083410E0A368CD
:105338002B61E3686B61242A03D005F1180010344F
:1053480006E02369AB616369EB6105F1200018345D
:105358002368036063684360A368836002E02146B2
:10536800FFF7E8FE5E462EE0BA4532DB2846EB68DA
:1053780050F8082FD3609A60321F242A25D8132AA0
:105388001AD92368AB606368EB601B2A03D805F160
:105398001000083410E0A3682B61E3686B61242ACD
:1053A80003D005F11800103406E02369AB61636986
:1053B800EB6105F1200018342368036063684360DB
:1053C800A36883605646A84654E02146FFF7B2FE1C
:1053D800F8E748461146FEF79FFF0546002844D0E7
:1053E80054F8043C23F00103A0F1080243449A4214
:1053F80005D150F8043C23F003031E443AE0321F61
:10540800242A2BD8132A1ED92368036063684360B3
:105418001B2A04D800F1080304F1080215E0A36868
:105428008360E368C360242A04D000F1100304F108
:1054380010020AE0236903616169416100F1180300
:1054480004F1180201E00346224611681960516808
:10545800596092689A6004E0300100202146FFF705
:1054680069FE48462146FFF7ADFD4846FFF77FF93C
:10547800284627E0F31B0F2BD8F8042013D908EB94
:10548800070102F00102174343F001020B44C8F878
:1054980004704A605A6842F001025A60484608316E
:1054A800FFF790FD09E002F0010232434644C8F8D4
:1054B8000420736843F0010373604846FFF757F907
:1054C80008F1080003B0BDE8F08F00BF000000003D
:1054D8001FB551EC100B1E4A21F00043934202DC29
:1054E8009FED191B16E01B4A934205DD10EE102AAA
:1054F8000B46FAF789FE21E0684600F0A5F800F0AF
:10550800030001289DED000B9DED021B05D002282C
:1055180006D070B900F09CFA0EE000F0E5FE01E05C
:1055280000F096FA53EC102B10EE100A03F100412C
:1055380004E0012000F0D8FE51EC100B41EC100BF8
:1055480005B05DF804FB00BF00000000000000008B
:10555800FB21E93FFFFFEF7F1FB551EC100B204AFD
:1055680021F00043934203DC9FED1B1B002017E052
:105578001C4A934205DD10EE102A0B46FAF744FE4A
:1055880022E0684600F060F800F0030001289DED75
:10559800000B9DED021B08D0022809D060B901203C
:1055A80000F0A2FE51EC100B0EE000F051FAF9E702
:1055B800012000F099FE01E000F04AFA53EC102BAC
:1055C80010EE100A03F1004141EC100B05B05DF834
:1055D80004FB00BFAFF300800000000000000000E3
:1055E800FB21E93FFFFFEF7F1FB551EC100B144A79
:1055F80021F00043934203DC9FED0F1B012016E0CE
:10560800104A934207DD10EE102A0B46FAF7FCFD0C
:1056180041EC100B0DE0684600F016F89DED000B0C
:1056280000F001009DED021B4000C0F1010000F0F8
:105638001FFF05B05DF804FB00000000000000003B
:10564800FB21E93FFFFFEF7F2DE9F04F8FB08DED94
:10565800060B079921F00048AD49884553EC102BFB
:10566800824606DC002200238AED000BC0E90223F3
:1056780088E1A849884572DC0799A74E002910EEF1
:10568800100A194694A3D3E9002333DDFAF7BCFDC9
:10569800B04504460D4610D091A3D3E90023FAF78C
:1056A800B3FD02460B46CAE9002320462946FAF70D
:1056B800ABFD8BA3D3E9002316E08BA3D3E900232A
:1056C800FAF7A2FD8AA3D3E9002304460D46FAF7A8
:1056D8009BFD02460B46CAE9002320462946FAF7F5
:1056E80093FD83A3D3E90023FAF78EFDCAE90201EB
:1056F8000120A1E1FAF78AFDB04504460D4610D015
:1057080077A3D3E90023FAF781FD02460B46CAE9DD
:10571800002320462946FAF777FD71A3D3E9002331
:1057280016E071A3D3E90023FAF770FD70A3D3E95B
:10573800002304460D46FAF769FD02460B46CAE9FE
:10574800002320462946FAF75FFD69A3D3E9002321
:10575800FAF75CFDCAE902014FF0FF306CE16F49CE
:10576800884500F3038101F077F855EC104B10EEF3
:10577800100A61A3D3E900232946FAF7F9FE0022AB
:10578800674BFAF743FDFBF78DF98346FAF78AFE74
:1057980051A3D3E90023CDE90401FAF7E9FE024653
:1057A8000B4620462946FAF72FFD4DA3D3E90023DF
:1057B80004460D46DDE90401FAF7DAFEBBF11F0FD6
:1057C80006460F462046294606DC0BF1FF32554BAC
:1057D80053F82230984576D13B463246FAF714FD05
:1057E8004FEA285CC1F30A53C3EB0C03102BCAE938
:1057F800000140F39B803CA3D3E90023DDE90401C9
:10580800CDF80CC0FAF7B4FE06460F4632463B46C2
:1058180020462946FAF7F8FC80468946204629465C
:1058280042464B46FAF7F0FC32463B46FAF7ECFCA8
:105838002FA3D3E9002304460D46DDE90401FAF756
:1058480097FE22462B46FAF7DFFC06460F463B46F4
:10585800404649463246FAF7D7FCDDF80CC0C1F39A
:105868000A53C3EB0C03312BCAE900015CDD24A306
:10587800D3E90023DDE90401FAF77AFE06460F466C
:1058880032463B4640464946FAF7BEFC04460D46BA
:1058980022462B4640464946FAF7B6FC32463B4676
:1058A800FAF7B2FC18A3D3E9002306460F46DDE950
:1058B8000401FAF75DFE32463B46FAF7A5FC0646B8
:1058C8000F462046294632463B46FAF79DFCCAE970
:1058D80000012BE0AFF3008000004054FB21F93FAA
:1058E8003163621A61B4D03D0000601A61B4D03DE2
:1058F8007370032E8A19A33B83C8C96D305FE43FD8
:105908000000002E8A19A33BC14920259A837B39C0
:10591800FB21E93F7BD90240FB21F93FFB213941BB
:105928000000E03F6C6C000844464D46DAE9008907
:10593800204642464B462946FAF766FC32463B4625
:10594800FAF762FC079A002ACAE9020173DA09F138
:105958000043CAF8043001F10043CAF80800CAF845
:105968000080CAF80C30CBF1000065E03449884566
:105978000ADD10EE100A1946FAF746FCCAE90201D8
:10598800CAE90001002057E04FEA2856A6F2164659
:10599800A8EB06551046294610EE104AFBF782F888
:1059A800FAF780FD02460B4620462946CDE9082332
:1059B800FAF72AFC0022234BFAF7DAFD04460D46D3
:1059C800FBF770F8FAF76EFD02460B4620462946AB
:1059D800CDE90A23FAF718FC00221A4BFAF7C8FD9A
:1059E800CDE90C01032408A9651E01EBC503D3E921
:1059F800000100220023FBF723F808B12C46F2E748
:105A080002230093104B0193324608A851462346BF
:105A180000F012F9079A002A0EDADAF8043003F1D6
:105A28000043CAF80430DAF80C3003F10043CAF82E
:105A38000C30404200E058460FB0BDE8F08F00BF80
:105A4800FFFFEF7F00007041EC6C0008AFF30080AF
:105A58002DE9F04F57EC106B27F0004985B0B9F1EC
:105A6800795F8DED001B07DA10EE100A3946FBF757
:105A780019F8002800F0B28032463B4630463946D5
:105A8800FAF776FD5EA3D3E9002304460D46FAF73C
:105A98006FFD5DA3D3E90023FAF7B8FB02460B4676
:105AA80020462946FAF764FD59A3D3E90023FAF7FB
:105AB800ABFB02460B4620462946FAF759FD56A38A
:105AC800D3E90023FAF7A2FB02460B4620462946F3
