:020000040800F2
:1000000000000220F90E0008490F0008490F0008FF
:10001000490F0008490F0008490F000800000000C0
:10002000000000000000000000000000490F000870
:10003000490F000800000000490F0008855400081F
:10004000490F0008490F0008490F0008490F000830
:10005000490F000895540008490F0008490F00088F
:10006000490F0008490F0008490F0008A55400086F
:10007000490F0008490F0008490F0008490F000800
:10008000490F0008B9540008490F0008490F00083B
:10009000490F0008490F0008490F0008490F0008E0
:1000A000490F0008490F0008490F0008490F0008D0
:1000B000CD540008E1540008490F0008490F00081A
:1000C000490F0008490F0008490F0008490F0008B0
:1000D000490F0008490F0008F5540008490F0008AF
:1000E000490F0008490F0008490F0008490F000890
:1000F000490F0008490F0008490F0008490F000880
:10010000490F0008490F0008490F0008490F00086F
:10011000490F0008490F0008490F0008490F00085F
:10012000490F0008490F0008490F0008490F00084F
:10013000490F00080000000000000000490F0008FF
:10014000490F0008490F0008490F0008490F00082F
:10015000490F0008490F0008490F0008490F00081F
:10016000490F0008490F0008490F0008490F00080F
:10017000490F0008490F0008490F0008000000005F
:1001800000000000490F000800000000000000000F
:10019000490F00080000000000000000490F00089F
:1001A000000000000000000000000000490F0008EF
:1001B000490F0008490F0008490F0008490F0008BF
:0401C000490F0008DB
:1001D00010B5054C237833B9044B13B10448AFF381
:1001E00000800123237010BD940500200000000052
:1001F000D086000808B5034B1BB103490348AFF391
:10020000008008BD0000000098050020D08600088E
:1002100001F0FF01102A2BDB10F0070F08D010F8B7
:10022000013B013A8B422DD010F0070F42B3F6D1BB
:10023000F0B441EA012141EA014122F007047FF0D4
:1002400000070023F0E80256083C85EA010586EA2B
:10025000010685FA47F5A3FA87F586FA47F6A5FA67
:1002600087F68EB9EED1F0BC01F0FF0102F0070273
:1002700032B110F8013B013A83EA010313B1F8D11E
:100280000020704701387047002D06BF35460338FF
:10029000073815F0010F07D1013015F4807F02BF38
:1002A000013015F4C03F0130F0BC0138704700BF89
:1002B000034613F8012B002AFBD1181A01387047A6
:1002C00081F0004102E000BF83F0004330B54FEA07
:1002D00041044FEA430594EA050F08BF90EA020F74
:1002E0001FBF54EA000C55EA020C7FEA645C7FEA07
:1002F000655C00F0E2804FEA5454D4EB5555B8BF2A
:100300006D420CDD2C4480EA020281EA030382EA9A
:10031000000083EA010180EA020281EA0303362D2C
:1003200088BF30BD11F0004F4FEA01314FF4801CFF
:100330004CEA113102D0404261EB410113F0004F11
:100340004FEA03334CEA133302D0524263EB4303C8
:1003500094EA050F00F0A780A4F10104D5F1200E66
:100360000DDB02FA0EFC22FA05F2801841F10001C1
:1003700003FA0EF2801843FA05F359410EE0A5F195
:1003800020050EF1200E012A03FA0EFC28BF4CF0C6
:10039000020C43FA05F3C01851EBE37101F000457C
:1003A00007D54FF0000EDCF1000C7EEB00006EEB89
:1003B0000101B1F5801F1BD3B1F5001F0CD3490813
:1003C0005FEA30004FEA3C0C04F101044FEA44526A
:1003D00012F5800F80F09A80BCF1004F08BF5FEAF1
:1003E000500C50F1000041EB045141EA050130BDD1
:1003F0005FEA4C0C404141EB010111F4801FA4F174
:100400000104E9D191F0000F04BF01460020B1FAC8
:1004100081F308BF2033A3F10B03B3F120020CDA00
:100420000C3208DD02F1140CC2F10C0201FA0CF0DE
:1004300021FA02F10CE002F11402D8BFC2F1200C43
:1004400001FA02F120FA0CFCDCBF41EA0C019040F9
:10045000E41AA2BF01EB0451294330BD6FEA040442
:100460001F3C1CDA0C340EDC04F11404C4F120022D
:1004700020FA04F001FA02F340EA030021FA04F33F
:1004800045EA030130BDC4F10C04C4F1200220FA96
:1004900002F001FA04F340EA0300294630BD21FAD4
:1004A00004F0294630BD94F0000F83F4801306BF9A
:1004B00081F480110134013D4EE77FEA645C18BF8E
:1004C0007FEA655C29D094EA050F08BF90EA020F25
:1004D00005D054EA000C04BF1946104630BD91EA1D
:1004E000030F1EBF0021002030BD5FEA545C05D120
:1004F0004000494128BF41F0004130BD14F580045F
:100500003CBF01F5801130BD01F0004545F0FE41D2
:1005100041F470014FF0000030BD7FEA645C1ABF07
:10052000194610467FEA655C1CBF0B46024650EA3E
:10053000013406BF52EA033591EA030F41F400216A
:1005400030BD00BF90F0000F04BF0021704730B5F0
:100550004FF4806404F132044FF000054FF00001C5
:1005600050E700BF90F0000F04BF0021704730B586
:100570004FF4806404F1320410F0004548BF40425B
:100580004FF000013EE700BF42004FEAE2014FEAB0
:1005900031014FEA02701FBF12F07F4393F07F4F8B
:1005A00081F06051704792F0000F14BF93F07F4FBD
:1005B000704730B54FF4607401F0004521F0004100
:1005C00020E700BF50EA010208BF704730B54FF086
:1005D00000050AE050EA010208BF704730B511F08B
:1005E000004502D5404261EB41014FF4806404F1C3
:1005F00032045FEA915C3FF4DCAE4FF003025FEA45
:10060000DC0C18BF03325FEADC0C18BF033202EBCC
:10061000DC02C2F1200300FA03FC20FA02F001FA26
:1006200003FE40EA0E0021FA02F11444C1E600BFC5
:1006300070B54FF0FF0C4CF4E06C1CEA11541DBF78
:100640001CEA135594EA0C0F95EA0C0F00F0DEF843
:100650002C4481EA030621EA4C5123EA4C5350EA28
:10066000013518BF52EA033541F4801143F4801379
:1006700038D0A0FB02CE4FF00005E1FB02E506F00A
:100680000042E0FB03E54FF00006E1FB03569CF05F
:10069000000F18BF4EF0010EA4F1FF04B6F5007F65
:1006A00064F5407404D25FEA4E0E6D4146EB0606D7
:1006B00042EAC62141EA55514FEAC52040EA5E5060
:1006C0004FEACE2EB4F1FD0C88BFBCF5E06F1ED80A
:1006D000BEF1004F08BF5FEA500E50F1000041EB41
:1006E000045170BD06F0004646EA010140EA0200EE
:1006F00081EA0301B4EB5C04C2BFD4EB0C0541EA10
:10070000045170BD41F480114FF0000E013C00F324
:10071000AB8014F1360FDEBF002001F0004170BD48
:10072000C4F10004203C35DA0C341BDC04F1140461
:10073000C4F1200500FA05F320FA04F001FA05F2ED
:1007400040EA020001F0004221F0004110EBD370BA
:1007500021FA04F642EB06015EEA430E08BF20EAE6
:10076000D37070BDC4F10C04C4F1200500FA04F389
:1007700020FA05F001FA04F240EA020001F000411B
:1007800010EBD37041F100015EEA430E08BF20EA8E
:10079000D37070BDC4F1200500FA05F24EEA020ED6
:1007A00020FA04F301FA05F243EA020321FA04F005
:1007B00001F0004121FA04F220EA020000EBD370BC
:1007C0005EEA430E08BF20EAD37070BD94F0000FBC
:1007D0000FD101F00046400041EB010111F4801FF0
:1007E00008BF013CF7D041EA060195F0000F18BFA1
:1007F000704703F00046520043EB030313F4801FDD
:1008000008BF013DF7D043EA0603704794EA0C0F96
:100810000CEA135518BF95EA0C0F0CD050EA4106AC
:1008200018BF52EA4306D1D181EA030101F0004129
:100830004FF0000070BD50EA410606BF1046194651
:1008400052EA430619D094EA0C0F02D150EA01365D
:1008500013D195EA0C0F05D152EA03361CBF10469E
:1008600019460AD181EA030101F0004141F0FE413D
:1008700041F470014FF0000070BD41F0FE4141F4C1
:10088000780170BD70B54FF0FF0C4CF4E06C1CEAC1
:1008900011541DBF1CEA135594EA0C0F95EA0C0F76
:1008A00000F0A7F8A4EB050481EA030E52EA033531
:1008B0004FEA013100F088804FEA03334FF0805552
:1008C00045EA131343EA12634FEA022245EA11157F
:1008D00045EA10654FEA00260EF000419D4208BF30
:1008E000964244F1FD0404F5407402D25B084FEADD
:1008F0003202B61A65EB03055B084FEA32024FF489
:1009000080104FF4002CB6EB020E75EB030E22BFE5
:10091000B61A754640EA0C005B084FEA3202B6EBA5
:10092000020E75EB030E22BFB61A754640EA5C0054
:100930005B084FEA3202B6EB020E75EB030E22BFE4
:10094000B61A754640EA9C005B084FEA3202B6EBE5
:10095000020E75EB030E22BFB61A754640EADC00A4
:1009600055EA060E18D04FEA051545EA16754FEA06
:1009700006164FEAC30343EA52734FEAC2025FEA24
:100980001C1CC0D111F4801F0BD141EA00014FF0B3
:1009900000004FF0004CB6E711F4801F04BF014384
:1009A0000020B4F1FD0C88BFBCF5E06F3FF6AFAEA0
:1009B000B5EB030C04BFB6EB020C5FEA500C50F130
:1009C000000041EB045170BD0EF0004E4EEA1131B3
:1009D00014EB5C04C2BFD4EB0C0541EA045170BDBA
:1009E00041F480114FF0000E013C90E645EA060EFE
:1009F0008DE60CEA135594EA0C0F08BF95EA0C0F2C
:100A00003FF43BAF94EA0C0F0AD150EA01347FF473
:100A100034AF95EA0C0F7FF425AF104619462CE74A
:100A200095EA0C0F06D152EA03353FF4FDAE1046AD
:100A3000194622E750EA410618BF52EA43067FF4FE
:100A4000C5AE50EA41047FF40DAF52EA43057FF48E
:100A5000EBAE12E74FF0FF3C06E000BF4FF0010C99
:100A600002E000BF4FF0010C4DF804CD4FEA410CFD
:100A70007FEA6C5C4FEA430C18BF7FEA6C5C1BD0CA
:100A800001B050EA410C0CBF52EA430C91EA030F4B
:100A900002BF90EA020F0020704710F1000F91EAA8
:100AA000030F58BF994208BF90422CBFD8176FEA76
:100AB000E37040F0010070474FEA410C7FEA6C5C44
:100AC00002D150EA013C07D14FEA430C7FEA6C5C4B
:100AD000D6D152EA033CD3D05DF8040B704700BF77
:100AE0008446104662468C461946634600E000BFC5
:100AF00001B5FFF7B7FF002848BF10F1000F01BD97
:100B00004DF808EDFFF7F4FF0CBF012000205DF861
:100B100008FB00BF4DF808EDFFF7EAFF34BF0120E6
:100B200000205DF808FB00BF4DF808EDFFF7E0FF7F
:100B300094BF012000205DF808FB00BF4DF808EDD0
:100B4000FFF7CEFF94BF012000205DF808FB00BF37
:100B50004DF808EDFFF7C4FF34BF012000205DF819
:100B600008FB00BF4FEA410C7FEA6C5C02D150EAFF
:100B7000013C0AD14FEA430C7FEA6C5C02D152EA95
:100B8000033C02D14FF0000070474FF00100704766
:100B90004FEA410212F5001215D211D56FF47873A5
:100BA000B3EB625212D94FEAC12343F0004343EA48
:100BB000505311F0004F23FA02F018BF4042704723
:100BC0004FF00000704750EA013005D111F00040AD
:100BD00008BF6FF0004070474FF00000704700BF43
:100BE00053B94AB9002908BF00281CBF4FF0FF3194
:100BF0004FF0FF3000F07EB9ADF1080C6DE904CE86
:100C000000F006F8DDF804E0DDE9022304B07047E7
:100C10002DE9F0478C460E460446089D002B50D126
:100C20008A4217466CD9B2FA82FEBEF1000F0BD091
:100C3000CEF1200420FA04F401FA0EF644EA060C80
:100C400002FA0EF700FA0EF44FEA1749220CBCFB29
:100C5000F9F01FFA87F809FB10C642EA064600FBC6
:100C600008F3B34209D9F61900F1FF3280F022816E
:100C7000B34240F21F8102383E44F61AA2B2B6FBDC
:100C8000F9F309FB136642EA064403FB08F8A045A2
:100C900009D9E41903F1FF3280F00A81A04540F23E
:100CA0000781023B3C44C8EB040443EA00400021B6
:100CB000002D62D024FA0EF400232C606B60BDE896
:100CC000F0878B4207D9002D55D0002185E84100DF
:100CD0000846BDE8F087B3FA83F1002940F0908020
:100CE000B34202D3824200F2F880841A66EB030614
:100CF0000120B446002D40D085E81010BDE8F087F3
:100D000012B90127B7FBF2F7B7FA87FEBEF1000F61
:100D100035D1F31B4FEA17481FFA87FC0121B3FBBB
:100D2000F8F0220C08FB103642EA06460CFB00F3F2
:100D3000B34207D9F61900F1FF3202D2B34200F2F2
:100D4000CE801046F61AA2B2B6FBF8F308FB136683
:100D500042EA06440CFB03FCA44507D9E41903F15D
:100D6000FF3202D2A44500F2B5801346CCEB040456
:100D700043EA00409CE729462846BDE8F087CEF1CB
:100D8000200106FA0EF307FA0EF720FA01F94FEAEE
:100D90001748CE4049EA0309B6FBF8FA4FEA19446E
:100DA00008FB1A661FFA87FC44EA06430AFB0CF2AA
:100DB0009A4200FA0EF40AD9DB190AF1FF3180F0E9
:100DC00087809A4240F28480AAF1020A3B449B1A2F
:100DD0001FFA89F9B3FBF8F108FB113349EA034321
:100DE00001FB0CF69E4207D9DB1901F1FF326BD2F1
:100DF0009E4269D902393B449B1B41EA0A418EE776
:100E0000C1F1200E22FA0EF48B40234320FA0EF794
:100E100006FA01F44FEA134C26FA0EF63C43B6FBF1
:100E2000FCF9270C0CFB19661FFA83F847EA064603
:100E300009FB08F7B74202FA01F200FA01FA08D9F1
:100E4000F61809F1FF3041D2B7423FD9A9F10209A2
:100E50001E44F61BA0B2B6FBFCF40CFB146640EA81
:100E6000064704FB08F8B84507D9FF1804F1FF301E
:100E700028D2B84526D9023C1F4444EA0940C8EBB1
:100E80000707A0FB02894F4544464E4614D329D09C
:100E900065B3BAEB040367EB060707FA0EFECB4017
:100EA000CF404EEA030385E888000021BDE8F087C3
:100EB0001346F8E61046E0E6B8EB020469EB0306D9
:100EC0000138E5E70446D8E7114695E78146C0E7D3
:100ED0008A467CE7023B3C4448E708460AE702387A
:100EE0003E442FE7C245E7D33E46D1E72946BDE859
:100EF000F08700BF704700BFDFF834D0002103E067
:100F00000C4B5B58435004310B480C4B42189A422F
:100F1000F6D30B4A02E0002342F8043B094B9A4205
:100F2000F9D300F013F804F0DBFC03F0C9FD7047BF
:100F300000000220848900080000002094050020A1
:100F40009405002018090020FEE7000080B400AFDF
:100F5000164A164BD3F8883043F47003C2F8883031
:100F6000134A134B1B6843F001031360104B00221C
:100F70009A600F4A0E4B1B6823F0847323F480336E
:100F800013600B4B0B4A5A60094A094B1B6823F448
:100F900080231360064B0022DA60044B4FF000629E
:100FA0009A6000BFBD465DF8047B704700ED00E02D
:100FB000003802401030002480B500AF0E4A0E4BBE
:100FC0001B6843F4007313600B4A0B4B1B6843F41C
:100FD00080631360084A084B1B6843F480731360F6
:100FE000032000F021F9002000F008F804F0FAF8DE
:100FF0000023184680BD00BF003C024080B582B08F
:1010000000AF7860094B1B68094AA2FB03239B09C8
:10101000184600F03FF9002279684FF0FF3000F0E9
:101020000FF9002318460837BD4680BD0000002098
:10103000D34D621080B400AF044B1B680133034AE8
:10104000136000BFBD465DF8047B7047300600208A
:1010500080B400AF034B1B681846BD465DF8047BA7
:10106000704700BF3006002080B584B000AF7860C4
:101070000023FB60FFF7ECFFF86000BFFFF7E8FF1D
:101080000246FB68D21A7B689A42F7D300BF10373A
:10109000BD4680BD80B485B000AF78607B6803F04A
:1010A0000703FB600C4BDB68BB60BA684FF6FF03BD
:1010B0001340BB60FB681A02BB68134343F0BF6375
:1010C00043F40033BB60044ABB68D36000BF1437ED
:1010D000BD465DF8047B704700ED00E080B400AFD2
:1010E000044BDB6803F4E0631B0A1846BD465DF859
:1010F000047B704700ED00E080B483B000AF03468E
:10110000FB71094997F907305B09FA7902F01F0270
:10111000012000FA02F241F8232000BF0C37BD463F
:101120005DF8047B704700BF00E100E080B483B04D
:1011300000AF03463960FB7197F90730002B0BDADB
:101140000D49FB7903F00F03043B3A68D2B2120158
:10115000D2B20B441A7609E0084997F907303A6889
:10116000D2B21201D2B20B4483F8002300BF0C3775
:10117000BD465DF8047B704700ED00E000E100E053
:1011800080B489B000AFF860B9607A60FB6803F0A2
:101190000703FB61FB69C3F10703042B28BF04238A
:1011A000BB61FB690433062B02D9FB69033B00E0FA
:1011B00000237B610122BB6902FA03F35A1EBB685C
:1011C0001A407B699A4001217B6901FA03F3591E99
:1011D0007B680B40134318462437BD465DF8047BFB
:1011E000704700BF80B582B000AF78607B68013B7C
:1011F000B3F1807F01D301230FE00A4A7B68013BF2
:1012000053600F214FF0FF30FFF790FF054B002296
:101210009A60044B07221A60002318460837BD461F
:1012200080BD00BF10E000E080B582B000AF786004
:101230007868FFF72FFF00BF0837BD4680BD00BFAD
:1012400080B586B000AF0346B9607A60FB730023B7
:101250007B61FFF743FF78617A68B9687869FFF7C7
:101260008FFF024697F90F3011461846FFF75EFFD1
:1012700000BF1837BD4680BD80B582B000AF0346C1
:10128000FB7197F907301846FFF736FF00BF0837A4
:10129000BD4680BD80B582B000AF78607868FFF74A
:1012A000A1FF034618460837BD4680BD80B483B011
:1012B00000AF78607B68042B06D1094A084B1B6895
:1012C00043F00403136005E0054A054B1B6823F057
:1012D0000403136000BF0C37BD465DF8047B704704
:1012E00010E000E080B500AF00F002F800BF80BD64
:1012F00080B400AF00BFBD465DF8047B704700BFFF
:1013000080B586B000AF786000237B61FFF7A0FE58
:1013100038617B68002B01D1012395E07B680022B6
:1013200083F834207B68022283F835207B681B68B1
:101330007A681268126822F001021A600FE0FFF763
:1013400087FE02463B69D31A052B08D97B68202209
:101350005A657B68032283F83520032374E07B6899
:101360001B681B6803F00103002BE8D17B681B6836
:101370001B687B617A69364B13407B617B685A68D6
:101380007B689B681A437B68DB681A437B681B6930
:101390001A437B685B691A437B689B691A437B68C5
:1013A000DB691A437B681B6A13437A6913437B61C9
:1013B0007B685B6A042B07D17B68DA6A7B681B6BEE
:1013C00013437A6913437B617B681B687A691A60EF
:1013D0007B681B685B697B617B6923F007037B612A
:1013E0007B685B6A7A6913437B617B685B6A042B69
:1013F00013D17B689B6A7A6913437B61786800F03C
:1014000011FA0346002B08D07B6840225A657B689E
:10141000012283F83520012316E07B681B687A6976
:101420005A61786800F0C8F90346FB607B68DB6DA1
:101430003F229A40FB689A607B6800225A657B686D
:10144000012283F83520002318461837BD4680BD99
:101450003F8010F080B483B000AF78607B6893F871
:101460003530DBB2022B04D07B6880225A65012321
:101470000CE07B68052283F835207B681B687A685E
:101480001268126822F001021A60002318460C3715
:10149000BD465DF8047B704780B586B000AF7860CC
:1014A0000023BB60934B1B68934AA2FB03239B0A58
:1014B0007B617B689B6D3B613B691B68FB607B6864
:1014C000DB6D08229A40FB681340002B1AD07B6822
:1014D0001B681B6803F00403002B13D07B681B6898
:1014E0007A681268126822F004021A607B68DB6D69
:1014F00008229A403B699A607B685B6D43F0010269
:101500007B685A657B68DB6D7C4A9A40FB681340B8
:10151000002B12D07B681B685B6903F08003002BF3
:101520000BD07B68DB6D754A9A403B699A607B689B
:101530005B6D43F002027B685A657B68DB6D704A25
:101540009A40FB681340002B12D07B681B681B6815
:1015500003F00203002B0BD07B68DB6D684A9A40D6
:101560003B699A607B685B6D43F004027B685A6557
:101570007B68DB6D10229A40FB681340002B43D040
:101580007B681B681B6803F00803002B3CD07B685A
:10159000DB6D10229A403B699A607B681B681B6870
:1015A00003F48023002B18D07B681B681B6803F4AE
:1015B0000023002B08D17B681B6C002B24D07B6898
:1015C0001B6C786898471FE07B689B6C002B1BD0D6
:1015D0007B689B6C7868984716E07B681B681B6883
:1015E00003F48073002B07D17B681B687A6812684C
:1015F000126822F008021A607B681B6C002B03D073
:101600007B681B6C786898477B68DB6D20229A406A
:10161000FB681340002B00F094807B681B681B68FC
:1016200003F01003002B00F08C807B68DB6D202220
:101630009A403B699A607B6893F83530DBB2052BA2
:1016400037D17B681B687A681268126822F016022C
:101650001A607B681B687A681268526922F08002FF
:101660005A617B681B6C002B03D17B689B6C002B41
:1016700007D07B681B687A681268126822F008023B
:101680001A607B68DB6D3F229A403B699A607B68F9
:10169000002283F834207B68012283F835207B68A0
:1016A0001B6D002B00F083807B681B6D786898476A
:1016B0007DE07B681B681B6803F48023002B21D02E
:1016C0007B681B681B6803F40023002B08D17B6830
:1016D0005B6C002B35D07B685B6C7868984730E09A
:1016E0007B68DB6B002B2CD07B68DB6B78689847C2
:1016F00027E000BF00000020B5814E1B01008000E4
:10170000040080007B681B681B6803F48073002B57
:101710000FD17B681B687A681268126822F0100289
:101720001A607B68002283F834207B68012283F8EA
:1017300035207B68DB6B002B03D07B68DB6B786824
:1017400098477B685B6D002B32D07B685B6D03F044
:101750000103002B22D07B68052283F835207B68AB
:101760001B687A681268126822F001021A60BB686E
:101770000133BB607A69934207D87B681B681B689A
:1017800003F00103002BF2D100E000BF7B680022D0
:1017900083F834207B68012283F835207B68DB6C7A
:1017A000002B05D07B68DB6C7868984700E000BFB1
:1017B0001837BD4680BD00BF80B485B000AF7860EB
:1017C0007B681B68DBB2103B144AA2FB03231B0996
:1017D000FB60134AFB6813441B781A467B68DA6582
:1017E000FB68032B09D97B681B6823F47F7323F004
:1017F00003031A1D7B689A6507E07B681B6823F466
:101800007F7323F003037A6893657B689B6D1846AA
:101810001437BD465DF8047B704700BFABAAAAAA87
:10182000F087000880B485B000AF78600023FB73B8
:101830007B689B6ABB607B689B69002B28D1BB6877
:10184000032B62D801A252F823F000BF5D180008F4
:101850006F1800087F1800080B1900087B68DB6A06
:1018600003F08073002B52D00123FB734FE07B68A1
:10187000DB6AB3F1C07F4CD10123FB7349E07B6885
:10188000DB6A03F08073002B45D00123FB7342E039
:101890007B689B69B3F5005F25D1BB68032B3CD8FF
:1018A00001A252F823F000BFB9180008BF180008C1
:1018B000D1180008D71800080123FB7334E07B68B7
:1018C000DB6A03F08073002B29D00123FB7326E031
:1018D0000123FB7328E07B68DB6AB3F1C07F20D172
:1018E0000123FB731DE0BB68022B02D9032B03D03D
:1018F0001AE00123FB7317E07B68DB6A03F0807357
:10190000002B10D00123FB730DE000BF0CE000BFE3
:101910000AE000BF08E000BF06E000BF04E000BF2F
:1019200002E000BF00E000BFFB7B18461437BD4655
:101930005DF8047B704700BF80B489B000AF786069
:10194000396000237B6100233B610023BB610023DE
:10195000FB6165E10122FB6902FA03F37B613B68ED
:101960001A687B6913403B613A697B699A4240F08F
:1019700054813B685B68022B03D03B685B68122B89
:1019800023D1FB69DA087B68083253F82230BB6147
:10199000FB6903F007039B000F2202FA03F3DB430A
:1019A000BA691340BB613B681A69FB6903F007031E
:1019B0009B0002FA03F3BA691343BB61FB69DA08BF
:1019C0007B680832B96943F822107B681B68BB61E9
:1019D000FB695B00032202FA03F3DB43BA6913409D
:1019E000BB613B685B6803F00302FB695B0002FAC2
:1019F00003F3BA691343BB617B68BA691A603B6839
:101A00005B68012B0BD03B685B68022B07D03B68FF
:101A10005B68112B03D03B685B68122B30D17B686D
:101A20009B68BB61FB695B00032202FA03F3DB43A3
:101A3000BA691340BB613B68DA68FB695B0002FA74
:101A400003F3BA691343BB617B68BA699A607B6828
:101A50005B68BB610122FB6902FA03F3DB43BA69ED
:101A60001340BB613B685B681B0903F00102FB6923
:101A700002FA03F3BA691343BB617B68BA695A601F
:101A80007B68DB68BB61FB695B00032202FA03F33E
:101A9000DB43BA691340BB613B689A68FB695B0032
:101AA00002FA03F3BA691343BB617B68BA69DA606F
:101AB0003B685B6803F08053002B00F0AE8000238E
:101AC000FB605C4A5B4B5B6C43F480435364594B53
:101AD0005B6C03F48043FB60FB68574AFB699B081F
:101AE000023352F82330BB61FB6903F003039B0010
:101AF0000F2202FA03F3DB43BA691340BB617B6830
:101B00004E4A934225D07B684D4A93421FD07B6852
:101B10004C4A934219D07B684B4A934213D07B685E
:101B20004A4A93420DD07B68494A934207D07B686A
:101B3000484A934201D106230CE007230AE005231B
:101B400008E0042306E0032304E0022302E001236B
:101B500000E00023FA6902F0030292009340BA69A0
:101B60001343BB613449FB699B080233BA6941F8EE
:101B70002320394B1B68BB613B69DB43BA691340C7
:101B8000BB613B685B6803F48033002B03D0BA6908
:101B90003B691343BB61304ABB6913602E4B5B68E2
:101BA000BB613B69DB43BA691340BB613B685B685F
:101BB00003F40033002B03D0BA693B691343BB61C4
:101BC000254ABB695360244B9B68BB613B69DB437F
:101BD000BA691340BB613B685B6803F48013002B58
:101BE00003D0BA693B691343BB611B4ABB6993606D
:101BF000194BDB68BB613B69DB43BA691340BB61CE
:101C00003B685B6803F40013002B03D0BA693B699F
:101C10001343BB61104ABB69D360FB690133FB61AD
:101C2000FB690F2B7FF696AE00BF2437BD465DF8EB
:101C3000047B704700380240003801400000024039
:101C40000004024000080240000C02400010024064
:101C50000014024000180240003C014080B483B0F0
:101C600000AF78600B467B8013467B707B78002B3F
:101C700003D07A887B689A6103E07B881A047B68CA
:101C80009A6100BF0C37BD465DF8047B704700BF0A
:101C900080B483B000AF78600B467B807B685A6964
:101CA0007B885A407B685A6100BF0C37BD465DF89F
:101CB000047B704780B584B000AF78600023FB6080
:101CC0000023BB607B68002B01D10123C8E07B6847
:101CD00093F83D30DBB2002B06D17B68002283F8FD
:101CE0003C20786803F0B8FA7B68242283F83D2012
:101CF0007B681B687A681268126822F001021A6019
:101D000000F0C6FFB860BB68574AA2FB03239B0CD8
:101D1000FB607B681B68FA685A607B681A687B689E
:101D20005B6852498B4202D8FB68013309E0FB68CB
:101D30004FF4967101FB03F34D49A1FB03139B097B
:101D4000013313627B6819687B685B68474A93427A
:101D500012D87B685B685B00BA68B2FBF3F3C3F32D
:101D60000B03032B06D97B685B685B00BA68B2FB88
:101D7000F3F345E0042343E07B689B68002B0FD11D
:101D80007B685A6813465B001344BA68B2FBF3F3EE
:101D9000C3F30B03002B0CBF01230023DBB210E0C5
:101DA0007B685A6813469B0013449A001344BA6830
:101DB000B2FBF3F3C3F30B03002B0CBF012300238F
:101DC000DBB2002B01D001231AE07B689B68002B5B
:101DD0000AD17B685A6813465B001344BA68B2FBA9
:101DE000F3F343F400430BE07B685A6813469B000F
:101DF00013449A001344BA68B2FBF3F343F440432C
:101E0000CB617B681B687A68D1697A68126A0A4379
:101E10001A607B681B687A6811697A68D2680A431D
:101E20009A607B681B687A6851697A6892690A438C
:101E3000DA607B681B687A681268126842F00102F7
:101E40001A607B6800221A647B68202283F83D2098
:101E50007B6800221A637B68002283F83E200023FF
:101E600018461037BD4680BD83DE1B43A0860100A7
:101E7000D34D621080B588B002AFF8607A601A4620
:101E80000B467B8113463B8100237B61FFF7E0F823
:101E90007861FB6893F83D30DBB2202B40F0BA80CC
:101EA0007B690093192301225D49F86800F0C0FBAB
:101EB0000346002B01D00223ADE0FB6893F83C30D1
:101EC000012B01D10223A6E0FB68012283F83C200C
:101ED000FB681B68FA681268126822F400621A60D4
:101EE000FB68212283F83D20FB68102283F83E2006
:101EF000FB6800221A64FB684A4ADA6279897B69C6
:101F00003A6AF86800F040FA0346002B0FD0FB68ED
:101F10001B6C042B05D1FB68002283F83C200123B5
:101F200079E0FB68002283F83C20032373E0002360
:101F30003B61FB681B685B693B61FB681B689B69D5
:101F40003B613B694DE07A69396AF86800F02CFC26
:101F50000346002B0FD0FB681B6C042B09D1FB68D8
:101F60001B68FA681268126842F400721A60012352
:101F700051E003234FE0FB681A687B68591C7960C5
:101F80001B7813613B89013B3B81FB681B685B69E4
:101F900003F00403002B0CD03B89002B09D0FB6815
:101FA0001A687B68591C79601B7813613B89013B77
:101FB0003B817A69396AF86800F034FC0346002BEB
:101FC0000FD0FB681B6C042B09D1FB681B68FA68F7
:101FD0001268126842F400721A6001231BE00323A6
:101FE00019E03B89002BAED1FB681B68FA681268C8
:101FF000126842F400721A60FB68202283F83D20C8
:10200000FB68002283F83E20FB68002283F83C2016
:10201000002300E0022318461837BD4680BD00BFEC
:10202000020010000000FFFF80B58CB002AFF86026
:102030007A601A460B467B8113463B8100237B6204
:10204000FFF706F87862FB6893F83D30DBB2202B8F
:1020500040F094817B6A0093192301229549F86826
:1020600000F0E6FA0346002B01D0022387E1FB686B
:1020700093F83C30012B01D1022380E1FB6801225F
:1020800083F83C20FB681B68FA681268126822F427
:1020900000621A60FB68222283F83D20FB68102250
:1020A00083F83E20FB6800221A64FB68824ADA62E9
:1020B00079897B6A3A6BF86800F0E8F90346002BEF
:1020C0000FD0FB681B6C042B05D1FB68002283F842
:1020D0003C20012353E1FB68002283F83C200323CA
:1020E0004DE13B89002B13D100233B62FB681B6849
:1020F0005B693B62FB681B689B693B623B6AFB68F0
:102100001B68FA681268126842F400721A6023E1D0
:102110003B89012B1BD1FB681B68FA6812681268A7
:1021200022F480621A600023FB61FB681B685B6914
:10213000FB61FB681B689B69FB61FB69FB681B68B3
:10214000FA681268126842F400721A6004E13B896E
:10215000022B1BD1FB681B68FA681268126822F414
:1021600080621A60FB681B68FA681268126842F4A1
:1021700000621A600023BB61FB681B685B69BB617E
:10218000FB681B689B69BB61BB69E5E0FB681B687A
:10219000FA681268126842F480621A6000237B6158
:1021A000FB681B685B697B61FB681B689B697B61E3
:1021B0007B69D1E03B89032B00F2A1803B89012B95
:1021C0001BD17A6A396BF86800F06AFB0346002B72
:1021D00007D0FB681B6C202B01D10323CFE0012328
:1021E000CDE07B685A1C7A60FA6812681269D2B234
:1021F0001A703B89013B3B81AEE03B89022B2BD11E
:102200007B6A00933B6B00222C49F86800F010FABF
:102210000346002B01D00323B1E0FB681B68FA687A
:102220001268126842F400721A607B685A1C7A6065
:10223000FA6812681269D2B21A703B89013B3B817D
:102240007B685A1C7A60FA6812681269D2B21A70F6
:102250003B89013B3B817FE07B6A00933B6B002223
:102260001649F86800F0E4F90346002B01D0032377
:1022700085E0FB681B68FA681268126822F48062C5
:102280001A607B685A1C7A60FA6812681269D2B2C6
:102290001A703B89013B3B817B6A00933B6B0022B8
:1022A0000649F86800F0C4F90346002B08D0032360
:1022B00065E000BF020010000000FFFF0400010005
:1022C000FB681B68FA681268126842F400721A60B0
:1022D0007B685A1C7A60FA6812681269D2B21A7066
:1022E0003B89013B3B817B685A1C7A60FA68126823
:1022F0001269D2B21A703B89013B3B812CE07A6AA9
:10230000396BF86800F0CCFA0346002B07D0FB6865
:102310001B6C202B01D1032331E001232FE07B68CC
:102320005A1C7A60FA6812681269D2B21A703B8934
:10233000013B3B81FB681B685B6903F00403002BD6
:102340000AD07B685A1C7A60FA6812681269D2B2A5
:102350001A703B89013B3B813B89002B7FF42AAFFC
:10236000FB68202283F83D20FB68002283F83E2092
:10237000FB68002283F83C20002300E0022318467B
:102380002837BD4680BD00BF80B588B002AFF86079
:102390007A603B600B467B81FB68DB6A7B617B6913
:1023A000042B06D07B69012B03D07B6913F5803F9A
:1023B00008D1FB681B68FA681268126842F48072E0
:1023C0001A600BE0FB681B6B122B07D1FB681B68C4
:1023D000FA681268126842F480721A603B680093CF
:1023E0007B6800224FF00111F86800F021F90346E4
:1023F000002B01D0032341E0FB681B69B3F5804F3C
:1024000007D1FB681B687A89D2B202F0FE021A611A
:1024100022E0FB681B687A89D21152B202F00602F0
:1024200052B262F00F0252B2D2B21A613B687A68BD
:102430001449F86800F04AF90346002B07D0FB68FE
:102440001B6C042B01D1012318E0032316E0FB6869
:102450001B687A89D2B21A613B687A680A49F868BF
:1024600000F034F90346002B07D0FB681B6C042BEB
:1024700001D1012302E0032300E0002318461837AE
:10248000BD4680BD080001000200010080B588B093
:1024900002AFF8607A603B600B467B81FB68DB6AC9
:1024A0007B617B69042B06D07B69012B03D07B69A0
:1024B00013F5803F10D1FB681B68FA681268126838
:1024C00042F480621A60FB681B68FA68126812683E
:1024D00042F480721A6013E0FB681B6B112B0FD162
:1024E000FB681B68FA681268126842F480621A601E
:1024F000FB681B68FA681268126842F480721A60FE
:102500003B6800937B6800224FF00111F86800F0EF
:102510008FF80346002B01D0032381E0FB681B6981
:10252000B3F5804F08D1FB681B687A89D2B242F0BC
:102530000102D2B21A6161E0FB681B687A89D2118C
:1025400052B202F0060252B262F00F0252B2D2B29E
:102550001A613B687A683449F86800F0B7F80346B6
:10256000002B07D0FB681B6C042B01D1012357E023
:10257000032355E0FB681B687A89D2B21A613B6875
:102580007A682A49F86800F0A1F80346002B07D0C2
:10259000FB681B6C042B01D1012341E003233FE0C6
:1025A00000233B61FB681B685B693B61FB681B6840
:1025B0009B693B613B69FB681B68FA68126812689B
:1025C00042F480721A603B6800937B6800224FF0EF
:1025D0000111F86800F02CF80346002B01D003230A
:1025E0001EE0FB681B687A89D21152B202F0060223
:1025F00052B262F00E0252B2D2B21A613B687A68ED
:102600000A49F86800F062F80346002B07D0FB681F
:102610001B6C042B01D1012302E0032300E0002303
:1026200018461837BD4680BD0800010002000100B1
:1026300080B584B000AFF860B9603B601346FB71B1
:102640001BE03B68B3F1FF3F17D03B68002B07D07E
:10265000FEF7FEFC0246BB69D21A3B689A420CD9CF
:10266000FB6800221A63FB68202283F83D20FB6888
:10267000002283F83C20032323E0BB681B0CDBB261
:10268000012B0DD1FB681B685B69DA43BB68134003
:102690009BB2002B0CBF01230023DBB21A460CE0D7
:1026A000FB681B689B69DA43BB6813409BB2002B35
:1026B0000CBF01230023DBB21A46FB799A42C0D03B
:1026C000002318461037BD4680BD00BF80B584B0DA
:1026D00000AFF860B9607A603B603FE0FB681B6860
:1026E0005B6903F48063002B1CD0FB681B68FA68ED
:1026F0001268126842F400721A60FB681B686FF47B
:1027000080625A61FB6804221A64FB6800221A6323
:10271000FB68202283F83D20FB68002283F83C20E0
:1027200001233CE07B68B3F1FF3F17D07B68002BAF
:1027300007D0FEF78DFC02463B68D21A7B689A42AE
:102740000CD9FB6800221A63FB68202283F83D2025
:10275000FB68002283F83C20032320E0BB681B0CAD
:10276000DBB2012B0CD1FB681B685B69DA43BB68E9
:1027700013409BB2002B14BF01230023DBB20BE0FC
:10278000FB681B689B69DA43BB6813409BB2002B54
:1027900014BF01230023DBB2002B9FD10023184676
:1027A0001037BD4680BD00BF80B584B000AFF86073
:1027B000B9607A6029E0F86800F0BCF80346002BA5
:1027C00001D0012329E0BB68B3F1FF3F1DD0BB68F6
:1027D000002B07D0FEF73CFC02467B68D21ABB6890
:1027E0009A4212D9FB681B6C43F02002FB681A6402
:1027F000FB6800221A63FB68202283F83D20FB68F7
:10280000002283F83C20032307E0FB681B685B6918
:1028100003F08003002BCED0002318461037BD46AE
:1028200080BD00BF80B584B000AFF860B9607A6049
:1028300029E0F86800F07EF80346002B01D0012360
:1028400029E0BB68B3F1FF3F1DD0BB68002B07D068
:10285000FEF7FEFB02467B68D21ABB689A4212D989
:10286000FB681B6C43F02002FB681A64FB680022C3
:102870001A63FB68202283F83D20FB68002283F85E
:102880003C20032307E0FB681B685B6903F004033B
:10289000002BCED0002318461037BD4680BD00BFA8
:1028A00080B584B000AFF860B9607A6036E0FB684C
:1028B0001B685B6903F01003002B14D0FB681B68D6
:1028C0006FF010025A61FB6800221A64FB68002254
:1028D0001A63FB68202283F83D20FB68002283F8FE
:1028E0003C20012322E0BB68002B07D0FEF7B0FBA1
:1028F00002467B68D21ABB689A420FD9FB681B6CF0
:1029000043F02002FB681A64FB68202283F83D2014
:10291000FB68002283F83C20032307E0FB681B6868
:102920005B6903F04003002BC1D000231846103729
:10293000BD4680BD80B483B000AF78607B681B6803
:102940005B6903F48063002B14D07B681B686FF411
:1029500080625A617B6804221A647B6800221A63D1
:102960007B68202283F83D207B68002283F83C208E
:10297000012300E0002318460C37BD465DF8047BB8
:10298000704700BF80B586B000AF00237B61002395
:102990003B602E4A2D4B1B6C43F0805313642B4B32
:1029A0001B6C03F080533B603B684FF48033FB604B
:1029B000FB6893FAA3F3BB60BB68B3FA83F303F13C
:1029C000845303F560339B001A4601231360FEF71E
:1029D0003FFB786109E0FEF73BFB02467B69D31AB7
:1029E000B3F57A7F01D903232CE0194B5B6803F41C
:1029F0008033002BEFD04FF400333B613B6993FAF7
:102A0000A3F37B607B68B3FA83F303F1845303F58C
:102A100060339B001A4601231360FEF719FB7861AF
:102A200009E0FEF715FB02467B69D31AB3F57A7FFE
:102A300001D9032306E0064B5B6803F40033002B47
:102A4000EFD0002318461837BD4680BD003802403D
:102A50000070004080B586B000AF78603960002318
:102A60007B61814B1B6803F00F023B689A420CD2DA
:102A70007D4B3A68D2B21A707B4B1B6803F00F0291
:102A80003B689A4201D00123EAE07B681B6803F0AF
:102A90000203002B08D07549744B9B6823F0F002A9
:102AA0007B689B6813438B607B681B6803F00103A2
:102AB000002B00F086807B685B68012B07D16B4B95
:102AC0001B6803F40033002B19D10123C8E07B6895
:102AD0005B68022B03D07B685B68032B07D1634BD9
:102AE0001B6803F00073002B09D10123B8E05F4B92
:102AF0001B6803F00203002B01D10123B0E05B4906
:102B00005A4B9B6823F003027B685B6813438B601E
:102B1000FEF79EFA78617B685B68012B12D10AE0B0
:102B2000FEF796FA02467B69D31A41F28832934245
:102B300001D9032394E04D4B9B6803F00C03042B55
:102B4000EED13EE07B685B68022B12D10AE0FEF713
:102B50007FFA02467B69D31A41F28832934201D947
:102B600003237DE0414B9B6803F00C03082BEED15F
:102B700027E07B685B68032B1DD10AE0FEF768FA4B
:102B800002467B69D31A41F28832934201D903236A
:102B900066E0364B9B6803F00C030C2BEED110E083
:102BA000FEF756FA02467B69D31A41F28832934205
:102BB00001D9032354E02D4B9B6803F00C03002B39
:102BC000EED1294B1B6803F00F023B689A420CD9E7
:102BD000254B3A68D2B21A70234B1B6803F00F02E0
:102BE0003B689A4201D001233AE07B681B6803F0FE
:102BF0000403002B08D01D491C4B9B6823F4E052B2
:102C00007B68DB6813438B607B681B6803F00803F9
:102C1000002B09D01549154B9B6823F460427B6853
:102C20001B69DB0013438B6000F0B4FA01460F4BC5
:102C30009B6803F0F002F0233B613B6993FAA3F336
:102C4000FB60FB68B3FA83F322FA03F3084AD35C10
:102C500021FA03F3074A13600020FEF7CFF900239F
:102C600018461837BD4680BD003C0240003802407F
:102C7000F88700080000002080B400AF034B1B68F9
:102C80001846BD465DF8047B704700BF0000002079
:102C900080B582B000AFFFF7EFFF01460B4B9B689A
:102CA00003F4E0524FF4E0537B607B6893FAA3F3A4
:102CB0003B603B68B3FA83F322FA03F3044AD35C24
:102CC00021FA03F318460837BD4680BD003802409C
:102CD000F887000880B582B000AFFFF7CDFF01464E
:102CE0000B4B9B6803F460424FF460437B607B684E
:102CF00093FAA3F33B603B68B3FA83F322FA03F33E
:102D0000044AD35C21FA03F318460837BD4680BD58
:102D100000380240F887000880B590B000AF7860B6
:102D20000023FB637B681B6803F00103002B5BD06F
:102D3000A24B9B6803F00C03042B17D09F4B9B689E
:102D400003F00C03082B05D19C4B5B6803F4800354
:102D5000002B0BD1994B9B6803F00C030C2B11D16A
:102D6000964B5B6803F48003002B0BD0934B1B68DE
:102D700003F40033002B36D07B685B68002B32D124
:102D80000123FBE18E4A7B685B68DBB213707B68D2
:102D90005B68002B13D0FEF75BF9F86308E0FEF7E1
:102DA00057F90246FB6BD31A642B01D90323E5E1E3
:102DB000824B1B6803F40033002BF0D014E0FEF7C5
:102DC00047F9F86308E0FEF743F90246FB6BD31AB4
:102DD000642B01D90323D1E1784B1B6803F4003342
:102DE000002BF0D100E000BF7B681B6803F00203FA
:102DF000002B00F08480714B9B6803F00C03002BC8
:102E000017D06E4B9B6803F00C03082B05D16B4B5E
:102E10005B6803F48003002B0BD0684B9B6803F0C6
:102E20000C030C2B26D1654B5B6803F48003002B4D
:102E300020D1624B1B6803F00203002B05D07B6896
:102E4000DB68012B01D0012398E15C485B4B1B68D8
:102E500023F0F8027B681969F8237B627B6A93FA96
:102E6000A3F33B623B6AB3FA83F301FA03F3134320
:102E7000036044E07B68DB68002B2AD0514B0122C1
:102E80001A60FEF7E5F8F86308E0FEF7E1F802469D
:102E9000FB6BD31A022B01D903236FE1474B1B684D
:102EA00003F00203002BF0D04448444B1B6823F08E
:102EB000F8027B681969F8237B637B6B93FAA3F3B1
:102EC000FB61FB69B3FA83F301FA03F31343036075
:102ED00015E03C4B00221A60FEF7BAF8F86308E0F0
:102EE000FEF7B6F80246FB6BD31A022B01D9032377
:102EF00044E1324B1B6803F00203002BF0D17B68E6
:102F00001B6803F00803002B30D07B685B69002B43
:102F100016D02D4B01221A60FEF79AF8F86308E0EC
:102F2000FEF796F80246FB6BD31A022B01D9032356
:102F300024E1224B5B6F03F00203002BF0D015E07D
:102F4000214B00221A60FEF783F8F86308E0FEF7D1
:102F50007FF80246FB6BD31A022B01D903230DE144
:102F6000164B5B6F03F00203002BF0D17B681B68EC
:102F700003F00403002B65D00023BB600F4A0F4B06
:102F80001B6C43F0805313640C4B1B6C03F0805399
:102F9000BB60BB680D4A0D4B1B6843F48073136024
:102FA000FEF756F8F86313E0FEF752F80246FB6BA3
:102FB000D31A022B0CD90323E0E000BF00380240F3
:102FC0000238024000004742800E47420070004035
:102FD0006C4B1B6803F48073002BE5D06A4A7B6856
:102FE0009B68DBB213707B689B68002B15D0FEF7E3
:102FF0002FF8F8630AE0FEF72BF80246FB6BD31AB2
:1030000041F28832934201D90323B7E05F4B1B6F33
:1030100003F00203002BEED014E0FEF719F8F8637A
:103020000AE0FEF715F80246FB6BD31A41F288322C
:10303000934201D90323A1E0544B1B6F03F0020319
:10304000002BEED17B689B69002B00F096804F4BE4
:103050009B6803F00C03082B00F08D807B689B6954
:10306000022B71D14A4B00221A60FDF7F1FFF86381
:1030700008E0FDF7EDFF0246FB6BD31A022B01D9E6
:1030800003237BE0414B1B6803F00073002BF0D15E
:103090003E487B68DA697B681B6A1A437B68596A19
:1030A00047F6C0733B633B6B93FAA3F3FB60FB688B
:1030B000B3FA83F301FA03F31A437B689B6A5B0854
:1030C000591E4FF44033FB62FB6A93FAA3F33B6152
:1030D0003B69B3FA83F301FA03F31A437B68D96AB5
:1030E0004FF07063BB62BB6A93FAA3F37B617B69A9
:1030F000B3FA83F301FA03F31A437B68196B4FF0B9
:10310000E043BB63BB6B93FAA3F3BB61BB69B3FA48
:1031100083F301FA03F3134343601D4B01221A604A
:10312000FDF796FFF86308E0FDF792FF0246FB6BA0
:10313000D31A022B01D9032320E0144B1B6803F0A0
:103140000073002BF0D018E0114B00221A60FDF73D
:103150007FFFF86308E0FDF77BFF0246FB6BD31AA5
:10316000022B01D9032309E0084B1B6803F000730D
:10317000002BF0D101E0012300E000231846403786
:10318000BD4680BD007000407038024000380240EB
:103190006000474280B493B000AF0023FB6300237C
:1031A0007B640023BB6300237B6300233B646C4B85
:1031B0009B6803F00C030C2B00F2C88001A252F8AC
:1031C00023F000BFF93100084D3300084D330008EB
:1031D0004D330008FF3100084D3300084D3300081F
:1031E0004D330008053200084D3300084D33000808
:1031F0004D330008AB3200085A4B3B64A9E05A4BF0
:103200003B64A6E0564B5B6803F03F03FB63544B03
:103210005B6803F48003002B17D0534AFB6BB2FBAF
:10322000F3F24F4B596847F6C0730B4047F6C07135
:10323000F961F96991FAA1F1B961B969B1FA81F15C
:10324000CB4003FB02F37B6416E0464AFB6BB2FB08
:10325000F3F2434B596847F6C0730B4047F6C07111
:103260003963396B91FAA1F179617969B1FA81F128
:10327000CB4003FB02F37B64394B5B6803F44032C1
:103280004FF44033FB62FB6A93FAA3F33B613B6963
:10329000B3FA83F322FA03F301335B00BB637A6C66
:1032A000BB6BB2FBF3F33B6453E02D4B5B6803F065
:1032B0003F03FB632A4B5B6803F48003002B17D0AA
:1032C000294AFB6BB2FBF3F2254B596847F6C073F2
:1032D0000B4047F6C071B962B96A91FAA1F1F96081
:1032E000F968B1FA81F1CB4003FB02F37B6416E08D
:1032F0001C4AFB6BB2FBF3F2194B596847F6C073DB
:103300000B4047F6C0717962796A91FAA1F1B96010
:10331000B968B1FA81F1CB4003FB02F37B64104B37
:103320005B6803F0E0424FF0E0433B623B6A93FA94
:10333000A3F37B607B68B3FA83F322FA03F37B6326
:103340007A6C7B6BB2FBF3F33B6402E0054B3B64AE
:1033500000BF3B6C18464C37BD465DF8047B704798
:10336000003802400024F40000127A0080B582B0D8
:1033700000AF78607B68002B01D101231DE07B68E2
:1033800093F83930DBB2002B06D17B68002283F83A
:103390003820786801F0F8FF7B68022283F8392032
:1033A0007B681A687B6804331946104600F032FACD
:1033B0007B68012283F83920002318460837BD4670
:1033C00080BD00BF80B483B000AF78607B681B68AD
:1033D0007A681268D26842F00102DA607B681B6882
:1033E0007A681268126842F001021A6000231846D7
:1033F0000C37BD465DF8047B704700BF80B582B0D6
:1034000000AF78607B681B681B6903F00203002B28
:1034100022D07B681B68DB6803F00203002B1BD003
:103420007B681B686FF002021A617B6801221A76C2
:103430007B681B689B6903F00303002B03D078684B
:1034400000F0CAF905E0786800F0BCF9786800F08F
:10345000CDF97B6800221A767B681B681B6903F034
:103460000403002B22D07B681B68DB6803F0040395
:10347000002B1BD07B681B686FF004021A617B680D
:1034800002221A767B681B689B6903F44073002B49
:1034900003D0786800F0A0F905E0786800F092F9B0
:1034A000786800F0A3F97B6800221A767B681B68B5
:1034B0001B6903F00803002B22D07B681B68DB68C4
:1034C00003F00803002B1BD07B681B686FF0080219
:1034D0001A617B6804221A767B681B68DB6903F03B
:1034E0000303002B03D0786800F076F905E07868D4
:1034F00000F068F9786800F079F97B6800221A76A4
:103500007B681B681B6903F01003002B22D07B68CB
:103510001B68DB6803F01003002B1BD07B681B6863
:103520006FF010021A617B6808221A767B681B68AC
:10353000DB6903F44073002B03D0786800F04CF98A
:1035400005E0786800F03EF9786800F04FF97B6894
:1035500000221A767B681B681B6903F00103002BAD
:103560000ED07B681B68DB6803F00103002B07D0DB
:103570007B681B686FF001021A61786801F0E0F85F
:103580007B681B681B6903F08003002B0ED07B68EF
:103590001B68DB6803F08003002B07D07B681B6887
:1035A0006FF080021A61786800F0D8FA7B681B68B7
:1035B0001B6903F04003002B0ED07B681B68DB689F
:1035C00003F04003002B07D07B681B686FF04002BC
:1035D0001A61786800F014F97B681B681B6903F0B6
:1035E0002003002B0ED07B681B68DB6803F02003F0
:1035F000002B07D07B681B686FF020021A61786887
:1036000000F0A2FA00BF0837BD4680BD80B584B087
:1036100000AF786039600023FB607B6893F8383036
:10362000012B01D10223C8E07B68012283F83820F6
:103630007B68022283F839207B681B689B68FB60EB
:10364000FB6823F07703FB60FB6823F47F43FB6098
:103650007B681B68FA689A603B681B68402B77D0D0
:10366000402B0ED8102B00F08A80102B02D8002B94
:103670007ED099E0202B00F08980302B00F08D80E7
:1036800092E0702B16D0702B04D8502B40D0602BBA
:103690004ED089E0B3F5805F03D0B3F5005F24D04E
:1036A00082E07B681B687A681268926822F00702E1
:1036B0009A6079E07B6818683B6899683B685A684B
:1036C0003B68DB6800F0D8F97B681B689B68FB608F
:1036D000FB6823F07703FB60FB6843F07703FB6034
:1036E0007B681B68FA689A605EE07B6818683B68D4
:1036F00099683B685A683B68DB6800F0BDF97B68F5
:103700001B687A681268926842F480429A604BE0C3
:103710007B6818683B6859683B68DB681A4600F0AC
:1037200023F97B681B685021184600F085F93BE0BF
:103730007B6818683B6859683B68DB681A4600F08C
:1037400047F97B681B686021184600F075F92BE08B
:103750007B6818683B6859683B68DB681A4600F06C
:1037600003F97B681B684021184600F065F91BE0EF
:103770007B681B680021184600F05EF914E07B6846
:103780001B681021184600F057F90DE07B681B6894
:103790002021184600F050F906E07B681B683021B4
:1037A000184600F049F900BF7B68012283F83920F0
:1037B0007B68002283F83820002318461037BD4666
:1037C00080BD00BF80B483B000AF786000BF0C370D
:1037D000BD465DF8047B704780B483B000AF78606D
:1037E00000BF0C37BD465DF8047B704780B483B0E2
:1037F00000AF786000BF0C37BD465DF8047B7047B2
:1038000080B483B000AF786000BF0C37BD465DF870
:10381000047B704780B485B000AF786039600023C6
:10382000FB607B681B68FB607B68444A934213D053
:103830007B68B3F1804F0FD07B68414A93420BD035
:103840007B68404A934207D07B683F4A934203D04B
:103850007B683E4A934201D1012300E00023002B04
:1038600008D0FB6823F07003FB603B685B68FA6874
:103870001343FB607B68314A93422BD07B68B3F1E2
:10388000804F27D07B682E4A934223D07B682D4AF5
:1038900093421FD07B682C4A93421BD07B682B4AF3
:1038A000934217D07B682A4A934213D07B68294AF7
:1038B00093420FD07B68284A93420BD07B68274AFB
:1038C000934207D07B68264A934203D07B68254AFF
:1038D000934201D1012300E00023002B08D0FB68B4
:1038E00023F44073FB603B68DB68FA681343FB60BA
:1038F0007B68FA681A603B689A687B68DA623B68A2
:103900001A687B689A627B680C4A934203D07B6892
:103910000E4A934201D1012300E00023002B03D083
:103920003B681A697B681A637B6801225A6100BF91
:103930001437BD465DF8047B704700BF00000140AE
:103940000004004000080040000C0040000401405A
:103950000040014000440140004801400018004080
:10396000001C00400020004080B487B000AFF86029
:10397000B9607A6000237B6100233B61FB681B6AAE
:103980003B61FB681B6A23F00102FB681A62FB685B
:103990009B697B617B6923F0F0037B617B681B0182
:1039A0007A6913437B613B6923F00A033B613A69FF
:1039B000BB6813433B61FB687A699A61FB683A69AB
:1039C0001A6200BF1C37BD465DF8047B704700BF1C
:1039D00080B487B000AFF860B9607A6000237B6183
:1039E00000233B61FB681B6A23F01002FB681A622C
:1039F000FB689B697B61FB681B6A3B617B6923F405
:103A000070437B617B681B037A6913437B613B696D
:103A100023F0A0033B61BB681B013A6913433B6180
:103A2000FB687A699A61FB683A691A6200BF1C37C1
:103A3000BD465DF8047B704780B485B000AF786008
:103A40000B467B800023FB607B689B68FB60FB6808
:103A500023F07003FB607B8843F007039BB21A4698
:103A6000FB681343FB607B68FA689A6000BF1437F9
:103A7000BD465DF8047B704780B487B000AFF86046
:103A8000B9607A603B6000237B61FB689B687B6167
:103A90007B6923F47F437B613B681A027B681A438E
:103AA000BB6813437A6913437B61FB687A699A6048
:103AB00000BF1C37BD465DF8047B704780B483B0FF
:103AC00000AF786039607B6893F83830012B01D102
:103AD000022332E07B68012283F838207B680222CF
:103AE00083F839207B681B687A681268526822F074
:103AF00070025A607B681B687A68126851683A687D
:103B000012680A435A607B681B687A681268926878
:103B100022F080029A607B681B687A68126891685C
:103B20003A6852680A439A607B68012283F8392018
:103B30007B68002283F83820002318460C37BD46E6
:103B40005DF8047B704700BF80B483B000AF78603D
:103B500000BF0C37BD465DF8047B704780B483B06E
:103B600000AF786000BF0C37BD465DF8047B70473E
:103B700080B582B000AF78607B68002B01D1012353
:103B80003FE07B6893F83930DBB2002B06D17B68CD
:103B9000002283F83820786801F03AFC7B68242200
:103BA00083F839207B681B687A681268D26822F42F
:103BB0000052DA60786800F081FB7B681B687A68E5
:103BC0001268126922F490421A617B681B687A6855
:103BD0001268526922F02A025A617B681B687A686F
:103BE0001268D26842F40052DA607B680022DA631D
:103BF0007B68202283F839207B68202283F83A20D2
:103C0000002318460837BD4680BD00BF80B588B088
:103C100002AFF860B9603B601346FB8000237B6114
:103C2000FB6893F83930DBB2202B7FD1BB68002BC7
:103C300002D0FB88002B01D1012378E0FB6893F8C8
:103C40003830012B01D1022371E0FB68012283F897
:103C50003820FB680022DA63FB68212283F83920D0
:103C6000FDF7F6F97861FB68FA889A84FB68FA88B0
:103C7000DA8440E0FB68DB8C013B9AB2FB68DA84B3
:103C8000FB689B68B3F5805F21D13B6800937B693B
:103C900000228021F86800F0ADF90346002B01D026
:103CA000032344E0BB683B61FB681B683A691288E8
:103CB000C2F308025A60FB681B69002B03D1BB6882
:103CC0000233BB6017E0BB680133BB6013E03B68A5
:103CD00000937B6900228021F86800F08BF903468D
:103CE000002B01D0032322E0FB681A68BB68591C33
:103CF000B9601B785360FB68DB8C002BBAD13B6842
:103D000000937B6900224021F86800F073F90346B4
:103D1000002B01D003230AE0FB68202283F839201E
:103D2000FB68002283F83820002300E002231846B5
:103D30001837BD4680BD00BF80B485B000AFF860C5
:103D4000B9601346FB80FB6893F83A30DBB2202B56
:103D500038D1BB68002B02D0FB88002B01D1012396
:103D600031E0FB6893F83830012B01D102232AE0BF
:103D7000FB68012283F83820FB68BA689A62FB6806
:103D8000FA889A85FB68FA88DA85FB680022DA638C
:103D9000FB68222283F83A20FB68002283F838204F
:103DA000FB681B68FA681268526942F001025A61A6
:103DB000FB681B68FA681268D26842F49072DA6095
:103DC000002300E0022318461437BD465DF8047B4B
:103DD000704700BF80B588B000AF78607B681B6813
:103DE0001B68FB617B681B68DB68BB617B681B68C9
:103DF0005B697B6100233B610023FB60FB6903F08F
:103E00000F033B613B69002B0DD1FB6903F02003DD
:103E1000002B08D0BB6903F02003002B03D0786887
:103E200000F0D2F9CCE03B69002B00F0AB807B695D
:103E300003F00103002B05D1BB6903F49073002B41
:103E400000F0A080FB6903F00103002B0AD0BB69DE
:103E500003F48073002B05D07B68DB6B43F0010219
:103E60007B68DA63FB6903F00403002B0AD07B69EB
:103E700003F00103002B05D07B68DB6B43F00202EB
:103E80007B68DA63FB6903F00203002B0AD07B69CD
:103E900003F00103002B05D07B68DB6B43F00402C9
:103EA0007B68DA63FB6903F00803002B0AD07B69A7
:103EB00003F00103002B05D07B68DB6B43F00802A5
:103EC0007B68DA637B68DB6B002B78D0FB6903F0DF
:103ED0002003002B07D0BB6903F02003002B02D086
:103EE000786800F071F97B681B685B6903F0400338
:103EF000002B14BF01230023DBB2FB607B68DB6B6C
:103F000003F00803002B02D1FB68002B31D0786846
:103F100000F0BAF87B681B685B6903F04003002B74
:103F200023D07B681B687A681268526922F04002CD
:103F30005A617B685B6B002B13D07B685B6B224AFA
:103F40001A657B685B6B1846FDF784FA0346002B05
:103F500016D07B685B6B1B6D7A68526B1046984776
:103F60000EE0786800F03CF80AE0786800F038F875
:103F700006E0786800F034F87B680022DA631EE01F
:103F800000BF1CE0FB6903F08003002B08D0BB6975
:103F900003F08003002B03D0786800F0A7F80FE04F
:103FA000FB6903F04003002B0AD0BB6903F0400318
:103FB000002B05D0786800F0EFF800BF00E000BFEC
:103FC0002037BD4680BD00BFC540000880B483B027
:103FD00000AF786000BF0C37BD465DF8047B7047CA
:103FE00080B483B000AF786000BF0C37BD465DF889
:103FF000047B704780B584B000AFF860B9603B6067
:104000001346FB712CE0BB69B3F1FF3F28D0BB69BD
:10401000002B07D0FDF71CF802463B68D21ABB699B
:104020009A421DD9FB681B68FA681268D26822F4AC
:10403000D072DA60FB681B68FA681268526922F075
:1040400001025A61FB68202283F83920FB68202294
:1040500083F83A20FB68002283F8382003230FE01E
:10406000FB681B681A68BB681A40BB689A420CBFA1
:1040700001230023DBB21A46FB799A42C3D0002306
:1040800018461037BD4680BD80B483B000AF78605D
:104090007B681B687A681268D26822F49072DA60D2
:1040A0007B681B687A681268526922F001025A61C3
:1040B0007B68202283F83A2000BF0C37BD465DF8AC
:1040C000047B704780B584B000AF78607B689B6BE1
:1040D000FB60FB680022DA85FB680022DA84F8685E
:1040E000FFF77EFF00BF1037BD4680BD80B485B0AE
:1040F00000AF78607B6893F83930DBB2212B43D175
:104100007B689B68B3F5805F19D17B681B6AFB6095
:104110007B681B68FA681288C2F308025A607B68E1
:104120001B69002B05D17B681B6A9A1C7B681A628D
:104130000EE07B681B6A5A1C7B681A6208E07B6889
:104140001A687B681B6A581C796808621B78536080
:104150007B68DB8C013B9AB27B68DA847B68DB8C02
:10416000002B0FD17B681B687A681268D26822F036
:104170008002DA607B681B687A681268D26842F055
:104180004002DA60002300E0022318461437BD46DF
:104190005DF8047B704700BF80B582B000AF7860E7
:1041A0007B681B687A681268D26822F04002DA6085
:1041B0007B68202283F839207868FFF707FF002307
:1041C00018460837BD4680BD80B584B000AF786022
:1041D0007B6893F83A30DBB2222B69D17B689B680D
:1041E000B3F5805F23D17B689B6AFB607B681B69AA
:1041F000002B0ED17B681B685B689BB2C3F308037E
:104200009AB2FB681A807B689B6A9A1C7B689A62E8
:1042100029E07B681B685B689BB2DBB29AB2FB68E3
:104220001A807B689B6A5A1C7B689A621BE07B68D9
:104230001B69002B0AD17B689B6A591C7A689162C2
:104240007A6812685268D2B21A700CE07B689B6A76
:10425000591C7A6891627A6812685268D2B202F088
:104260007F02D2B21A707B68DB8D013B9AB27B6809
:10427000DA857B68DB8D002B18D17B681B687A6838
:104280001268D26822F49072DA607B681B687A68E0
:104290001268526922F001025A617B68202283F879
:1042A0003A20786800F026FA002302E0002300E0BC
:1042B000022318461037BD4680BD00BFF0B585B05B
:1042C00000AF78600023FB607B681B681B69FB60A4
:1042D000FB6823F44053FB607B68DB68FA68134398
:1042E000FB607B681B68FA681A617B681B68DB6887
:1042F000FB60FB6823F4164323F00C03FB607B6830
:104300009A687B681B691A437B685B691A437B6800
:10431000DB691343FA681343FB607B681B68FA6828
:10432000DA607B681B685B69FB60FB6823F44073A1
:10433000FB607B689B69FA681343FB607B681B68C2
:10434000FA685A617B68DB69B3F5004F40F0E4809E
:104350007B681B68AB4A934204D07B681B68AA4AFF
:1043600093426CD17B681C68FEF7B4FC024613468E
:104370009B0013449A001A447B685B685B00B2FBA5
:10438000F3F3A24AA2FB03235B091D01FEF7A2FC83
:10439000024613469B0013449A001A447B685B68EC
:1043A0005B00B2FBF3F6FEF795FC024613469B005A
:1043B00013449A001A447B685B685B00B2FBF3F31A
:1043C000924AA2FB03235B09642202FB03F3F31A64
:1043D000DB0032338D4AA2FB03235B0903F0F803B1
:1043E0005B001D44FEF776FC024613469B00134417
:1043F0009A001A447B685B685B00B2FBF3F6FEF739
:1044000069FC024613469B0013449A001A447B68D9
:104410005B685B00B2FBF3F37C4AA2FB03235B09FE
:10442000642202FB03F3F31ADB003233774AA2FB68
:1044300003235B0903F007032B44A36054E17B686B
:104440001C68FEF725FC024613469B0013449A00A5
:104450001A447B685B685B00B2FBF3F36B4AA2FB18
:1044600003235B091D01FEF713FC024613469B0064
:1044700013449A001A447B685B685B00B2FBF3F656
:10448000FEF706FC024613469B0013449A001A44AA
:104490007B685B685B00B2FBF3F35C4AA2FB03231F
:1044A0005B09642202FB03F3F31ADB003233574A41
:1044B000A2FB03235B0903F0F8035B001D44FEF736
:1044C000E7FB024613469B0013449A001A447B689C
:1044D0005B685B00B2FBF3F6FEF7DAFB02461346BD
:1044E0009B0013449A001A447B685B685B00B2FB34
:1044F000F3F3464AA2FB03235B09642202FB03F3A6
:10450000F31ADB003233414AA2FB03235B0903F0B9
:1045100007032B44A360E7E07B681B68394A93429A
:1045200004D07B681B68384A934271D17B681C6851
:10453000FEF7D0FB024613469B0013449A001A4430
:104540007B685B689B00B2FBF3F3304AA2FB03235A
:104550005B091D01FEF7BEFB024613469B00134498
:104560009A001A447B685B689B00B2FBF3F6FEF787
:10457000B1FB024613469B0013449A001A447B6821
:104580005B689B00B2FBF3F3204AA2FB03235B09A9
:10459000642202FB03F3F31A1B0132331B4AA2FB12
:1045A00003235B0903F0F0031D44FEF793FB02466F
:1045B00013469B0013449A001A447B685B689B0077
:1045C000B2FBF3F6FEF786FB024613469B0013444C
:1045D0009A001A447B685B689B00B2FBF3F30B4ABA
:1045E000A2FB03235B09642202FB03F3F31A1B0102
:1045F0003233064AA2FB03235B0903F00F032B446B
:10460000A36071E000100140001401401F85EB51D0
:104610007B681C68FEF73CFB024613469B00134474
:104620009A001A447B685B689B00B2FBF3F3304A44
:10463000A2FB03235B091D01FEF72AFB024613467A
:104640009B0013449A001A447B685B689B00B2FB92
:10465000F3F6FEF71DFB024613469B0013449A0037
:104660001A447B685B689B00B2FBF3F3204AA2FB11
:1046700003235B09642202FB03F3F31A1B013233A9
:104680001B4AA2FB03235B0903F0F0031D44FEF762
:10469000FFFA024613469B0013449A001A447B68B3
:1046A0005B689B00B2FBF3F6FEF7F2FA0246134694
:1046B0009B0013449A001A447B685B689B00B2FB22
:1046C000F3F30B4AA2FB03235B09642202FB03F30F
:1046D000F31A1B013233064AA2FB03235B0903F0E2
:1046E0000F032B44A360FFE700BF1437BD46F0BDA6
:1046F0001F85EB5180B582B000AF78607B681B6886
:104700000B4A93420FD14FF47A73012209490A48A8
:10471000FFF77CFA012207490748FFF70DFB20212C
:104720000648FDF7B5FA00BF0837BD4680BD00BF9B
:1047300000440040D4060020600800200000024031
:10474000F0B58BB002AF78607B681B68B3F1804F27
:1047500004D120214448FDF79BFA82E07B681B6866
:10476000424A93427DD1424B1B78002B78D0414B7B
:104770003B221A703F4B00225A7000BF4FF47A73ED
:10478000009301233B4AD0213B48FDF773FB0346CE
:10479000002BF3D100BF4FF47A7300930E23374AF6
:1047A000D0213548FDF740FC0346002BF3D1002310
:1047B000FB6121E0324AFB699B00134493ED007AD0
:1047C000FB695B002D4AD35C1B021BB21946FB69D7
:1047D0005B000133294AD35C0B4307EE903AF8EEB5
:1047E000E77A77EE277A264AFB699B001344C3EDEC
:1047F000007AFB690133FB61FB69062BDADD00F00F
:1048000043F81F4B1B681846FBF7BEFE05460E46D5
:104810001B4B5B681846FBF7B7FE03460C4607F1D7
:1048200008008DE818002A463346164901F0C0FA00
:1048300007F108031A460021012000F0F7FF0023CA
:10484000FB6109E00E4AFB699B0013444FF0000234
:104850001A60FB690133FB61FB69062BF2DD00E0A6
:1048600000BF2437BD46F0BD0000024000040040F8
:10487000BF05002048070020D8060020B005002012
:10488000C0050020E88600082DE9B04FA8B00AAFA7
:1048900000237B6782E07D4A7B6F9B0013441A688C
:1048A0007B497B6F9B000B441A607A4A7B6F9B00AD
:1048B000134493ED007A784A7B6F9B001344D3ED49
:1048C000007A77EE277A754A7B6F9B001344C3ED1D
:1048D000007A724A7B6F9B001344D3ED006A6F4AE3
:1048E0007B6F9B00134493ED007A6D4A7B6F9B00B6
:1048F0001344D3ED007A37EE277AC6EE877A694AF9
:104900007B6F9B001344C3ED007A674A7B6F9B006B
:1049100013441A6865497B6F9B000B441A605C4A1C
:104920007B6F9B00134493ED007A5E4A7B6F9B0084
:104930001344D3ED006A5D4A7B6F9B00134493EDF3
:10494000006A534A7B6F9B001344D3ED007A76EEE6
:10495000677A66EEA77A77EE277A4C4A7B6F9B00E0
:104960001344C3ED007A4F4A7B6F9B001344D3ED91
:10497000007AB7EE007A37EE677A484A7B6F9B0081
:104980001344D3ED007A67EE277A424A7B6F9B008F
:104990001344C3ED007A7B6F01337B677B6F062B7B
:1049A0007FF779AF394BD3ED047A9FED417AC7EEAB
:1049B000876A16EE900AFBF7E7FDC7E902013B4B59
:1049C000D3ED047A9FED3A7AC7EE876A16EE900A25
:1049D000FBF7DAFD04460D462C4BD3ED057A9FED2F
:1049E000347AC7EE876A16EE900AFBF7CDFD804653
:1049F00089462E4BD3ED057A9FED2D7AC7EE876A57
:104A000016EE900AFBF7C0FD82468B461F4BD3ED96
:104A1000067A9FED277AC7EE876A16EE900AFBF7B3
:104A2000B3FDC7E90001214BD3ED067A9FED207A53
:104A3000C7EE876A16EE900AFBF7A6FD02460B4604
:104A400007F11000CDE9082397ED007B8DED067B83
:104A5000CDE904ABCDE90289CDE90045D7E90223D0
:104A6000144901F0A5F907F110014FF47A733E22C1
:104A70001148FFF7CBF80E220021104801F07EF913
:104A800000BF7837BD46BDE8B08F00BFDC05002011
:104A9000A0080020040000202000002008080020BA
:104AA0003C0000202C070020C00500208C070020BF
:104AB00000000343F486000860080020B0050020D1
:104AC00080B584B004AFFCF777FA00F081F900F00C
:104AD000F9FA00F0CFFA00F0A3FA00F0F1F900F0D3
:104AE0001FFA00F05DFA08230293042301930223C6
:104AF000009301234FF400624FF48061984800F066
:104B000003FD984A0021012000F090FE964A002102
:104B1000022000F08BFE9548FCF7A6FA01224FF424
:104B200000419348FDF79AF89248FCF79DFA924AA3
:104B30000021022000F07AFE904B6B221A708F4BFE
:104B400000225A7000BF4FF47A73009302238B4AFD
:104B5000D0218B48FDF78EF90346002BF3D189480D
:104B6000FCF782FA884A0021022000F05FFE834BA6
:104B70006A221A70814B00225A7000BF4FF47A7378
:104B8000009302237D4AD0217D48FDF773F9034647
:104B9000002BF3D17B48FCF767FA7C4A0021022006
:104BA00000F044FE754B37221A70744B02225A7083
:104BB00000BF4FF47A7300930223704AD0217048EB
:104BC000FDF758F90346002BF3D16E48FCF74CFA79
:104BD0006F4A0021022000F029FE684B19221A704A
:104BE000664B13225A7000BF4FF47A73009302236E
:104BF000624AD0216248FDF73DF90346002BF3D10C
:104C00006048FCF731FA634A0021022000F00EFEF2
:104C10005A4B1B221A70594B00225A7000BF4FF496
:104C20007A7300930223554AD0215548FDF722F9A3
:104C30000346002BF3D15348FCF716FA564A0021DD
:104C4000022000F0F3FD4D4B1C221A704B4B00224A
:104C50005A7000BF4FF47A7300930223474AD02161
:104C60004748FDF707F90346002BF3D14548FCF709
:104C7000FBF94A4A0021022000F0D8FD3F4B1A22DE
:104C80001A703E4B00225A7000BF4FF47A730093A3
:104C900002233A4AD0213A48FDF7ECF80346002BAC
:104CA000F3D13F48FCF7E0F93E4A0021022000F032
:104CB000BDFD324B75221A70304B01225A7000BF75
:104CC0004FF47A73009301232C4AD0212C48FDF72E
:104CD000D1F80346002BF3D100BF4FF47A73009351
:104CE0000223314AD0212648FDF79EF90346002BC6
:104CF000F3D100BF01222D492D48FFF71DF80346CF
:104D0000002BF7D100BF2B48FEF75CFB0346002BBE
:104D1000F9D100BF2848FEF755FB0346002BF9D117
:104D20001F48FCF7A1F9254A0021012000F07EFD73
:104D3000224A0021022000F079FD1B4B1B781A4605
:104D40001F49204801F034F81E4A0121022000F0DA
:104D50006DFD1D4B01221A701C4B01221A70FEE7DB
:104D6000000802401C8700083087000840420F00FE
:104D70000000024080841E0044870008480700208D
:104D8000D8060020A0860100548700086887000824
:104D90007C8700088C8700089C870008AC87000887
:104DA00020A10700BC8700084C070020D406002083
:104DB000600800202408002050070020CC8700084D
:104DC000E0870008C4080020BE050020BF050020C1
:104DD00080B594B000AF00237B60364A354B1B6C26
:104DE00043F080531364334B1B6C03F080537B60A0
:104DF0007B6800233B60304A2F4B1B6843F44043E1
:104E000013602D4B1B6803F440433B603B68012358
:104E1000FB6101233B6202237B634FF48003BB638E
:104E20000423FB63B4233B6402237B640223BB643F
:104E30000223FB6407F11C031846FDF76DFF0346D0
:104E4000002B01D000F0CAF9FDF79CFD0346002BB2
:104E500001D000F0C3F90F23BB600223FB600023E5
:104E60003B614FF4A0537B614FF48053BB6107F16A
:104E7000080305211846FDF7EDFD0346002B01D080
:104E800000F0ACF9FDF7F8FE02460C4BA3FB022341
:104E90009B0C1846FCF7FEF90420FCF707FA0022E9
:104EA00000214FF0FF30FCF7CBF900BF5037BD4673
:104EB00080BD00BF003802400070004083DE1B430D
:104EC00080B500AF134B144A1A60124B134A5A6054
:104ED000104B4FF480429A600E4B0022DA600D4B6B
:104EE0004FF480421A610B4B00225A61094B002299
:104EF0009A61084B0022DA61064B00221A620548CB
:104F0000FCF7D8FE0346002B01D000F067F900BF84
:104F100080BD00BFD806002000540040801A060063
:104F200080B586B000AF1D4B4FF080421A601B4B1E
:104F300042F227325A60194B00229A60174B42F214
:104F40000F72DA60154B00221A611448FEF70EFA50
:104F50000346002B01D000F041F94FF48053BB60B1
:104F600007F1080319460D48FEF750FB0346002BD6
:104F700001D000F033F900233B6000237B603B4607
:104F800019460648FEF79AFD0346002B01D000F0B3
:104F900025F900BF1837BD4680BD00BF240800209A
:104FA00080B586B000AF1C4B1C4A1A601A4B42F207
:104FB00027325A60184B00229A60174B40F2E732B2
:104FC000DA60154B00221A611348FEF7CFF9034649
:104FD000002B01D000F002F94FF48053BB6007F1C1
:104FE000080319460C48FEF711FB0346002B01D0BD
:104FF00000F0F4F800233B6000237B603B46194639
:105000000548FEF75BFD0346002B01D000F0E6F8F3
:1050100000BF1837BD4680BD500700200004004087
:1050200080B500AF114B124A1A60104B4FF4E132B9
:105030005A600E4B00229A600C4B0022DA600B4B38
:1050400000221A61094B0C225A61084B00229A6116
:10505000064B0022DA610548FEF78AFD0346002B65
:1050600001D000F0BBF800BF80BD00BF6008002089
:105070000044004080B582B000AF00237B60104A3E
:105080000F4B1B6B43F4001313630D4B1B6B03F4AB
:1050900000137B607B68002200210B20FCF7D0F816
:1050A0000B20FCF7E9F8002200211120FCF7C8F8DA
:1050B0001120FCF7E1F800BF0837BD4680BD00BFF6
:1050C0000038024080B58AB000AF00233B613F4A00
:1050D0003E4B1B6B43F0040313633C4B1B6B03F011
:1050E00004033B613B690023FB60384A374B1B6B71
:1050F00043F080031363354B1B6B03F08003FB60AD
:10510000FB680023BB60314A304B1B6B43F001034B
:1051100013632E4B1B6B03F00103BB60BB680023C2
:105120007B602A4A294B1B6B43F002031363274B16
:105130001B6B03F002037B607B684FF400537B61C1
:10514000234BBB610023FB6107F11403194621487F
:10515000FCF7F2FB40F60F437B610123BB610023A8
:10516000FB6100233B6207F1140319461948FCF761
:10517000E3FB60237B610123BB610023FB61002310
:105180003B6207F1140319461348FCF7D5FB4FF4B3
:1051900000437B610123BB610023FB6102233B626F
:1051A00007F1140319460C48FCF7C6FB002240F631
:1051B0000F410848FCF752FD002248F26001064802
:1051C000FCF74CFD00BF2837BD4680BD00380240CB
:1051D00000001210000802400000024080B400AF3E
:1051E000FEE700BF80B500AF0720FCF71DF80022E6
:1051F00000216FF00B00FCF723F8002200216FF074
:105200000A00FCF71DF8002200216FF00900FCF7EE
:1052100017F8002200216FF00400FCF711F80022BB
:1052200000216FF00300FCF70BF8002200216FF063
:105230000100FCF705F8002200214FF0FF30FBF7DA
:10524000FFFF002200210520FBF7FAFF0520FCF7F5
:1052500013F800BF80BD00BF80B588B000AF786094
:105260007B681B68414A93427BD1C023FB601223B9
:105270003B6101237B610223BB610423FB6107F1D6
:105280000C0319463A48FCF757FB0023BB60394A28
:10529000384B1B6C43F400131364364B1B6C03F444
:1052A0000013BB60BB68344B344A1A60324B4FF07A
:1052B00000725A60304B00229A602F4B0022DA6055
:1052C0002D4B4FF480621A612B4B00225A612A4BFE
:1052D00000229A61284B0022DA61274B4FF40032FA
:1052E0001A62254B00225A622348FCF709F803464C
:1052F000002B01D0FFF772FF7B681F4A9A631E4A9A
:105300007B6893631E4B1F4A1A601D4B4FF000725F
:105310005A601B4B40229A60194B0022DA60184BEE
:105320004FF480621A61164B00225A61144B00221E
:105330009A61134B0022DA61114B4FF400321A626A
:105340000F4B00225A620E48FBF7DAFF0346002B90
:1053500001D0FFF743FF7B68094A5A63084A7B681C
:10536000936300BF2037BD4680BD00BF005400409E
:105370000004024000380240A807002010600240EC
:1053800074060020A060024080B584B000AF786051
:105390007B681B68B3F1804F16D10023FB601A4A6B
:1053A000194B1B6C43F001031364174B1B6C03F088
:1053B0000103FB60FB68002200211C20FBF740FF7B
:1053C0001C20FBF759FF1AE07B681B680F4A9342C9
:1053D00015D10023BB600C4A0B4B1B6C43F002033E
:1053E0001364094B1B6C03F00203BB60BB68002213
:1053F00000211D20FBF724FF1D20FBF73DFF00BF10
:105400001037BD4680BD00BF003802400004004098
:1054100080B588B000AF78607B681B68164A9342FD
:1054200025D10023BB60154A144B1B6C43F4003399
:105430001364124B1B6C03F40033BB60BB680C237A
:10544000FB6002233B6101237B610323BB610723D4
:10545000FB6107F10C0319460948FCF76DFA0022BD
:1054600000212620FBF7ECFE2620FBF705FF00BFFE
:105470002037BD4680BD00BF0044004000380240D8
:105480000000024080B500AFFBF7D4FDFBF72AFF18
:1054900000BF80BD80B400AF00BFBD465DF8047B97
:1054A000704700BF80B500AF0248FBF7F5FF00BFB3
:1054B00080BD00BFA807002080B500AF0248FBF701
:1054C000EBFF00BF80BD00BF7406002080B500AFB9
:1054D0000248FDF793FF00BF80BD00BF24080020F5
:1054E00080B500AF0248FDF789FF00BF80BD00BF57
:1054F0005007002080B500AF0248FEF76BFC00BFEC
:1055000080BD00BF6008002080B58AB000AFF860A1
:10551000B9607A603B603F4AFB6813603E4ABB68F3
:1055200013603E4A7B6813603D4A3B6813603D4A06
:105530003B6B13603C4A7B6B13603C4ABB6B136054
:10554000BA687B681A433B681A433B6B1A437B6B10
:105550001A43BB6B13437B610123BB610023FB61D7
:1055600003233B6207F114031946F868FCF7E4F9DA
:10557000BB689AB27B689BB213439AB23B689BB2FA
:1055800013439AB23B6B9BB213439AB27B6B9BB2B1
:1055900013439AB2BB6B9BB213439BB200221946D2
:1055A000F868FCF75BFB0A2000F086F9032000F0A6
:1055B0003FF8052000F080F9032000F039F80520BD
:1055C00000F07AF9032000F033F8052000F074F9B8
:1055D000022000F02DF8052000F06EF9282000F0E0
:1055E000C9F8282000F04CF90C2000F0C3F828205E
:1055F00000F046F9062000F0BDF8282000F040F940
:10560000012000F0B7F8022000F056F900BF28375B
:10561000BD4680BDF80800200C09002008090020C4
:105620001009002000090020FC08002004090020C7
:1056300080B582B000AF0346FB71FB7903F0010334
:10564000002B09D0304B1868304B1B689BB20122ED
:105650001946FCF703FB08E02B4B18682B4B1B6823
:105660009BB200221946FCF7F9FAFB7903F002031A
:10567000002B09D0244B1868254B1B689BB20122D4
:105680001946FCF7EBFA08E01F4B1868204B1B6823
:105690009BB200221946FCF7E1FAFB7903F0040300
:1056A000002B09D0184B18681A4B1B689BB20122BB
:1056B0001946FCF7D3FA08E0134B1868154B1B6822
:1056C0009BB200221946FCF7C9FAFB7903F00803E4
:1056D000002B09D00C4B18680F4B1B689BB20122A2
:1056E0001946FCF7BBFA08E0074B18680A4B1B6821
:1056F0009BB200221946FCF7B1FA00F00FF800BF88
:105700000837BD4680BD00BFF80800201009002002
:1057100000090020FC0800200409002080B500AF2B
:10572000124B1868124B1B689BB201221946FCF7FA
:1057300095FA022000F0A4F80C4B18680C4B1B687B
:105740009BB201221946FCF789FA022000F098F872
:10575000064B1868064B1B689BB200221946FCF7E3
:105760007DFA282000F08CF800BF80BDF8080020EA
:105770000809002080B582B000AF0346FB71FB79B9
:105780000021184600F012F800BF0837BD4680BD62
:1057900080B582B000AF0346FB71FB79012118464A
:1057A00000F004F800BF0837BD4680BD80B582B068
:1057B00000AF03460A46FB711346BB71BB79002B51
:1057C00009D0104B1868104B1B689BB20122194678
:1057D000FCF744FA08E00B4B18680B4B1B689BB2B4
:1057E00000221946FCF73AFAFB791B09DBB218468E
:1057F000FFF71EFFFB791846FFF71AFF00BF0837B7
:10580000BD4680BDF80800200C09002080B582B09C
:1058100000AF0346FB71FB791846FFF7B9FF012083
:1058200000F02EF800BF0837BD4680BD80B582B0BD
:1058300000AF03463A60FB710B46BB71FB79012B4D
:1058400006D1BB79803BDBB21846FFF793FF0EE031
:10585000BB79403BDBB21846FFF78CFF07E03B68A3
:105860001B781846FFF7D2FF3B6801333B603B686B
:105870001B78002BF3D100BF0837BD4680BD00BFA9
:1058800080B485B000AF0346FB800CE00023FB60D2
:1058900003E000BFFB680133FB60FB682B2BF8DDE6
:1058A000FB88013BFB80FB88002BEFD100BF143746
:1058B000BD465DF8047B704780B582B000AF0346FB
:1058C000FB8006E04FF47A70FFF7DAFFFB88013BBC
:1058D000FB80FB88002BF5D100BF0837BD4680BD9B
:1058E00070B50E4B0E4CE41AA41000251E46A542BE
:1058F00004D056F8253098470135F8E702F0E8FE65
:10590000084C094BE41AA41000251E46A54204D0F9
:1059100056F8253098470135F8E770BD7C890008B6
:105920007C890008808900087C890008024B0146B8
:10593000186800F003B800BF580500202DE9F04FAB
:1059400001F10B04162C85B0814603D934F007040D
:1059500001D502E010248C4203D20C23C9F8003098
:10596000EAE1484600F012FAB4F5FC7F9E4D17D2EA
:1059700004F108022A44A2F1080156688E424FEA57
:10598000D40302D1D668B24208D07368F268B16815
:1059900023F00303CA60334491602FE002333DE0FB
:1059A000630A1AD0042B02D8A309383318E0142B49
:1059B00001D85B3314E0542B02D8230B6E330FE075
:1059C000B3F5AA7F02D8E30B773309E040F25452D3
:1059D000934204D8A30C7C3302E03F2300E07E23F3
:1059E0005A1C05EBC202A2F1080056680CE000291F
:1059F000F16808DBB368D9608B60B3185A6842F06D
:105A000001025A60A3E10E46864206D0726822F077
:105A10000302111B0F29EADD013B0133724A2E6993
:105A200002F10807BE42394679D0706820F00300C1
:105A3000C4EB000EBEF10F0F0DDD331944F001046D
:105A40007460536113614EF00102DF609F605A6021
:105A500043F80EE07BE1BEF1000F5761176105DBF3
:105A60003044436843F00103436070E1B0F5007FC8
:105A700015D2C0084FEAA00E012707FA0EFE57689C
:105A800001304EEA0707576002EBC00752F830E0DA
:105A9000C6F808E0083FF76042F830603DE0420A8F
:105AA000042A02D88209383215E0142A01D85B3260
:105AB00011E0542A02D8020B6E320CE0B2F5AA7F34
:105AC00002D8C20B773206E040F25457BA429ABF6E
:105AD000820C7C327E22571C05EBC20E55F83770C3
