:020000040800F2
:100000000000022005020008550200085502000801
:1000100055020008550200085502000800000000C3
:100020000000000000000000000000008511000832
:100030005502000800000000111200089D1F000872
:100040005502000855020008550200085502000834
:100050005502000855020008550200085502000824
:100060005502000855020008550200085502000814
:100070005502000855020008550200085502000804
:1000800055020008550200085502000855020008F4
:1000900055020008550200085502000855020008E4
:1000A00055020008A11F000855020008550200086B
:1000B000AD1F00085502000855020008550200084F
:1000C00055020008550200085502000855020008B4
:1000D00055020008550200085502000855020008A4
:1000E0005502000855020008550200085502000894
:1000F0005502000855020008550200085502000884
:100100005502000855020008550200085502000873
:100110005502000855020008550200085502000863
:100120005502000855020008550200085502000853
:100130005502000800000000000000005502000801
:100140005502000855020008550200085502000833
:100150005502000855020008550200085502000823
:100160005502000855020008550200085502000813
:100170005502000855020008550200080000000062
:100180000000000055020008000000000000000010
:1001900055020008000000000000000055020008A1
:1001A00000000000000000000000000055020008F0
:1001B00055020008550200085502000855020008C3
:0401C00055020008DC
:1001C40010B5054C237833B9044B13B10448AFF38D
:1001D40000800123237010BD0800002000000000EF
:1001E4006020000808B5034B1BB103490348AFF373
:1001F400008008BD000000000C0000206020000802
:10020400DFF834D0002103E00C4B5B584350043139
:100214000B480C4B42189A42F6D30B4A02E00023D7
:1002240042F8043B094B9A42F9D301F0C3FE01F0B2
:10023400E7FE01F06BFD704700000220D8200008A3
:10024400000000200800002008000020F43D0020E9
:10025400FEE7000008B50B4B1A6842F400721A60FE
:100264001A6842F480621A601A6842F480721A6052
:10027400032000F017F8002001F050FE01F002FE08
:10028400002008BD003C0240024A13680133136099
:10029400704700BF6C3D0020014B1868704700BFD9
:1002A4006C3D0020074AD36823F4E0631B041B0C55
:1002B40043F0BF63000243F4003300F4E0600343FF
:1002C400D360704700ED00E0174BDB68C3F30223F3
:1002D40030B5C3F107041D1D042C28BF0424062DCA
:1002E4004FF0010505FA04F404F1FF348CBF033B1D
:1002F40000230C409C4005FA03F3013B1A400028FC
:1003040042EA04024FEA0212AFBF00F1604000F07B
:100314000F00064BD2B2A5BF00F56140D2B21A5409
:1003240080F8002330BD00BF00ED00E014ED00E0D4
:100334004209012300F01F0003FA00F0014B43F8C7
:100344002200704700E100E00138B0F1807F0AD25A
:10035400064B074A5860F02182F823100020072238
:1003640098601A6070470120704700BF10E000E0F9
:1003740000ED00E0044B1A6804280CBF42F00402AC
:1003840022F004021A60704710E000E02DE9F04FFB
:10039400674F0B68DFF8A0C1DFF8A08185B00022A9
:1003A4000193BE460124019B944034EA030340F0C8
:1003B400B7804D6825F0100ABAF1020F14D14FEA44
:1003C400D20900EB890902F0070BD9F820604FEA43
:1003D4008B0B0F2303FA0BF326EA03060B6903FACC
:1003E4000BF33343C9F820304FEA420B4FF00309B3
:1003F400036809FA0BF96FEA090905F0030603EA31
:10040400090306FA0BF60AF1FF3A3343BAF1010F76
:1004140003600FD88368CE6809EA030306FA0BF673
:100424001E4386604368C5F3001623EA040396401E
:1004340033434360C36809EA03098B6803FA0BF387
:1004440043EA0903C360EB006AD500230393DCF895
:100454004460384B46F48046CCF84460DCF8446091
:1004640022F0030909F1804906F4804609F59C3914
:10047400039602F0030A039ED9F808B04FEA8A0AE9
:100484000F2606FA0AF698422BEA060618D003F558
:100494008063984216D003F58063984214D003F524
:1004A4008063984212D003F58063984210D040458F
:1004B40010D003F50063984214BF072306230AE013
:1004C400002308E0012306E0022304E0032302E002
:1004D400042300E0052303FA0AF33343C9F8083080
:1004E4003B68E64315F4803F0CBF33402343CEF80A
:1004F4000030DEF8043015F4003F0CBF33402343D2
:100504007B60BB6815F4801F0CBF33402343CEF8D7
:100514000830DEF80C30AD0254BF33402343FB6097
:100524000132102A7FF43EAF05B0BDE8F08F00BF62
:10053400003C014000000240003802400014024028
:1005440002B90904816170474369594041617047A8
:1005540037B500230193224B1A6C42F080521A647F
:100564001B6C03F080530193019B4FF4803393FA87
:10057400A3F3B3FA83F303F1845303F560339B00CD
:1005840001221A60FFF788FE164C05466368DA03F9
:1005940007D4FFF781FE401BB0F57A7FF6D903201C
:1005A4001BE04FF4003393FAA3F3B3FA83F303F19C
:1005B400845303F560339B0001221A60FFF76CFE3D
:1005C400084C054663689B0306D4FFF765FE401B91
:1005D400B0F57A7FF6D9E2E7002003B030BD00BF62
:1005E4000038024000700040554B1A6802F00F02B8
:1005F4008A422DE9F04105460E460AD32968880748
:1006040011D55048836823F0F002AB68134383602C
:1006140009E0CAB21A701B6803F00F039942EDD0C7
:100624000120BDE8F081C90706D4454B1A6802F0E1
:100634000F02964251D357E06B68424A012B03D113
:10064400126812F4003F08E0991E0129126802D8CA
:1006540012F0007F01E012F0020FE1D0394CA268E1
:1006640022F003021343A360FFF716FE6B68012B0D
:10067400074641F288380CD1A36803F00C03042B1D
:10068400D3D0FFF709FEC01B4045F5D90320BDE8D0
:10069400F081022B0AD1A36803F00C03082BC4D009
:1006A400FFF7FAFDC01B4045F5D9EFE7032B0FD147
:1006B400A36803F00C030C2BB7D0FFF7EDFDC01BB0
:1006C4004045F5D9E2E7FFF7E7FDC01B4045DDD81B
:1006D400A36813F00C0FF6D1A7E7F2B21A701B68E7
:1006E40003F00F039E429BD129684A0706D515489B
:1006F400836823F4E052EB68134383600B0707D548
:10070400104A2969936823F4604343EAC103936060
:1007140000F006FA0B4BF0229B6892FAA2F2B2FAAE
:1007240082F203F0F003D340074AD35CD840074B6E
:100734001860002001F0F2FB0020BDE8F08100BF4A
:10074400003C024000380240A020000804000020C1
:10075400014B1868704700BF04000020084B4FF499
:1007640060429B6892FAA2F2B2FA82F203F4604306
:10077400D340044AD35C044A1068D840704700BF91
:1007840000380240A0200008040000200F2303606A
:100794000B4B9A6802F0030242609A6802F0F0027E
:1007A40082609A6802F4E052C2609B68DB0803F43A
:1007B400E0530361034B1B6803F00F030B607047A6
:1007C40000380240003C024003682DE9F341DE0793
:1007D400044603D423689D0758D4B1E0974B9A6824
:1007E40002F00C02042A10D09A6802F00C02082AC3
:1007F40002D15B68580208D4904B9A6802F00C024C
:100804000C2A0BD15A68510208D58C4B1B689A03E9
:10081400E0D56368002BDDD101207AE16268B2F58E
:10082400803F04D11A6842F480321A6014E0834D88
:10083400B2F5A02F2B6807D143F480232B602B68DB
:1008440043F480332B6007E023F480332B602B6860
:1008540023F480232B606AB1FFF71EFD774D064613
:100864002B689B03B6D4FFF717FD801B6428F7D9C8
:1008740003204EE1FFF710FD06462B689F03A9D520
:10088400FFF70AFD801B6428F7D9F1E76B4B9A68E0
:1008940012F00C0F10D09A6802F00C02082A02D150
:1008A4005B68580208D5654A936803F00C030C2B67
:1008B40017D15368590214D4604B1A68920702D5B1
:1008C400E268012AA8D11A68F82191FAA1F12069F5
:1008D400B1FA81F100FA01F122F0F8020A431A6038
:1008E4002EE0E268564BEAB101221A60FFF7D4FC0D
:1008F400524D06462B6851489B0705D4FFF7CCFCA4
:10090400801B0228F6D9B3E70368F82292FAA2F210
:100914002169B2FA82F201FA02F223F0F8031343D6
:1009240003600DE01A60FFF7B7FC444D06462B68E0
:100934009F0705D5FFF7B0FC801B0228F7D997E77E
:1009440023681E0703D423685D0748D51FE0626946
:100954003C4B72B101221A60FFF79EFC374D0646EC
:100964006B6F9807EFD4FFF797FC801B0228F7D929
:100974007EE71A60FFF790FC304D06466B6F9907CF
:10098400E1D5FFF789FC801B0228F7D970E7002323
:1009940001932A4B2C4D1A6C42F080521A641B6C42
:1009A40003F080530193019B2B6843F480732B6005
:1009B400FFF772FC06462B68DA0513D5A3681F4DB2
:1009C400012B15D12B6F43F001032B67FFF764FC58
:1009D4001A4D064641F288372B6F9B0719D5A26939
:1009E400A2BB7BE0FFF758FC801B0228E3D93FE75A
:1009F400052B04D12B6F43F004032B67E2E72A6F26
:100A040022F001022A672A6F22F004022A6733B116
:100A1400DCE7FFF741FC801BB842DDD928E7FFF78C
:100A24003BFC41F2883706462B6F9807D7D5FFF772
:100A340033FC801BB842F7D91AE700BF00380240E4
:100A440000004742800E474200700040324DAB68C0
:100A540003F00C03082B3FF4DFAE304E0023022AD0
:100A640033604AD1FFF718FC80462B682A4F99015E
:100A740036D447F6C07292FAA2F24FF44033B2FA77
:100A840082FC93FAA3F34FF07061B3FA83FE91FAF8
:100A9400A1F14FF0E042B1FA81F592FAA2F2E369D2
:100AA400B2FA82F0226A43EA0201626AA36A02FA93
:100AB4000CF211435A08013A02FA0EF30B43E16AAD
:100AC400226BA9400B43824013437B6001233360B4
:100AD400FFF7E2FB04463B689A0108D5002018E0C2
:100AE400FFF7DAFBC8EB00000228BED9C0E6FFF727
:100AF400D3FB001B0228EED9BAE6FFF7CDFB044670
:100B04002B689B01EAD5FFF7C7FB001B0228F7D926
:100B1400AEE602B0BDE8F081003802406000474212
:100B24003049886800F00C00082808D00C282FD021
:100B34002D4A2E4B04280CBF1846104670474868AF
:100B44004B6800F03F0013F4800F47F6C0724B6807
:100B540092FAA2F247F6C071B2FA82F201EA0301F4
:100B640021FA02F114BF214A1F4AB2FBF0F01D4AD8
:100B740000FB01F352684FF4403090FAA0F0B0FA51
:100B840080F002F4403222FA00F00130400025E007
:100B940048684B6800F03F0013F4800F47F6C072BA
:100BA4004B6892FAA2F247F6C071B2FA82F201EAF5
:100BB400030121FA02F114BF0C4A0B4AB2FBF0F014
:100BC400084A00FB01F352684FF0E04090FAA0F0AD
:100BD400B0FA80F002F0E04222FA00F0B3FBF0F049
:100BE400704700BF003802400024F40000127A006D
:100BF4000368DA6842F00102DA601A6842F001021E
:100C04001A600020704790F83830012B70B54FF00F
:100C1400020300F0B08080F839300368012280F8C4
:100C240038209A6822F47F4222F077029A600A6898
:100C3400402A77D018D8102A00F08B8008D8002AD0
:100C440040F093809A6822F0700242F007028BE031
:100C5400202A00F08480302A40F087809A6822F0AD
:100C6400700242F037027FE0702A35D01BD8502A38
:100C740041D0602A79D11C6A4D68CE6824F01004F2
:100C84001C6299691A6A21F4704122F0A00242EAB6
:100C9400051241EA063199611A629A6822F07002DB
:100CA40042F0670260E0B2F5805F11D0B2F5005FF8
:100CB4005BD19C688D684A68C9682A4324F47F44E0
:100CC400224342EA01229A609A6842F480424BE04D
:100CD4009A6822F0070247E09C688D684A68C968F0
:100CE4002A4324F47F44224342EA01229A609A6808
:100CF40042F0770238E01A6A1C6A4D68CE6824F024
:100D040001041C62996922F00A0221F0F0012A43CD
:100D140041EA061199611A629A6822F0700242F05F
:100D2400570221E01A6A1C6A4D68CE6824F0010457
:100D34001C62996922F00A0221F0F0012A4341EA77
:100D4400061199611A629A6822F0700242F0470211
:100D54000AE09A6822F0700242F0170204E09A68EE
:100D640022F0700242F027029A60012380F83930A1
:100D7400002380F83830184670BD704770477047BC
:100D8400704703681A69910710B5044614D5DA68E8
:100D9400920711D56FF002021A619B6901229B0729
:100DA400027602D0FFF7EAFF04E0FFF7E6FF2046F1
:100DB400FFF7E5FF0023237623681A69500716D549
:100DC400DA68510713D56FF004021A619B69022295
:100DD40013F4407F2276204602D0FFF7CFFF04E0D1
:100DE400FFF7CBFF2046FFF7CAFF002323762368D3
:100DF4001A69120715D5DA68100712D56FF00802C0
:100E04001A61DB69042299072276204602D0FFF793
:100E1400B5FF04E0FFF7B1FF2046FFF7B0FF002362
:100E2400237623681A69D20616D5DA68D00613D554
:100E34006FF010021A61DB69082213F4407F2276F6
:100E4400204602D0FFF79AFF04E0FFF796FF204602
:100E5400FFF795FF0023237623681A69D10708D585
:100E6400DA68D20705D56FF001021A61204600F056
:100E7400F7FF23681A69100608D5DA68110605D544
:100E84006FF080021A61204600F0BFF823681A69E7
:100E9400520608D5DA68500605D56FF040021A618B
:100EA4002046FFF76DFF23681A6991060AD5DA68B0
:100EB400920607D56FF0200220461A61BDE8104063
:100EC40000F0A2B810BD00002E4A0368904212D070
:100ED400B0F1804F0FD0A2F57C4290420BD002F5C6
:100EE4008062904207D002F58062904203D002F5FE
:100EF4007842904218D14A6823F070031343214A80
:100F0400904237D0B0F1804F34D01F4A904231D054
:100F140002F5806290422DD002F58062904229D081
:100F240002F57842904225D0184A904222D002F528
:100F3400806290421ED002F5806290421AD0A2F5DF
:100F44009832904216D002F58062904212D002F597
:100F5400806290420ED003608B68C3620B68836228
:100F6400084B98420BD003F58063984207D00123C5
:100F740043617047CA6823F440731343EBE70B697A
:100F84000363F4E700000140000400400040014016
:100F940010B50446A0B190F8393003F0FF021BB934
:100FA40080F8382000F09EFF022384F8393020684E
:100FB400211DFFF789FF012384F83930002010BD7B
:100FC400012010BD90F83830012B10B54FF002030A
:100FD40018D080F8393003685A6822F070025A60D9
:100FE4005C680A6822435A609A6822F080029A6018
:100FF4009C684A6822439A60012380F839300023B0
:1010040080F83830184610BD7047704708B500F0B6
:10101400F7FB002008BD70B5B0F90840028A0B4602
:1010240090E8420086B0842C4FF0000514BF0334CE
:101034002C4605A80190039502950094304600F0D3
:10104400C1FB01280CBF0598002006B070BD08B58F
:10105400002808BF012000F021FD002008BD08B5CC
:1010640000F0D0FD012803D0BDE8084000F0FEB830
:1010740008BD00F1080343604FF0FF32C360036111
:101084000023826003607047002303617047436854
:101094004B609A688A609A68516099600368086135
:1010A4000133036070470A68531C30B501D10369EA
:1010B40007E000F108035C682568AA4201D32346CF
:1010C400F9E75A684A6091608B6059600368086167
:1010D4000133036030BD4168826803698A608268B5
:1010E40051605968884208BF5A600022026118683A
:1010F40001381860704700000A4B1B68013308D0A0
:101104004FF0500383F31188BFF36F8FBFF34F8FFA
:10111400FEE74FF0500383F31188BFF36F8FBFF3E3
:101124004F8FFEE70000002006480068006880F347
:10113400088862B661B6BFF34F8FBFF36F8F00DFCD
:1011440000BF000008ED00E0DFF80C00016841F486
:10115400700101607047000088ED00E04FF080737B
:1011640000E90A00054B40F80C3C6FF0020340F81C
:10117400202C40F8243C4438704700BFFD10000880
:10118400064B19680868B0E8F04F80F30988BFF38C
:101194006F8F4FF0000080F311887047103D0020DE
:1011A4004FF0500383F31188BFF36F8FBFF34F8F5A
:1011B4000A4A13680133012B13600DD1084B1B68D5
:1011C40013F0FF0F08D04FF0500383F31188BFF3DF
:1011D4006F8FBFF34F8FFEE7704700BF0000002002
:1011E40004ED00E0084A136843B94FF0500383F359
:1011F4001188BFF36F8FBFF34F8FFEE7013B13607E
:101204000BB983F31188704700000020EFF30980C5
:10121400BFF36F8F144B1A681EF0100F08BF20ED38
:10122400108A20E9F04F10604DF8043D4FF0500053
:1012340080F31188BFF34F8FBFF36F8F00F0A8FCCA
:101244004FF0000080F3118808BC19680868B0E802
:10125400F04F1EF0100F08BFB0EC108A80F309881D
:10126400BFF36F8F704700BF103D002008B5EFF348
:1012740011834FF0500282F31188BFF36F8FBFF3D5
:101284004F8F00F0FDFA18B1034B4FF080521A60F3
:10129400002383F3118808BD04ED00E0064B4FF4EE
:1012A4007A721B68B3FBF2F3044A013B1360044BEC
:1012B40007221A60704700BF0400002014E000E019
:1012C40010E000E0314B324A13B51968914208D15D
:1012D4004FF0500383F31188BFF36F8FBFF34F8F29
:1012E400FEE71A682B4B9A4208D14FF0500383F360
:1012F4001188BFF36F8FBFF34F8FFEE7264B1A7829
:10130400D2B20192FF221A701B78244ADBB28DF804
:1013140003309DF8033003F050031370204B072271
:101324001A6000219DF80300000602F1FF3408D57D
:101334009DF803205200D2B28DF8032001212246E9
:10134400F0E701B11A601A68120202F4E0621A604E
:10135400019B114ADBB21370124B1A6842F47002FB
:101364001A601A6842F070421A60FFF797FF0E4B3A
:1013740000221A60FFF7E8FE0C4A136843F040436A
:101384001360FFF7D1FEFFF7B7FE00BF00ED00E0EA
:1013940071C20F4170C20F4100E400E0240000203C
:1013A4002800002020ED00E00000002034EF00E0E1
:1013B40010B50F4B1A68824201D21346FAE75968F6
:1013C4005C18A04201BF406809181846596041687A
:1013D4004418A24207D1074C2468A2421FBF546894
:1013E4001268091941609842026018BF186010BD64
:1013F40034000020300000202DE9F041044600F0C4
:1014040037FA4049404D0B680BBB404A56071FBF93
:10141400D01D20F0070002F570531B1A14BF0246BA
:101424004FF470531344083B23F00703384E0B600A
:1014340000207060326058601860981A1360354B51
:1014440050601860344B18604FF000432B602F68D5
:10145400274246D1002C45D004F1080358071CBF8D
:1014640023F007030833002B39D02B4A1668B34204
:10147400904636D8264A15686868834203D80968B6
:101484008D4206D12DE02C68002CF8D02A46254642
:10149400F2E7296814681160C21A102A0FD9E818F3
:1014A400410708D04FF0500383F31188BFF36F8FC7
:1014B400BFF34F8FFEE742606B60FFF779FF15497A
:1014C4006B680868F21A1F4382424FF00003C8F8A1
:1014D400002038BF0A6008346F602B6002E01C46AD
:1014E40000E0002400F064FA630708D04FF05003D2
:1014F40083F31188BFF36F8FBFF34F8FFEE720464E
:10150400BDE8F081300000203C3C00203C0000207D
:1015140034000020403C00202C00002010B504467C
:1015240070B3184A50F8043C1268134208D14FF0C3
:10153400500383F31188BFF36F8FBFF34F8FFEE720
:1015440050F8081C41B14FF0500383F31188BFF3E6
:101554006F8FBFF34F8FFEE723EA020340F8043C8A
:1015640000F086F9084A54F8041C1368A4F1080032
:101574000B441360FFF71CFFBDE8104000F018BADD
:1015840010BD00BF3C3C00202C000020064A13681C
:101594001968064B11B94FF0FF3203E01268D268A4
:1015A400D26852681A607047483C0020143D0020FD
:1015B4000E4B1A6810B550600D4A126890420446EA
:1015C40007D20C4A10681968BDE810400431FFF7CF
:1015D4006ABD094A106819680431FFF764FD074BB6
:1015E4001A68944238BF1C6010BD00BF103D002033
:1015F400183D00201C3D0020483C0020143D0020E4
:101604002DE9F84F9A460C9B0A9F81460E461546D3
:101614003BB99000FFF7F0FE8346002800F0B2804B
:1016240000E09B465C20FFF7E7FE044688B1AD006E
:101634002A46C0F830B0A521584600F007FD236BB8
:10164400043D1D4425F00705731E04F133020F36D3
:1016540005E05846FFF762FF94E09E4206D013F877
:10166400011F02F8011F19780029F6D1062F4FF047
:101674000008BB4604F1040628BF4FF0060B3046B1
:1016840084F84380C4F82CB0C4F84CB0C4F850803B
:10169400FFF7FAFC04F11800FFF7F6FCCBF107039F
:1016A400A361C4F854802461646284F8588052466B
:1016B40049462846FFF752FD0B9B206003B11C608E
:1016C400FFF76EFD314A324D1368DFF8EC900133B9
:1016D40013602B683BBB2C601268012A2BD19846FF
:1016E40009EB080008F11408FFF7C3FCB8F18C0FEC
:1016F400F6D1DFF8C8A0DFF8C8805046FFF7B9FC80
:101704004046FFF7B6FC2348FFF7B3FC2248FFF737
:10171400B0FC2248FFF7ADFC214BC3F800A0214BDD
:10172400C3F8008007E0204B1B6823B92B68DB6AF1
:101734009F4228BF2C601D4A1D4913680133136062
:10174400E26A63640B68012404FA02F00343142080
:101754000B6000FB02903146FFF799FCFFF742FD56
:10176400114B1B685BB12B68DB6A9F4207D9114B95
:101774004FF080521A60BFF34F8FBFF36F8F204634
:10178400BDE8F88F4FF0FF30BDE8F88F603D0020D2
:10179400103D0020203D0020543C0020683C0020E7
:1017A400483C00201C3D00204C3C0020343D0020DF
:1017B400643D002004ED00E0803C0020383D002022
:1017C4004C3D002070B403AC70CC40B94FF05003D2
:1017D40083F31188BFF36F8FBFF34F8FFEE7062C9F
:1017E40008D94FF0500383F31188BFF36F8FBFF311
:1017F4004F8FFEE705960495039470BCFFF700BF76
:101804001FB50024029401940094234680221349B6
:101814001348FFF7F5FE012814D14FF0500383F36A
:101824001188BFF36F8FBFF34F8F0E4B4FF0FF3212
:101834001A600D4B18600D4B1C6004B0BDE81040DD
:10184400FFF740BD40B94FF0500383F31188BFF355
:101854006F8FBFF34F8FFEE704B010BDB0200008B8
:101864001D1B0008143D00204C3C0020183D0020A6
:10187400024A136801331360704700BF0C3D002017
:10188400404B1B682DE9F74F002B3CD13E4B1A68A7
:1018940001321A601D68BDB93C4B1A68126842B126
:1018A4004FF0500383F31188BFF36F8FBFF34F8F53
:1018B400FEE7374A1968106818601160354A1368E2
:1018C40001331360FFF762FE334C01942368334EF7
:1018D400334F9D424FF0000B0BD3DFF8B080DFF89D
:1018E400CC90D8F800201268A2B9019B4FF0FF32C7
:1018F4001A603A68D16A14224A43B258022A28BFAD
:101904004FF0010B34E0274A1368013313604FF0A2
:10191400000B2DE0D8F80020D268D46861688D42AD
:1019240002D2019B1960E4E704F1040A5046FFF770
:10193400D2FBA16A19B104F11800FFF7CCFBE06AED
:10194400D9F80010012303FA00FE4EEA01014FF01A
:10195400140EC9F800100EFB00605146FFF797FB08
:101964003868E16AC26A914228BF4FF0010BB8E7B8
:101974000D4A1268002A18BF4FF0010B584603B0F5
:10198400BDE8F08F0C3D0020183D0020483C0020AD
:101994001C3D0020443C0020143D0020803C0020DD
:1019A400103D00207C3C0020683D0020643D002068
:1019B4002DE9F843304C236843B94FF0500383F3C7
:1019C4001188BFF36F8FBFF34F8FFEE7FFF7E8FB7C
:1019D4002368013B236023680BB1002447E0274BB5
:1019E4001B68002BF9D0264D264EDFF8AC802B68FF
:1019F40003B3EB68DC6804F1040904F11800FFF791
:101A04006AFB4846FFF767FBE26A3368012707FA77
:101A140002F114200B4300FB028049463360FFF7B8
:101A240036FB194BE26A1B68DB6A9A42DFD3174B19
:101A34001F60DAE7164C236863B9144B1C68012C49
:101A4400CBD1144B4FF080521A60BFF34F8FBFF3CA
:101A54006F8F0CE00D4D01262368002BEDD0FFF7AE
:101A64000FFF00B12E602368013B2360F4E7FFF70A
:101A7400B9FB2046BDE8F8830C3D0020603D002002
:101A8400203D0020643D0020103D0020683D0020E2
:101A94007C3C002004ED00E0803C002038B540B9D7
:101AA400184B4FF080521A60BFF34F8FBFF36F8F04
:101AB40038BD154B1B6843B14FF0500383F31188B5
:101AC400BFF36F8FBFF34F8FFEE7FFF7D1FE0F4BCE
:101AD4000F4D1B68C41828680430FFF7FCFA40B99E
:101AE4002B680C49D86A0A680123834022EA03035D
:101AF4000B602046FFF75CFDFFF75AFF0028CFD0AC
:101B040038BD00BF04ED00E00C3D0020183D00206E
:101B1400103D0020643D002080B5184D2E46184F1E
:101B24002B68F3B1FFF7A4FE3C68FFF741FF002CDC
:101B3400F6D0FFF735FB124BDB68DC68201DFFF79E
:101B4400CAFA104A1368013B13603368013B3360DF
:101B5400FFF748FB206BFFF7E1FC2046FFF7DEFCB4
:101B6400DEE7094B1B68012BD9D9084B4FF0805293
:101B74001A60BFF34F8FBFF36F8FD0E7503C002044
:101B8400543C0020603D0020803C002004ED00E037
:101B9400174B1A68174B10B50AB1012225E01A60D9
:101BA400154B1B68B3FA83F3DBB2C3F11F03142292
:101BB40012495A4388188C5844B94FF0500383F3A0
:101BC4001188BFF36F8FBFF34F8FFEE7446808326D
:101BD400646844600A44944204BF62684260142208
:101BE40002FB03135B68DA68054B1A6010BD00BF83
:101BF4000C3D0020683D0020643D0020803C002016
:101C0400103D0020054B1B6833B1054B1B68002BAE
:101C14000CBF022000207047012070474C3C00207C
:101C24000C3D002008B540210348FEF78DFC6420DC
:101C3400FFF70DFAF7E700BF0000024008B52021C6
:101C44000348FEF781FCFA20FFF701FAF7E700BF2B
:101C54000000024070B594B02A4B002100911A6C28
:101C640042F080521A641B6C03F080530093009B73
:101C7400254B01911A6842F440421A601B6803F430
:101C840040430193019B012307934FF4803308934E
:101C94004FF4800302240E930426B42307A80D9462
:101CA4000F961093119412941394FEF78DFD00B1C6
:101CB400FEE7FEF74DFC00B1FEE74FF4A05304909D
:101CC40005930F254FF48053052102A80394029530
:101CD4000693FEF789FC044600B1FEE7FEF738FDE3
:101CE4004FF47A73B0FBF3F0FEF72EFB3046FEF7A9
:101CF40041FB224629464FF0FF30FEF7E5FA14B0C7
:101D040070BD00BF003802400070004070B58EB056
:101D14000024FEF79FFAFFF79DFF494B00941A6BCE
:101D2400484842F004021A631A6B02F0040200925B
:101D3400009A01941A6B42F080021A631A6B02F043
:101D440080020192019A02941A6B42F001021A6312
:101D54001A6B02F001020292029A03941A6B42F087
:101D640002021A631B6B0B9403F002030393039B9D
:101D74004FF40053099309A9334B0A93FEF706FB6A
:101D84000C23099302230A9303230C9309A9072321
:101D94002E480D93E0250B94FEF7F8FA012309A9C8
:101DA4002A480A9309950B940C94FEF7EFFA2246FD
:101DB40029462648264DFEF7C3FB42F227334FF04F
:101DC400804285E80C00284641F28733AC60EB6022
:101DD4002C61FFF7DDF800B1FEE74FF4805309A949
:101DE40028460993FEF70FFF00B1FEE70490059023
:101DF40004A92846FFF7E6F800B1FEE71448FEF709
:101E0400F7FE06460028F9D1124C0FCC04AD0FC5DD
:101E140054F8043B2B60314604A8FFF7FCF80E4B42
:101E240018600FCC09AD0FC523682B60314609A893
:101E3400FFF7F1F8094B1860FFF7E8F8FEE700BF79
:101E44000038024000080240000012100000024066
:101E54007C3D002078200008703D0020743D002067
:101E64000368064A934201D1FEF70EBAB3F1804FDC
:101E740003D180210248FEF767BB70470000014090
:101E84000000024008B50320FEF70CFA00221146B8
:101E94006FF00B00FEF718FA002211466FF00A00EB
:101EA400FEF712FA002211466FF00900FEF70CFA51
:101EB400002211466FF00400FEF706FA00221146D4
:101EC4006FF00300FEF700FA00220F216FF001000B
:101ED400FEF7FAF900220F214FF0FF30BDE8084069
:101EE400FEF7F2B90368B3F1804F07B513D103F5D8
:101EF4000E3300220192196C41F0010119641B6C2C
:101F040003F0010301931C200521019BFEF7DCF97A
:101F14001C20FEF70DFA03B05DF804FB30B5014652
:101F240089B000221920FEF7CFF91920FEF700FA34
:101F34000025154B02955A6C144C42F001025A6468
:101F44005B6C03F00103029301A903A8029BFEF753
:101F54001DFCFEF703FC0E4B236040F2E733E36005
:101F640040000C4BB0FBF3F0013860602046256163
:101F7400A560FFF70DF818B92046FEF739FE00E01A
:101F8400012009B030BD00BF00380240B83D002038
:101F94000000014040420F00FFF761B80148FEF71E
:101FA400F0BE00BFB83D00200148FEF7EABE00BF06
:101FB4007C3D00200F49D1F8883043F47003C1F808
:101FC40088300D4B1A68002042F001021A609860B4
:101FD4001A6822F0847222F480321A60074A5A6026
:101FE4001A6822F480221A60D8604FF000638B6074
:101FF400704700BF00ED00E00038024010300024BC
:1020040070B50E4B0E4CE41AA41000251E46A542D2
:1020140004D056F8253098470135F8E700F01EF84B
:10202400084C094BE41AA41000251E46A54204D00E
:1020340056F8253098470135F8E770BDD0200008E0
:10204400D0200008D4200008D02000080244034611
:10205400934202D003F8011BFAE77047F8B500BFBA
:10206400F8BC08BC9E467047F8B500BFF8BC08BC75
:042074009E467047CD
:10207800C4200008411C0008000000000000000007
:1020880080000000B5200008291C0008000000009E
:1020980000000000800000000000000001020304AE
:1020A800010203040607080949444C4500646566B3
:1020B80061756C745461736B6E65770064656661F5
:0820C800756C745461736B0028
:0420D000E90100081A
:0420D400C50100083A
:0820D800AAAAAAAA0024F40040
:0400000508000205E8
:00000001FF
