:020000040800F2
:10000000005000203D0C0008412E0008432E00083F
:10001000452E0008472E0008492E00080000000069
:100020000000000000000000000000004B2E00084F
:100030004D2E0008000000004F2E0008512E000831
:10004000850C0008850C0008850C0008850C00084C
:10005000850C0008850C0008850C0008850C00083C
:10006000850C0008850C0008850C0008612E00082E
:10007000850C0008850C0008850C0008850C00081C
:10008000850C0008850C00086D2E0008850C000802
:10009000850C0008850C0008850C0008850C0008FC
:1000A000850C0008850C0008850C0008850C0008EC
:1000B000792E0008852E0008850C0008850C0008A4
:1000C000850C0008850C0008850C0008850C0008CC
:1000D000850C0008912E0008850C0008850C00088E
:1000E000850C0008850C0008850C00080000000045
:1000F0000000000000000000000000000000000000
:0C01000000000000000000005FF808F1A3
:1001100010B5054C237833B9044B13B10448AFF341
:1001200000800123237010BD6C000020000000003F
:10013000183E000808B5034B1BB103490348AFF351
:10014000008008BD0000000070000020183E00087C
:1001500081F0004102E000BF83F0004330B54FEA78
:1001600041044FEA430594EA050F08BF90EA020FE5
:100170001FBF54EA000C55EA020C7FEA645C7FEA78
:10018000655C00F0E2804FEA5454D4EB5555B8BF9B
:100190006D420CDD2C4480EA020281EA030382EA0C
:1001A000000083EA010180EA020281EA0303362D9E
:1001B00088BF30BD11F0004F4FEA01314FF4801C71
:1001C0004CEA113102D0404261EB410113F0004F83
:1001D0004FEA03334CEA133302D0524263EB43033A
:1001E00094EA050F00F0A780A4F10104D5F1200ED8
:1001F0000DDB02FA0EFC22FA05F2801841F1000133
:1002000003FA0EF2801843FA05F359410EE0A5F106
:1002100020050EF1200E012A03FA0EFC28BF4CF037
:10022000020C43FA05F3C01851EBE37101F00045ED
:1002300007D54FF0000EDCF1000C7EEB00006EEBFA
:100240000101B1F5801F1BD3B1F5001F0CD3490884
:100250005FEA30004FEA3C0C04F101044FEA4452DB
:1002600012F5800F80F09A80BCF1004F08BF5FEA62
:10027000500C50F1000041EB045141EA050130BD42
:100280005FEA4C0C404141EB010111F4801FA4F1E5
:100290000104E9D191F0000F04BF01460020B1FA3A
:1002A00081F308BF2033A3F10B03B3F120020CDA72
:1002B0000C3208DD02F1140CC2F10C0201FA0CF050
:1002C00021FA02F10CE002F11402D8BFC2F1200CB5
:1002D00001FA02F120FA0CFCDCBF41EA0C0190406B
:1002E000E41AA2BF01EB0451294330BD6FEA0404B4
:1002F0001F3C1CDA0C340EDC04F11404C4F120029F
:1003000020FA04F001FA02F340EA030021FA04F3B0
:1003100045EA030130BDC4F10C04C4F1200220FA07
:1003200002F001FA04F340EA0300294630BD21FA45
:1003300004F0294630BD94F0000F83F4801306BF0B
:1003400081F480110134013D4EE77FEA645C18BFFF
:100350007FEA655C29D094EA050F08BF90EA020F96
:1003600005D054EA000C04BF1946104630BD91EA8E
:10037000030F1EBF0021002030BD5FEA545C05D191
:100380004000494128BF41F0004130BD14F58004D0
:100390003CBF01F5801130BD01F0004545F0FE4144
:1003A00041F470014FF0000030BD7FEA645C1ABF79
:1003B000194610467FEA655C1CBF0B46024650EAB0
:1003C000013406BF52EA033591EA030F41F40021DC
:1003D00030BD00BF90F0000F04BF0021704730B562
:1003E0004FF4806404F132044FF000054FF0000137
:1003F00050E700BF90F0000F04BF0021704730B5F8
:100400004FF4806404F1320410F0004548BF4042CC
:100410004FF000013EE700BF42004FEAE2014FEA21
:1004200031014FEA02701FBF12F07F4393F07F4FFC
:1004300081F06051704792F0000F14BF93F07F4F2E
:10044000704730B54FF4607401F0004521F0004171
:1004500020E700BF50EA010208BF704730B54FF0F7
:1004600000050AE050EA010208BF704730B511F0FC
:10047000004502D5404261EB41014FF4806404F134
:1004800032045FEA915C3FF4DCAE4FF003025FEAB6
:10049000DC0C18BF03325FEADC0C18BF033202EB3E
:1004A000DC02C2F1200300FA03FC20FA02F001FA98
:1004B00003FE40EA0E0021FA02F11444C1E600BF37
:1004C00070B54FF0FF0C4CF4E06C1CEA11541DBFEA
:1004D0001CEA135594EA0C0F95EA0C0F00F0DEF8B5
:1004E0002C4481EA030621EA4C5123EA4C5350EA9A
:1004F000013518BF52EA033541F4801143F48013EB
:1005000038D0A0FB02CE4FF00005E1FB02E506F07B
:100510000042E0FB03E54FF00006E1FB03569CF0D0
:10052000000F18BF4EF0010EA4F1FF04B6F5007FD6
:1005300064F5407404D25FEA4E0E6D4146EB060648
:1005400042EAC62141EA55514FEAC52040EA5E50D1
:100550004FEACE2EB4F1FD0C88BFBCF5E06F1ED87B
:10056000BEF1004F08BF5FEA500E50F1000041EBB2
:10057000045170BD06F0004646EA010140EA02005F
:1005800081EA0301B4EB5C04C2BFD4EB0C0541EA81
:10059000045170BD41F480114FF0000E013C00F396
:1005A000AB8014F1360FDEBF002001F0004170BDBA
:1005B000C4F10004203C35DA0C341BDC04F11404D3
:1005C000C4F1200500FA05F320FA04F001FA05F25F
:1005D00040EA020001F0004221F0004110EBD3702C
:1005E00021FA04F642EB06015EEA430E08BF20EA58
:1005F000D37070BDC4F10C04C4F1200500FA04F3FB
:1006000020FA05F001FA04F240EA020001F000418C
:1006100010EBD37041F100015EEA430E08BF20EAFF
:10062000D37070BDC4F1200500FA05F24EEA020E47
:1006300020FA04F301FA05F243EA020321FA04F076
:1006400001F0004121FA04F220EA020000EBD3702D
:100650005EEA430E08BF20EAD37070BD94F0000F2D
:100660000FD101F00046400041EB010111F4801F61
:1006700008BF013CF7D041EA060195F0000F18BF12
:10068000704703F00046520043EB030313F4801F4E
:1006900008BF013DF7D043EA0603704794EA0C0F08
:1006A0000CEA135518BF95EA0C0F0CD050EA41061E
:1006B00018BF52EA4306D1D181EA030101F000419B
:1006C0004FF0000070BD50EA410606BF10461946C3
:1006D00052EA430619D094EA0C0F02D150EA0136CF
:1006E00013D195EA0C0F05D152EA03361CBF104610
:1006F00019460AD181EA030101F0004141F0FE41AF
:1007000041F470014FF0000070BD41F0FE4141F432
:10071000780170BD70B54FF0FF0C4CF4E06C1CEA32
:1007200011541DBF1CEA135594EA0C0F95EA0C0FE7
:1007300000F0A7F8A4EB050481EA030E52EA0335A2
:100740004FEA013100F088804FEA03334FF08055C3
:1007500045EA131343EA12634FEA022245EA1115F0
:1007600045EA10654FEA00260EF000419D4208BFA1
:10077000964244F1FD0404F5407402D25B084FEA4E
:100780003202B61A65EB03055B084FEA32024FF4FA
:1007900080104FF4002CB6EB020E75EB030E22BF57
:1007A000B61A754640EA0C005B084FEA3202B6EB17
:1007B000020E75EB030E22BFB61A754640EA5C00C6
:1007C0005B084FEA3202B6EB020E75EB030E22BF56
:1007D000B61A754640EA9C005B084FEA3202B6EB57
:1007E000020E75EB030E22BFB61A754640EADC0016
:1007F00055EA060E18D04FEA051545EA16754FEA78
:1008000006164FEAC30343EA52734FEAC2025FEA95
:100810001C1CC0D111F4801F0BD141EA00014FF024
:1008200000004FF0004CB6E711F4801F04BF0143F5
:100830000020B4F1FD0C88BFBCF5E06F3FF6AFAE11
:10084000B5EB030C04BFB6EB020C5FEA500C50F1A1
:10085000000041EB045170BD0EF0004E4EEA113124
:1008600014EB5C04C2BFD4EB0C0541EA045170BD2B
:1008700041F480114FF0000E013C90E645EA060E6F
:100880008DE60CEA135594EA0C0F08BF95EA0C0F9D
:100890003FF43BAF94EA0C0F0AD150EA01347FF4E5
:1008A00034AF95EA0C0F7FF425AF104619462CE7BC
:1008B00095EA0C0F06D152EA03353FF4FDAE10461F
:1008C000194622E750EA410618BF52EA43067FF470
:1008D000C5AE50EA41047FF40DAF52EA43057FF400
:1008E000EBAE12E74FF0FF3C06E000BF4FF0010C0B
:1008F00002E000BF4FF0010C4DF804CD4FEA410C6F
:100900007FEA6C5C4FEA430C18BF7FEA6C5C1BD03B
:1009100001B050EA410C0CBF52EA430C91EA030FBC
:1009200002BF90EA020F0020704710F1000F91EA19
:10093000030F58BF994208BF90422CBFD8176FEAE7
:10094000E37040F0010070474FEA410C7FEA6C5CB5
:1009500002D150EA013C07D14FEA430C7FEA6C5CBC
:10096000D6D152EA033CD3D05DF8040B704700BFE8
:100970008446104662468C461946634600E000BF36
:1009800001B5FFF7B7FF002848BF10F1000F01BD08
:100990004DF808EDFFF7F4FF0CBF012000205DF8D3
:1009A00008FB00BF4DF808EDFFF7EAFF34BF012058
:1009B00000205DF808FB00BF4DF808EDFFF7E0FFF1
:1009C00094BF012000205DF808FB00BF4DF808ED42
:1009D000FFF7CEFF94BF012000205DF808FB00BFA9
:1009E0004DF808EDFFF7C4FF34BF012000205DF88B
:1009F00008FB00BF4FEA410C7FEA6C5C02D150EA71
:100A0000013C0AD14FEA430C7FEA6C5C02D152EA06
:100A1000033C02D14FF0000070474FF001007047D7
:100A200080F0004002E000BF81F0004142001FBFA3
:100A30005FEA410392EA030F7FEA226C7FEA236CAC
:100A40006AD04FEA1262D2EB1363C1BFD2184140A1
:100A500048404140B8BF5B42192B88BF704710F037
:100A6000004F40F4000020F07F4018BF404211F0DA
:100A7000004F41F4000121F07F4118BF494292EA42
:100A8000030F3FD0A2F1010241FA03FC10EB0C006E
:100A9000C3F1200301FA03F100F0004302D54942FB
:100AA00060EB4000B0F5000F13D3B0F1807F06D3A8
:100AB00040084FEA310102F10102FE2A51D2B1F1A0
:100AC000004F40EBC25008BF20F0010040EA030095
:100AD0007047490040EB000010F4000FA2F1010242
:100AE000EDD1B0FA80FCACF1080CB2EB0C0200FACC
:100AF0000CF0AABF00EBC25052421843BCBFD0401A
:100B00001843704792F0000F81F4000106BF80F493
:100B100000000132013BB5E74FEA41037FEA226C56
:100B200018BF7FEA236C21D092EA030F04D092F021
:100B3000000F08BF0846704790EA010F1CBF002055
:100B4000704712F07F4F04D1400028BF40F00040B2
:100B5000704712F100723CBF00F50000704700F0D2
:100B6000004343F0FE4040F4000070477FEA2262F9
:100B700016BF08467FEA23630146420206BF5FEACA
:100B8000412390EA010F40F4800070474FF00003CA
:100B900004E000BF10F0004348BF40425FEA000C91
:100BA00008BF704743F0964301464FF000001CE039
:100BB00050EA010208BF70474FF000030AE000BF8F
:100BC00050EA010208BF704711F0004302D54042CD
:100BD00061EB41015FEA010C02BF8446014600203F
:100BE00043F0B64308BFA3F18053A3F50003BCFA5A
:100BF0008CF2083AA3EBC25310DB01FA02FC634407
:100C000000FA02FCC2F12002BCF1004F20FA02F20D
:100C100043EB020008BF20F00100704702F1200200
:100C200001FA02FCC2F1200250EA4C0021FA02F261
:100C300043EB020008BF20EADC707047002103E0AC
:100C40000B4B5B58435004310A480B4B42189A42F5
:100C5000F6D30A4A02E0002342F8043B084B9A42CA
:100C6000F9D300F011F802F01DFA01F0BDFE704753
:100C7000C03E0008000000206C0000206C00002036
:100C800028020020FEE700000F4B1A6842F0010224
:100C90001A6059680D4A0A405A601A6822F0847234
:100CA00022F480321A601A6822F480221A605A688C
:100CB00022F4FE025A604FF41F029A604FF0006265
:100CC000034B9A60704700BF001002400000FFF81D
:100CD00000ED00E010B5044601F000F94FF47A731E
:100CE000B0FBF3F000F078FB002221464FF0FF301C
:100CF00000F032FB002010BD074A08B5136803203E
:100D000043F01003136000F015FB0020FFF7E2FF33
:100D100001F0A0FF002008BD00200240024A136835
:100D200001331360704700BF88000020014B186832
:100D3000704700BF8800002013B50190FFF7F6FF51
:100D40000446FFF7F3FF019B001B9842F9D302B062
:100D500010BD7047436A10B59A6A12F0500F1BD14C
:100D60009A6A42F400729A621A68926802F46022E7
:100D7000B2F5602F0CD1DA6852B99A6A22F4807207
:100D80009A629A6AD2045EBF9A6A42F001029A623B
:100D90001846FFF7DEFF10BD1B6ABDE810401B6B55
:100DA0001847704708B5406AFFF7FBFF08BD70475A
:100DB000036810B55A680446900627D51A6891074B
:100DC00024D5A26AD2065EBFA26A42F40072A26271
:100DD0009A6802F46022B2F5602F10D1E26872B90D
:100DE0005A6822F020025A60A36A23F48073A36237
:100DF000A36ADB045EBFA36A43F00103A36220463B
:100E0000FFF7A7FF6FF0120223681A6023685A6881
:100E1000100630D51A6851072DD5A26AD2065EBFDA
:100E2000A26A42F40052A2629A6802F4E042B2F569
:100E3000E04F0AD05A68500516D49A6802F460222E
:100E4000B2F5602F10D1E26872B95A6822F08002C0
:100E50005A60A36A23F48053A362A36AD9055EBFD4
:100E6000A36A43F00103A362204600F061FA6FF029
:100E70000C0223681A6023685A6852060DD51B6855
:100E8000DB070AD5A36A204643F48033A362FFF749
:100E90008EFF6FF0010223681A6010BD7047406A30
:100EA00008B5836A43F040038362C36A43F00403D6
:100EB000C362FFF7F3FF08BD0023F7B5019390F875
:100EC0002430012B00F0AF80012380F824304B68E0
:100ED0000468062B0D683FD8666B4FF4787292FA5F
:100EE000A2F7B7FA87F7013B92FAA2F2B2FA82F2BE
:100EF0004FF01F0E5F4353430EFA07F726EA07062B
:100F000005FA03F333436363092D4FF038038F6809
:100F100054D9E66893FAA3FEBEFA8EFEA5F10A0143
:100F200093FAA3F3B3FA83F201FB0EF34FF0070E2B
:100F30004A430EFA03F326EA030307FA02F21A43BE
:100F4000E260A5F11003012B4DD90023002280F8A7
:100F50002420184603B0F0BD0C2B4FF4787216D83D
:100F6000266B92FAA2F7B7FA87F7073B92FAA2F23A
:100F7000B2FA82F24FF01F0E5F435A430EFA07F7A0
:100F800026EA070605FA02F232432263BCE7E66A64
:100F900092FAA2F7B7FA87F70D3B92FAA2F2B2FAE9
:100FA00082F24FF01F0E5F4353430EFA07F726EA13
:100FB000070605FA03F33343E362A5E7266993FACC
:100FC000A3F2B2FA82F293FAA3F3B3FA83F30721FE
:100FD0006A436B4301FA02F226EA020607FA03F3B8
:100FE00033432361ADE7114B9C4216D1A3681B022A
:100FF000ABD4A368102D43F40003A360A5D10C4B20
:101000000C4A1B68B3FBF2F20A2353430193019B82
:10101000002B9AD0019B013BF8E7836A43F0200341
:101020008362012392E7022393E700BF002401407B
:101030000000002040420F00002373B501930368B5
:1010400004469A68D20702D5002002B070BD9A68A3
:1010500042F001029A60124B124A1B68B3FBF2F392
:101060000193019BC3B9FFF761FE064623689D68A3
:1010700015F00105E8D1FFF759FE801B0228F5D9CC
:10108000A36A84F8245043F01003A362E36A0120AA
:1010900043F00103E362D8E7019B013BE0E700BFB7
:1010A0000000002040420F002DE9D8419046404BFF
:1010B000026804469A420F4602D03E498A4203D152
:1010C0005B6813F4702F6ED194F82430012B6CD030
:1010D0000123204684F82430FFF7AEFF064600289F
:1010E0005DD1A06A216820F47060324B20F00100CD
:1010F00040F480709942A06204D12D4A536813F4E1
:10110000702F3ED1A36A23F48013A3624B685A0563
:1011100005D5A36A23F4405343F48053A362A36A22
:10112000206A13F4805318BFE36A3A4618BF23F0CD
:101130000603E362002384F824301F4B4C318362A2
:101140001E4BC3621E4B03636FF0020341F84C3C1D
:1011500051F8443C43F4807341F8443C434600F06A
:1011600087F923689A6802F46022B2F5602F9A68C2
:101170000CBF42F4A00242F480129A603046BDE8EF
:10118000D881A36A43F48013A36253685B0541BF0F
:10119000A06A20F4405040F48050A062BFE70023D2
:1011A00084F82430EAE70126E8E70226E6E700BFF4
:1011B0000024014000280140550D0008A50D00083D
:1011C0009F0E000838B5036804469A68D20701D418
:1011D000002038BD9A6822F001029A60FFF7A6FD50
:1011E000054623689B68DB07F2D5FFF79FFD401B90
:1011F0000228F6D9A36A012043F01003A362E36A30
:1012000043F00103E36238BD70B50446002800F0E6
:101210008580836A23B9C36280F8243001F060FDC1
:101220002046FFF7CFFFA36A13F0100FA36A77D110
:10123000002875D123F4885323F0020343F00203FE
:10124000A362E668022393FAA3F3B3FA83F3626816
:10125000E169A5680A4306FA03F3B5F5807F42EA1F
:10126000030244D0012D14BF01464FF4807163691D
:10127000012B0DD1002E3CD14FF4604393FAA3F320
:10128000B3FA83F6A36941F40061013BB34019430B
:101290002368B5F5807F5E6826F4694641EA060159
:1012A00059609E68204901EA060141EA02019960FD
:1012B00001D0012D26D14FF4700191FAA1F1B1FABC
:1012C00081F521690139A940DD6A25F470052943BA
:1012D000D9629968154B0B409A4215D10023E362FD
:1012E000A36A23F0030343F00103A36270BD294600
:1012F000BDE7A36A43F02003A362E36A43F001035E
:10130000E362C5E70021DFE7A36A23F0120343F09D
:101310001003A362E36A43F00103E362012070BD9E
:1013200043F01003A362F9E7FDF7E1FFFE0E1FFF94
:1013300070470000074A0002D36800F4E06023F41D
:10134000E0631B041B0C43F0BF6343F4003303430F
:10135000D360704700ED00E0174B30B5DC68C4F394
:101360000224C4F10703251D042B28BF0423062DE6
:101370004FF0010598BF002405FA03F303F1FF3392
:1013800088BF033C1940A14005FA04F4013C224007
:10139000002842EA01024FEA0212AFBF00F16040AA
:1013A000064B00F00F00D2B2A5BFD2B200F56140EB
:1013B0001A5480F8002330BD00ED00E014ED00E089
:1013C0000123420900F01F0003FA00F0014B43F82B
:1013D0002200704700E100E00138B0F1807F0AD2BE
:1013E000F021064B064A586082F82310002007229D
:1013F00098601A6070470120704700BF10E000E05D
:1014000000ED00E0044B04281A680CBF42F004020F
:1014100022F004021A60704710E000E0704708B53F
:10142000FFF7FCFF08BD10B500B390F821300BB9F1
:1014300080F820308468436801682343C4680A68E0
:101440002343046922F47F522343446922F030028B
:10145000234384692343C469234313430B6001225C
:10146000002380F821204363184610BD012010BDE1
:1014700030B590F82040012C4FF0020423D0012514
:1014800080F82140046880F82050256825F0010587
:101490002560636043680020102B0BBFA260A16031
:1014A000E160E260236843F002032360236843F0B5
:1014B00004032360236843F008032360236843F098
:1014C0000103236030BD204630BD000070B50268C6
:1014D0005F4D604BAA420446196800F091801C33AE
:1014E0009A4200F08F8014339A4200F08D801433BA
:1014F0009A4200F08C8014339A4200F08B801433AF
:101500009A420CBF4FF400034FF000630B4216D019
:101510001168080713D5116821F0080111604D4AC0
:101520005360636B43F001036363042384F8213049
:10153000002384F82030236B0BB120469847454B9D
:1015400019682368AB4268D0434A934267D014328B
:10155000934266D01432934266D01432934266D0DE
:10156000143293420CBF4FF480024FF080620A4263
:1015700012D0196849070FD519688E065EBF196821
:1015800021F004011960334B5A60112384F8213093
:10159000E36A0BB1204698472E4B19682368AB428B
:1015A00048D02D4A934247D01432934246D0143249
:1015B000934246D01432934246D0143293420CBF29
:1015C0004FF400124FF000720A4240D019688807A9
:1015D0003DD5196889065EBF196821F002011960BE
:1015E0001C4B5A60636B6363012384F82130002332
:1015F00084F82030A36A53B32046BDE870401847F2
:10160000082383E7802381E74FF400637EE74FF4EC
:1016100000437BE74FF4002378E70422A7E740224A
:10162000A5E74FF48062A2E74FF480429FE74FF4B2
:1016300080229CE70222C7E72022C5E74FF4007210
:10164000C2E74FF40052BFE74FF40032BCE770BD71
:1016500008000240000002401C0002402DE9F74F44
:1016600000221646654BDFF8A4E1DFF8A4C14FF075
:1016700001080C6808FA06F808EA0404A0457FD1BE
:101680004D68122D00F0AF8000F28880022D00F02E
:10169000A7807CD8002D00F08E80012D00F09E8068
:1016A0004FF00F09FF2C93BF824606F18045083D9D
:1016B000D0F800B092BFB500D0F804B0AD0009FA80
:1016C00005F82BEA080802FA05F588BF00F1040ABC
:1016D00048EA0505CAF80050D1F804A01AF0805F66
:1016E0004ED0474D464FAD6926F0030845F0010541
:1016F000BD61BD6908F1804805F00105019508F557
:10170000803806F0030B019D4FEA8B0BD8F8085088
:1017100009FA0BF925EA09093A4DA84268D005F5FE
:101720008065A84266D005F58065A84264D005F5BD
:101730008065A8420CBF0325042505FA0BF545EA90
:101740000905C8F808501D681AF4803F14BF2543E6
:10175000A5431D605D681AF4003F14BF2543A543EF
:101760005D609D681AF4801F14BF2543A5439D60EA
:10177000DD681AF4001F14BF2C4325EA0404DC6062
:101780000136102E7FF473AF03B0BDE8F08F032D48
:1017900022D0112D84D1CA68043281E71A4FBD428C
:1017A00009D012D8DFF86C904D4504D009F5803986
:1017B0004D457FF475AF8A68C2B1012A0CBFC0F8ED
:1017C0001080C0F8148008226AE77545F3D065459B
:1017D000F1D0DFF84490EBE7002261E7CA685FE7E9
:1017E000CA6808325CE7CA680C3259E7042257E736
:1017F0000025A2E70125A0E702259EE7000401409D
:1018000000100240000801400000211000003110CB
:101810000000321000001110000022100AB1016116
:1018200070470904FBE7C3685940C1607047000076
:1018300003682DE9F743DE07054634D42B689C077F
:1018400000F1A7802B681A0723D5AA69BE4C012393
:10185000BE49002A00F0158193FAA3F2B2FA82F28F
:1018600041F82230FFF762FA0226074696FAA6F3FD
:1018700096FAA6F3626A96FAA6F3B3FA83F303F034
:101880001F0322FA03F3DB0740F1F4800120FFF786
:1018900053FA2B68590700F11481EA69002A40F0D5
:1018A0009381002020E0A84C636803F00C03042B14
:1018B00007D0636803F00C03082B18D16368D803C2
:1018C00015D54FF4003393FAA3F2226893FAA3F3E9
:1018D000B3FA83F303F01F0322FA03F3D907ADD55C
:1018E0006B68002BAAD1012003B0BDE8F0836B68C0
:1018F000B3F5803F1CD1236843F480332360FFF7A6
:1019000015FA4FF40036074696FAA6F3226896FABF
:10191000A6F3B3FA83F303F01F0322FA03F3DA0703
:101920008CD4FFF703FAC01B6428EDD90320DBE752
:1019300003BB23684FF4003623F48033236023680D
:1019400023F480232360FFF7F1F9074696FAA6F304
:10195000226896FAA6F3B3FA83F303F01F0322FA80
:1019600003F3DB077FF56AAFFFF7E0F9C01B6428DC
:10197000ECD9DBE7B3F5A02F236803D143F4802330
:101980002360B8E723F480332360236823F48023A3
:10199000B4E76D4C636813F00C0F07D0636803F075
:1019A0000C03082B20D16368DF031DD4022393FAB4
:1019B000A3F2226893FAA3F3B3FA83F303F01F03AD
:1019C00022FA03F3DE0702D52B69012B8BD12168A4
:1019D000F82393FAA3F3B3FA83F26B69934021F0EF
:1019E000F802134323602DE72A69012302B393FA17
:1019F000A3F2B2FA82F2920002F1844202F584026A
:101A00001360FFF793F90226074696FAA6F32268B9
:101A100096FAA6F3B3FA83F303F01F0322FA03F353
:101A2000D807D4D4FFF782F9C01B0228EDD97DE78F
:101A300093FAA3F3B3FA83F39B0003F1844303F512
:101A400084031A60FFF772F90226074696FAA6F396
:101A5000226896FAA6F3B3FA83F303F01F0322FA7F
:101A600003F3D9077FF5EEAEFFF760F9C01B02283C
:101A7000ECD95BE7FFF75AF9C01B02287FF6F6AEF8
:101A800054E793FAA3F3B3FA83F341F82320FFF763
:101A90004DF90226074696FAA6F396FAA6F3626A6D
:101AA00096FAA6F3B3FA83F303F01F0322FA03F3C3
:101AB000D8077FF5EEAEFFF739F9C01B0228EAD947
:101AC00034E7214C224EE36943F08053E361E3693C
:101AD00003F080530193019B336843F480733360B8
:101AE000FFF724F907463368DA0526D5EB68012BA2
:101AF00030D1236A43F001032362FFF717F902266E
:101B00008146B04641F2883796FAA6F396FAA6F3D4
:101B1000002B55D0226A98FAA8F3B3FA83F303F0A6
:101B20001F0322FA03F3DB073FF5B7AEFFF7FEF81A
:101B3000A0EB0900B842E7D9F8E6FFF7F7F8C01BB9
:101B40006428D0D9F2E600BF00100240800442426F
:101B50000070004033BB236A022623F00103236296
:101B6000236A374623F004032362FFF7DFF841F2CC
:101B70008839804696FAA6F396FAA6F313B3226A3A
:101B800097FAA7F3B3FA83F303F01F0322FA03F3E0
:101B9000D8077FF582AEFFF7C9F8A0EB08004845EB
:101BA000E8D9C3E6052B236A03D143F0040323627B
:101BB0009FE723F001032362236A23F004039BE7DA
:101BC000626AA8E7626ADBE7444C636803F00C03CF
:101BD000082B3FF488AE022A4FF0807359D193FA54
:101BE000A3F3B3FA83F300229B0003F1844303F5CC
:101BF00084031A60FFF79AF84FF00076074696FACA
:101C0000A6F3226896FAA6F3B3FA83F303F01F0350
:101C100022FA03F3D90736D42B6AB3F5803F05D1F6
:101C20006268A96822F400320A4362606268696AE5
:101C300022F474120B43134363604FF0807393FAE2
:101C4000A3F3B3FA83F301229B0003F1844303F56A
:101C500084031A60FFF76AF84FF00075064695FA9C
:101C6000A5F3226895FAA5F3B3FA83F303F01F03F3
:101C700022FA03F3DA073FF514AEFFF757F8801B9B
:101C80000228ECD952E6FFF751F8C01B0228B6D95A
:101C90004CE693FAA3F3B3FA83F300229B0003F11B
:101CA000844303F584031A60FFF740F84FF0007592
:101CB000064695FAA5F3226895FAA5F3B3FA83F3DD
:101CC00003F01F0322FA03F3DB077FF5EAADFFF70A
:101CD0002DF8801B0228ECD928E600BF0010024036
:101CE00030B5204B87B002AC03F1100522461868CE
:101CF0005968083303C2AB421446F7D101238DF86B
:101D000004300223184C8DF80530616801F00C0393
:101D1000082B24D14FF4701393FAA3F3B3FA83F290
:101D200001F47013D34006AA134413F8100CCB032C
:101D300013D563684FF4003292FAA2F2B2FA82F23B
:101D400003F40033D34006AA134413F8142C074BB2
:101D5000B3FBF2F3584307B030BD054BFAE7034835
:101D6000F9E700BF303E00080010024000127A0080
:101D700000093D00554A2DE9F0411368064603F07D
:101D800007038B420D4630D3326894073AD4D0070C
:101D900040D44E4A136803F007039D42C0F084808C
:101DA00032684B4C12F0040F40F08980130706D5BF
:101DB0006368326923F4605343EAC2036360FFF748
:101DC0008FFF6368F02292FAA2F2B2FA82F203F075
:101DD000F003D3403F4AD35CD8403F4B186000200B
:101DE000FEF778FF0020BDE8F081136823F00703B9
:101DF0000B431360136803F007039942C4D001201A
:101E0000BDE8F0813249B0684B6823F0F00303432A
:101E10004B60BCE772682E4C012A28D14FF4003386
:101E200093FAA3F1216893FAA3F3B3FA83F303F0CF
:101E30001F0321FA03F3D907E1D5636841F288381B
:101E400023F003031A436260FEF770FF73680746CE
:101E5000012B12D1636803F00C03042B99D0FEF719
:101E600065FFC01B4045F5D90320BDE8F081022A7B
:101E70000CBF4FF000730223D2E7022B0FD163682F
:101E800003F00C03082B84D0FEF750FFC01B404525
:101E9000F5D9E9E7FEF74AFFC01B4045E4D863687F
:101EA00013F00C0FF6D174E7136823F007032B43EC
:101EB0001360136803F007039D42A0D170E76368C5
:101EC000F16823F4E0630B4363606FE70020024096
:101ED00000100240403E000800000020014B18683E
:101EE000704700BF00000020084B4FF4E0625B68C1
:101EF00092FAA2F2B2FA82F203F4E063D340044A07
:101F0000D35C044A1068D840704700BF00100240FC
:101F1000503E000800000020084B4FF460525B6800
:101F200092FAA2F2B2FA82F203F46053D340044A66
:101F3000D35C044A1068D840704700BF00100240CC
:101F4000503E00080000002003682DE9F743DC073D
:101F500005461ED53C4C3D4EE36943F08053E3619A
:101F6000E36903F080530193019B336843F480736A
:101F70003360FEF7DBFE07463368D8051FD5236ABA
:101F800013F4407324D1236A6A6823F44073134323
:101F900023622868830706D52B4AA968536823F46F
:101FA00040430B43536010F010000ED0264AE968FE
:101FB0005368002023F480030B43536005E0FEF7D1
:101FC000B5FEC01B6428D7D9032003B0BDE8F08359
:101FD0006A6802F440729342D5D0216A4FF480338C
:101FE00021F4407693FAA3F20127B2FA82F218485C
:101FF00040F8227093FAA3F30022B3FA83F3C907DF
:1020000040F823202662BED5FEF790FE02268046C9
:10201000374641F2883996FAA6F396FAA6F38BB1C1
:10202000226A97FAA7F3B3FA83F303F01F0322FAA5
:1020300003F3DA07A7D4FEF779FEA0EB08004845C2
:10204000E9D9C1E7626AECE7001002400070004085
:102050000004424203680020DA6842F00102DA60BC
:102060001A6842F001021A60704790F8383070B573
:10207000012B4FF002031CD0012280F83930036895
:1020800080F838209A6822F47F4222F077029A6022
:102090000A68402A79D019D8102A00F093800AD80B
:1020A000002A00F08980012380F83930002380F86D
:1020B0003830184670BD202A00F08A80302AF2D1CC
:1020C0009A6822F0700242F0370236E0702A36D069
:1020D0001BD8502A42D0602AE5D11C6A4D6824F0F2
:1020E0001004CE681C6299691A6A21F4704122F0CA
:1020F000A00242EA051241EA063199611A629A6821
:1021000022F0700242F0670217E0B2F5805F11D052
:10211000B2F5005FC7D18A684D689C68C9682A43D8
:1021200024F47F4442EA012222439A609A6842F4EE
:10213000804202E09A6822F007029A60B3E78A6858
:102140004D689C68C9682A4324F47F4442EA01220E
:1021500022439A609A6842F07702EEE74C68CE68B4
:10216000196A1D6A21F00A0125F001051D629A69AC
:10217000214322F0F00242EA06129A6119629A683B
:1021800022F0700242F05702D7E74C68CE68196A15
:102190001D6A21F00A0125F001051D629A6921439B
:1021A00022F0F00242EA06129A6119629A6822F05D
:1021B000700242F04702C0E79A6822F0700242F0D3
:1021C0000702BAE79A6822F0700242F01702B4E7F9
:1021D0009A6822F0700242F02702AEE7704770471B
:1021E00070477047036810B51A69044691070ED509
:1021F000DA6892070BD56FF002021A6101229B691F
:1022000002769B0777D0FFF7EAFF00232376236847
:102210001A69500710D5DA6851070DD56FF004021E
:102220001A6102229B69227613F4407F204668D00F
:10223000FFF7D5FF0023237623681A6912070FD50D
:10224000DA6810070CD56FF008021A610422DB6906
:102250002276990720465AD0FFF7C1FF0023237644
:1022600023681A69D20610D5DA68D0060DD56FF04A
:1022700010021A610822DB69227613F4407F20469F
:102280004BD0FFF7ACFF0023237623681A69D107F0
:1022900008D5DA68D20705D56FF0010220461A6129
:1022A00000F0D2FA23681A69100608D5DA68110618
:1022B00005D56FF0800220461A6100F0A6F8236869
:1022C0001A69520608D5DA68500605D56FF0400243
:1022D00020461A61FFF785FF23681A69910622D507
:1022E000DA6892061FD56FF020022046BDE8104044
:1022F0001A6100F089B8FFF771FF2046FFF770FF01
:1023000083E7FFF76BFF2046FFF76AFF92E7FFF7CF
:1023100065FF2046FFF764FFA0E7FFF75FFF204659
:10232000FFF75EFFAFE710BD184A036890420AD07E
:10233000B0F1804F07D0A2F59432904203D002F55D
:102340008062904215D14A6823F0700313430F4A0C
:1023500090420AD0B0F1804F07D0A2F5943290425B
:1023600003D002F58062904203D1CA6823F440731F
:10237000134303608B68C3620B688362034B98420C
:1023800004BF0B690363012343617047002C0140C4
:1023900010B50446A0B190F8393003F0FF021BB924
:1023A00080F8382000F0E4FC0223206884F83930FB
:1023B000211DFFF7B9FF0123002084F8393010BD3B
:1023C000012010BD90F8383010B5012B4FF00203FA
:1023D00018D080F8393003680C685A68496822F0D0
:1023E00070025A605A6822435A609A6822F080024A
:1023F0009A609A680A439A60012380F83930002372
:1024000080F83830184610BD704770472DE9F04706
:102410000568C2682B69016923F4405313432B619B
:102420008368EA680B43416922F4B05222F00C023F
:102430000B431343EB606B69826923F440731343CE
:102440006B61404B81469D424FF0190446D1FFF726
:1024500063FD04FB00F3D9F804604FF06408B60094
:10246000B3FBF6F3B3FBF8F31E01FFF755FD604332
:10247000D9F804309B00B0FBF3F7FFF74DFD604344
:10248000D9F804309B00B0FBF3F3B3FBF8F308FB7F
:1024900013731B013233B3FBF8F303F0F007FFF7BC
:1024A0003BFD6043D9F804209200B0FBF2FAFFF73D
:1024B00033FD6043D9F804309B00B0FBF3F3B3FB6A
:1024C000F8F308FB13A31B013233B3FBF8F303F05B
:1024D0000F033B433344AB60BDE8F087FFF704FDD7
:1024E00004FB00F3D9F804604FF06408B600B3FBB6
:1024F000F6F3B3FBF8F31E01FFF7F6FC6043D9F8DF
:1025000004309B00B0FBF3F7FFF7EEFC6043D9F813
:1025100004309B00B0FBF3F3B3FBF8F308FB137339
:102520001B013233B3FBF8F303F0F007FFF7DCFCD9
:102530006043D9F804209200B0FBF2FAFFF7D4FC14
:10254000B7E700BF00380140F8B504460E4615460F
:10255000FEF7ECFB07462268136836EA030301D155
:102560000020F8BD6B1CF7D0C5B923680320DA68DA
:1025700022F08002DA60DA6822F02002DA60DA689B
:1025800022F48072DA605A6922F001025A61012352
:1025900084F83930002384F83830F8BDFEF7C6FBE4
:1025A000C01B8542D7D2E0E710B5044630B390F89F
:1025B000393003F0FF021BB980F8382000F00CFC22
:1025C0000223226884F83930D368204623F400536C
:1025D000D360FFF71BFF236800201A6922F49042A2
:1025E0001A615A6922F02A025A61DA6842F40052EA
:1025F000DA600123E06384F8393010BD012010BD9A
:1026000070B50D4690F839100446C9B201291E462E
:1026100001D022294DD1002D49D0002A47D094F86D
:102620003830012B45D0012384F838300023E36390
:1026300094F83930A284222B0CBF32231223E28477
:1026400084F83930E28C8AB9324640212046FFF7BF
:102650007BFFC0B994F83930322B0CBF2223012301
:1026600084F83930002384F8383070BDA368013A0B
:10267000B3F5805FE2844FF08001324620460DD1F1
:10268000FFF762FF08B1032070BD2B882268C3F3F7
:1026900008035360236943B90235D3E7FFF754FFBA
:1026A0000028F0D123682A785A600135CAE7012052
:1026B00070BD022070BD704770477047026813B547
:1026C00011680446C907D36805D5DB0542BFC36B53
:1026D00043F00103C36311685369880703F00103E2
:1026E00004D51BB1E16B41F00401E16311684907B6
:1026F00004D51BB1E16B41F00201E16311680807E9
:1027000004D51BB1E36B43F00803E3631168D3689E
:10271000890633D5980631D594F8393003F0EF03A4
:10272000222B2BD1A3682169B3F5805FA36A76D1F0
:10273000526800296FD1C2F3080223F8022BA3626A
:10274000E38D013B9BB2E385C3B923682046DA6879
:1027500022F02002DA6094F83920322A17BFDA68B2
:10276000122322F48072DA601FBF5A6922F001023C
:102770005A61012384F83930FFF79EFF23681968F6
:10278000DA68090622D5100620D594F8392002F01F
:10279000DF02122A1AD1A268B2F5805F226A4CD1F8
:1027A0001188C1F3080159602169002943D102321F
:1027B0002262E28C013A92B2E2843AB9DA6822F0FB
:1027C0008002DA60DA6842F04002DA601968DA689A
:1027D000490610D552060ED5DA68204622F040028E
:1027E000DA6094F83930322B0CBF2223012384F8AD
:1027F0003930FFF760FFE36B5BB1236820461A684E
:1028000001925B680193019B012384F83930FFF743
:1028100054FF02B010BDD2B223F8012B8FE721B9CB
:10282000591C5268A1621A708AE75268591CA16249
:1028300002F07F02F7E70132BAE7511C21621278F9
:102840005A60B6E700000000036837B5B3F1804F67
:1028500062D14FF480513A48FEF7E5FF394A3A4CCD
:1028600013889BB2238053889BB26380208880B2F8
:10287000FEF78CF901463548FEF7D6F8FDF7CCFD9A
:1028800002460B4600203249FDF744FF24A3D3E95A
:102890000023FDF761FC01F055F823A3D3E90023E1
:1028A000FDF70EFE22A3D3E90023FDF757FC0246F5
:1028B0000B4600202749FDF72DFF1FA3D3E9002376
:1028C000FDF74AFC2588CDE90001ADB22A46224930
:1028D000224800F00BFC4FF47A730E221F49204867
:1028E000FFF78EFE1D4A0021012000F0B4FB628834
:1028F0001C4992B2194800F0F9FB184A0021022045
:1029000000F0A9FB4FF47A730E221449144803B067
:10291000BDE83040FFF774BE03B030BDAFF30080B8
:10292000000000000088C340C2C3B46FEEAF2E3F6A
:1029300090B8DE6EFD7F523F6666666666A27240A4
:10294000000C014018020020F400002000F07F4538
:10295000008883410000F03F583E0008B00100208D
:1029600034010020633E00084FF4803310B594B06A
:1029700001220B930021022412934FF4E0130AA8C2
:102980000A920C910E9211941393FEF751FF00B12D
:10299000FEE70F2305934FF48063079009902146CB
:1029A00005A806940893FFF7E5F900B1FEE74FF498
:1029B000004301A801940393FFF7C6FA044600B14F
:1029C000FEE7FFF78BFA4FF47A73B0FBF3F0FEF7F4
:1029D00003FD0420FEF716FD224621464FF0FF308E
:1029E000FEF7BAFC14B010BD80B58C4C90B0FEF769
:1029F00083F9FFF7B9FFA369002243F01003A36135
:102A0000A3694FF4204103F010030693069BA369CA
:102A1000834843F02003A361A369012503F0200349
:102A20000793079BA369022643F00403A361A369EC
:102A300003F004030893089BA36943F00803A36110
:102A4000A36903F008030993099BFEF7E7FE002240
:102A500041F2F8117348FEF7E1FE4FF420430CA950
:102A60006F480C930D950F96FEF7F8FD41F2F813A1
:102A70000CA96C480C930D950F96FEF7EFFD002204
:102A8000636911462B43636163690B202B400593F7
:102A9000059BFEF761FC0B20FEF792FC4FF4E13E34
:102AA0006148624B0C2280E8084000234261836049
:102AB000C36003618361C361FFF776FD00B1FEE788
:102AC0004FF080434EF65F27594C84E8880040F26F
:102AD000AF43A06020612046E360FFF759FC00B1DE
:102AE000FEE74FF480580CA92046CDF83080FFF760
:102AF000BCFA00B1FEE70A900B900AA92046FFF746
:102B000061FC00B1FEE74B4C4B4BA06084E88800B1
:102B100040F2572320612046E360FFF739FC00B103
:102B2000FEE70CA92046CDF83080FFF79EFA00B1F1
:102B3000FEE70A900B900AA92046FFF743FC00B17C
:102B4000FEE73E4C3E4B606123604FF48073A36010
:102B50004FF46023E361042360602046E560236155
:102B6000FEF752FB00B1FEE707230C900CA92046AC
:102B70000D950E93FEF7A0F900B1FEE70CA92046D3
:102B80000C950D96FEF798F900B1FEE70225032497
:102B90000CA92A480C950D94FEF78EF900B1FEE7BA
:102BA00004230CA925480C940D93FEF785F90446DF
:102BB00000B1FEE7402180224FF4807319488DE870
:102BC0000E0020231022082100F0DCF921461D4AC6
:102BD000012000F040FA21461B4A284600F03BFA4B
:102BE000134C2046FFF736FA0028FAD1114C204644
:102BF000FFF730FA0028FAD1062214490F48FEF7F1
:102C000053FA01224FF480510648FEF707FE0122D5
:102C10004FF400510248FEF701FEFEE700100240AB
:102C200000100140000C0140340100200038014038
:102C3000D8010020B800002000040040040100205A
:102C4000002401406C3E0008753E00081802002078
:102C5000FEE70000204B07B59A69032042F001020D
:102C60009A619B6903F001030193019BFEF762FBEC
:102C700000226FF00B001146FEF76EFB00226FF092
:102C80000A001146FEF768FB00226FF009001146AA
:102C9000FEF762FB00226FF004001146FEF75CFBBA
:102CA00000226FF003001146FEF756FB00226FF082
:102CB00001001146FEF750FB00224FF0FF30114695
:102CC000FEF74AFB054A536823F0E06343F0806354
:102CD000536003B05DF804FB0010024000000140A7
:102CE00030B502681E4B87B09A42054635D103F5D0
:102CF0006C439A691B4842F400729A619B6902A96D
:102D000003F400730193019B0F2302930323164CDA
:102D10000393FEF7A3FC154B20462360002363605A
:102D2000A3608023E3604FF4807323614FF48063DA
:102D300063612023A3614FF40053E361FEF773FB4B
:102D400008B1FFF785FF00222C6212201146656250
:102D5000FEF702FB1220FEF733FB07B030BD00BFC9
:102D600000240140000801407401002008000240D6
:102D7000036807B5B3F1804F15D103F50433DA6961
:102D80001C2042F00102DA610022DB69114603F0E7
:102D900001030093009BFEF7DFFA1C20FEF710FBF7
:102DA00003B05DF804FB0A4A9342F9D1094B1D2098
:102DB000DA6942F00202DA610022DB69114603F0AF
:102DC00002030193019BFEF7C7FA1D20E6E700BF4F
:102DD000000400400010024010B50268164B86B097
:102DE0009A4227D103F558439A6902A942F48042D6
:102DF0009A619B69114803F480430193019B4FF44E
:102E00000073029302230393032300240593FEF728
:102E100025FC4FF4806302A90848029303940494AC
:102E2000FEF71CFC252022462146FEF795FA2520B8
:102E3000FEF7C6FA06B010BD003801400008014098
:102E40007047FEE7FEE7FEE7FEE770477047704712
:102E500008B5FDF763FFBDE80840FEF7E0BA0000E3
:102E60000148FEF733BB00BF740100200148FDF7A5
:102E70009FBF00BF040100200148FFF7B3B900BFA6
:102E8000D80100200148FFF7ADB900BFB80000200D
:102E90000148FFF713BC00BF3401002038B50E4DC8
:102EA0000E4C298801222068FEF7B8FC022000F0B1
:102EB000E5F8298801222068FEF7B0FC022000F026
:102EC000DDF8206829880022FEF7A8FCBDE838401C
:102ED000282000F0D3B800BFA800002098000020F0
:102EE00038B50446144D154B10F0010219882868B6
:102EF00018BF0122FEF792FC114B14F00202198850
:102F0000286818BF0122FEF789FC0E4B14F004025A
:102F10001988286818BF0122FEF780FC0A4B14F0BC
:102F200008021988286818BF0122FEF777FCBDE85F
:102F30003840FFF7B3BF00BF98000020B00000206A
:102F4000A00000209C000020A400002010B50A462C
:102F50000446084B084801B1012201881868FEF7B1
:102F60005DFC2009FFF7BCFF2046BDE81040FFF7DD
:102F7000B7BF00BF98000020AC0000200021FFF781
:102F8000E5BF0000F8B5274F069D3860264F079C27
:102F90003960264F089E3A60254F3B60254F3D60C3
:102FA000254F3C6034432C4323431A43234F1143A2
:102FB00089B200223E60FEF731FC0A2000F067F87B
:102FC0000320FFF78DFF052000F061F80320FFF7D5
:102FD00087FF052000F05BF80320FFF781FF052045
:102FE00000F055F80220FFF77BFF052000F04FF8B6
:102FF0002820FFF7C3FF282000F040F80C20FFF73F
:10300000BDFF282000F03AF80620FFF7B7FF282080
:1030100000F034F80120FFF7B1FFBDE8F8400220CE
:1030200000F035B898000020AC000020A800002077
:10303000B0000020A00000209C000020A400002080
:103040000121FFF783BF08B5FFF7FAFFBDE808408D
:10305000012000F013B8012810B5144608D181F002
:103060008000FFF78BFF013C14F8010F18B910BD69
:103070004039C8B2F5E7FFF7E6FFF5E700B970475A
:103080000A2300BF013BFCD1013880B2F6E70246BB
:1030900008B502B908BD4FF47A70FFF7EFFF013AA7
:1030A00092B2F6E770B500250C4E0D4CA41BA4108F
:1030B000A54209D100F0B0FE00250A4E0A4CA41B1F
:1030C000A410A54205D170BD56F8253098470135AA
:1030D000EEE756F8253098470135F2E7B83E00088C
:1030E000B83E0008B83E0008BC3E00080EB44FF4DD
:1030F000027100B59CB0ADF814106FF0004104915E
:1031000007914FF6FF711DAB02900690084853F8E7
:10311000042BADF81610006802A9019300F066F8C0
:103120000022029B1A701CB05DF804EB03B07047DC
:10313000040000202DE9F0478E6882469E420C462E
:103140009146984635D88A8912F4906F31D002237F
:10315000256809696F1A656905EB450595FBF3F567
:1031600008F101033B449D4238BF1D46530531D54C
:10317000294600F047FB064650B90C23CAF8003038
:10318000A3894FF0FF3043F04003A381BDE8F087EF
:103190003A46216900F0C4FAA38923F4906343F00E
:1031A0008003A38126613E44266046466561ED1B8F
:1031B000A560464528BF464649463246206800F08D
:1031C000BAFAA36800209B1BA36023681E442660F4
:1031D000BDE8F0872A4600F073FB06460028E1D1DF
:1031E0002169504600F0C2FAC7E700002DE9F04F10
:1031F0009DB003938B8980461C060D4616460FD55D
:103200000B696BB9402100F0FDFA2860286128B9EC
:103210000C23C8F800304FF0FF30C4E040236B614E
:103220000023099320238DF8293030234FF0010B20
:103230008DF82A3037463C4614F8013B002B3CD130
:10324000B7EB060A0BD05346324629464046FFF7F5
:1032500071FF013000F0A280099B534409933B7831
:10326000002B00F09B8000234FF0FF320493079364
:10327000059206938DF853301A9305222178504811
:1032800000F040FA671C049BD8B9D90644BF20223D
:103290008DF853201A0744BF2B228DF85320227833
:1032A0002A2A16D000210A20079A27463B780134A3
:1032B000303B092B50D9C9B111E0252BC0D027468E
:1032C000B9E73F4A3C46801A0BFA00F018430490D5
:1032D000D3E7039A111D12680391002A01DB0792BC
:1032E00004E0524243F00203079204933B782E2BF2
:1032F0000DD17B78791C2A2B32D1039B02371A1D02
:103300001B680392002BB8BF4FF0FF3305932D4C81
:1033100003223978204600F0F5F938B14023001B2C
:1033200003FA00F0049B0137034304933978062223
:1033300025487E1C8DF8281000F0E4F9002835D0CF
:10334000224BFBB9039B073323F007030833039396
:10335000099B4B4409936DE700FB02320121A4E76E
:1033600000230A24184605930F463A780131303A73
:10337000092A03D9002BCAD00590C8E704FB002016
:103380000123F1E703AB00932A46114B04A9404601
:10339000AFF30080B0F1FF3F8146D9D1AB895B0626
:1033A0003FF539AF09981DB0BDE8F08F03AB00932E
:1033B0002A46074B04A9404600F084F8EAE700BF1C
:1033C0007E3E0008843E0008883E000800000000A1
:1033D000353100082DE9F04791461F468A680B6990
:1033E00006469342B8BF1346C9F8003091F843200F
:1033F0000C46DDF8208012B10133C9F80030236893
:10340000990642BFD9F800300233C9F80030256868
:1034100015F0060507D104F1190AE368D9F8002070
:103420009B1A9D422ADB94F843302268003318BF70
:10343000012392062FD404F1430239463046C04797
:10344000013022D02368E56803F00603042B18BF7F
:103450000025D9F800204FF0000908BFAD1AA36875
:10346000226908BF25EAE5759342C4BF9B1AED188F
:103470001A344D451BD10020BDE8F0870123524688
:1034800039463046C047013003D14FF0FF30BDE828
:10349000F0870135C1E73020E11881F843005A1C5C
:1034A00094F845102244023382F84310C3E7012305
:1034B000224639463046C0470130E6D009F10109BD
:1034C000D7E700002DE9F04317460A7E85B06E2A43
:1034D000984606460C460C9B01F1430E00F0BC805A
:1034E0001AD8632A2ED00AD8002A00F0C880582A99
:1034F00000F08A8004F1420584F842202AE0642A20
:1035000001D0692AF6D121681A6811F0800F23D002
:10351000111D1960136827E0732A00F0B48008D8E1
:103520006F2A2AD0702AE5D10A6842F020020A6088
:1035300003E0752A21D0782ADCD178226F4984F8FB
:10354000452064E01A6801F14205111D19601368F5
:1035500084F842300123A3E011F0400F02F104018E
:103560001960D7D0B2F90030002B03DA2D225B426C
:1035700084F8432062490A2217E02068196810F095
:10358000800F03D0081D18600B6806E010F0400F94
:1035900001F104001860F7D00B886F2A14BF0A22CB
:1035A00008225749002084F843006568002DA56073
:1035B000C0F29C80206820F004002060002B3FD1E6
:1035C000002D40F095807546082A0BD12368DA0754
:1035D00008D5236962689A42DEBF302305F8013CB2
:1035E00005F1FF35AEEB05032361CDF800803B46C6
:1035F00003AA21463046FFF7EDFE013055D14FF0CA
:10360000FF3005B0BDE8F08381F845203C492268D1
:10361000186812F0800F00F104051D6001D00368E6
:1036200002E05506FBD50388D00744BF42F02002D4
:1036300022601BB9226822F0200222601022B1E72A
:103640007546B3FBF2F002FB1033CB5C05F8013D8D
:1036500003460028F5D1B7E708681A6810F0800F14
:10366000496904D0101D18601368196007E010F054
:10367000400F02F1040018601368F6D0198000238F
:1036800075462361B1E71A68111D1960156800219C
:103690006268284600F036F808B1401B6060636835
:1036A0002361002384F843309FE723692A46394683
:1036B0003046C0470130A2D023689B0707D50025BC
:1036C00004F11909E368039A9B1A9D4205DBE0683F
:1036D000039B9842B8BF184693E701234A463946F0
:1036E0003046C04701308AD00135EBE7002BA7D127
:1036F0000B7804F1420584F8423065E7A03E0008EB
:103700008F3E000810B5C9B202449042034601D171
:10371000002010BD1C7801308C42F6D1184610BD37
:1037200010B5431E0A44914200D110BD11F8014B5F
:1037300003F8014FF7E7884210B501EB020303D805
:10374000421E99420CD110BD9842F9D28118D21A6A
:10375000D34200D110BD13F8014D01F8014DF7E738
:1037600011F8014B02F8014FEBE7000038B50546B0
:10377000002943D051F8043C0C1F002BB8BFE418BB
:1037800000F0D4F81E4A1368104633B96360146021
:103790002846BDE8384000F0CAB8A3420BD92168DA
:1037A0006218934201BF1A685B6852182260636016
:1037B0000460EDE713465A680AB1A242FAD91968C3
:1037C0005818A0420BD12068014458188242196051
:1037D000DED110685268014419605A60D8E702D9F6
:1037E0000C232B60D4E7206821188A4201BF11689E
:1037F00052680918216062605C60C9E738BD00BF8B
:103800008C00002070B5CD1C25F0030508350C2D6B
:1038100038BF0C25002D064601DBA94203D90C2335
:103820003360002070BD00F081F8234A14682146FF
:1038300091B9224C23681BB9304600F067F820602C
:103840002946304600F062F8431C26D10C2330464E
:10385000336000F06CF8E4E70B685B1B1AD40B2BA9
:103860000FD90B60CC18CD50304600F060F804F151
:103870000B00231D20F00700C31A1BD05A42E25050
:1038800070BD8C420BBF63684B681360636018BFE8
:103890000C46E9E70C464968CAE7C41C24F0030457
:1038A000A04205D0211A304600F030F80130CDD0CA
:1038B0002560D9E770BD00BF8C000020900000207B
:1038C000F8B5074614460E4621B91146BDE8F84042
:1038D000FFF798BF22B9FFF749FF25462846F8BDF4
:1038E00000F026F884420FD921463846FFF78AFFB8
:1038F00005460028F2D031462246FFF711FF314637
:103900003846FFF733FFE9E73546E7E738B50023E8
:10391000054C05460846236000F070FA431C02D1AE
:10392000236803B12B6038BD240200207047704724
:1039300051F8040C0028A0F10400BCBF0B58C018BB
:10394000704700002DE970438AB004460D4600F030
:1039500073F8344B804693F900608946731C5BD042
:1039600022462B4620462946FDF744F8002853D12D
:103970000022002320462946FDF732F800284BD1CB
:10398000294B08900193CDE90245CDE90445A6B93C
:103990004FF06042254B2046CDE906232946002200
:1039A0000023FCF7F5FF40BB0123022E009319D141
:1039B00000F01EFA2123036019E000221C4B204670
:1039C000CDE90623294600220023FCF7E1FF002869
:1039D000EAD002239E42009311D100F009FA22237B
:1039E000036011E0684600F0FBF90028E0D01148C0
:1039F00000F0F8F9CDE9060106E0022300936846DD
:103A000000F0EEF90028E8D0089B1BB100F0F0F9B7
:103A1000089B0360DDE90689404649460AB0BDE8D7
:103A2000708300BF68000020B13E0008FFFFEFC7B1
:103A30000000F0FF6B3E00082DE9F04FB1F5801F4C
:103A400087B002460B4604460D4624DA21F00046B4
:103A5000344308D1002200230020C949FCF75AFE54
:103A600007B0BDE8F08F002904DAFCF775FB0022EF
:103A70000023F3E70022C34BFCF722FD6FF035066D
:103A800002460B460D46C0498D4206DD10461946DA
:103A9000FCF764FBE4E70026F5E72C15C5F31305F6
:103AA00005F51521A4F2FF3401F66471264401F4F2
:103AB000801484F07F5181F4401141EA05031046DF
:103AC00019460022B14BFCF747FBAB1CC3F31303B1
:103AD000022B06EB145482468B464FF000025BDC4F
:103AE0000023FCF755FFD0B1002C00F06E8120467A
:103AF000FCF780FC8EA3D3E9002306460F46FCF7B3
:103B0000DFFC8DA3D3E9002304460D463046394639
:103B1000FCF7D6FC02460B4620462946B8E788A3A8
:103B2000D3E9002350465946FCF7CAFC02460B462F
:103B300000209749FCF710FB524606460F465B46AD
:103B400050465946FCF7BCFC02460B463046394607
:103B5000FCF7B6FC06460F4634B902460B46504603
:103B60005946FCF7F9FA7BE72046FCF743FC70A3C3
:103B7000D3E9002380468946FCF7A2FC6EA3D3E973
:103B8000002304460D4640464946FCF799FC024690
:103B90000B4630463946B2E04FF08043FCF7DEFA80
:103BA00002460B4650465946FCF7B4FDCDE90001EC
:103BB0002046FCF71FFCDDE90023CDE90201104699
:103BC0001946FCF77DFC02460B46CDE90401FCF7E3
:103BD00077FC5DA3D3E9002306460F46FCF770FC93
:103BE0005BA3D3E90023FCF7B9FA32463B46FCF766
:103BF00067FC59A3D3E90023FCF7B0FA32463B46F1
:103C0000FCF75EFC56A3D3E90023FCF7A7FADDE935
:103C10000423FCF755FC54A3D3E90023CDE90401A8
:103C200030463946FCF74CFC51A3D3E90023FCF79E
:103C300095FA32463B46FCF743FC4FA3D3E90023F9
:103C4000FCF78CFA32463B46FCF73AFC02460B4640
:103C5000DDE90401FCF782FAA5F5C228C5F5D725F0
:103C6000A8F27A48513545EA0805002D06460F4668
:103C700050DD0022464B50465946FCF721FC524687
:103C80005B46FCF71DFC8046894694B902460B460C
:103C900030463946FCF762FADDE90023FCF710FCF8
:103CA00002460B4640464946FCF756FA02460B468A
:103CB00055E71FA3D3E90023DDE90201FCF700FC6F
:103CC00042464B4604460D4630463946FCF746FA16
:103CD000DDE90023FCF7F4FB17A3D3E90023064634
:103CE0000F46DDE90201FCF7EBFB02460B463046CE
:103CF0003946FCF733FA02460B4640464946FCF784
:103D00002BFA52465B46FCF727FA02460B46204642
:103D1000294626E7002C3DD102460B46504659461F
:103D2000FCF71AFADDE90023FCF7CAFBBEE700BF87
:103D30000000E0FE422EE63F763C7935EF39EA3D61
:103D4000555555555555D53F44523EDF12F1C23FAA
:103D5000DE03CB966446C73F599322942449D23F51
:103D6000935555555555E53F9FC678D0099AC33FA1
:103D7000AF788E1DC571CC3F04FA97999999D93FB8
:103D8000000050C300005043FFFFEF7F0000F03FF2
:103D90000000E03F0EA3D3E90023DDE90201FCF7B8
:103DA0008FFB32463B4604460D4650465946FCF7CB
:103DB000D3F9DDE90023FCF783FB07A3D3E9002354
:103DC00006460F46DDE90201DFE60020002147E656
:103DD0000000E0FE422EE63F763C7935EF39EA3DC1
:103DE0000020704700200149704700BF0000F87FA5
:103DF000014B1868704700BF04000020044B0246C6
:103E0000196809B903491960186802441A607047B3
:103E10009400002028020020F8B500BFF8BC08BCC0
:103E20009E467047F8B500BFF8BC08BC9E46704778
:103E300002030405060708090A0B0C0D0E0F1010EB
:103E4000000000000000000001020304060708094A
:103E500000000000010203045B25367525362E3272
:103E6000665D005B253130755D0D0A0031323334FB
:103E700035363738006173646667686A6B00232DD6
:103E8000302B2000686C4C00656667454647003063
:103E900031323334353637383941424344454600B0
:103EA00030313233343536373839616263646566B0
:083EB000006C6F6700000000C8
:043EB80035010008C8
:043EBC0011010008E8
:103EC00000A24A04080000200000000000000000DA
:103ED00000000000000000000000000000000000E2
:103EE00000000000000000000000000000000000D2
:103EF00000000000000000000000000000000000C2
:103F000000000000000000000000000000000000B1
:103F100000000000000000000000000000000000A1
:0C3F200000000000000000000100000094
:0400000508000C3DA6
:00000001FF
