:020000040800F2
:1000000000500020BD0F00087D3200087F3200083C
:1000100081320008833200088532000800000000A9
:10002000000000000000000000000000873200080F
:1000300089320008000000008B3200088D32000871
:10004000051000080510000805100008051000083C
:10005000051000080510000805100008051000082C
:100060000510000805100008051000089D32000862
:10007000051000080510000805100008051000080C
:100080000510000805100008A93200080510000836
:1000900005100008051000080510000805100008EC
:1000A00005100008051000080510000805100008DC
:1000B000B5320008C132000805100008051000081C
:1000C00005100008051000080510000805100008BC
:1000D00005100008CD3200080510000805100008C2
:1000E00005100008051000080510000800000000B9
:1000F0000000000000000000000000000000000000
:0C01000000000000000000005FF808F1A3
:1001100010B5054C237833B9044B13B10448AFF341
:1001200000800123237010BD440500200000000062
:100130007867000808B5034B1BB103490348AFF3C8
:10014000008008BD00000000480500207867000816
:10015000034613F8012B002AFBD1181A0138704707
:1001600081F0004102E000BF83F0004330B54FEA68
:1001700041044FEA430594EA050F08BF90EA020FD5
:100180001FBF54EA000C55EA020C7FEA645C7FEA68
:10019000655C00F0E2804FEA5454D4EB5555B8BF8B
:1001A0006D420CDD2C4480EA020281EA030382EAFC
:1001B000000083EA010180EA020281EA0303362D8E
:1001C00088BF30BD11F0004F4FEA01314FF4801C61
:1001D0004CEA113102D0404261EB410113F0004F73
:1001E0004FEA03334CEA133302D0524263EB43032A
:1001F00094EA050F00F0A780A4F10104D5F1200EC8
:100200000DDB02FA0EFC22FA05F2801841F1000122
:1002100003FA0EF2801843FA05F359410EE0A5F1F6
:1002200020050EF1200E012A03FA0EFC28BF4CF027
:10023000020C43FA05F3C01851EBE37101F00045DD
:1002400007D54FF0000EDCF1000C7EEB00006EEBEA
:100250000101B1F5801F1BD3B1F5001F0CD3490874
:100260005FEA30004FEA3C0C04F101044FEA4452CB
:1002700012F5800F80F09A80BCF1004F08BF5FEA52
:10028000500C50F1000041EB045141EA050130BD32
:100290005FEA4C0C404141EB010111F4801FA4F1D5
:1002A0000104E9D191F0000F04BF01460020B1FA2A
:1002B00081F308BF2033A3F10B03B3F120020CDA62
:1002C0000C3208DD02F1140CC2F10C0201FA0CF040
:1002D00021FA02F10CE002F11402D8BFC2F1200CA5
:1002E00001FA02F120FA0CFCDCBF41EA0C0190405B
:1002F000E41AA2BF01EB0451294330BD6FEA0404A4
:100300001F3C1CDA0C340EDC04F11404C4F120028E
:1003100020FA04F001FA02F340EA030021FA04F3A0
:1003200045EA030130BDC4F10C04C4F1200220FAF7
:1003300002F001FA04F340EA0300294630BD21FA35
:1003400004F0294630BD94F0000F83F4801306BFFB
:1003500081F480110134013D4EE77FEA645C18BFEF
:100360007FEA655C29D094EA050F08BF90EA020F86
:1003700005D054EA000C04BF1946104630BD91EA7E
:10038000030F1EBF0021002030BD5FEA545C05D181
:100390004000494128BF41F0004130BD14F58004C0
:1003A0003CBF01F5801130BD01F0004545F0FE4134
:1003B00041F470014FF0000030BD7FEA645C1ABF69
:1003C000194610467FEA655C1CBF0B46024650EAA0
:1003D000013406BF52EA033591EA030F41F40021CC
:1003E00030BD00BF90F0000F04BF0021704730B552
:1003F0004FF4806404F132044FF000054FF0000127
:1004000050E700BF90F0000F04BF0021704730B5E7
:100410004FF4806404F1320410F0004548BF4042BC
:100420004FF000013EE700BF42004FEAE2014FEA11
:1004300031014FEA02701FBF12F07F4393F07F4FEC
:1004400081F06051704792F0000F14BF93F07F4F1E
:10045000704730B54FF4607401F0004521F0004161
:1004600020E700BF50EA010208BF704730B54FF0E7
:1004700000050AE050EA010208BF704730B511F0EC
:10048000004502D5404261EB41014FF4806404F124
:1004900032045FEA915C3FF4DCAE4FF003025FEAA6
:1004A000DC0C18BF03325FEADC0C18BF033202EB2E
:1004B000DC02C2F1200300FA03FC20FA02F001FA88
:1004C00003FE40EA0E0021FA02F11444C1E600BF27
:1004D00070B54FF0FF0C4CF4E06C1CEA11541DBFDA
:1004E0001CEA135594EA0C0F95EA0C0F00F0DEF8A5
:1004F0002C4481EA030621EA4C5123EA4C5350EA8A
:10050000013518BF52EA033541F4801143F48013DA
:1005100038D0A0FB02CE4FF00005E1FB02E506F06B
:100520000042E0FB03E54FF00006E1FB03569CF0C0
:10053000000F18BF4EF0010EA4F1FF04B6F5007FC6
:1005400064F5407404D25FEA4E0E6D4146EB060638
:1005500042EAC62141EA55514FEAC52040EA5E50C1
:100560004FEACE2EB4F1FD0C88BFBCF5E06F1ED86B
:10057000BEF1004F08BF5FEA500E50F1000041EBA2
:10058000045170BD06F0004646EA010140EA02004F
:1005900081EA0301B4EB5C04C2BFD4EB0C0541EA71
:1005A000045170BD41F480114FF0000E013C00F386
:1005B000AB8014F1360FDEBF002001F0004170BDAA
:1005C000C4F10004203C35DA0C341BDC04F11404C3
:1005D000C4F1200500FA05F320FA04F001FA05F24F
:1005E00040EA020001F0004221F0004110EBD3701C
:1005F00021FA04F642EB06015EEA430E08BF20EA48
:10060000D37070BDC4F10C04C4F1200500FA04F3EA
:1006100020FA05F001FA04F240EA020001F000417C
:1006200010EBD37041F100015EEA430E08BF20EAEF
:10063000D37070BDC4F1200500FA05F24EEA020E37
:1006400020FA04F301FA05F243EA020321FA04F066
:1006500001F0004121FA04F220EA020000EBD3701D
:100660005EEA430E08BF20EAD37070BD94F0000F1D
:100670000FD101F00046400041EB010111F4801F51
:1006800008BF013CF7D041EA060195F0000F18BF02
:10069000704703F00046520043EB030313F4801F3E
:1006A00008BF013DF7D043EA0603704794EA0C0FF8
:1006B0000CEA135518BF95EA0C0F0CD050EA41060E
:1006C00018BF52EA4306D1D181EA030101F000418B
:1006D0004FF0000070BD50EA410606BF10461946B3
:1006E00052EA430619D094EA0C0F02D150EA0136BF
:1006F00013D195EA0C0F05D152EA03361CBF104600
:1007000019460AD181EA030101F0004141F0FE419E
:1007100041F470014FF0000070BD41F0FE4141F422
:10072000780170BD70B54FF0FF0C4CF4E06C1CEA22
:1007300011541DBF1CEA135594EA0C0F95EA0C0FD7
:1007400000F0A7F8A4EB050481EA030E52EA033592
:100750004FEA013100F088804FEA03334FF08055B3
:1007600045EA131343EA12634FEA022245EA1115E0
:1007700045EA10654FEA00260EF000419D4208BF91
:10078000964244F1FD0404F5407402D25B084FEA3E
:100790003202B61A65EB03055B084FEA32024FF4EA
:1007A00080104FF4002CB6EB020E75EB030E22BF47
:1007B000B61A754640EA0C005B084FEA3202B6EB07
:1007C000020E75EB030E22BFB61A754640EA5C00B6
:1007D0005B084FEA3202B6EB020E75EB030E22BF46
:1007E000B61A754640EA9C005B084FEA3202B6EB47
:1007F000020E75EB030E22BFB61A754640EADC0006
:1008000055EA060E18D04FEA051545EA16754FEA67
:1008100006164FEAC30343EA52734FEAC2025FEA85
:100820001C1CC0D111F4801F0BD141EA00014FF014
:1008300000004FF0004CB6E711F4801F04BF0143E5
:100840000020B4F1FD0C88BFBCF5E06F3FF6AFAE01
:10085000B5EB030C04BFB6EB020C5FEA500C50F191
:10086000000041EB045170BD0EF0004E4EEA113114
:1008700014EB5C04C2BFD4EB0C0541EA045170BD1B
:1008800041F480114FF0000E013C90E645EA060E5F
:100890008DE60CEA135594EA0C0F08BF95EA0C0F8D
:1008A0003FF43BAF94EA0C0F0AD150EA01347FF4D5
:1008B00034AF95EA0C0F7FF425AF104619462CE7AC
:1008C00095EA0C0F06D152EA03353FF4FDAE10460F
:1008D000194622E750EA410618BF52EA43067FF460
:1008E000C5AE50EA41047FF40DAF52EA43057FF4F0
:1008F000EBAE12E74FF0FF3C06E000BF4FF0010CFB
:1009000002E000BF4FF0010C4DF804CD4FEA410C5E
:100910007FEA6C5C4FEA430C18BF7FEA6C5C1BD02B
:1009200001B050EA410C0CBF52EA430C91EA030FAC
:1009300002BF90EA020F0020704710F1000F91EA09
:10094000030F58BF994208BF90422CBFD8176FEAD7
:10095000E37040F0010070474FEA410C7FEA6C5CA5
:1009600002D150EA013C07D14FEA430C7FEA6C5CAC
:10097000D6D152EA033CD3D05DF8040B704700BFD8
:100980008446104662468C461946634600E000BF26
:1009900001B5FFF7B7FF002848BF10F1000F01BDF8
:1009A0004DF808EDFFF7F4FF0CBF012000205DF8C3
:1009B00008FB00BF4DF808EDFFF7EAFF34BF012048
:1009C00000205DF808FB00BF4DF808EDFFF7E0FFE1
:1009D00094BF012000205DF808FB00BF4DF808ED32
:1009E000FFF7CEFF94BF012000205DF808FB00BF99
:1009F0004DF808EDFFF7C4FF34BF012000205DF87B
:100A000008FB00BF4FEA410C7FEA6C5C02D150EA60
:100A1000013C0AD14FEA430C7FEA6C5C02D152EAF6
:100A2000033C02D14FF0000070474FF001007047C7
:100A30004FEA410212F5001215D211D56FF4787306
:100A4000B3EB625212D94FEAC12343F0004343EAA9
:100A5000505311F0004F23FA02F018BF4042704784
:100A60004FF00000704750EA013005D111F000400E
:100A700008BF6FF0004070474FF00000704700BFA4
:100A800080F0004002E000BF81F0004142001FBF43
:100A90005FEA410392EA030F7FEA226C7FEA236C4C
:100AA0006AD04FEA1262D2EB1363C1BFD218414041
:100AB00048404140B8BF5B42192B88BF704710F0D7
:100AC000004F40F4000020F07F4018BF404211F07A
:100AD000004F41F4000121F07F4118BF494292EAE2
:100AE000030F3FD0A2F1010241FA03FC10EB0C000E
:100AF000C3F1200301FA03F100F0004302D549429B
:100B000060EB4000B0F5000F13D3B0F1807F06D347
:100B100040084FEA310102F10102FE2A51D2B1F13F
:100B2000004F40EBC25008BF20F0010040EA030034
:100B30007047490040EB000010F4000FA2F10102E1
:100B4000EDD1B0FA80FCACF1080CB2EB0C0200FA6B
:100B50000CF0AABF00EBC25052421843BCBFD040B9
:100B60001843704792F0000F81F4000106BF80F433
:100B700000000132013BB5E74FEA41037FEA226CF6
:100B800018BF7FEA236C21D092EA030F04D092F0C1
:100B9000000F08BF0846704790EA010F1CBF0020F5
:100BA000704712F07F4F04D1400028BF40F0004052
:100BB000704712F100723CBF00F50000704700F072
:100BC000004343F0FE4040F4000070477FEA226299
:100BD00016BF08467FEA23630146420206BF5FEA6A
:100BE000412390EA010F40F4800070474FF000036A
:100BF00004E000BF10F0004348BF40425FEA000C31
:100C000008BF704743F0964301464FF000001CE0D8
:100C100050EA010208BF70474FF000030AE000BF2E
:100C200050EA010208BF704711F0004302D540426C
:100C300061EB41015FEA010C02BF844601460020DE
:100C400043F0B64308BFA3F18053A3F50003BCFAF9
:100C50008CF2083AA3EBC25310DB01FA02FC6344A6
:100C600000FA02FCC2F12002BCF1004F20FA02F2AD
:100C700043EB020008BF20F00100704702F12002A0
:100C800001FA02FCC2F1200250EA4C0021FA02F201
:100C900043EB020008BF20EADC70704753B94AB941
:100CA000002908BF00281CBF4FF0FF314FF0FF3074
:100CB00000F082B9ADF1080C6DE904CE00F006F841
:100CC000DDF804E0DDE9022304B070472DE9F04FC0
:100CD0008C460C460546099E002B4FD18A4217468A
:100CE0006BD9B2FA82FEBEF1000F0BD0CEF1200517
:100CF00020FA05F501FA0EF345EA030C02FA0EF7A5
:100D000000FA0EF5390CBCFBF1F0BAB201FB10C3CE
:100D100000FB02F84FEA154C4CEA0344A04509D900
:100D2000E41900F1FF3380F02881A04540F22581CD
:100D300002383C44C8EB0404B4FBF1F301FB134C50
:100D400003FB02F2ACB244EA0C418A4209D9C91948
:100D500003F1FF3480F00F818A4240F20C81023BA4
:100D600039448A1A43EA00400021002E63D022FA57
:100D70000EF2002386E80C00BDE8F08F8B4207D905
:100D8000002E56D0002186E811000846BDE8F08FFD
:100D9000B3FA83F1002940F09380A34202D3824248
:100DA00000F2FE80851A64EB03039C460120002EAE
:100DB00041D086E82010BDE8F08F12B90127B7FBBB
:100DC000F2F7B7FA87FEBEF1000F36D1E41B4FEA07
:100DD00017481FFA87F90121B4FBF8F308FB134405
:100DE00009FB03F24FEA154C4CEA0444A24207D92E
:100DF000E41903F1FF3002D2A24200F2D38003468D
:100E0000A41AB4FBF8F008FB104809FB00F9ACB2D7
:100E100044EA0842914507D9D21900F1FF3402D2C1
:100E2000914500F2BA802046C9EB020240EA034035
:100E30009BE731463046BDE8F08F07FA0EF7CEF15A
:100E4000200C24FA0CF34FEA1748B3FBF8FA1FFA08
:100E500087F908FB1A3520FA0CFC04FA0EF40AFB99
:100E600009FB4CEA040C4FEA1C4242EA05439B454D
:100E700000FA0EF50AD9DB190AF1FF3280F08B80F7
:100E80009B4540F28880AAF1020A3B44CBEB030366
:100E9000B3FBF8F008FB103300FB09F41FFA8CFCDD
:100EA0004CEA03439C4207D9DB1900F1FF326ED2B2
:100EB0009C426CD902383B441C1B40EA0A418BE738
:100EC000C1F1200E8B4022FA0EFC4CEA030C24FAEE
:100ED0000EF74FEA1C49B7FBF9FA1FFA8CF309FB2E
:100EE0001A7720FA0EF88C400AFB03F548EA04044E
:100EF0004FEA144848EA0747BD4202FA01F200FAF5
:100F000001FB09D917EB0C070AF1FF3041D2BD42B2
:100F10003FD9AAF1020A67447F1BB7FBF9F509FB29
:100F2000157705FB03F3A4B244EA0747BB4208D98F
:100F300017EB0C0705F1FF3027D2BB4225D9023D44
:100F4000674445EA0A40A0FB0289FF1A4F4545461F
:100F50004C4614D329D066B3BBEB050367EB0407FB
:100F600007FA0EFECB40CF404EEA030386E8880026
:100F70000021BDE8F08F2346F3E61846DAE6B8EB29
:100F8000020569EB0C040138E5E70546D9E7104690
:100F900092E78246C0E7924678E702383A4443E750
:100FA000084604E7023B3C442AE7C345E7D33C46F6
:100FB000D1E73146BDE8F08F704700BF002103E064
:100FC0000B4B5B58435004310A480B4B42189A4272
:100FD000F6D30A4A02E0002342F8043B084B9A4247
:100FE000F9D300F011F802F083FA01F01DFF704709
:100FF000606900080000002044050020440500202E
:101000002C070020FEE700000F4B1A6842F0010297
:101010001A6059680D4A0A405A601A6822F08472B0
:1010200022F480321A601A6822F480221A605A6808
:1010300022F4FE025A604FF41F029A60044B4FF0F4
:1010400000629A60704700BF001002400000FFF885
:1010500000ED00E010B5044601F05EF94FF47A733C
:10106000B0FBF3F000F07AFB002221464FF0FF3096
:1010700000F034FB002010BD074A08B513680320B8
:1010800043F01003136000F017FB0020FFF7E2FFAE
:1010900001F0FEFF002008BD00200240024A136854
:1010A00001331360704700BF60050020014B1868D2
:1010B000704700BF6005002013B50190FFF7F6FFF1
:1010C0000446FFF7F3FF019B001B9842F9D302B0DF
:1010D00010BD7047436A10B59A6A12F0500F1BD1C9
:1010E0009A6A42F400729A621A68926802F4602264
:1010F000B2F5602F0CD1DA6852B99A6A22F4807284
:101100009A629A6AD2045EBF9A6A42F001029A62B7
:101110001846FFF7DEFF10BD1B6ABDE810401B6BD1
:101120001847704708B5406AFFF7FBFF08BD7047D6
:10113000036810B55A680446900627D51A689107C7
:1011400024D5A26AD2065EBFA26A42F40072A262ED
:101150009A6802F46022B2F5602F10D1E26872B989
:101160005A6822F020025A60A36A23F48073A362B3
:10117000A36ADB045EBFA36A43F00103A3622046B7
:10118000FFF7A7FF23686FF012021A6023685A68FE
:10119000100630D51A6851072DD5A26AD2065EBF57
:1011A000A26A42F40052A2629A6802F4E042B2F5E6
:1011B000E04F0AD05A68500516D49A6802F46022AB
:1011C000B2F5602F10D1E26872B95A6822F080023D
:1011D0005A60A36A23F48053A362A36AD9055EBF51
:1011E000A36A43F00103A362204600F063FA236878
:1011F0006FF00C021A6023685A6852060DD51B68FE
:10120000DB070AD5A36A204643F48033A362FFF7C5
:101210008EFF23686FF001021A6010BD7047406AAC
:1012200008B5836A43F040038362C36A43F0040352
:10123000C362FFF7F3FF08BDF7B50023019390F8F1
:101240002430012B00F0AE80012380F824304B685D
:101250000468062B0D6818D8676B4FF4787292FA01
:10126000A2F6B6FA86F6013B92FAA2F2B2FA82F23E
:101270005E4353434FF01F0E0EFA06F627EA0606AA
:1012800005FA03F33343636330E00C2B4FF47872B9
:1012900016D8276B92FAA2F6B6FA86F6073B92FAB0
:1012A000A2F2B2FA82F25E435A434FF01F0E0EFAD8
:1012B00006F627EA060605FA02F23243226315E033
:1012C000E76A92FAA2F6B6FA86F60D3B92FAA2F215
:1012D000B2FA82F25E4353434FF01F0E0EFA06F647
:1012E00027EA060605FA03F33343E362092D4FF0BC
:1012F00038038E6818D9D4F80CE093FAA3F7B7FA3C
:1013000087F7A5F10A0193FAA3F3B3FA83F201FB7D
:1013100007F35143072707FA03F32EEA030306FAFC
:1013200001F21A43E26013E0276993FAA3F1B1FADC
:1013300081F193FAA3F3B3FA83F369436B43072272
:1013400002FA01F127EA010106FA03F20A432261D7
:10135000A5F11003012B01D900231EE0134B9C4281
:1013600016D1A3681B02F7D4A368102D43F4000321
:10137000A360F1D10E4B0F4A1B68B3FBF2F20A23B4
:1013800053430193019B002BE6D0019B013BF8E7FF
:10139000836A43F0200383620123002280F8242023
:1013A000184600E0022003B0F0BD00BF0024014059
:1013B0000000002040420F0073B500230193036832
:1013C00004469A68D20701D5002026E09A6842F0C8
:1013D00001029A60124B134A1B68B3FBF2F30193AC
:1013E000019B13B1019B013BF9E7FFF75FFE064646
:1013F00023689B6813F00105E6D1FFF757FE801BB9
:101400000228F5D9A36A84F8245043F01003A3629C
:10141000E36A012043F00103E36202B070BD00BF44
:101420000000002040420F002DE9B8419046414B9A
:10143000026804469A420F4602D03F498A4203D1CD
:101440005B6813F4702F6FD194F82430012B6ED0A9
:10145000012384F824302046FFF7AEFF00285ED138
:10146000A06A216820F47060334B20F0010040F442
:1014700080709942A06204D12E4A536813F4702FF1
:101480000DD1A36A23F48013A3624B685A0513D5C8
:10149000A36A23F4405343F48053A3620CE0A36A8D
:1014A00043F48013A36253685B0541BFA06A20F434
:1014B000405040F48050A062A36A206A13F4805325
:1014C00018BFE36A4FF0000518BF23F00603E3627C
:1014D0001A4B84F824508362194B3A46C362194B65
:1014E0004C3103636FF0020341F84C3C51F8443C2B
:1014F00043F4807341F8443C434600F07BF9236891
:1015000028469A6802F46022B2F5602F9A680CBFF0
:1015100042F4A00242F480129A60BDE8B881002330
:1015200084F82430BDE8B8810120BDE8B8810220EC
:10153000BDE8B8810024014000280140D510000812
:10154000251100081F12000838B5036804469A6880
:10155000D20701D4002038BD9A6822F001029A60B7
:10156000FFF7A4FD054623689B68DB07F2D5FFF76C
:101570009DFD401B0228F6D9A36A012043F0100309
:10158000A362E36A43F00103E36238BD38B5044661
:10159000002800F08880836A23B9C36280F8243071
:1015A00001F0BCFD2046FFF7CFFFA36A13F0100F38
:1015B000A36A75D1002873D123F4885323F0020362
:1015C00043F00203A362E068022393FAA3F3B3FAA1
:1015D00083F36168E26900FA03F30A43A1681343E5
:1015E000B1F5807F05D0012914BF00224FF480722D
:1015F00000E00A466569012D15D160B94FF46040DD
:1016000090FAA0F0B0FA80F5A06942F400620138C7
:10161000A840024307E0A06A40F02000A062E06A10
:1016200040F00100E0622068B1F5807F456825F454
:10163000694542EA0502426085681C4A02EA0502E1
:1016400042EA0302826001D001290AD14FF47002FC
:1016500092FAA2F2B2FA82F22169013901FA02F297
:1016600000E00022C16A21F470010A43C26281686D
:101670000F4A0A40934208D10020E062A36A23F097
:10168000030343F00103A36238BDA36A23F01203EE
:1016900043F01003A362E36A43F00103E36202E054
:1016A00043F01003A362012038BD00BFFDF7E1FF46
:1016B000FE0E1FFF70470000074A0002D36800F4C7
:1016C000E06023F4E0631B041B0C43F0BF6343F4AE
:1016D00000330343D360704700ED00E0174B30B593
:1016E000DB68C3F30223C3F107041D1D042C28BFCC
:1016F0000424062D4FF0010505FA04F404F1FF342B
:101700008CBF033B00230C409C4005FA03F3013BD4
:101710001A40002842EA04024FEA0212AFBF00F169
:101720006040074B00F00F00D2B2A5BFD2B200F567
:1017300061401A5480F8002330BD00BF00ED00E086
:1017400014ED00E04209012300F01F0003FA00F04D
:10175000014B43F82200704700E100E00138B0F18E
:10176000807F0AD2064B074AF021586082F8231086
:101770000020072298601A6070470120704700BF60
:1017800010E000E000ED00E0044B04281A680CBFF4
:1017900042F0040222F004021A60704710E000E0F8
:1017A000704708B5FFF7FCFF08BD10B500B390F80F
:1017B00021300BB980F820308268416804681143F9
:1017C000C26823681143026923F47F5311434269BD
:1017D00023F03003114382691143C2690A43134362
:1017E000236001220023436380F82120184610BDA6
:1017F000012010BD30B590F82040012C4FF00204BC
:1018000023D080F821400468012580F82050256805
:1018100025F001052560636043680020102B0BBF95
:10182000A260A160E160E260236843F002032360EC
:10183000236843F004032360236843F00803236014
:10184000236843F00103236030BD204630BD000013
:10185000914B70B51968914D03680446AB4213D0A3
:101860008F4A934212D01432934211D014329342D1
:1018700011D01432934211D0143293420CBF4FF462
:1018800000024FF000620BE0082209E0802207E02E
:101890004FF4006204E04FF4004201E04FF40022F4
:1018A0000A4238D01A68120735D51A68AB4222F0BE
:1018B00008021A6013D07A4A934212D0143293422B
:1018C00011D01432934211D01432934211D01432F9
:1018D00093420CBF4FF400034FF000630BE008236A
:1018E00009E0802307E04FF4006304E04FF4004375
:1018F00001E04FF40023684A5360636B43F0010337
:101900006363042384F82130002384F82030236BA0
:101910000BB120469847604B19682368AB4213D03F
:101920005F4A934212D01432934211D01432934240
:1019300011D01432934211D0143293420CBF4FF4A1
:1019400080024FF080620BE0042209E0402207E0B1
:101950004FF4806204E04FF4804201E04FF48022B3
:101960000A4234D01A68560731D51A6890065EBF0D
:101970001A6822F004021A60AB4213D0484A93421C
:1019800012D01432934211D01432934211D0143237
:10199000934211D0143293420CBF4FF480034FF0A6
:1019A00080630BE0042309E0402307E04FF48063E9
:1019B00004E04FF4804301E04FF48023364A536043
:1019C000112384F82130E36A0BB120469847324B4B
:1019D00019682368AB4213D0314A934212D01432B3
:1019E000934211D01432934211D01432934211D049
:1019F000143293420CBF4FF400124FF000720BE010
:101A0000022209E0202207E04FF4007204E04FF4C4
:101A1000005201E04FF400320A423BD01A689107AD
:101A200038D51A6892065EBF1A6822F002021A6060
:101A3000AB4213D01A4A934212D01432934211D0BF
:101A40001432934211D01432934211D01432934283
:101A50000CBF4FF400134FF000730BE0022309E0BA
:101A6000202307E04FF4007304E04FF4005301E03B
:101A70004FF40033084A5360636B6363012384F8B7
:101A80002130002384F82030A36A1BB12046BDE832
:101A90007040184770BD00BF0000024008000240BF
:101AA0001C0002402DE9F74F00242646624BDFF868
:101AB00094E1DFF894C101220D68B24032EA0505D5
:101AC00040F0B3804D68122D28D00ED8022D22D0C0
:101AD00004D835B3012D2DD1CC682BE0032D18D0BF
:101AE000112D27D1CC68043424E0544FBD4218D0C6
:101AF00006D8DFF85881454513D008F5803805E051
:101B000075450ED065450CD0DFF84481454511D1AF
:101B100007E000240EE0CC6808340BE0CC680C34FD
:101B200008E08C682CB1012C0CBF026142610824D2
:101B300000E00424FF2A97BF8346A6F10805D0F8E9
:101B40000090B50084BFD0F80490AD004FF00F08AE
:101B500008FA05FA29EA0A0904FA05F588BF00F12E
:101B6000040B49EA0505CBF80050D1F8049019F0B0
:101B7000805F5AD0324D324FAD6906F0030A45F00E
:101B80000105BD61BD694FEA8A0A05F001050195AD
:101B9000019D26F0030505F1804505F58035D5F852
:101BA00008B0A7F5843708FA0AF8B8422BEA080803
:101BB00010D007F58067B8420FD007F58067B842AC
:101BC0000ED007F58067B8420CBF4FF0030B4FF003
:101BD000040B07E04FF0000B04E04FF0010B01E0B5
:101BE0004FF0020B0BFA0AFA4AEA080AC5F808A0F5
:101BF0001D6819F4803F14BF154395431D605D684F
:101C000019F4003F14BF154395435D609D6819F4B6
:101C1000801F14BF154395439D60DD6819F4001FB4
:101C200014BF2A4325EA0202DA600136102E7FF43F
:101C300042AF03B0BDE8F08F000401400000211066
:101C4000001002400000311000003210000011109E
:101C50000000221002B9090401617047C3685940AD
:101C6000C160704703682DE9F743DC07054603D4DC
:101C70002B68980773D4F2E0B94C636803F00C0347
:101C8000042B07D0636803F00C03082B16D163689C
:101C9000D90313D54FF4003393FAA3F2226893FAD1
:101CA000A3F3B3FA83F303F01F0322FA03F3DA0773
:101CB000DED56B68002BDBD101202DE26B68B3F51C
:101CC000803F15D06BB923684FF4003623F480337E
:101CD0002360236823F480232360FFF7E7F9074696
:101CE0002FE0B3F5A02F236806D143F480232360AF
:101CF000236843F4803305E023F4803323602368B2
:101D000023F480232360FFF7D1F907464FF4003610
:101D100096FAA6F3226896FAA6F3B3FA83F303F0D1
:101D20001F0322FA03F3DB07A2D4FFF7BFF9C01B9E
:101D30006428EDD90320EFE1FFF7B8F9C01B642850
:101D4000F8D896FAA6F3226896FAA6F3B3FA83F3C4
:101D500003F01F0322FA03F3D807EDD488E7804C81
:101D6000636813F00C0F07D0636803F00C03082BB3
:101D700021D16368D9031ED4022393FAA3F2226807
:101D800093FAA3F3B3FA83F303F01F0322FA03F3E6
:101D9000DA0702D52B69012B8ED12368F82292FA3B
:101DA000A2F2B2FA82F2696923F0F80301FA02F2B0
:101DB0001343236053E02A6901237AB393FAA3F211
:101DC000B2FA82F2920002F1844202F584021360B8
:101DD000FFF76CF90746022696FAA6F360482268D8
:101DE00096FAA6F3B3FA83F303F01F0322FA03F380
:101DF000DB0705D4FFF75AF9C01B0228ECD999E795
:101E00000368F82292FAA2F2B2FA82F2696923F028
:101E1000F80301FA02F21343036020E093FAA3F3FC
:101E2000B3FA83F39B0003F1844303F584031A6040
:101E3000FFF73CF90746022696FAA6F3226896FABF
:101E4000A6F3B3FA83F303F01F0322FA03F3D907CF
:101E500005D5FFF72BF9C01B0228EDD96AE72B68DF
:101E60001A0746D5AA693E4C01233E4912B393FA9C
:101E7000A3F2B2FA82F241F82230FFF717F90746CF
:101E8000022696FAA6F396FAA6F3626A96FAA6F3E3
:101E9000B3FA83F303F01F0322FA03F3DB0705D43D
:101EA000FFF704F9C01B0228EBD943E70120FFF735
:101EB00003F91EE093FAA3F3B3FA83F341F8232066
:101EC000FFF7F4F80746022696FAA6F396FAA6F369
:101ED000626A96FAA6F3B3FA83F303F01F0322FAB9
:101EE00003F3D80705D5FFF7E1F8C01B0228EBD9AB
:101EF00020E72B68590704D4EA69002A40F0818062
:101F0000D8E0174C184EE36943F08053E361E3696E
:101F100003F080530193019B336843F48073336073
:101F2000FFF7C4F807463368DA0505D4FFF7BEF8B3
:101F3000C01B6428F7D9FDE6EB68012B1CD0ABB9B8
:101F4000236A022623F001032362236A374623F023
:101F500004032362FFF7AAF841F28839804648E07B
:101F6000001002408004424200700040052B236AAA
:101F700006D143F004032362236A43F0010305E022
:101F800023F001032362236A23F004032362FFF793
:101F90008DF802268146B04641F2883796FAA6F3BC
:101FA00096FAA6F30BB1226A00E0626A98FAA8F3E7
:101FB000B3FA83F303F01F0322FA03F3DB079BD486
:101FC000FFF774F8C9EB0000B842E7D9B2E6626ADD
:101FD00097FAA7F3B3FA83F303F01F0322FA03F38C
:101FE000D80789D5FFF762F8C8EB000048453FF6EF
:101FF000A1AE96FAA6F396FAA6F3002BE7D0226AD2
:10200000E6E7474C636803F00C03082B3FF454AE3B
:10201000022A4FF080735CD193FAA3F3B3FA83F3EF
:102020009B0003F1844303F5840300221A60FFF749
:102030003DF880464FF0007696FAA6F3384F2268B6
:1020400096FAA6F3B3FA83F303F01F0322FA03F31D
:10205000D90731D42E6AB6F5803F05D1796821F4CD
:102060000030A9680143796063686A6A23F47413D5
:102070003243134363604FF0807393FAA3F3B3FAD0
:1020800083F39B0003F1844303F5840301221A6068
:10209000FFF70CF806464FF0007595FAA5F3226895
:1020A00095FAA5F3B3FA83F303F01F0322FA03F3BF
:1020B000DA0708D500202FE0FEF7F8FFC8EB000094
:1020C0000228B9D936E6FEF7F1FF801B0228E4D9D1
:1020D00030E693FAA3F3B3FA83F39B0003F184434E
:1020E00003F5840300221A60FEF7E0FF06464FF076
:1020F000007595FAA5F3226895FAA5F3B3FA83F370
:1021000003F01F0322FA03F3DB07D3D5FEF7CEFF5C
:10211000801B0228EDD90DE603B0BDE8F08300BFB7
:10212000001002401F4B70B503F110052E4686B01B
:1021300002AC224618685968083303C2AB42144601
:10214000F7D13388184CADF80430606800F00C0308
:10215000082B24D14FF4701393FAA3F3B3FA83F34B
:1021600000F4701222FA03F306AA134413F8101CA9
:10217000C30311D562684FF4003393FAA3F3B3FAA3
:1021800083F002F40033C34006AA134413F8140C7E
:10219000064BB3FBF0F000E00548484300E003487D
:1021A00006B070BD906700080010024000127A006F
:1021B00000093D00544A2DE9F0411368064603F03A
:1021C00007038B420D460AD331688C0714D54F485C
:1021D000436823F0F002B368134343600CE01368D4
:1021E00023F007030B431360136803F007039942BE
:1021F000EAD00120BDE8F081C80706D4424A13683E
:1022000003F007039D424AD353E072683F4C012A12
:1022100002D14FF4003304E0022A0CBF4FF00073E8
:10222000022393FAA3F1216893FAA3F3B3FA83F399
:1022300003F01F0321FA03F3D907DAD5636841F2EB
:10224000883823F003031A436260FEF72FFF736898
:102250000746012B0CD1636803F00C03042BCDD08F
:10226000FEF724FFC01B4045F5D90320BDE8F081EF
:10227000022B0FD1636803F00C03082BBED0FEF7CE
:1022800015FFC01B4045F5D9EFE7FEF70FFFC01B58
:102290004045EAD8636813F00C0FF6D1AEE7136837
:1022A00023F007032B431360136803F007039D42D9
:1022B0009FD13168154C11F0040F05D0636823F4E9
:1022C000E062F368134363600B0706D56368326905
:1022D00023F4605343EAC2036360FFF723FF63689C
:1022E000F02292FAA2F2B2FA82F203F0F003D340A3
:1022F000074AD35CD840074B18600020FEF7AAFEBF
:102300000020BDE8F08100BF002002400010024024
:10231000A267000800000020014B1868704700BF4A
:1023200000000020084B4FF4E0625B6892FAA2F2D2
:10233000B2FA82F203F4E063D340044AD35C044A65
:102340001068D840704700BF00100240B267000814
:1023500000000020084B4FF460525B6892FAA2F232
:10236000B2FA82F203F46053D340044AD35C044AC5
:102370001068D840704700BF00100240B2670008E4
:102380000000002003682DE9F743DC07054664D50B
:102390003E4C3F4EE36943F08053E361E36903F051
:1023A00080530193019B336843F480733360FEF7DD
:1023B0007DFE07463368D80506D4FEF777FEC01BBE
:1023C0006428F7D903205DE0236A304813F4407392
:1023D00006D1236A23F440726B68134323623CE006
:1023E0006A6802F440729342F3D0016A4FF480337A
:1023F00021F4407793FAA3F2B2FA82F2254E4FF01D
:10240000010E46F822E093FAA3F3B3FA83F3002215
:10241000C90746F823200762DBD5FEF747FE0226F0
:102420008046374641F2883996FAA6F396FAA6F323
:102430000BB1226A00E0626A97FAA7F3B3FA83F35A
:1024400003F01F0322FA03F3DA07C2D4FEF72EFECD
:10245000C8EB00004845E7D9B4E72868830706D5EC
:102460000A494B6823F44042AB6813434B6010F0B9
:10247000100007D0054900204B6823F48002EB6868
:1024800013434B6003B0BDE8F08300BF001002406F
:10249000007000400004424203680020DA6842F005
:1024A0000102DA601A6842F001021A60704790F87F
:1024B000383070B5012B4FF0020300F0B08080F887
:1024C00039300368012280F838209A6822F47F426C
:1024D00022F077029A600A68402A77D018D8102A2A
:1024E00000F08B8008D8002A40F093809A6822F090
:1024F000700242F007028BE0202A00F08480302A2C
:1025000040F087809A6822F0700242F037027FE044
:10251000702A35D01BD8502A41D0602A79D11C6A44
:102520004D6824F01004CE681C6299691A6A21F47F
:10253000704122F0A00242EA051241EA0631996197
:102540001A629A6822F0700242F0670260E0B2F507
:10255000805F11D0B2F5005F5BD19C688D684A68DE
:1025600024F47F44C9682A43224342EA01229A6044
:102570009A6842F480424BE09A6822F0070247E0F2
:102580009C688D684A6824F47F44C9682A432243C2
:1025900042EA01229A609A6842F0770238E01A6AA9
:1025A0001C6A4D6824F00104CE681C62996922F00F
:1025B0000A0221F0F0012A4341EA061199611A62E8
:1025C0009A6822F0700242F0570221E01A6A1C6AEF
:1025D0004D6824F00104CE681C62996922F00A0259
:1025E00021F0F0012A4341EA061199611A629A68C2
:1025F00022F0700242F047020AE09A6822F070026C
:1026000042F0170204E09A6822F0700242F02702BA
:102610009A60012380F83930002380F8383018465A
:1026200070BD7047704770477047036810B51A69EE
:102630000446910714D5DA68920711D56FF00202AB
:102640001A619B6901229B07027602D0FFF7EAFF1D
:1026500004E0FFF7E6FF2046FFF7E5FF00232376BF
:1026600023681A69500716D5DA68510713D56FF039
:1026700004021A619B69022213F4407F22762046ED
:1026800002D0FFF7CFFF04E0FFF7CBFF2046FFF7B4
:10269000CAFF0023237623681A69120715D5DA6862
:1026A000100712D56FF008021A61DB69042299073E
:1026B0002276204602D0FFF7B5FF04E0FFF7B1FF16
:1026C0002046FFF7B0FF0023237623681A69D2065D
:1026D00016D5DA68D00613D56FF010021A61DB69DF
:1026E000082213F4407F2276204602D0FFF79AFF9B
:1026F00004E0FFF796FF2046FFF795FF00232376BF
:1027000023681A69D10708D5DA68D20705D56FF0B2
:1027100001021A61204600F0B7FA23681A69100610
:1027200008D5DA68110605D56FF080021A612046D7
:1027300000F08FF823681A69520608D5DA68500647
:1027400005D56FF040021A612046FFF76DFF236840
:102750001A6991060AD5DA68920607D56FF0200249
:102760002046BDE810401A6100F072B810BD0000AC
:10277000184A036890420AD0B0F1804F07D0A2F502
:102780009432904203D002F58062904215D14A689B
:1027900023F0700313430F4A90420AD0B0F1804FE8
:1027A00007D0A2F59432904203D002F580629042A5
:1027B00003D1CA6823F44073134303608B68C36278
:1027C0000B688362034B984204BF0B6903630123C8
:1027D00043617047002C014010B50446A0B190F849
:1027E000393003F0FF021BB980F8382000F0DEFC1E
:1027F000022384F839302068211DFFF7B9FF012337
:1028000084F83930002010BD012010BD90F8383018
:1028100010B5012B4FF0020318D080F8393003684F
:102820005A6822F070025A605C680A6822435A6053
:102830009A6822F080029A609C684A6822439A60F3
:10284000012380F83930002380F83830184610BD55
:10285000704770472DE9F047066881683369814603
:1028600023F44052C3681924134333610369F268A7
:1028700019434369194322F4B05323F00C030B436B
:10288000F360736923F440728369134373613D4BB2
:102890009E4231D1FFF75EFD6043D9F804704FF0DE
:1028A0006408BF00B0FBF7F7FFF754FD6043D9F8A9
:1028B0000450B7FBF8F7AD00B0FBF5F5FFF74AFDA4
:1028C0006043D9F804303F019B00B0FBF3F0B0FB4C
:1028D000F8F008FB1055FFF73DFD2D013235B5FB33
:1028E000F8F56043D9F8041005F0F0058900B0FB55
:1028F000F1FAFFF72FFD30E0FFF714FD6043D9F840
:1029000004704FF06408BF00B0FBF7F7FFF70AFD53
:102910006043D9F80450B7FBF8F7AD00B0FBF5F50C
:10292000FFF700FD6043D9F804303F019B00B0FB86
:10293000F3F0B0FBF8F008FB1055FFF7F3FC2D01A6
:102940003235B5FBF8F56043D9F8041005F0F00511
:102950008900B0FBF1FAFFF7E5FC4443D9F8040025
:102960008000B4FBF0F0B0FBF8F008FB10A21201FD
:102970003232B2FBF8F303F00F032B441F44B7606D
:10298000BDE8F08700380140F8B504460E4615460C
:10299000FEF78CFB07462268136836EA030321D052
:1029A0006B1CF9D0C5B923680320DA6822F08002D5
:1029B000DA60DA6822F02002DA60DA6822F48072E3
:1029C000DA605A6922F001025A61012384F8393031
:1029D000002384F83830F8BDFEF768FBC01B854241
:1029E000D9D2E0E70020F8BD10B5044630B390F826
:1029F000393003F0FF021BB980F8382000F00AFCE0
:102A00002268022384F83930D368204623F4005327
:102A1000D360FFF71FFF236800201A6922F4904259
:102A20001A615A6922F02A025A61DA6842F40052A5
:102A3000DA600123E06384F8393010BD012010BD55
:102A400070B50D4690F839100446C9B201291E46EA
:102A500001D022294ED1002D4AD0002A48D094F826
:102A60003830012B46D0012384F838300023E3634B
:102A700094F83930A284222B0CBF3223122384F81D
:102A80003930E284E28C02B3A368013AB3F5805F87
:102A9000E2844FF08001324620460DD1FFF774FFEB
:102AA00008B1032070BD2B882268C3F3080353606C
:102AB000236943B90235E5E7FFF766FF0028F0D147
:102AC00023682A785A600135DCE7324640212046E7
:102AD000FFF75AFF0028E4D194F83930322B0CBFAD
:102AE0002223012384F83930002384F8383070BD64
:102AF000012070BD022070BD7047704770470268AA
:102B000013B511680446C907D36805D5DB0542BF74
:102B1000C36B43F00103C36311685369880703F073
:102B2000010304D51BB1E16B41F00401E1631168BD
:102B3000490704D51BB1E16B41F00201E163116863
:102B4000080704D51BB1E36B43F00803E363116886
:102B5000D368890642D5980640D594F8393003F0F9
:102B6000EF03222B3AD1A3682169B3F5805FA36AF2
:102B70000BD1526821B9C2F3080223F8022B02E0FC
:102B8000D2B223F8012BA3620AE019B9591CA16241
:102B9000526804E05268591CA16202F07F021A7068
:102BA000E38D013B9BB2E385C3B923682046DA6815
:102BB00022F02002DA6094F83920322A17BFDA684E
:102BC000122322F48072DA601FBF5A6922F00102D8
:102BD0005A61012384F83930FFF78FFF23681968A1
:102BE000DA68090628D5100626D594F8392002F0AF
:102BF000DF02122A20D1A268B2F5805F226A0AD1D0
:102C00001188C1F308015960216909B9023200E055
:102C10000132226203E0511C216212785A60E28C78
:102C2000013A92B2E2843AB9DA6822F08002DA60BC
:102C3000DA6842F04002DA601968DA68490610D5AD
:102C400052060ED5DA68204622F04002DA6094F887
:102C50003930322B0CBF2223012384F83930FFF79F
:102C60004BFFE36B5BB1236820461A6801925B68F7
:102C70000193019B012384F83930FFF73FFF02B035
:102C800010BD000000000000036837B5B3F1804FAD
:102C900062D14FF480513A48FEF7E0FF394A3A4C8E
:102CA00013889BB2238053889BB26380208880B2B4
:102CB000FDF79CFF01463548FDF7E6FEFDF7B4FB46
:102CC00002460B4600203249FDF72CFD24A3D3E930
:102CD0000023FDF749FA03F0EBFA23A3D3E900231D
:102CE000FDF7F6FB22A3D3E90023FDF73FFA0246E6
:102CF0000B4600202749FDF715FD1FA3D3E900234C
:102D0000FDF732FA2588CDE90001ADB22A46224905
:102D1000224800F01BFC4FF47A730E221F49204812
:102D2000FFF78EFE1D4A0021012000F0B8FB6288EB
:102D30001C4992B2194800F009FC184A00210220EF
:102D400000F0ADFB154916484FF47A730E2203B01C
:102D5000BDE83040FFF774BE03B030BDAFF3008074
:102D6000000000000088C340C2C3B46FEEAF2E3F26
:102D700090B8DE6EFD7F523F6666666666A2724060
:102D8000000C01401C070020F805002000F07F45E2
:102D9000008883410000F03FBA670008B4060020B5
:102DA00038060020C567000810B54FF4803394B092
:102DB00001220B930021022412930AA84FF4E0137E
:102DC0000A920C910E9211941393FEF74BFF00B1EF
:102DD000FEE70F23059307904FF480630990214687
:102DE00005A806940893FFF7E5F900B1FEE74FF454
:102DF000004301A801940393FFF7C4FA044600B10D
:102E0000FEE7FFF789FA4FF47A73B0FBF3F0FEF7B1
:102E1000A5FC0420FEF7B8FC224621464FF0FF3007
:102E2000FEF75CFC14B010BD80B58B4C90B0FEF783
:102E300023F9FFF7B9FFA369002243F01003A36150
:102E4000A3694FF4204103F010030693069BA36986
:102E5000824843F02003A361A369012503F0200306
:102E60000793079BA369022643F00403A361A369A8
:102E700003F004030893089BA36943F00803A361CC
:102E8000A36903F008030993099BFEF7E3FE002200
:102E900041F2F8117248FEF7DDFE4FF420430CA911
:102EA0006E480C930D950F96FEF7FCFD41F2F8135A
:102EB0000CA96B480C930D950F96FEF7F3FD636913
:102EC00000222B436361636911462B4005930B205D
:102ED000059BFEF703FC0B20FEF734FC6148624BB8
:102EE0004FF4E13E80E808400C2200238360C36079
:102EF000036142618361C361FFF776FD00B1FEE7C4
:102F00004EF65F27594C4FF0804384E8880040F22A
:102F1000AF43A06020612046E360FFF75DFC00B195
:102F2000FEE74FF480580CA92046CDF83080FFF71B
:102F3000BEFA00B1FEE70A900B900AA92046FFF7FF
:102F400065FC00B1FEE74A4C4A4BA06084E888006B
:102F500040F2572320612046E360FFF73DFC00B1BB
:102F6000FEE70CA92046CDF83080FFF7A0FA00B1AB
:102F7000FEE70A900B900AA92046FFF747FC00B134
:102F8000FEE73D4C3D4B606123604FF48073A360CE
:102F90004FF46023E361606004232046E560236111
:102FA000FEF7F4FA00B1FEE70C9007230CA92046C7
:102FB0000D950E93FEF740F900B1FEE70CA92046EF
:102FC0000C950D96FEF738F900B1FEE702250324B3
:102FD0000CA929480C950D94FEF72EF900B1FEE7D7
:102FE00004230CA924480C940D93FEF725F90446FC
:102FF00000B1FEE7402180224FF480738DE80E007F
:10300000174820231022082100F0E0F91C4A21462D
:10301000012000F044FA1B4A2146284600F03FFAFE
:103020001248FFF739FA0028FAD11148FFF734FAAD
:103030000028FAD1062214490F48FEF7F5F90122BB
:103040004FF480510648FEF705FE01224FF400516F
:103050000248FEF7FFFDFEE70010024000100140AD
:10306000000C01403806002000380140DC0600203A
:10307000BC05002000040040080600200024014098
:10308000CE670008D76700081C070020FEE7000095
:10309000204B07B59A69032042F001029A619B69AF
:1030A00003F001030193019BFEF706FB002211468A
:1030B0006FF00B00FEF712FB002211466FF00A00C2
:1030C000FEF70CFB002211466FF00900FEF706FB2D
:1030D000002211466FF00400FEF700FB00221146AB
:1030E0006FF00300FEF7FAFA002211466FF00100BC
:1030F000FEF7F4FA002211464FF0FF30FEF7EEFA29
:10310000054A536823F0E06343F08063536003B0E3
:103110005DF804FB001002400000014030B5026879
:103120001E4B87B09A42054635D103F56C439A6928
:103130001B4842F400729A619B6902A903F4007370
:103140000193019B0F2302930323164C0393FEF775
:10315000A9FC154B2046236000236360A3608023F5
:10316000E3604FF4807323614FF480636361202335
:10317000A3614FF40053E361FEF717FB08B1FFF7BB
:1031800085FF00222C62122011466562FEF7A6FA26
:103190001220FEF7D7FA07B030BD00BF002401406F
:1031A000000801407806002008000240036807B5C7
:1031B000B3F1804F11D103F50433DA691C2042F0DA
:1031C0000102DA61DB69002203F00103009311467A
:1031D000009BFEF783FA1C2012E00C4A934211D1A7
:1031E0000B4B1D20DA6942F00202DA61DB69002232
:1031F00003F0020301931146019BFEF76FFA1D20B5
:10320000FEF7A0FA03B05DF804FB00BF0004004025
:103210000010024010B50268164B86B09A4227D1C2
:1032200003F558439A6902A942F480429A619B6966
:10323000114803F480430193019B4FF40073029300
:1032400002230393032300240593FEF72BFC4FF482
:10325000806302A90848029303940494FEF722FCB9
:10326000252022462146FEF739FA2520FEF76AFA84
:1032700006B010BD00380140000801407047FEE76D
:10328000FEE7FEE7FEE770477047704708B5FDF7B9
:1032900005FFBDE80840FEF784BA00000148FEF7CC
:1032A000D7BA00BF780600200148FDF741BF00BF34
:1032B000080600200148FFF7B8B900BFDC0600206F
:1032C0000148FFF7B2B900BFBC0500200148FFF775
:1032D00016BC00BF3806002038B50E4D0E4C2988AC
:1032E00001222068FEF7B6FC022000F0EDF82988E4
:1032F00001222068FEF7AEFC022000F0E5F820680D
:1033000029880022FEF7A6FCBDE83840282000F0FE
:10331000DBB800BFAC0500209C05002038B5054691
:10332000174B184C10F00102198818BF01222068B1
:10333000FEF790FC05F0020101F0FF02124B01B113
:10334000012219882068FEF785FC05F0040101F0D0
:10335000FF020E4B01B101221988206805F0080513
:10336000FEF778FC05F0FF02094B05B10122198830
:103370002068FEF76FFCBDE83840FFF7ADBF00BF27
:10338000B40500209C050020A4050020A005002015
:10339000A805002010B50A460446084B084801B1AC
:1033A000012201881868FEF755FC2009FFF7B6FFD7
:1033B0002046BDE81040FFF7B1BF00BF9C050020CC
:1033C000B00500200021FFF7E5BF0000F8B5274F4A
:1033D000069C3860264F079E3960264F089D3A604C
:1033E000254F3B60254F3C60254F3E60254F3D609B
:1033F00035432C4323431A43114389B20022FEF77D
:1034000029FC0A2000F069F80320FFF787FF052058
:1034100000F063F80320FFF781FF052000F05DF85E
:103420000320FFF77BFF052000F057F80220FFF78D
:1034300075FF052000F051F82820FFF7C3FF282072
:1034400000F042F80C20FFF7BDFF282000F03CF808
:103450000620FFF7B7FF282000F036F80120FFF71D
:10346000B1FFBDE8F840022000F037B89C0500200D
:10347000B0050020AC050020B4050020A405002004
:10348000A0050020A80500200121FFF783BF08B593
:10349000FFF7FAFFBDE80840012000F015B8012849
:1034A00018BFA1F1400010B508BF81F0800014469C
:1034B00018BFC0B2FFF786FF013C14F8010F10B12E
:1034C000FFF7E5FFF9E710BD30B10A2300BF013B6C
:1034D000FCD1013880B2F7E77047024608B532B137
:1034E0004FF47A70FFF7F0FF013A92B2F7E708BDA8
:1034F0000E4B70B51E460E4C0025E41AA410A542D2
:1035000004D056F8253098470135F8E703F034F930
:10351000084B094C1E46E41AA4100025A54204D00D
:1035200056F8253098470135F8E770BD586900080E
:1035300058690008586900085C690008034602449D
:10354000934202D003F8011BFAE770470EB400B5AE
:103550004FF402719CB0ADF814106FF0004104916B
:1035600007914FF6FF711DAB02900690084853F883
:10357000042BADF81610006802A9019300F00AF8B8
:10358000029B00221A701CB05DF804EB03B0704778
:10359000F40000202DE9F04FBDB08B4609921F4684
:1035A000814601F0D5FD036818461193FCF7D0FD64
:1035B000BBF80C300A90190615D5DBF8103093B91A
:1035C0004021484601F0D0FDCBF80000CBF81000B8
:1035D00030B90C23C9F800304FF0FF3000F08BBF3A
:1035E0004023CBF8143000232CAC1F94219320935C
:1035F00008930C930D93139312930E93099D2B46EE
:1036000013F8012B1AB1252A01D01D46F7E7099BB3
:10361000EE1A17D084E84800219B33442193209B65
:103620000133072B209301DC083408E01FAA594618
:10363000484602F0B5FA002840F022862CAC0E9BDA
:1036400033440E932B78002B00F0138600226B1C62
:10365000114615468DF85F204FF0FF3A0B920A2075
:103660005E1C1B7809960693069B203B582B00F2A4
:103670005982DFE813F05C00570257026B005702D3
:10368000570257025702570257026E00590057025D
:1036900078007B0057029F00A200A200A200A200B7
:1036A000A200A200A200A200A200570257025702E5
:1036B0005702570257025702570257025702D200C9
:1036C000FE005702FE005702570257025702B5008C
:1036D0005702570243015702570257025702570237
:1036E0008A015702570266005702570257025702D3
:1036F000570257025702570257025702C90061008A
:10370000FE00FE00FE00B800610057025702BB0039
:103710005702250145016001C60057027101570299
:103720008C0157025702A40101222B2102E009B9A2
:1037300001222021099B93E7002A73D08DF85F10A6
:1037400070E00AB18DF85F10A94B3CE145F001052E
:10375000F0E73E683B1D002E0B9601DB1F46E9E7B4
:103760001F4676420B9645F00405E3E7099B5E1C75
:103770001B782A2B069301D000230AE0D7F800A07B
:103780003B1DBAF1000F1F460996D3DA4FF0FF3AFE
:10379000D0E70996069E303E092E08D800FB036349
:1037A000099EB6461EF8016B06967646F1E743EA97
:1037B000E37A59E745F08005BCE700230B93069BAD
:1037C0000B9E303B00FB06330B93099B1E4616F8FD
:1037D000013B0693069B0996303B092BEFD943E743
:1037E00045F00805A6E745F04005A3E7099B1B78CF
:1037F0006C2B03D1099B0133099302E045F01005BE
:1038000098E745F0200595E73B1D07933B680026A8
:103810008DF888308DF85F6093E10AB18DF85F1004
:1038200045F01005AA0608D5073727F0070707F166
:1038300008030793D7E900670EE015F0100F07F1B2
:10384000040302D007933E6805E03E6815F0400F80
:10385000079318BF36B2F717002E77F1000380F2F6
:10386000E28076424FF02D0367EB47078DF85F301B
:10387000D9E00AB18DF85F10073727F0070707F185
:10388000080307933B684FF0FF320C937B680C9F53
:103890000D930D9B384623F000463146554BFDF7FE
:1038A000B1F8002840F0F6844FF0FF32514B384613
:1038B0003146FDF789F8002840F0EC8400F004BEA2
:1038C0000AB18DF85F1015F0200F07F1040307D03F
:1038D0000E993A68CE1708463146C2E900010BE05E
:1038E000E90606D46A0604D53A68BDF83810118096
:1038F00002E03A680E9911601F467FE645F0100518
:1039000015F0200309D0073727F0070707F1080350
:103910000793D7E90067002381E03A1D15F01001F5
:10392000079205D115F0400302D03E880027F2E748
:103930003E68002773E03B1D079330238DF860300D
:103940002D4B78223E681393002745F002058DF831
:1039500061200223069262E000263B1DB2450793D8
:10396000D7F800808DF85F600ADB5246314640464A
:1039700001F016FE002800F0EA80C8EB000AE7E03C
:103980004046FCF7E5FB8246E2E045F01005AE0656
:1039900008D5073727F0070707F108030793D7E98A
:1039A00000670AE03B1D15F0100F079303D168066E
:1039B00001D53E8800E03E68002701232FE00AB1D0
:1039C0008DF85F100C4BA906139308D5073727F025
:1039D000070707F108030793D7E9006710E03B1DCD
:1039E00015F0100F079309D16A0607D53E8806E047
:1039F00000680008FFFFEF7F116800083E6800279D
:103A0000EB070BD556EA070308D030238DF860305A
:103A10009DF8183045F002058DF861300223002230
:103A20008DF85F2000E00123BAF1000FC0F25D8540
:103A300056EA070225F0800103D1BAF1000F5FD0EA
:103A400006E00D46012B25D0022B46D0294607E083
:103A50000D46012B22D0022B3DD0294600260027FF
:103A60000DF1B008F20842EA4772F80806F00703C1
:103A700007461646303356EA070208F8013DF1D1F1
:103A8000E80748D5302B46D0302308F8013C08F130
:103A9000FF3840E0002F08BF0A2E05D230360DF166
:103AA000F00808F8416D29E00DF1B00830463946BC
:103AB0000A220023FDF7F2F8303208F8012D002326
:103AC000304639460A22FDF7E9F806460F4656EA1F
:103AD0000703EBD112E0002600270DF1B008139A7E
:103AE00006F00F03D35C3A0908F8013D330943EAB5
:103AF00007731E46174656EA0703F0D129460AE027
:103B00003BB9EA0705D50DF1F008302308F8413D2F
:103B100001E00DF1B0082CAB56460D46C8EB030A88
:103B2000002716E00AB18DF85F10069B002B00F00D
:103B3000A0839DF8183000268DF888308DF85F60DE
:103B400007974FF0010A37460DF1880801E0064655
:103B5000374656453346B8BF53460F939DF85F30FE
:103B600013B10F9B01330F9315F0020314931EBF83
:103B70000F9B02330F9315F08403159339D10B9BE0
:103B80000F9A9B1A002B109333DD109B102BA34B25
:103B9000236018DD10236360219B10332193209B49
:103BA0000133072B209301DC083408E01FAA594693
:103BB000484601F0F5FF002840F062832CAC109BD2
:103BC000103B1093E1E7109B109A6360219B134414
:103BD0002193209B0133072B209301DC083408E05C
:103BE0001FAA5946484601F0DBFF002840F04883F1
:103BF0002CAC9DF85F30BBB10DF15F032360012356
:103C00006360219B01332193209B0133072B209379
:103C100001DC083408E01FAA5946484601F0C0FFFD
:103C2000002840F02D832CAC149BB3B118AB23605B
:103C300002236360219B02332193209B0133072BD6
:103C4000209301DC083408E01FAA5946484601F0D9
:103C5000A7FF002840F014832CAC159B802B39D192
:103C60000B9B0F9A9B1A002B109333DD109B102B8C
:103C70006B4B236018DD10236360219B103321936D
:103C8000209B0133072B209301DC083408E01FAA96
:103C90005946484601F084FF002840F0F1822CACE0
:103CA000109B103B1093E1E7109B109A6360219BDF
:103CB00013442193209B0133072B209301DC08340C
:103CC00008E01FAA5946484601F06AFF002840F064
:103CD000D7822CACCAEB0606002E2EDD504B102EE0
:103CE000236016DD10236360219B10332193209BFA
:103CF0000133072B209301DC083408E01FAA594642
:103D0000484601F04DFF002840F0BA822CAC103E2E
:103D1000E4E7209B219801336660072B0644219637
:103D2000209301DC083408E01FAA5946484601F0F8
:103D300037FF002840F0A4822CACEB0514D4219B63
:103D400084E8000553442193209B0133072B2093E3
:103D500040F345821FAA5946484601F021FF00283A
:103D600040F08E822CAC3BE2069B652B40F3AE818B
:103D7000002200230C980D99FCF712FE00285ED05B
:103D8000284B236001236360219B01332193209BF7
:103D90000133072B209301DC083408E01FAA5946A1
:103DA000484601F0FDFE002840F06A822CAC199BC9
:103DB000089A934202DBEE0740F11282119B0A9AA5
:103DC00023600A9B6360219B13442193209B013352
:103DD000072B209301DC083408E01FAA5946484607
:103DE00001F0DEFE002840F04B822CAC089B5E1EEA
:103DF000002E40F3F5810A4F4FF01008102E40F3CB
:103E00005981219B84E8800110332193209B013349
:103E1000072B209308DC08340FE000BF246800085B
:103E2000E0670008226800081FAA5946484601F0CA
:103E3000B7FE002840F024822CAC103EDEE7199B30
:103E4000002B7CDC9F4B236001236360219B0133AB
:103E50002193209B0133072B209301DC083408E0D9
:103E60001FAA5946484601F09BFE002840F00882F0
:103E70002CAC199B23B9089B13B9E80740F1B0811A
:103E8000119B0A9A23600A9B6360219B1344219330
:103E9000209B0133072B209302DC04F1080308E088
:103EA0001FAA5946484601F07BFE002840F0E881F1
:103EB0002CAB199E7642002E30DD834F1024102E3D
:103EC00016DD219A1F6010322192209A5C60013227
:103ED000072A209201DC083308E01FAA5946484609
:103EE00001F05EFE002840F0CB812CAB103EE6E7EF
:103EF000754A83E84400219A1644209A219601329B
:103F0000072A209201DC083308E01FAA59464846D8
:103F100001F046FE002840F0B3812CAB089A0899C6
:103F20005A60219AC3F800800A442192209A0132F3
:103F3000072A20923FF70EAF03F1080450E1089BD7
:103F4000BB42A8BF3B46002B1E4615DD6360219B8C
:103F5000C4F8008033442193209B0133072B209326
:103F600001DC083408E01FAA5946484601F018FE53
:103F7000002840F085812CAC002EB4BF3E46BE1B0D
:103F8000002E30DD4FF0100A4F4B102E236016DD4F
:103F9000219BC4F804A010332193209B0133072BED
:103FA000209301DC083408E01FAA5946484601F076
:103FB000F7FD002840F064812CAC103EE4E7219B23
:103FC00066601E44209B21960133072B209301DC61
:103FD000083408E01FAA5946484601F0E1FD0028D0
:103FE00040F04E812CAC199B089A4744934201DB68
:103FF000E90717D5119B0A9A23600A9B6360219BEE
:1040000013442193209B0133072B209301DC0834B8
:1040100008E01FAA5946484601F0C2FD002840F0BA
:104020002F812CAC089B089A08EB0306199BF61B02
:10403000D31A9E42A8BF1E46002E14DD219B276086
:1040400033442193209B66600133072B209301DCCE
:10405000083408E01FAA5946484601F0A1FD00288F
:1040600040F00E812CAC199B089A002EA2EB0303A2
:10407000B4BF1E469E1B002E40F3B280124F4FF07D
:104080001008102E16DD219B84E880011033219347
:10409000209B0133072B209301DC083408E01FAA82
:1040A0005946484601F07CFD002840F0E9802CACE0
:1040B000103EE6E7044B84E84800219B1E4421960D
:1040C00042E600BF22680008E0670008089B012B59
:1040D00001DCEA0773D501236360219BC4F80080EB
:1040E00001332193209B0133072B209301DC0834FB
:1040F00008E01FAA5946484601F052FD002840F04A
:10410000BF802CAC119B0A9A23600A9B6360219BA1
:1041100013442193209B0133072B209301DC0834A7
:1041200008E01FAA5946484601F03AFD002840F031
:10413000A7802CAC002300220C980D99FCF730FCD2
:10414000089B5E1EB8B908F1010384E84800219B72
:10415000089A013B13442193209B0133072B2093A2
:1041600034DD1FAA5946484601F01AFD002840F0E8
:1041700087802CAC2BE0002E29DD8F4F4FF01008EC
:10418000102E15DD219B84E8800110332193209BA4
:104190000133072B209301DC083407E01FAA59469E
:1041A000484601F0FDFC00286AD12CAC103EE7E740
:1041B000814B84E84800219B1E442196CCE70123D3
:1041C0006360219BC4F800800133C4E708341BAB53
:1041D0002360129B129A6360219B1344B3E5083459
:1041E0006B070BD40E9B0B9A0F998A42ACBF9B189E
:1041F0005B180E93219B002B35D02EE00B9B0F9A62
:104200009D1A002DEEDD10266C4B102D236013DD62
:10421000219B666010332193209B0133072B209351
:1042200001DC083406E01FAA5946484601F0B8FCF4
:1042300030BB2CAC103DE7E7219B65601D44209B03
:1042400021950133072B2093CCDD1FAA5946484600
:1042500001F0A6FC0028C5D012E01FAA5946484626
:1042600001F09EFC60B900232093079F2CACFFF760
:10427000C5B9219B23B11FAA5946484601F090FCBD
:10428000BBF80C3013F0400F0E9B18BF4FF0FF33FC
:10429000184630E10C9A0D9B0C980D99FCF7B2FB77
:1042A00060B1474B474A069925F080054729CCBFA6
:1042B000904698464FF0030A002649E4BAF1FF3FC2
:1042C0000AD0069B23F02003472B07D1BAF1000F39
:1042D00008BF4FF0010A01E04FF0060A45F4807371
:1042E00015930D9B1F1E0C9BA8BF10970F93BDBF6E
:1042F0003B4603F1004310930023B8BF2D231493D2
:10430000069B23F02007462F04D0452F05D10AF144
:10431000010603E05646032301E0564602231DAA88
:1043200004921AAA039219AA02928DE848000F9AE1
:10433000109B484600F074F9472F804602D1EB07E6
:1043400040F1CF8008EB0603462F089311D198F86F
:104350000030302B09D1002200230F981099FCF770
:104360001FFB10B9C6F101061996089A199B1A4449
:104370000892002200230F981099FCF711FB08B94E
:10438000302202E0089B1D9307E01D9B089999428B
:1043900003D9591C1D911A70F7E71D9B472FC8EBD5
:1043A0000303089310D1199BDF1C01DB9A456ADADD
:1043B000069B023B06930AE0E067000824680008B9
:1043C000F8670008FC670008069B652B44DC199B16
:1043D0009DF81820013B002B1993B8BF5B428DF864
:1043E0006C20B4BF2D222B22092B8DF86D201DDDF2
:1043F0000DF17B020A2093FBF0F100FB1133092938
:1044000003F1300302F8013D0B46F4DC303302F8CF
:10441000013C511E0DF16E030DF17B0081421A46E5
:104420000BD211F8012B03F8012BF7E730221344CC
:104430008DF86E208DF86F301CAA1BABD31A089A2A
:104440001293012A03EB020A02DC15F0010732D0B5
:104450000A9B00279A442EE0069B662B13D1199BDA
:10446000002B07DDBAF1000F01D1EE0721D50A9A22
:10447000134406E0BAF1000F01D1ED0714D50A9BF1
:104480000133534415E0199B089A934203DBE80774
:104490000DD50A9A06E0089A0A99002B0A4405DC11
:1044A000C3F10103134402E0012302E01346672233
:1044B00006929A46199F149B13B12D238DF85F30F5
:1044C000159D0026FFF745BB002200230C980D998F
:1044D000FCF770FA10B12D238DF85F30074B084AB6
:1044E000E1E61D9B1B1A08935DE756EA07027FF47D
:1044F000A9AAFFF7AEBA3DB0BDE8F08FF06700089B
:10450000F46700082DE9F74F03690C6980469C4267
:104510007FDC013C01F114074FEA840E00F1140620
:1045200006EB0E0357F82450019356F8243001355A
:10453000B3FBF5F507EB0E09C5B34FF0000A38469B
:10454000B446D34650F8043B9AB205FB02A21B0CBA
:104550004FEA124A05FB03A392B2C2EB0B0BBCF865
:1045600000204FEA134A5A441FFA83FBDCF800305C
:104570008145CBEB134303EB224392B242EA034261
:104580004FEA234B4CF8042BDCD256F80E306BB9B3
:10459000019B043B9E421A4602D3C8F8104005E036
:1045A0001268043B002AF8D1013CF3E7404601F0D1
:1045B0001EFA00282BDB304601354FF0000E57F86D
:1045C000042B036891B2C1EB0E0E120C99B2714428
:1045D000C2EB134303EB214389B24FEA234EB945A3
:1045E00041EA034340F8043BE9D256F8242006EBA5
:1045F000840362B9043B9E421A4602D3C8F81040B5
:1046000005E01268043B002AF8D1013CF3E7284694
:1046100000E0002003B0BDE8F08F000000000000C3
:104620002DE9F04F456A95B08246219CCDE90223E1
:1046300045B9102000F090FDCAF82400456085605F
:104640000560C560DAF82430196859B15A68012349
:1046500093404A608B60504600F0F2FFDAF8243055
:1046600000221A60039BA04A002BBDBF01232360D8
:10467000039B0023BCBF23F000430393DDF80C80B1
:10468000A8BF236028F000431B0D1B0593421DD1DA
:1046900042F20F73209A1360029B43B9934A944BE2
:1046A000C8F31300002814BF1846104600E09048D5
:1046B000229B002B00F04685C37813B100F108035C
:1046C00000E0C31C229A136000F03CBDDDE9024506
:1046D0000022002320462946FCF762F9074658B11C
:1046E000209A01231360229B002B00F01E85814835
:1046F0001860013800F026BD12AB019313AB009394
:1047000022462B46504601F0EDF9C8F30A560490B4
:1047100056B1C5F3130343F07F51204641F44011D5
:10472000A6F2FF3611971DE0139B129E1E4406F25F
:104730003243202B0ADD029A06F21240C3F14003F5
:1047400022FA00F008FA03F3184304E0C3F1200052
:10475000029B03FA00F0FBF745FE0123A1F1F8717B
:10476000013E11930022644BFBF7FEFC58A3D3E9F2
:104770000023FBF7ADFE58A3D3E90023FBF7F6FCBB
:10478000044630460D46FBF73DFE55A3D3E9002312
:10479000FBF79EFE02460B4620462946FBF7E6FC49
:1047A00004460D46FCF744F90022834600232046C8
:1047B0002946FCF7FFF858B15846FBF723FE02469E
:1047C0000B4620462946FCF7EBF808B90BF1FF3BF6
:1047D000BBF1160F0DD8DDE90223484901EBCB01EF
:1047E000D1E90001FCF704F930B10BF1FF3B0023E4
:1047F00000E00123109300E01090129B9E1B731E9B
:10480000079343BFC3F10008002307934FF000084C
:10481000BBF1000F06DB079BCDF82CB05B44079380
:10482000002705E00023CBEB0808CBF100070B9332
:104830001E9B092B28D8052BC4BF043B1E931E9B2F
:10484000C8BF0025A3F10203D8BF0125032B20D840
:10485000DFE803F0060E0204012302E0012308E072
:1048600000230A931F9B002B1DDD9946059321E031
:1048700000230A931F9B0BEB030909F10103012B92
:104880000593B8BF012315E0012500231E930A9567
:1048900001E001230A934FF0FF390022CDF8149074
:1048A00012231F9206E04FF001094B46CDF81490F9
:1048B000CDF87C90DAF8244000226260042101F1F6
:1048C00014029A421CD86268490001326260F6E71D
:1048D00061436F63A787D23FB3C8608B288AC63F06
:1048E000FB799F501344D33F0000F07F34680008E9
:1048F0003D680008236800080000F83F5068000881
:104900006168504600F067FEDAF8243020601B68CA
:104910000693059B0E2B00F25B81002D00F0588161
:10492000DDE90234BBF1000FCDE90E3430DD9F4AE2
:104930000BF00F034FEA2B1502EBC303E80618CB6D
:10494000CDE908340CD5DDE90E01994B05F00F05D2
:10495000D3E90823FBF7E6FE0324CDE9020100E0DA
:104960000224934E6DB1E90708D5DDE90801D6E9C7
:104970000023FBF7ADFDCDE9080101346D100836C9
:10498000F0E7DDE90823DDE90201FBF7CBFE20E0DB
:10499000CBF1000505B3DDE90E01844B05F00F02F4
:1049A00003EBC203D3E90023FBF792FDCDE902013B
:1049B0007F4E2D110023022455B1EA0705D5D6E913
:1049C0000023FBF785FD013401236D100836F3E762
:1049D0001BB1CDE9020100E00224109BE3B1DDE947
:1049E00002560022734B28463146FBF7E3FF98B18D
:1049F000059B8BB1B9F1000F40F3E6800BF1FF335B
:104A00000893314600226C4B2846FBF761FD0134C8
:104A1000CDE902014E4602E0059ECDF820B02046C9
:104A2000FBF7F0FCDDE90223FBF752FD634B0022AC
:104A3000FBF79CFBA1F1507304460C931D46D6B9BD
:104A4000DDE9020100225E4BFBF78EFB22460C9B48
:104A5000CDE90201FBF7CCFF002840F03F820C9922
:104A6000224601F10043DDE90201FBF7A3FF002824
:104A700040F02B82A8E00A9A4C4B711E002A49D0C4
:104A800003EBC103D3E9002300204E49FBF74AFEA4
:104A900022462B46FBF768FBCDE90C01069CDDE9BD
:104AA0000201FBF7C5FF0546FBF7ACFC02460B46CF
:104AB000DDE90201FBF758FBDDE90C23303504F892
:104AC000015BCDE90201FBF775FF002840F01D8373
:104AD000DDE9022300203749FBF746FBDDE90C2323
:104AE000FBF768FF002840F0D180069BE31AB34231
:104AF0006ADADDE90C0100222F4BFBF7E9FC00220A
:104B0000CDE90C01DDE902012B4BFBF7E1FCCDE91E
:104B10000201C4E703EBC1012246D1E900012B46A3
:104B2000FBF7D6FC069BCDE90C011D469C19DDE97F
:104B30000201FBF77DFF0646FBF764FC02460B46CD
:104B4000DDE90201FBF710FB303605F8016BAC42E2
:104B5000CDE902014FF0000222D11A4BDDE90C0130
:104B6000FBF704FB02460B46DDE90201FBF740FFC1
:104B7000002840F08B80DDE90C2300201149FBF771
:104B8000F3FA02460B46DDE90201FBF713FFD8B149
:104B900014F8013C621E302B40F0B7821446F7E750
:104BA000054BFBF795FCCDE90201C0E75068000812
:104BB000186900080000F03F0000244000001C407D
:104BC000000014400000E03FDDE90E34CDE902347E
:104BD000139B002B7CDBBBF10E0F79DCAB4B03EBA3
:104BE000CB03D3E900671F9B002B14DA059B002B36
:104BF00011DC40F06C810022A54B30463946FBF7B2
:104C000067FCDDE90223FBF7E9FE059D2E4600283F
:104C100040F05F8165E1069CDDE9028932463B4652
:104C200040464946FBF77EFDFBF702FF0546FBF7D2
:104C3000E9FB32463B46FBF74BFC0B460246494636
:104C40004046FBF791FA05F1300E069B04F801EBA4
:104C5000C3EB040E059B73452DD102460B46FBF7B3
:104C600085FA8046894602460B4630463946FBF7B0
:104C7000A1FE78B942464B4630463946FBF790FED6
:104C8000002800F04482EB0704D440E2DDF820B0B5
:104C900000E01C4614F8012C631E392A07D1069A3D
:104CA0009A42F6D1069930220BF1010B0A701A785C
:104CB00001321A702BE20022764BFBF709FC00222E
:104CC000002380468946FBF76BFE0028A6D01EE233
:104CD0000A9A002A2BD01E9A012A0ADC119A12B1D4
:104CE00003F2334302E0129BC3F136033D464446D0
:104CF00013E0059B5D1EAF42BFBF0B9BEA1B9B18D9
:104D00000B93059BB6BF2F467D1B0025002BA7BF2D
:104D10004446059BC3EB08040023079A01211A446B
:104D200050469844079200F02AFD064602E03D46B0
:104D300044460A9E5CB1079B002B08DDA342A8BF36
:104D40002346079AC3EB0808E41AD31A0793002FE7
:104D50001DDD0A9BABB18DB131462A46504600F0AD
:104D6000A7FD049A01460646504600F011FD04993D
:104D70000890504600F064FC089B04937A1B06D010
:104D800000E03A460499504600F092FD049001215B
:104D9000504600F0F4FC0B9B05465BB31A460146F7
:104DA000504600F085FD1E9B0546012B18DC029B3A
:104DB00083B9039BC3F3130373B9039B23F0004729
:104DC0003F0D3F054FB1079B08F1010801330793E1
:104DD000012702E0002700E0029F0B9B73B100E077
:104DE00000272B6905EB8303186900F07BFCC0F1F9
:104DF000200004E01E9B012BD9DD0B9F0120079BA7
:104E0000184410F01F0008D0C0F12003042B02DD6D
:104E1000C0F11C0002E006D018461C30079B8044FD
:104E2000034404440793B8F1000F05DD424604999A
:104E3000504600F08BFD0490079B002B05DD2946B2
:104E40001A46504600F082FD0546109B23B32946C2
:104E5000049800F0CCFD00281EDA00230A220499F1
:104E6000504600F004FC0A9B0BF1FF3B0490002B22
:104E700000F05F81314600230A22504600F0F7FB24
:104E8000B9F1000F06463FDC3BE000BF5068000868
:104E90000000144000002440059B002B2BDC1E9BCF
:104EA000022B28DDDDF81490B9F1000F11D129464D
:104EB0004B460522504600F0DAFB014605460498B1
:104EC00000F095FD00280CDC03E0354600E00025ED
:104ED0002E461F9B069C6FEA030B09E03546DDF862
:104EE00020B0069B069A5C1C312313700BF1010B5A
:104EF00005960026F7E00A9BDDF8149023B9069C7E
:104F0000B2E01E9B022BCFDC002C05DD3146224691
:104F1000504600F01BFD06469FB17168504600F0F8
:104F20005AFB0446326906F10C01023292000C3041
:104F300000F044FB01222146504600F007FD059099
:104F400000E00596029B069F03F0010307932946A4
:104F50000498FFF7D7FA3146044600F13008049868
:104F600000F045FD059A02902946504600F05BFD91
:104F7000C36802463BB901460A90049800F037FD29
:104F80000A9A034600E00123114650460A9300F0B6
:104F900057FB0A9B53B91E9A42B9079A32B9B8F126
:104FA000390F2AD0029B002B1CDC1DE0029A002A3C
:104FB00004DB1BD11E9ACAB9079ABAB9002B13DDBC
:104FC00001220499504600F0C1FC2946049000F0EB
:104FD0000EFD002803DC07D118F0010F04D0B8F152
:104FE000390F0AD004F131087C1C0CE0002B07F1CA
:104FF00001040BDDB8F1390F03D139233B700137C0
:1050000056E008F1010887F800806CE0069B27460F
:10501000E31A4B4504F8018C3BD000230A22049983
:10502000504600F024FB059B04909E424FF00A027C
:105030004FF000033146504604D100F018FB0646FD
:10504000059084E700F013FB002306460A22059929
:10505000504600F00CFB059079E700230A220499E2
:10506000504600F004FB049029460498FFF74AFAE2
:10507000069B00F1300804F8018BE31A4B45ECDB8A
:10508000069B0596B9F1010FACBF4B4401331F4697
:10509000002601220499504600F058FC294604904D
:1050A00000F0A5FC002803DC15D118F0010F12D088
:1050B0003C4614F8013C621E392B09D1069B9342F1
:1050C00004D10BF1010B3123069A02E01446F0E7FC
:1050D0000133137007E03C4614F8013C621E302B8C
:1050E00001D11446F8E72946504600F0A9FA059B7D
:1050F0006BB12EB19E4203D03146504600F0A0FA6B
:105100000599504600F09CFA01E0DDF820B00499C2
:10511000504600F095FA0023209A23700BF101030A
:105120001360229B1BB11C6001E008480AE006984E
:1051300008E0B9F1000F3FF7E2AE1E9B022B7FF7AC
:10514000DEAEB1E615B0BDE8F08F00BF2268000802
:1051500000487047F8000020024B0146186800F034
:1051600003B800BFF40000202DE9F04F01F10B045B
:10517000162C85B0814603D934F0070401D502E02E
:1051800010248C4203D20C23C9F80030E7E14846D2
:1051900000F01FFAB4F5FC7F9D4D17D204F1080210
:1051A0002A445668A2F108018E424FEAD40302D184
:1051B000D668B24208D07368F268B16823F003037E
:1051C000CA60334491602FE002333DE0630A1AD095
:1051D000042B02D8A309383318E0142B01D85B3311
:1051E00014E0542B02D8230B6E330FE0B3F5AA7FE3
:1051F00002D8E30B773309E040F25452934204D8CB
:10520000A30C7C3302E03F2300E07E235A1C05EB15
:10521000C202A2F1080056680CE00029F16808DB20
:10522000B368D9608B60B3185A6842F001025A60C3
:10523000A0E10E46864206D0726822F00302111BDE
:105240000F29EADD013B0133714A2E6902F108079B
:10525000BE42394679D0706820F00300C4EB000EDE
:10526000BEF10F0F0DDD331944F00104746053617A
:1052700013614EF00102DF609F605A6043F80EE058
:1052800078E1BEF1000F5761176105DB30444368D8
:1052900043F0010343606DE1B0F5007F15D2C00813
:1052A0004FEAA00E012707FA0EFE576801304EEABA
:1052B0000707576052F830E002EBC007083FF7607D
:1052C000C6F808E042F830603DE0420A042A02D8FD
:1052D0008209383215E0142A01D85B3211E0542AD1
:1052E00002D8020B6E320CE0B2F5AA7F02D8C20BD4
:1052F000773206E040F25457BA429ABF820C7C32B1
:105300007E22571C55F8377005EBC20EBE45DFF8FC
:1053100000C10DD10120921000FA02F2DCF8040065
:105320001043CCF80400724609E0BF68BE4504D0C3
:105330007A6822F003029042F7D3BE46FA68F26020
:10534000C6F808E09660CEF80C6001209A1000FACA
:1053500002F2686882425DD8024206D123F003035C
:105360005200024203F10403FAD005EBC308C2461F
:105370009C46DAF80C6056452CD07068F76820F02F
:105380000300C4EB000EBEF10F0F11DD331944F022
:105390000104746056F8082FD760BA604EF001021D
:1053A0006B612B61D96099605A6043F80EE00BE0A5
:1053B000BEF1000F0CDB33185A6842F001025A604C
:1053C00056F8083FDF60BB60484600F003F9D5E0BF
:1053D0003E46D0E70CF1010C1CF0030F0AF1080A5D
:1053E000C7D1980704D16B6823EA02036B6004E01D
:1053F00058F80809013B8045F3D0686852008242A2
:1054000008D83AB163460242AFD104335200FAE7FA
:1054100030010020D5F808B0DBF8046026F0030660
:10542000B44203D8331B0F2B00F39B80554A5649D7
:105430001268086802F11008544A01300191A04432
:105440001FBF02F1FF318844514201EA08080BEB0B
:105450000603414648460392029300F091FB421C2A
:1054600007466FD0029B039A834201D9AB4569D1AD
:10547000DFF824A1BB42DAF80000DFF820C1404485
:10548000CAF8000008D113EA0C0F05D1AB684644F6
:1054900046F001065E6049E00199D1F800E0BEF1F6
:1054A000FF3F15BFFB1A384B1B181F6018BFCAF807
:1054B000003017F007031CBFC3F10803FF18B844FE
:1054C0001A4408EA0C08C8EB02084146484600F0B6
:1054D00057FB431C04BF38464FF00008DAF8003091
:1054E000C21B4244434442F00102AB45AF60CAF8DC
:1054F00000307A601AD00F2E02D801237B6021E0A1
:10550000DBF804300C3E26F0070603F001033343BA
:10551000CBF8043005220BEB06030F2E5A609A607D
:1055200004D90BF10801484600F03CFC184ADAF8AF
:10553000003011688B4288BF1360164A11688B4295
:1055400088BF1360AB685A6822F003029442A2EB52
:10555000040301D80F2B04DC484600F03BF800267A
:105560000CE0AE6844F0010243F001033444726081
:10557000AC606360484600F02DF80836304605B050
:10558000BDE8F08F6C0500203C0500208000000085
:105590006805002064050020700500207F000000E1
:1055A00010B5C9B202449042034605D01C780130C0
:1055B0008C42F8D1184610BD002010BD10B5431E16
:1055C0000A44914204D011F8014B03F8014FF8E767
:1055D00010BD7047704770B5456A04460E463DB928
:1055E0001020FFF7B9FD6062456085600560C56009
:1055F000656AEB6843B1636ADB6853F8260078B1EB
:10560000026843F8262017E021220421204600F0FA
:1056100046FB636AE860DB68002BECD1002070BDBC
:10562000012101FA06F56A1D9200204600F037FBC1
:105630000028F3D04660856000230361C36070BD1D
:1056400070B5446A06460D463CB91020FFF784FD4C
:105650007062446084600460C4603DB1736A6A68CB
:10566000DB6853F82210296043F8225070BD2DE901
:10567000F04106460C460D691F4601F1140E002349
:10568000DEF80000013381B202FB0171000C0F0C47
:1056900002FB007089B201EB00419D424FEA1047C6
:1056A0004EF8041BECDCD7B1A3689D4212DB6168A5
:1056B00030460131FFF78FFF8046226904F10C016B
:1056C000023292000C30FFF779FF21463046FFF797
:1056D000B7FF444604EB850301355F612561204631
:1056E000BDE8F081030C1B0413B90004102300E093
:1056F000002310F07F4F04BF0002083310F0704FFA
:1057000004BF0001043310F0404F04BF8000023397
:10571000002803DB420003D5581C70471846704729
:1057200020207047036813F007020BD0D90722D45A
:105730009A074BBF5B089B08036003604CBF0120C6
:105740000220704799B209B91B0C102213F0FF0F09
:1057500004BF1B0A0832190704BF1B09043299074A
:1057600004BF9B080232D90702D45B0805D001327E
:10577000036010467047002070472020704710B526
:105780000C460121FFF727FF01224461026110BD91
:105790002DE9F74F14460A69236988469A42BEBF2D
:1057A0000B46A0461C46D8F81070D4F81090D8F8D4
:1057B0000830D8F8041007EB09069E42C8BF013133
:1057C000FFF709FF00F114052B4605EB860C0022BC
:1057D000634502D243F8042BFAE704F1140208F1FE
:1057E000140102EB890301EB87070093009B0192F0
:1057F000934257D9B2F800B0BBF1000F23D08946CD
:10580000AE464FF0000859F8044BBEF800A0A3B212
:105810000BFB03A34FEA144ADEF8004043444FEA6F
:1058200014480BFB0A84F24604EB13449BB243EA90
:1058300004434F454FEA14484AF8043B01D9D64681
:10584000E1E7CEF80480019B0432B3F802A0BAF17C
:10585000000F21D02C4689462B684FF00008B9F87C
:1058600000E0B4F802B09BB20AFB0EBEA346F044BF
:1058700043EA08434BF8043B59F8043BB4F804E00E
:105880001B0C0AFB03E34F4503EB18434FEA134895
:1058900001D95C46E3E763600435A7E75CF8043DA3
:1058A00013B9013E002EF9DC066103B0BDE8F08FAC
:1058B0002DE9F843154612F0030206460F4607D0BD
:1058C000214C013A002354F82220FFF7D0FE07466E
:1058D000AD1036D0746A3CB91020FFF73DFC706201
:1058E000446084600460C460D6F82480D8F808401E
:1058F0004CB940F271213046FFF741FF04460023C6
:10590000C8F8080003604FF00008EB070AD53946D5
:1059100022463046FFF73CFF814639463046FFF7C6
:105920008FFE4F466D100CD0206808B10446ECE79E
:10593000224621463046FFF72BFF2060C0F800804A
:10594000F4E73846BDE8F883406900082DE9F047E0
:105950000C460746914626694FEA621A5644496842
:10596000A368751CAB4202DA01315B00FAE73846E6
:10597000FFF731FE002380461A4600F1140153451B
:1059800003DA41F823200133F9E72AEAEA732069B0
:1059900001EB830319F01F0904F1140101EB800EE0
:1059A00014D0C9F1200C002208689A4600FA09F0C8
:1059B000024343F8042B51F8042B8E4522FA0CF2D3
:1059C000F2D8CAF8042042B1B51C06E0043B51F8F5
:1059D000042B8E4543F8042FF9D8013D3846C8F80A
:1059E00010502146FFF72CFE4046BDE8F0870369C2
:1059F0000A6910B59B1A11D1920014301431831822
:105A00000A4453F8044D52F8041D8C4202D007D3C7
:105A1000012010BD9842F4D3002010BD184610BDDF
:105A20004FF0FF3010BD2DE9F8430C4607461146F4
:105A300020461546FFF7DBFF061E08D131463846E3
:105A4000FFF7C9FD012303614661BDE8F883BCBFD0
:105A500023462C4638466168BABF1D4601260026FB
:105A6000FFF7B9FD2B69C660266905F1140904F139
:105A7000140101EB860709EB830800F114054FF0D0
:105A8000000C51F8042B59F8044B93B29C44A3B278
:105A9000240CC3EB0C03C4EB124202EB23429BB277
:105AA0004FEA224CC84543EA02428E4645F8042B91
:105AB000E7D8BE450ED25EF8041B8AB262441314C6
:105AC00003EB114392B242EA03424FEA234C45F8FA
:105AD000042BEEE755F8043D0BB9013EFAE70661E9
