:020000040800F2
:10000000005000201D360008112D0008132D000897
:10001000152D0008172D0008192D000800000000FC
:100020000000000000000000000000001B2D000880
:100030001D2D0008000000001F2D0008212D0008C4
:100040006536000865360008653600086536000824
:100050006536000865360008653600086536000814
:100060006536000865360008653600086536000804
:1000700065360008653600086536000865360008F4
:1000800065360008653600086536000865360008E4
:1000900065360008653600086536000865360008D4
:1000A00065360008653600086536000865360008C4
:1000B000312D00083D2D0008653600086536000822
:1000C00065360008653600086536000865360008A4
:1000D0006536000865360008653600086536000894
:1000E0006536000865360008653600080000000027
:1000F0000000000000000000000000000000000000
:0C01000000000000000000005FF808F1A3
:1001100010B5054C237833B9044B13B10448AFF341
:1001200000800123237010BD98060020000000000D
:10013000C864000808B5034B1BB103490348AFF37B
:10014000008008BD000000009C060020C864000874
:10015000034613F8012B002AFBD1181A0138704707
:1001600081F0004102E000BF83F0004330B54FEA68
:1001700041044FEA430594EA050F08BF90EA020FD5
:100180001FBF54EA000C55EA020C7FEA645C7FEA68
:10019000655C00F0E2804FEA5454D4EB5555B8BF8B
:1001A0006D420CDD2C4480EA020281EA030382EAFC
:1001B000000083EA010180EA020281EA0303362D8E
:1001C00088BF30BD11F0004F4FEA01314FF4801C61
:1001D0004CEA113102D0404261EB410113F0004F73
:1001E0004FEA03334CEA133302D0524263EB43032A
:1001F00094EA050F00F0A780A4F10104D5F1200EC8
:100200000DDB02FA0EFC22FA05F2801841F1000122
:1002100003FA0EF2801843FA05F359410EE0A5F1F6
:1002200020050EF1200E012A03FA0EFC28BF4CF027
:10023000020C43FA05F3C01851EBE37101F00045DD
:1002400007D54FF0000EDCF1000C7EEB00006EEBEA
:100250000101B1F5801F1BD3B1F5001F0CD3490874
:100260005FEA30004FEA3C0C04F101044FEA4452CB
:1002700012F5800F80F09A80BCF1004F08BF5FEA52
:10028000500C50F1000041EB045141EA050130BD32
:100290005FEA4C0C404141EB010111F4801FA4F1D5
:1002A0000104E9D191F0000F04BF01460020B1FA2A
:1002B00081F308BF2033A3F10B03B3F120020CDA62
:1002C0000C3208DD02F1140CC2F10C0201FA0CF040
:1002D00021FA02F10CE002F11402D8BFC2F1200CA5
:1002E00001FA02F120FA0CFCDCBF41EA0C0190405B
:1002F000E41AA2BF01EB0451294330BD6FEA0404A4
:100300001F3C1CDA0C340EDC04F11404C4F120028E
:1003100020FA04F001FA02F340EA030021FA04F3A0
:1003200045EA030130BDC4F10C04C4F1200220FAF7
:1003300002F001FA04F340EA0300294630BD21FA35
:1003400004F0294630BD94F0000F83F4801306BFFB
:1003500081F480110134013D4EE77FEA645C18BFEF
:100360007FEA655C29D094EA050F08BF90EA020F86
:1003700005D054EA000C04BF1946104630BD91EA7E
:10038000030F1EBF0021002030BD5FEA545C05D181
:100390004000494128BF41F0004130BD14F58004C0
:1003A0003CBF01F5801130BD01F0004545F0FE4134
:1003B00041F470014FF0000030BD7FEA645C1ABF69
:1003C000194610467FEA655C1CBF0B46024650EAA0
:1003D000013406BF52EA033591EA030F41F40021CC
:1003E00030BD00BF90F0000F04BF0021704730B552
:1003F0004FF4806404F132044FF000054FF0000127
:1004000050E700BF90F0000F04BF0021704730B5E7
:100410004FF4806404F1320410F0004548BF4042BC
:100420004FF000013EE700BF42004FEAE2014FEA11
:1004300031014FEA02701FBF12F07F4393F07F4FEC
:1004400081F06051704792F0000F14BF93F07F4F1E
:10045000704730B54FF4607401F0004521F0004161
:1004600020E700BF50EA010208BF704730B54FF0E7
:1004700000050AE050EA010208BF704730B511F0EC
:10048000004502D5404261EB41014FF4806404F124
:1004900032045FEA915C3FF4DCAE4FF003025FEAA6
:1004A000DC0C18BF03325FEADC0C18BF033202EB2E
:1004B000DC02C2F1200300FA03FC20FA02F001FA88
:1004C00003FE40EA0E0021FA02F11444C1E600BF27
:1004D00070B54FF0FF0C4CF4E06C1CEA11541DBFDA
:1004E0001CEA135594EA0C0F95EA0C0F00F0DEF8A5
:1004F0002C4481EA030621EA4C5123EA4C5350EA8A
:10050000013518BF52EA033541F4801143F48013DA
:1005100038D0A0FB02CE4FF00005E1FB02E506F06B
:100520000042E0FB03E54FF00006E1FB03569CF0C0
:10053000000F18BF4EF0010EA4F1FF04B6F5007FC6
:1005400064F5407404D25FEA4E0E6D4146EB060638
:1005500042EAC62141EA55514FEAC52040EA5E50C1
:100560004FEACE2EB4F1FD0C88BFBCF5E06F1ED86B
:10057000BEF1004F08BF5FEA500E50F1000041EBA2
:10058000045170BD06F0004646EA010140EA02004F
:1005900081EA0301B4EB5C04C2BFD4EB0C0541EA71
:1005A000045170BD41F480114FF0000E013C00F386
:1005B000AB8014F1360FDEBF002001F0004170BDAA
:1005C000C4F10004203C35DA0C341BDC04F11404C3
:1005D000C4F1200500FA05F320FA04F001FA05F24F
:1005E00040EA020001F0004221F0004110EBD3701C
:1005F00021FA04F642EB06015EEA430E08BF20EA48
:10060000D37070BDC4F10C04C4F1200500FA04F3EA
:1006100020FA05F001FA04F240EA020001F000417C
:1006200010EBD37041F100015EEA430E08BF20EAEF
:10063000D37070BDC4F1200500FA05F24EEA020E37
:1006400020FA04F301FA05F243EA020321FA04F066
:1006500001F0004121FA04F220EA020000EBD3701D
:100660005EEA430E08BF20EAD37070BD94F0000F1D
:100670000FD101F00046400041EB010111F4801F51
:1006800008BF013CF7D041EA060195F0000F18BF02
:10069000704703F00046520043EB030313F4801F3E
:1006A00008BF013DF7D043EA0603704794EA0C0FF8
:1006B0000CEA135518BF95EA0C0F0CD050EA41060E
:1006C00018BF52EA4306D1D181EA030101F000418B
:1006D0004FF0000070BD50EA410606BF10461946B3
:1006E00052EA430619D094EA0C0F02D150EA0136BF
:1006F00013D195EA0C0F05D152EA03361CBF104600
:1007000019460AD181EA030101F0004141F0FE419E
:1007100041F470014FF0000070BD41F0FE4141F422
:10072000780170BD70B54FF0FF0C4CF4E06C1CEA22
:1007300011541DBF1CEA135594EA0C0F95EA0C0FD7
:1007400000F0A7F8A4EB050481EA030E52EA033592
:100750004FEA013100F088804FEA03334FF08055B3
:1007600045EA131343EA12634FEA022245EA1115E0
:1007700045EA10654FEA00260EF000419D4208BF91
:10078000964244F1FD0404F5407402D25B084FEA3E
:100790003202B61A65EB03055B084FEA32024FF4EA
:1007A00080104FF4002CB6EB020E75EB030E22BF47
:1007B000B61A754640EA0C005B084FEA3202B6EB07
:1007C000020E75EB030E22BFB61A754640EA5C00B6
:1007D0005B084FEA3202B6EB020E75EB030E22BF46
:1007E000B61A754640EA9C005B084FEA3202B6EB47
:1007F000020E75EB030E22BFB61A754640EADC0006
:1008000055EA060E18D04FEA051545EA16754FEA67
:1008100006164FEAC30343EA52734FEAC2025FEA85
:100820001C1CC0D111F4801F0BD141EA00014FF014
:1008300000004FF0004CB6E711F4801F04BF0143E5
:100840000020B4F1FD0C88BFBCF5E06F3FF6AFAE01
:10085000B5EB030C04BFB6EB020C5FEA500C50F191
:10086000000041EB045170BD0EF0004E4EEA113114
:1008700014EB5C04C2BFD4EB0C0541EA045170BD1B
:1008800041F480114FF0000E013C90E645EA060E5F
:100890008DE60CEA135594EA0C0F08BF95EA0C0F8D
:1008A0003FF43BAF94EA0C0F0AD150EA01347FF4D5
:1008B00034AF95EA0C0F7FF425AF104619462CE7AC
:1008C00095EA0C0F06D152EA03353FF4FDAE10460F
:1008D000194622E750EA410618BF52EA43067FF460
:1008E000C5AE50EA41047FF40DAF52EA43057FF4F0
:1008F000EBAE12E74FF0FF3C06E000BF4FF0010CFB
:1009000002E000BF4FF0010C4DF804CD4FEA410C5E
:100910007FEA6C5C4FEA430C18BF7FEA6C5C1BD02B
:1009200001B050EA410C0CBF52EA430C91EA030FAC
:1009300002BF90EA020F0020704710F1000F91EA09
:10094000030F58BF994208BF90422CBFD8176FEAD7
:10095000E37040F0010070474FEA410C7FEA6C5CA5
:1009600002D150EA013C07D14FEA430C7FEA6C5CAC
:10097000D6D152EA033CD3D05DF8040B704700BFD8
:100980008446104662468C461946634600E000BF26
:1009900001B5FFF7B7FF002848BF10F1000F01BDF8
:1009A0004DF808EDFFF7F4FF0CBF012000205DF8C3
:1009B00008FB00BF4DF808EDFFF7EAFF34BF012048
:1009C00000205DF808FB00BF4DF808EDFFF7E0FFE1
:1009D00094BF012000205DF808FB00BF4DF808ED32
:1009E000FFF7CEFF94BF012000205DF808FB00BF99
:1009F0004DF808EDFFF7C4FF34BF012000205DF87B
:100A000008FB00BF4FEA410C7FEA6C5C02D150EA60
:100A1000013C0AD14FEA430C7FEA6C5C02D152EAF6
:100A2000033C02D14FF0000070474FF001007047C7
:100A30004FEA410212F5001215D211D56FF4787306
:100A4000B3EB625212D94FEAC12343F0004343EAA9
:100A5000505311F0004F23FA02F018BF4042704784
:100A60004FF00000704750EA013005D111F000400E
:100A700008BF6FF0004070474FF00000704700BFA4
:100A800053B94AB9002908BF00281CBF4FF0FF31F5
:100A90004FF0FF3000F07AB9ADF1080C6DE904CEEB
:100AA00000F006F8DDF804E0DDE9022304B0704749
:100AB0002DE9F0478C460E460446089D002B50D188
:100AC0008A4217466CD9B2FA82FEBEF1000F0BD0F3
:100AD000CEF1200C01FA0EF620FA0CFC02FA0EF709
:100AE0004CEA060C00FA0EF43A0CBCFBF2F9BBB26D
:100AF00002FB19CC09FB03FA4FEA144848EA0C46FA
:100B0000B2450AD9F61909F1FF3180F02581B245C5
:100B100040F22281A9F102093E44A6EB0A06B6FB87
:100B2000F2F002FB106600FB03F3A4B244EA0644B1
:100B3000A34209D9E41900F1FF3280F00B81A342EE
:100B400040F2088102383C440021E41A40EA09409E
:100B5000002D62D0002324FA0EF42C606B60BDE8F7
:100B6000F0878B4207D9002D55D0002185E8410040
:100B70000846BDE8F087B3FA83F1002940F08F8082
:100B8000B34202D3824200F2FC80841A66EB030671
:100B90000120B446002D40D085E81010BDE8F08754
:100BA00012B90127B7FBF2F7B7FA87FEBEF1000FC3
:100BB00035D10121F61B4FEA174C1FFA87F8B6FB17
:100BC000FCF20CFB126608FB02F0230C43EA06461B
:100BD000B04207D9F61902F1FF3302D2B04200F257
:100BE000D2801A46361AB6FBFCF00CFB106608FBE6
:100BF00000F8A3B243EA0644A04507D9E41900F17E
:100C0000FF3302D2A04500F2B9801846A4EB0804D5
:100C100040EA02409CE729462846BDE8F08707FAEB
:100C20000EF7CEF1200326FA03F24FEA174CB2FB7F
:100C3000FCF11FFA87F80CFB112206FA0EF620FAD7
:100C400003F301FB08F933431E0C46EA0246B145A3
:100C500000FA0EF409D9F61901F1FF3280F08C8008
:100C6000B14540F2898002393E44A6EB0906B6FB45
:100C7000FCF00CFB106200FB08F99EB246EA02464B
:100C8000B14507D9F61900F1FF3371D2B1456FD9DB
:100C900002383E44A6EB090640EA01418FE7C1F164
:100CA000200722FA07F88B4048EA030326FA07F4E4
:100CB0004FEA134EB4FBFEF91FFA83FC0EFB1944F6
:100CC0008E4020FA07F809FB0CFA48EA06084FEABA
:100CD000184646EA0444A24502FA01F200FA01F677
:100CE00008D9E41809F1FF3044D2A24542D9A9F14C
:100CF00002091C44A4EB0A04B4FBFEF00EFB1044F2
:100D000000FB0CFC1FFA88F848EA0444A44507D904
:100D1000E41800F1FF3E29D2A44527D902381C442B
:100D200040EA0940A0FB0289A4EB0C0CCC45C2466A
:100D3000CE4615D312D055B1B6EB0A036CEB0E06B6
:100D400006FA07F7CB401F43CE402F606E600021AC
:100D5000BDE8F0871046F7E68946DEE64645EAD26A
:100D6000B8EB020A69EB030E0138E4E77046D7E7F7
:100D700018468FE78146BDE7114676E702383C44C6
:100D800044E7084606E7023A3E442BE7704700BFB7
:100D900038B50E4B054618784FF47A73B3FBF0F371
:100DA0000B4A1068B0FBF3F000F09EF8044658B907
:100DB0000F2D09D8024629464FF0FF3000F054F8B5
:100DC000044B20461D6038BD012038BD00000020C6
:100DD0000800002004000020074A08B5136803201B
:100DE00043F01003136000F02DF80020FFF7D0FF50
:100DF00001F09CFE002008BD00200240034A044B85
:100E000011681B780B441360704700BF7007002007
:100E100000000020014B1868704700BF70070020D9
:100E200038B50446FFF7F6FF0546631C1EBF044BAA
:100E30001B78E418FFF7EEFF401B8442FAD838BD58
:100E400000000020074A0002D36800F4E06023F4A9
:100E5000E0631B041B0C43F0BF6343F40033034304
:100E6000D360704700ED00E0174B30B5DC68C4F389
:100E70000224C4F10703251D042B28BF0423062DDB
:100E80004FF0010598BF002405FA03F303F1FF3387
:100E900088BF033C1940A14005FA04F4013C2240FC
:100EA000002842EA01024FEA0212AFBF00F160409F
:100EB000064B00F00F00D2B2A5BFD2B200F56140E0
:100EC0001A5480F8002330BD00ED00E014ED00E07E
:100ED0000123420900F01F0003FA00F0014B43F820
:100EE0002200704700E100E00138B0F1807F0AD2B3
:100EF000F021064B064A586082F823100020072292
:100F000098601A6070470120704700BF10E000E051
:100F100000ED00E0044B04281A680CBF42F0040204
:100F200022F004021A60704710E000E0704708B534
:100F3000FFF7FCFF08BD00002DE9F74F0022164621
:100F4000654BDFF8A4E1DFF8A4C14FF001080C689D
:100F500008FA06F808EA0404A0457FD14D68122D6E
:100F600000F0AF8000F28880022D00F0A7807CD8CE
:100F7000002D00F08E80012D00F09E804FF00F09B3
:100F8000FF2C93BF824606F18045083DD0F800B0A3
:100F900092BFB500D0F804B0AD0009FA05F82BEA0D
:100FA000080802FA05F588BF00F1040A48EA0505B9
:100FB000CAF80050D1F804A01AF0805F4ED0474D17
:100FC000464FAD6926F0030845F00105BD61BD69D6
:100FD00008F1804805F00105019508F5803806F014
:100FE000030B019D4FEA8B0BD8F8085009FA0BF957
:100FF00025EA09093A4DA84268D005F58065A8425E
:1010000066D005F58065A84264D005F58065A842E4
:101010000CBF0325042505FA0BF545EA0905C8F8B8
:1010200008501D681AF4803F14BF2543A5431D6076
:101030005D681AF4003F14BF2543A5435D609D68B9
:101040001AF4801F14BF2543A5439D60DD681AF480
:10105000001F14BF2C4325EA0404DC600136102E67
:101060007FF473AF03B0BDE8F08F032D22D0112DB4
:1010700084D1CA68043281E71A4FBD4209D012D820
:10108000DFF86C904D4504D009F580394D457FF46B
:1010900075AF8A68C2B1012A0CBFC0F81080C0F8D1
:1010A000148008226AE77545F3D06545F1D0DFF872
:1010B0004490EBE7002261E7CA685FE7CA6808323C
:1010C0005CE7CA680C3259E7042257E70025A2E71B
:1010D0000125A0E702259EE7000401400010024020
:1010E0000008014000002110000031100000321003
:1010F00000001110000022100AB1016170470904BC
:10110000FBE7C3685940C16070470268536913F434
:1011100080630DD06FF48063536104232022036445
:101120000023036380F83C3080F83D2001207047A5
:10113000184670472DE9F843044617469946C1F30F
:1011400007488EB22568B8F1010F0CBF6B69AB6917
:1011500036EA030314BF0120002008B9BDE8F88374
:101160006B695A0512D52B68202243F400732B605B
:101170006FF480636B6104232364002301202363E5
:1011800084F83C3084F83D20BDE8F8837B1CD9D03E
:101190004FB900232022236384F83C3084F83D209B
:1011A0000320BDE8F883FFF735FEA0EB0900874276
:1011B000C8D2EEE72DE9F843044690461F46089E44
:1011C000C1F307498DB22368B9F1010F0CBF5B6908
:1011D0009B6935EA03030CBF01230023434502D07A
:1011E0000020BDE8F8837B1CEDD05FB900232022EE
:1011F000236384F83C3084F83D20032084F83E309B
:10120000BDE8F883FFF706FE801B8742DBD2EDE7DF
:1012100070B504460D46164623685B691B0601D56A
:10122000002070BD2046FFF770FFA8B96A1CF3D0FC
:1012300065B9236C202243F020032364002303209C
:10124000236384F83C3084F83D2070BDFFF7E2FD55
:10125000801B8542E0D2ECE7012070BD70B50446EA
:101260000D4616462068436913F0400301D0002064
:1012700070BD4269D2060BD56FF010024261202288
:10128000236484F83C302363012084F83D2070BD42
:101290005DB9236C032043F020032364202384F8EA
:1012A0003D30002384F83C3070BDFFF7B3FD801B58
:1012B0008542D7D2EDE770B504460D461646236841
:1012C0005B695B0701D5002070BD2046FFF71DFF5D
:1012D000A8B96A1CF3D065B9236C202243F020031F
:1012E000236400230320236384F83C3084F83D20EA
:1012F00070BDFFF78FFD801B8542E0D2ECE7012037
:1013000070BD000038B5044608B9012038BD90F81A
:101310003D3003F0FF021BB980F83C2001F056FC81
:101320002423226884F83D30136823F001031360FE
:1013300000F032FD63682F4A934230D82E4A904223
:10134000E3D92E4A2168B0FBF2F24A6001320A6208
:10135000284A0138934232D85B00B0FBF3F0431CBB
:10136000C3F30B03042B38BF0423CB61226AE36968
:10137000002013430B60E268236913438B60A2696A
:1013800063691343CB600B6843F001030B602023B8
:10139000206484F83D30206384F83E0038BD184A4C
:1013A0009042B2D9154D4FF49672B0FBF5F5216815
:1013B0006A434D604FF47A75B2FBF5F2C6E7A26856
:1013C00052B903EB4303B0FBF3F0431CC3F30B032D
:1013D0006BB143F40043C8E719225343B0FBF3F069
:1013E000431CC3F30B0313B143F44043BDE7012394
:1013F000BBE700BFA08601007F841E0040420F00B3
:10140000FF083D002DE9FF4104461F460D4690466A
:10141000FFF700FD94F83D300646202B04D002254E
:10142000284604B0BDE8F0810090192301225D49EF
:101430002046FFF7BFFE0028F1D194F83C30012B85
:10144000EDD0012384F83C3023681A68D2075EBFD0
:101450001A6842F001021A601A6822F400621A60E7
:10146000212284F83D20102284F83E2000222264AC
:10147000A2F580326785E262628DC4F824802285FD
:10148000E26A042A04D0012A02D012F5803F04D176
:101490001A6842F480721A6002E0226B122AF7D0B6
:1014A00000960A9B00224FF001112046FFF782FEB2
:1014B00028BB23692268B3F5804F12D105F0FE05E1
:1014C000156133460A9A38492046FFF733FE054630
:1014D000A0B9236803905A6903929B690393039B05
:1014E00050E0EB1103F0060343F0F00313612F49C2
:1014F00033460A9A2046FFF71DFE48B1236C236C41
:10150000042B4FF0000307D184F83C30012587E716
:101510002368EDB21D61D4E784F83C3003257FE7F2
:1015200032460A992046FFF773FE40B1236C042B24
:10153000F4D12268136843F400731360E6E7616A2C
:1015400020684B1C63620B78228D0361638D013B25
:101550009BB263854769531E9BB27F0723850AD5DB
:101560004BB18B1C63624B78023A0361638D228519
:10157000013B9BB2638532460A992046FFF79BFEEA
:101580000028D3D1238D002BCAD121680A6842F4E8
:1015900000720A60202284F83C3084F83D2084F8F0
:1015A0003E303DE70200100002000100080001008B
:1015B0002DE9F043044689B098460D469146109FA8
:1015C000FFF728FC94F83D300646202B04D0022576
:1015D000284609B0BDE8F083009019230122A249F2
:1015E0002046FFF7E7FD0028F1D194F83C30012BAD
:1015F000EDD0012384F83C3023681A68D2075EBF1F
:101600001A6842F001021A601A6822F400621A6035
:10161000222284F83D20102284F83E2000222264F9
:10162000A2F58032A4F82A80E262628DC4F8249088
:101630002285E26A1968042A41F48061196004D0A5
:10164000012A02D012F5803F04D11A6842F4807258
:101650001A6002E0226B112AF7D000963B46002266
:101660004FF001112046FFF7A5FD00284DD1236959
:10167000B3F5804F236839D145F00105EDB21D6106
:1016800033463A4679492046FFF754FD054600287F
:101690003AD1228D2368002A69D0012A7AD11A68AA
:1016A00022F480621A6072B6236804955A69049223
:1016B0009A690492049A1A6842F400721A6062B637
:1016C000DFF8B081238D002B5BD0032B00F2D48098
:1016D000012B7BD1324639462046FFF7BFFD00285B
:1016E00000F09380236C202B16D13EE04FEAE518E2
:1016F00008F0060848F0F0021A615D4933463A46A0
:101700002046FFF717FD48B1236C236C042B4FF0E4
:10171000000328D184F83C30012559E72368EDB255
:101720001D613A46334651492046FFF703FD024604
:101730000028E9D1236807905969204607919969E3
:1017400007910799196841F48071196000963B462A
:101750004FF00111FFF72EFD0028D6D1226848F086
:10176000F10313618CE784F83C30032530E70395DF
:101770005A6903929A690392039A1A6842F40072B2
:101780001A60202384F83D30002384F83E3084F82A
:101790003C301DE7022A1A680ED142F400621A603A
:1017A00072B6236805955A6905929A690592059A59
:1017B0001A6822F4806281E742F480621A6006951A
:1017C0005A6906929B690693069B79E7022B00965D
:1017D0003B464FF000024146204624D1FFF7EAFC89
:1017E0000028C2D172B623681A6842F400721A60E7
:1017F000626A1B69511C61621370238D013B238552
:10180000638D013B9BB2638562B6636A5A1C626258
:10181000226812691A70238D013B2385638D013B79
:101820009BB263854EE7FFF7C5FC024600289CD1BA
:1018300021680B6823F480630B6072B6636A2046EC
:10184000591C6162216809691970238D0096013B5A
:101850002385638D4146013B9BB263853B46FFF781
:10186000A9FC0028BFD080E70200100002000100A0
:101870000800010004000100324639462046FFF707
:10188000EDFC00287FF42EAF636A5A1C6262226866
:1018900012691A70238D2268013B2385638D013BF9
:1018A0009BB2638553695B077FF50CAF636A591C74
:1018B0006162AEE703682DE9F341DB07054610D40A
:1018C0002B689F075ED42B68190700F195802B6861
:1018D0005A0700F1BF80EA69002A40F02D810020FC
:1018E00014E0904C636803F00C03042B07D063688A
:1018F00003F00C03082B0CD16368DE0309D52368C1
:101900009C03DDD56B68002BDAD1012002B0BDE865
:10191000F0816B68B3F5803F10D1236843F48033C6
:101920002360FFF777FA064623689803C8D4FFF7C9
:1019300071FA801B6428F7D90320E7E79BB9236875
:1019400023F480332360236823F480232360FFF78C
:1019500061FA064623689903B2D5FFF75BFA801B4C
:101960006428F7D9E8E7B3F5A02F236803D143F43F
:1019700080232360D1E723F480332360236823F49A
:101980008023CDE7674C636813F00C0F07D06368C2
:1019900003F00C03082B10D16368DA030DD423681D
:1019A0009B0702D52B69012BAFD123686A6923F00D
:1019B000F80343EAC203236085E72A695A4B6AB1F8
:1019C00001221A60FFF726FA064623689F07ECD427
:1019D000FFF720FA801B0228F7D9ADE71A60FFF75E
:1019E00019FA0646236898077FF56DAFFFF712FADC
:1019F000801B0228F6D99FE7AA694A4C4B4BDAB103
:101A000001221A60FFF706FA0646636A9B070DD5A6
:101A10004FF4FA52464B1B68B3FBF2F3019300BF3D
:101A2000019B5A1E0192002BF9D150E7FFF7F2F902
:101A3000801B0228E9D97FE71A60FFF7EBF9064619
:101A4000636A9F077FF543AFFFF7E4F9801B022825
:101A5000F6D971E7334CE369D80024D40127E36950
:101A600043F08053E361E36903F080530093009BEC
:101A7000304E3368D90518D5EB68012B26D1236A7F
:101A800043F001032362FFF7C5F941F2883680462F
:101A9000236A9B073FD5002F3FF41DAFE36923F076
:101AA0008053E36117E70027E2E7336843F480736C
:101AB0003360FFF7AFF980463368DA05DCD4FFF70F
:101AC000A9F9A0EB08006428F6D935E7ABB9236A79
:101AD00041F2883823F001032362236A23F00403D0
:101AE0002362FFF797F90646236A9807D3D5FFF7D5
:101AF00091F9801B4045F7D91EE7052B236A03D1D6
:101B000043F004032362BAE723F001032362236A4C
:101B100023F00403B6E7FFF77DF9A0EB0800B0421D
:101B2000B6D909E700100240000042428004424258
:101B30000800002000700040224C636803F00C0392
:101B4000082B3FF4E2AE00231F4E022A33602BD154
:101B5000FFF760F90746236899011FD42B6AB3F594
:101B6000803F05D16268A96822F400320A436260AE
:101B7000696A62680B4322F47412134363600123A1
:101B80003360FFF747F9054623689A013FF5A7AE92
:101B9000FFF740F9401B0228F6D9CDE6FFF73AF9E6
:101BA000C01B0228D7D9C7E6FFF734F905462368DA
:101BB0009B017FF594AEFFF72DF9401B0228F6D963
:101BC000BAE600BF001002406000424230B5194B37
:101BD00087B002AC03F11005224618685968083333
:101BE00003C2AB421446F7D101238DF8043002231F
:101BF00011498DF805304B6803F00C02082A17D103
:101C0000C3F3834206A80244DB0312F8102C0CD560
:101C10004B680A48C3F34043504306AA134413F8E1
:101C2000143CB0FBF3F007B030BD05485043FAE771
:101C30000248F8E7E06400080010024000127A0051
:101C400000093D004D4A2DE9F0411368054603F0B7
:101C500007038B420E4628D32A68910732D4D20755
:101C600038D4464A136803F007039E4273D32A68A8
:101C7000434C12F0040F79D1130706D563682A6923
:101C800023F4605343EAC2036360FFF79FFF636876
:101C90003C4AC3F30313D35CD8403B4B186000208D
:101CA000FFF776F80020BDE8F081136823F0070302
:101CB0000B431360136803F007039942CCD0012053
:101CC000BDE8F0812E49A8684B6823F0F003034378
:101CD0004B60C4E76A682A4C012A23681CD113F4BC
:101CE000003FECD0636841F2883823F003031343CC
:101CF0006360FFF78FF86B680746012B14D16368A8
:101D000003F00C03042BACD0FFF784F8C01B404554
:101D1000F5D90320BDE8F081022A02D113F0007F3B
:101D2000DFE713F0020FDCE7022B0FD1636803F04B
:101D30000C03082B95D0FFF76DF8C01B4045F5D973
:101D4000E7E7FFF767F8C01B4045E2D8636813F088
:101D50000C0FF6D185E7136823F0070333431360B4
:101D6000136803F007039E42A9D180E76368E9681E
:101D700023F4E0630B4363607EE700BF0020024072
:101D8000001002401365000808000020014B18688D
:101D9000704700BF08000020044B054A5B68C3F38E
:101DA0000223D35C034A1068D840704700100240F9
:101DB0002365000808000020044B054A5B68C3F354
:101DC000C223D35C034A1068D84070470010024019
:101DD00023650008080000202DE9F04104468846EC
:101DE00017461D46069E2268936838EA03030CBF17
:101DF000012300239F4202D10020BDE8F0816B1C2B
:101E0000F2D055BB23685A6822F0E0025A6062683B
:101E1000B2F5827F0AD1A268B2F5004F02D0B2F5C6
:101E2000806F03D11A6822F040021A60A26AB2F5EC
:101E3000005F09D11A6822F400521204120C1A60D1
:101E40001A6842F400521A60012384F851300023CA
:101E5000032084F85030BDE8F081FEF7DBFF801BE3
:101E60008542C0D8CEE713B50B46009280210022F0
:101E70000446FFF7B1FF20B10320636D43F0200358
:101E8000636502B010BD2DE9FF411E4690F8503049
:101E90000446012B0D46904600F09C80012380F8FB
:101EA0005030FEF7B7FF074694F85100C0B2012842
:101EB00040F08E80002D4ED0B8F1000F4BD00323A0
:101EC00084F8513000236365A363A4F83680A387A8
:101ED000E38763642364A3682563B3F5004F236835
:101EE000A4F8348002BF1A6842F480421A601A686B
:101EF00052065EBF1A6842F040021A60E268B2F50C
:101F0000006F626838D11AB1E28E92B2012A06D10E
:101F100035F8022BDA60E38E013B9BB2E386E38E59
:101F20009BB293B900973346012202212046FFF766
:101F300053FF78B93A4631462046FFF794FF002810
:101F400038D020230120636505E023689A68900754
:101F5000DED44EB90320012384F85130002384F8E5
:101F6000503004B0BDE8F081711CD8D0FEF752FFAC
:101F7000C01B8642D3D8EDE71AB1E28E92B2012A95
:101F800006D115F8012B1A73E38E013B9BB2E38651
:101F9000E38E9BB2002BC5D023689A689207F0D4D9
:101FA000002ED7D0731CF3D0FEF734FFC01B86423F
:101FB000EED8CFE7A36833B903932368DA680392B6
:101FC0009B680393039B606D003018BF0120C2E73C
:101FD0000220C0E70220C4E790F85100704710B516
:101FE0000446002834D00023836290F851300BB9A6
:101FF00000F00EFE0223216884F851300B68A068BF
:1020000023F040030B606368A2690343E068034365
:102010002069034360690343E0690343206A034383
:10202000A06A034302F4007003430B60120C636A5E
:1020300002F004021A43E36A4A600B61CB69002094
:1020400023F40063CB610123606584F8513010BD37
:10205000012010BD03680020DA6842F00102DA6056
:102060001A6842F001021A60704790F83C3070B56F
:10207000012B4FF002031CD0012280F83D30036891
:1020800080F83C209A6822F47F4222F077029A601E
:102090000A68402A79D019D8102A00F093800AD80B
:1020A000002A00F08980012380F83D30002380F869
:1020B0003C30184670BD202A00F08A80302AF2D1C8
:1020C0009A6822F0700242F0370236E0702A36D069
:1020D0001BD8502A42D0602AE5D11C6A4D6824F0F2
:1020E0001004CE681C6299691A6A21F4704122F0CA
:1020F000A00242EA051241EA063199611A629A6821
:1021000022F0700242F0670217E0B2F5805F11D052
:10211000B2F5005FC7D18A684D689C68C9682A43D8
:1021200024F47F4442EA012222439A609A6842F4EE
:10213000804202E09A6822F007029A60B3E78A6858
:102140004D689C68C9682A4324F47F4442EA01220E
:1021500022439A609A6842F07702EEE74C68CE68B4
:10216000196A1D6A21F00A0125F001051D629A69AC
:10217000214322F0F00242EA06129A6119629A683B
:1021800022F0700242F05702D7E74C68CE68196A15
:102190001D6A21F00A0125F001051D629A6921439B
:1021A00022F0F00242EA06129A6119629A6822F05D
:1021B000700242F04702C0E79A6822F0700242F0D3
:1021C0000702BAE79A6822F0700242F01702B4E7F9
:1021D0009A6822F0700242F02702AEE7704770471B
:1021E00070477047036810B51A69044691070ED509
:1021F000DA6892070BD56FF002021A6101229B691F
:1022000002779B0777D0FFF7EAFF00232377236845
:102210001A69500710D5DA6851070DD56FF004021E
:102220001A6102229B69227713F4407F204668D00E
:10223000FFF7D5FF0023237723681A6912070FD50C
:10224000DA6810070CD56FF008021A610422DB6906
:102250002277990720465AD0FFF7C1FF0023237742
:1022600023681A69D20610D5DA68D0060DD56FF04A
:1022700010021A610822DB69227713F4407F20469E
:102280004BD0FFF7ACFF0023237723681A69D107EF
:1022900008D5DA68D20705D56FF0010220461A6129
:1022A00000F00AFA23681A69100608D5DA681106E0
:1022B00005D56FF0800220461A6100F0AAF8236865
:1022C0001A69520608D5DA68500605D56FF0400243
:1022D00020461A61FFF785FF23681A69910622D507
:1022E000DA6892061FD56FF020022046BDE8104044
:1022F0001A6100F08DB8FFF771FF2046FFF770FFFD
:1023000083E7FFF76BFF2046FFF76AFF92E7FFF7CF
:1023100065FF2046FFF764FFA0E7FFF75FFF204659
:10232000FFF75EFFAFE710BD1A4A036890420AD07C
:10233000B0F1804F07D0A2F59432904203D002F55D
:102340008062904215D14A6823F070031343114A0A
:1023500090420AD0B0F1804F07D0A2F5943290425B
:1023600003D002F58062904203D1CA6823F440731F
:1023700013434A6923F08003134303608B68C362ED
:102380000B688362034B984204BF0B69036301230C
:1023900043617047002C014010B50446A0B190F88D
:1023A0003D3003F0FF021BB980F83C2000F052FCE6
:1023B0000223206884F83D30211DFFF7B5FF01237B
:1023C000002084F83D3010BD012010BD90F83C3055
:1023D00010B5012B4FF0020318D080F83D30036890
:1023E0000C685A68496822F070025A605A682243A1
:1023F0005A609A6822F080029A609A680A439A604A
:10240000012380F83D30002380F83C30184610BD91
:10241000704770472DE9F0470568C2682B6901696C
:1024200023F4405313432B618368EA680B434169EB
:1024300022F4B05222F00C020B431343EB606B69A1
:10244000826923F4407313436B61404B81469D4284
:102450004FF0190446D1FFF7AFFC04FB00F3D9F8A5
:1024600004604FF06408B600B3FBF6F3B3FBF8F377
:102470001E01FFF7A1FC6043D9F804309B00B0FBBC
:10248000F3F7FFF799FC6043D9F804309B00B0FBE9
:10249000F3F3B3FBF8F308FB13731B013233B3FB05
:1024A000F8F303F0F007FFF787FC6043D9F8042046
:1024B0009200B0FBF2FAFFF77FFC6043D9F80430DA
:1024C0009B00B0FBF3F3B3FBF8F308FB13A31B0172
:1024D0003233B3FBF8F303F00F033B433344AB60F9
:1024E000BDE8F087FFF758FC04FB00F3D9F804605F
:1024F0004FF06408B600B3FBF6F3B3FBF8F31E012C
:10250000FFF74AFC6043D9F804309B00B0FBF3F7B7
:10251000FFF742FC6043D9F804309B00B0FBF3F3B3
:10252000B3FBF8F308FB13731B013233B3FBF8F36F
:1025300003F0F007FFF730FC6043D9F80420920065
:10254000B0FBF2FAFFF728FCB7E700BF0038014004
:10255000F8B504460E4617461D4621680B6836EA54
:10256000030301D10020F8BD6B1CF7D095B9236897
:102570000320DA6822F4D072DA605A6922F001028C
:102580005A61202384F8393084F83A30002384F8E3
:102590003830F8BDFEF73EFCC01B8542DDD2E6E7D1
:1025A00010B5044640B390F8393003F0FF021BB970
:1025B00080F8382000F082FB2423226884F8393028
:1025C000D368204623F40053D360FFF723FF23682A
:1025D00000201A6922F490421A615A6922F02A02F4
:1025E0005A61DA6842F40052DA602023E06384F82A
:1025F000393084F83A3010BD012010BD2DE9F0418A
:102600001F4690F839300446202B0D4690464ED197
:10261000002949D0002A47D090F83830012B46D005
:10262000012380F838300023C363212380F8393038
:10263000FEF7F0FB0646A4F82480A4F82680E38C7D
:102640009BB26BB93B46324640212046FFF780FFE4
:10265000A8B9202384F8380084F83930BDE8F08127
:10266000E38C3246013B9BB2E384A3688021B3F53F
:10267000805F20463B460ED1FFF76AFF10B1032072
:10268000BDE8F0812B882268C3F3080353602369F7
:1026900043B90235D3E7FFF75BFF0028EFD123688A
:1026A0002A785A600135CAE70120BDE8F08102208E
:1026B000BDE8F08100000000036873B5B3F1804FFE
:1026C00040F09E80584A1378022B03D001331370D8
:1026D00002B070BD00234FF47A76544C544D137001
:1026E000237000960023224688212846FEF78AFEA2
:1026F0000028F6D1322000F085FF4FF47A764D4C59
:102700004B4D009604234B4A88212846FEF750FF84
:102710000028F6D123786078474D40EA0320474BE4
:10272000C0F30D001880FDF76DFE3BA3D3E9002335
:10273000FDF7F8FF0022424BFDF7CAFEA378C5E97A
:102740000001E0783F4C40EA032020F003003E4BBC
:1027500080B21880FDF756FE00223C4BFDF7B8FE14
:102760002DA3D3E90023FDF7DDFF2DA3D3E900233B
:10277000FDF7AEFE0022364BFDF7F6FC02460B4697
:1027800034493548C1E90023344900F099FFD5E9BF
:1027900000233349334800F093FF2F48FDF7D8FC5E
:1027A0004FF47A7382B22C492F48FFF727FF2D4848
:1027B000FDF7CEFC4FF47A7382B22A492A48FFF71C
:1027C0001DFF4FF47A73022228492748FFF716FFAE
:1027D0001C4800F0FDFD264D1F4B1922022119480F
:1027E000A56000F017FD1F4B372202211548A56098
:1027F00000F010FD134800F0EEFD0028ECD167E773
:102800001C4A93427FF464AF4FF400511A4802B05F
:10281000BDE87040FEF775BC0000000080FFCF40AF
:102820000000000000A06440B4060020540900200D
:10283000B807002058080020500800200C0800208D
:10284000000059407C070020780700200000D03F9E
:10285000000044406008002056090020F064000891
:10286000F9640008680800201409002003650008C6
:102870006D65000800040040001001404FF48033F3
:1028800010B590B001220793002102240E934FF45B
:10289000E01306A8069208910A920D940F93FFF791
:1028A00009F800B1FEE70F2301934FF48063039012
:1028B0000590214601A802940493FFF7C3F904464A
:1028C00000B1FEE7FFF762FA4FF47A73B0FBF3F062
:1028D000FEF70AFB0420FEF71DFB224621464FF0BF
:1028E000FF30FEF7C1FA10B010BD000080B58AB00D
:1028F000FEF772FAFFF7C2FF794B4FF400519A6965
:10290000784842F010029A619A69002402F010029D
:102910000092009A9A69022542F020029A619A690F
:10292000012602F020020192019A9A6942F0040203
:102930009A619A6902F004020292029A9A6942F03C
:1029400008029A619B69002203F008030393039B2A
:10295000FEF7D2FB00224FF4E0616348FEF7CCFBA8
:102960004FF4005306A95F4806930995079608940B
:10297000FEF7E2FA4FF4E06309954FF4E1355A4867
:1029800006A9069307960894FEF7D6FA5748584BBF
:10299000846080E828000C23C46004614361846182
:1029A000C461FFF7FDFD00B1FEE74FF48274514BA7
:1029B000514A986083E814004FF400729A6128220B
:1029C000DA610A22D8601861586118625862986208
:1029D0001846DA62FFF703FB00B1FEE7474B484AAF
:1029E0004849986083E806004FF48042D8605861F7
:1029F0009861D861186218461A61FEF783FC00B12D
:102A0000FEE74FF0804341F61F473F4C84E88800C3
:102A100042F20F73A0602061A0612046E360FFF7DF
:102A2000BBFC00B1FEE74FF4805606A9204606968F
:102A3000FFF71BFB00B1FEE70490059004A92046B8
:102A4000FFF7C4FC00B1FEE7304D314BA86085E8CC
:102A5000880041F287332861A8612846EB60FFF7C0
:102A60009BFC00B1FEE706A928460696FFF7FDFA93
:102A700000B1FEE70490059004A92846FFF7A6FCE4
:102A800000B1FEE72046FFF7E5FA0028FAD11F4C17
:102A90002046FFF7DFFA0028FAD11E4A1E491F48D8
:102AA00000F06CFC6420FEF7BBF91C4800F090FCC1
:102AB0001A4D1B4E1B4C2346192202211748AE60AB
:102AC00000F0A8FB184B3722AB60022123461348C5
:102AD00000F0A0FB114800F07EFC0028EBD1FEE7DF
:102AE00000100240001001400008014014090020BD
:102AF000004400407C08002000300140B80700205E
:102B0000A086010000540040D408002010080020D6
:102B100000040040A52D00080C0000207C070020C8
:102B20006D65000806650008A37E0008254B07B503
:102B30009A69032042F001029A619A6902F0010247
:102B40000092009ADA6942F08052DA61DB6903F0A0
:102B500080530193019BFEF775F900226FF00B0083
:102B60001146FEF781F900226FF00A001146FEF7C8
:102B70007BF900226FF009001146FEF775F900227B
:102B80006FF004001146FEF76FF900226FF00300AA
:102B90001146FEF769F900226FF001001146FEF7B9
:102BA00063F900224FF0FF301146FEF75DF9064A47
:102BB000536823F0E06343F08063536003B05DF833
:102BC00004FB00BF00100240000001407FB5026816
:102BD0000C4B9A4213D1C023029312230393032375
:102BE00002A909480593FEF7A7F9084BDA6942F4F0
:102BF0000012DA61DB6903F400130193019B07B053
:102C00005DF804FB00540040000C0140001002403D
:102C10007FB502680D4B9A4214D103F560439A695F
:102C200002A942F480529A619B69094803F48053D7
:102C30000193019BA0230293022303930323059393
:102C4000FEF77AF907B05DF804FB00BF00300140E1
:102C500000080140036807B5B3F1804F15D103F5B3
:102C60000433DA691C2042F00102DA610022DB69D8
:102C7000114603F001030093009BFEF7F5F81C20BA
:102C8000FEF726F903B05DF804FB0A4A9342F9D136
:102C9000094B1D20DA6942F00202DA610022DB6989
:102CA000114603F002030193019BFEF7DDF81D209E
:102CB000E6E700BF00040040001002407FB5026854
:102CC000114B9A421DD103F5E633DA6902A942F4A9
:102CD0000032DA61DB690D4803F400330193019B94
:102CE000042302930223039303230593FEF724F99D
:102CF00008230293002302A9044803930493FEF7D8
:102D00001BF907B05DF804FB0044004000080140D7
:102D10007047FEE7FEE7FEE7FEE770477047704743
:102D200008B5FEF76BF8BDE80840FEF700B90000F3
:102D30000148FFF757BA00BFD40800200148FFF749
:102D400051BA00BF100800200F4B1A6842F0010270
:102D50001A6059680D4A0A405A601A6822F0847253
:102D600022F480321A601A6822F480221A605A68AB
:102D700022F4FE025A604FF41F029A604FF0006284
:102D8000034B9A60704700BF001002400000FFF83C
:102D900000ED00E000F036BC012000F02ABC0A2063
:102DA00000F027BC13B5013918468DF80720062915
:102DB00010D8DFE801F01E04122333424200FFF76F
:102DC000EEFF9DF807204FF400712348FEF794F9B9
:102DD000FFF7E5FF012002B010BD9DF807305BB999
:102DE000012000F00FFC01224FF480711A48FEF719
:102DF00083F9FFF7D1FFEDE70022F5E700224FF45A
:102E000080611548FEF778F9012000F0FBFB0122F4
:102E10004FF480611048FEF76FF9DBE742F2107360
:102E200001220DF107010D48FFF72DF80B4C20464C
:102E3000FFF7D2F80128FAD1DBE7014642F210731E
:102E40009DF807200548FFF71EF8044C2046FFF7C1
:102E5000C3F80128FAD1CCE7000801407C08002023
:102E600070B59DF8104090F83B60013C14449642C8
:102E7000E4B290F839500FD3AC4201D2A2420DD93E
:102E800090F8382090F83A00013B0B448842DBB2BE
:102E900006D2934206D201E0AC42EFD2002070BDD0
:102EA000934204D2994294BF0020012070BD0120BA
:102EB00070BD10B48C680023A446012110BC60478B
:102EC00010B48C680023A446032110BC6047002383
:102ED00010B48C681A46A446042110BC604710B494
:102EE0008C680023A4460122042110BC604710B462
:102EF0008C680023A446022110BC604710B48C6883
:102F00000023A446052110BC604710B48C6806213C
:102F1000A44610BC6047F8B505460E46571E002073
:102F200017F8014F50B9FF2C38D0224631462846B9
:102F3000FFF7E4FF0028F2D10020F8BDFF2CF4D009
:102F4000FE2CFAD0EF2CEAD8DF2C06D904F00F02C1
:102F500031462846FFF7CBFFE1E7CF2C06D904F036
:102F60000F0231462846FFF7ABFFD8E7BF2C12D936
:102F7000240102343146284604F0FE04FFF7A7FF7F
:102F80002046FFF707FF31462846FFF7A8FF2046F7
:102F9000FFF700FFC3E72306C1D4F8E70120BFE72E
:102FA000012070472DE9F0419846A2F10A03054639
:102FB0000C4616460B2B0FD8DFE803F0060E0E0E5C
:102FC0000E0E323A0E0E0E160222FFF772FF1A4A4A
:102FD00021462846FFF79FFF4346324621462846B2
:102FE000BDE8F04100F0C8BA4F68144AFFF793FFFC
:102FF0003A79214642F0B0022846FFF77FFF0122CE
:1030000021462846FFF773FF22462946384600F03E
:103010005BFA78B1002221462846FFF751FFDBE733
:10302000074A21462846FFF776FF0120BDE8F081D8
:10303000044AF6E7BDE8F081336500082B65000817
:1030400064650008596500084218435C507800EB3D
:10305000032080B2704700207047704708B5FFF723
:10306000FCFF18B1022801D0032008BD062008BDCE
:103070000621FFF7E9BF0821FFF7E6BF807A704716
:10308000C07A70472DE9F84F8468054623788A4650
:103090001846FFF7E2FF07461846FFF7DFFF012F4C
:1030A0008146204614BF4FF0FF084FF00F08FFF78E
:1030B000E5FF06462046FFF7E3FF83462046FFF77D
:1030C000DAFFBAF1600F0DD960B161262044D34513
:1030D00015D200202877E87785F820006877A87750
:1030E000BDE8F88F2046FFF7C3FFBAF1400F03D9C0
:1030F00010B120444126EAE704F11100E7E75E45FC
:10310000E7D80378FF2B05D101305E45E1D00136C9
:10311000F6B2F6E7564520D10FB1022F0BD1EB776F
:10312000437885F82030C3782B7703796B77437920
:10313000AB77BDE8F88F03F00F02023A1B09AA77BC
:103140006B77437803F00F021B0985F82020EB779B
:1031500083781B092B77BDE8F88F837808EA03038F
:103160004B441844D1E72DE9F04F0F4687B019467C
:1031700005461646FFF786FF0446002849D0AB688F
:103180001878FFF76BFF6B7F95F820A01F44AB7F8B
:10319000A6EB0A06F61A95F81F80FFB2F6B2814632
:1031A000CDF800A04346324639462846FFF758FE80
:1031B00020B995F91C0007B0BDE8F08F4FF0000B67
:1031C00008F10708C8F3C40807EBC803DBB204938F
:1031D0004C445FFA8BF3F218D2B29A450592E8D9C3
:1031E000B94603940EE0039A494612F8013B28467B
:1031F00003920093059A002300F0F8F809F10809FA
:103200005FFA89F9049B9945EDD144440BF1010B18
:10321000DFE7D0E72DE9F0411E46436A15468046B8
:103220000F46984700240544EDB2013E16F8013FD1
:1032300013B92046BDE8F08139462A464046FFF7DB
:1032400092FFC0B207440444FFB2E4B2EEE70000CC
:10325000014B4362704700BF5730000810B40C6840
:10326000A44610BC604738B504460D46436B0220A7
:10327000984729460A2200232046FFF7EFFF05461C
:10328000636B03209847636B00209847284638BD3E
:1032900070B504460D46436B02209847636B0120CE
:1032A00098472946002314222046FFF7D7FF04F150
:1032B0003803294620461722FFF7D0FF636B002012
:1032C000BDE87040184770B504460E46436B0220B7
:1032D0009847636B0120984700231522314620460A
:1032E000FFF7BCFF054630B104F138031722314621
:1032F0002046FFF7B3FF636B00209847284670BD58
:1033000007B546220DF10703FFF7A8FF9DF8070058
:1033100003B05DF804FB07B547220DF10703FFF783
:103320009DFF9DF8070003B05DF804FB00234822D1
:10333000FFF794BF10B541680446FFF7E1FF6168ED
:1033400020702046FFF7E7FF616860702046FFF7B6
:10335000EDFF04F13803E07461682046BDE81040D9
:103360001722FFF77BBF10B541680446FFF77BFFCC
:1033700018B12046FFF7DEFF012010BD2DE9F04116
:103380002223002501268560C56045740674837478
:10339000856180F8316004460F469046FFF758FF7C
:1033A000402384F82B30094B84F8286084F8295096
:1033B00084F82A5084F82C50636367602046C7F86D
:1033C0000880BDE8F041FFF7CEBF00BFF13500082F
:1033D0004168FFF75DBF836910B5044603B19847A4
:1033E00061682046BDE81040FFF76DBF70B49DF8DE
:1033F0000C60456880F82D1080F82E2080F8303061
:1034000080F82F60294670BC00F12D033B22FFF7A6
:1034100025BF002203788270013BC37002717047A0
:1034200010B58178027844781144C9B2A142817004
:103430000DD2037901330371C3781344DBB29C428C
:103440009CBF04F1FF33DBB2C370012010BD00202C
:1034500010BD0021836842791A4403F8011B9A4287
:10346000FBD1704710B5C37884788B4234BF0023FA
:103470000123914294BF0021012143EA01009442BB
:103480008CBF002000F001000B40184310BD00234A
:103490000B7083784B704379013B8B70C378CB7092
:1034A0007047CA784B78012A03D0032A07D01A46FE
:1034B00002E003F10802D2B21946FFF7D3BFA3F12D
:1034C00008011A46CBB2F7E710B40C4683681146E0
:1034D0004279204610BCFFF718BD10B5846880788B
:1034E000101A012200F007008240D2B2605C13B1D2
:1034F0000243625410BD20EA0202FAE710B40B4600
:103500004A78817891420AD8C178914207D31978D4
:1035100044798C4203D91B7910BCFFF7DEBF10BC85
:1035200070472DE9F041CB7880460C468D78032B0F
:103530001FD8DFE803F00216191C002601272B060E
:1035400003D521464046FFF7D9FF23786D003B4461
:103550002370637815F0FF0533446370EFD1BDE845
:10356000F08101260027EAE70026FF27E7E7FF268C
:10357000F8E700263746E2E7322A38B51D464C68A0
:103580001ED00CD8152A20D0172A27D0142A15D1DE
:103590002046FFF75EFF2046FFF73BFF0EE0462A7E
:1035A00021D0472A22D03B2A08D119462046FFF7CE
:1035B00078FF18B129462046FFF7B3FF012038BD38
:1035C00019462046FFF79AFFF8E72046FFF728FF45
:1035D0000028F4D02046FFF73CFFEFE719462046CD
:1035E000FFF755FFEAE763792B70E7E76378FBE7BE
:1035F000704700B970472C2300BF013BFCD1013854
:1036000080B2F6E7024608B502B908BD4FF47A70F9
:10361000FFF7EFFF013A92B2F6E70000002103E066
:103620000B4B5B58435004310A480B4B42189A42EB
:10363000F6D30A4A02E0002342F8043B084B9A42C0
:10364000F9D3FFF781FB00F00FF8FFF74FF9704750
:10365000F8A2000800000020940600209806002030
:1036600078090020FEE7000070B500250C4E0D4CD7
:10367000A41BA410A54209D102F026FF00250A4E82
:103680000A4CA41BA410A54205D170BD56F82530E4
:1036900098470135EEE756F8253098470135F2E7AF
:1036A000F0A20008F0A20008F0A20008F4A20008AE
:1036B00003460244934200D1704703F8011BF9E727
:1036C0000EB44FF4027100B59CB0ADF814106FF059
:1036D0000041049107914FF6FF711DAB02900690D7
:1036E000084853F8042BADF81610006802A901939E
:1036F00000F00AF80022029B1A701CB05DF804EB7F
:1037000003B07047240000202DE9F04FBFB0894678
:1037100015461F46824601F027FE0368184611939E
:10372000FCF716FDB9F80C300A901B0618D5D9F82D
:103730001030ABB94021504601F02CFEC9F8000012
:10374000C9F8100048B90C23CAF800304FF0FF3315
:103750000B930B983FB0BDE8F08F4023C9F81430AD
:1037600000232EAC219423932293099507930D9364
:103770000E93159314930B9312931393099D2B4659
:1037800013F8012B12B1252A40F08380099BEE1A11
:103790000DD084E84800239B33442393229B0133BC
:1037A000072B229377DC08340B9B33440B932B7845
:1037B000002B00F025870023691C1A464FF0FF3BC1
:1037C0001D460A208DF867300C934E1C0978099627
:1037D000069106992039582900F21484DFE811F087
:1037E000A50012041204AA00120412041204120406
:1037F00012041204AD0065001204B500B8001204F2
:10380000D500D800D800D800D800D800D800D800FB
:10381000D800D80012041204120412041204120474
:1038200012041204120412040C01220112042201D7
:103830001204120412041204EB00120412043C03DA
:1038400012041204120412041204A4031204120437
:103850008500120412041204120412041204120449
:10386000120412041204FE006B0022012201220144
:10387000EE006B0012041204F10012041E033E035A
:103880007203F800120483031204A6031204120444
:10389000BE031D4673E721AA4946504602F08EFA40
:1038A000002840F08E862EAC7EE701232B2209995A
:1038B0008BE70F46FBE70BB18DF86720AE0640F1B2
:1038C000A180073727F0070707F108030893D7E916
:1038D0000067002E77F1000305DA2D23764267EBAF
:1038E00047078DF867300123C7E20BB18DF86720D9
:1038F000A04B1593AB0640F13683073727F0070737
:1039000007F108030893D7E90067E8070BD556EAE3
:10391000070308D030238DF868309DF8183045F043
:1039200002058DF869300223A4E2002ABFD10123E9
:103930002022BCE745F00105B9E73E68391D002E9D
:103940000C96B6DA0F4676420C9645F00405AEE7C3
:1039500009994E1C09782A29069110D04FF0000BC6
:1039600009960699303909293FF633AF00FB0B1B46
:1039700009990E4616F8011B06910996F1E7396878
:10398000099641EAE17B043791E745F080058EE72F
:1039900000210C9106990C9E303900FB06110C9108
:1039A00009990E4616F8011B0691069909963039B9
:1039B0000929EFD90DE745F0080578E745F04005FE
:1039C00075E7099909786C2905D10999013109919F
:1039D00045F020056BE745F0100568E700263B1D24
:1039E00008933B688DF867608DF890304FF0010BBD
:1039F00037460DF190081CE10BB18DF8672045F0BA
:103A000010055BE715F0100F07F1040303D03E68C3
:103A10000893F7175DE73E6815F0400F089318BF4D
:103A200036B2F6E70BB18DF86720073727F00707A6
:103A300007F1080308933B684FF0FF320D937B6852
:103A40000D9F0E930E9B384623F0004631464A4B9D
:103A5000FCF7D8FF002840F0DC854FF0FF32464BE2
:103A600038463146FCF7B0FF002840F0D285129A64
:103A7000139B0D980E99FCF79DFF10B12D238DF827
:103A800067303E4B3E4A06994FF0030B4729CCBFA7
:103A900090469846002625F080053746C9E0BBF1E0
:103AA000FF3F26D0069B23F02003472B04D1BBF118
:103AB000000F08BF4FF0010B45F4807317930E9B66
:103AC0001F1E0D9BA8BF10970F93BDBF3B4603F170
:103AD000004310930023B8BF2D231693069B23F0B9
:103AE0002007462F08D0452F42D10BF101060223B3
:103AF00004E04FF0060BDFE75E4603231FAA0492A3
:103B00001CAA03921BAA02928DE848000F9A109BF0
:103B1000504600F055FE472F804602D1E80740F19D
:103B2000858508EB0603462F079311D198F80030DE
:103B3000302B09D1129A139B0F981099FCF730FF84
:103B400010B9C6F101061B96079A1B9B1A440792EF
:103B5000129A139B0F981099FCF722FF90B930220C
:103B60001F9B079999420FD9591C1F911A70F7E7AB
:103B70005E46BCE78DA00008FFFFEF7F7DA0000838
:103B800081A00008079B1F931F9B472FA3EB0803EF
:103B9000079340F000811B9BD91C02DB9B4580F200
:103BA0002681069B023B06931B9A9DF81810531E14
:103BB000002BA8BF2B221B93BCBFC2F101032D22F7
:103BC000092B8DF874108DF8752040F300810A26BA
:103BD0000DF1830293FBF6F006FB1033092803F185
:103BE000300302F8013C02F1FF31034600F3E880A4
:103BF000303301F8013C023A0DF176030DF18300F8
:103C000082421946C0F0DE80079A1DABCB1A012A0A
:103C1000149303EB020B02DC15F0010702D000271E
:103C20000A9B9B44169B13B12D238DF86730002609
:103C3000179D5E453346B8BF5B460F939DF86730CE
:103C400013B10F9B01330F9315F0020316931EBFA0
:103C50000F9B02330F9315F08403179318D10C9B1D
:103C60000F9A9B1A002B109312DD109B102BAB4B5D
:103C7000236000F3D981109B109A6360239B134447
:103C80002393229B0133072B229300F3E681083410
:103C90009DF8673073B10DF1670323600123636002
:103CA000239B01332393229B0133072B229300F3A1
:103CB000DE810834169B6BB11AAB2360022363606C
:103CC000239B02332393229B0133072B229300F380
:103CD000D8810834179B802B18D10C9B0F9A9B1A04
:103CE000002B109312DD109B102B8D4B236000F3E3
:103CF000D281109B109A6360239B13442393229BD1
:103D00000133072B229300F3DF810834A6EB0B0667
:103D1000002E0FDD824B102E236000F3DF81229BEB
:103D2000239801336660072B06442396229300F301
:103D3000EC810834EB0500F1F281239B84E8000953
:103D40005B442393229B0133072B229340F3198476
:103D500021AA4946504602F031F8002840F031844B
:103D60002EAC6B0700F110840B9B0C9A0F998A42C2
:103D7000ACBF9B185B180B93239B3BB121AA494610
:103D8000504602F01BF8002840F01B840023089FD7
:103D900022932EACF2E4069B652B7FF705AF069BC2
:103DA000662B24D11B9B002B19DDBBF1000F01D129
:103DB000EA0702D50A9A13445B441B9F9B4631E7EE
:103DC0000A4607E712F8011B03F8011B18E7302227
:103DD00013448DF876208DF877301EA914E7BBF1D7
:103DE000000F01D1EB0715D50A9B0133E4E71B9ABD
:103DF000079B9A4206DBEF070ED50A9B1344672206
:103E00000692DAE7079B0A99002A0B44F7DCC2F115
:103E10000102F3E70123D0E71346F0E70BB18DF879
:103E2000672015F0200F07F1040308D00B993A68BA
:103E3000CE1708463146C2E900011F469EE4EE0651
:103E400003D53A680B991160F7E76806F9D53A6827
:103E5000BDF82C101180F0E745F0100515F0200397
:103E600022D0073727F0070707F108030893D7E99F
:103E70000067002300228DF86720BBF1FF3F00F0B0
:103E8000DB8325F080020F9256EA070240F0D983C7
:103E9000BBF1000F00F0AA80012B76D0022B00F0BE
:103EA000918000260027D2E33A1D15F010010892F8
:103EB00002D03E680027DDE715F04003F9D03E88C8
:103EC0000027D6E73B1D0893302378228DF8683011
:103ED000144B3E681593002745F002058DF86920C4
:103EE00002230692C6E700263B1DBBF1FF3F089365
:103EF000D7F800808DF867600AD05A4631464046B0
:103F000001F054FC002800F08D80A0EB080BC4E504
:103F10004046FCF71DF98346BFE500BFB1A000088D
:103F2000C1A000089EA0000845F01005A90609D50B
:103F3000073727F0070707F108030893D7E9006759
:103F4000012397E73B1D15F0100F089301D03E6841
:103F500002E06A06FBD53E880027F1E70BB18DF839
:103F60006720A34BC5E43B1D15F0100F089301D04B
:103F70003E6802E06E06FBD53E880027C5E4434656
:103F800066E3002F08BF0A2E05D230360DF1F8087F
:103F900008F8416D77E30DF1B808304639460A223A
:103FA0000023FCF76DFD303208F8012D0023304668
:103FB00039460A22FCF764FD06460F4656EA070317
:103FC000EBD160E3002600270DF1B808159A06F042
:103FD0000F03D35C3A0908F8013D330943EA07733C
:103FE0001E46174656EA0703F0D14CE33BB9EA07F1
:103FF00005D530230DF1F80808F8413D43E30DF1F4
:10400000B80840E30BB18DF86720069B002B00F049
:10401000F78200269DF818308DF867608DF8903093
:104020000897E3E4064638E510236360239B1033CA
:104030002393229B0133072B229304DC0834109B2B
:10404000103B109311E621AA4946504601F0B6FEF6
:10405000002840F0B6822EACF1E721AA494650462E
:1040600001F0ACFE002840F0AC822EAC10E621AA94
:104070004946504601F0A2FE002840F0A2822EAC34
:1040800018E621AA4946504601F098FE002840F063
:1040900098822EAC1EE610236360239B103323937B
:1040A000229B0133072B229304DC0834109B103B26
:1040B000109318E621AA4946504601F07FFE0028D9
:1040C00040F07F822EACF1E721AA4946504601F02C
:1040D00075FE002840F075822EAC17E61023636051
:1040E000239B10332393229B0133072B229302DC63
:1040F0000834103E0EE621AA4946504601F05EFE05
:10410000002840F05E822EACF3E721AA49465046D3
:1041100001F054FE002840F054822EAC0AE6069BC3
:10412000652B40F3A981129A139B0D980E99FCF709
:1041300037FC002862D02F4B236001236360239B50
:1041400001332393229B0133072B229325DC083470
:104150001B9B079A934202DBEE077FF502AE119B91
:104160000A9A23600A9B6360239B13442393229B38
:104170000133072B22931ADC0834079B5E1E002EA6
:104180007FF7EFAD4FF010081B4F102E276018DCA3
:104190006660239B1E442396D4E521AA49465046D7
:1041A00001F00CFE002840F00C822EACD0E721AAD2
:1041B0004946504601F002FE002840F002822EAC33
:1041C000DBE7239BC4F8048010332393229B013345
:1041D000072B229302DC0834103ED6E721AA494679
:1041E000504601F0EBFD002840F0EB812EACF3E7E8
:1041F0009EA00008AFA00008C1A000081B9B002BD8
:104200007ADC9B4B236001236360239B0133239360
:10421000229B0133072B229344DC08341B9B23B9D8
:10422000079B13B9E8077FF59CAD119B0A9A2360A1
:104230000A9B6360239B13442393229B0133072B28
:10424000229339DC04F108031B9E002E19DA102496
:10425000884F7642102E1F6038DC239A5E60164429
:10426000229A23960132072A03F10803229208DDDD
:1042700021AA4946504601F0A1FD002840F0A18145
:104280002EAB079A07995A60239AC3F800800A4414
:104290002392229A0132072A22923FF759AD03F165
:1042A00008045EE521AA4946504601F087FD002832
:1042B00040F087812EACB1E721AA4946504601F073
:1042C0007DFD002840F07D812EABBDE7239A5C6028
:1042D00010322392229A0132072A229202DC0833FA
:1042E000103EB7E721AA4946504601F067FD002875
:1042F00040F067812EABF3E7079BBB42A8BF3B466C
:10430000002B1E460BDD6360239BC4F80080334402
:104310002393229B0133072B22935FDC0834002E6A
:10432000B4BF3E46BE1B002E0FDDDFF848B1102E95
:10433000C4F800B05CDC239B66601E44229B23967D
:104340000133072B22936ADC08341B9B079A9342A4
:1043500001DBE9070DD5119B0A9A23600A9B636074
:10436000239B13442393229B0133072B229360DC6E
:104370000834079B079ADE1B1B9BD31A9E42A8BFDB
:104380001E46002E0BDD239B474433442393229B80
:1043900027600133072B6660229354DC08341B9B93
:1043A000079A002EA2EB0303B4BF1E469E1B002EED
:1043B0007FF7D7AC4FF010082E4F102E27607FF7F5
:1043C000E7AE239BC4F8048010332393229B013370
:1043D000072B229341DC0834103EEEE721AA494620
:1043E000504601F0EBFC002840F0EB802EAC96E745
:1043F00010236360239B10332393229B0133072BED
:10440000229302DC0834103E91E721AA4946504627
:1044100001F0D4FC002840F0D4802EACF3E721AAB0
:104420004946504601F0CAFC002840F0CA802EAC34
:104430008BE721AA4946504601F0C0FC002840F015
:10444000C0802EAC95E721AA4946504601F0B6FC43
:10445000002840F0B6802EACA1E721AA494650467C
:1044600001F0ACFC002840F0AC802EACB4E700BFFB
:10447000AFA00008C1A00008079B012B01DCEA07E0
:1044800076D501236360239BC4F800800133239316
:10449000229B0133072B229336DC0834119B0A9AA6
:1044A00023600A9B6360239B13442393229B013365
:1044B000072B229331DC0834139B129A0D980E9926
:1044C000FCF76EFA079B5E1E00282FD108F101034E
:1044D00084E84800239B079A013B13442393229BC3
:1044E0000133072B22934ADD21AA4946504601F0A9
:1044F00065FC002865D12EAC1DAB2360149B149A7B
:104500006360239B13441CE421AA4946504601F0F2
:1045100055FC002855D12EACC0E721AA494650468B
:1045200001F04CFC00284CD12EACC5E7002EE3DD99
:104530004FF01008584F102E276004DC239B666054
:104540001E442396CBE7239BC4F8048010332393A7
:10455000229B0133072B229302DC0834103EEAE74A
:1045600021AA4946504601F029FC50BB2EACF5E784
:1045700001236360239BC4F800800133AEE7083455
:10458000BAE70834FFF7EDBB0C9B0F9A9D1A002D7C
:104590007FF7EAAB1026414B102D23601BDC239BD9
:1045A00065601D44229B23950133072B22937FF7DF
:1045B000DBAB21AA4946504601F000FC00283FF43D
:1045C000D3ABB9F80C3013F0400F0B9B18BF4FF072
:1045D000FF33FFF7BDB8239B666010332393229B04
:1045E0000133072B229302DC0834103DD3E721AAC4
:1045F0004946504601F0E2FB0028E2D12EACF4E738
:10460000239B002BDDD021AA4946504601F0D6FB62
:10461000D7E70D9A0E9B0D980E99FCF7F3F9002839
:104620003FF43DAA1E4B1F4AFFF72DBA1F9BA3EB79
:1046300008030793FFF7AFBA56EA07020F953FF456
:104640002BAC012B3FF49DAC022B3FF4BDAC2EAB49
:10465000F10841EA4771F80806F0070207460E46DE
:10466000303256EA070103F1FF3803F8012C7FF4DA
:1046700086AC0F99C90706D5302A04D0302208F835
:10468000012CA3F102082EAB5E460F9DA3EB080B95
:104690000027FFF7CEBA00BFC1A00008B1A00008F4
:1046A00085A0000889A000082DE9F74F03690C696F
:1046B00080469C4200F38280013C01F1140700F126
:1046C000140657F8245056F824000135B0FBF5F5D0
:1046D0004FEA840E06EB0E0307EB0E0901938DB330
:1046E0004FF0000A3846B446D34650F8042B93B234
:1046F00005FB03A3120C4FEA134A05FB02A29BB26F
:10470000ABEB0303BCF800B04FEA124A5B441FFA5C
:1047100082FBDCF800208145CBEB124202EB234206
:104720009BB243EA02434FEA224B4CF8043BDCD2F3
:1047300056F80E3033B9019B043B9E421A4631D3E2
:10474000C8F81040404601F060FA002826DB3046E9
:104750004FF0000E013557F8041BD0F800C08BB2A3
:10476000AEEB03031FFA8CF213440A0CC2EB1C429B
:1047700002EB23429BB243EA0243B9454FEA224E81
:1047800040F8043BE7D256F8242006EB84032AB90C
:10479000043B9E421A460BD3C8F81040284603B08B
:1047A000BDE8F08F1268043B002AC9D1013CC4E780
:1047B0001268043B002AEFD1013CEAE70020EEE753
:1047C0002DE9F04F466A95B00446219DCDE90223BC
:1047D0003EB9102000F0D6FD60624660866006603B
:1047E000C660636A196851B15A68012393404A60F0
:1047F0008B60204601F034F80022636A1A60039B44
:10480000002BB7BF012300232B60039BAEBF2B609F
:1048100023F000430393DDF80C90AB4B33EA09031C
:104820001BD142F20F73209A1360029B23B9C9F384
:104830001300002800F08385229B53B9A34B21E08D
:10484000A34B06930833229A1360069815B0BDE86F
:10485000F08F9E4B06930333F5E7DDE902670022F4
:10486000002330463946FCF79BF8804660B10123AF
:10487000209A1360229B002B00F05E85954B229AB4
:104880001360013B0693E0E712AB019313AB009377
:1048900032463B46204601F031FAC9F30A558246BA
:1048A000002D7DD03046C7F3130343F07F5141F410
:1048B0004011A5F2FF35CDF840800022864BFBF772
:1048C00053FC7BA3D3E90023FBF702FE7AA3D3E9D1
:1048D0000023FBF74BFC064628460F46FBF792FDEC
:1048E00077A3D3E90023FBF7F3FD02460B463046DE
:1048F0003946FBF73BFC06460F46FCF799F80022C9
:104900008346002330463946FCF754F858B15846E0
:10491000FBF778FD02460B4630463946FCF740F877
:1049200008B90BF1FF3BBBF1160F58D8DDE90223A4
:104930006A4901EBCB01D1E90001FCF759F80028E5
:104940004FD000230BF1FF3B0D93129B5D1B6B1EA1
:10495000079343BF0023C5F1010807934FF00008F8
:10496000BBF1000F3FDB079BCDF830B05B440793F2
:10497000002308931E9B092B00F2B480052BC4BFB3
:10498000043B1E931E9BC8BF0026A3F10203D8BFA1
:104990000126032B00F2B280DFE803F084862D7835
:1049A000139B129D1D4405F23243202B11DD029A08
:1049B00005F21240C3F1400322FA00F009FA03F3B2
:1049C0001843FBF70FFD0123A1F1F871013D10938E
:1049D00073E7C3F12000029B03FA00F0F1E7012323
:1049E000B2E70D90B1E7CBF1000308930023A8EBE9
:1049F0000B080C93BEE7012309931F9B002B40F388
:104A000080809946049300220421656A6A6001F15E
:104A100014029A427AD96968204600F0EDFE636A72
:104A200028601B68B9F10E0F069300F2F080002E8B
:104A300000F0ED80DDE90223BBF1000FCDE90E238C
:104A400079DD264A0BF00F034FEA2B1602EBC30366
:104A5000F006D3E90023CDE90A235CD5DDE90E0198
:104A60001F4B0325D3E90823FBF75CFECDE90201C8
:104A700006F00F061A4F002E4FD1DDE90A23DDE9BB
:104A80000201FBF74FFECDE902016EE0012309931D
:104A90001F9B5B4403F1010904934B46012BB8BFF4
:104AA0000123B0E70023A7E70023F0E7AFF300807E
:104AB00061436F63A787D23FB3C8608B288AC63F24
:104AC000FB799F501344D33F0000F07FDAA0000829
:104AD000D1A00008B0A000080000F83F08A100081D
:104AE000E0A000080126002309961E934FF0FF3333
:104AF00000220493994612231F9284E7012309930D
:104B0000F4E70123049399461A46F5E76A684900D9
:104B100001326A607BE70225ACE7F10708D5DDE9E1
:104B20000A01D7E90023FBF7D3FCCDE90A010135DF
:104B3000761008379FE700F0A580DDE90E01CBF184
:104B40000006A24B06F00F0203EBC203D3E90023D9
:104B5000FBF7BEFC02250023CDE902019C4F361174
:104B6000002E40F08480002B8DD10D9B002B00F097
:104B70008B80DDE90223CDE90A23DDE90A01002269
:104B8000944BFBF717FF00287ED0B9F1000F7BD0C4
:104B9000049B002B37DDDDE90A0100228E4BFBF779
:104BA00097FCCDE90201049E0BF1FF370135284641
:104BB000FBF728FCDDE90223FBF78AFC874B002288
:104BC000FBF7D4FACDE90A010B9BA3F150750B95C5
:104BD000002E5CD1DDE902010022814BFBF7C4FA13
:104BE0000A9A2B46CDE90201FBF702FF002840F0AC
:104BF000F782DDE902010A9A05F10043FBF7DAFECC
:104C0000002840F0EB82DDE90E23CDE90223139B5F
:104C1000002BC0F25081BBF10E0F00F34C816B4BA7
:104C200003EBCB03D3E90023CDE904231F9B002B27
:104C300080F2DA80B9F1000F00F3D68040F0CD8227
:104C4000DDE904010022664BFBF742FCDDE90223AB
:104C5000FBF7C4FE4E464F46002840F0A482069B58
:104C6000069A5D1C31230BF1010B13709FE2F207D2
:104C700005D5D7E90023FBF72BFC0123013576107E
:104C800008376DE7022570E75F464E468FE7069AC4
:104C90004E4B32441192099A711E002A48D003EB00
:104CA000C103D3E9002300204E49FBF73BFDDDE9BA
:104CB0000A23FBF759FACDE90A01069DDDE9020155
:104CC000FBF7B6FE0646FBF79DFB02460B46DDE909
:104CD0000201FBF749FADDE90A23303605F8016BDA
:104CE000CDE90201FBF766FE002864D1DDE902236D
:104CF00000203849FBF738FADDE90A23FBF75AFEB2
:104D0000002840F0B980119B9D423FF47CAFDDE963
:104D10000A010022304BFBF7DBFB0022CDE90A0140
:104D2000DDE902012C4BFBF7D3FBCDE90201C5E71E
:104D300003EBC101D1E90001DDE90A23FBF7C8FB60
:104D4000CDE90A01069DDDE90201FBF771FE064689
:104D5000FBF758FB02460B46DDE90201FBF704FABC
:104D60003036119B05F8016BAB42CDE902014FF0E3
:104D7000000224D11B4BDDE90A01FBF7F7F90246DB
:104D80000B46DDE90201FBF733FE002874D1DDE9B3
:104D90000A2300201349FBF7E7F902460B46DDE939
:104DA0000201FBF707FE00283FF42DAF15F8013C88
:104DB0006A1E302B01D0BB464DE01546F6E7064B88
:104DC000FBF786FBCDE90201BDE700BF08A10008A3
:104DD000E0A000080000F03F0000244000001C405C
:104DE000000014400000E03F069DDDE90267DDE9B8
:104DF000042330463946FBF795FCFBF719FE804645
:104E0000FBF700FBDDE90423FBF762FB02460B46E0
:104E100030463946FBF7A8F908F1300605F8016B72
:104E2000069E0246AE1BB1450B4637D1FBF79EF9F5
:104E300006460F4602460B46DDE90401FBF7BAFDC4
:104E4000C8B9DDE9040132463B46FBF7A9FD10B1C4
:104E500018F0010F0FD15146204600F001FD00234C
:104E6000209A2B700BF101031360229B002B3FF45F
:104E7000ECAC1D60E9E45F4615F8012C6B1E392A85
:104E800006D1069A9A4207D1302313701346013790
:104E90001A7801321A708EE71D46EDE70022B54BF5
:104EA000FBF716FB0022002306460F46FBF778FDB2
:104EB00000289CD0CFE7099A002A00F029811E9A89
:104EC000012A00F30E81109A002A00F0068103F2F5
:104ED00033434546089E079A01211A4420469844C8
:104EE000079200F05DFD0746002D0BDD079B002BB0
:104EF00008DDAB42A8BF2B46079AA8EB0308ED1AC2
:104F0000D31A0793089BFBB1099B002B00F0048187
:104F1000002E11DD39463246204600F0D7FD5246BC
:104F200001460746204600F044FD51460A902046BF
:104F300000F096FC0A9B9A46089B9A1B04D05146A7
:104F4000204600F0C3FD82460121204600F028FDE6
:104F50000C9B0646002B40F3E1801A460146204692
:104F600000F0B4FD1E9B0646012B40F3DA800023BF
:104F70000893336906EB8303186900F0C3FCC0F1A2
:104F80002000079B184410F01F0000F0F080C0F1D3
:104F90002003042B40F3E280079BC0F11C008044F7
:104FA000054403440793B8F1000F05DD514642461E
:104FB000204600F0D9FD8246079B002B05DD3146D7
:104FC0001A46204600F0D0FD06460D9B002B00F04F
:104FD000D3803146504600F018FE002880F2CC8085
:104FE000002351460A22204600F051FC099B0BF198
:104FF000FF3B8246002B00F0A981002339460A229C
:10500000204600F044FC049B0746002B03DC1E9B5B
:10501000022B00F3B980002D05DD39462A462046D3
:1050200000F0A2FD0746089B002B00F01081796874
:10503000204600F0E1FB05463A6907F10C01023217
:1050400092000C3000F0C0FB01222946204600F0FF
:105050008BFD07970746029BDDF8188003F00103DC
:10506000089331465046FFF71FFB0799054600F1AC
:105070003009504600F0C9FD3A46029031462046BC
:1050800000F0DDFDC3680246002B40F0E2800146DF
:105090000990504600F0B9FD0346099A1146204692
:1050A000099300F0DDFB099B002B40F0D4801E9A91
:1050B000002A40F0D080089A002A40F0CC80B9F154
:1050C000390F00F0E880029B002B01DD05F131096A
:1050D00008F1010588F800906BE0129BC3F13603DC
:1050E000F7E6089B09F1FF36B342B7BF089B9E1B4A
:1050F000F21A0C9BBFBF08969B180C930026B9F1BF
:10510000000FB9BFA8EB0905002345464B46E2E670
:10511000089E4546099FE7E6089A10E71E9B012B6B
:1051200018DC029BB3B9039BC3F31303A3B9039B1E
:1051300023F000431B0D1B052BB1079B08F1010851
:1051400001330793012308930C9B002B7FF411AFCD
:10515000012016E70023F6E7029BF4E73FF423AFB4
:10516000079A1C331A4498441D4413461AE7034611
:10517000F6E700BF00002440B9F1000F33DC1E9BAE
:10518000022B30DDCDF81090049B63B93146052227
:10519000204600F07CFB01460646504600F035FDF7
:1051A00000283FF75CAD1F9B069D6FEA030B0023B1
:1051B00007933146204600F053FB002F3FF44BAEDF
:1051C000079B2BB1BB4203D01946204600F048FB99
:1051D0003946204600F044FB3DE600263746E2E72C
:1051E000BB4637463BE5099BCDF81090002B7FF47A
:1051F00012AF069D31465046FFF756FA069B00F166
:10520000300905F8019B049AEB1A9A4200F3818059
:10521000069B012AACBF9B180133984600230793D5
:1052200051460122204600F09FFC3146824600F0A4
:10523000ECFC002834DC02D119F0010F30D14546D6
:1052400015F8013C6A1E302BB3D11546F8E73846F5
:10525000FFE6012322E7029A002A04DB28D11E9AE6
:1052600032BB089A22BB002B7FF732AF5146012296
:10527000204600F079FC3146824600F0C6FC00284A
:1052800005DC7FF425AF19F0010F3FF421AFB9F130
:10529000390F7FF41BAF392308F1010808F8013CEE
:1052A000454615F8013C6A1E392B3AD001333FE0E0
:1052B000002B08F1010505DDB9F1390FEBD009F13B
:1052C000010907E7069B049AEB1A9342A84605F8E2
:1052D000019CA5D0514600230A22204600F0D7FAAF
:1052E000079B8246BB424FF00A024FF0000307992A
:1052F000204604D100F0CBFA07900746B1E600F053
:10530000C6FA002307900A223946204600F0BFFA69
:10531000F3E7514600230A22204600F0B8FA8246FD
:1053200068E7069B934205D13123069A0BF1010BE6
:1053300013703EE71546B4E7094BFFF7A3BA229B6B
:10534000002B7FF47DAA074BFFF79CBA049B002B30
:105350003FF74FAF1E9B022B7FF74BAF14E700BF09
:10536000AFA00008D1A00008044B1B68186A044BCA
:10537000002808BF1846F030704700BF2400002006
:1053800028050020024B0146186800F003B800BF52
:10539000240000202DE9F74F01F10B04162C814663
:1053A00007D934F0070405D50C23C9F800300026CE
:1053B00031E110248C42F7D3484600F011FAB4F5DD
:1053C000FC7F9B4D36D204F108022A445668A2F1B4
:1053D00008018E424FEAD40302D1D668B24210D0FF
:1053E0007368F268B16823F00303CA6033449160C4
:1053F0005A6842F001025A60484600F0F7F9083650
:1054000009E102338B4A2E69114696426DD07068CD
:1054100020F00300071B0F2F47DD331944F0010470
:1054200074606B612B61DA609A6047F001025A6028
:105430003750E1E7630A2AD0042B12D8A309383386
:105440005A1C05EBC2025668A2F10800864206D03B
:10545000726822F00302111B0F291CDD013B01338E
:10546000D0E7142B01D85B33EAE7542B02D8230B87
:105470006E33E5E7B3F5AA7F02D8E30B7733DFE7B6
:1054800040F25452934204D8A30C7C33D8E73F2314
:10549000D6E77E23D4E70029F16804DBB368D9603E
:1054A0008B60B318A4E70E46D0E7002F6A612A612B
:1054B00005DB3044436843F0010343609CE7B0F5EB
:1054C000007F44D20122C008871002FA07F76A68F9
:1054D00001303A436A6055F8307005EBC002083A73
:1054E000F260B76045F83060FE6001209A1000FA63
:1054F00002F26868824200F29F80024206D123F0E5
:1055000003035200024203F10403FAD005EBC30C7B
:10551000E0469E46D8F80C60464553D10EF1010E88
:105520001EF0030F08F10808F4D1980779D16B68D1
:1055300023EA02036B606868520082427CD8002A2A
:105540007AD073460242E1D104335200FAE7420AAC
:10555000042A15D882093832571C55F8377005EBE4
:10556000C20EBE4526D10120921000FA02F26868F0
:1055700010436860C6F80CE0B760CEF80860B3E787
:10558000142A01D85B32E7E7542A02D8020B6E32A4
:10559000E2E7B2F5AA7F02D8C20B7732DCE740F22D
:1055A0005457BA429ABF820C7C327E22D4E7BF683D
:1055B000BE4504D07A6822F003029042F7D3D7F8B0
:1055C0000CE0D7E77068F76820F00300A0EB040A4E
:1055D000BAF10F0F10DDB268331944F001047460A2
:1055E000D760BA604AF001026B612B61D9609960A3
:1055F0005A6046F800A0FFE6BAF1000F0FDB304416
:10560000436843F00103436056F8083F4846DF60B3
:10561000BB6000F0EBF8304603B0BDE8F08F3E46CB
:105620007AE75CF80809013B84453FF47EAF82E7E6
:105630001801002020010020D5F808B0DBF8046034
:1056400026F00306B44203D8331B0F2B00F39580DA
:105650004F4A0BEB060317684E4A10371168274470
:10566000013105D04C4901390F44013149420F4005
:10567000394648460192009300F090FBB0F1FF3F9D
:10568000804655D0009B019A834201D9AB454FD14A
:10569000424843450168824607EB010EC0F800E02E
:1056A0003F4913D10B4211D1AB683E4446F001068D
:1056B0005E603C4ADAF8003011688B4288BF1360A4
:1056C000394A11688B4288BF136031E0106801309D
:1056D0001BBFA8EB03037344C2F80080CAF8003074
:1056E00018F007001CBFC0F1080080442A4B474453
:1056F00018440F40C71B3946484600F04FFB431C77
:1057000004BF40460027DAF80030A0EB08003B4415
:10571000074447F00107AB45C5F80880CAF80030D8
:10572000C8F80470C5D00F2E10D80123C8F8043073
:10573000AB685A6822F003029442A2EB040301D83A
:105740000F2B1ADC484600F051F830E60522DBF852
:1057500004300C3E26F0070603F001033343CBF878
:1057600004300F2E0BEB06035A609A60A1D90BF19F
:105770000801484600F020FC9BE7AE6844F00102B7
:1057800043F0010334447260AC60636034E600BFF0
:105790006807002020050020800000003807002056
:1057A0007F000000600700206407002010B5C9B228
:1057B00002449042034601D1002010BD1C78013004
:1057C0008C42F6D1184610BD10B5431E0A449142D2
:1057D00000D110BD11F8014B03F8014FF7E70000AD
:1057E000014800F0A5BC00BF6E090020014800F090
:1057F000A0BC00BF6E09002070B5456A04460E4685
:105800003DB91020FFF7BEFD606245608560056010
:10581000C560656AEB6883B1636ADB6853F826008C
:10582000B8B9012101FA06F56A1D9200204600F080
:105830003FFB60B1466085600EE0212204212046D6
:1058400000F036FB636AE860DB68002BE4D10020DF
:1058500070BD026843F8262000230361C36070BD59
:1058600070B5446A06460D463CB91020FFF78AFD24
:105870007062446084600460C4603DB1736A6A68A9
:10588000DB6853F82210296043F8225070BD2DE9DF
:10589000F0411F4606460C4600230D6901F1140E27
:1058A000DEF80000013381B202FB0171000C0F0C25
:1058B00002FB007089B201EB00419D424FEA1047A4
:1058C0004EF8041BECDCD7B1A3689D4212DB616883
:1058D00030460131FFF790FF8046226904F10C0148
:1058E000023292000C30FFF76FFF21463046FFF77F
:1058F000B7FF444604EB850301355F61256120460F
:10590000BDE8F081020C12040346B2B90304102072
:1059100013F07F4F04BF1B02083013F0704F04BF19
:105920001B01043013F0404F04BF9B000230002BDA
:1059300006DB5B0003D5013070470020E8E720203C
:1059400070470368014613F007020BD0DA0723D42F
:10595000980749BF5B089B0801200B605CBF0B6088
:105960000220704798B2A8B910201B0C13F0FF0F4B
:1059700004BF1B0A08301A0704BF1B0904309A072A
:1059800004BF9B080230DA0702D45B0806D001305E
:105990000B6070471046E9E70020704720207047F1
:1059A00010B50C460121FFF727FF01224461026177
:1059B00010BD2DE9F74F14460A69236989469A42BA
:1059C000BEBF0B46A1461C46D9F81070D4F810A0F3
:1059D000D9F80830D9F8041007EB0A069E42C8BF70
:1059E0000131FFF709FF00F114052B46002205EBFA
:1059F0008608434516D304F1140209F1140102EBA1
:105A00008A0301EB87070193019C134694420CD84B
:105A1000002E03DD58F8043D002B54D0066103B07E
:105A2000BDE8F08F43F8042BE3E7B3F800A004329D
:105A3000BAF1000F20D0AE4689464FF0000C59F85D
:105A4000044BBEF800B0A3B20AFB03B34FEA144BF9
:105A5000DEF8004063444FEA144C0AFB0BC404EB2D
:105A600013449BB243EA04434F454FEA144C4EF8AB
:105A7000043BE4D8CEF800C032F8029CB9F1000F24
:105A80001FD0AE468C464FF0000A2B68BCF8004091
:105A9000BEF802B09BB209FB04B4A24443EA0A4335
:105AA0004EF8043B5CF8043BBEF800401B0C09FBBD
:105AB0000343674503EB1A434FEA134AE6D8CEF88F
:105AC00000300435A0E7013EA2E700002DE9F843CD
:105AD000154612F0030206460F4607D0214C013A44
