:020000040800F2
:10000000000001209D350008ED350008ED350008A1
:10001000ED350008ED350008ED3500080000000062
:10002000000000000000000000000000ED350008A6
:10003000ED35000800000000ED3500081D35000812
:10004000ED350008ED350008ED350008ED35000808
:10005000ED350008ED350008ED350008ED350008F8
:10006000ED350008ED350008ED3500082D350008A8
:10007000ED350008ED350008ED350008ED350008D8
:10008000ED350008ED350008ED350008ED350008C8
:10009000ED350008ED350008ED350008ED350008B8
:1000A0004535000839350008ED350008ED35000804
:1000B000493500080000000000000000ED35000890
:1000C000ED3500080000000000000000ED350008DC
:1000D00000000000ED350008ED35000800000000CC
:1000E000ED350008ED3500080000000000000000BC
:1000F0000000000000000000000000000000000000
:10010000000000000000000000000000ED350008C5
:100110000000000000000000ED350008ED3500088B
:10012000ED350008ED350008ED350008ED35000827
:10013000ED35000800000000000000000000000095
:10014000ED350008ED350008ED350008ED35000807
:10015000ED350008ED350008ED350008ED350008F7
:10016000ED350008ED350008ED3500080000000011
:10017000ED350008ED35000800000000000000002B
:0C018000ED350008ED350008ED350008F5
:1001900010B5054C237833B9044B13B10448AFF3C1
:1001A00000800123237010BD7406002000000000B1
:1001B0003471000808B5034B1BB103490348AFF382
:1001C000008008BD0000000078060020347100089F
:1001D00001F0FF01102A2BDB10F0070F08D010F8F8
:1001E000013B013A8B422DD010F0070F42B3F6D1FC
:1001F000F0B441EA012141EA014122F007047FF015
:1002000000070023F0E80256083C85EA010586EA6B
:10021000010685FA47F5A3FA87F586FA47F6A5FAA7
:1002200087F68EB9EED1F0BC01F0FF0102F00702B3
:1002300032B110F8013B013A83EA010313B1F8D15E
:100240000020704701387047002D06BF354603383F
:10025000073815F0010F07D1013015F4807F02BF78
:10026000013015F4C03F0130F0BC0138704700BFC9
:10027000034613F8012B002AFBD1181A01387047E6
:1002800081F0004102E000BF83F0004330B54FEA47
:1002900041044FEA430594EA050F08BF90EA020FB4
:1002A0001FBF54EA000C55EA020C7FEA645C7FEA47
:1002B000655C00F0E2804FEA5454D4EB5555B8BF6A
:1002C0006D420CDD2C4480EA020281EA030382EADB
:1002D000000083EA010180EA020281EA0303362D6D
:1002E00088BF30BD11F0004F4FEA01314FF4801C40
:1002F0004CEA113102D0404261EB410113F0004F52
:100300004FEA03334CEA133302D0524263EB430308
:1003100094EA050F00F0A780A4F10104D5F1200EA6
:100320000DDB02FA0EFC22FA05F2801841F1000101
:1003300003FA0EF2801843FA05F359410EE0A5F1D5
:1003400020050EF1200E012A03FA0EFC28BF4CF006
:10035000020C43FA05F3C01851EBE37101F00045BC
:1003600007D54FF0000EDCF1000C7EEB00006EEBC9
:100370000101B1F5801F1BD3B1F5001F0CD3490853
:100380005FEA30004FEA3C0C04F101044FEA4452AA
:1003900012F5800F80F09A80BCF1004F08BF5FEA31
:1003A000500C50F1000041EB045141EA050130BD11
:1003B0005FEA4C0C404141EB010111F4801FA4F1B4
:1003C0000104E9D191F0000F04BF01460020B1FA09
:1003D00081F308BF2033A3F10B03B3F120020CDA41
:1003E0000C3208DD02F1140CC2F10C0201FA0CF01F
:1003F00021FA02F10CE002F11402D8BFC2F1200C84
:1004000001FA02F120FA0CFCDCBF41EA0C01904039
:10041000E41AA2BF01EB0451294330BD6FEA040482
:100420001F3C1CDA0C340EDC04F11404C4F120026D
:1004300020FA04F001FA02F340EA030021FA04F37F
:1004400045EA030130BDC4F10C04C4F1200220FAD6
:1004500002F001FA04F340EA0300294630BD21FA14
:1004600004F0294630BD94F0000F83F4801306BFDA
:1004700081F480110134013D4EE77FEA645C18BFCE
:100480007FEA655C29D094EA050F08BF90EA020F65
:1004900005D054EA000C04BF1946104630BD91EA5D
:1004A000030F1EBF0021002030BD5FEA545C05D160
:1004B0004000494128BF41F0004130BD14F580049F
:1004C0003CBF01F5801130BD01F0004545F0FE4113
:1004D00041F470014FF0000030BD7FEA645C1ABF48
:1004E000194610467FEA655C1CBF0B46024650EA7F
:1004F000013406BF52EA033591EA030F41F40021AB
:1005000030BD00BF90F0000F04BF0021704730B530
:100510004FF4806404F132044FF000054FF0000105
:1005200050E700BF90F0000F04BF0021704730B5C6
:100530004FF4806404F1320410F0004548BF40429B
:100540004FF000013EE700BF42004FEAE2014FEAF0
:1005500031014FEA02701FBF12F07F4393F07F4FCB
:1005600081F06051704792F0000F14BF93F07F4FFD
:10057000704730B54FF4607401F0004521F0004140
:1005800020E700BF50EA010208BF704730B54FF0C6
:1005900000050AE050EA010208BF704730B511F0CB
:1005A000004502D5404261EB41014FF4806404F103
:1005B00032045FEA915C3FF4DCAE4FF003025FEA85
:1005C000DC0C18BF03325FEADC0C18BF033202EB0D
:1005D000DC02C2F1200300FA03FC20FA02F001FA67
:1005E00003FE40EA0E0021FA02F11444C1E600BF06
:1005F00070B54FF0FF0C4CF4E06C1CEA11541DBFB9
:100600001CEA135594EA0C0F95EA0C0F00F0DEF883
:100610002C4481EA030621EA4C5123EA4C5350EA68
:10062000013518BF52EA033541F4801143F48013B9
:1006300038D0A0FB02CE4FF00005E1FB02E506F04A
:100640000042E0FB03E54FF00006E1FB03569CF09F
:10065000000F18BF4EF0010EA4F1FF04B6F5007FA5
:1006600064F5407404D25FEA4E0E6D4146EB060617
:1006700042EAC62141EA55514FEAC52040EA5E50A0
:100680004FEACE2EB4F1FD0C88BFBCF5E06F1ED84A
:10069000BEF1004F08BF5FEA500E50F1000041EB81
:1006A000045170BD06F0004646EA010140EA02002E
:1006B00081EA0301B4EB5C04C2BFD4EB0C0541EA50
:1006C000045170BD41F480114FF0000E013C00F365
:1006D000AB8014F1360FDEBF002001F0004170BD89
:1006E000C4F10004203C35DA0C341BDC04F11404A2
:1006F000C4F1200500FA05F320FA04F001FA05F22E
:1007000040EA020001F0004221F0004110EBD370FA
:1007100021FA04F642EB06015EEA430E08BF20EA26
:10072000D37070BDC4F10C04C4F1200500FA04F3C9
:1007300020FA05F001FA04F240EA020001F000415B
:1007400010EBD37041F100015EEA430E08BF20EACE
:10075000D37070BDC4F1200500FA05F24EEA020E16
:1007600020FA04F301FA05F243EA020321FA04F045
:1007700001F0004121FA04F220EA020000EBD370FC
:100780005EEA430E08BF20EAD37070BD94F0000FFC
:100790000FD101F00046400041EB010111F4801F30
:1007A00008BF013CF7D041EA060195F0000F18BFE1
:1007B000704703F00046520043EB030313F4801F1D
:1007C00008BF013DF7D043EA0603704794EA0C0FD7
:1007D0000CEA135518BF95EA0C0F0CD050EA4106ED
:1007E00018BF52EA4306D1D181EA030101F000416A
:1007F0004FF0000070BD50EA410606BF1046194692
:1008000052EA430619D094EA0C0F02D150EA01369D
:1008100013D195EA0C0F05D152EA03361CBF1046DE
:1008200019460AD181EA030101F0004141F0FE417D
:1008300041F470014FF0000070BD41F0FE4141F401
:10084000780170BD70B54FF0FF0C4CF4E06C1CEA01
:1008500011541DBF1CEA135594EA0C0F95EA0C0FB6
:1008600000F0A7F8A4EB050481EA030E52EA033571
:100870004FEA013100F088804FEA03334FF0805592
:1008800045EA131343EA12634FEA022245EA1115BF
:1008900045EA10654FEA00260EF000419D4208BF70
:1008A000964244F1FD0404F5407402D25B084FEA1D
:1008B0003202B61A65EB03055B084FEA32024FF4C9
:1008C00080104FF4002CB6EB020E75EB030E22BF26
:1008D000B61A754640EA0C005B084FEA3202B6EBE6
:1008E000020E75EB030E22BFB61A754640EA5C0095
:1008F0005B084FEA3202B6EB020E75EB030E22BF25
:10090000B61A754640EA9C005B084FEA3202B6EB25
:10091000020E75EB030E22BFB61A754640EADC00E4
:1009200055EA060E18D04FEA051545EA16754FEA46
:1009300006164FEAC30343EA52734FEAC2025FEA64
:100940001C1CC0D111F4801F0BD141EA00014FF0F3
:1009500000004FF0004CB6E711F4801F04BF0143C4
:100960000020B4F1FD0C88BFBCF5E06F3FF6AFAEE0
:10097000B5EB030C04BFB6EB020C5FEA500C50F170
:10098000000041EB045170BD0EF0004E4EEA1131F3
:1009900014EB5C04C2BFD4EB0C0541EA045170BDFA
:1009A00041F480114FF0000E013C90E645EA060E3E
:1009B0008DE60CEA135594EA0C0F08BF95EA0C0F6C
:1009C0003FF43BAF94EA0C0F0AD150EA01347FF4B4
:1009D00034AF95EA0C0F7FF425AF104619462CE78B
:1009E00095EA0C0F06D152EA03353FF4FDAE1046EE
:1009F000194622E750EA410618BF52EA43067FF43F
:100A0000C5AE50EA41047FF40DAF52EA43057FF4CE
:100A1000EBAE12E74FF0FF3C06E000BF4FF0010CD9
:100A200002E000BF4FF0010C4DF804CD4FEA410C3D
:100A30007FEA6C5C4FEA430C18BF7FEA6C5C1BD00A
:100A400001B050EA410C0CBF52EA430C91EA030F8B
:100A500002BF90EA020F0020704710F1000F91EAE8
:100A6000030F58BF994208BF90422CBFD8176FEAB6
:100A7000E37040F0010070474FEA410C7FEA6C5C84
:100A800002D150EA013C07D14FEA430C7FEA6C5C8B
:100A9000D6D152EA033CD3D05DF8040B704700BFB7
:100AA0008446104662468C461946634600E000BF05
:100AB00001B5FFF7B7FF002848BF10F1000F01BDD7
:100AC0004DF808EDFFF7F4FF0CBF012000205DF8A2
:100AD00008FB00BF4DF808EDFFF7EAFF34BF012027
:100AE00000205DF808FB00BF4DF808EDFFF7E0FFC0
:100AF00094BF012000205DF808FB00BF4DF808ED11
:100B0000FFF7CEFF94BF012000205DF808FB00BF77
:100B10004DF808EDFFF7C4FF34BF012000205DF859
:100B200008FB00BF4FEA410C7FEA6C5C02D150EA3F
:100B3000013C0AD14FEA430C7FEA6C5C02D152EAD5
:100B4000033C02D14FF0000070474FF001007047A6
:100B50004FEA410212F5001215D211D56FF47873E5
:100B6000B3EB625212D94FEAC12343F0004343EA88
:100B7000505311F0004F23FA02F018BF4042704763
:100B80004FF00000704750EA013005D111F00040ED
:100B900008BF6FF0004070474FF00000704700BF83
:100BA00053B94AB9002908BF00281CBF4FF0FF31D4
:100BB0004FF0FF3000F07AB9ADF1080C6DE904CECA
:100BC00000F006F8DDF804E0DDE9022304B0704728
:100BD0002DE9F0478C460D460446089E002B51D166
:100BE0008A4217466DD9B2FA82FEBEF1000F0BD0D1
:100BF000CEF1200C01FA0EF520FA0CFC02FA0EF7E9
:100C00004CEA050C00FA0EF44FEA174A250CBCFB1F
:100C1000FAF81FFA87F90AFB18CC45EA0C4508FBDD
:100C200009F3AB420AD9ED1908F1FF3280F02381B4
:100C3000AB4240F22081A8F102083D44ED1AA4B273
:100C4000B5FBFAF00AFB105544EA054400FB09F92C
:100C5000A14509D9E41900F1FF3380F00A81A145CB
:100C600040F2078102383C44A4EB090440EA084002
:100C70000021002E61D024FA0EF40023346073604A
:100C8000BDE8F0878B4207D9002E54D0002186E8BA
:100C900021000846BDE8F087B3FA83F1002940F04F
:100CA0008E80AB4202D3824200F2FA80841A65EB56
:100CB00003050120AC46002E3FD086E81010BDE8A9
:100CC000F08712B90127B7FBF2F7B7FA87FEBEF13A
:100CD000000F34D1EB1B3A0C1FFA87FC0121B3FB48
:100CE000F2F8250C02FB183345EA03450CFB08F328
:100CF000AB4207D9ED1908F1FF3002D2AB4200F246
:100D0000D1808046ED1AA3B2B5FBF2F002FB10557C
:100D100043EA05440CFB00FCA44507D9E41900F1A3
:100D2000FF3302D2A44500F2B8801846A4EB0C04AD
:100D300040EA08409DE731463046BDE8F087CEF1F5
:100D4000200405FA0EF307FA0EF720FA04F83A0C1D
:100D500025FA04F448EA0308B4FBF2F14FEA184517
:100D600002FB11441FFA87FC45EA044501FB0CF322
:100D7000AB4200FA0EF409D9ED1901F1FF3080F011
:100D80008A80AB4240F2878002393D44EB1A1FFA59
:100D900088F5B3FBF2F002FB103345EA034500FB94
:100DA0000CF3AB4207D9ED1900F1FF386FD2AB421B
:100DB0006DD902383D44EB1A40EA01418FE7C1F199
:100DC000200722FA07F88B4005FA01F448EA0303EA
:100DD00020FA07FE4FEA134CFD404EEA040EB5FB25
:100DE000FCF94FEA1E440CFB19551FFA83F844EA3C
:100DF000054509FB08F4AC4202FA01F200FA01FAD7
:100E000008D9ED1809F1FF3043D2AC4241D9A9F11C
:100E100002091D442D1B1FFA8EFEB5FBFCF00CFBD6
:100E200010554EEA054400FB08F8A04507D9E41820
:100E300000F1FF3529D2A04527D902381C4440EAE9
:100E40000940A4EB0804A0FB02894C45C6464D4668
:100E500015D312D056B1BAEB0E0364EB050404FAB5
:100E600007F7CB401F43CC40376074600021BDE8DA
:100E7000F0871846F8E69046E0E6C245EAD2B8EBBD
:100E8000020E69EB03050138E4E72846D7E7404640
:100E900091E78146BEE7014678E702383C4445E7E2
:100EA000084608E7A8F102083D442BE7704700BF59
:100EB00010B5084B044618684FF47A73B0FBF3F092
:100EC00000F04EFC002221464FF0FF3000F008FCFD
:100ED000002010BD0000002008B5032000F0EEFB4C
:100EE0000020FFF7E5FF02F023FA002008BD000014
:100EF000024A136801331360704700BFC806002020
:100F0000014B1868704700BFC806002038B504467A
:100F1000FFF7F6FF631C054618BF0134FFF7F0FF2B
:100F2000401B8442FAD838BD70B54FF0007696FA6F
:100F3000A6F6B6FA86F301F00076DE40143001F032
:100F4000F8714FF0F87393FAA3F5B5FA85F593FAB3
:100F5000A3F3072421FA05F504FA05F5B3FA83F3A0
:100F600050F82640D94024EA050402FA01F1214351
:100F700040F8261070BD000037B5002301930446E9
:100F8000002800F0B280856D25B902F017FAE565FA
:100F900084F8545023689A68900041BF9A6822F000
:100FA000204222F03F029A609A68D10074D59A6874
:100FB000D20040F188800020A26DD50600F191801A
:100FC0009A68510700F18D80A26D22F4817242F07F
:100FD0000202A2659A6802F00302012A40F08780AB
:100FE0001A68D20740F18380E568A26B616A2A43E0
:100FF000A5682A43E569012942EA453242EA0142ED
:1010000002BFA16A01F1FF3142EA4142E16A21B126
:10101000256B01F4707129430A43DD683849294082
:101020000A43DA609A6812F00C0F1ED1D968626B1D
:10103000A569520021F4804142EA853221F0020183
:101040000A43DA60E26B012A47D1656C226C1969A8
:101050002A43A56C42F001022A43E56C21F4FF61AA
:101060002A4321F004010A431A612269012A05BFBB
:10107000196B226A1A6B02F1FF3206BF21F00F01D1
:101080000A4322F00F021A63A36D23F0030343F017
:101090000103A36503B030BD9A681A4922F01042DB
:1010A00022F03F0242F080529A60174A1268B2FB67
:1010B000F1F10A224A430192019A002A3FF477AFE4
:1010C000019A013AF7E7A26D42F01002A265E26DC3
:1010D00042F00102E26501206EE71A6922F0010286
:1010E000C2E7A36D43F01003A3650120D2E70749CF
:1010F00065688A6822F47C122A438A6074E700BF1C
:1011000007C0F0FF80841E00000000200003045090
:101110007047704708B5806AFFF7FBFF08BD70474E
:10112000836A9A6D12F0500F10B59A6D21D142F476
:1011300000729A651A681168080716D5D16811F40B
:10114000406F0ED1D26812F4005F0AD19A6D22F47A
:1011500080729A659A6DD1045EBF9A6D42F0010269
:101160009A651846FFF7D4FF10BDD26812F0020F3F
:10117000EBE7D20603D51846FFF7D1FF10BD1B6D74
:10118000BDE810405B6B1847806A08B5836D43F07B
:1011900040038365C36D43F00403C365FFF7BFFFDE
:1011A00008BD0000F7B50023019390F85430012BDF
:1011B00005460C4600F07681012380F85430006823
:1011C0008268510700F168816368052B08D8023BEB
:1011D000032B66D8DFE803F0025E60620C236360D5
:1011E00061684FF4407393FAA3F3B3FA83F301F405
:1011F0004076DE4000F1300701F01F011F2303FAA3
:1012000001F257F8263023EA02032268C2F384620F
:101210008A40134347F82630836813F00C0F1ED121
:10122000A2682168FFF780FE2669D5F800E02368F0
:10123000DEF80C10042E0EF1600234D0C1F3C101AF
:101240004800616903F0F843814043F000431943CB
:1012500052F82600B84B0340194342F8261028687C
:10126000836803F00303012B40F01E810368DA0753
:1012700040F11A812368B14A934240F0BD80B04AE0
:1012800093681B0240F1EA800020002385F8543067
:1012900003B0F0BD1223A2E71823A0E74FF4807338
:1012A0009DE706239BE7DEF86010C3F31200C1F34D
:1012B00084670EF1640600283AD1C3F38460874244
:1012C00040F0278121F00041CEF860102368DEF85D
:1012D0006410C3F31207C1F384609FBBC3F384633C
:1012E000834240F01B8121F0004131602368916806
:1012F000C3F3120702F10806C1F3846077BBC3F39E
:101300008463834240F0118121F000413160236801
:1013100002F10C00D268C3F31206C2F384614EBB23
:10132000C3F384638B4204BF22F00042026096E75D
:1013300093FAA3F0B0FA80F08742C3D0DEF86410CD
:10134000C1F3846093FAA3F3B3FA83F38342CAD060
:101350009168236802F10806C1F3846093FAA3F34D
:10136000B3FA83F38342CFD002F10C00D268236832
:10137000C2F3846193FAA3F3B3FA83F3D2E793FA47
:10138000A3F2B2FA82F20132092A22D893FAA3F226
:10139000B2FA82F20132920693FAA3F1B1FA81F124
:1013A0004E1C0121B14001E001FA0EF10A4357B988
:1013B000C3F38463591C01EB410109051143A26881
:1013C000FFF7B2FD56E793FAA3F1B1FA81F10131CB
:1013D000F1E793FAA3F2B2FA82F20132960693FA97
:1013E000A3F1B1FA81F14A1C0121914082E093FA04
:1013F000A3F3B3FA83F384E0524A934215D1504ADF
:10140000906810F080707FF43FAF29684E4B99428E
:101410007FF43AAF9168936801F0E07123F0E073D4
:101420000B4343F0807393602FE7484A93427FF465
:101430002BAF434A906810F480007FF425AF2968F1
:10144000414B99427FF420AF9168936801F0E071BD
:1014500023F0E0730B4343F48003E4E729683A4B3D
:1014600099427FF411AF9168936801F0E07123F025
:10147000E0730B4343F400039360354B354A1B681C
:10148000B3FBF2F2782353430193019B002B3FF40B
:10149000FBAE019B013BF7E7AA6D42F02002AA6573
:1014A0001846F2E60220F3E6E1682B4AD0F8B06075
:1014B000236801F0200E02FA0EF2C3F31207724005
:1014C0003A407240C0F8B020244A91427FF4D2AE34
:1014D000002F7FF454AFC3F3846101F1010EBEF11C
:1014E000090F4FF001014FEA8E627FF65DAF16469D
:1014F00001FA0EF141EA0602002F7FF478AFC3F340
:10150000846303EB4303A3F11B01090541F0007160
:1015100054E7DEF86410C1F38460DFE69168236865
:1015200002F10806C1F38460E9E602F10C00D2681A
:101530002368C2F38461F3E600F0FF03000052C7A2
:1015400000030450000084CB000004500100008020
:101550000000002080841E00FFFF070000007F4085
:1015600073B5002302680193936803F00303012B12
:10157000044608D11368D80705D5002002B070BD15
:10158000019B013B12E091681A4B194227D19368E5
:1015900023F0004323F03F0343F001039360164B15
:1015A000164A1B68B3FBF2F20A2353430193019BD3
:1015B000002BE5D1FFF7A4FC114E05462268136805
:1015C000DB07DAD49368D9075FBF9368334043F0F1
:1015D00001039360FFF794FC401B0228EED9A36D32
:1015E00043F01003A365E36D43F00103E3650120BD
:1015F000C4E700BF3F0000800000002080841E0080
:10160000C0FFFF7F03682DE9F0419E6816F00406D5
:1016100004460F46904648D190F85430012B44D0F0
:10162000012380F85430FFF79BFF0546002839D18D
:10163000A06D216820F4706020F0010040F48070FB
:10164000A065A36D206D23F48013A365A36DDB0457
:1016500049BFE36DE56523F00603E365144BC36200
:10166000144B0363144B43631C230B60002384F867
:1016700054304B6843F010034B60CB6843F00103D8
:10168000CB603A464346403100F0F4F82268936854
:1016900023F0004323F03F0343F004039360284604
:1016A000BDE8F08184F85460F9E70225F7E700BF50
:1016B000211100081511000889110008074AD36894
:1016C00023F4E0631B041B0C43F0BF63000243F4EC
:1016D000003300F4E0600343D360704700ED00E0A6
:1016E000174B30B5DC68C4F30224C4F10703251D91
:1016F000042B28BF0423062D4FF0010505FA03F340
:1017000003F1FF338CBF033C00241940A14005FACC
:1017100004F4013C2240002842EA01024FEA02128E
:10172000AFBF00F1604000F00F00064BD2B2A5BF82
:1017300000F56140D2B21A5480F8002330BD00BFDA
:1017400000ED00E014ED00E04209012300F01F006D
:1017500003FA00F0014B43F82200704700E100E07B
:101760000138B0F1807F0AD2064B074A5860F02159
:1017700082F823100020072298601A607047012029
:10178000704700BF10E000E000ED00E0044B1A6875
:1017900004280CBF42F0040222F004021A607047D1
:1017A00010E000E0704708B5FFF7FCFF08BD00003F
:1017B00030B500284ED00168274B99424FF01404F1
:1017C00040D8264A0A44B2FBF4F292004264A3F2E3
:1017D00007430364022380F825308468C3680569E1
:1017E0000A6823432B4345692B4385692B43C5690D
:1017F0002B43056A22F4FF4222F070022B4313436D
:10180000B4F5804F0B6014D0026C154B9A420CBF9C
:1018100014491549436C0A6803F01C030F249C40CB
:1018200022EA04020A6042680C6802FA03F32343C6
:101830000B6000230122C36380F8243080F8252048
:10184000184630BD094B0B44B3FBF4F39B004364D3
:10185000074BBEE7012030BD07040240F8FFFDBF83
:1018600000000240A8000240A8040240F8FBFDBFAF
:1018700000040240F0B590F82440012C38D090F8D4
:1018800025500124EDB2A54280F824404FF0000617
:101890004FF002042AD180F825400468C663266808
:1018A000076C26F001062660466C06F01C06B54063
:1018B0007D60636083680568102B036B0BBFA260BB
:1018C000A160E160E2604BB1236843F00E03236046
:1018D0002B6843F001032B600020F0BD236823F048
:1018E00004032360236843F00A03F0E780F82460D0
:1018F0000220F0BD016C426C036870B402F01C025F
:101900000E681D680424944026420ED015F0040F82
:101910000BD01A6892065EBF1A6822F004021A60A1
:10192000036B4C6073B370BC18470224944026428A
:1019300012D015F0020F0FD01A68950606D41A6857
:1019400022F00A021A60012380F8253000234C603F
:1019500080F82430C36AE5E708249440344211D06B
:101960002C070FD51C6824F00E041C60012303FA19
:1019700002F24A60C36380F82530002380F82430E7
:10198000436BCFE770BC70472DE9F04F85B00B6813
:10199000DFF85881534A01934FF00F090023019C4F
:1019A000DC4002D105B0BDE8F08F012404FA03FA4F
:1019B000019C14EA0A0500F08F804C6824F0100B9B
:1019C000BBF1020F11D1DF0800EB870703F0070E10
:1019D0003E6A4FEA8E0E09FA0EFC26EA0C0C0E69DE
:1019E00006FA0EF646EA0C063E624FEA430C03275F
:1019F000066807FA0CF7FF4304F0030E3E400EFAA8
:101A00000CFE0BF1FF3B4EEA0606BBF1010F066030
:101A100011D8866806EA070BCE6806FA0CFE4EEA75
:101A20000B068660466826EA0A0AC4F300169E4042
:101A300046EA0A064660C66837408E6806FA0CF623
:101A40003743E600C76047D5D8F8606046F0010626
:101A5000C8F86060D8F8606023F0030707F180479A
:101A600006F0010607F58037039603F0030E039E88
:101A7000BE684FEA8E0E09FA0EFCB0F1904F26EACE
:101A80000C0C2BD0184EB0422AD006F58066B0421E
:101A900014BF0726022606FA0EF646EA0C06BE60BA
:101AA0001668EF4314F4803F0CBF3E402E4316608F
:101AB000566814F4003F0CBF3E402E4356609668B3
:101AC00014F4801F0CBF3E402E439660D668A402DB
:101AD00054BF3E402E43D660013360E70026DAE76C
:101AE0000126D8E70004014000040048001002402D
:101AF0000AB1816170478162704743695940416111
:101B000070470000024A136843F480731360704703
:101B100000700040024B186800F4C060704700BFBE
:101B200000700040164B1A68B0F5007F02F4C062E6
:101B30001AD1B2F5007F13D01A68124922F4C0629C
:101B400042F400721A60104A1268B2FBF1F13222BC
:101B50004A4312B15969490504D45B695B050DD448
:101B600000207047013AF4E7B2F5806F1FBF1A6892
:101B700022F4C06242F480621A60F1E703207047E9
:101B80000070004040420F000000002037B51E4D9D
:101B9000AB6DDA00044618D5FFF7BCFFB0F5007F47
:101BA00023D1802C29D9A02C8CBF02200120174AD8
:101BB000136823F0070303431360136803F007035C
:101BC000181A18BF012003B030BDAB6D43F080532D
:101BD000AB65AB6D03F080530193019BFFF79AFF58
:101BE000AB6D23F08053AB65D8E7802C07D808D0C5
:101BF000A4F1700358425841D9E70020D7E70320E9
:101C0000D5E70220D3E700BF0010024000200240C9
:101C10002F4B9A6812F00C0F10B509D09A6802F099
:101C20000C020C2A2DD1DA6802F00302012A28D115
:101C30001A682849120755BFD3F894201A68C2F3CE
:101C40000322C2F3031251F82220996811F00C0FFD
:101C50000CBF10460020996801F00C010C2930D10E
:101C6000DC68D868C0F30210411C04F003000228AD
:101C700019D0032826D0B2FBF1F2D868C0F30620B1
:101C800017E09A6802F00C02042A07D09A6802F062
:101C90000C02082A04D110480022DCE70F48FBE7B9
:101CA00000200246D7E7DA680C48C2F30622B0FBF0
:101CB000F1F0DB68C3F34163013350435B00B0FBD9
:101CC000F3F010BDDA680448C2F30622EFE700BF64
:101CD00000100240B471000800127A000024F400E1
:101CE0002DE9F341054608B901208DE00368D806C7
:101CF00038D5AB4CA36813F00C0F61D1236899075A
:101D000002D5AB69002BEFD02368286A1A0756BFAB
:101D1000D4F8943023681B0903F0F00383423AD2CD
:101D2000FFF734FF0028DFD1236843F00803236066
:101D300023682A6A23F0F003134323606368EA6987
:101D400023F47F4343EA02236360FFF761FFA36844
:101D5000944AC3F30313D35CD840934B186000201C
:101D6000FFF7A6F82B68D80761D42B68990700F114
:101D7000A9802B681A0700F1E7802B685B0700F148
:101D800015812B689A0600F17C81AA6A002A40F02E
:101D9000A381002038E0236843F008032360236810
:101DA00023F0F003034323606368EA6923F47F436D
:101DB00043EA02236360FFF7E9FE0028C5D093E7FA
:101DC000AB6923B3236843F001032360FFF798F85E
:101DD000064623689B0711D5236843F00803236058
:101DE00023682A6A23F0F003134323606368EA69D7
:101DF00023F47F4343EA02236360B3E7FFF780F8ED
:101E0000801B0228E5D9032002B0BDE8F0812368D9
:101E100023F001032360FFF773F8064623689F074A
:101E2000A0D5FFF76DF8801B0228F7D9EBE75C4CD3
:101E3000A36803F00C03082B09D0A36803F00C037C
:101E40000C2B0BD1E36803F00303032B06D12368AB
:101E50009A038AD56B68002B87D145E76B68B3F589
:101E6000803F10D1236843F480332360FFF748F8A4
:101E7000064623689B033FF578AFFFF741F8801BC8
:101E80006428F6D9BFE7B3F5A02F04D1236843F443
:101E900080232360E6E7226822F4803222602268F1
:101EA00022F480222260002BE0D1FFF729F80646B9
:101EB00023689F037FF559AFFFF722F8801B642842
:101EC000F6D9A0E7364CA36803F00C03042B09D025
:101ED000A36803F00C030C2B13D1E36803F0030396
:101EE000022B0ED123685E0503D5EB68002B3FF46F
:101EF000FBAE63682A6923F0F85343EA0263636028
:101F000037E7EB687BB1236843F480732360FEF707
:101F1000F7FF064623685805EBD4FEF7F1FF801B58
:101F20000228F7D96FE7236823F480732360FEF754
:101F3000E7FF0646236859057FF51BAFFEF7E0FF74
:101F4000801B0228F6D95EE76B69154C9BB1D4F86B
:101F5000943043F00103C4F89430FEF7D1FF0646F5
:101F6000D4F894309F073FF508AFFEF7C9FF801BF8
:101F70000228F5D947E7D4F8943023F00103C4F8D8
:101F80009430FEF7BDFF0646D4F8943098077FF5ED
:101F9000F4AEFEF7B5FF801B0228F5D933E700BF8A
:101FA000001002409971000800000020794CA36DD8
:101FB000D90027D4A36D43F08053A365A36D03F02C
:101FC00080530193019B0127734E3368DA051BD5BB
:101FD000AB68012B29D1D4F8903043F00103C4F849
:101FE0009030FEF78DFF41F288380646D4F89030E5
:101FF000980740D5002F3FF4C4AEA36D23F0805363
:10200000A365BEE60027DFE7336843F480733360DF
:10201000FEF776FF80463368DB05D9D4FEF770FF04
:10202000A0EB08000228F6D9EDE6052B06D1D4F87E
:10203000903043F00403C4F89030CCE7D4F89020FB
:1020400022F00102C4F89020D4F8902022F004027B
:10205000C4F89020002BC4D1FEF752FF41F288381B
:102060000646D4F890309907C4D5FEF749FF801B87
:102070004045F6D9C7E6FEF743FF801B4045B5D97A
:10208000C1E66B6A434C9BB1D4F8983043F001032E
:10209000C4F89830FEF734FF0646D4F898309B0712
:1020A0003FF573AEFEF72CFF801B0228F5D9AAE698
:1020B000D4F8983023F00103C4F89830FEF720FFDD
:1020C0000646D4F898309F077FF55FAEFEF718FFFD
:1020D000801B0228F5D996E62E4CA36803F00C036A
:1020E0000C2B3FF401AE2368022A23F08073236097
:1020F00036D1FEF705FF0646236898012AD4AB6B5C
:102100006A6BDB0643EA0223EA6A13432A6B013A4D
:1021100043EA0213EA6B5208013A43EA42532A6C3B
:102120005208013A43EA4263E360236843F0807354
:102130002360E36843F08073E360FEF7E1FE054649
:10214000236899013FF525AEFEF7DAFE401B022811
:10215000F6D958E6FEF7D4FE801B0228CCD952E609
:1021600023681A015EBFE36823F00303E360E368BA
:1021700023F0887323F48033E360FEF7C1FE054645
:1021800023689B017FF505AEFEF7BAFE401B0228CF
:10219000F6D938E600100240007000402DE9F04109
:1021A0000E46044610B90120BDE8F081404A13688C
:1021B00003F007038B4228D32368D90730D4216862
:1021C0008A075AD43A4A136803F007039E425CD345
:1021D00011F0040F374D63D10B0706D5AB682269A8
:1021E00023F4605343EAC203AB60FFF711FDAB6811
:1021F000314AC3F30313D35CD840304B186000203E
:10220000FEF756FE0020BDE8F081136823F00703B7
:102210000B431360136803F007039942C3D1CBE764
:102220006268244D032A2B681BD113F0007FBAD0BB
:10223000AB6823F003031343AB60FEF761FE41F28A
:1022400088380746AB68626803F00C03B3EB820F73
:10225000B5D0FEF755FEC01B4045F3D90320BDE8BD
:10226000F081022A02D113F4003FE0E712B913F023
:10227000020FDCE713F4806FD9E70E4AA068936879
:1022800023F0F003034393609CE7136823F00703F4
:1022900033431360136803F007039E4283D197E72B
:1022A000AB68E26823F4E0631343AB6094E700BFDC
:1022B0000020024000100240997100080000002038
:1022C000014B1868704700BF00000020044B054A0E
:1022D0009B68C3F30223D35C034A1068D84070475D
:1022E00000100240A971000800000020044B054ABC
:1022F0009B68C3F3C223D35C034A1068D84070477D
:1023000000100240A971000800000020F8B5444BFD
:10231000DA6812F0030F05460E461C46006839D0F5
:10232000DA6802F0030282424BD1002A49D0DB680E
:102330006A68C3F302130133934242D1236823F046
:1023400080632360FEF7DCFD074623681A0141D451
:10235000AF68002E45D0012E4FD12269286922F4A2
:10236000C002400822F4FE42013842EA072242EA53
:1023700040522261236843F080632360FEF7C0FD72
:10238000064623681B0145D52369AA6913432361C7
:102390000020F8BD022810D0032814D0012810D145
:1023A0001B689F07F5D5E3686A6823F07303013A59
:1023B000184340EA0210E060C0E71B6813F4806F26
:1023C000F1D10120F8BD1A689103ECD41B6813F415
:1023D000802FF5E7FEF794FDC01B0228B5D9032036
:1023E000F8BD2269E96822F07842C90641EA07236C
:1023F00022F4FE4213432361BCE72369686923F09A
:10240000C063400823F4FE43013843EA072343EA4C
:102410004063F0E7FEF774FD801B0228B1D9DEE7C8
:10242000001002402DE9F743056815F400650446E5
:102430000ED0C16BB1F5000F5BD0B1F5400F5DD090
:10244000002966D10430FFF761FF0546002855D00A
:1024500023689E036DD5924EB36DD8005BD4B36DE7
:1024600043F08053B365B36D03F080530193019B38
:102470000127DFF83082D8F8003043F48073C8F8C1
:102480000030FEF73DFD8146D8F80030D90544D52F
:10249000002D49D1D6F8903013F4407314D0226D3A
:1024A000934211D0D6F89030D6F8902042F4803282
:1024B000C6F89020D6F8902023F4407322F480329E
:1024C000C6F89020C6F89030DA0709D5FEF718FD57
:1024D00041F288398046D6F890309B0740F1C2809F
:1024E000D6F89030226D23F440731343C6F8903031
:1024F0001AE06B4AD36843F48033D360684AE16BD7
:10250000D2F8883023F440030B43C2F8883000250A
:102510009EE701259CE70027ABE7FEF7F1FCA0EB67
:1025200009000228B0D903251FB1B36D23F08053F1
:10253000B3652368DF0708D55949206AD1F8882098
:1025400022F003020243C1F888209E0708D55449AF
:10255000606AD1F8882022F00C020243C1F888207A
:10256000980608D54E49A06AD1F8882022F4406226
:102570000243C1F88820990508D54949606BD1F814
:10258000882022F440220243C1F888205A0508D549
:102590004349A06BD1F8882022F440120243C1F8CD
:1025A00088205F0608D53E49E06AD1F8882022F4E9
:1025B00040520243C1F88820DE0508D53849206B17
:1025C000D1F8882022F440320243C1F888209804D0
:1025D0000FD5334A216CD2F8883023F040630B4387
:1025E000B1F1006FC2F8883044D1D36843F480134E
:1025F000D360236859030FD5294A616CD2F888301B
:1026000023F040630B43B1F1006FC2F888303CD136
:10261000D36843F48013D36023685A0412D5204949
:10262000A26CD1F8883023F040531343B2F1805F9D
:10263000C1F8883006D10221201DFFF767FE00286F
:1026400018BF054623681B0408D5154AE16CD2F86B
:10265000883023F080430B43C2F88830284603B00B
:10266000BDE8F083FEF74CFCA0EB080048457FF680
:1026700032AF58E7B1F1806FBBD10121201DFFF7C8
:1026800045FE002818BF0546B3E7B1F1806FC3D1FE
:102690000121201DFFF73AFE002818BF0546BBE7C1
:1026A0000010024000700040024A136843F0040327
:1026B000136070470010024003680A48DA6842F06D
:1026C0000102DA6099680140062908D09A68024040
:1026D000B2F5803F1EBF1A6842F001021A60002066
:1026E000704700BF07000100704770477047704790
:1026F00003681A69910710B504460FD5DA68920786
:102700000CD56FF002021A619B69012299070277CA
:1027100000F08580FFF7E9FF0023237723681A691B
:10272000520710D5DA6850070DD56FF004021A6110
:102730009B69022213F4407F2277204675D0FFF771
:10274000D4FF0023237723681A6911070FD5DA68AD
:1027500012070CD56FF008021A61DB6904229B078F
:102760002277204667D0FFF7C0FF00232377236836
:102770001A69D00610D5DA68D1060DD56FF01002AF
:102780001A61DB69082213F4407F2277204658D073
:10279000FFF7ABFF0023237723681A69D20708D518
:1027A000DA68D00705D56FF001021A61204600F003
:1027B000DFFB23681A69110608D5DA68120605D509
:1027C0006FF080021A61204600F06BF923681A69E5
:1027D000D00508D5DA68110605D56FF480721A6144
:1027E000204600F05FF923681A69520608D5DA68B6
:1027F000500605D56FF040021A612046FFF777FFBB
:1028000023681A69910622D5DA6892061FD56FF0FF
:10281000200220461A61BDE8104000F041B9FFF7E0
:1028200063FF2046FFF762FF76E7FFF75DFF204674
:10283000FFF75CFF85E7FFF757FF2046FFF756FFDE
:1028400093E7FFF751FF2046FFF750FFA2E710BDC7
:102850001A4A0368904210B502D0B0F1804F09D1F6
:102860004C6823F07003904243EA040309D0B0F1AE
:10287000804F06D0124A904203D002F58062904207
:1028800003D1CA6823F4407313434A6923F08003D9
:10289000134303608B68C3620B688362074B9842E3
:1028A00007D003F5A053984203D003F58063984204
:1028B00001D10B6903630123436110BD002C01406A
:1028C0000040014010B50446A0B190F83D3003F03F
:1028D000FF021BB980F83C2000F0B4FD022384F80D
:1028E0003D302068211DFFF7B3FF012384F83D3000
:1028F000002010BD012010BD10B584680A4324F4E7
:102900007F4442EA03232343836010BD90F83C30A8
:10291000012B70B504464FF0020017D084F83D003B
:102920002068012384F83C308268484B1340836060
:102930000B68402B72D015D8102B0CD007D853B190
:102940000123002084F83D3084F83C0070BD202B2A
:1029500001D0302BF4D1826843F0070322F07002DB
:10296000134333E0702B33D01BD8502B3FD0602B58
:10297000E6D14D68CE68016A21F0100101628269DA
:10298000036A22F4704223F0A00343EA051342EAEB
:10299000063282610362836823F0700343F06703A9
:1029A00014E0B3F5805F0CD0B3F5005FC8D1CB68FD
:1029B0004A688968FFF7A0FF2268936843F4804360
:1029C00013E0836823F4803323F007038360B7E7C1
:1029D000CB684A688968FFF78FFF2268936823F401
:1029E000803323F0770343F077039360A8E74A68C6
:1029F000CE68016A056A25F001050562836921F048
:102A00000A0123F0F00343EA06130A4383610262DA
:102A1000836823F0700343F05703D7E74A68CE6812
:102A2000016A056A25F001050562836921F00A0142
:102A300023F0F00343EA06130A43836102628368CA
:102A400023F0700343F04703C0E700BF8800FEFF98
:102A500090F83C30012B30B54FF002031BD00268D8
:102A60000E4D80F83D3053689468AA4202BF4D680D
:102A700023F470032B430D68896823F070032B4304
:102A800024F08004536021430123916080F83D309D
:102A9000002380F83C30184630BD00BF002C0140B8
:102AA00070477047704700000268C169F8B5044676
:102AB00083680069156803436069034382480B43D8
:102AC0002840034313605368E06823F440530343F2
:102AD00053607E4BA0699A421CBF236A18439368D7
:102AE00023F4306303439360794B9A4214D103F586
:102AF0005843784AD3F8883003F00303B1F5004F08
:102B0000D35C40F0AA80082B20D8DFE803F0778F51
:102B1000921F9B1F1F1F9E006F4B9A4207D103F508
:102B2000E6336E4AD3F8883003F00C03E6E7674BD0
:102B30009A4240F0C28003F5C833D3F8885005F4B8
:102B40004065B5F5806F2AD006D815B30122002361
:102B5000236663661046F8BDB5F5006F06D0B5F57F
:102B6000406FF3D14FF40040082501E05C48022596
:102B7000626802EB42038342E8D8B0EB023FE5D83B
:102B8000082D38D8DFE805F00F3726372E373737CE
:102B90003100FFF79BFB0028EAD10246D7E7FFF799
:102BA00037F80425F7E7FFF791FB62684FF480716F
:102BB00056080027E1FB0067002330463946FDF741
:102BC000EFFF0022474BA0F540719942BED8236821
:102BD000D860BCE74448550800230021401941F162
:102BE0000001ECE7FFF714F8DFE7500800210023AD
:102BF00010F50000F3E701220020E3E7FFF766FB92
:102C000061684A0802EB4003B3FBF1F39BB2002278
:102C1000A3F110004FF6EF71884297D823F00F010F
:102C20002068C3F342030B43C36090E7FFF75EFBEA
:102C3000E6E76068430803F1F47303F59043B3FBE0
:102C4000F0F3E3E7FEF7E4FFDAE76068430803F533
:102C50008033F4E701220023DAE7082B30D8DFE8DD
:102C600003F005181B2F242F2F2F2700FFF72EFB13
:102C7000626800EB5203B3FBF2F39BB20022A3F1B4
:102C800010004FF6EF7188423FF660AF2168CB60CD
:102C90005DE7FFF72BFBEBE76068430803F5740380
:102CA00003F51053B3FBF0F3E7E7FEF7B1FFDFE7FF
:102CB0006068430803F50043F4E7B1F5004FC9D05D
:102CC00001220023DBE700BFF369FFEF0080004033
:102CD0000038014050710008004400405471000861
:102CE0000024F400FFFC0F00000024F4436ADA071C
:102CF00010B506D50168846A4A6822F4003222437E
:102D00004A609C0706D50168C46A4A6822F480328A
:102D100022434A60590706D50168046B4A6822F4C9
:102D2000802222434A601A0706D50168446B4A682C
:102D300022F4004222434A60DC0606D50168846B17
:102D40008A6822F4805222438A60990606D5016877
:102D5000C46B8A6822F4005222438A605A060FD557
:102D60000168046C4A6822F480122243B4F5801F83
:102D70004A6005D14A68446C22F4C00222434A608A
:102D80001B0606D50268816C536823F400230B43AD
:102D9000536010BD2DE9F041069D04460F461646CE
:102DA00098462168CA6937EA02030CBF0122002253
:102DB000B24202D00020BDE8F0816B1CF2D09DB978
:102DC00023681A6822F4D0721A609A6822F001020D
:102DD0009A60202384F8713084F87230002384F8DC
:102DE00070300320BDE8F081FEF78AF8A0EB080000
:102DF0008542D6D2E4E72DE9F3411F4690F87130C1
:102E0000202B04460D4690464AD1002946D0002A80
:102E100044D090F87030012B42D0012380F87030FC
:102E200000234367212380F87130FEF769F8A4F886
:102E300050800646A4F85280B4F85220009792B20F
:102E4000334652B940212046FFF7A4FF58B920234A
:102E500084F8713084F8700006E00022802120465A
:102E6000FFF798FF18B1032002B0BDE8F081A36816
:102E70002268B3F5805F0DD123695BB935F8023B59
:102E8000C3F308031385B4F85230013B9BB2A4F896
:102E90005230D1E72B7813850135F4E70120E3E7C1
:102EA0000220E1E773B5044600264667FEF728F8DE
:102EB00023681B681A07054617D423681B685B073D
:102EC0000AD56FF07E43009300222B464FF4800119
:102ED0002046FFF75FFFA0B92023002084F871305F
:102EE00084F8700084F872300CE06FF07E43009339
:102EF000324603464FF400112046FFF74BFF0028EF
:102F0000DBD0032002B070BD10B5044660B390F86A
:102F1000713003F0FF021BB980F8702000F0CEFA88
:102F20002268242384F87130136823F001031360AE
:102F30002046FFF7B9FD012816D0636A13B1204679
:102F4000FFF7D4FE23685A6822F490425A609A68C8
:102F500022F02A029A601A6842F0010220461A60A2
:102F6000BDE81040FFF79EBF012010BD000000002B
:102F70002DE9F74303682C4A934206D12B480821D8
:102F800003B0BDE8F043FEF7B8BDB3F1804F3ED1CA
:102F9000274B1C685868D3F80090D3F808801D6848
:102FA000FDF7B0FA064648460F46FDF7ABFA024673
:102FB0000B4630463946FDF745FC00221D4BFDF718
:102FC00017FB00221C4BFDF75FF9064640460F46F3
:102FD000FDF798FA804628468946FDF793FA02469F
:102FE0000B4640464946FDF72DFC0BA3D3E90023D1
:102FF000FDF7FEFA0AA3D3E90023FDF745F93246AF
:10300000CDE900013B4621460C4800F015FB03B01A
:10301000BDE8F083AFF300800000000000386B4093
:103020000000000000B85040002C0140000400489F
:10303000CC06002000405F4000002940617100087C
:1030400010B54FF47A731446024892B2FFF7D3FEDC
:10305000204610BD0808002070B5ACB0FEF752FD48
:103060002F4AD2F8903023F01803C2F8903014237E
:10307000069300230D936023012402250E93072657
:10308000282306A808940C94109511941294139375
:10309000149615951695FEF723FE00B1FEE70F2353
:1030A0000421019303900323049005900DEB01008C
:1030B0000293FFF773F800B1FEE744F2020317939F
:1030C0004FF080532993102320901A9317A84FF0A4
:1030D0008073189419941B961C951D951E93FFF7E9
:1030E000A1F900B1FEE74FF40070FEF71BFD0446A6
:1030F00000B1FEE7FFF7E4F84FF47A73B0FBF3F0AA
:10310000FEF72EFB0420FEF741FBFFF7CDFA224627
:1031100021464FF0FF30FEF7E3FA2CB070BD00BF40
:103120000010024080B5744C8EB0FDF7D5FEFFF75D
:1031300093FFE36C714843F00403E364E36C03F032
:1031400004030293029BE36C43F00103E364E36C2A
:1031500003F001030393039BE36C43F00203E36476
:10316000E36C03F0020300220493082100250126EA
:10317000049BFEF7BDFC082308A960480893099644
:103180000A950B95FEF700FCA36C3343A364A36C74
:1031900033402A46019329460B20019BFEF7A0FAF3
:1031A0000B20FEF7D1FA5648564A85604FF4E133BA
:1031B0000C2780E80C00C560056147618561C56129
:1031C00005624562FFF7A0FE00B1FEE74E4C4F4B93
:1031D00023606060A060E060042503236062E06219
:1031E0002063A063E063204626616561A661E66115
:1031F0002362A6626663FDF7BFFE00B1FEE7444BA3
:1032000008930623099307230A930D907F2308A9A7
:1032100020460B930C95FDF7C5FF00B1FEE73D4B33
:10322000089308A920460997FDF7BCFF00B1FEE707
:10323000394B089308A9122320460993FDF7B2FFE2
:1032400000B1FEE7354C364BA06041F63F7684E88E
:103250004800206141F287336061A0612046E3604D
:10326000FFF730FB00B1FEE74FF4805508A9204678
:103270000895FFF74BFB00B1FEE70590069007901D
:1032800005A92046FFF7E4FB00B1FEE7254C4FF00F
:10329000804384E84800A06042F20F732061A0617F
:1032A0002046E360FFF70EFB00B1FEE708A92046C9
:1032B0000895FFF72BFB00B1FEE7002305A919488D
:1032C00005930793FFF7C4FB00B1FEE703221649FD
:1032D0000D48124CFEF796F96420FDF717FE2046C4
:1032E000FFF7EAF90028FAD10E4C2046FFF7E4F97F
:1032F0000028FAD1FEE700BF001002400004004899
:103300000808002000440040D806002000000450B7
:10331000000180210002B0250004002A8807002057
:10332000002C0140C8070020CC060020FEE700006A
:10333000214B07B51A6E42F001021A661A6E02F0AE
:1033400001020092009A9A6D42F080529A659B6D3C
:1033500003F0805301930320019BFEF7AFF9002295
:1033600011466FF00B00FEF7BBF9002211466FF01B
:103370000A00FEF7B5F9002211466FF00900FEF7CA
:10338000AFF9002211466FF00400FEF7A9F9002200
:1033900011466FF00300FEF7A3F9002211466FF00B
:1033A0000100FEF79DF9002211464FF0FF30FEF7B5
:1033B00097F903B05DF804FB0010024070B5026895
:1033C0001C4B9A4286B0064632D103F17043A3F5F6
:1033D000F8330025DA6C184C42F40052DA64DB6CE6
:1033E000039503F400530093009B382301934FF09F
:1033F00090400B2301A90293FEF7C6FA0F4BA5607C
:1034000084E82800802323614FF4007363614FF444
:103410000063A36120462023E560E3612562FEF797
:10342000C7F918B176210648FFF780FF3465A66218
:1034300006B070BD000004504007002008000240A4
:103440007E71000807B503681A4A93421CD11A4BD3
:103450001A6E42F400621A661B6E002203F40063C7
:10346000114600931820009BFEF73AF91820FEF74A
:103470006BF9002219201146FEF732F91920FEF7E8
:1034800063F903B05DF804FBB3F1804FF9D103F5A4
:1034900004331C209A6D42F001029A659B6D002254
:1034A00003F0010301931146019BFEF719F91C205B
:1034B000E5E700BF002C01400010024070B5026833
:1034C000154B9A4286B025D103F5E63303249A6D55
:1034D00042F400329A659B6D049403F40033009328
:1034E000009B0423019302260723002501A94FF026
:1034F0009040059302960395FEF746FA4FF4004379
:1035000001A94FF09040019302960395049405940D
:10351000FEF73AFA06B070BD0044004008B5FDF76A
:10352000E7FCBDE80840FEF73EB900000148FEF7A1
:10353000E1B900BF400700200148FFF7D9B800BF3C
:1035400088070020FFF7F8BF0148FFF7D1B800BF98
:10355000C80700200F49D1F8883043F47003C1F840
:1035600088300D4B1A68002042F001021A60986002
:103570001A6822F0A85222F410221A604FF48052E6
:10358000DA601A6822F480221A6098614FF00063B2
:103590008B60704700ED00E000100240DFF834D08F
:1035A000002103E00C4B5B58435004310B480C4B9B
:1035B00042189A42F6D30B4A02E0002342F8043B39
:1035C000094B9A42F9D3FFF7C5FF00F011F8FFF756
:1035D000A9FDFEE700000120C874000800000020DB
:1035E000740600207406002090080020FEE700000A
:1035F00070B50D4E0D4CA41BA4100025A54209D199
:103600000B4E0C4C03F096FDA41BA4100025A54204
:1036100005D170BD56F8253098470135EEE756F8CC
:10362000253098470135F2E7C0740008C0740008DF
:10363000C0740008C47400080FB40A4B13B51C68AA
:1036400024B1A36913B9204602F07AF805AB049AB5
:10365000A1680193204600F007F802B0BDE81040D1
:1036600004B07047040000202DE9F04FBDB088463B
:1036700015461C461F46834602F012FA03680D9356
:103680001846FCF7F5FD0990BBF1000F05D0DBF8FB
:10369000183013B9584602F053F8994B984537D172
:1036A000DBF80480D8F86430D80707D4B8F80C30B9
:1036B000990503D4D8F8580002F002FAB8F90C3092
:1036C0009A0409D443F40053A8F80C30D8F86430B5
:1036D00023F40053C8F86430B8F80C301E0702D544
:1036E000D8F8103003BB4146584601F039F8D8B13C
:1036F000D8F86430DD0707D4B8F80C309C0503D443
:10370000D8F8580002F0DDF94FF0FF330A9326E0B5
:103710007C4B984502D1DBF80880C3E77A4B98458B
:1037200008BFDBF80C80BDE7B8F80C3003F01A02D4
:103730000A2A18D1B8F90E20002A14DBD8F8642020
:10374000D00705D4990503D4D8F8580002F0B9F988
:1037500023462A464146584600F0C2FF0A900A987E
:103760003DB0BDE8F08F9FED647B8DED067B0023BF
:103770002CAC1F94219320930595039311931093E0
:103780000A93059D2B4613F8012B12B1252A40F010
:103790008380059BEE1A0DD084E84800219B3344BA
:1037A0002193209B0133072B209377DC08340A9B5D
:1037B00033440A932B78002B00F039870023691CCF
:1037C0008DF85F301A464FF0FF3A0B931D460A20E2
:1037D0004E1C09780596029102992039582900F269
:1037E0001D84DFE811F0B3001B041B04B8001B04A8
:1037F0001B041B041B041B041B04BB0065001B04EF
:10380000C400C7001B04E400E700E700E700E7008E
:10381000E700E700E700E700E7001B041B041B04C8
:103820001B041B041B041B041B041B041B041B01A3
:1038300031011B0431011B041B041B041B04FA008F
:103840001B041B0446031B041B041B041B041B0456
:10385000AD031B041B0493001B041B041B041B046B
:103860001B041B041B041B041B041B040D016B0025
:10387000310131013101FD006B001B041B0400010B
:103880001B04280348037C0307011B048D031B044E
:10389000AF031B041B04C7031D4673E71FAA414661
:1038A000584602F0D4FE002840F099862CAC7EE702
:1038B00001232B2205998BE70F46FBE70BB18DF80F
:1038C0005F20AA0640F1B080073727F0070707F10D
:1038D0000803D7E900670493002E77F1000306DAA6
:1038E00076424FF02D0367EB47078DF85F300123D9
:1038F000D0E200BFAFF30080000000000000000035
:103900006872000888720008487200080BB18DF8D0
:103910005F20A24B1193A90640F13183073727F0AE
:10392000070707F10803D7E900670493EB070BD5F6
:1039300056EA070308D030238DF860309DF8083030
:103940008DF8613045F002050223A0E2002AB1D1D2
:1039500001232022AEE745F00105ABE73E680B9658
:10396000002E07F10401A7DA76420B960F4645F0C8
:1039700004059FE705994E1C097802912A2910D069
:103980004FF0000A05960299303909293FF624AF15
:1039900000FB0A1A05990E4616F8011B02910596BE
:1039A000F1E73968059641EAE17A043782E745F0A4
:1039B00080057FE700210B9102990B9E303900FBB7
:1039C00006110B9105990E4616F8011B02910299FA
:1039D000059630390929EFD9FEE645F0080569E773
:1039E00045F0400566E7059909786C2905D10599E8
:1039F0000131059145F020055CE745F0100559E7D8
:103A00003B1D049300263B688DF888308DF85F607D
:103A10004FF0010A08960DF188091EE10BB18DF8EF
:103A20005F2045F010054CE715F0100F07F1040377
:103A300003D03E680493F7174EE73E68049315F0F1
:103A4000400F18BF36B2F6E70BB18DF85F2007378D
:103A500027F0070707F10803049397ED007B8DED2E
:103A6000067B069B1293079B23F0004313934FF0B2
:103A7000FF324B4BDDE91201FDF754F8002840F00E
:103A8000E3854FF0FF32464BDDE91201FDF72CF8DC
:103A9000002840F0D98500220023DDE90601FDF76A
:103AA00019F810B12D238DF85F303E4B3E4A029934
:103AB00025F080054729CCBF914699464FF0030A6F
:103AC00000260896C9E0BAF1FF3F22D0029B23F0FE
:103AD0002003472B04D1BAF1000F08BF4FF0010AB1
:103AE00045F480731493079B002B15DA069B0E9305
:103AF000079B03F100430F932D230C93029B23F0AC
:103B00002007462F0ED0452F46D10AF1010602218B
:103B10000AE04FF0060AE3E79DED067B00238DEDFA
:103B20000E7BEAE7564603211DAB01931AAB0093C7
:103B3000324619AB9DED0E0B584600F00DFF472F96
:103B4000814602D1EB0740F18C8509EB0603462F35
:103B5000039311D199F80030302B09D100220023B2
:103B6000DDE90E01FCF7ACFF10B9C6F101061996AC
:103B7000039A199B1A44039200220023DDE90E01E7
:103B8000FCF79EFF90B930221D9B039999420FD9F3
:103B9000591C1D911A70F7E75646B8E7F4710008F2
:103BA000FFFFEF7FE4710008E8710008039B1D939D
:103BB0001D9B472FA3EB0903039340F0F880199B4B
:103BC000DF1C02DB9A4580F21F81029B023B0293BD
:103BD000199A9DF808108DF86C10531E002B19933C
:103BE000B6BFC2F101032B222D22092B8DF86D20C7
:103BF00040F3FA800DF17B020A2693FBF6F006FBF8
:103C000010333033092802F8013C02F1FF3103463A
:103C100000F3E380303301F8013C023A0DF16E030A
:103C20000DF17B0082421946C0F0D980039A1BAB8C
:103C3000CB1A012A109303EB020A03DC15F00103EF
:103C4000089303D0099B9A44002308930C9B13B15B
:103C50002D238DF85F30149D002656453346B8BF9E
:103C600053460C939DF85F3013B10C9B01330C93BA
:103C700015F0020314931EBF0C9B02330C9315F036
:103C80008403159314D10B9B0C9A9F1A002F0FDD00
:103C9000A84B2360102F00F3D381219B67601F4442
:103CA000209B21970133072B209300F3E0810834F8
:103CB0009DF85F3073B10DF15F03236001236360F2
:103CC000219B01332193209B0133072B209300F389
:103CD000D8810834149B6BB118AB23600223636056
:103CE000219B02332193209B0133072B209300F368
:103CF000D2810834159B802B14D10B9B0C9A9F1AF0
:103D0000002F0FDD8C4B2360102F00F3CE81219B01
:103D100067601F44209B21970133072B209300F3FA
:103D2000DD810834A6EB0A06002E0FDD824F2760E6
:103D3000102E00F3DD81209B21986660013306443C
:103D4000072B2196209300F3EA810834E90500F15E
:103D5000F081219B84E8000653442193209B01338A
:103D6000072B209340F31B841FAA4146584602F0BC
:103D70006EFC002840F033842CAC680700F11284FC
:103D80000A9B0B9A0C998A42ACBF9B185B180A934A
:103D9000219B3BB11FAA4146584602F058FC00281F
:103DA00040F01D8400232093049F2CACE9E4029B87
:103DB000652B7FF70DAF029B662B25D1199B002B3E
:103DC0001ADDBAF1000F01D1EE0702D5099A1344AA
:103DD0005344199A08929A4638E70A460DE712F8B2
:103DE000011B03F8011B1DE7302213448DF86E20E0
:103DF0008DF86F301CA919E7BAF1000F01D1ED075A
:103E000015D5099B0133E3E7199A039B9A4206DB18
:103E1000E8070ED5099B134467220292D9E7039B5A
:103E20000999002A0B44F7DCC2F10102F3E70123F0
:103E3000CFE71346F0E70BB18DF85F2015F0200FA8
:103E400007F1040308D00A993A68CE1708463146AC
:103E5000C2E900011F4694E4E90603D53A680A99CD
:103E60001160F7E76A06F9D53A68BDF828101180A5
:103E7000F0E745F0100515F0200322D0073727F0B2
:103E8000070707F10803D7E900670493002300221E
:103E90008DF85F20BAF1FF3F00F0E88325F0800243
:103EA000089256EA070240F0E683BAF1000F00F0EC
:103EB000A980012B75D0022B00F0908000260027EE
:103EC000DFE33A1D15F01001049202D03E6800278E
:103ED000DDE715F04003F9D03E880027D6E73B1D0B
:103EE0000493302378228DF86030144B3E68119390
:103EF000002745F002058DF8612002230292C6E7F3
:103F00003B1D0026BAF1FF3F0493D7F800908DF8CF
:103F10005F600AD0524631464846FCF759F90028FE
:103F200000F08C80A0EB090ACBE54846FCF7A0F92D
:103F30008246C6E51872000828720008057200085B
:103F400045F01005AE0609D5073727F0070707F13A
:103F50000803D7E900670493012398E73B1D15F098
:103F6000100F049301D03E6802E06806FBD53E883E
:103F70000027F1E70BB18DF85F20A24BCAE43B1D8F
:103F800015F0100F049301D03E6802E06A06FBD5DD
:103F90003E880027CAE44B4674E3002F08BF0A2E70
:103FA00005D20DF1F009303609F8416D85E30DF1C8
:103FB000B009304639460A220023FCF7F1FD3032C1
:103FC00009F8012D0023304639460A22FCF7E8FDA6
:103FD00006460F4656EA0703EBD16EE3002600279C
:103FE0000DF1B00906F00F03119AD35C09F8013DF9
:103FF000330943EA07733A091E46174656EA070390
:10400000F0D15AE33BB9E80705D50DF1F0093023AB
:1040100009F8413D51E30DF1B0094EE30BB18DF8C4
:104020005F20029B002B00F002839DF808308DF882
:10403000883000268DF85F600497E9E4064640E585
:1040400010236360219B10332193209B0133072BA6
:10405000209302DC0834103F1AE61FAA4146584656
:1040600002F0F5FA002840F0BA822CACF3E71FAA60
:104070004146584602F0EBFA002840F0B0822CACE2
:1040800016E61FAA4146584602F0E1FA002840F021
:10409000A6822CAC1EE61FAA4146584602F0D7FA6B
:1040A000002840F09C822CAC24E610226260219A09
:1040B00010322192209A0132072A209202DC083421
:1040C000103F20E61FAA41465846149302F0BFFA5B
:1040D000002840F084822CAC149BF1E71FAA4146D3
:1040E000584602F0B4FA002840F079822CAC19E668
:1040F00010236360219B10332193209B0133072BF6
:10410000209302DC0834103E11E61FAA41465846AF
:1041100002F09DFA002840F062822CACF3E71FAA5F
:104120004146584602F093FA002840F058822CACE1
:104130000CE6029B652B40F3AD8100220023DDE9F4
:104140000601FCF7BDFC002862D02F4B2360012341
:104150006360219B01332193209B0133072B209324
:1041600025DC0834199B039A934202DBEA077FF5AA
:1041700004AE0D9B2360099B6360099A219B134445
:104180002193209B0133072B20931ADC0834039BD7
:104190005E1E002E7FF7F1AD1C4F4FF01009102E60
:1041A000276018DC6660219B1E442196D6E51FAA75
:1041B0004146584602F04BFA002840F010822CACE1
:1041C000D0E71FAA4146584602F041FA002840F0C5
:1041D00006822CACDBE7219BC4F8049010332193BA
:1041E000209B0133072B209302DC0834103ED6E7D6
:1041F0001FAA4146584602F02AFA002840F0EF81F3
:104200002CACF3E70572000816720008287200084B
:10421000199B002B7ADC9D4B236001236360219B5B
:1042200001332193209B0133072B209344DC083476
:10423000199B23B9039B13B9EB077FF59EAD0D9B2B
:104240002360099B6360099A219B13442193209B5F
:104250000133072B209339DC04F10803199E002E4B
:1042600019DA8B4F76421024102E1F6038DC219A09
:104270005E601644209A21960132072A03F1080352
:10428000209208DD1FAA4146584602F0E0F90028B6
:1042900040F0A5812CAB039A5A600399219AC3F888
:1042A00000900A442192209A0132072A20923FF777
:1042B0005BAD03F1080460E51FAA4146584602F0D1
:1042C000C6F9002840F08B812CACB1E71FAA41460B
:1042D000584602F0BCF9002840F081812CABBDE7C4
:1042E000219A5C6010322192209A0132072A209292
:1042F00002DC0833103EB7E71FAA4146584602F0D9
:10430000A6F9002840F06B812CABF3E7089B039AD9
:104310009342A8BF1346002B1E460BDD6360219B12
:10432000C4F8009033442193209B0133072B209342
:1043300062DC0834089B002EA8BF9B1B002B1E4686
:104340000FDD534F4FF0100A102E27605EDC219BCB
:1043500066601E44209B21960133072B20936CDC62
:104360000834199B039A934201DBEF070DD50D9B8F
:104370002360099B6360099A219B13442193209B2E
:104380000133072B209362DC0834039B089A9E1AA2
:10439000199B039AD31A9E42A8BF1E46002E0CDD1D
:1043A000089B4B4484E84800219B33442193209B85
:1043B0000133072B209354DC0834199B039A002EF9
:1043C000A2EB0303ACBF9E1B1E46002E7FF7D5ACAD
:1043D0002F4F4FF01009102E27607FF7E3AE219B7F
:1043E000C4F8049010332193209B0133072B2093B2
:1043F00041DC0834103EEEE71FAA4146584602F061
:1044000026F9002840F0EB802CAC93E7219BC4F800
:1044100004A010332193209B0133072B209302DC4F
:104420000834103E90E71FAA4146584602F00FF9A3
:10443000002840F0D4802CACF3E71FAA4146584630
:1044400002F005F9002840F0CA802CAC89E71FAAC9
:104450004146584602F0FBF8002840F0C0802CACE2
:1044600093E71FAA4146584602F0F1F8002840F0B1
:10447000B6802CACA1E71FAA4146584602F0E7F8E7
:10448000002840F0AC802CACB4E700BF16720008E6
:1044900028720008039B012B01DCEE0776D501236F
:1044A0006360219BC4F8009001332193209B01336A
:1044B000072B209336DC08340D9B2360099B636037
:1044C000099A219B13442193209B0133072B2093AE
:1044D00031DC083400230022DDE90601FCF7F0FAA4
:1044E000039B5E1E00282FD109F1010384E84800D8
:1044F000219B039A013B13442193209B0133072BFB
:1045000020934ADD1FAA4146584602F0A0F8002831
:1045100065D12CAC1BAB2360109B6360109A219B70
:1045200013441AE41FAA4146584602F090F80028A6
:1045300055D12CACC0E71FAA4146584602F087F877
:1045400000284CD12CACC5E7002EE3DD604F4FF0C6
:104550001009102E276004DC219B66601E44219602
:10456000CBE7219BC4F8049010332193209B0133A7
:10457000072B209302DC0834103EEAE71FAA4146CD
:10458000584602F064F850BB2CACF5E70123636099
:10459000219BC4F800900133AEE70834BAE7083431
:1045A000FFF7EBBB0B9B0C9A9D1A002D7FF7E8AB36
:1045B0001026484B2360102D24DC219B65601D4490
:1045C000209B21950133072B20937FF7D9AB1FAA9E
:1045D0004146584602F03BF800283FF4D1ABD8F8EA
:1045E0006430D90707D4B8F80C309A0503D4D8F84A
:1045F000580001F066FAB8F80C305B067FF5AFA8FA
:10460000FFF782B8219B666010332193209B013312
:10461000072B209302DC0834103DCAE71FAA41464D
:10462000584602F014F80028D9D12CACF4E7219BAD
:1046300013B900232093D2E71FAA4146584602F03F
:1046400006F80028F5D0CAE7DDE90623104619462A
:10465000FCF768FA00283FF436AA1F4B1F4AFFF701
:1046600026BA1D9B1B1A0393FFF7A9BA56EA070245
:1046700008953FF41EAC012B3FF48FAC022B3FF4A6
:10468000AFAC2CABF10841EA4771F80806F007021D
:1046900007460E46303256EA070103F1FF3903F8A8
:1046A000012C7FF478AC0899CD0706D5302A04D0C8
:1046B000302209F8012CA3F10209564600230DF11E
:1046C000B00A089D0893AAEB090AFFF7C6BA00BF13
:1046D0002872000818720008EC710008F0710008D8
:1046E000F0B50C46ADF26C4D1F468989636E199387
:1046F000E389ADF80E3021F00201236AADF80C1009
:1047000008931AA9A36A0A93154600230646009146
:10471000049116A84FF4806102910591069301F06F
:10472000CDF92A463B4669463046FEF79DFF051EF9
:1047300007DB6946304600F06FFF002818BF4FF0D6
:10474000FF35BDF80C3016985B0642BFA38943F0D5
:104750004003A38101F0B3F928460DF26C4DF0BD82
:10476000324B70B51D6806460C4625B1AB6913B9CE
:10477000284600F0E5FF2E4B9C420FD16C68B4F93F
:104780000C309AB215072CD4D00611D4092232600D
:1047900043F04003A3814FF0FF3070BD254B9C4296
:1047A00001D1AC68EBE7244B9C4208BFEC68E6E71C
:1047B000510712D5616B41B104F14403994202D013
:1047C000304601F093F800236363A38923F02403A8
:1047D000A3810023636023692360A38943F0080356
:1047E000A38123694BB9A38903F42073B3F5007F38
:1047F00003D02146304601F091F9A28912F001035D
:104800000CD00023A36063695B42A361236953B9A1
:10481000B4F90C3013F08000BAD170BD920758BFC4
:104820006369A360F2E70020F7E700BF04000020FF
:104830006872000888720008487200082DE9F74F76
:1048400003690C699C42804600F38280013C01F1BF
:1048500014074FEA840E00F1140657F8245056F856
:10486000240006EB0E03013507EB0E090193B0FBA4
:10487000F5F595B34FF0000A3846B446D34650F8E4
:10488000042B93B205FB03A34FEA134A9BB2ABEB95
:104890000303120CBCF800B005FB02A213FA8BF361
:1048A0004FEA124A1FFA82FBDCF80020CBEB1242DF
:1048B00002EB23429BB243EA024381454FEA224B7B
:1048C0004CF8043BDBD256F80E3033B9019B043B65
:1048D0009E421A4630D3C8F81040404601F09DFD74
:1048E000002825DB013530464FF0000E57F8042B29
:1048F000D0F800C093B2AEEB0303120C13FA8CF3A2
:10490000C2EB1C4202EB23429BB243EA0243B9458D
:104910004FEA224E40F8043BE8D256F8242006EB3A
:1049200084032AB9043B9E421A460BD3C8F81040B0
:10493000284603B0BDE8F08F1268043B002ACAD1B4
:10494000013CC5E71268043B002AEFD1013CEAE7CD
:104950000020EEE7000000002DE9F04F57EC106B4F
:1049600097B0CDE90067466A079104460A920F9313
:10497000209D3EB9102001F011F96062466086600A
:104980000660C660636A196851B15A684A600123BB
:1049900093408B60204601F06BFB636A00221A6033
:1049A000019B002BBFBF01232B60019B23F0004321
:1049B000B2BF019300232B60DDF80480A84B33EADB
:1049C00008031BD10F9A42F20F731360009B23B9A7
:1049D000C8F31300002800F07885219B53B9A14B40
:1049E00021E0A14B02930833219A1360029817B07B
:1049F000BDE8F08F9B4B02930333F5E7DDE90067D9
:104A00000022002330463946FCF75AF8814660B14F
:104A10000F9A01231360219B002B00F05385934BC9
:104A2000219A1360013B0293E0E714AA15A947EC11
:104A3000106B204601F069FDC8F30A558246002D2F
:104A40007ED0C7F3130343F07F51304641F4401149
:104A5000A5F2FF35CDF848900022854BFBF714FCFA
:104A600079A3D3E90023FBF7C3FD79A3D3E900239E
:104A7000FBF70CFC064628460F46FBF753FD76A3D2
:104A8000D3E90023FBF7B4FD02460B463046394616
:104A9000FBF7FCFB06460F46FCF75AF8002283465C
:104AA000002330463946FCF715F858B15846FBF755
:104AB00039FD02460B4630463946FCF701F808B985
:104AC0000BF1FF3BBBF1160F59D86A4901EBCB0143
:104AD000DDE90023D1E90001FCF71AF8002850D0E5
:104AE0000BF1FF3B00230E93149B5D1B6B1E069383
:104AF00045BFC5F101030593002300234CBF069376
:104B00000593BBF1000F3EDB069BCDF82CB05B4458
:104B1000069300230893079B092B00F2AF80052B17
:104B2000C4BF043B0793079BA3F10203CCBF00263D
:104B30000126032B00F2AE80DFE803F082842F779A
:104B4000159B149D1D4405F23243202B11DD009A64
:104B500005F21240C3F1400322FA00F008FA03F311
:104B60001843FBF7CFFC0123A1F1F871013D12932B
:104B700072E7C3F12000009B03FA00F0F1E7012384
:104B8000B1E70E90B0E7059BA3EB0B030593CBF1C8
:104B90000003089300230B93BDE7012309930A9BAD
:104BA000002B7ADD04930393656A00226A60042176
:104BB00001F114029A4275D96968204601F024FA7D
:104BC000636A28601B680293039B0E2B00F2E5804A
:104BD000002E00F0E2809DED007BBBF1000F8DED1B
:104BE0000C7B74DD234A0BF00F034FEA2B1602EB0C
:104BF000C303F006D3E9008959D51F4B51EC170BBD
:104C0000D3E90823FBF71EFECDE9000106F00F06ED
:104C10000325194F002E4CD142464B46DDE90001D9
:104C2000FBF710FECDE900016AE0012309930A9B1E
:104C30005B4404930133012B0393B8BF0123B3E713
:104C40000023ABE70023F1E761436F63A787D23FFF
:104C5000B3C8608B288AC63FFB799F501344D33F6B
:104C60000000F07F417200083872000817720008D7
:104C70000000F83FD8720008B07200080126002337
:104C8000079309964FF0FF330493039300221223F6
:104C90000A9289E701230993F4E70123049303931C
:104CA0001A46F5E76A6801326A60490080E7022522
:104CB000AFE7F10708D540464946D7E90023FBF79F
:104CC00097FC01358046894676100837A2E700F048
:104CD0009D80CBF100069F4B9F4F06F00F0203EB28
:104CE000C203D3E90023DDE90C01FBF781FCCDE928
:104CF0000001361100230225002E7CD1002B91D11A
:104D00000E9B002B00F08480DDE900890022934B8C
:104D100040464946FBF7DEFE002879D0039B002B76
:104D200076D0049B002B34DD00228D4B4046494653
:104D3000FBF75EFCCDE90001049E0BF1FF37013566
:104D40002846FBF7EFFBDDE90023FBF751FC0022CF
:104D5000844BFBF79BFA8046A1F15079002E5AD183
:104D60000022814BDDE90001FBF78EFA42464B46FB
:104D7000CDE90001FBF7CCFE002840F09B824246C3
:104D800009F10043DDE90001FBF7A4FE002840F033
:104D90008F82DDE90C23CDE90023159B002BC0F2A7
:104DA0005081BBF10E0F00F34C816A4B03EBCB0338
:104DB000D3E900890A9B002B80F2DA80039B002B49
:104DC00000F3D68040F073820022674B404649468C
:104DD000FBF70EFCDDE90023FBF790FE039E374650
:104DE000002840F04A82029B029A5D1C3123137016
:104DF0000BF1010B45E2F20705D5D7E90023FBF7DC
:104E0000F7FB013501237610083775E7022577E7B0
:104E10005F46039E94E7029A4E4B32441392099ADE
:104E2000711E002A48D003EBC103D3E90023002000
:104E30004E49FBF707FD42464B46FBF725FA029D1C
:104E400080468946DDE90001FBF782FE0646FBF756
:104E500069FB02460B46DDE90001FBF715FA303627
:104E600005F8016B42464B46CDE90001FBF732FEE7
:104E7000002865D1DDE9002300203849FBF704FA5A
:104E800042464B46FBF726FE002840F0BA80139BB3
:104E90009D423FF47EAF0022314B40464946FBF72E
:104EA000A7FB0022804689462D4BDDE90001FBF778
:104EB0009FFBCDE90001C5E703EBC10142464B462C
:104EC000D1E90001FBF794FBCDE91001029DDDE97A
:104ED0000001FBF73DFE0646FBF724FB3036024699
:104EE0000B46DDE90001FBF7CFF905F8016B139BD9
:104EF000AB42804689464FF0000225D11B4BDDE9CD
:104F00001001FBF7C3F902460B4640464946FBF742
:104F1000FFFD002875D1DDE9102300201349FBF7C0
:104F2000B3F902460B4640464946FBF7D3FD00283D
:104F30003FF42FAF15F8013C302B05F1FF3201D0C3
:104F4000BB464DE01546F5E7054BFBF751FBCDE9B8
:104F50000001BCE7D8720008B07200080000F03F02
:104F60000000244000001C40000014400000E03F0E
:104F7000DDE90067029D42464B4630463946FBF765
:104F800061FCFBF7E5FD0090FBF7CCFA42464B468F
:104F9000FBF72EFB02460B4630463946FBF774F909
:104FA000009E039F303605F8016B029EAE1BB74290
:104FB00002460B4638D1FBF769F906460F46024612
:104FC0000B4640464946FBF785FDC8B932463B468D
:104FD00040464946FBF774FD10B1009BDB070FD438
:104FE0005146204601F044F800230F9A2B700BF134
:104FF00001031360219B002B3FF4F8AC1D60F5E426
:105000005F4615F8012C392A05F1FF3306D1029AC3
:105010009A4207D130231370013713461A780132B0
:105020001A708DE71D46ECE70022A44BFBF7E0FA6F
:105030000022002306460F46FBF742FD00289AD0C7
:10504000CEE7099A002A00F0CD80079A012A00F3E2
:10505000AF80129A002A00F0A78003F23343089E23
:10506000059D059A1A440592069A01211A44204684
:10507000069201F09DF80746002D0CDD069B002BE3
:1050800009DDAB42059AA8BF2B46D21A0592069AB3
:10509000ED1AD31A0693089BF3B1099B002B00F07D
:1050A000A580002E10DD39463246204601F016F963
:1050B000524601460746204601F083F85146804695
:1050C000204600F0D5FFC246089B9A1B04D05146EB
:1050D000204601F003F982460121204601F068F8DC
:1050E0000B9B002B064640F383801A460146204660
:1050F00001F0F4F8079B012B06467CDD4FF0000819
:10510000336906EB8303186901F004F8C0F120004D
:10511000069B184410F01F0000F09680C0F1200399
:10512000042B40F38780059BC0F11C0003440593CA
:10513000069B054403440693059B002B05DD514661
:105140001A46204601F018F98246069B002B05DD21
:1051500031461A46204601F00FF906460E9B002BF9
:1051600074D03146504601F058F900286EDA002319
:1051700051460A22204600F092FF099B0BF1FF3BAB
:105180008246002B00F0A881002339460A222046DF
:1051900000F085FF049B002B074600F3C880079BA7
:1051A000022B40F3C48059E0149BC3F1360356E749
:1051B000039B5E1E089BB342BFBF089B0896F21A72
:1051C0000B9BB6BF9B189E1B0B93039BB8BF00267F
:1051D000002BB9BF059B039A059D039BBCBF9D1A7D
:1051E00000233EE7089E059D099F45E7089A6EE764
:1051F000079B012B19DC009BBBB9019BC3F3130375
:105200009BB9019B23F000431B0D1B0583B1059B3C
:1052100001330593069B013306934FF001080B9B66
:10522000002B7FF46DAF012072E74FF00008F6E726
:105230009846F4E780D0059A1C331A440592069AE2
:105240001A441D44134676E70346F4E7039B002BFC
:1052500036DC079B022B33DD039B0493049B63B96D
:1052600031460522204600F01AFF01460646504608
:1052700001F0D3F800283FF7B6AD0A9B029D6FEA14
:10528000030B002303933146204600F0F1FE002F6C
:105290003FF4A6AE039B2BB1BB4203D01946204678
:1052A00000F0E6FE3946204600F0E2FE98E60026D1
:1052B0003746E2E7BB46374695E500BF000024408D
:1052C000099B93BB039B0493029D31465046FFF715
:1052D000B5FA00F1300905F8019B029B049AEB1A1C
:1052E0009A4200F3DC80029B012AACBF9B18013379
:1052F00098460023039351460122204601F03CF8D2
:105300003146824601F089F8002800F38D8003D1F0
:1053100019F0010F40F08880454615F8013C302B0C
:1053200005F1FF32AFD11546F7E7039B0493002D3B
:1053300005DD39462A46204601F01EF80746B8F139
:10534000000F4CD07968204600F05EFE3A690232C8
:105350000546920007F10C010C3000F035FE0122E9
:105360002946204601F008F8009BDDF808800397E5
:1053700003F001030746059331465046FFF75EFAF6
:105380000399054600F13009504601F046F83A46C7
:1053900000903146204601F05AF8C368024603BB2C
:1053A00001460690504601F038F8069A0346114629
:1053B0002046069300F05CFE069BA3B9079A92B9BB
:1053C000059A82B9B9F1390F29D0009B002B01DD74
:1053D00005F1310908F1010588F8009053E73846D6
:1053E000C2E70123E3E7009A002A04DB25D1079AEC
:1053F0001ABB059A0ABB002BECDD51460122204660
:1054000000F0BAFF3146824601F007F8002803DCBD
:10541000E0D119F0010FDDD0B9F1390FD8D139231E
:1054200088F8003008F10108454615F8013C392B91
:1054300005F1FF323BD0013340E0002B08F10105BC
:1054400005DDB9F1390FEAD009F10109C4E7029B82
:10545000049A05F8019CEB1A9342A8463FF44BAF1F
:10546000514600230A22204600F019FE039B0399AF
:10547000BB4282464FF000034FF00A02204604D19F
:1054800000F00DFE0390074676E700F008FE0023CB
:1054900003900A223946204600F001FEF3E7514608
:1054A00000230A22204600F0FAFD82460DE7029B07
:1054B000934205D1029A0BF1010B31231370E2E6FE
:1054C0001546B2E7094BFFF7AEBA219B002B7FF4DC
:1054D00088AA074BFFF7A7BA049B002B3FF7F4AE4F
:1054E000079B022B7FF7F0AEB8E600BF16720008EC
:1054F00038720008B1F90C2093B22DE9F04105464D
:1055000018070C4661D44B6842F40062002B8A8174
:1055100005DC0B6C002B02DC0020BDE8F081E66AA4
:10552000002EF9D0002312F480522F682B6037D060
:10553000606DA3895A0705D56368C01A636B0BB108
:10554000236CC01A00230246E66A216A2846B04747
:10555000431CA38906D129681D294FD82D4ACA406A
:10556000D6074BD523F400631BB200226260D90436
:105570002269A381226004D5421C01D12B6803B9A2
:105580006065616B2F600029C6D004F14403994225
:1055900002D0284600F0AAF900206063BDE8F0813F
:1055A000216A01232846B047411CC2D12B68002B39
:1055B000BFD01D2B01D0162B01D12F60ACE7A389E2
:1055C00043F04003A381BDE8F0810F69002FA3D011
:1055D0009B070E6808BF4B690F6018BF0023A6EB3E
:1055E00007088B60B8F1000F96DD43463A46216A02
:1055F000A66A2846B047002807DCA38943F0400389
:10560000A3814FF0FF30BDE8F0810744A8EB00080C
:10561000E8E700BF0100402038B50B6905460C469D
:1056200013B90025284638BD18B183690BB900F0BD
:1056300087F8144B9C421BD16C68B4F90C30002BDA
:10564000EFD0626ED00704D4990502D4A06D00F0AB
:1056500037FA28462146FFF74DFF636EDA07054605
:10566000E0D4A3899B05DDD4A06D00F02AFAD9E728
:10567000054B9C4201D1AC68DFE7044B9C4208BF5C
:10568000EC68DAE76872000888720008487200085F
:10569000014900F0E7B900BF59670008002310B5C1
:1056A000044603604360836081814366C281036175
:1056B00043618361194608225C3000F090FC054B81
:1056C0006362054BA362054BE362054B24622363CF
:1056D00010BD00BFC9650008EB650008236600081F
:1056E0004766000870B54A1E682555430E4605F109
:1056F000740100F05BFA044640B1002180E84200EA
:105700000C30A06005F1680200F069FC204670BD15
:10571000014800F0D5B900BF88080020014800F01A
:10572000D0B900BF88080020014800F0C9B900BF07
:1057300083080020014800F0C4B900BF830800209E
:1057400010B50446FFF7F0FFA3691BB1BDE8104098
:10575000FFF7F0BFC4F8D830C4F8DC30C4F8E0304C
:10576000124B134A1B68A2629C4204BF0123A3612F
:10577000204600F01FF86060204600F01BF8A06093
:10578000204600F017F80022E06004216068FFF76F
:1057900085FF01220921A068FFF780FF0222122164
:1057A000E068FFF77BFF0123A361CFE7A872000841
:1057B00091560008F8B50746FFF7AAFF1F4B1E6871
:1057C000B36913B93046FFF7BBFFD836B4687368C6
:1057D000013B03D5336833B13668F7E7B4F90C50B1
:1057E0007DB16834F4E704213846FFF77BFF0446B7
:1057F00030600028F0D1FFF791FF0C233B6020467A
:10580000F8BD4FF6FF73E3810123A38104F1580033
:10581000656600F053F9FFF781FF2560A5606560BC
:1058200025616561A5610822294604F15C0000F04C
:10583000D6FB6563A563A564E564E0E7A87200088C
:105840002DE9F843254FDFF8A0808946064600F091
:10585000CFFBBB685D68A8F1110425F00305A4EB3C
:1058600009042C44B4FBF8F4013C08FB04F444455F
:1058700005DA304600F0C2FB0020BDE8F8830021C5
:10588000304600F091FEBB682B449842F1D1614252
:10589000304600F089FE013010D10021304600F082
:1058A00083FEBA68831A0F2BE3DD0D490968401A9D
:1058B0000C4943F0010308605360DAE7BB68094A0A
:1058C0002D1B45F001055D60136830461C1B1460FC
:1058D00000F094FB0120BDE8F88300BFF800002031
:1058E0000005002090060020800000002DE9F04116
:1058F00004468846002900F0AB8000F079FB58F898
:10590000042C544D22F00100A8F108031F18A968C7
:105910007E688F4226F0030602F001021BD130445C
:105920003AB958F8082C9B1A10449968DA68CA608A
:10593000916040F001025A60AB60474B1B6898428F
:1059400004D3464B20461968FFF77AFF2046BDE88E
:10595000F04100F053BB7E60002A39D158F8081C92
:105960005B1A0844996805F1080E714532D0D3F8E6
:105970000CE0C1F80CE0CEF80810B9194968C90765
:105980000AD43044B9683ABB354EB14224D16B6178
:105990002B610122D960996040F0010159601850D3
:1059A000002AD3D1B0F5007F1AD2C008811001229D
:1059B0008A40696801300A436A6005EBC00255F805
:1059C00030109960083ADA6045F83030CB60BDE7B6
:1059D0000022D2E70122D0E7FE68CE60B160DBE7AB
:1059E000420A042A13D882093832511C05EBC20638
:1059F00055F831108E4224D10120921000FA02F2A3
:105A0000686802436A60DE609960B360DEE7142A6A
:105A100001D85B32E9E7542A02D8020B6E32E4E780
:105A2000B2F5AA7F02D8C20B7732DEE740F25451BA
:105A30008A429ABF820C7C327E22D6E789688E42E7
:105A400004D04A6822F003029042F7D3CE68DAE726
:105A5000BDE8F081F800002004050020C006002009
:105A6000000100202DE9F8438046894600F1D80462
:105A7000002614B93046BDE8F883A5686768013F81
:105A800001D52468F5E7AB89012B07D9B5F90E30AC
:105A9000013303D029464046C84706436835EEE740
:105AA000044B1B68186A044B002808BF1846F030E6
:105AB000704700BF040000200805002070477047B1
:105AC0007047704770B50E46B1F90E10002990B0BE
:105AD00014461D4609DAB389002213F080002A60BB
