:020000040800F2
:1000000000500020C93100089D2800089F280008E2
:10001000A1280008A3280008A52800080000000067
:10002000000000000000000000000000A7280008F9
:10003000A928000800000000AB280008AD2800082F
:100040001132000811320008113200081132000884
:100050001132000811320008113200081132000874
:100060001132000811320008113200081132000864
:100070001132000811320008113200081132000854
:100080001132000811320008113200081132000844
:10009000113200081132000811320008BB28000894
:1000A0001132000811320008113200081132000824
:1000B000DD28000811320008113200081132000852
:1000C0001132000811320008113200081132000804
:1000D000113200081132000811320008E928000826
:1000E000113200081132000811320008000000002F
:1000F0000000000000000000000000000000000000
:0C01000000000000000000005FF808F1A3
:1001100010B5054C237833B9044B13B10448AFF341
:1001200000800123237010BD98060020000000000D
:10013000A060000808B5034B1BB103490348AFF3A7
:10014000008008BD000000009C060020A0600008A0
:10015000034613F8012B002AFBD1181A0138704707
:1001600081F0004102E000BF83F0004330B54FEA68
:1001700041044FEA430594EA050F08BF90EA020FD5
:100180001FBF54EA000C55EA020C7FEA645C7FEA68
:10019000655C00F0E2804FEA5454D4EB5555B8BF8B
:1001A0006D420CDD2C4480EA020281EA030382EAFC
:1001B000000083EA010180EA020281EA0303362D8E
:1001C00088BF30BD11F0004F4FEA01314FF4801C61
:1001D0004CEA113102D0404261EB410113F0004F73
:1001E0004FEA03334CEA133302D0524263EB43032A
:1001F00094EA050F00F0A780A4F10104D5F1200EC8
:100200000DDB02FA0EFC22FA05F2801841F1000122
:1002100003FA0EF2801843FA05F359410EE0A5F1F6
:1002200020050EF1200E012A03FA0EFC28BF4CF027
:10023000020C43FA05F3C01851EBE37101F00045DD
:1002400007D54FF0000EDCF1000C7EEB00006EEBEA
:100250000101B1F5801F1BD3B1F5001F0CD3490874
:100260005FEA30004FEA3C0C04F101044FEA4452CB
:1002700012F5800F80F09A80BCF1004F08BF5FEA52
:10028000500C50F1000041EB045141EA050130BD32
:100290005FEA4C0C404141EB010111F4801FA4F1D5
:1002A0000104E9D191F0000F04BF01460020B1FA2A
:1002B00081F308BF2033A3F10B03B3F120020CDA62
:1002C0000C3208DD02F1140CC2F10C0201FA0CF040
:1002D00021FA02F10CE002F11402D8BFC2F1200CA5
:1002E00001FA02F120FA0CFCDCBF41EA0C0190405B
:1002F000E41AA2BF01EB0451294330BD6FEA0404A4
:100300001F3C1CDA0C340EDC04F11404C4F120028E
:1003100020FA04F001FA02F340EA030021FA04F3A0
:1003200045EA030130BDC4F10C04C4F1200220FAF7
:1003300002F001FA04F340EA0300294630BD21FA35
:1003400004F0294630BD94F0000F83F4801306BFFB
:1003500081F480110134013D4EE77FEA645C18BFEF
:100360007FEA655C29D094EA050F08BF90EA020F86
:1003700005D054EA000C04BF1946104630BD91EA7E
:10038000030F1EBF0021002030BD5FEA545C05D181
:100390004000494128BF41F0004130BD14F58004C0
:1003A0003CBF01F5801130BD01F0004545F0FE4134
:1003B00041F470014FF0000030BD7FEA645C1ABF69
:1003C000194610467FEA655C1CBF0B46024650EAA0
:1003D000013406BF52EA033591EA030F41F40021CC
:1003E00030BD00BF90F0000F04BF0021704730B552
:1003F0004FF4806404F132044FF000054FF0000127
:1004000050E700BF90F0000F04BF0021704730B5E7
:100410004FF4806404F1320410F0004548BF4042BC
:100420004FF000013EE700BF42004FEAE2014FEA11
:1004300031014FEA02701FBF12F07F4393F07F4FEC
:1004400081F06051704792F0000F14BF93F07F4F1E
:10045000704730B54FF4607401F0004521F0004161
:1004600020E700BF50EA010208BF704730B54FF0E7
:1004700000050AE050EA010208BF704730B511F0EC
:10048000004502D5404261EB41014FF4806404F124
:1004900032045FEA915C3FF4DCAE4FF003025FEAA6
:1004A000DC0C18BF03325FEADC0C18BF033202EB2E
:1004B000DC02C2F1200300FA03FC20FA02F001FA88
:1004C00003FE40EA0E0021FA02F11444C1E600BF27
:1004D00070B54FF0FF0C4CF4E06C1CEA11541DBFDA
:1004E0001CEA135594EA0C0F95EA0C0F00F0DEF8A5
:1004F0002C4481EA030621EA4C5123EA4C5350EA8A
:10050000013518BF52EA033541F4801143F48013DA
:1005100038D0A0FB02CE4FF00005E1FB02E506F06B
:100520000042E0FB03E54FF00006E1FB03569CF0C0
:10053000000F18BF4EF0010EA4F1FF04B6F5007FC6
:1005400064F5407404D25FEA4E0E6D4146EB060638
:1005500042EAC62141EA55514FEAC52040EA5E50C1
:100560004FEACE2EB4F1FD0C88BFBCF5E06F1ED86B
:10057000BEF1004F08BF5FEA500E50F1000041EBA2
:10058000045170BD06F0004646EA010140EA02004F
:1005900081EA0301B4EB5C04C2BFD4EB0C0541EA71
:1005A000045170BD41F480114FF0000E013C00F386
:1005B000AB8014F1360FDEBF002001F0004170BDAA
:1005C000C4F10004203C35DA0C341BDC04F11404C3
:1005D000C4F1200500FA05F320FA04F001FA05F24F
:1005E00040EA020001F0004221F0004110EBD3701C
:1005F00021FA04F642EB06015EEA430E08BF20EA48
:10060000D37070BDC4F10C04C4F1200500FA04F3EA
:1006100020FA05F001FA04F240EA020001F000417C
:1006200010EBD37041F100015EEA430E08BF20EAEF
:10063000D37070BDC4F1200500FA05F24EEA020E37
:1006400020FA04F301FA05F243EA020321FA04F066
:1006500001F0004121FA04F220EA020000EBD3701D
:100660005EEA430E08BF20EAD37070BD94F0000F1D
:100670000FD101F00046400041EB010111F4801F51
:1006800008BF013CF7D041EA060195F0000F18BF02
:10069000704703F00046520043EB030313F4801F3E
:1006A00008BF013DF7D043EA0603704794EA0C0FF8
:1006B0000CEA135518BF95EA0C0F0CD050EA41060E
:1006C00018BF52EA4306D1D181EA030101F000418B
:1006D0004FF0000070BD50EA410606BF10461946B3
:1006E00052EA430619D094EA0C0F02D150EA0136BF
:1006F00013D195EA0C0F05D152EA03361CBF104600
:1007000019460AD181EA030101F0004141F0FE419E
:1007100041F470014FF0000070BD41F0FE4141F422
:10072000780170BD70B54FF0FF0C4CF4E06C1CEA22
:1007300011541DBF1CEA135594EA0C0F95EA0C0FD7
:1007400000F0A7F8A4EB050481EA030E52EA033592
:100750004FEA013100F088804FEA03334FF08055B3
:1007600045EA131343EA12634FEA022245EA1115E0
:1007700045EA10654FEA00260EF000419D4208BF91
:10078000964244F1FD0404F5407402D25B084FEA3E
:100790003202B61A65EB03055B084FEA32024FF4EA
:1007A00080104FF4002CB6EB020E75EB030E22BF47
:1007B000B61A754640EA0C005B084FEA3202B6EB07
:1007C000020E75EB030E22BFB61A754640EA5C00B6
:1007D0005B084FEA3202B6EB020E75EB030E22BF46
:1007E000B61A754640EA9C005B084FEA3202B6EB47
:1007F000020E75EB030E22BFB61A754640EADC0006
:1008000055EA060E18D04FEA051545EA16754FEA67
:1008100006164FEAC30343EA52734FEAC2025FEA85
:100820001C1CC0D111F4801F0BD141EA00014FF014
:1008300000004FF0004CB6E711F4801F04BF0143E5
:100840000020B4F1FD0C88BFBCF5E06F3FF6AFAE01
:10085000B5EB030C04BFB6EB020C5FEA500C50F191
:10086000000041EB045170BD0EF0004E4EEA113114
:1008700014EB5C04C2BFD4EB0C0541EA045170BD1B
:1008800041F480114FF0000E013C90E645EA060E5F
:100890008DE60CEA135594EA0C0F08BF95EA0C0F8D
:1008A0003FF43BAF94EA0C0F0AD150EA01347FF4D5
:1008B00034AF95EA0C0F7FF425AF104619462CE7AC
:1008C00095EA0C0F06D152EA03353FF4FDAE10460F
:1008D000194622E750EA410618BF52EA43067FF460
:1008E000C5AE50EA41047FF40DAF52EA43057FF4F0
:1008F000EBAE12E74FF0FF3C06E000BF4FF0010CFB
:1009000002E000BF4FF0010C4DF804CD4FEA410C5E
:100910007FEA6C5C4FEA430C18BF7FEA6C5C1BD02B
:1009200001B050EA410C0CBF52EA430C91EA030FAC
:1009300002BF90EA020F0020704710F1000F91EA09
:10094000030F58BF994208BF90422CBFD8176FEAD7
:10095000E37040F0010070474FEA410C7FEA6C5CA5
:1009600002D150EA013C07D14FEA430C7FEA6C5CAC
:10097000D6D152EA033CD3D05DF8040B704700BFD8
:100980008446104662468C461946634600E000BF26
:1009900001B5FFF7B7FF002848BF10F1000F01BDF8
:1009A0004DF808EDFFF7F4FF0CBF012000205DF8C3
:1009B00008FB00BF4DF808EDFFF7EAFF34BF012048
:1009C00000205DF808FB00BF4DF808EDFFF7E0FFE1
:1009D00094BF012000205DF808FB00BF4DF808ED32
:1009E000FFF7CEFF94BF012000205DF808FB00BF99
:1009F0004DF808EDFFF7C4FF34BF012000205DF87B
:100A000008FB00BF4FEA410C7FEA6C5C02D150EA60
:100A1000013C0AD14FEA430C7FEA6C5C02D152EAF6
:100A2000033C02D14FF0000070474FF001007047C7
:100A30004FEA410212F5001215D211D56FF4787306
:100A4000B3EB625212D94FEAC12343F0004343EAA9
:100A5000505311F0004F23FA02F018BF4042704784
:100A60004FF00000704750EA013005D111F000400E
:100A700008BF6FF0004070474FF00000704700BFA4
:100A800053B94AB9002908BF00281CBF4FF0FF31F5
:100A90004FF0FF3000F07AB9ADF1080C6DE904CEEB
:100AA00000F006F8DDF804E0DDE9022304B0704749
:100AB0002DE9F0478C460E460446089D002B50D188
:100AC0008A4217466CD9B2FA82FEBEF1000F0BD0F3
:100AD000CEF1200C01FA0EF620FA0CFC02FA0EF709
:100AE0004CEA060C00FA0EF43A0CBCFBF2F9BBB26D
:100AF00002FB19CC09FB03FA4FEA144848EA0C46FA
:100B0000B2450AD9F61909F1FF3180F02581B245C5
:100B100040F22281A9F102093E44A6EB0A06B6FB87
:100B2000F2F002FB106600FB03F3A4B244EA0644B1
:100B3000A34209D9E41900F1FF3280F00B81A342EE
:100B400040F2088102383C440021E41A40EA09409E
:100B5000002D62D0002324FA0EF42C606B60BDE8F7
:100B6000F0878B4207D9002D55D0002185E8410040
:100B70000846BDE8F087B3FA83F1002940F08F8082
:100B8000B34202D3824200F2FC80841A66EB030671
:100B90000120B446002D40D085E81010BDE8F08754
:100BA00012B90127B7FBF2F7B7FA87FEBEF1000FC3
:100BB00035D10121F61B4FEA174C1FFA87F8B6FB17
:100BC000FCF20CFB126608FB02F0230C43EA06461B
:100BD000B04207D9F61902F1FF3302D2B04200F257
:100BE000D2801A46361AB6FBFCF00CFB106608FBE6
:100BF00000F8A3B243EA0644A04507D9E41900F17E
:100C0000FF3302D2A04500F2B9801846A4EB0804D5
:100C100040EA02409CE729462846BDE8F08707FAEB
:100C20000EF7CEF1200326FA03F24FEA174CB2FB7F
:100C3000FCF11FFA87F80CFB112206FA0EF620FAD7
:100C400003F301FB08F933431E0C46EA0246B145A3
:100C500000FA0EF409D9F61901F1FF3280F08C8008
:100C6000B14540F2898002393E44A6EB0906B6FB45
:100C7000FCF00CFB106200FB08F99EB246EA02464B
:100C8000B14507D9F61900F1FF3371D2B1456FD9DB
:100C900002383E44A6EB090640EA01418FE7C1F164
:100CA000200722FA07F88B4048EA030326FA07F4E4
:100CB0004FEA134EB4FBFEF91FFA83FC0EFB1944F6
:100CC0008E4020FA07F809FB0CFA48EA06084FEABA
:100CD000184646EA0444A24502FA01F200FA01F677
:100CE00008D9E41809F1FF3044D2A24542D9A9F14C
:100CF00002091C44A4EB0A04B4FBFEF00EFB1044F2
:100D000000FB0CFC1FFA88F848EA0444A44507D904
:100D1000E41800F1FF3E29D2A44527D902381C442B
:100D200040EA0940A0FB0289A4EB0C0CCC45C2466A
:100D3000CE4615D312D055B1B6EB0A036CEB0E06B6
:100D400006FA07F7CB401F43CE402F606E600021AC
:100D5000BDE8F0871046F7E68946DEE64645EAD26A
:100D6000B8EB020A69EB030E0138E4E77046D7E7F7
:100D700018468FE78146BDE7114676E702383C44C6
:100D800044E7084606E7023A3E442BE7704700BFB7
:100D9000084B10B5044618684FF47A73B0FBF3F0B3
:100DA00000F08CF8002221464FF0FF3000F046F8AA
:100DB000002010BD0C000020074A08B5136803206E
:100DC00043F01003136000F027F80020FFF7E0FF66
:100DD00001F0AAFC002008BD00200240024A13686E
:100DE00001331360704700BF70070020014B186883
:100DF000704700BF7007002037B50190FFF7F6FF7E
:100E00000546019C631C18BF0134FFF7EFFF401B30
:100E1000A042FAD303B030BD074A0002D36800F401
:100E2000E06023F4E0631B041B0C43F0BF6343F456
:100E300000330343D360704700ED00E0174B30B53B
:100E4000DC68C4F30224C4F10703251D042B28BF6A
:100E50000423062D4FF0010598BF002405FA03F383
:100E600003F1FF3388BF033C1940A14005FA04F4A5
:100E7000013C2240002842EA01024FEA0212AFBFC1
:100E800000F16040064B00F00F00D2B2A5BFD2B215
:100E900000F561401A5480F8002330BD00ED00E0F9
:100EA00014ED00E00123420900F01F0003FA00F0F6
:100EB000014B43F82200704700E100E00138B0F137
:100EC000807F0AD2F021064B064A586082F8231030
:100ED0000020072298601A6070470120704700BF09
:100EE00010E000E000ED00E0044B04281A680CBF9D
:100EF00042F0040222F004021A60704710E000E0A1
:100F0000704708B5FFF7FCFF08BD000090F82130DE
:100F100010B5022B03D004238363012010BD0368A6
:100F20001A6822F00E021A601A6822F001021A6092
:100F3000184A93421FD0143293421ED01432934267
:100F40001DD0143293421DD0143293421DD014325E
:100F500093420CBF4FF480134FF080730E4A00246D
:100F60005360012380F82130436B80F820407BB12F
:100F70009847204610BD0123F0E71023EEE74FF419
:100F80008073EBE74FF48053E8E74FF48033E5E7F5
:100F9000184610BD08000240000002402DE9F74F3E
:100FA00000221646654BDFF8A4E1DFF8A4C14FF03C
:100FB00001080C6808FA06F808EA0404A0457FD185
:100FC0004D68122D00F0AF8000F28880022D00F0F5
:100FD000A7807CD8002D00F08E80012D00F09E802F
:100FE0004FF00F09FF2C93BF824606F18045083D64
:100FF000D0F800B092BFB500D0F804B0AD0009FA47
:1010000005F82BEA080802FA05F588BF00F1040A82
:1010100048EA0505CAF80050D1F804A01AF0805F2C
:101020004ED0474D464FAD6926F0030845F0010507
:10103000BD61BD6908F1804805F00105019508F51D
:10104000803806F0030B019D4FEA8B0BD8F808504F
:1010500009FA0BF925EA09093A4DA84268D005F5C5
:101060008065A84266D005F58065A84264D005F584
:101070008065A8420CBF0325042505FA0BF545EA57
:101080000905C8F808501D681AF4803F14BF2543AD
:10109000A5431D605D681AF4003F14BF2543A543B6
:1010A0005D609D681AF4801F14BF2543A5439D60B1
:1010B000DD681AF4001F14BF2C4325EA0404DC6029
:1010C0000136102E7FF473AF03B0BDE8F08F032D0F
:1010D00022D0112D84D1CA68043281E71A4FBD4253
:1010E00009D012D8DFF86C904D4504D009F580394D
:1010F0004D457FF475AF8A68C2B1012A0CBFC0F8B4
:101100001080C0F8148008226AE77545F3D0654561
:10111000F1D0DFF84490EBE7002261E7CA685FE7AF
:10112000CA6808325CE7CA680C3259E7042257E7FC
:101130000025A2E70125A0E702259EE70004014063
:101140000010024000080140000021100000311092
:101150000000321000001110000022100AB10161DD
:1011600070470904FBE7C3685940C160704700003D
:1011700008B5044B5969014202D0586101F056F894
:1011800008BD00BF0004014003682DE9F341DB07FF
:10119000054610D42B689F075ED42B68190700F111
:1011A00095802B685A0700F1BF80EA69002A40F059
:1011B0002D81002014E0904C636803F00C03042B95
:1011C00007D0636803F00C03082B0CD16368DE03BF
:1011D00009D523689C03DDD56B68002BDAD101208B
:1011E00002B0BDE8F0816B68B3F5803F10D1236891
:1011F00043F480332360FFF7F9FD06462368980324
:10120000C8D4FFF7F3FD801B6428F7D90320E7E774
:101210009BB9236823F480332360236823F480235D
:101220002360FFF7E3FD064623689903B2D5FFF775
:10123000DDFD801B6428F7D9E8E7B3F5A02F23680C
:1012400003D143F480232360D1E723F48033236068
:10125000236823F48023CDE7674C636813F00C0FF9
:1012600007D0636803F00C03082B10D16368DA031E
:101270000DD423689B0702D52B69012BAFD12368BE
:101280006A6923F0F80343EAC203236085E72A6909
:101290005A4B6AB101221A60FFF7A8FD064623687F
:1012A0009F07ECD4FFF7A2FD801B0228F7D9ADE71A
:1012B0001A60FFF79BFD0646236898077FF56DAF20
:1012C000FFF794FD801B0228F6D99FE7AA694A4CD4
:1012D0004B4BDAB101221A60FFF788FD0646636ABC
:1012E0009B070DD54FF4FA52464B1B68B3FBF2F344
:1012F000019300BF019B5A1E0192002BF9D150E7C8
:10130000FFF774FD801B0228E9D97FE71A60FFF719
:101310006DFD0646636A9F077FF543AFFFF766FDE5
:10132000801B0228F6D971E7334CE369D80024D436
:101330000127E36943F08053E361E36903F08053DD
:101340000093009B304E3368D90518D5EB68012B0C
:1013500026D1236A43F001032362FFF747FD41F2E0
:1013600088368046236A9B073FD5002F3FF41DAF88
:10137000E36923F08053E36117E70027E2E733686E
:1013800043F480733360FFF731FD80463368DA053C
:10139000DCD4FFF72BFDA0EB08006428F6D935E775
:1013A000ABB9236A41F2883823F001032362236A30
:1013B00023F004032362FFF719FD0646236A98070A
:1013C000D3D5FFF713FD801B4045F7D91EE7052B4A
:1013D000236A03D143F004032362BAE723F0010335
:1013E0002362236A23F00403B6E7FFF7FFFCA0EBB8
:1013F0000800B042B6D909E700100240000042429E
:10140000800442420C00002000700040224C6368BF
:1014100003F00C03082B3FF4E2AE00231F4E022A18
:1014200033602BD1FFF7E2FC0746236899011FD4F4
:101430002B6AB3F5803F05D16268A96822F40032B7
:101440000A436260696A62680B4322F474121343B0
:10145000636001233360FFF7C9FC054623689A01E6
:101460003FF5A7AEFFF7C2FC401B0228F6D9CDE638
:10147000FFF7BCFCC01B0228D7D9C7E6FFF7B6FCB4
:10148000054623689B017FF594AEFFF7AFFC401B38
:101490000228F6D9BAE600BF0010024060004242BE
:1014A00030B51A4B87B002AC03F11005224618681C
:1014B0005968083303C2AB421446F7D101238DF8B3
:1014C0000430022312498DF805304B6803F00C02FA
:1014D000082A18D1C3F38342DB0348BF4B6806A830
:1014E000024448BFC3F3404312F8100C41BF06AAA0
:1014F0009B1813F8142C074B54BF074BB3FBF2F3A4
:10150000584307B030BD0348FBE700BFB860000890
:101510000010024000127A0000093D004D4A2DE9FA
:10152000F0411368054603F007038B420E4628D3AB
:101530002A68910732D4D20738D4464A136803F098
:1015400007039E4273D32A68434C12F0040F79D1EB
:10155000130706D563682A6923F4605343EAC2037C
:101560006360FFF79DFF63683C4AC3F30313D35CDA
:10157000D8403B4B18600020FFF70AFC0020BDE874
:10158000F081136823F007030B431360136803F023
:1015900007039942CCD00120BDE8F0812E49A8680C
:1015A0004B6823F0F00303434B60C4E76A682A4C9E
:1015B000012A23681CD113F4003FECD0636841F288
:1015C000883823F0030313436360FFF70FFC6B6855
:1015D0000746012B14D1636803F00C03042BACD035
:1015E000FFF704FCC01B4045F5D90320BDE8F0819E
:1015F000022A02D113F0007FDFE713F0020FDCE7CD
:10160000022B0FD1636803F00C03082B95D0FFF772
:10161000EDFBC01B4045F5D9E7E7FFF7E7FBC01B33
:101620004045E2D8636813F00C0FF6D185E71368E4
:1016300023F0070333431360136803F007039E424C
:10164000A9D180E76368E96823F4E0630B43636032
:101650007EE700BF002002400010024075610008D4
:101660000C000020014B1868704700BF0C000020E0
:10167000044B054A5B68C3F30223D35C034A10683A
:10168000D840704700100240856100080C0000201F
:10169000044B054A5B68C3F3C223D35C034A10685A
:1016A000D840704700100240856100080C000020FF
:1016B0002DE9F0410446884617461D46069E2268DD
:1016C000936838EA03030CBF012300239F4202D131
:1016D0000020BDE8F0816B1CF2D055BB23685A682E
:1016E00022F0E0025A606268B2F5827F0AD1A268F5
:1016F000B2F5004F02D0B2F5806F03D11A6822F024
:1017000040021A60A26AB2F5005F09D11A6822F499
:1017100000521204120C1A601A6842F400521A6045
:10172000012384F851300023032084F85030BDE8B1
:10173000F081FFF75BFB801B8542C0D8CEE713B575
:101740000B460092802100220446FFF7B1FF20B132
:101750000320636D43F02003636502B010BD2DE9E3
:10176000FF411E4690F850300446012B0D4690462E
:1017700000F09C80012380F85030FFF737FB0746CC
:1017800094F85100C0B2012840F08E80002D4ED058
:10179000B8F1000F4BD0032384F851300023636568
:1017A000A363A4F83680A387E38763642364A368F4
:1017B0002563B3F5004F2368A4F8348002BF1A688C
:1017C00042F480421A601A6852065EBF1A6842F0FC
:1017D00040021A60E268B2F5006F626838D11AB14F
:1017E000E28E92B2012A06D135F8022BDA60E38E3E
:1017F000013B9BB2E386E38E9BB293B900973346DD
:10180000012202212046FFF753FF78B93A463146BC
:101810002046FFF794FF002838D02023012063657D
:1018200005E023689A689007DED44EB903200123AF
:1018300084F85130002384F8503004B0BDE8F081C2
:10184000711CD8D0FFF7D2FAC01B8642D3D8EDE77F
:101850001AB1E28E92B2012A06D115F8012B1A7341
:10186000E38E013B9BB2E386E38E9BB2002BC5D097
:1018700023689A689207F0D4002ED7D0731CF3D057
:10188000FFF7B4FAC01B8642EED8CFE7A36833B99E
:1018900003932368DA6803929B680393039B606D4C
:1018A000003018BF0120C2E70220C0E70220C4E7D1
:1018B00090F85100704710B50446002834D000233A
:1018C000836290F851300BB900F076FF0223216853
:1018D00084F851300B68A06823F040030B60636804
:1018E000A2690343E068034320690343606903433B
:1018F000E0690343206A0343A06A034302F40070D3
:1019000003430B60120C636A02F004021A43E36A99
:101910004A600B61CB69002023F40063CB61012393
:10192000606584F8513010BD012010BD03680020AF
:10193000DA6842F00102DA601A6842F001021A60C5
:10194000704790F83C3070B5012B4FF002031CD06B
:10195000012280F83D30036880F83C209A6822F428
:101960007F4222F077029A600A68402A79D019D81B
:10197000102A00F093800AD8002A00F08980012301
:1019800080F83D30002380F83C30184670BD202A96
:1019900000F08A80302AF2D19A6822F0700242F078
:1019A000370236E0702A36D01BD8502A42D0602A3F
:1019B000E5D11C6A4D6824F01004CE681C62996958
:1019C0001A6A21F4704122F0A00242EA051241EAAB
:1019D000063199611A629A6822F0700242F0670239
:1019E00017E0B2F5805F11D0B2F5005FC7D18A6809
:1019F0004D689C68C9682A4324F47F4442EA012266
:101A000022439A609A6842F4804202E09A6822F087
:101A100007029A60B3E78A684D689C68C9682A43E0
:101A200024F47F4442EA012222439A609A6842F0F9
:101A30007702EEE74C68CE68196A1D6A21F00A0148
:101A400025F001051D629A69214322F0F00242EA65
:101A500006129A6119629A6822F0700242F05702E7
:101A6000D7E74C68CE68196A1D6A21F00A0125F093
:101A700001051D629A69214322F0F00242EA061232
:101A80009A6119629A6822F0700242F04702C0E738
:101A90009A6822F0700242F00702BAE79A6822F0D0
:101AA000700242F01702B4E79A6822F0700242F026
:101AB0002702AEE77047704770477047036810B55C
:101AC0001A69044691070ED5DA6892070BD56FF0B4
:101AD00002021A6101229B6902779B0777D0FFF708
:101AE000EAFF0023237723681A69500710D5DA68C4
:101AF00051070DD56FF004021A6102229B6922770B
:101B000013F4407F204668D0FFF7D5FF00232377EA
:101B100023681A6912070FD5DA6810070CD56FF021
:101B200008021A610422DB692277990720465AD0FD
:101B3000FFF7C1FF0023237723681A69D20610D567
:101B4000DA68D0060DD56FF010021A610822DB6941
:101B5000227713F4407F20464BD0FFF7ACFF0023E1
:101B6000237723681A69D10708D5DA68D20705D523
:101B70006FF0010220461A6100F04CFB23681A69DD
:101B8000100608D5DA68110605D56FF080022046E8
:101B90001A6100F0AAF823681A69520608D5DA68B3
:101BA000500605D56FF0400220461A61FFF785FF09
:101BB00023681A69910622D5DA6892061FD56FF05C
:101BC00020022046BDE810401A6100F08DB8FFF7F2
:101BD00071FF2046FFF770FF83E7FFF76BFF20469A
:101BE000FFF76AFF92E7FFF765FF2046FFF764FF04
:101BF000A0E7FFF75FFF2046FFF75EFFAFE710BDEE
:101C00001A4A036890420AD0B0F1804F07D0A2F57B
:101C10009432904203D002F58062904215D14A6816
:101C200023F070031343114A90420AD0B0F1804F61
:101C300007D0A2F59432904203D002F58062904220
:101C400003D1CA6823F4407313434A6923F0800325
:101C5000134303608B68C3620B688362034B984233
:101C600004BF0B690363012343617047002C0140EB
:101C700010B50446A0B190F83D3003F0FF021BB947
:101C800080F83C2000F0BAFD0223206884F83D3043
:101C9000211DFFF7B5FF0123002084F83D3010BD62
:101CA000012010BD90F83C3010B5012B4FF002031D
:101CB00018D080F83D3003680C685A68496822F0F3
:101CC00070025A605A6822435A609A6822F0800271
:101CD0009A609A680A439A60012380F83D30002395
:101CE00080F83C30184610BD704770470368DA68CA
:101CF00022F49072DA605A6922F001025A612023BC
:101D000080F83A30704700002DE9F0470568C26856
:101D10002B69016923F4405313432B618368EA68FC
:101D20000B43416922F4B05222F00C020B431343DF
:101D3000EB606B69826923F4407313436B61404B22
:101D400081469D424FF0190446D1FFF7A1FC04FBE8
:101D500000F3D9F804604FF06408B600B3FBF6F363
:101D6000B3FBF8F31E01FFF793FC6043D9F804308E
:101D70009B00B0FBF3F7FFF78BFC6043D9F804300E
:101D80009B00B0FBF3F3B3FBF8F308FB13731B01E9
:101D90003233B3FBF8F303F0F007FFF779FC60434D
:101DA000D9F804209200B0FBF2FAFFF771FC60430F
:101DB000D9F804309B00B0FBF3F3B3FBF8F308FB56
:101DC00013A31B013233B3FBF8F303F00F033B43C0
:101DD0003344AB60BDE8F087FFF74AFC04FB00F337
:101DE000D9F804604FF06408B600B3FBF6F3B3FB18
:101DF000F8F31E01FFF73CFC6043D9F804309B0068
:101E0000B0FBF3F7FFF734FC6043D9F804309B00D4
:101E1000B0FBF3F3B3FBF8F308FB13731B0132338E
:101E2000B3FBF8F303F0F007FFF722FC6043D9F8A7
:101E300004209200B0FBF2FAFFF71AFCB7E700BFEC
:101E400000380140F8B504460E4617461D46216885
:101E50000B6836EA030301D10020F8BD6B1CF7D0F4
:101E600095B923680320DA6822F4D072DA605A69DF
:101E700022F001025A61202384F8393084F83A3084
:101E8000002384F83830F8BDFEF7B0FFC01B854250
:101E9000DDD2E6E710B5044640B390F8393003F0E0
:101EA000FF021BB980F8382000F0C4FC242322680C
:101EB00084F83930D368204623F40053D360FFF709
:101EC00023FF236800201A6922F490421A615A699C
:101ED00022F02A025A61DA6842F40052DA602023C2
:101EE000E06384F8393084F83A3010BD012010BD29
:101EF0002DE9F0411F4690F839300446202B0D465D
:101F000090464ED1002949D0002A47D090F8383069
:101F1000012B46D0012380F838300023C3632123EE
:101F200080F83930FEF762FF0646A4F82480A4F852
:101F30002680E38C9BB26BB93B463246402120465B
:101F4000FFF780FFA8B9202384F8380084F83930DF
:101F5000BDE8F081E38C3246013B9BB2E384A36889
:101F60008021B3F5805F20463B460ED1FFF76AFF24
:101F700010B10320BDE8F0812B882268C3F3080369
:101F80005360236943B90235D3E7FFF75BFF0028AD
:101F9000EFD123682A785A600135CAE70120BDE8ED
:101FA000F0810220BDE8F08190F83A30202B20D15A
:101FB000E9B1E2B190F83830012B1AD0C2858285A0
:101FC00000232222C36380F83A2002688162D1682C
:101FD00080F8383041F48071D1605169184641F081
:101FE00001015161D16841F02001D16070470120A9
:101FF000704702207047704790F83A3010B5222B96
:1020000036D183680169B3F5805F0268836A23D1A2
:102010005268E9B9C2F3080223F8022B8362C48D27
:10202000013CA4B2C4858CB90368DA6822F02002AE
:10203000DA60DA6822F48072DA605A6922F001020A
:102040005A61202380F83A3000F0BEF8002010BD1D
:10205000D2B223F8012BE1E721B9591C5268816201
:102060001A70DCE75268591C816202F07F02F7E7C0
:10207000022010BD70470000036870B51A6804465E
:102080001607D9685D6907D196065AD58D0658D5C9
:10209000BDE87040FFF7B0BF15F0010502D111F4A3
:1020A000907F4ED0D30705D5CE0542BFE36B43F0FA
:1020B0000103E363500704D51DB1E36B43F0020352
:1020C000E363930704D51DB1E36B43F00403E363BB
:1020D000160704D51DB1E36B43F00803E363E36B1C
:1020E000002B66D0950604D5880602D52046FFF75A
:1020F00083FF236820465D69E26B110702D415F067
:1021000040051AD0FFF7F2FD23685A69520610D530
:102110005A69606B22F040025A6150B1254B43630B
:10212000FEF7F4FE002844D0606BBDE87040436BBE
:1021300018472046FFF79EFF70BDFFF79BFFE56342
:1021400070BD160627D50D0625D594F83920212A0D
:102150002FD1A268B2F5805F226A17D11188C1F32E
:1021600008015960216979B902322262E28C013A90
:1021700092B2E284EAB9DA6822F08002DA60DA68C0
:1021800042F04002DA6070BD0132EEE7511C21627C
:1021900012785A60EAE750060BD54A0609D5DA6884
:1021A000204622F04002DA60202384F83930FFF71D
:1021B00022FF70BDB921000808B50023406AC3851D
:1021C000C384FFF757FF08BD02680C4B9A4214D135
:1021D0000B4B1B780A2B07D101220A4B1A700122E4
:1021E00007490948FFF7E0BE0D2BF8D007490A78E8
:1021F000501C087006498B54F1E7704700480040B6
:10220000F5070020B606002074070020B70600205E
:10221000900800200368B3F1804F04D14FF40051BF
:102220000148FEF7A0BF70470010014010B50446FA
:102230000A2000F0BDFF402C04BF0122044B0549D9
:1022400008BF1A7004482246BDE8104001F00EB8DD
:10225000B406002036610008000000204FF48033EF
:1022600010B590B001220793002102240E934FF481
:10227000E01306A8069208910A920D940F93FEF7B8
:1022800083FF00B1FEE70F2301934FF480630390B7
:102290000590214601A802940493FFF73FF90446F4
:1022A00000B1FEE7FFF7DEF94FF47A73B0FBF3F00D
:1022B000FEF704FE0420FEF717FE224621464FF0EB
:1022C000FF30FEF7BBFD10B010BD00002DE9F04F50
:1022D000A5B0FEF771FDFFF7C1FF534B4FF4E0616E
:1022E0009A69524842F020029A619A69012502F0E7
:1022F00020020192019A9A69022442F004029A6132
:102300009A6941F61F4602F004020292029A9A6903
:1023100042F008029A619A6902F008020392039A55
:102320009A6942F010029A619B69002203F010033F
:102330000493049BFEF712FF00224FF400513C4827
:10234000FEF70CFF4FF400531CA939481C931D9550
:102350001F94FEF723FE4FF4E0631CA933481C933F
:102360001D951F94FEF71AFE4FF4707300251C9301
:10237000304B1CA930481D931E95FEF70FFE2A46D0
:1023800029461720FEF75AFD1720FEF78BFD4FF068
:1023900080432A4C84E8480042F20F732046A5602F
:1023A000E3602561A561FFF763FC00B1FEE74FF430
:1023B00080531CA920461C93FFF7C3FA00B1FEE727
:1023C0001790189017A92046FFF76CFC00B1FEE7A4
:1023D0004FF482751A4B1B4A986083E824004FF42F
:1023E00000729A612822DA610A22D8601861586165
:1023F0001862586298621846DA62FFF75CFA00B118
:10240000FEE74FF41652104B1049986083E806001F
:102410000C22D86018619861D86118465A61FFF79C
:1024200039FDA8B1FEE700BF0010024000080140DE
:102430000010014000001110000C01405008002065
:10244000F8070020003001407407002000480040D9
:102450002046FFF76BFA0028FAD1984D984C0122DC
:1024600029462046FFF7A0FD0028F8D1954A964955
:10247000964800F059FD6420FEF7BEFC934800F03A
:102480007DFD924D924F934B192202218F48AF60F0
:1024900000F096FC8D4800F074FD06460028F2D14D
:1024A0008D4C1CAB20686168A27A03C321899A70A5
:1024B0001980132231460DF17B0000F0CFFE874BCF
:1024C00006960593ADF81C6004F11E0308AA2E348D
:1024D000164618685968083303C6A3423246F7D136
:1024E0001B780DAA33700023ADF831308DF83330EE
:1024F0007B4B03F11006144618685968083303C46F
:10250000B3422246F7D11B7812AA237000239246C9
:10251000ADF845308DF84730724B03F11006144684
:1025200018685968083303C4B3422246F7D1DFF86C
:10253000F0810022C3461B7823706B4C17AB2068D8
:102540006168ADF8592003C32089A17A5F4C8DF8EA
:102550005B2018809970CDF86720CDF86B208DF83E
:102560006F2098F80030002B46D0604B1B78002B72
:1025700042D0243B012B3AD800211E221CA80591F1
:102580000691ADF81C1000F069FE5948FDF7E0FD1A
:10259000C0B224287ED10322564905A800F08AFE45
:1025A000142255491CA800F085FE07221CA90DF134
:1025B000270000F07FFE06220DF177010FA800F042
:1025C00079FE06220DF17D0114A800F073FE9DF83E
:1025D0008330302B68D1494B1A889B78ADF8652041
:1025E0008DF8673032220021414800F037FE002389
:1025F0003E4A8BF800301370DFF8289199F80030CC
:102600008BB13F4E3378002B52D04FF47A731222A5
:102610003C492B48FFF76CFC002389F800303378E5
:1026200083F001033370204600F0A8FC364E374B90
:102630000A2202212046AE6000F0C2FB05AB0A224E
:102640002821204600F0BCFB314B0A2246212046BF
:10265000AF6000F0B5FB08AB182202212046AE6047
:1026600000F0AEFB0DAB24220221204600F0A8FBB7
:10267000534630220221204600F0A2FB17AB3C2239
:102680000221204600F09CFB204600F07AFC002846
:10269000CCD166E7252888D10422164905A800F088
:1026A00009FE14221B497DE7312B9BD11A4B93E77E
:1026B0004FF47A7312221949ABE700BFF5070020E7
:1026C000740700205129000810000020B8070020DE
:1026D000CF61000873610008C8600008616E740073
:1026E000FA6000080E61000822610008B7060020A9
:1026F000900800209C080020A008002040610008ED
:10270000B5060020486100082A6D00086E610008C7
:1027100000000020A1080020446100085B6100085F
:10272000B6060020B4060020214B07B59A690320A5
:1027300042F001029A619B6903F001030193019B3E
:10274000FEF76AFB00226FF00B001146FEF776FBE6
:1027500000226FF00A001146FEF770FB00226FF0B6
:1027600009001146FEF76AFB00226FF004001146D3
:10277000FEF764FB00226FF003001146FEF75EFBDC
:1027800000226FF001001146FEF758FB00224FF0C7
:10279000FF301146FEF752FB064B5A6822F0E0620A
:1027A0005A605A6842F080625A6003B05DF804FBD8
:1027B00000100240000001407FB502680D4B9A42B4
:1027C00014D103F560439A6902A942F480529A61D8
:1027D0009B69094803F480530193019BA023029352
:1027E0000223039303230593FEF7D8FB07B05DF89C
:1027F00004FB00BF0030014000080140036807B53A
:10280000B3F1804F12D103F50433DA691C2042F092
:102810000102DA610022DB69114603F00103019332
:10282000019BFEF70BFB1C20FEF73CFB03B05DF8A1
:1028300004FB000010B50268164B86B09A4227D1FF
:1028400003F5E433DA6902A942F48022DA61DB6934
:10285000114803F480230193019B4FF4806302939A
:1028600002230393032300240593FEF797FB4FF401
:10287000006302A90848029303940494FEF78EFBB8
:10288000272022462146FEF7D9FA2720FEF70AFB29
:1028900006B010BD00480040000C01407047FEE744
:1028A000FEE7FEE7FEE770477047704708B5FEF7A2
:1028B00095FABDE80840FEF724BB08B54020FEF7B6
:1028C00057FC8020FEF754FC4FF48070FEF750FC5C
:1028D000BDE808404FF40070FEF74ABC0148FFF71E
:1028E000EDB800BF500800200148FFF7C5BB00BF8E
:1028F000740700200F4B1A6842F001021A605968F1
:102900000D4A0A405A601A6822F0847222F480321A
:102910001A601A6822F480221A605A6822F4FE02B1
:102920005A604FF41F029A604FF00062034B9A60A6
:10293000704700BF001002400000FFF800ED00E00B
:1029400000F036BC012000F02ABC0A2000F027BCB1
:1029500013B5013918468DF80720062910D8DFE88D
:1029600001F01E04122333424200FFF7EEFF9DF8F0
:1029700007204FF400712348FEF7F0FBFFF7E5FF57
:10298000012002B010BD9DF807305BB9012000F0B6
:102990000FFC01224FF480711A48FEF7DFFBFFF7AE
:1029A000D1FFEDE70022F5E700224FF480611548E2
:1029B000FEF7D4FB012000F0FBFB01224FF4806105
:1029C0001048FEF7CBFBDBE742F2107301220DF15A
:1029D00007010D48FEF7C3FE0B4C2046FEF768FFCB
:1029E0000128FAD1DBE7014642F210739DF8072077
:1029F0000548FEF7B4FE044C2046FEF759FF0128B7
:102A0000FAD1CCE700080140F807002070B59DF826
:102A1000104090F83B60013C14449642E4B290F8B8
:102A200039500FD3AC4201D2A2420DD990F83820D0
:102A300090F83A00013B0B448842DBB206D2934245
:102A400006D201E0AC42EFD2002070BD934204D226
:102A5000994294BF0020012070BD012070BD10B4C8
:102A60008C680023A446012110BC604710B48C6818
:102A70000023A446032110BC6047002310B48C68D7
:102A80001A46A446042110BC604710B48C68002389
:102A9000A4460122042110BC604710B48C680023B6
:102AA000A446022110BC604710B48C680023A446E1
:102AB000052110BC604710B48C680621A44610BCE8
:102AC0006047F8B505460E46571E002017F8014F1F
:102AD00050B9FF2C38D0224631462846FFF7E4FF94
:102AE0000028F2D10020F8BDFF2CF4D0FE2CFAD043
:102AF000EF2CEAD8DF2C06D904F00F023146284625
:102B0000FFF7CBFFE1E7CF2C06D904F00F023146E7
:102B10002846FFF7ABFFD8E7BF2C12D924010234B7
:102B20003146284604F0FE04FFF7A7FF2046FFF7D2
:102B300007FF31462846FFF7A8FF2046FFF700FFB2
:102B4000C3E72306C1D4F8E70120BFE7012070479F
:102B50002DE9F0419846A2F10A0305460C461646B7
:102B60000B2B0FD8DFE803F0060E0E0E0E0E323AD6
:102B70000E0E0E160222FFF772FF1A4A2146284651
:102B8000FFF79FFF4346324621462846BDE8F04105
:102B900000F0C8BA4F68144AFFF793FF3A7921460C
:102BA00042F0B0022846FFF77FFF01222146284667
:102BB000FFF773FF22462946384600F05BFA78B1EA
:102BC000002221462846FFF751FFDBE7074A21464E
:102BD0002846FFF776FF0120BDE8F081044AF6E7BA
:102BE000BDE8F081956100088D610008C6610008AC
:102BF000BB6100084218435C507800EB032080B2B0
:102C0000704700207047704708B5FFF7FCFF18B108
:102C1000022801D0032008BD062008BD0621FFF7C9
:102C2000E9BF0821FFF7E6BF807A7047C07A704796
:102C30002DE9F84F8468054623788A461846FFF741
:102C4000E2FF07461846FFF7DFFF012F81462046C7
:102C500014BF4FF0FF084FF00F08FFF7E5FF0646DF
:102C60002046FFF7E3FF83462046FFF7DAFFBAF17D
:102C7000600F0DD960B161262044D34515D20020E4
:102C80002877E87785F820006877A877BDE8F88F7F
:102C90002046FFF7C3FFBAF1400F03D910B120441B
:102CA0004126EAE704F11100E7E75E45E7D803783B
:102CB000FF2B05D101305E45E1D00136F6B2F6E7D3
:102CC000564520D10FB1022F0BD1EB77437885F811
:102CD0002030C3782B7703796B774379AB77BDE8E6
:102CE000F88F03F00F02023A1B09AA776B7743783B
:102CF00003F00F021B0985F82020EB7783781B096E
:102D00002B77BDE8F88F837808EA03034B44184417
:102D1000D1E72DE9F04F0F4687B019460546164614
:102D2000FFF786FF0446002849D0AB681878FFF704
:102D30006BFF6B7F95F820A01F44AB7FA6EB0A06C4
:102D4000F61A95F81F80FFB2F6B28146CDF800A0C2
:102D50004346324639462846FFF758FE20B995F9D2
:102D60001C0007B0BDE8F08F4FF0000B08F107081A
:102D7000C8F3C40807EBC803DBB204934C445FFA02
:102D80008BF3F218D2B29A450592E8D9B94603946A
:102D90000EE0039A494612F8013B2846039200933D
:102DA000059A002300F0F8F809F108095FFA89F99B
:102DB000049B9945EDD144440BF1010BDFE7D0E7CB
:102DC0002DE9F0411E46436A154680460F46984756
:102DD00000240544EDB2013E16F8013F13B9204628
:102DE000BDE8F08139462A464046FFF792FFC0B25F
:102DF00007440444FFB2E4B2EEE70000014B436233
:102E0000704700BF032C000810B40C68A44610BC27
:102E1000604738B504460D46436B02209847294663
:102E20000A2200232046FFF7EFFF0546636B0320CD
:102E30009847636B00209847284638BD70B5044614
:102E40000D46436B02209847636B01209847294643
:102E5000002314222046FFF7D7FF04F13803294648
:102E600020461722FFF7D0FF636B0020BDE87040BB
:102E7000184770B504460E46436B02209847636BB3
:102E8000012098470023152231462046FFF7BCFF5A
:102E9000054630B104F13803172231462046FFF7CA
:102EA000B3FF636B00209847284670BD07B54622E4
:102EB0000DF10703FFF7A8FF9DF8070003B05DF8C9
:102EC00004FB07B547220DF10703FFF79DFF9DF8AF
:102ED000070003B05DF804FB00234822FFF794BF0E
:102EE00010B541680446FFF7E1FF61682070204695
:102EF000FFF7E7FF616860702046FFF7EDFF04F120
:102F00003803E07461682046BDE810401722FFF7DF
:102F10007BBF10B541680446FFF77BFF18B1204620
:102F2000FFF7DEFF012010BD2DE9F041222300252F
:102F300001268560C560457406748374856180F8D8
:102F4000316004460F469046FFF758FF402384F84F
:102F50002B30094B84F8286084F8295084F82A50D3
:102F600084F82C50636367602046C7F80880BDE88A
:102F7000F041FFF7CEBF00BF9D3100084168FFF769
:102F80005DBF836910B5044603B198476168204668
:102F9000BDE81040FFF76DBF70B49DF80C60456848
:102FA00080F82D1080F82E2080F8303080F82F60C7
:102FB000294670BC00F12D033B22FFF725BF0022FC
:102FC00003788270013BC3700271704710B581783D
:102FD000027844781144C9B2A14281700DD20379BC
:102FE00001330371C3781344DBB29C429CBF04F1EC
:102FF000FF33DBB2C370012010BD002010BD0021E3
:10300000836842791A4403F8011B9A42FBD1704746
:1030100010B5C37884788B4234BF002301239142DA
:1030200094BF0021012143EA010094428CBF00209B
:1030300000F001000B40184310BD00230B70837893
:103040004B704379013B8B70C378CB707047CA7863
:103050004B78012A03D0032A07D01A4602E003F175
:103060000802D2B21946FFF7D3BFA3F108011A46EE
:10307000CBB2F7E710B40C4683681146427920467C
:1030800010BCFFF718BD10B584688078101A0122B3
:1030900000F007008240D2B2605C13B10243625478
:1030A00010BD20EA0202FAE710B40B464A78817894
:1030B00091420AD8C178914207D3197844798C4259
:1030C00003D91B7910BCFFF7DEBF10BC70472DE998
:1030D000F041CB7880460C468D78032B1FD8DFE873
:1030E00003F00216191C002601272B0603D52146E2
:1030F0004046FFF7D9FF23786D003B442370637887
:1031000015F0FF0533446370EFD1BDE8F08101266F
:103110000027EAE70026FF27E7E7FF26F8E7002673
:103120003746E2E7322A38B51D464C681ED00CD827
:10313000152A20D0172A27D0142A15D12046FFF7A8
:103140005EFF2046FFF73BFF0EE0462A21D0472ACC
:1031500022D03B2A08D119462046FFF778FF18B144
:1031600029462046FFF7B3FF012038BD1946204607
:10317000FFF79AFFF8E72046FFF728FF0028F4D072
:103180002046FFF73CFFEFE719462046FFF755FFC3
:10319000EAE763792B70E7E76378FBE7704700B9EC
:1031A0007047072300BF013BFCD1013880B2F6E72E
:1031B000024608B502B908BD4FF47A70FFF7EFFF79
:1031C000013A92B2F6E70000002103E00B4B5B5896
:1031D000435004310A480B4B42189A42F6D30A4A2C
:1031E00002E0002342F8043B084B9A42F9D3FFF770
:1031F00081FB00F00FF8FFF769F87047187C0008B2
:10320000000000209806002098060020D00800202A
:10321000FEE7000070B500250C4E0D4CA41BA41059
:10322000A54209D102F03CFF00250A4E0A4CA41B1E
:10323000A410A54205D170BD56F825309847013538
:10324000EEE756F8253098470135F2E7107C000884
:10325000107C0008107C0008147C0008034602441F
:10326000934200D1704703F8011BF9E70EB44FF405
:10327000027100B59CB0ADF814106FF000410491DC
:1032800007914FF6FF711DAB02900690084853F866
:10329000042BADF81610006802A9019300F020F885
:1032A0000022029B1A701CB05DF804EB03B070475B
:1032B0002800002070B5044602B970BD234611F8FD
:1032C000015B561E03F8015B1DB91444A34203D1F0
:1032D00070BD1C463246EFE703F8015BF6E70000DD
:1032E0002DE9F04FBFB0894615461F46824601F0D2
:1032F00027FE036818461193FCF72AFFB9F80C3033
:103300000A901B0618D5D9F81030ABB940215046A9
:1033100001F02CFEC9F80000C9F8100048B90C23D0
:10332000CAF800304FF0FF330B930B983FB0BDE865
:10333000F08F4023C9F8143000232EAC219423933E
:103340002293099507930D930E93159314930B9362
:1033500012931393099D2B4613F8012B12B1252AC2
:1033600040F08380099BEE1A0DD084E84800239B2F
:1033700033442393229B0133072B229377DC0834B9
:103380000B9B33440B932B78002B00F025870023F5
:10339000691C1A464FF0FF3B1D460A208DF8673026
:1033A0000C934E1C097809960691069920395829E4
:1033B00000F21484DFE811F0A50012041204AA0040
:1033C000120412041204120412041204AD00650067
:1033D0001204B500B8001204D500D800D800D800F7
:1033E000D800D800D800D800D800D80012041204A1
:1033F000120412041204120412041204120412041D
:103400000C012201120422011204120412041204FB
:10341000EB00120412043C031204120412041204FE
:103420001204A403120412048500120412041204EC
:103430001204120412041204120412041204FE00F4
:103440006B00220122012201EE006B001204120423
:10345000F10012041E033E037203F80012048303FA
:103460001204A60312041204BE031D4673E721AA28
:103470004946504602F08EFA002840F08E862EAC67
:103480007EE701232B2209998BE70F46FBE70BB15F
:103490008DF86720AE0640F1A180073727F00707B7
:1034A00007F108030893D7E90067002E77F10003BE
:1034B00005DA2D23764267EB47078DF86730012345
:1034C000C7E20BB18DF86720A04B1593AB0640F116
:1034D0003683073727F0070707F108030893D7E972
:1034E0000067E8070BD556EA070308D030238DF8AC
:1034F00068309DF8183045F002058DF869300223D8
:10350000A4E2002ABFD101232022BCE745F0010537
:10351000B9E73E68391D002E0C96B6DA0F467642A2
:103520000C9645F00405AEE709994E1C09782A2946
:10353000069110D04FF0000B0996069930390929F1
:103540003FF633AF00FB0B1B09990E4616F8011B23
:1035500006910996F1E73968099641EAE17B04375B
:1035600091E745F080058EE700210C9106990C9EAD
:10357000303900FB06110C9109990E4616F8011B13
:1035800006910699099630390929EFD90DE745F0DA
:10359000080578E745F0400575E7099909786C2931
:1035A00005D109990131099145F020056BE745F0F6
:1035B000100568E700263B1D08933B688DF867609F
:1035C0008DF890304FF0010B37460DF190081CE15B
:1035D0000BB18DF8672045F010055BE715F0100F73
:1035E00007F1040303D03E680893F7175DE73E68D0
:1035F00015F0400F089318BF36B2F6E70BB18DF8FF
:103600006720073727F0070707F1080308933B688F
:103610004FF0FF320D937B680D9F0E930E9B384643
:1036200023F0004631464A4BFDF7ECF9002840F004
:10363000DC854FF0FF32464B38463146FDF7C4F982
:10364000002840F0D285129A139B0D980E99FDF731
:10365000B1F910B12D238DF867303E4B3E4A0699E3
:103660004FF0030B4729CCBF90469846002625F023
:1036700080053746C9E0BBF1FF3F26D0069B23F00B
:103680002003472B04D1BBF1000F08BF4FF0010B03
:1036900045F4807317930E9B1F1E0D9BA8BF1097B8
:1036A0000F93BDBF3B4603F1004310930023B8BF07
:1036B0002D231693069B23F02007462F08D0452F75
:1036C00042D10BF10106022304E04FF0060BDFE7C5
:1036D0005E4603231FAA04921CAA03921BAA02920D
:1036E0008DE848000F9A109B504600F055FE472F7A
:1036F000804602D1E80740F1858508EB0603462F96
:10370000079311D198F80030302B09D1129A139BEE
:103710000F981099FDF744F910B9C6F101061B96F0
:10372000079A1B9B1A440792129A139B0F981099A1
:10373000FDF736F990B930221F9B079999420FD9AE
:10374000591C1F911A70F7E75E46BCE7AC79000878
:10375000FFFFEF7F9C790008A0790008079B1F936B
:103760001F9B472FA3EB0803079340F000811B9B8F
:10377000D91C02DB9B4580F22681069B023B069307
:103780001B9A9DF81810531E002BA8BF2B221B93C9
:10379000BCBFC2F101032D22092B8DF874108DF8E6
:1037A000752040F300810A260DF1830293FBF6F0A9
:1037B00006FB1033092803F1300302F8013C02F143
:1037C000FF31034600F3E880303301F8013C023A50
:1037D0000DF176030DF1830082421946C0F0DE80C0
:1037E000079A1DABCB1A012A149303EB020B02DCE0
:1037F00015F0010702D000270A9B9B44169B13B1CA
:103800002D238DF867300026179D5E453346B8BFDF
:103810005B460F939DF8673013B10F9B01330F93F5
:1038200015F0020316931EBF0F9B02330F9315F082
:103830008403179318D10C9B0F9A9B1A002B10939B
:1038400012DD109B102BAB4B236000F3D981109B32
:10385000109A6360239B13442393229B0133072B0D
:10386000229300F3E68108349DF8673073B10DF1BF
:103870006703236001236360239B01332393229B0F
:103880000133072B229300F3DE810834169B6BB1C2
:103890001AAB236002236360239B02332393229B92
:1038A0000133072B229300F3D8810834179B802B18
:1038B00018D10C9B0F9A9B1A002B109312DD109BB2
:1038C000102B8D4B236000F3D281109B109A636004
:1038D000239B13442393229B0133072B229300F352
:1038E000DF810834A6EB0B06002E0FDD824B102E75
:1038F000236000F3DF81229B239801336660072B4E
:1039000006442396229300F3EC810834EB0500F182
:10391000F281239B84E800095B442393229B0133BB
:10392000072B229340F3198421AA4946504602F0FE
:1039300031F8002840F031842EAC6B0700F1108480
:103940000B9B0C9A0F998A42ACBF9B185B180B9388
:10395000239B3BB121AA4946504602F01BF80028A0
:1039600040F01B840023089F22932EACF2E4069BB8
:10397000652B7FF705AF069B662B24D11B9B002B85
:1039800019DDBBF1000F01D1EA0702D50A9A1344F1
:103990005B441B9F9B4631E70A4607E712F8011B71
:1039A00003F8011B18E7302213448DF876208DF8B8
:1039B00077301EA914E7BBF1000F01D1EB0715D535
:1039C0000A9B0133E4E71B9A079B9A4206DBEF0749
:1039D0000ED50A9B134467220692DAE7079B0A99E1
:1039E000002A0B44F7DCC2F10102F3E70123D0E720
:1039F0001346F0E70BB18DF8672015F0200F07F1A3
:103A0000040308D00B993A68CE1708463146C2E93C
:103A100000011F469EE4EE0603D53A680B9911603B
:103A2000F7E76806F9D53A68BDF82C101180F0E781
:103A300045F0100515F0200322D0073727F00707BF
:103A400007F108030893D7E90067002300228DF8E7
:103A50006720BBF1FF3F00F0DB8325F080020F926F
:103A600056EA070240F0D983BBF1000F00F0AA80AC
:103A7000012B76D0022B00F0918000260027D2E3A4
:103A80003A1D15F01001089202D03E680027DDE7CC
:103A900015F04003F9D03E880027D6E73B1D089378
:103AA000302378228DF86830144B3E681593002738
:103AB00045F002058DF8692002230692C6E700262C
:103AC0003B1DBBF1FF3F0893D7F800808DF867607E
:103AD0000AD05A463146404601F054FC002800F016
:103AE0008D80A0EB080BC4E54046FCF731FB834614
:103AF000BFE500BFD0790008E0790008BD79000873
:103B000045F01005A90609D5073727F0070707F183
:103B100008030893D7E90067012397E73B1D15F0D9
:103B2000100F089301D03E6802E06A06FBD53E887C
:103B30000027F1E70BB18DF86720A34BC5E43B1DCF
:103B400015F0100F089301D03E6802E06E06FBD519
:103B50003E880027C5E4434666E3002F08BF0A2ECF
:103B600005D230360DF1F80808F8416D77E30DF114
:103B7000B808304639460A220023FCF781FF30326C
:103B800008F8012D0023304639460A22FCF778FF59
:103B900006460F4656EA0703EBD160E300260027EE
:103BA0000DF1B808159A06F00F03D35C3A0908F82E
:103BB000013D330943EA07731E46174656EA0703D9
:103BC000F0D14CE33BB9EA0705D530230DF1F808F5
:103BD00008F8413D43E30DF1B80840E30BB18DF81F
:103BE0006720069B002B00F0F78200269DF8183016
:103BF0008DF867608DF890300897E3E4064638E565
:103C000010236360239B10332393229B0133072BE4
:103C1000229304DC0834109B103B109311E621AA78
:103C20004946504601F0B6FE002840F0B6822EAC60
:103C3000F1E721AA4946504601F0ACFE002840F0C9
:103C4000AC822EAC10E621AA4946504601F0A2FEF5
:103C5000002840F0A2822EAC18E621AA4946504620
:103C600001F098FE002840F098822EAC1EE610234A
:103C70006360239B10332393229B0133072B2293F2
:103C800004DC0834109B103B109318E621AA494627
:103C9000504601F07FFE002840F07F822EACF1E715
:103CA00021AA4946504601F075FE002840F0758271
:103CB0002EAC17E610236360239B10332393229BC3
:103CC0000133072B229302DC0834103E0EE621AAB2
:103CD0004946504601F05EFE002840F05E822EAC60
:103CE000F3E721AA4946504601F054FE002840F06F
:103CF00054822EAC0AE6069B652B40F3A981129AEA
:103D0000139B0D980E99FCF74BFE002862D02F4BA9
:103D1000236001236360239B01332393229B0133A0
:103D2000072B229325DC08341B9B079A934202DB66
:103D3000EE077FF502AE119B0A9A23600A9B63602F
:103D4000239B13442393229B0133072B22931ADCDA
:103D50000834079B5E1E002E7FF7EFAD4FF0100872
:103D60001B4F102E276018DC6660239B1E44239691
:103D7000D4E521AA4946504601F00CFE002840F047
:103D80000C822EACD0E721AA4946504601F002FE33
:103D9000002840F002822EACDBE7239BC4F80480AD
:103DA00010332393229B0133072B229302DC083428
:103DB000103ED6E721AA4946504601F0EBFD002807
:103DC00040F0EB812EACF3E7BD790008CE79000816
:103DD000E07900081B9B002B7ADC9B4B23600123BE
:103DE0006360239B01332393229B0133072B229390
:103DF00044DC08341B9B23B9079B13B9E8077FF504
:103E00009CAD119B0A9A23600A9B6360239B134419
:103E10002393229B0133072B229339DC04F10803FF
:103E20001B9E002E19DA1024884F7642102E1F6038
:103E300038DC239A5E601644229A23960132072AC0
:103E400003F10803229208DD21AA4946504601F0F9
:103E5000A1FD002840F0A1812EAB079A07995A6076
:103E6000239AC3F800800A442392229A0132072A37
:103E700022923FF759AD03F108045EE521AA4946B5
:103E8000504601F087FD002840F087812EACB1E755
:103E900021AA4946504601F07DFD002840F07D8171
:103EA0002EABBDE7239A5C6010322392229A013236
:103EB000072A229202DC0833103EB7E721AA4946BE
:103EC000504601F067FD002840F067812EABF3E714
:103ED000079BBB42A8BF3B46002B1E460BDD636021
:103EE000239BC4F8008033442393229B0133072B88
:103EF00022935FDC0834002EB4BF3E46BE1B002E6A
:103F00000FDDDFF848B1102EC4F800B05CDC239B55
:103F100066601E44229B23960133072B22936ADCA2
:103F200008341B9B079A934201DBE9070DD5119BCF
:103F30000A9A23600A9B6360239B13442393229B6A
:103F40000133072B229360DC0834079B079ADE1BA2
:103F50001B9BD31A9E42A8BF1E46002E0BDD239B3F
:103F6000474433442393229B27600133072B666029
:103F7000229354DC08341B9B079A002EA2EB030308
:103F8000B4BF1E469E1B002E7FF7D7AC4FF0100823
:103F90002E4F102E27607FF7E7AE239BC4F80480D6
:103FA00010332393229B0133072B229341DC0834E7
:103FB000103EEEE721AA4946504601F0EBFC0028EE
:103FC00040F0EB802EAC96E710236360239B103308
:103FD0002393229B0133072B229302DC0834103EEB
:103FE00091E721AA4946504601F0D4FC002840F050
:103FF000D4802EACF3E721AA4946504601F0CAFC12
:10400000002840F0CA802EAC8BE721AA49465046D2
:1040100001F0C0FC002840F0C0802EAC95E721AA3A
:104020004946504601F0B6FC002840F0B6802EAC60
:10403000A1E721AA4946504601F0ACFC002840F017
:10404000AC802EACB4E700BFCE790008E079000860
:10405000079B012B01DCEA0776D501236360239BD4
:10406000C4F8008001332393229B0133072B229352
:1040700036DC0834119B0A9A23600A9B6360239BF9
:1040800013442393229B0133072B229331DC083402
:10409000139B129A0D980E99FCF782FC079B5E1EEB
:1040A00000282FD108F1010384E84800239B079AD8
:1040B000013B13442393229B0133072B22934ADDB8
:1040C00021AA4946504601F065FC002865D12EAC76
:1040D0001DAB2360149B149A6360239B13441CE460
:1040E00021AA4946504601F055FC002855D12EAC76
:1040F000C0E721AA4946504601F04CFC00284CD1AB
:104100002EACC5E7002EE3DD4FF01008584F102EFF
:10411000276004DC239B66601E442396CBE7239B29
:10412000C4F8048010332393229B0133072B22937E
:1041300002DC0834103EEAE721AA4946504601F065
:1041400029FC50BB2EACF5E701236360239BC4F828
:1041500000800133AEE70834BAE70834FFF7EDBB5F
:104160000C9B0F9A9D1A002D7FF7EAAB1026414B4E
:10417000102D23601BDC239B65601D44229B23952F
:104180000133072B22937FF7DBAB21AA4946504628
:1041900001F000FC00283FF4D3ABB9F80C3013F069
:1041A000400F0B9B18BF4FF0FF33FFF7BDB8239BA9
:1041B000666010332393229B0133072B229302DC8A
:1041C0000834103DD3E721AA4946504601F0E2FBEE
:1041D0000028E2D12EACF4E7239B002BDDD021AAEE
:1041E0004946504601F0D6FBD7E70D9A0E9B0D9835
:1041F0000E99FCF707FC00283FF43DAA1E4B1F4A0E
:10420000FFF72DBA1F9BA3EB08030793FFF7AFBA85
:1042100056EA07020F953FF42BAC012B3FF49DACFF
:10422000022B3FF4BDAC2EABF10841EA4771F80810
:1042300006F0070207460E46303256EA070103F140
:10424000FF3803F8012C7FF486AC0F99C90706D517
:10425000302A04D0302208F8012CA3F102082EAB3A
:104260005E460F9DA3EB080B0027FFF7CEBA00BFF9
:10427000E0790008D0790008A4790008A87900083E
:104280002DE9F74F03690C6980469C4200F3828058
:10429000013C01F1140700F1140657F8245056F8B8
:1042A00024000135B0FBF5F54FEA840E06EB0E0352
:1042B00007EB0E0901938DB34FF0000A3846B44660
:1042C000D34650F8042B93B205FB03A3120C4FEA1C
:1042D000134A05FB02A29BB2ABEB0303BCF800B090
:1042E0004FEA124A5B441FFA82FBDCF8002081454A
:1042F000CBEB124202EB23429BB243EA02434FEA6A
:10430000224B4CF8043BDCD256F80E3033B9019BFB
:10431000043B9E421A4631D3C8F81040404601F093
:1043200060FA002826DB30464FF0000E013557F8C2
:10433000041BD0F800C08BB2AEEB03031FFA8CF263
:1043400013440A0CC2EB1C4202EB23429BB243EA29
:104350000243B9454FEA224E40F8043BE7D256F8F3
:10436000242006EB84032AB9043B9E421A460BD351
:10437000C8F81040284603B0BDE8F08F1268043B2F
:10438000002AC9D1013CC4E71268043B002AEFD1DE
:10439000013CEAE70020EEE72DE9F04F466A95B0D0
:1043A0000446219DCDE902233EB9102000F0D6FD40
:1043B0006062466086600660C660636A196851B1D3
:1043C0005A68012393404A608B60204601F034F81C
:1043D0000022636A1A60039B002BB7BF01230023EE
:1043E0002B60039BAEBF2B6023F000430393DDF8EB
:1043F0000C90AB4B33EA09031BD142F20F73209AA6
:104400001360029B23B9C9F31300002800F08385D1
:10441000229B53B9A34B21E0A34B06930833229A66
:104420001360069815B0BDE8F08F9E4B06930333DA
:10443000F5E7DDE902670022002330463946FCF744
:10444000AFFA804660B10123209A1360229B002BB3
:1044500000F05E85954B229A1360013B0693E0E7DE
:1044600012AB019313AB009332463B46204601F05A
:1044700031FAC9F30A558246002D7DD03046C7F384
:10448000130343F07F5141F44011A5F2FF35CDF8FD
:1044900040800022864BFBF767FE7BA3D3E9002315
:1044A000FCF716F87AA3D3E90023FBF75FFE064674
:1044B00028460F46FBF7A6FF77A3D3E90023FCF7B6
:1044C00007F802460B4630463946FBF74FFE0646D4
:1044D0000F46FCF7ADFA00228346002330463946EA
:1044E000FCF768FA58B15846FBF78CFF02460B46BA
:1044F00030463946FCF754FA08B90BF1FF3BBBF1E3
:10450000160F58D8DDE902236A4901EBCB01D1E946
:104510000001FCF76DFA00284FD000230BF1FF3BA0
:104520000D93129B5D1B6B1E079343BF0023C5F1C8
:10453000010807934FF00008BBF1000F3FDB079B1A
:10454000CDF830B05B440793002308931E9B092BE2
:1045500000F2B480052BC4BF043B1E931E9BC8BF52
:104560000026A3F10203D8BF0126032B00F2B2807C
:10457000DFE803F084862D78139B129D1D4405F21D
:104580003243202B11DD029A05F21240C3F14003A1
:1045900022FA00F009FA03F31843FBF723FF012383
:1045A000A1F1F871013D109373E7C3F12000029B64
:1045B00003FA00F0F1E70123B2E70D90B1E7CBF188
:1045C000000308930023A8EB0B080C93BEE701231C
:1045D00009931F9B002B40F380809946049300228F
:1045E0000421656A6A6001F114029A427AD9696805
:1045F000204600F0EDFE636A28601B68B9F10E0FDB
:10460000069300F2F080002E00F0ED80DDE9022339
:10461000BBF1000FCDE90E2379DD264A0BF00F0325
:104620004FEA2B1602EBC303F006D3E90023CDE9D2
:104630000A235CD5DDE90E011F4B0325D3E90823CE
:10464000FCF770F8CDE9020106F00F061A4F002EB4
:104650004FD1DDE90A23DDE90201FCF763F8CDE97A
:1046600002016EE0012309931F9B5B4403F10109E2
:1046700004934B46012BB8BF0123B0E70023A7E703
:104680000023F0E7AFF3008061436F63A787D23F59
:10469000B3C8608B288AC63FFB799F501344D33F31
:1046A0000000F07FF9790008F0790008CF79000860
:1046B0000000F83F287A0008007A0008012600234D
:1046C00009961E934FF0FF3300220493994612235C
:1046D0001F9284E701230993F4E701230493994689
:1046E0001A46F5E76A68490001326A607BE70225ED
:1046F000ACE7F10708D5DDE90A01D7E90023FBF7AC
:10470000E7FECDE90A010135761008379FE700F092
:10471000A580DDE90E01CBF10006A24B06F00F02E9
:1047200003EBC203D3E90023FBF7D2FE02250023EB
:10473000CDE902019C4F3611002E40F08480002B01
:104740008DD10D9B002B00F08B80DDE90223CDE99C
:104750000A23DDE90A010022944BFCF72BF900281B
:104760007ED0B9F1000F7BD0049B002B37DDDDE953
:104770000A0100228E4BFBF7ABFECDE90201049E3D
:104780000BF1FF3701352846FBF73CFEDDE902233C
:10479000FBF79EFE874B0022FBF7E8FCCDE90A0100
:1047A0000B9BA3F150750B95002E5CD1DDE9020146
:1047B0000022814BFBF7D8FC0A9A2B46CDE9020177
:1047C000FCF716F9002840F0F782DDE902010A9AA9
:1047D00005F10043FCF7EEF8002840F0EB82DDE93C
:1047E0000E23CDE90223139B002BC0F25081BBF1B5
:1047F0000E0F00F34C816B4B03EBCB03D3E900238B
:10480000CDE904231F9B002B80F2DA80B9F1000F61
:1048100000F3D68040F0CD82DDE904010022664B32
:10482000FBF756FEDDE90223FCF7D8F84E464F466B
:10483000002840F0A482069B069A5D1C31230BF1F0
:10484000010B13709FE2F20705D5D7E90023FBF7B0
:104850003FFE01230135761008376DE7022570E72A
:104860005F464E468FE7069A4E4B32441192099AA4
:10487000711E002A48D003EBC103D3E900230020B6
:104880004E49FBF74FFFDDE90A23FBF76DFCCDE94D
:104890000A01069DDDE90201FCF7CAF80646FBF7AE
:1048A000B1FD02460B46DDE90201FBF75DFCDDE9E7
:1048B0000A23303605F8016BCDE90201FCF77AF8DE
:1048C000002864D1DDE9022300203849FBF74CFCC5
:1048D000DDE90A23FCF76EF8002840F0B980119B4F
:1048E0009D423FF47CAFDDE90A010022304BFBF72B
:1048F000EFFD0022CDE90A01DDE902012C4BFBF7B7
:10490000E7FDCDE90201C5E703EBC101D1E90001F3
:10491000DDE90A23FBF7DCFDCDE90A01069DDDE9AF
:104920000201FCF785F80646FBF76CFD02460B46D4
:10493000DDE90201FBF718FC3036119B05F8016B2D
:10494000AB42CDE902014FF0000224D11B4BDDE95F
:104950000A01FBF70BFC02460B46DDE90201FCF7FE
:1049600047F8002874D1DDE90A2300201349FBF73A
:10497000FBFB02460B46DDE90201FCF71BF80028B1
:104980003FF42DAF15F8013C6A1E302B01D0BB4619
:104990004DE01546F6E7064BFBF79AFDCDE902011F
:1049A000BDE700BF287A0008007A00080000F03F49
:1049B0000000244000001C40000014400000E03FC4
:1049C000069DDDE90267DDE9042330463946FBF741
:1049D000A9FEFCF72DF88046FBF714FDDDE9042362
:1049E000FBF776FD02460B4630463946FBF7BCFB2B
:1049F00008F1300605F8016B069E0246AE1BB14574
:104A00000B4637D1FBF7B2FB06460F4602460B4674
:104A1000DDE90401FBF7CEFFC8B9DDE90401324648
:104A20003B46FBF7BDFF10B118F0010F0FD1514607
:104A3000204600F001FD0023209A2B700BF10103AA
:104A40001360229B002B3FF4ECAC1D60E9E45F4651
:104A500015F8012C6B1E392A06D1069A9A4207D105
:104A600030231370134601371A7801321A708EE71B
:104A70001D46EDE70022B54BFBF72AFD002200237F
:104A800006460F46FBF78CFF00289CD0CFE7099A1B
:104A9000002A00F029811E9A012A00F30E81109A43
:104AA000002A00F0068103F233434546089E079A28
:104AB00001211A4420469844079200F05DFD074604
:104AC000002D0BDD079B002B08DDAB42A8BF2B465A
:104AD000079AA8EB0308ED1AD31A0793089BFBB1BA
:104AE000099B002B00F00481002E11DD394632466F
:104AF000204600F0D7FD524601460746204600F00A
:104B000044FD51460A90204600F096FC0A9B9A46C6
:104B1000089B9A1B04D05146204600F0C3FD8246F4
:104B20000121204600F028FD0C9B0646002B40F397
:104B3000E1801A460146204600F0B4FD1E9B064661
:104B4000012B40F3DA8000230893336906EB8303DB
:104B5000186900F0C3FCC0F12000079B184410F056
:104B60001F0000F0F080C0F12003042B40F3E2802E
:104B7000079BC0F11C008044054403440793B8F12F
:104B8000000F05DD51464246204600F0D9FD824621
:104B9000079B002B05DD31461A46204600F0D0FD6C
:104BA00006460D9B002B00F0D3803146504600F0A6
:104BB00018FE002880F2CC80002351460A222046AD
:104BC00000F051FC099B0BF1FF3B8246002B00F0EB
:104BD000A981002339460A22204600F044FC049BA8
:104BE0000746002B03DC1E9B022B00F3B980002D2F
:104BF00005DD39462A46204600F0A2FD0746089BFF
:104C0000002B00F010817968204600F0E1FB05469A
:104C10003A6907F10C01023292000C3000F0C0FB3F
:104C200001222946204600F08BFD07970746029B8C
:104C3000DDF8188003F00103089331465046FFF772
:104C40001FFB0799054600F13009504600F0C9FDE9
:104C50003A4602903146204600F0DDFDC368024628
:104C6000002B40F0E28001460990504600F0B9FD6B
:104C70000346099A11462046099300F0DDFB099B83
:104C8000002B40F0D4801E9A002A40F0D080089A71
:104C9000002A40F0CC80B9F1390F00F0E880029B87
:104CA000002B01DD05F1310908F1010588F80090BC
:104CB0006BE0129BC3F13603F7E6089B09F1FF3660
:104CC000B342B7BF089B9E1BF21A0C9BBFBF08964E
:104CD0009B180C930026B9F1000FB9BFA8EB09058A
:104CE000002345464B46E2E6089E4546099FE7E617
:104CF000089A10E71E9B012B18DC029BB3B9039B9B
:104D0000C3F31303A3B9039B23F000431B0D1B053F
:104D10002BB1079B08F10108013307930123089386
:104D20000C9B002B7FF411AF012016E70023F6E760
:104D3000029BF4E73FF423AF079A1C331A449844CC
:104D40001D4413461AE70346F6E700BF000024405F
:104D5000B9F1000F33DC1E9B022B30DDCDF8109033
:104D6000049B63B931460522204600F07CFB0146D6
:104D70000646504600F035FD00283FF75CAD1F9B0E
:104D8000069D6FEA030B002307933146204600F08F
:104D900053FB002F3FF44BAE079B2BB1BB4203D01C
:104DA0001946204600F048FB3946204600F044FBF7
:104DB0003DE600263746E2E7BB4637463BE5099B22
:104DC000CDF81090002B7FF412AF069D314650466F
:104DD000FFF756FA069B00F1300905F8019B049A8B
:104DE000EB1A9A4200F38180069B012AACBF9B1804
:104DF000013398460023079351460122204600F0D4
:104E00009FFC3146824600F0ECFC002834DC02D1E5
:104E100019F0010F30D1454615F8013C6A1E302BC0
:104E2000B3D11546F8E73846FFE6012322E7029A98
:104E3000002A04DB28D11E9A32BB089A22BB002B21
:104E40007FF732AF51460122204600F079FC31460F
:104E5000824600F0C6FC002805DC7FF425AF19F07F
:104E6000010F3FF421AFB9F1390F7FF41BAF3923A4
:104E700008F1010808F8013C454615F8013C6A1E96
:104E8000392B3AD001333FE0002B08F1010505DD55
:104E9000B9F1390FEBD009F1010907E7069B049A34
:104EA000EB1A9342A84605F8019CA5D05146002371
:104EB0000A22204600F0D7FA079B8246BB424FF0F9
:104EC0000A024FF000030799204604D100F0CBFA04
:104ED00007900746B1E600F0C6FA002307900A22C1
:104EE0003946204600F0BFFAF3E7514600230A2274
:104EF000204600F0B8FA824668E7069B934205D147
:104F00003123069A0BF1010B13703EE71546B4E707
:104F1000094BFFF7A3BA229B002B7FF47DAA074B16
:104F2000FFF79CBA049B002B3FF74FAF1E9B022B51
:104F30007FF74BAF14E700BFCE790008F079000887
:104F4000044B1B68186A044B002808BF1846F03051
:104F5000704700BF280000202C050020024B0146AE
:104F6000186800F003B800BF280000202DE9F74FB3
:104F700001F10B04162C814607D934F0070405D53E
:104F80000C23C9F80030002631E110248C42F7D3FD
:104F9000484600F011FAB4F5FC7F9B4D36D204F17F
:104FA00008022A445668A2F108018E424FEAD4034F
:104FB00002D1D668B24210D07368F268B16823F0AB
:104FC0000303CA60334491605A6842F001025A6098
:104FD000484600F0F7F9083609E102338B4A2E699A
:104FE000114696426DD0706820F00300071B0F2F0A
:104FF00047DD331944F0010474606B612B61DA60A2
:105000009A6047F001025A603750E1E7630A2AD0FC
:10501000042B12D8A30938335A1C05EBC202566878
:10502000A2F10800864206D0726822F00302111B2A
:105030000F291CDD013B0133D0E7142B01D85B3372
:10504000EAE7542B02D8230B6E33E5E7B3F5AA7FCA
:1050500002D8E30B7733DFE740F25452934204D88F
:10506000A30C7C33D8E73F23D6E77E23D4E700297F
:10507000F16804DBB368D9608B60B318A4E70E460F
:10508000D0E7002F6A612A6105DB3044436843F0B2
:10509000010343609CE7B0F5007F44D20122C008C1
:1050A000871002FA07F76A6801303A436A6055F8D8
:1050B000307005EBC002083AF260B76045F8306026
:1050C000FE6001209A1000FA02F26868824200F243
:1050D0009F80024206D123F003035200024203F1F3
:1050E0000403FAD005EBC30CE0469E46D8F80C60EA
:1050F000464553D10EF1010E1EF0030F08F10808CA
:10510000F4D1980779D16B6823EA02036B60686871
:10511000520082427CD8002A7AD073460242E1D102
:1051200004335200FAE7420A042A15D882093832B9
:10513000571C55F8377005EBC20EBE4526D101202D
:10514000921000FA02F2686810436860C6F80CE03A
:10515000B760CEF80860B3E7142A01D85B32E7E7FE
:10516000542A02D8020B6E32E2E7B2F5AA7F02D8C7
:10517000C20B7732DCE740F25457BA429ABF820C36
:105180007C327E22D4E7BF68BE4504D07A6822F024
:1051900003029042F7D3D7F80CE0D7E77068F768BE
:1051A00020F00300A0EB040ABAF10F0F10DDB26883
:1051B000331944F001047460D760BA604AF0010208
:1051C0006B612B61D96099605A6046F800A0FFE6D8
:1051D000BAF1000F0FDB3044436843F00103436032
:1051E00056F8083F4846DF60BB6000F0EBF83046F9
:1051F00003B0BDE8F08F3E467AE75CF80809013B52
:1052000084453FF47EAF82E71C010020240100208A
:10521000D5F808B0DBF8046026F00306B44203D8E2
:10522000331B0F2B00F395804F4A0BEB06031768D7
:105230004E4A103711682744013105D04C490139D5
:105240000F44013149420F403946484601920093CC
:1052500000F090FBB0F1FF3F804655D0009B019AD3
:10526000834201D9AB454FD142484345016882464C
:1052700007EB010EC0F800E03F4913D10B4211D1FA
:10528000AB683E4446F001065E603C4ADAF8003006
:1052900011688B4288BF1360394A11688B4288BFFE
:1052A000136031E0106801301BBFA8EB03037344A7
:1052B000C2F80080CAF8003018F007001CBFC0F127
:1052C000080080442A4B474418440F40C71B394606
:1052D000484600F04FFB431C04BF40460027DAF865
:1052E0000030A0EB08003B44074447F00107AB4502
:1052F000C5F80880CAF80030C8F80470C5D00F2E71
:1053000010D80123C8F80430AB685A6822F00302B1
:105310009442A2EB040301D80F2B1ADC484600F09C
:1053200051F830E60522DBF804300C3E26F0070683
:1053300003F001033343CBF804300F2E0BEB0603CD
:105340005A609A60A1D90BF10801484600F020FC90
:105350009BE7AE6844F0010243F0010334447260FD
:10536000AC60636034E600BF6807002024050020BD
:1053700080000000380700207F0000006007002048
:105380006407002010B5C9B202449042034601D11F
:10539000002010BD1C7801308C42F6D1184610BD9B
:1053A00010B5431E0A44914200D110BD11F8014BC3
:1053B00003F8014FF7E70000014800F0A5BC00BF6B
:1053C000C6080020014800F0A0BC00BFC6080020AD
:1053D00070B5456A04460E463DB91020FFF7BEFD84
:1053E0006062456085600560C560656AEB6883B191
:1053F000636ADB6853F82600B8B9012101FA06F5A3
:105400006A1D9200204600F03FFB60B14660856057
:105410000EE021220421204600F036FB636AE8609A
:10542000DB68002BE4D1002070BD026843F8262021
:1054300000230361C36070BD70B5446A06460D4623
:105440003CB91020FFF78AFD7062446084600460FC
:10545000C4603DB1736A6A68DB6853F82210296042
:1054600043F8225070BD2DE9F0411F4606460C4618
:1054700000230D6901F1140EDEF80000013381B242
:1054800002FB0171000C0F0C02FB007089B201EBF2
:1054900000419D424FEA10474EF8041BECDCD7B1A7
:1054A000A3689D4212DB616830460131FFF790FF2F
:1054B0008046226904F10C01023292000C30FFF7A1
:1054C0006FFF21463046FFF7B7FF444604EB8503E4
:1054D00001355F6125612046BDE8F081020C1204B0
:1054E0000346B2B90304102013F07F4F04BF1B0220
:1054F000083013F0704F04BF1B01043013F0404F0D
:1055000004BF9B000230002B06DB5B0003D501309B
:1055100070470020E8E7202070470368014613F039
:1055200007020BD0DA0723D4980749BF5B089B0812
:1055300001200B605CBF0B600220704798B2A8B9D5
:1055400010201B0C13F0FF0F04BF1B0A08301A07B2
:1055500004BF1B0904309A0704BF9B080230DA0716
:1055600002D45B0806D001300B6070471046E9E7B3
:10557000002070472020704710B50C460121FFF72E
:1055800027FF01224461026110BD2DE9F74F144647
:105590000A69236989469A42BEBF0B46A1461C464A
:1055A000D9F81070D4F810A0D9F80830D9F8041040
:1055B00007EB0A069E42C8BF0131FFF709FF00F161
:1055C00014052B46002205EB8608434516D304F14B
:1055D000140209F1140102EB8A0301EB870701931E
:1055E000019C134694420CD8002E03DD58F8043D6C
:1055F000002B54D0066103B0BDE8F08F43F8042BB4
:10560000E3E7B3F800A00432BAF1000F20D0AE46B1
:1056100089464FF0000C59F8044BBEF800B0A3B215
:105620000AFB03B34FEA144BDEF8004063444FEA31
:10563000144C0AFB0BC404EB13449BB243EA04432F
:105640004F454FEA144C4EF8043BE4D8CEF800C066
:1056500032F8029CB9F1000F1FD0AE468C464FF0D5
:10566000000A2B68BCF80040BEF802B09BB209FBF0
:1056700004B4A24443EA0A434EF8043B5CF8043BFA
:10568000BEF800401B0C09FB0343674503EB1A43BC
:105690004FEA134AE6D8CEF800300435A0E7013EC1
:1056A000A2E700002DE9F843154612F00302064672
:1056B0000F4607D0214C013A002354F82220FFF76F
:1056C000D2FE0746AD1035D0746A3CB91020FFF702
:1056D00045FC7062446084600460C460D6F8248035
:1056E000D8F808404CB940F271213046FFF744FF2A
:1056F00000230446C8F8080003604FF00008EB07D9
:105700000AD5394622463046FFF73FFF81463946E3
:105710003046FFF791FE4F466D100BD0206838B928
:10572000224621463046FFF730FF2060C0F8008057
:105730000446E4E73846BDE8F88300BFF07A000885
:105740002DE9F0470C460746164623694FEA621AD0
:105750000AEB03094968A36809F10105AB4231DB93
:105760003846FFF735FE00228046114600F114034B
:1057700052452ADB20692AEAEA7A04F1140116F07C
:105780001F0203EB8A0301EB800E22D00020C2F13E
:10579000200C0E689640304343F8040B51F8040B7C
:1057A0008E4520FA0CF0F4D8186008B109F1020512
:1057B000013D3846C8F810502146FFF73DFE4046EF
:1057C000BDE8F08701315B00C8E743F822100132E1
:1057D000CEE7043B51F8042B8E4543F8042FF9D84B
:1057E000E6E703690A6930B59B1A0CD192001430C0
:1057F00014318418114454F8045D51F8042D954275
:1058000003D005D30123184630BDA042F3D3FAE7F5
:105810004FF0FF33F7E72DE9F0470D4607461146F5
:1058200028461446FFF7DDFF061E08D131463846EC
:10583000FFF7CEFD012346610361BDE8F087A4BFF9
:1058400023462C4638466168A6BF1D460026012621
:10585000FFF7BEFD4FF0000CC6602B69266904F10E
:10586000140205F1140902EB860709EB830800F125
:10587000140152F804AB59F8045B1FFA8AF363442D
:10588000ACB21B1B2C0CC4EB1A4404EB23449BB29C
:105890004FEA244CC84543EA0444964641F8044B79
:1058A000E7D8BE4505D351F8043D8BB10661BDE88C
:1058B000F0875EF8044BA2B26244131403EB144366
:1058C00092B242EA03424FEA234C41F8042BE8E744
:1058D000013EE8E72DE9F3411C4601219046089E70
:1058E000099DFFF775FDC4F31302C4F30A5407467C
:1058F00034BB0192B8F1000F27D002A840F8088D00
:10590000FFF70BFE0099F0B1019AC0F1200302FAF3
:1059100003F30B43C2407B610192019B002B14BF38
:1059200002210121BB613961C4B1A4F233440444B2
:105930003460C0F135002860384602B0BDE8F0811F
:1059400042F48012D5E77961E7E701A8FFF7E5FDAA
:105950000121019B39617B612030E5E7A0F23240F3
:1059600007EB810330601869FFF7B8FDC0EB411009
:10597000E1E7000038B50023054C054608462360E2
:1059800000F080FB431C02D1236803B12B6038BDBB
:10599000CC08002093682DE9F74F81460C46174646
:1059A000002B60D04FF0000B5E46D2F800A056B33B
:1059B000A3689E4244D3A28912F4906F3ED0022382
:1059C00025682169A5EB0108656905EB450595FB8F
:1059D000F3F508F1010333449D4238BF1D465305DA
:1059E00046D529464846FFF7C1FA98B90C23C9F8AD
:1059F0000030A3894FF0FF3043F04003A381002320
:105A0000BB607B6031E0DAF800B0DAF804600AF1DC
:105A1000080ACCE7424621690190FFF7C1FCA28940
:105A2000019B22F4906242F08002A28123614344F0
:105A3000236033466561A5EB0805A5609E4200D250
:105A400033461A4659462068019300F071F9A2685E
:105A5000019BD21AA260226813442360BB689E1B7C
:105A6000BE60002ECFD10020786003B0BDE8F08F7B
:105A70002A46484600F076F903460028D6D1216927
:105A8000484600F085F8B1E710B55143FFF76EFACC
:105A9000044698B150F8042C22F00302043A242A58
:105AA0001BD8132A17D900211B2A0160416007D88F
:105AB00000F1080300221A605A609A60204610BD67
:105AC000242A8160C16011BF00F11003016100F15F
:105AD00018034161EEE70346ECE70021FDF7BEFB4A
