:020000040800F2
:100000000050002051360008813500088335000873
:100010008535000887350008893500080000000094
:100020000000000000000000000000008B35000808
:100030008D350008000000008F350008913500085C
:100040009936000899360008993600089936000854
:100050009936000899360008993600089936000844
:10006000993600089936000899360008A13500082D
:100070009936000899360008993600089936000824
:100080009936000899360008993600089936000814
:100090009936000899360008993600089936000804
:1000A00099360008993600089936000899360008F4
:1000B000AD350008B93500089936000899360008B2
:1000C00099360008993600089936000899360008D4
:1000D0009936000899360008C5350008D135000862
:1000E000993600089936000899360008000000008B
:1000F0000000000000000000000000000000000000
:0C01000000000000000000005FF808F1A3
:1001100010B5054C237833B9044B13B10448AFF341
:1001200000800123237010BD740600200000000031
:100130000065000808B5034B1BB103490348AFF342
:10014000008008BD0000000078060020006500085F
:10015000034613F8012B002AFBD1181A0138704707
:1001600081F0004102E000BF83F0004330B54FEA68
:1001700041044FEA430594EA050F08BF90EA020FD5
:100180001FBF54EA000C55EA020C7FEA645C7FEA68
:10019000655C00F0E2804FEA5454D4EB5555B8BF8B
:1001A0006D420CDD2C4480EA020281EA030382EAFC
:1001B000000083EA010180EA020281EA0303362D8E
:1001C00088BF30BD11F0004F4FEA01314FF4801C61
:1001D0004CEA113102D0404261EB410113F0004F73
:1001E0004FEA03334CEA133302D0524263EB43032A
:1001F00094EA050F00F0A780A4F10104D5F1200EC8
:100200000DDB02FA0EFC22FA05F2801841F1000122
:1002100003FA0EF2801843FA05F359410EE0A5F1F6
:1002200020050EF1200E012A03FA0EFC28BF4CF027
:10023000020C43FA05F3C01851EBE37101F00045DD
:1002400007D54FF0000EDCF1000C7EEB00006EEBEA
:100250000101B1F5801F1BD3B1F5001F0CD3490874
:100260005FEA30004FEA3C0C04F101044FEA4452CB
:1002700012F5800F80F09A80BCF1004F08BF5FEA52
:10028000500C50F1000041EB045141EA050130BD32
:100290005FEA4C0C404141EB010111F4801FA4F1D5
:1002A0000104E9D191F0000F04BF01460020B1FA2A
:1002B00081F308BF2033A3F10B03B3F120020CDA62
:1002C0000C3208DD02F1140CC2F10C0201FA0CF040
:1002D00021FA02F10CE002F11402D8BFC2F1200CA5
:1002E00001FA02F120FA0CFCDCBF41EA0C0190405B
:1002F000E41AA2BF01EB0451294330BD6FEA0404A4
:100300001F3C1CDA0C340EDC04F11404C4F120028E
:1003100020FA04F001FA02F340EA030021FA04F3A0
:1003200045EA030130BDC4F10C04C4F1200220FAF7
:1003300002F001FA04F340EA0300294630BD21FA35
:1003400004F0294630BD94F0000F83F4801306BFFB
:1003500081F480110134013D4EE77FEA645C18BFEF
:100360007FEA655C29D094EA050F08BF90EA020F86
:1003700005D054EA000C04BF1946104630BD91EA7E
:10038000030F1EBF0021002030BD5FEA545C05D181
:100390004000494128BF41F0004130BD14F58004C0
:1003A0003CBF01F5801130BD01F0004545F0FE4134
:1003B00041F470014FF0000030BD7FEA645C1ABF69
:1003C000194610467FEA655C1CBF0B46024650EAA0
:1003D000013406BF52EA033591EA030F41F40021CC
:1003E00030BD00BF90F0000F04BF0021704730B552
:1003F0004FF4806404F132044FF000054FF0000127
:1004000050E700BF90F0000F04BF0021704730B5E7
:100410004FF4806404F1320410F0004548BF4042BC
:100420004FF000013EE700BF42004FEAE2014FEA11
:1004300031014FEA02701FBF12F07F4393F07F4FEC
:1004400081F06051704792F0000F14BF93F07F4F1E
:10045000704730B54FF4607401F0004521F0004161
:1004600020E700BF50EA010208BF704730B54FF0E7
:1004700000050AE050EA010208BF704730B511F0EC
:10048000004502D5404261EB41014FF4806404F124
:1004900032045FEA915C3FF4DCAE4FF003025FEAA6
:1004A000DC0C18BF03325FEADC0C18BF033202EB2E
:1004B000DC02C2F1200300FA03FC20FA02F001FA88
:1004C00003FE40EA0E0021FA02F11444C1E600BF27
:1004D00070B54FF0FF0C4CF4E06C1CEA11541DBFDA
:1004E0001CEA135594EA0C0F95EA0C0F00F0DEF8A5
:1004F0002C4481EA030621EA4C5123EA4C5350EA8A
:10050000013518BF52EA033541F4801143F48013DA
:1005100038D0A0FB02CE4FF00005E1FB02E506F06B
:100520000042E0FB03E54FF00006E1FB03569CF0C0
:10053000000F18BF4EF0010EA4F1FF04B6F5007FC6
:1005400064F5407404D25FEA4E0E6D4146EB060638
:1005500042EAC62141EA55514FEAC52040EA5E50C1
:100560004FEACE2EB4F1FD0C88BFBCF5E06F1ED86B
:10057000BEF1004F08BF5FEA500E50F1000041EBA2
:10058000045170BD06F0004646EA010140EA02004F
:1005900081EA0301B4EB5C04C2BFD4EB0C0541EA71
:1005A000045170BD41F480114FF0000E013C00F386
:1005B000AB8014F1360FDEBF002001F0004170BDAA
:1005C000C4F10004203C35DA0C341BDC04F11404C3
:1005D000C4F1200500FA05F320FA04F001FA05F24F
:1005E00040EA020001F0004221F0004110EBD3701C
:1005F00021FA04F642EB06015EEA430E08BF20EA48
:10060000D37070BDC4F10C04C4F1200500FA04F3EA
:1006100020FA05F001FA04F240EA020001F000417C
:1006200010EBD37041F100015EEA430E08BF20EAEF
:10063000D37070BDC4F1200500FA05F24EEA020E37
:1006400020FA04F301FA05F243EA020321FA04F066
:1006500001F0004121FA04F220EA020000EBD3701D
:100660005EEA430E08BF20EAD37070BD94F0000F1D
:100670000FD101F00046400041EB010111F4801F51
:1006800008BF013CF7D041EA060195F0000F18BF02
:10069000704703F00046520043EB030313F4801F3E
:1006A00008BF013DF7D043EA0603704794EA0C0FF8
:1006B0000CEA135518BF95EA0C0F0CD050EA41060E
:1006C00018BF52EA4306D1D181EA030101F000418B
:1006D0004FF0000070BD50EA410606BF10461946B3
:1006E00052EA430619D094EA0C0F02D150EA0136BF
:1006F00013D195EA0C0F05D152EA03361CBF104600
:1007000019460AD181EA030101F0004141F0FE419E
:1007100041F470014FF0000070BD41F0FE4141F422
:10072000780170BD70B54FF0FF0C4CF4E06C1CEA22
:1007300011541DBF1CEA135594EA0C0F95EA0C0FD7
:1007400000F0A7F8A4EB050481EA030E52EA033592
:100750004FEA013100F088804FEA03334FF08055B3
:1007600045EA131343EA12634FEA022245EA1115E0
:1007700045EA10654FEA00260EF000419D4208BF91
:10078000964244F1FD0404F5407402D25B084FEA3E
:100790003202B61A65EB03055B084FEA32024FF4EA
:1007A00080104FF4002CB6EB020E75EB030E22BF47
:1007B000B61A754640EA0C005B084FEA3202B6EB07
:1007C000020E75EB030E22BFB61A754640EA5C00B6
:1007D0005B084FEA3202B6EB020E75EB030E22BF46
:1007E000B61A754640EA9C005B084FEA3202B6EB47
:1007F000020E75EB030E22BFB61A754640EADC0006
:1008000055EA060E18D04FEA051545EA16754FEA67
:1008100006164FEAC30343EA52734FEAC2025FEA85
:100820001C1CC0D111F4801F0BD141EA00014FF014
:1008300000004FF0004CB6E711F4801F04BF0143E5
:100840000020B4F1FD0C88BFBCF5E06F3FF6AFAE01
:10085000B5EB030C04BFB6EB020C5FEA500C50F191
:10086000000041EB045170BD0EF0004E4EEA113114
:1008700014EB5C04C2BFD4EB0C0541EA045170BD1B
:1008800041F480114FF0000E013C90E645EA060E5F
:100890008DE60CEA135594EA0C0F08BF95EA0C0F8D
:1008A0003FF43BAF94EA0C0F0AD150EA01347FF4D5
:1008B00034AF95EA0C0F7FF425AF104619462CE7AC
:1008C00095EA0C0F06D152EA03353FF4FDAE10460F
:1008D000194622E750EA410618BF52EA43067FF460
:1008E000C5AE50EA41047FF40DAF52EA43057FF4F0
:1008F000EBAE12E74FF0FF3C06E000BF4FF0010CFB
:1009000002E000BF4FF0010C4DF804CD4FEA410C5E
:100910007FEA6C5C4FEA430C18BF7FEA6C5C1BD02B
:1009200001B050EA410C0CBF52EA430C91EA030FAC
:1009300002BF90EA020F0020704710F1000F91EA09
:10094000030F58BF994208BF90422CBFD8176FEAD7
:10095000E37040F0010070474FEA410C7FEA6C5CA5
:1009600002D150EA013C07D14FEA430C7FEA6C5CAC
:10097000D6D152EA033CD3D05DF8040B704700BFD8
:100980008446104662468C461946634600E000BF26
:1009900001B5FFF7B7FF002848BF10F1000F01BDF8
:1009A0004DF808EDFFF7F4FF0CBF012000205DF8C3
:1009B00008FB00BF4DF808EDFFF7EAFF34BF012048
:1009C00000205DF808FB00BF4DF808EDFFF7E0FFE1
:1009D00094BF012000205DF808FB00BF4DF808ED32
:1009E000FFF7CEFF94BF012000205DF808FB00BF99
:1009F0004DF808EDFFF7C4FF34BF012000205DF87B
:100A000008FB00BF4FEA410C7FEA6C5C02D150EA60
:100A1000013C0AD14FEA430C7FEA6C5C02D152EAF6
:100A2000033C02D14FF0000070474FF001007047C7
:100A30004FEA410212F5001215D211D56FF4787306
:100A4000B3EB625212D94FEAC12343F0004343EAA9
:100A5000505311F0004F23FA02F018BF4042704784
:100A60004FF00000704750EA013005D111F000400E
:100A700008BF6FF0004070474FF00000704700BFA4
:100A800053B94AB9002908BF00281CBF4FF0FF31F5
:100A90004FF0FF3000F07AB9ADF1080C6DE904CEEB
:100AA00000F006F8DDF804E0DDE9022304B0704749
:100AB0002DE9F0478C460E460446089D002B50D188
:100AC0008A4217466CD9B2FA82FEBEF1000F0BD0F3
:100AD000CEF1200C01FA0EF620FA0CFC02FA0EF709
:100AE0004CEA060C00FA0EF43A0CBCFBF2F9BBB26D
:100AF00002FB19CC09FB03FA4FEA144848EA0C46FA
:100B0000B2450AD9F61909F1FF3180F02581B245C5
:100B100040F22281A9F102093E44A6EB0A06B6FB87
:100B2000F2F002FB106600FB03F3A4B244EA0644B1
:100B3000A34209D9E41900F1FF3280F00B81A342EE
:100B400040F2088102383C440021E41A40EA09409E
:100B5000002D62D0002324FA0EF42C606B60BDE8F7
:100B6000F0878B4207D9002D55D0002185E8410040
:100B70000846BDE8F087B3FA83F1002940F08F8082
:100B8000B34202D3824200F2FC80841A66EB030671
:100B90000120B446002D40D085E81010BDE8F08754
:100BA00012B90127B7FBF2F7B7FA87FEBEF1000FC3
:100BB00035D10121F61B4FEA174C1FFA87F8B6FB17
:100BC000FCF20CFB126608FB02F0230C43EA06461B
:100BD000B04207D9F61902F1FF3302D2B04200F257
:100BE000D2801A46361AB6FBFCF00CFB106608FBE6
:100BF00000F8A3B243EA0644A04507D9E41900F17E
:100C0000FF3302D2A04500F2B9801846A4EB0804D5
:100C100040EA02409CE729462846BDE8F08707FAEB
:100C20000EF7CEF1200326FA03F24FEA174CB2FB7F
:100C3000FCF11FFA87F80CFB112206FA0EF620FAD7
:100C400003F301FB08F933431E0C46EA0246B145A3
:100C500000FA0EF409D9F61901F1FF3280F08C8008
:100C6000B14540F2898002393E44A6EB0906B6FB45
:100C7000FCF00CFB106200FB08F99EB246EA02464B
:100C8000B14507D9F61900F1FF3371D2B1456FD9DB
:100C900002383E44A6EB090640EA01418FE7C1F164
:100CA000200722FA07F88B4048EA030326FA07F4E4
:100CB0004FEA134EB4FBFEF91FFA83FC0EFB1944F6
:100CC0008E4020FA07F809FB0CFA48EA06084FEABA
:100CD000184646EA0444A24502FA01F200FA01F677
:100CE00008D9E41809F1FF3044D2A24542D9A9F14C
:100CF00002091C44A4EB0A04B4FBFEF00EFB1044F2
:100D000000FB0CFC1FFA88F848EA0444A44507D904
:100D1000E41800F1FF3E29D2A44527D902381C442B
:100D200040EA0940A0FB0289A4EB0C0CCC45C2466A
:100D3000CE4615D312D055B1B6EB0A036CEB0E06B6
:100D400006FA07F7CB401F43CE402F606E600021AC
:100D5000BDE8F0871046F7E68946DEE64645EAD26A
:100D6000B8EB020A69EB030E0138E4E77046D7E7F7
:100D700018468FE78146BDE7114676E702383C44C6
:100D800044E7084606E7023A3E442BE7704700BFB7
:100D9000084B10B5044618684FF47A73B0FBF3F0B3
:100DA00000F0B4FA002221464FF0FF3000F06EFA56
:100DB000002010BD00000020074A08B5136803207A
:100DC00043F01003136000F04FFA0020FFF7E0FF3C
:100DD00002F0A6FA002008BD00200240024A136873
:100DE00001331360704700BFCC060020014B186828
:100DF000704700BFCC06002037B50190FFF7F6FF23
:100E00000546019C631C18BF0134FFF7EFFF401B30
:100E1000A042FAD303B030BD7047436A10B59A6A56
:100E200012F0500F1BD19A6A42F400729A621A684B
:100E3000926802F46022B2F5602F0CD1DA6852B9E0
:100E40009A6A22F480729A629A6AD2045EBF9A6A9F
:100E500042F001029A621846FFF7DEFF10BD1B6ADE
:100E6000BDE810401B6B1847704708B5406AFFF794
:100E7000FBFF08BD7047406A08B5836A43F0400332
:100E80008362C36A43F00403C362FFF7F3FF08BD44
:100E9000002373B5019390F82430012B74D0012303
:100EA0004D6880F82430062D02684FEA85030C68EF
:100EB00025D82B441F25566B053B9D4026EA05058A
:100EC00004FA03F32B435363092C4FEA44038D6860
:100ED0002FD907262344D1681E3B9E4021EA0601F4
:100EE00005FA03F30B43D360A4F11003012B2BD9B4
:100EF0000023002280F82420184602B070BD0C2D7B
:100F00000BD82B441F25166B233B9D4026EA050575
:100F100004FA03F32B431363D6E72B441F25D66A49
:100F2000413B9D4026EA050504FA03F32B43D362B7
:100F3000CAE70726116923449E4021EA060105FA03
:100F400003F30B431361CFE7104B9A4216D193681A
:100F50001B02CDD49368102C43F400039360C7D1D7
:100F60000B4B0C4A1B68B3FBF2F20A235343019369
:100F7000019B002BBCD0019B013BF8E7836A43F047
:100F8000200383620123B4E70223B5E70024014074
:100F90000000002040420F00002373B50193036856
:100FA00004469A68D20702D5002002B070BD9A6844
:100FB00042F001029A60124B124A1B68B3FBF2F333
:100FC0000193019BC3B9FFF711FF064623689D6893
:100FD00015F00105E8D1FFF709FF801B0228F5D9BC
:100FE000A36A84F8245043F01003A362E36A01204B
:100FF00043F00103E362D8E7019B013BE0E700BF58
:101000000000002040420F002DE9D8419046404B9F
:10101000026804469A420F4602D03E498A4203D1F2
:101020005B6813F4702F6ED194F82430012B6CD0D0
:101030000123204684F82430FFF7AEFF064600283F
:101040005DD1A06A216820F47060324B20F001006D
:1010500040F480709942A06204D12D4A536813F481
:10106000702F3ED1A36A23F48013A3624B685A0504
:1010700005D5A36A23F4405343F48053A362A36AC3
:10108000206A13F4805318BFE36A3A4618BF23F06E
:101090000603E362002384F824301F4B4C31836243
:1010A0001E4BC3621E4B03636FF0020341F84C3CBE
:1010B00051F8443C43F4807341F8443C434600F00B
:1010C00081F923689A6802F46022B2F5602F9A6869
:1010D0000CBF42F4A00242F480129A603046BDE890
:1010E000D881A36A43F48013A36253685B0541BFB0
:1010F000A06A20F4405040F48050A062BFE7002373
:1011000084F82430EAE70126E8E70226E6E700BF94
:1011100000240140002801401B0E00086B0E00084F
:10112000770E000838B5036804469A68D20701D4E0
:10113000002038BD9A6822F001029A60FFF756FE3F
:10114000054623689B68DB07F2D5FFF74FFE401B7F
:101150000228F6D9A36A012043F01003A362E36AD0
:1011600043F00103E36238BD70B50446002871D036
:10117000836A23B9C36280F8243002F019F920464B
:10118000FFF7D0FFA36A13F0100FA36A64D1002801
:1011900062D1E16923F48853626823F0020343F0CB
:1011A00002030A43A168A362E368B1F5807F42EAC3
:1011B000430238D0012914BF06464FF48076656992
:1011C000012D07D1002B30D1A369013B46EA4335FD
:1011D00045F400662368B1F5807F5D6825F46945B4
:1011E00045EA06055D609E681D4D05EA060545EA6F
:1011F00002059D6001D0012920D12169013909052D
:10120000DD6A25F470052943D9629968154B0B40B6
:101210009A4215D10023E362A36A23F0030343F04B
:101220000103A36270BD0E46C9E7A36A43F0200321
:10123000A362E36A43F00103E362CBE70021DFE747
:10124000A36A23F0120343F01003A362E36A43F09E
:101250000103E362012070BD43F01003A362F9E7CC
:10126000FDF7E1FFFE0E1FFF074A0002D36800F4FE
:10127000E06023F4E0631B041B0C43F0BF6343F402
:1012800000330343D360704700ED00E0174B30B5E7
:10129000DC68C4F30224C4F10703251D042B28BF16
:1012A0000423062D4FF0010598BF002405FA03F32F
:1012B00003F1FF3388BF033C1940A14005FA04F451
:1012C000013C2240002842EA01024FEA0212AFBF6D
:1012D00000F16040064B00F00F00D2B2A5BFD2B2C1
:1012E00000F561401A5480F8002330BD00ED00E0A5
:1012F00014ED00E00123420900F01F0003FA00F0A2
:10130000014B43F82200704700E100E00138B0F1E2
:10131000807F0AD2F021064B064A586082F82310DB
:101320000020072298601A6070470120704700BFB4
:1013300010E000E000ED00E0044B04281A680CBF48
:1013400042F0040222F004021A60704710E000E04C
:10135000704708B5FFF7FCFF08BD000010B550B39B
:1013600014220168154B84680B44B3FBF2F39B0015
:101370000364134B0A68C363436822F47F52234318
:10138000C46822F0300223430469234344692343A1
:1013900084692343C469234313430B600122002360
:1013A00080F821208362C36203634363836380F810
:1013B0002030184610BD012010BD00BFF8FFFDBF52
:1013C00000000240F0B590F82040012C35D00124F7
:1013D00090F8215080F82040A5424FF000064FF0D1
:1013E000020428D180F82140046886632668076CCF
:1013F00026F001062660C66BBD40756063604368D9
:101400000568102BC36A0BBFA260A160E160E260B7
:101410004BB1236843F00E0323602B68002043F098
:1014200001032B60F0BD236823F0040323602368CD
:1014300043F00A03F0E780F820600220F0BD0000CE
:1014400090F8213010B5022B03D0042383630120D0
:1014500010BD03681A6822F00E021A601A6822F0A2
:1014600001021A60184A93421FD0143293421ED0D0
:10147000143293421DD0143293421DD01432934241
:101480001DD0143293420CBF4FF480134FF0807381
:101490000E4A00245360012380F82130436B80F80A
:1014A00020407BB19847204610BD0123F0E7102370
:1014B000EEE74FF48073EBE74FF48053E8E74FF427
:1014C0008033E5E7184610BD0800024000000240E6
:1014D00070B40425C66B026C3468036895402542DD
:1014E000196832D04D0730D51A6896065EBF1A6863
:1014F00022F004021A603E4A934219D014329342F9
:1015000018D01432934217D01432934217D01432A9
:10151000934217D0143293420CBF4FF480034FF024
:101520008063344A5360C36A002B5ED070BC184796
:101530000423F6E74023F4E74FF48063F1E74FF428
:101540008043EEE74FF48023EBE7022595402542E8
:1015500035D08D0733D51A68940606D41A6822F060
:101560000A021A60012280F82120214A934219D0F0
:101570001432934218D01432934217D0143293424B
:1015800017D01432934217D0143293420CBF4FF449
:1015900000134FF00073174A5360002380F8203087
:1015A000836AC1E70223F6E72023F4E74FF40073D0
:1015B000F1E74FF40053EEE74FF40033EBE7082573
:1015C0009540254211D009070FD5196821F00E0169
:1015D0001960012303FA02F27260836380F82130FC
:1015E000002380F82030036B9EE770BC704700BF7B
:1015F00008000240000002402DE9F74F0022164685
:10160000654BDFF8A4E1DFF8A4C14FF001080C68D6
:1016100008FA06F808EA0404A0457FD14D68122DA7
:1016200000F0AF8000F28880022D00F0A7807CD807
:10163000002D00F08E80012D00F09E804FF00F09EC
:10164000FF2C93BF824606F18045083DD0F800B0DC
:1016500092BFB500D0F804B0AD0009FA05F82BEA46
:10166000080802FA05F588BF00F1040A48EA0505F2
:10167000CAF80050D1F804A01AF0805F4ED0474D50
:10168000464FAD6926F0030845F00105BD61BD690F
:1016900008F1804805F00105019508F5803806F04D
:1016A000030B019D4FEA8B0BD8F8085009FA0BF990
:1016B00025EA09093A4DA84268D005F58065A84297
:1016C00066D005F58065A84264D005F58065A8421E
:1016D0000CBF0325042505FA0BF545EA0905C8F8F2
:1016E00008501D681AF4803F14BF2543A5431D60B0
:1016F0005D681AF4003F14BF2543A5435D609D68F3
:101700001AF4801F14BF2543A5439D60DD681AF4B9
:10171000001F14BF2C4325EA0404DC600136102EA0
:101720007FF473AF03B0BDE8F08F032D22D0112DED
:1017300084D1CA68043281E71A4FBD4209D012D859
:10174000DFF86C904D4504D009F580394D457FF4A4
:1017500075AF8A68C2B1012A0CBFC0F81080C0F80A
:10176000148008226AE77545F3D06545F1D0DFF8AB
:101770004490EBE7002261E7CA685FE7CA68083275
:101780005CE7CA680C3259E7042257E70025A2E754
:101790000125A0E702259EE7000401400010024059
:1017A000000801400000211000003110000032103C
:1017B00000001110000022100AB1016170470904F5
:1017C000FBE7C3685940C16070470268536913F46E
:1017D00080630DD06FF4806353610423202203647F
:1017E0000023036380F83C3080F83D2001207047DF
:1017F000184670472DE9F843044617469946C1F349
:1018000007488EB22568B8F1010F0CBF6B69AB6950
:1018100036EA030314BF0120002008B9BDE8F883AD
:101820006B695A0512D52B68202243F400732B6094
:101830006FF480636B61042323640023012023631E
:1018400084F83C3084F83D20BDE8F8837B1CD9D077
:101850004FB900232022236384F83C3084F83D20D4
:101860000320BDE8F883FFF7C1FAA0EB0900874227
:10187000C8D2EEE72DE9F843044690461F46089E7D
:10188000C1F307498DB22368B9F1010F0CBF5B6941
:101890009B6935EA03030CBF01230023434502D0B3
:1018A0000020BDE8F8837B1CEDD05FB90023202227
:1018B000236384F83C3084F83D20032084F83E30D4
:1018C000BDE8F883FFF792FA801B8742DBD2EDE791
:1018D00070B504460D46164623685B691B0601D5A4
:1018E000002070BD2046FFF770FFA8B96A1CF3D036
:1018F00065B9236C202243F02003236400230320D6
:10190000236384F83C3084F83D2070BDFFF76EFA05
:10191000801B8542E0D2ECE7012070BD70B5044623
:101920000D4616462068436913F0400301D000209D
:1019300070BD4269D2060BD56FF0100242612022C1
:10194000236484F83C302363012084F83D2070BD7B
:101950005DB9236C032043F020032364202384F823
:101960003D30002384F83C3070BDFFF73FFA801B08
:101970008542D7D2EDE770B504460D46164623687A
:101980005B695B0701D5002070BD2046FFF71DFF96
:10199000A8B96A1CF3D065B9236C202243F0200358
:1019A000236400230320236384F83C3084F83D2023
:1019B00070BDFFF71BFA801B8542E0D2ECE70120E7
:1019C00070BD000070B50446002863D090F83D302B
:1019D00003F0FF021BB980F83C2001F02BFD24230B
:1019E000226884F83D3013682B4E23F00103136006
:1019F00000F022FD6368294DB342B0FBF5F588BFC6
:101A00004FF49671226888BF6943556085BF4FF4D3
:101A10007A75B1FBF5F1691C0131B342116221D82D
:101A20005B00B0FBF3F0C0F30B03032B98BF042063
:101A3000216AE369D0610B431360E16823690020E8
:101A40000B439360A16963690B43D360136843F050
:101A5000010313602023206484F83D30206384F860
:101A60003E0070BDA16849B903EB4303B0FBF3F03E
:101A7000C0F30B0363B140F40040D9E719214B4395
:101A8000B0FBF3F0C0F30B0313B140F44040CFE7D9
:101A90000120CDE7012070BDA086010040420F006B
:101AA0002DE9FF4104461F460D469046FFF79EF97B
:101AB00094F83D300646202B04D00225284604B079
:101AC000BDE8F0810090192301225D492046FFF70F
:101AD000D1FE0028F1D194F83C30012BEDD0012348
:101AE00084F83C3023681A68D2075EBF1A6842F057
:101AF00001021A601A6822F400621A60212284F836
:101B00003D20102284F83E2000222264A2F580327B
:101B10006785E262628DC4F824802285E26A042A25
:101B200004D0012A02D012F5803F04D11A6842F491
:101B300080721A6002E0226B122AF7D000960A9B8C
:101B400000224FF001112046FFF794FE28BB2369C5
:101B50002268B3F5804F12D105F0FE0515613346BA
:101B60000A9A38492046FFF745FE0546A0B9236882
:101B700003905A6903929B690393039B50E0EB1116
:101B800003F0060343F0F00313612F4933460A9A2A
:101B90002046FFF72FFE48B1236C236C042B4FF037
:101BA000000307D184F83C30012587E72368EDB2B4
:101BB0001D61D4E784F83C3003257FE732460A995B
:101BC0002046FFF785FE40B1236C042BF4D1226838
:101BD000136843F400731360E6E7616A20684B1CE6
:101BE00063620B78228D0361638D013B9BB2638539
:101BF0004769531E9BB27F0723850AD54BB18B1CC7
:101C000063624B78023A0361638D2285013B9BB28C
:101C1000638532460A992046FFF7ADFE0028D3D1EE
:101C2000238D002BCAD121680A6842F400720A6031
:101C3000202284F83C3084F83D2084F83E303DE793
:101C40000200100002000100080001002DE9F0432D
:101C5000044689B098460D469146109FFFF7C6F896
:101C600094F83D300646202B04D00225284609B0C2
:101C7000BDE8F083009019230122A2492046FFF716
:101C8000F9FD0028F1D194F83C30012BEDD001236F
:101C900084F83C3023681A68D2075EBF1A6842F0A5
:101CA00001021A601A6822F400621A60222284F883
:101CB0003D20102284F83E2000222264A2F58032CA
:101CC000A4F82A80E262628DC4F824902285E26A38
:101CD0001968042A41F48061196004D0012A02D0F5
:101CE00012F5803F04D11A6842F480721A6002E053
:101CF000226B112AF7D000963B4600224FF00111CB
:101D00002046FFF7B7FD00284DD12369B3F5804F7A
:101D1000236839D145F00105EDB21D6133463A46DD
:101D200079492046FFF766FD054600283AD1228D05
:101D30002368002A69D0012A7AD11A6822F48062C5
:101D40001A6072B6236804955A6904929A690492DB
:101D5000049A1A6842F400721A6062B6DFF8B08121
:101D6000238D002B5BD0032B00F2D480012B7BD181
:101D7000324639462046FFF7D1FD002800F0938017
:101D8000236C202B16D13EE04FEAE51808F0060838
:101D900048F0F0021A615D4933463A462046FFF7A3
:101DA00029FD48B1236C236C042B4FF0000328D18C
:101DB00084F83C30012559E72368EDB21D613A46AD
:101DC000334651492046FFF715FD02460028E9D168
:101DD00023680790596920460791996907910799E7
:101DE000196841F48071196000963B464FF001116B
:101DF000FFF740FD0028D6D1226848F0F1031361B7
:101E00008CE784F83C30032530E703955A69039248
:101E10009A690392039A1A6842F400721A602023A6
:101E200084F83D30002384F83E3084F83C301DE7D0
:101E3000022A1A680ED142F400621A6072B6236850
:101E400005955A6905929A690592059A1A6822F4CD
:101E5000806281E742F480621A6006955A690692B0
:101E60009B690693069B79E7022B00963B464FF051
:101E700000024146204624D1FFF7FCFC0028C2D1D5
:101E800072B623681A6842F400721A60626A1B69AB
:101E9000511C61621370238D013B2385638D013BCF
:101EA0009BB2638562B6636A5A1C626222681269D9
:101EB0001A70238D013B2385638D013B9BB26385A3
:101EC0004EE7FFF7D7FC024600289CD121680B683B
:101ED00023F480630B6072B6636A2046591C61620A
:101EE000216809691970238D0096013B2385638D54
:101EF0004146013B9BB263853B46FFF7BBFC002894
:101F0000BFD080E7020010000200010008000100BD
:101F100004000100324639462046FFF7FFFC002846
:101F20007FF42EAF636A5A1C6262226812691A70CB
:101F3000238D2268013B2385638D013B9BB2638522
:101F400053695B077FF50CAF636A591C6162AEE7AA
:101F500003682DE9F341DB07054610D42B689F0782
:101F60005ED42B68190700F195802B685A0700F1A1
:101F7000BF80EA69002A40F02D81002014E0904CD7
:101F8000636803F00C03042B07D0636803F00C03B1
:101F9000082B0CD16368DE0309D523689C03DDD5CB
:101FA0006B68002BDAD1012002B0BDE8F0816B68CC
:101FB000B3F5803F10D1236843F480332360FEF7EC
:101FC00015FF064623689803C8D4FEF70FFF801B51
:101FD0006428F7D90320E7E79BB9236823F480330B
:101FE0002360236823F480232360FEF7FFFE064668
:101FF00023689903B2D5FEF7F9FE801B6428F7D950
:10200000E8E7B3F5A02F236803D143F480232360CE
:10201000D1E723F480332360236823F48023CDE7C2
:10202000674C636813F00C0F07D0636803F00C0370
:10203000082B10D16368DA030DD423689B0702D5FF
:102040002B69012BAFD123686A6923F0F80343EAB7
:10205000C203236085E72A695A4B6AB101221A60DC
:10206000FEF7C4FE064623689F07ECD4FEF7BEFECB
:10207000801B0228F7D9ADE71A60FEF7B7FE0646C7
:10208000236898077FF56DAFFEF7B0FE801B02282E
:10209000F6D99FE7AA694A4C4B4BDAB101221A6084
:1020A000FEF7A4FE0646636A9B070DD54FF4FA526D
:1020B000464B1B68B3FBF2F3019300BF019B5A1E12
:1020C0000192002BF9D150E7FEF790FE801B022809
:1020D000E9D97FE71A60FEF789FE0646636A9F0723
:1020E0007FF543AFFEF782FE801B0228F6D971E729
:1020F000334CE369D80024D40127E36943F08053CB
:10210000E361E36903F080530093009B304E336832
:10211000D90518D5EB68012B26D1236A43F00103BA
:102120002362FEF763FE41F288368046236A9B07EE
:102130003FD5002F3FF41DAFE36923F08053E361E7
:1021400017E70027E2E7336843F480733360FEF754
:102150004DFE80463368DA05DCD4FEF747FEA0EB7F
:1021600008006428F6D935E7ABB9236A41F288380C
:1021700023F001032362236A23F004032362FEF7A2
:1021800035FE0646236A9807D3D5FEF72FFE801B3F
:102190004045F7D91EE7052B236A03D143F004031A
:1021A0002362BAE723F001032362236A23F00403C6
:1021B000B6E7FEF71BFEA0EB0800B042B6D909E770
:1021C0000010024000004242800442420000002011
:1021D00000700040224C636803F00C03082B3FF4AE
:1021E000E2AE00231F4E022A33602BD1FEF7FEFD24
:1021F0000746236899011FD42B6AB3F5803F05D1A8
:102200006268A96822F400320A436260696A6268FF
:102210000B4322F474121343636001233360FEF70F
:10222000E5FD054623689A013FF5A7AEFEF7DEFD02
:10223000401B0228F6D9CDE6FEF7D8FDC01B0228C8
:10224000D7D9C7E6FEF7D2FD054623689B017FF587
:1022500094AEFEF7CBFD401B0228F6D9BAE600BFCC
:10226000001002406000424230B51A4B87B002AC09
:1022700003F11005224618685968083303C2AB42BF
:102280001446F7D101238DF80430022312498DF84A
:1022900005304B6803F00C02082A18D1C3F38342BF
:1022A000DB0348BF4B6806A8024448BFC3F3404362
:1022B00012F8100C41BF06AA9B1813F8142C074BF8
:1022C00054BF074BB3FBF2F3584307B030BD03488C
:1022D000FBE700BF186500080010024000127A00FA
:1022E00000093D004D4A2DE9F0411368054603F011
:1022F00007038B420E4628D32A68910732D4D207AF
:1023000038D4464A136803F007039E4273D32A6801
:10231000434C12F0040F79D1130706D563682A697C
:1023200023F4605343EAC2036360FFF79DFF6368D1
:102330003C4AC3F30313D35CD8403B4B18600020E6
:10234000FEF726FD0020BDE8F081136823F00703A7
:102350000B431360136803F007039942CCD00120AC
:10236000BDE8F0812E49A8684B6823F0F0030343D1
:102370004B60C4E76A682A4C012A23681CD113F415
:10238000003FECD0636841F2883823F00303134325
:102390006360FEF72BFD6B680746012B14D1636861
:1023A00003F00C03042BACD0FEF720FDC01B40450E
:1023B000F5D90320BDE8F081022A02D113F0007F95
:1023C000DFE713F0020FDCE7022B0FD1636803F0A5
:1023D0000C03082B95D0FEF709FDC01B4045F5D92D
:1023E000E7E7FEF703FDC01B4045E2D8636813F042
:1023F0000C0FF6D185E7136823F00703334313600E
:10240000136803F007039E42A9D180E76368E96877
:1024100023F4E0630B4363607EE700BF00200240CB
:10242000001002406E65000800000020014B186893
:10243000704700BF00000020044B054A5B68C3F3EF
:102440000223D35C034A1068D84070470010024052
:102450007E65000800000020044B054A5B68C3F35A
:10246000C223D35C034A1068D84070470010024072
:102470007E6500080000002003682DE9F341D907BC
:10248000054620D5354CE369DA0032D40127E369EB
:1024900043F08053E361E36903F080530193019BB0
:1024A0002F4E3368DB0526D5236A13F4407336D1EB
:1024B000236A6A6823F44073134323621FB1E369FC
:1024C00023F08053E3612868830706D5234AA9686F
:1024D000536823F440430B43536010F010001BD0AB
:1024E0001E4AE9685368002023F480030B435360BD
:1024F00012E00027D4E7336843F480733360FEF7BB
:1025000075FC80463368D805CED4FEF76FFCA0EB8F
:1025100008006428F6D9032002B0BDE8F0816A689B
:1025200002F440729342C3D001200E4A236A106025
:10253000002023F4407110602162D907B8D5FEF75E
:1025400055FC41F288380646236A9A07B0D4FEF754
:102550004DFC801B4045F7D9DDE700BF001002406D
:10256000007000404004424203680020DA6842F0F4
:102570000102DA601A6842F001021A60704790F8AE
:102580003C3070B5012B4FF002031CD0012280F8C3
:102590003D30036880F83C209A6822F47F4222F0A4
:1025A00077029A600A68402A79D019D8102A00F078
:1025B00093800AD8002A00F08980012380F83D30FA
:1025C000002380F83C30184670BD202A00F08A8035
:1025D000302AF2D19A6822F0700242F0370236E0D7
:1025E000702A36D01BD8502A42D0602AE5D11C6A06
:1025F0004D6824F01004CE681C6299691A6A21F4AF
:10260000704122F0A00242EA051241EA06319961C6
:102610001A629A6822F0700242F0670217E0B2F57F
:10262000805F11D0B2F5005FC7D18A684D689C68A1
:10263000C9682A4324F47F4442EA012222439A6073
:102640009A6842F4804202E09A6822F007029A6097
:10265000B3E78A684D689C68C9682A4324F47F44BC
:1026600042EA012222439A609A6842F07702EEE73A
:102670004C68CE68196A1D6A21F00A0125F001052F
:102680001D629A69214322F0F00242EA06129A6121
:1026900019629A6822F0700242F05702D7E74C683C
:1026A000CE68196A1D6A21F00A0125F001051D6234
:1026B0009A69214322F0F00242EA06129A611962F5
:1026C0009A6822F0700242F04702C0E79A6822F04E
:1026D000700242F00702BAE79A6822F0700242F0F4
:1026E0001702B4E79A6822F0700242F02702AEE7C0
:1026F0007047704770477047036810B51A69044601
:1027000091070ED5DA6892070BD56FF002021A61B5
:1027100001229B6902779B0777D0FFF7EAFF00232E
:10272000237723681A69500710D5DA6851070DD549
:102730006FF004021A6102229B69227713F4407F32
:10274000204668D0FFF7D5FF0023237723681A6956
:1027500012070FD5DA6810070CD56FF008021A615E
:102760000422DB692277990720465AD0FFF7C1FF80
:102770000023237723681A69D20610D5DA68D006B9
:102780000DD56FF010021A610822DB69227713F46D
:10279000407F20464BD0FFF7ACFF00232377236810
:1027A0001A69D10708D5DA68D20705D56FF001029A
:1027B00020461A6100F044FB23681A69100608D508
:1027C000DA68110605D56FF0800220461A6100F024
:1027D000AAF823681A69520608D5DA68500605D5A2
:1027E0006FF0400220461A61FFF785FF23681A69DF
:1027F000910622D5DA6892061FD56FF02002204696
:10280000BDE810401A6100F08DB8FFF771FF204657
:10281000FFF770FF83E7FFF76BFF2046FFF76AFFC4
:1028200092E7FFF765FF2046FFF764FFA0E7FFF799
:102830005FFF2046FFF75EFFAFE710BD1A4A03684F
:1028400090420AD0B0F1804F07D0A2F59432904266
:1028500003D002F58062904215D14A6823F07003DC
:102860001343114A90420AD0B0F1804F07D0A2F52D
:102870009432904203D002F58062904203D1CA683C
:1028800023F4407313434A6923F080031343036026
:102890008B68C3620B688362034B984204BF0B6969
:1028A0000363012343617047002C014010B50446C7
:1028B000A0B190F83D3003F0FF021BB980F83C2036
:1028C00000F0DAFD0223206884F83D30211DFFF777
:1028D000B5FF0123002084F83D3010BD012010BD5C
:1028E00090F83C3010B5012B4FF0020318D080F85F
:1028F0003D3003680C685A68496822F070025A60DB
:102900005A6822435A609A6822F080029A609A6854
:102910000A439A60012380F83D30002380F83C3060
:10292000184610BD704770470368DA6822F4907249
:10293000DA605A6922F001025A61202380F83A30A5
:10294000704700002DE9F0470568C2682B690169EE
:1029500023F4405313432B618368EA680B434169B6
:1029600022F4B05222F00C020B431343EB606B696C
:10297000826923F4407313436B61404B81469D424F
:102980004FF0190446D1FFF767FD04FB00F3D9F8B7
:1029900004604FF06408B600B3FBF6F3B3FBF8F342
:1029A0001E01FFF759FD6043D9F804309B00B0FBCE
:1029B000F3F7FFF751FD6043D9F804309B00B0FBFB
:1029C000F3F3B3FBF8F308FB13731B013233B3FBD0
:1029D000F8F303F0F007FFF73FFD6043D9F8042058
:1029E0009200B0FBF2FAFFF737FD6043D9F80430EC
:1029F0009B00B0FBF3F3B3FBF8F308FB13A31B013D
:102A00003233B3FBF8F303F00F033B433344AB60C3
:102A1000BDE8F087FFF710FD04FB00F3D9F8046070
:102A20004FF06408B600B3FBF6F3B3FBF8F31E01F6
:102A3000FFF702FD6043D9F804309B00B0FBF3F7C9
:102A4000FFF7FAFC6043D9F804309B00B0FBF3F3C6
:102A5000B3FBF8F308FB13731B013233B3FBF8F33A
:102A600003F0F007FFF7E8FC6043D9F80420920078
:102A7000B0FBF2FAFFF7E0FCB7E700BF0038014017
:102A8000F8B504460E4617461D4621680B6836EA1F
:102A9000030301D10020F8BD6B1CF7D095B9236862
:102AA0000320DA6822F4D072DA605A6922F0010257
:102AB0005A61202384F8393084F83A30002384F8AE
:102AC0003830F8BDFEF792F9C01B8542DDD2E6E74B
:102AD00010B5044640B390F8393003F0FF021BB93B
:102AE00080F8382000F0FCFC2423226884F8393078
:102AF000D368204623F40053D360FFF723FF2368F5
:102B000000201A6922F490421A615A6922F02A02BE
:102B10005A61DA6842F40052DA602023E06384F8F4
:102B2000393084F83A3010BD012010BD2DE9F04154
:102B30001F4690F839300446202B0D4690464ED162
:102B4000002949D0002A47D090F83830012B46D0D0
:102B5000012380F838300023C363212380F8393003
:102B6000FEF744F90646A4F82480A4F82680E38CF6
:102B70009BB26BB93B46324640212046FFF780FFAF
:102B8000A8B9202384F8380084F83930BDE8F081F2
:102B9000E38C3246013B9BB2E384A3688021B3F50A
:102BA000805F20463B460ED1FFF76AFF10B103203D
:102BB000BDE8F0812B882268C3F3080353602369C2
:102BC00043B90235D3E7FFF75BFF0028EFD1236855
:102BD0002A785A600135CAE70120BDE8F081022059
:102BE000BDE8F08190F83A30202B20D1E9B1E2B174
:102BF00090F83830012B1AD0C2858285002322221A
:102C0000C36380F83A2002688162D16880F8383066
:102C100041F48071D1605169184641F00101516160
:102C2000D16841F02001D160704701207047022037
:102C30007047704790F83A3010B5222B36D1836830
:102C40000169B3F5805F0268836A23D15268E9B9EC
:102C5000C2F3080223F8022B8362C48D013CA4B2A4
:102C6000C4858CB90368DA6822F02002DA60DA6879
:102C700022F48072DA605A6922F001025A6120233C
:102C800080F83A3000F0BEF8002010BDD2B223F830
:102C9000012BE1E721B9591C526881621A70DCE707
:102CA0005268591C816202F07F02F7E7022010BDD2
:102CB00070470000036870B51A6804461607D968A3
:102CC0005D6907D196065AD58D0658D5BDE8704086
:102CD000FFF7B0BF15F0010502D111F4907F4ED07F
:102CE000D30705D5CE0542BFE36B43F00103E36391
:102CF000500704D51DB1E36B43F00203E363930770
:102D000004D51DB1E36B43F00403E363160704D558
:102D10001DB1E36B43F00803E363E36B002B66D064
:102D2000950604D5880602D52046FFF783FF236861
:102D300020465D69E26B110702D415F040051AD0F8
:102D4000FFF7F2FD23685A69520610D55A69606B85
:102D500022F040025A6150B1254B4363FEF770FBED
:102D6000002844D0606BBDE87040436B1847204694
:102D7000FFF79EFF70BDFFF79BFFE56370BD160672
:102D800027D50D0625D594F83920212A2FD1A26800
:102D9000B2F5805F226A17D11188C1F3080159602A
:102DA000216979B902322262E28C013A92B2E2845C
:102DB000EAB9DA6822F08002DA60DA6842F04002AA
:102DC000DA6070BD0132EEE7511C216212785A6060
:102DD000EAE750060BD54A0609D5DA68204622F004
:102DE0004002DA60202384F83930FFF722FF70BDFB
:102DF000F52D000808B50023406AC385C384FFF79A
:102E000057FF08BD0368084A934204D101220749CD
:102E10000748FFF7E7BE074A934203D1012206495C
:102E20000648F6E7704700BF00440040470700200F
:102E30009C080020004800401408002004070020DF
:102E40002DE9F043036887B0B3F1804F07D14FF409
:102E500080515D4807B0BDE8F043FEF7B2BC5B4A65
:102E6000934240F09B804FF400515948FEF7A9FC73
:102E7000584A1378DBB2591CC9B2052B117040F0C7
:102E80008D800023544C1370E3234FF47A77264649
:102E9000524D237000970123324680212846FEF7C9
:102EA000FFFD0028F6D1322000F0C7FB4FF47A77FF
:102EB0004B4D4A4E00970623494A80213046FEF783
:102EC000C5FE0028F6D128786B784FF47A7943EA6A
:102ED0000020FDF797FA34A3D3E90023FDF7F8FAB1
:102EE00033A3D3E90023FDF73FF9E52306460F4658
:102EF0002370DFF8E480394CCDF80090012342467E
:102F000080212046FEF7CCFD0028F5D1102000F0EE
:102F100094FB4FF47A79DFF8C880304CCDF80090FC
:102F20000323424680212046FEF790FE0028F5D17B
:102F300028782C4B6C785FFA80F81D681868FDF7CC
:102F400051FA1DA3D3E90023FDF7C2FAE4B2CDE99B
:102F5000040144EA082080F002000295FDF752FACD
:102F600017A3D3E90023FDF7B3FA00221E4BFDF7A8
:102F7000FBF83246CDE900013B461C491C4800F0F5
:102F8000B9FB1B48FDF7E4F84FF47A7382B2184995
:102F9000184807B0BDE8F043FFF7C8BD07B0BDE86B
:102FA000F08300BFAFF30080992842EA76F6653FD0
:102FB000CDCCCCCCCC6C47403CE20CD5FFFF983F4D
:102FC00025CE8AA8893E5F3F000C014000040040E6
:102FD0000010014090060020A00700204C070020B0
:102FE00044070020DC080020000018402865000885
:102FF000D00600209C0800204FF4803310B594B018
:1030000001220B930021022412934FF4E0130AA82B
:103010000A920C910E9211941393FEF799FF00B14E
:10302000FEE70F2305934FF4806307900990214634
:1030300005A806940893FFF755F900B1FEE74FF491
:10304000004301A801940393FFF716FA044600B168
:10305000FEE7FFF7EBF94FF47A73B0FBF3F0FEF7FE
:1030600055F90420FEF768F9224621464FF0FF305B
:10307000FEF70CF914B010BD80B5954C8CB0FDF77F
:103080009BFEFFF7B9FFA369002243F01003A36181
:10309000A3694FF4C04103F010030293029BA3699C
:1030A0008C4843F02003A361A369012603F02003A9
:1030B0000393039BA369022743F00403A361A3695D
:1030C0004FF4805503F004030493049BA36943F079
:1030D0000803A361A36903F008030593059BFEF7AA
:1030E0006BFB00224FF480517B48FEF765FB4FF4E9
:1030F000C04308A97748089309960B97FEF77CFA16
:1031000008A97548089509960B97FEF775FA0022ED
:10311000636911463343636163690B203340019354
:10312000019BFEF7B3F80B20FEF7E4F86B4C6C4BF9
:103130004FF46022236000232046A360E6606361B1
:10314000E26163602661FEF70FF800B1FEE7072336
:10315000089008A9204609960A93FDF799FE00B148
:10316000FEE74FF4E13E0C245E4B5F4A9860D86066
:1031700018619861D861184683E804405C61FFF7E4
:10318000A7FC00B1FEE74FF41657584B584A986019
:10319000D86018619861D861184683E884005C6142
:1031A000FFF796FC00B1FEE7524B534A534ED860EE
:1031B00083E844004FF4804258619861D8611862F6
:1031C00018469A601A61FEF7FDFB00B1FEE74FF06A
:1031D000804341F61F464A4C84E8480042F20F7390
:1031E000A0602061A0612046E360FFF75FFB00B1B3
:1031F000FEE708A920460895FFF7C1F900B1FEE7F0
:103200000690079006A92046FFF76AFB00B1FEE78B
:103210003C4C3D4BA06084E8480041F2873320617C
:10322000A0612046E360FFF741FB00B1FEE708A97B
:1032300020460895FFF7A3F900B1FEE7002306A991
:10324000304806930793FFF74BFB044600B1FEE7B7
:10325000024601462720FEF719F82720FEF74AF814
:10326000224621462620FEF711F82620FEF742F8D6
:1032700040F6B830FDF7C0FD244D1A4C0122294616
:103280002046FFF7AFFC0028F8D1214D174C012252
:1032900029462046FFF7A6FC0028F8D101221D4947
:1032A0000E48FDF7B1FE164C2046FFF75DF90028E9
:1032B000FAD1144C2046FFF757F90028FAD14FF401
:1032C0007A73072214490748FFF730FCFEE700BF76
:1032D0000010024000100140000C0140E4070020F3
:1032E000002401409C080020004400400407002006
:1032F000004800404C07002000540040801A06009F
:103300005C080020A40700200004004047070020BC
:1033100014080020DC0800204B650008FEE70000D0
:10332000214B07B59A69032042F001029A619B691B
:1033300003F001030193019BFDF796FF00226FF05C
:103340000B001146FDF7A2FF00226FF00A001146A4
:10335000FDF79CFF00226FF009001146FDF796FF74
:1033600000226FF004001146FDF790FF00226FF07D
:1033700003001146FDF78AFF00226FF0010011469D
:10338000FDF784FF00224FF0FF301146FDF77EFF6E
:10339000064B5A6822F0E0625A605A6842F0806236
:1033A0005A6003B05DF804FB0010024000000140C9
:1033B00030B502681A4B87B09A4205462DD103F505
:1033C0006C439A69174842F400729A619B6902A99A
:1033D00003F400730193019B0123029303230393DE
:1033E000FEF70AF98022104C104BE2604FF4807215
:1033F00022614FF480622360626100232022204614
:103400006360A360A261E361FDF7A8FF18B17521B5
:103410000748FFF783FF2C62656207B030BD00BF2D
:103420000024014000080140180800200800024064
:10343000536500087FB502680C4B9A4213D1C02334
:10344000029312230393032302A909480593FEF76D
:10345000D3F8084BDA6942F40012DA61DB6903F44D
:1034600000130193019B07B05DF804FB005400407A
:10347000000C014000100240036807B5B3F1804F13
:1034800015D103F50433DA691C2042F00102DA6138
:103490000022DB69114603F001030093009BFDF756
:1034A000F5FE1C20FDF726FF03B05DF804FB0A4A79
:1034B0009342F9D1094B1D20DA6942F00202DA6128
:1034C0000022DB69114603F002030193019BFDF723
:1034D000DDFE1D20E6E700BF0004004000100240B2
:1034E0007FB50368214A93421FD1214B02A9DA69B3
:1034F000204842F40032DA61DB6903F400330093C0
:10350000009B042302930223039303230593FEF7F6
:1035100073F808230293002316480393049302A927
:10352000FEF76AF807B05DF804FB134A9342F9D13D
:103530000F4B02A9DA69114842F48022DA61DB6993
:1035400003F480230193019B4FF4806302930223D1
:10355000039303230593FEF74FF84FF400630293A0
:10356000002302A9039304930448D9E700440040D0
:10357000001002400008014000480040000C0140DB
:103580007047FEE7FEE7FEE7FEE7704770477047CB
:1035900008B5FDF723FCBDE80840FDF7DABE0000E2
:1035A0000148FDF795BF00BF180800200148FFF74C
:1035B000A3B800BF5C0800200148FFF79DB800BF1A
:1035C000A40700200148FFF775BB00BF9C0800203E
:1035D0000148FFF76FBB00BF040700200F4B1A68BC
:1035E00042F001021A6059680D4A0A405A601A688E
:1035F00022F0847222F480321A601A6822F4802247
:103600001A605A6822F4FE025A604FF41F029A6050
:103610004FF00062034B9A60704700BF00100240F9
:103620000000FFF800ED00E000B97047072300BF7D
:10363000013BFCD1013880B2F6E7024608B502B979
:1036400008BD4FF47A70FFF7EFFF013A92B2F6E748
:10365000002103E00B4B5B58435004310A480B4BED
:1036600042189A42F6D30A4A02E0002342F8043B89
:10367000084B9A42F9D3FFF7B1FF00F00FF8FFF7BC
:10368000FBFC704700680008000000207406002062
:1036900074060020F0080020FEE7000070B5002549
:1036A0000C4E0D4CA41BA410A54209D102F028FF1A
:1036B00000250A4E0A4CA41BA410A54205D170BDDA
:1036C00056F8253098470135EEE756F825309847EB
:1036D0000135F2E7F8670008F8670008F8670008A6
:1036E000FC67000803460244934200D1704703F888
:1036F000011BF9E70EB44FF4027100B59CB0ADF8B0
:1037000014106FF00041049107914FF6FF711DAB4B
:1037100002900690084853F8042BADF81610006884
:1037200002A9019300F00AF80022029B1A701CB053
:103730005DF804EB03B07047040000202DE9F04F62
:10374000BFB0894615461F46824601F029FE036830
:1037500018461193FCF7FCFCB9F80C300A901B06D4
:1037600018D5D9F81030ABB94021504601F02EFEE3
:10377000C9F80000C9F8100048B90C23CAF8003095
:103780004FF0FF330B930B983FB0BDE8F08F402311
:10379000C9F8143000232EAC219423932293099569
:1037A00007930D930E93159314930B931293139306
:1037B000099D2B4613F8012B12B1252A40F0838076
:1037C000099BEE1A0DD084E84800239B33442393D1
:1037D000229B0133072B229377DC08340B9B334465
:1037E0000B932B78002B00F025870023691C1A46C9
:1037F0004FF0FF3B1D460A208DF867300C934E1C9E
:1038000009780996069106992039582900F21484FE
:10381000DFE811F0A50012041204AA001204120439
:103820001204120412041204AD0065001204B50063
:10383000B8001204D500D800D800D800D800D800AD
:10384000D800D800D800D8001204120412041204C0
:103850001204120412041204120412040C012201B4
:10386000120422011204120412041204EB001204C6
:1038700012043C0312041204120412041204A403DE
:103880001204120485001204120412041204120419
:1038900012041204120412041204FE006B0022012E
:1038A00022012201EE006B0012041204F100120446
:1038B0001E033E037203F800120483031204A603DE
:1038C00012041204BE031D4673E721AA494650465E
:1038D00002F090FA002840F08E862EAC7EE701239D
:1038E0002B2209998BE70F46FBE70BB18DF8672078
:1038F000AE0640F1A180073727F0070707F108035C
:103900000893D7E90067002E77F1000305DA2D232D
:10391000764267EB47078DF867300123C7E20BB1AA
:103920008DF86720A04B1593AB0640F1368307371F
:1039300027F0070707F108030893D7E90067E807AE
:103940000BD556EA070308D030238DF868309DF870
:10395000183045F002058DF869300223A4E2002AF0
:10396000BFD101232022BCE745F00105B9E73E683D
:10397000391D002E0C96B6DA0F4676420C9645F0AD
:103980000405AEE709994E1C09782A29069110D042
:103990004FF0000B09960699303909293FF633AFED
:1039A00000FB0B1B09990E4616F8011B06910996A0
:1039B000F1E73968099641EAE17B043791E745F080
:1039C00080058EE700210C9106990C9E303900FB92
:1039D00006110C9109990E4616F8011B06910699DD
:1039E000099630390929EFD90DE745F0080578E740
:1039F00045F0400575E7099909786C2905D10999C1
:103A00000131099145F020056BE745F0100568E7A5
:103A100000263B1D08933B688DF867608DF8903059
:103A20004FF0010B37460DF190081CE10BB18DF8FA
:103A3000672045F010055BE715F0100F07F1040350
:103A400003D03E680893F7175DE73E6815F0400F16
:103A5000089318BF36B2F6E70BB18DF86720073729
:103A600027F0070707F1080308933B684FF0FF3280
:103A70000D937B680D9F0E930E9B384623F00046F6
:103A800031464A4BFCF7BEFF002840F0DC854FF082
:103A9000FF32464B38463146FCF796FF002840F08F
:103AA000D285129A139B0D980E99FCF783FF10B1E3
:103AB0002D238DF867303E4B3E4A06994FF0030B9D
:103AC0004729CCBF90469846002625F0800537460A
:103AD000C9E0BBF1FF3F26D0069B23F02003472B14
:103AE00004D1BBF1000F08BF4FF0010B45F4807308
:103AF00017930E9B1F1E0D9BA8BF10970F93BDBF62
:103B00003B4603F1004310930023B8BF2D231693C7
:103B1000069B23F02007462F08D0452F42D10BF1FA
:103B20000106022304E04FF0060BDFE75E460323A5
:103B30001FAA04921CAA03921BAA02928DE84800B5
:103B40000F9A109B504600F057FE472F804602D137
:103B5000E80740F1858508EB0603462F079311D14E
:103B600098F80030302B09D1129A139B0F981099B6
:103B7000FCF716FF10B9C6F101061B96079A1B9BAE
:103B80001A440792129A139B0F981099FCF708FF9A
:103B900090B930221F9B079999420FD9591C1F9148
:103BA0001A70F7E75E46BCE796650008FFFFEF7FF7
:103BB000866500088A650008079B1F931F9B472F97
:103BC000A3EB0803079340F000811B9BD91C02DB89
:103BD0009B4580F22681069B023B06931B9A9DF82B
:103BE0001810531E002BA8BF2B221B93BCBFC2F181
:103BF00001032D22092B8DF874108DF8752040F3E8
:103C000000810A260DF1830293FBF6F006FB1033C8
:103C1000092803F1300302F8013C02F1FF310346A9
:103C200000F3E880303301F8013C023A0DF17603ED
:103C30000DF1830082421946C0F0DE80079A1DAB69
:103C4000CB1A012A149303EB020B02DC15F00107D7
:103C500002D000270A9B9B44169B13B12D238DF89D
:103C600067300026179D5E453346B8BF5B460F930D
:103C70009DF8673013B10F9B01330F9315F00203CA
:103C800016931EBF0F9B02330F9315F084031793F7
:103C900018D10C9B0F9A9B1A002B109312DD109BCE
:103CA000102BAB4B236000F3D981109B109A6360FB
:103CB000239B13442393229B0133072B229300F36E
:103CC000E68108349DF8673073B10DF16703236016
:103CD00001236360239B01332393229B0133072B32
:103CE000229300F3DE810834169B6BB11AAB23607C
:103CF00002236360239B02332393229B0133072B10
:103D0000229300F3D8810834179B802B18D10C9B89
:103D10000F9A9B1A002B109312DD109B102B8D4BCA
:103D2000236000F3D281109B109A6360239B13449D
:103D30002393229B0133072B229300F3DF81083466
:103D4000A6EB0B06002E0FDD824B102E236000F336
:103D5000DF81229B239801336660072B064423965C
:103D6000229300F3EC810834EB0500F1F281239BF0
:103D700084E800095B442393229B0133072B2293A1
:103D800040F3198421AA4946504602F033F800282E
:103D900040F031842EAC6B0700F110840B9B0C9A21
:103DA0000F998A42ACBF9B185B180B93239B3BB1C6
:103DB00021AA4946504602F01DF8002840F01B8415
:103DC0000023089F22932EACF2E4069B652B7FF71D
:103DD00005AF069B662B24D11B9B002B19DDBBF185
:103DE000000F01D1EA0702D50A9A13445B441B9FD6
:103DF0009B4631E70A4607E712F8011B03F8011B4F
:103E000018E7302213448DF876208DF877301EA9FC
:103E100014E7BBF1000F01D1EB0715D50A9B013365
:103E2000E4E71B9A079B9A4206DBEF070ED50A9B35
:103E3000134467220692DAE7079B0A99002A0B448B
:103E4000F7DCC2F10102F3E70123D0E71346F0E704
:103E50000BB18DF8672015F0200F07F1040308D08F
:103E60000B993A68CE1708463146C2E900011F4651
:103E70009EE4EE0603D53A680B991160F7E76806F1
:103E8000F9D53A68BDF82C101180F0E745F010051F
:103E900015F0200322D0073727F0070707F10803A2
:103EA0000893D7E90067002300228DF86720BBF153
:103EB000FF3F00F0DB8325F080020F9256EA0702F5
:103EC00040F0D983BBF1000F00F0AA80012B76D01F
:103ED000022B00F0918000260027D2E33A1D15F056
:103EE0001001089202D03E680027DDE715F040037C
:103EF000F9D03E880027D6E73B1D0893302378226F
:103F00008DF86830144B3E681593002745F0020584
:103F10008DF8692002230692C6E700263B1DBBF1FF
:103F2000FF3F0893D7F800808DF867600AD05A46A3
:103F30003146404601F056FC002800F08D80A0EB91
:103F4000080BC4E54046FCF703F98346BFE500BF14
:103F5000BA650008CA650008A765000845F01005A5
:103F6000A90609D5073727F0070707F108030893C3
:103F7000D7E90067012397E73B1D15F0100F089361
:103F800001D03E6802E06A06FBD53E880027F1E7D3
:103F90000BB18DF86720A34BC5E43B1D15F0100F46
:103FA000089301D03E6802E06E06FBD53E880027EC
:103FB000C5E4434666E3002F08BF0A2E05D230361B
:103FC0000DF1F80808F8416D77E30DF1B8083046B7
:103FD00039460A220023FCF753FD303208F8012D40
:103FE0000023304639460A22FCF74AFD06460F46B2
:103FF00056EA0703EBD160E3002600270DF1B8086D
:10400000159A06F00F03D35C3A0908F8013D33090D
:1040100043EA07731E46174656EA0703F0D14CE3FE
:104020003BB9EA0705D530230DF1F80808F8413D02
:1040300043E30DF1B80840E30BB18DF86720069B10
:10404000002B00F0F78200269DF818308DF867608D
:104050008DF890300897E3E4064638E51023636056
:10406000239B10332393229B0133072B229304DCE1
:104070000834109B103B109311E621AA4946504684
:1040800001F0B8FE002840F0B6822EACF1E721AA7C
:104090004946504601F0AEFE002840F0AC822EACFE
:1040A00010E621AA4946504601F0A4FE002840F03F
:1040B000A2822EAC18E621AA4946504601F09AFE8B
:1040C000002840F098822EAC1EE610236360239BEC
:1040D00010332393229B0133072B229304DC0834F3
:1040E000109B103B109318E621AA4946504601F058
:1040F00081FE002840F07F822EACF1E721AA4946DC
:10410000504601F077FE002840F075822EAC17E68D
:1041100010236360239B10332393229B0133072BCF
:10412000229302DC0834103E0EE621AA494650468E
:1041300001F060FE002840F05E822EACF3E721AA79
:104140004946504601F056FE002840F054822EACFD
:104150000AE6069B652B40F3A981129A139B0D98E2
:104160000E99FCF71DFC002862D02F4B2360012321
:104170006360239B01332393229B0133072B2293FC
:1041800025DC08341B9B079A934202DBEE077FF580
:1041900002AE119B0A9A23600A9B6360239B13441F
:1041A0002393229B0133072B22931ADC0834079BAD
:1041B0005E1E002E7FF7EFAD4FF010081B4F102E44
:1041C000276018DC6660239B1E442396D4E521AA51
:1041D0004946504601F00EFE002840F00C822EACFD
:1041E000D0E721AA4946504601F004FE002840F0DD
:1041F00002822EACDBE7239BC4F8048010332393A8
:10420000229B0133072B229302DC0834103ED6E7B1
:1042100021AA4946504601F0EDFD002840F0EB810F
:104220002EACF3E7A7650008B8650008CA6500086A
:104230001B9B002B7ADC9B4B236001236360239B39
:1042400001332393229B0133072B229344DC083450
:104250001B9B23B9079B13B9E8077FF59CAD119B06
:104260000A9A23600A9B6360239B13442393229B37
:104270000133072B229339DC04F108031B9E002E27
:1042800019DA1024884F7642102E1F6038DC239AEA
:104290005E601644229A23960132072A03F108032E
:1042A000229208DD21AA4946504601F0A3FD0028CC
:1042B00040F0A1812EAB079A07995A60239AC3F860
:1042C00000800A442392229A0132072A22923FF761
:1042D00059AD03F108045EE521AA4946504601F0B4
:1042E00089FD002840F087812EACB1E721AA49461C
:1042F000504601F07FFD002840F07D812EABBDE7E8
:10430000239A5C6010322392229A0132072A229269
:1043100002DC0833103EB7E721AA4946504601F0B7
:1043200069FD002840F067812EABF3E7079BBB4295
:10433000A8BF3B46002B1E460BDD6360239BC4F8E1
:10434000008033442393229B0133072B22935FDCAD
:104350000834002EB4BF3E46BE1B002E0FDDDFF832
:1043600048B1102EC4F800B05CDC239B66601E448C
:10437000229B23960133072B22936ADC08341B9B74
:10438000079A934201DBE9070DD5119B0A9A236036
:104390000A9B6360239B13442393229B0133072BC7
:1043A000229360DC0834079B079ADE1B1B9BD31A01
:1043B0009E42A8BF1E46002E0BDD239B474433447C
:1043C0002393229B27600133072B6660229354DCE2
:1043D00008341B9B079A002EA2EB0303B4BF1E46B2
:1043E0009E1B002E7FF7D7AC4FF010082E4F102EDB
:1043F00027607FF7E7AE239BC4F804801033239334
:10440000229B0133072B229341DC0834103EEEE758
:1044100021AA4946504601F0EDFC002840F0EB800F
:104420002EAC96E710236360239B10332393229BCB
:104430000133072B229302DC0834103E91E721AAB6
:104440004946504601F0D6FC002840F0D4802EACFE
:10445000F3E721AA4946504601F0CCFC002840F081
:10446000CA802EAC8BE721AA4946504601F0C2FC17
:10447000002840F0C0802EAC95E721AA494650465E
:1044800001F0B8FC002840F0B6802EACA1E721AACC
:104490004946504601F0AEFC002840F0AC802EACFE
:1044A000B4E700BFB8650008CA650008079B012B88
:1044B00001DCEA0776D501236360239BC4F8008002
:1044C00001332393229B0133072B229336DC0834DC
:1044D000119B0A9A23600A9B6360239B13442393D6
:1044E000229B0133072B229331DC0834139B129A51
:1044F0000D980E99FCF754FA079B5E1E00282FD1E9
:1045000008F1010384E84800239B079A013B134408
:104510002393229B0133072B22934ADD21AA49468C
:10452000504601F067FC002865D12EAC1DAB23601E
:10453000149B149A6360239B13441CE421AA4946EC
:10454000504601F057FC002855D12EACC0E721AAF7
:104550004946504601F04EFC00284CD12EACC5E730
:10456000002EE3DD4FF01008584F102E276004DCBA
:10457000239B66601E442396CBE7239BC4F80480EC
:1045800010332393229B0133072B229302DC083440
:10459000103EEAE721AA4946504601F02BFC50BBE9
:1045A0002EACF5E701236360239BC4F80080013340
:1045B000AEE70834BAE70834FFF7EDBB0C9B0F9A5F
:1045C0009D1A002D7FF7EAAB1026414B102D23607A
:1045D0001BDC239B65601D44229B23950133072B25
:1045E00022937FF7DBAB21AA4946504601F002FC3B
:1045F00000283FF4D3ABB9F80C3013F0400F0B9BFD
:1046000018BF4FF0FF33FFF7BDB8239B6660103330
:104610002393229B0133072B229302DC0834103DA5
:10462000D3E721AA4946504601F0E4FB0028E2D135
:104630002EACF4E7239B002BDDD021AA494650463F
:1046400001F0D8FBD7E70D9A0E9B0D980E99FCF759
:10465000D9F900283FF43DAA1E4B1F4AFFF72DBA97
:104660001F9BA3EB08030793FFF7AFBA56EA0702B5
:104670000F953FF42BAC012B3FF49DAC022B3FF484
:10468000BDAC2EABF10841EA4771F80806F007020D
:1046900007460E46303256EA070103F1FF3803F8A9
:1046A000012C7FF486AC0F99C90706D5302A04D0B7
:1046B000302208F8012CA3F102082EAB5E460F9DB4
:1046C000A3EB080B0027FFF7CEBA00BFCA650008AE
:1046D000BA6500088E650008926500082DE9F74F5D
:1046E00003690C6980469C4200F38280013C01F121
:1046F000140700F1140657F8245056F82400013529
:10470000B0FBF5F54FEA840E06EB0E0307EB0E093E
:1047100001938DB34FF0000A3846B446D34650F8A3
:10472000042B93B205FB03A3120C4FEA134A05FBBB
:1047300002A29BB2ABEB0303BCF800B04FEA124AF3
:104740005B441FFA82FBDCF800208145CBEB124270
:1047500002EB23429BB243EA02434FEA224B4CF85E
:10476000043BDCD256F80E3033B9019B043B9E4229
:104770001A4631D3C8F81040404601F062FA0028CA
:1047800026DB30464FF0000E013557F8041BD0F8F9
:1047900000C08BB2AEEB03031FFA8CF213440A0C79
:1047A000C2EB1C4202EB23429BB243EA0243B945EF
:1047B0004FEA224E40F8043BE7D256F8242006EB9D
:1047C00084032AB9043B9E421A460BD3C8F8104012
:1047D000284603B0BDE8F08F1268043B002AC9D117
:1047E000013CC4E71268043B002AEFD1013CEAE730
:1047F0000020EEE7000000002DE9F04F466A95B07A
:104800000446219DCDE902233EB9102000F0D6FDDB
:104810006062466086600660C660636A196851B16E
:104820005A68012393404A608B60204601F034F8B7
:104830000022636A1A60039B002BB7BF0123002389
:104840002B60039BAEBF2B6023F000430393DDF886
:104850000C90AB4B33EA09031BD142F20F73209A41
:104860001360029B23B9C9F31300002800F083856D
:10487000229B53B9A34B21E0A34B06930833229A02
:104880001360069815B0BDE8F08F9E4B0693033376
:10489000F5E7DDE902670022002330463946FCF7E0
:1048A0007FF8804660B10123209A1360229B002B81
:1048B00000F05E85954B229A1360013B0693E0E77A
:1048C00012AB019313AB009332463B46204601F0F6
:1048D00031FAC9F30A558246002D7DD03046C7F320
:1048E000130343F07F5141F44011A5F2FF35CDF899
:1048F00040800022864BFBF737FC7BA3D3E90023E3
:10490000FBF7E6FD7AA3D3E90023FBF72FFC06466D
:1049100028460F46FBF776FD77A3D3E90023FBF784
:10492000D7FD02460B4630463946FBF71FFC0646CC
:104930000F46FCF77DF800228346002330463946B7
:10494000FCF738F858B15846FBF75CFD02460B46B9
:1049500030463946FCF724F808B90BF1FF3BBBF1B0
:10496000160F58D8DDE902236A4901EBCB01D1E9E2
:104970000001FCF73DF800284FD000230BF1FF3B6E
:104980000D93129B5D1B6B1E079343BF0023C5F164
:10499000010807934FF00008BBF1000F3FDB079BB6
:1049A000CDF830B05B440793002308931E9B092B7E
:1049B00000F2B480052BC4BF043B1E931E9BC8BFEE
:1049C0000026A3F10203D8BF0126032B00F2B28018
:1049D000DFE803F084862D78139B129D1D4405F2B9
:1049E0003243202B11DD029A05F21240C3F140033D
:1049F00022FA00F009FA03F31843FBF7F3FC012352
:104A0000A1F1F871013D109373E7C3F12000029BFF
:104A100003FA00F0F1E70123B2E70D90B1E7CBF123
:104A2000000308930023A8EB0B080C93BEE70123B7
:104A300009931F9B002B40F380809946049300222A
:104A40000421656A6A6001F114029A427AD96968A0
:104A5000204600F0EDFE636A28601B68B9F10E0F76
:104A6000069300F2F080002E00F0ED80DDE90223D5
:104A7000BBF1000FCDE90E2379DD264A0BF00F03C1
:104A80004FEA2B1602EBC303F006D3E90023CDE96E
:104A90000A235CD5DDE90E011F4B0325D3E908236A
:104AA000FBF740FECDE9020106F00F061A4F002E7B
:104AB0004FD1DDE90A23DDE90201FBF733FECDE941
:104AC00002016EE0012309931F9B5B4403F101097E
:104AD00004934B46012BB8BF0123B0E70023A7E79F
:104AE0000023F0E7AFF3008061436F63A787D23FF5
:104AF000B3C8608B288AC63FFB799F501344D33FCD
:104B00000000F07FE3650008DA650008B965000879
:104B10000000F83F10660008E86500080126002341
:104B200009961E934FF0FF330022049399461223F7
:104B30001F9284E701230993F4E701230493994624
:104B40001A46F5E76A68490001326A607BE7022588
:104B5000ACE7F10708D5DDE90A01D7E90023FBF747
:104B6000B7FCCDE90A010135761008379FE700F060
:104B7000A580DDE90E01CBF10006A24B06F00F0285
:104B800003EBC203D3E90023FBF7A2FC02250023B9
:104B9000CDE902019C4F3611002E40F08480002B9D
:104BA0008DD10D9B002B00F08B80DDE90223CDE938
:104BB0000A23DDE90A010022944BFBF7FBFE0028E3
:104BC0007ED0B9F1000F7BD0049B002B37DDDDE9EF
:104BD0000A0100228E4BFBF77BFCCDE90201049E0B
:104BE0000BF1FF3701352846FBF70CFCDDE902230A
:104BF000FBF76EFC874B0022FBF7B8FACDE90A0100
:104C00000B9BA3F150750B95002E5CD1DDE90201E1
:104C10000022814BFBF7A8FA0A9A2B46CDE9020144
:104C2000FBF7E6FE002840F0F782DDE902010A9A70
:104C300005F10043FBF7BEFE002840F0EB82DDE902
:104C40000E23CDE90223139B002BC0F25081BBF150
:104C50000E0F00F34C816B4B03EBCB03D3E9002326
:104C6000CDE904231F9B002B80F2DA80B9F1000FFD
:104C700000F3D68040F0CD82DDE904010022664BCE
:104C8000FBF726FCDDE90223FBF7A8FE4E464F4664
:104C9000002840F0A482069B069A5D1C31230BF18C
:104CA000010B13709FE2F20705D5D7E90023FBF74C
:104CB0000FFC01230135761008376DE7022570E7F8
:104CC0005F464E468FE7069A4E4B32441192099A40
:104CD000711E002A48D003EBC103D3E90023002052
:104CE0004E49FBF71FFDDDE90A23FBF73DFACDE94D
:104CF0000A01069DDDE90201FBF79AFE0646FBF775
:104D000081FB02460B46DDE90201FBF72DFADDE9E6
:104D10000A23303605F8016BCDE90201FBF74AFEA4
:104D2000002864D1DDE9022300203849FBF71CFA92
:104D3000DDE90A23FBF73EFE002840F0B980119B15
:104D40009D423FF47CAFDDE90A010022304BFBF7C6
:104D5000BFFB0022CDE90A01DDE902012C4BFBF784
:104D6000B7FBCDE90201C5E703EBC101D1E90001C1
:104D7000DDE90A23FBF7ACFBCDE90A01069DDDE97D
:104D80000201FBF755FE0646FBF73CFB02460B46CD
:104D9000DDE90201FBF7E8F93036119B05F8016BFC
:104DA000AB42CDE902014FF0000224D11B4BDDE9FB
:104DB0000A01FBF7DBF902460B46DDE90201FBF7CE
:104DC00017FE002874D1DDE90A2300201349FBF700
:104DD000CBF902460B46DDE90201FBF7EBFD0028AB
:104DE0003FF42DAF15F8013C6A1E302B01D0BB46B5
:104DF0004DE01546F6E7064BFBF76AFBCDE90201ED
:104E0000BDE700BF10660008E86500080000F03F3D
:104E10000000244000001C40000014400000E03F5F
:104E2000069DDDE90267DDE9042330463946FBF7DC
:104E300079FCFBF7FDFD8046FBF7E4FADDE904238E
:104E4000FBF746FB02460B4630463946FBF78CF92A
:104E500008F1300605F8016B069E0246AE1BB1450F
:104E60000B4637D1FBF782F906460F4602460B4642
:104E7000DDE90401FBF79EFDC8B9DDE90401324616
:104E80003B46FBF78DFD10B118F0010F0FD15146D5
:104E9000204600F001FD0023209A2B700BF1010346
:104EA0001360229B002B3FF4ECAC1D60E9E45F46ED
:104EB00015F8012C6B1E392A06D1069A9A4207D1A1
:104EC00030231370134601371A7801321A708EE7B7
:104ED0001D46EDE70022B54BFBF7FAFA002200234E
:104EE00006460F46FBF75CFD00289CD0CFE7099AE9
:104EF000002A00F029811E9A012A00F30E81109ADF
:104F0000002A00F0068103F233434546089E079AC3
:104F100001211A4420469844079200F05DFD07469F
:104F2000002D0BDD079B002B08DDAB42A8BF2B46F5
:104F3000079AA8EB0308ED1AD31A0793089BFBB155
:104F4000099B002B00F00481002E11DD394632460A
:104F5000204600F0D7FD524601460746204600F0A5
:104F600044FD51460A90204600F096FC0A9B9A4662
:104F7000089B9A1B04D05146204600F0C3FD824690
:104F80000121204600F028FD0C9B0646002B40F333
:104F9000E1801A460146204600F0B4FD1E9B0646FD
:104FA000012B40F3DA8000230893336906EB830377
:104FB000186900F0C3FCC0F12000079B184410F0F2
:104FC0001F0000F0F080C0F12003042B40F3E280CA
:104FD000079BC0F11C008044054403440793B8F1CB
:104FE000000F05DD51464246204600F0D9FD8246BD
:104FF000079B002B05DD31461A46204600F0D0FD08
:1050000006460D9B002B00F0D3803146504600F041
:1050100018FE002880F2CC80002351460A22204648
:1050200000F051FC099B0BF1FF3B8246002B00F086
:10503000A981002339460A22204600F044FC049B43
:105040000746002B03DC1E9B022B00F3B980002DCA
:1050500005DD39462A46204600F0A2FD0746089B9A
:10506000002B00F010817968204600F0E1FB054636
:105070003A6907F10C01023292000C3000F0C0FBDB
:1050800001222946204600F08BFD07970746029B28
:10509000DDF8188003F00103089331465046FFF70E
:1050A0001DFB0799054600F13009504600F0C9FD87
:1050B0003A4602903146204600F0DDFDC3680246C4
:1050C000002B40F0E28001460990504600F0B9FD07
:1050D0000346099A11462046099300F0DDFB099B1F
:1050E000002B40F0D4801E9A002A40F0D080089A0D
:1050F000002A40F0CC80B9F1390F00F0E880029B23
:10510000002B01DD05F1310908F1010588F8009057
:105110006BE0129BC3F13603F7E6089B09F1FF36FB
:10512000B342B7BF089B9E1BF21A0C9BBFBF0896E9
:105130009B180C930026B9F1000FB9BFA8EB090525
:10514000002345464B46E2E6089E4546099FE7E6B2
:10515000089A10E71E9B012B18DC029BB3B9039B36
:10516000C3F31303A3B9039B23F000431B0D1B05DB
:105170002BB1079B08F10108013307930123089322
:105180000C9B002B7FF411AF012016E70023F6E7FC
:10519000029BF4E73FF423AF079A1C331A44984468
:1051A0001D4413461AE70346F6E700BF00002440FB
:1051B000B9F1000F33DC1E9B022B30DDCDF81090CF
:1051C000049B63B931460522204600F07CFB014672
:1051D0000646504600F035FD00283FF75CAD1F9BAA
:1051E000069D6FEA030B002307933146204600F02B
:1051F00053FB002F3FF44BAE079B2BB1BB4203D0B8
:105200001946204600F048FB3946204600F044FB92
:105210003DE600263746E2E7BB4637463BE5099BBD
:10522000CDF81090002B7FF412AF069D314650460A
:10523000FFF754FA069B00F1300905F8019B049A28
:10524000EB1A9A4200F38180069B012AACBF9B189F
:10525000013398460023079351460122204600F06F
:105260009FFC3146824600F0ECFC002834DC02D181
:1052700019F0010F30D1454615F8013C6A1E302B5C
:10528000B3D11546F8E73846FFE6012322E7029A34
:10529000002A04DB28D11E9A32BB089A22BB002BBD
:1052A0007FF732AF51460122204600F079FC3146AB
:1052B000824600F0C6FC002805DC7FF425AF19F01B
:1052C000010F3FF421AFB9F1390F7FF41BAF392340
:1052D00008F1010808F8013C454615F8013C6A1E32
:1052E000392B3AD001333FE0002B08F1010505DDF1
:1052F000B9F1390FEBD009F1010907E7069B049AD0
:10530000EB1A9342A84605F8019CA5D0514600230C
:105310000A22204600F0D7FA079B8246BB424FF094
:105320000A024FF000030799204604D100F0CBFA9F
:1053300007900746B1E600F0C6FA002307900A225C
:105340003946204600F0BFFAF3E7514600230A220F
:10535000204600F0B8FA824668E7069B934205D1E2
:105360003123069A0BF1010B13703EE71546B4E7A3
:10537000094BFFF7A3BA229B002B7FF47DAA074BB2
:10538000FFF79CBA049B002B3FF74FAF1E9B022BED
:105390007FF74BAF14E700BFB8650008DA65000877
:1053A000044B1B68186A044B002808BF1846F030ED
:1053B000704700BF0400002008050020024B014692
:1053C000186800F003B800BF040000202DE9F74F73
:1053D00001F10B04162C814607D934F0070405D5DA
:1053E0000C23C9F80030002631E110248C42F7D399
:1053F000484600F011FAB4F5FC7F9B4D36D204F11B
:1054000008022A445668A2F108018E424FEAD403EA
:1054100002D1D668B24210D07368F268B16823F046
:105420000303CA60334491605A6842F001025A6033
:10543000484600F0F7F9083609E102338B4A2E6935
:10544000114696426DD0706820F00300071B0F2FA5
:1054500047DD331944F0010474606B612B61DA603D
:105460009A6047F001025A603750E1E7630A2AD098
:10547000042B12D8A30938335A1C05EBC202566814
:10548000A2F10800864206D0726822F00302111BC6
:105490000F291CDD013B0133D0E7142B01D85B330E
:1054A000EAE7542B02D8230B6E33E5E7B3F5AA7F66
:1054B00002D8E30B7733DFE740F25452934204D82B
:1054C000A30C7C33D8E73F23D6E77E23D4E700291B
:1054D000F16804DBB368D9608B60B318A4E70E46AB
:1054E000D0E7002F6A612A6105DB3044436843F04E
:1054F000010343609CE7B0F5007F44D20122C0085D
:10550000871002FA07F76A6801303A436A6055F873
:10551000307005EBC002083AF260B76045F83060C1
:10552000FE6001209A1000FA02F26868824200F2DE
:105530009F80024206D123F003035200024203F18E
:105540000403FAD005EBC30CE0469E46D8F80C6085
:10555000464553D10EF1010E1EF0030F08F1080865
:10556000F4D1980779D16B6823EA02036B6068680D
:10557000520082427CD8002A7AD073460242E1D19E
:1055800004335200FAE7420A042A15D88209383255
:10559000571C55F8377005EBC20EBE4526D10120C9
:1055A000921000FA02F2686810436860C6F80CE0D6
:1055B000B760CEF80860B3E7142A01D85B32E7E79A
:1055C000542A02D8020B6E32E2E7B2F5AA7F02D863
:1055D000C20B7732DCE740F25457BA429ABF820CD2
:1055E0007C327E22D4E7BF68BE4504D07A6822F0C0
:1055F00003029042F7D3D7F80CE0D7E77068F7685A
:1056000020F00300A0EB040ABAF10F0F10DDB2681E
:10561000331944F001047460D760BA604AF00102A3
:105620006B612B61D96099605A6046F800A0FFE673
:10563000BAF1000F0FDB3044436843F001034360CD
:1056400056F8083F4846DF60BB6000F0EBF8304694
:1056500003B0BDE8F08F3E467AE75CF80809013BED
:1056600084453FF47EAF82E7F8000020000100206F
:10567000D5F808B0DBF8046026F00306B44203D87E
:10568000331B0F2B00F395804F4A0BEB0603176873
:105690004E4A103711682744013105D04C49013971
:1056A0000F44013149420F40394648460192009368
:1056B00000F090FBB0F1FF3F804655D0009B019A6F
:1056C000834201D9AB454FD14248434501688246E8
:1056D00007EB010EC0F800E03F4913D10B4211D196
:1056E000AB683E4446F001065E603C4ADAF80030A2
:1056F00011688B4288BF1360394A11688B4288BF9A
:10570000136031E0106801301BBFA8EB0303734442
:10571000C2F80080CAF8003018F007001CBFC0F1C2
:10572000080080442A4B474418440F40C71B3946A1
:10573000484600F04FFB431C04BF40460027DAF800
:105740000030A0EB08003B44074447F00107AB459D
:10575000C5F80880CAF80030C8F80470C5D00F2E0C
:1057600010D80123C8F80430AB685A6822F003024D
:105770009442A2EB040301D80F2B1ADC484600F038
:1057800051F830E60522DBF804300C3E26F007061F
:1057900003F001033343CBF804300F2E0BEB060369
:1057A0005A609A60A1D90BF10801484600F020FC2C
:1057B0009BE7AE6844F0010243F001033444726099
:1057C000AC60636034E600BFC40600200005002022
:1057D0000010000094060020FF0F0000BC0600200F
:1057E000C006002010B5C9B202449042034601D160
:1057F000002010BD1C7801308C42F6D1184610BD37
:1058000010B5431E0A44914200D110BD11F8014B5E
:1058100003F8014FF7E70000014800F0A5BC00BF06
:10582000E4080020014800F0A0BC00BFE40800200C
:1058300070B5456A04460E463DB91020FFF7BEFD1F
:105840006062456085600560C560656AEB6883B12C
:10585000636ADB6853F82600B8B9012101FA06F53E
:105860006A1D9200204600F03FFB60B146608560F3
:105870000EE021220421204600F036FB636AE86036
:10588000DB68002BE4D1002070BD026843F82620BD
:1058900000230361C36070BD70B5446A06460D46BF
:1058A0003CB91020FFF78AFD706244608460046098
:1058B000C4603DB1736A6A68DB6853F822102960DE
:1058C00043F8225070BD2DE9F0411F4606460C46B4
:1058D00000230D6901F1140EDEF80000013381B2DE
:1058E00002FB0171000C0F0C02FB007089B201EB8E
:1058F00000419D424FEA10474EF8041BECDCD7B143
:10590000A3689D4212DB616830460131FFF790FFCA
:105910008046226904F10C01023292000C30FFF73C
:105920006FFF21463046FFF7B7FF444604EB85037F
:1059300001355F6125612046BDE8F081020C12044B
:105940000346B2B90304102013F07F4F04BF1B02BB
:10595000083013F0704F04BF1B01043013F0404FA8
:1059600004BF9B000230002B06DB5B0003D5013037
:1059700070470020E8E7202070470368014613F0D5
:1059800007020BD0DA0723D4980749BF5B089B08AE
:1059900001200B605CBF0B600220704798B2A8B971
:1059A00010201B0C13F0FF0F04BF1B0A08301A074E
:1059B00004BF1B0904309A0704BF9B080230DA07B2
:1059C00002D45B0806D001300B6070471046E9E74F
:1059D000002070472020704710B50C460121FFF7CA
:1059E00027FF01224461026110BD2DE9F74F1446E3
:1059F0000A69236989469A42BEBF0B46A1461C46E6
:105A0000D9F81070D4F810A0D9F80830D9F80410DB
:105A100007EB0A069E42C8BF0131FFF709FF00F1FC
:105A200014052B46002205EB8608434516D304F1E6
:105A3000140209F1140102EB8A0301EB87070193B9
:105A4000019C134694420CD8002E03DD58F8043D07
:105A5000002B54D0066103B0BDE8F08F43F8042B4F
:105A6000E3E7B3F800A00432BAF1000F20D0AE464D
:105A700089464FF0000C59F8044BBEF800B0A3B2B1
:105A80000AFB03B34FEA144BDEF8004063444FEACD
:105A9000144C0AFB0BC404EB13449BB243EA0443CB
:105AA0004F454FEA144C4EF8043BE4D8CEF800C002
:105AB00032F8029CB9F1000F1FD0AE468C464FF071
:105AC000000A2B68BCF80040BEF802B09BB209FB8C
:105AD00004B4A24443EA0A434EF8043B5CF8043B96
